{"contracts/Voting.sol":{"Voting":{"abi":[{"inputs":[],"stateMutability":"nonpayable","type":"constructor"},{"inputs":[],"name":"ECDSAInvalidSignature","type":"error"},{"inputs":[{"internalType":"uint256","name":"length","type":"uint256"}],"name":"ECDSAInvalidSignatureLength","type":"error"},{"inputs":[{"internalType":"bytes32","name":"s","type":"bytes32"}],"name":"ECDSAInvalidSignatureS","type":"error"},{"inputs":[{"internalType":"address","name":"spender","type":"address"},{"internalType":"uint256","name":"allowance","type":"uint256"},{"internalType":"uint256","name":"needed","type":"uint256"}],"name":"ERC20InsufficientAllowance","type":"error"},{"inputs":[{"internalType":"address","name":"sender","type":"address"},{"internalType":"uint256","name":"balance","type":"uint256"},{"internalType":"uint256","name":"needed","type":"uint256"}],"name":"ERC20InsufficientBalance","type":"error"},{"inputs":[{"internalType":"address","name":"approver","type":"address"}],"name":"ERC20InvalidApprover","type":"error"},{"inputs":[{"internalType":"address","name":"receiver","type":"address"}],"name":"ERC20InvalidReceiver","type":"error"},{"inputs":[{"internalType":"address","name":"sender","type":"address"}],"name":"ERC20InvalidSender","type":"error"},{"inputs":[{"internalType":"address","name":"spender","type":"address"}],"name":"ERC20InvalidSpender","type":"error"},{"inputs":[{"internalType":"uint256","name":"value","type":"uint256"},{"internalType":"uint256","name":"length","type":"uint256"}],"name":"StringsInsufficientHexLength","type":"error"},{"anonymous":false,"inputs":[{"indexed":true,"internalType":"address","name":"owner","type":"address"},{"indexed":true,"internalType":"address","name":"spender","type":"address"},{"indexed":false,"internalType":"uint256","name":"value","type":"uint256"}],"name":"Approval","type":"event"},{"anonymous":false,"inputs":[{"indexed":true,"internalType":"string","name":"_names","type":"string"},{"indexed":false,"internalType":"uint256","name":"_age","type":"uint256"},{"indexed":true,"internalType":"string","name":"_idNumber","type":"string"},{"indexed":false,"internalType":"string","name":"_party","type":"string"}],"name":"CandidateRegistrationSuccess","type":"event"},{"anonymous":false,"inputs":[{"indexed":false,"internalType":"address","name":"_to","type":"address"},{"indexed":false,"internalType":"uint256","name":"_amount","type":"uint256"}],"name":"MintSuccess","type":"event"},{"anonymous":false,"inputs":[{"indexed":false,"internalType":"string","name":"positionName","type":"string"}],"name":"PositionAdded","type":"event"},{"anonymous":false,"inputs":[],"name":"RegistrationEnded","type":"event"},{"anonymous":false,"inputs":[],"name":"RegistrationStarted","type":"event"},{"anonymous":false,"inputs":[{"indexed":true,"internalType":"address","name":"from","type":"address"},{"indexed":true,"internalType":"address","name":"to","type":"address"},{"indexed":false,"internalType":"uint256","name":"value","type":"uint256"}],"name":"Transfer","type":"event"},{"anonymous":false,"inputs":[{"indexed":true,"internalType":"string","name":"_names","type":"string"},{"indexed":true,"internalType":"string","name":"_idNumber","type":"string"}],"name":"VerifyCandidateSuccess","type":"event"},{"anonymous":false,"inputs":[{"indexed":true,"internalType":"address","name":"voter","type":"address"},{"indexed":false,"internalType":"string","name":"_idNumber","type":"string"},{"indexed":false,"internalType":"string","name":"position","type":"string"},{"indexed":false,"internalType":"uint256","name":"candidateIndex","type":"uint256"}],"name":"VotedSuccess","type":"event"},{"anonymous":false,"inputs":[{"indexed":true,"internalType":"string","name":"_names","type":"string"},{"indexed":false,"internalType":"uint256","name":"_age","type":"uint256"},{"indexed":true,"internalType":"string","name":"_idNumber","type":"string"}],"name":"VoterRegistrationSuccess","type":"event"},{"anonymous":false,"inputs":[],"name":"VotingStarted","type":"event"},{"inputs":[],"name":"MAX_SUPPLY","outputs":[{"internalType":"uint256","name":"","type":"uint256"}],"stateMutability":"view","type":"function"},{"inputs":[],"name":"REGISTER_AS_VOTER","outputs":[{"internalType":"uint256","name":"","type":"uint256"}],"stateMutability":"view","type":"function"},{"inputs":[],"name":"VERIFY_CANDIDATE","outputs":[{"internalType":"uint256","name":"","type":"uint256"}],"stateMutability":"view","type":"function"},{"inputs":[{"internalType":"string[]","name":"_pNames","type":"string[]"}],"name":"addPositions","outputs":[],"stateMutability":"nonpayable","type":"function"},{"inputs":[{"internalType":"address","name":"owner","type":"address"},{"internalType":"address","name":"spender","type":"address"}],"name":"allowance","outputs":[{"internalType":"uint256","name":"","type":"uint256"}],"stateMutability":"view","type":"function"},{"inputs":[{"internalType":"address","name":"spender","type":"address"},{"internalType":"uint256","name":"value","type":"uint256"}],"name":"approve","outputs":[{"internalType":"bool","name":"","type":"bool"}],"stateMutability":"nonpayable","type":"function"},{"inputs":[{"internalType":"address","name":"account","type":"address"}],"name":"balanceOf","outputs":[{"internalType":"uint256","name":"","type":"uint256"}],"stateMutability":"view","type":"function"},{"inputs":[{"internalType":"string","name":"","type":"string"}],"name":"candidateObject","outputs":[{"internalType":"string","name":"names","type":"string"},{"internalType":"uint256","name":"age","type":"uint256"},{"internalType":"string","name":"idNumber","type":"string"},{"internalType":"string","name":"party","type":"string"},{"internalType":"uint256","name":"votes","type":"uint256"},{"internalType":"bool","name":"verified","type":"bool"}],"stateMutability":"view","type":"function"},{"inputs":[{"internalType":"address","name":"userAddress","type":"address"},{"internalType":"string","name":"domain","type":"string"},{"internalType":"string","name":"statement","type":"string"},{"internalType":"string","name":"uri","type":"string"},{"internalType":"uint256","name":"chainId","type":"uint256"},{"internalType":"uint256","name":"nonce","type":"uint256"}],"name":"createMessageHash","outputs":[{"internalType":"bytes32","name":"","type":"bytes32"}],"stateMutability":"pure","type":"function"},{"inputs":[],"name":"decimals","outputs":[{"internalType":"uint8","name":"","type":"uint8"}],"stateMutability":"view","type":"function"},{"inputs":[],"name":"endRegistrationAndStartVoting","outputs":[],"stateMutability":"nonpayable","type":"function"},{"inputs":[],"name":"getAllPositions","outputs":[{"components":[{"internalType":"string","name":"pName","type":"string"},{"components":[{"internalType":"string","name":"names","type":"string"},{"internalType":"uint256","name":"age","type":"uint256"},{"internalType":"string","name":"idNumber","type":"string"},{"internalType":"string","name":"party","type":"string"},{"internalType":"uint256","name":"votes","type":"uint256"},{"internalType":"bool","name":"verified","type":"bool"}],"internalType":"struct Voting.Candidate[]","name":"candidates","type":"tuple[]"}],"internalType":"struct Voting.Position[]","name":"","type":"tuple[]"}],"stateMutability":"view","type":"function"},{"inputs":[],"name":"getPositionCount","outputs":[{"internalType":"uint256","name":"","type":"uint256"}],"stateMutability":"view","type":"function"},{"inputs":[{"internalType":"uint256","name":"","type":"uint256"}],"name":"listOfCandidates","outputs":[{"internalType":"string","name":"names","type":"string"},{"internalType":"uint256","name":"age","type":"uint256"},{"internalType":"string","name":"idNumber","type":"string"},{"internalType":"string","name":"party","type":"string"},{"internalType":"uint256","name":"votes","type":"uint256"},{"internalType":"bool","name":"verified","type":"bool"}],"stateMutability":"view","type":"function"},{"inputs":[{"internalType":"uint256","name":"","type":"uint256"}],"name":"listOfPositions","outputs":[{"internalType":"string","name":"pName","type":"string"}],"stateMutability":"view","type":"function"},{"inputs":[{"internalType":"uint256","name":"","type":"uint256"}],"name":"listOfVoters","outputs":[{"internalType":"string","name":"names","type":"string"},{"internalType":"uint256","name":"age","type":"uint256"},{"internalType":"string","name":"idNumber","type":"string"},{"internalType":"bool","name":"voted","type":"bool"}],"stateMutability":"view","type":"function"},{"inputs":[],"name":"name","outputs":[{"internalType":"string","name":"","type":"string"}],"stateMutability":"view","type":"function"},{"inputs":[],"name":"owner","outputs":[{"internalType":"address","name":"","type":"address"}],"stateMutability":"view","type":"function"},{"inputs":[{"internalType":"string","name":"","type":"string"}],"name":"positions","outputs":[{"internalType":"string","name":"pName","type":"string"}],"stateMutability":"view","type":"function"},{"inputs":[{"internalType":"string","name":"_names","type":"string"},{"internalType":"uint256","name":"_age","type":"uint256"},{"internalType":"string","name":"_idNumber","type":"string"},{"internalType":"string","name":"_party","type":"string"}],"name":"registerCandidate","outputs":[],"stateMutability":"nonpayable","type":"function"},{"inputs":[{"internalType":"string","name":"_names","type":"string"},{"internalType":"uint256","name":"_age","type":"uint256"},{"internalType":"string","name":"_idNumber","type":"string"}],"name":"registerVoter","outputs":[{"internalType":"bool","name":"","type":"bool"}],"stateMutability":"nonpayable","type":"function"},{"inputs":[],"name":"registrationStarted","outputs":[{"internalType":"bool","name":"","type":"bool"}],"stateMutability":"view","type":"function"},{"inputs":[],"name":"startRegistration","outputs":[],"stateMutability":"nonpayable","type":"function"},{"inputs":[],"name":"symbol","outputs":[{"internalType":"string","name":"","type":"string"}],"stateMutability":"view","type":"function"},{"inputs":[],"name":"totalSupply","outputs":[{"internalType":"uint256","name":"","type":"uint256"}],"stateMutability":"view","type":"function"},{"inputs":[{"internalType":"address","name":"to","type":"address"},{"internalType":"uint256","name":"value","type":"uint256"}],"name":"transfer","outputs":[{"internalType":"bool","name":"","type":"bool"}],"stateMutability":"nonpayable","type":"function"},{"inputs":[{"internalType":"address","name":"from","type":"address"},{"internalType":"address","name":"to","type":"address"},{"internalType":"uint256","name":"value","type":"uint256"}],"name":"transferFrom","outputs":[{"internalType":"bool","name":"","type":"bool"}],"stateMutability":"nonpayable","type":"function"},{"inputs":[{"internalType":"string","name":"_idNumber","type":"string"}],"name":"verifyCandidate","outputs":[],"stateMutability":"nonpayable","type":"function"},{"inputs":[{"internalType":"bytes32","name":"hash","type":"bytes32"},{"internalType":"bytes","name":"signature","type":"bytes"}],"name":"verifySignature","outputs":[{"internalType":"bool","name":"","type":"bool"}],"stateMutability":"view","type":"function"},{"inputs":[{"internalType":"string","name":"position","type":"string"},{"internalType":"uint256","name":"candidateIndex","type":"uint256"}],"name":"vote","outputs":[],"stateMutability":"nonpayable","type":"function"},{"inputs":[{"internalType":"string","name":"","type":"string"}],"name":"voterObject","outputs":[{"internalType":"string","name":"names","type":"string"},{"internalType":"uint256","name":"age","type":"uint256"},{"internalType":"string","name":"idNumber","type":"string"},{"internalType":"bool","name":"voted","type":"bool"}],"stateMutability":"view","type":"function"},{"inputs":[{"internalType":"address","name":"","type":"address"}],"name":"voters","outputs":[{"internalType":"string","name":"names","type":"string"},{"internalType":"uint256","name":"age","type":"uint256"},{"internalType":"string","name":"idNumber","type":"string"},{"internalType":"bool","name":"voted","type":"bool"}],"stateMutability":"view","type":"function"},{"inputs":[],"name":"votingStarted","outputs":[{"internalType":"bool","name":"","type":"bool"}],"stateMutability":"view","type":"function"}],"evm":{"bytecode":{"linkReferences":{},"object":"60806040526000600e60006101000a81548160ff0219169083151502179055506000600e60016101000a81548160ff02191690831515021790555034801561004657600080fd5b506040518060400160405280600581526020017f566f7465780000000000000000000000000000000000000000000000000000008152506040518060400160405280600481526020017f56544b4e0000000000000000000000000000000000000000000000000000000081525081600390816100c2919061036b565b5080600490816100d2919061036b565b50505033600560006101000a81548173ffffffffffffffffffffffffffffffffffffffff021916908373ffffffffffffffffffffffffffffffffffffffff16021790555061043d565b600081519050919050565b7f4e487b7100000000000000000000000000000000000000000000000000000000600052604160045260246000fd5b7f4e487b7100000000000000000000000000000000000000000000000000000000600052602260045260246000fd5b6000600282049050600182168061019c57607f821691505b6020821081036101af576101ae610155565b5b50919050565b60008190508160005260206000209050919050565b60006020601f8301049050919050565b600082821b905092915050565b6000600883026102177fffffffffffffffffffffffffffffffffffffffffffffffffffffffffffffffff826101da565b61022186836101da565b95508019841693508086168417925050509392505050565b6000819050919050565b6000819050919050565b600061026861026361025e84610239565b610243565b610239565b9050919050565b6000819050919050565b6102828361024d565b61029661028e8261026f565b8484546101e7565b825550505050565b600090565b6102ab61029e565b6102b6818484610279565b505050565b5b818110156102da576102cf6000826102a3565b6001810190506102bc565b5050565b601f82111561031f576102f0816101b5565b6102f9846101ca565b81016020851015610308578190505b61031c610314856101ca565b8301826102bb565b50505b505050565b600082821c905092915050565b600061034260001984600802610324565b1980831691505092915050565b600061035b8383610331565b9150826002028217905092915050565b6103748261011b565b67ffffffffffffffff81111561038d5761038c610126565b5b6103978254610184565b6103a28282856102de565b600060209050601f8311600181146103d557600084156103c3578287015190505b6103cd858261034f565b865550610435565b601f1984166103e3866101b5565b60005b8281101561040b578489015182556001820191506020850194506020810190506103e6565b868310156104285784890151610424601f891682610331565b8355505b6001600288020188555050505b505050505050565b6159cb8061044c6000396000f3fe608060405234801561001057600080fd5b50600436106101fb5760003560e01c806371565d2e1161011a5780639dfa9065116100ad578063abceaad21161007c578063abceaad214610617578063be94ced714610633578063daca6f7814610651578063dd62ed3e14610681578063ffdd7496146106b1576101fb565b80639dfa90651461057c578063a3ec138d14610598578063a6385803146105cb578063a9059cbb146105e7576101fb565b80638da5cb5b116100e95780638da5cb5b146104d857806392d7df4a146104f657806395d89b411461052b5780639a53cbea14610549576101fb565b806371565d2e1461045057806371a6f4651461046c578063816834761461049c57806383d948b7146104ba576101fb565b8063313ce567116101925780635fbcc155116101615780635fbcc155146103905780636636b91e146103c0578063676f86b0146103f057806370a0823114610420576101fb565b8063313ce5671461031757806332cb6b0c146103355780634a66e1ab1461035357806355d5d61114610386576101fb565b806318f56a0a116101ce57806318f56a0a146102765780631c64a33e1461029457806323b872dd146102c957806327aed42e146102f9576101fb565b806306fdde0314610200578063095ea7b31461021e57806310b866951461024e57806318160ddd14610258575b600080fd5b6102086106cf565b60405161021591906138a3565b60405180910390f35b6102386004803603810190610233919061396d565b610761565b60405161024591906139c8565b60405180910390f35b610256610784565b005b6102606108fd565b60405161026d91906139f2565b60405180910390f35b61027e610907565b60405161028b9190613cd4565b60405180910390f35b6102ae60048036038101906102a99190613e2b565b610c3c565b6040516102c096959493929190613e74565b60405180910390f35b6102e360048036038101906102de9190613eea565b610e33565b6040516102f091906139c8565b60405180910390f35b610301610e62565b60405161030e91906139c8565b60405180910390f35b61031f610e75565b60405161032c9190613f59565b60405180910390f35b61033d610e7e565b60405161034a91906139f2565b60405180910390f35b61036d60048036038101906103689190613e2b565b610e8c565b60405161037d9493929190613f74565b60405180910390f35b61038e610fef565b005b6103aa60048036038101906103a59190613fc7565b6111ae565b6040516103b791906140c1565b60405180910390f35b6103da60048036038101906103d591906140dc565b61121d565b6040516103e791906139c8565b60405180910390f35b61040a60048036038101906104059190613e2b565b61156d565b60405161041791906138a3565b60405180910390f35b61043a60048036038101906104359190614167565b611629565b60405161044791906139f2565b60405180910390f35b61046a60048036038101906104659190614194565b611671565b005b6104866004803603810190610481919061424f565b6119cd565b60405161049391906138a3565b60405180910390f35b6104a4611a83565b6040516104b191906139f2565b60405180910390f35b6104c2611a90565b6040516104cf91906139c8565b60405180910390f35b6104e0611aa3565b6040516104ed919061428b565b60405180910390f35b610510600480360381019061050b919061424f565b611ac9565b60405161052296959493929190613e74565b60405180910390f35b610533611cba565b60405161054091906138a3565b60405180910390f35b610563600480360381019061055e919061424f565b611d4c565b6040516105739493929190613f74565b60405180910390f35b61059660048036038101906105919190613e2b565b611ea9565b005b6105b260048036038101906105ad9190614167565b612070565b6040516105c29493929190613f74565b60405180910390f35b6105e560048036038101906105e091906142a6565b6121bd565b005b61060160048036038101906105fc919061396d565b612491565b60405161060e91906139c8565b60405180910390f35b610631600480360381019061062c91906143e8565b6124b4565b005b61063b61274c565b60405161064891906139f2565b60405180910390f35b61066b600480360381019061066691906144fe565b612758565b60405161067891906139c8565b60405180910390f35b61069b6004803603810190610696919061455a565b6127cb565b6040516106a891906139f2565b60405180910390f35b6106b9612852565b6040516106c691906139f2565b60405180910390f35b6060600380546106de906145c9565b80601f016020809104026020016040519081016040528092919081815260200182805461070a906145c9565b80156107575780601f1061072c57610100808354040283529160200191610757565b820191906000526020600020905b81548152906001019060200180831161073a57829003601f168201915b5050505050905090565b60008061076c61285e565b9050610779818585612866565b600191505092915050565b600560009054906101000a900473ffffffffffffffffffffffffffffffffffffffff1673ffffffffffffffffffffffffffffffffffffffff163373ffffffffffffffffffffffffffffffffffffffff1614610814576040517f08c379a000000000000000000000000000000000000000000000000000000000815260040161080b90614646565b60405180910390fd5b600e60009054906101000a900460ff1615610864576040517f08c379a000000000000000000000000000000000000000000000000000000000815260040161085b906146d8565b60405180910390fd5b600e60019054906101000a900460ff16156108b4576040517f08c379a00000000000000000000000000000000000000000000000000000000081526004016108ab9061476a565b60405180910390fd5b6001600e60006101000a81548160ff0219169083151502179055507f82e6c84abd647d1b4fae9bee1859f2642e5443af0ff900d4af83a93c2bf4151260405160405180910390a1565b6000600254905090565b60606008805480602002602001604051908101604052809291908181526020016000905b82821015610c33578382906000526020600020906002020160405180604001604052908160008201805461095e906145c9565b80601f016020809104026020016040519081016040528092919081815260200182805461098a906145c9565b80156109d75780601f106109ac576101008083540402835291602001916109d7565b820191906000526020600020905b8154815290600101906020018083116109ba57829003601f168201915b5050505050815260200160018201805480602002602001604051908101604052809291908181526020016000905b82821015610c1c57838290600052602060002090600602016040518060c0016040529081600082018054610a38906145c9565b80601f0160208091040260200160405190810160405280929190818152602001828054610a64906145c9565b8015610ab15780601f10610a8657610100808354040283529160200191610ab1565b820191906000526020600020905b815481529060010190602001808311610a9457829003601f168201915b5050505050815260200160018201548152602001600282018054610ad4906145c9565b80601f0160208091040260200160405190810160405280929190818152602001828054610b00906145c9565b8015610b4d5780601f10610b2257610100808354040283529160200191610b4d565b820191906000526020600020905b815481529060010190602001808311610b3057829003601f168201915b50505050508152602001600382018054610b66906145c9565b80601f0160208091040260200160405190810160405280929190818152602001828054610b92906145c9565b8015610bdf5780601f10610bb457610100808354040283529160200191610bdf565b820191906000526020600020905b815481529060010190602001808311610bc257829003601f168201915b50505050508152602001600482015481526020016005820160009054906101000a900460ff16151515158152505081526020019060010190610a05565b50505050815250508152602001906001019061092b565b50505050905090565b600a81805160208101820180518482526020830160208501208183528095505050505050600091509050806000018054610c75906145c9565b80601f0160208091040260200160405190810160405280929190818152602001828054610ca1906145c9565b8015610cee5780601f10610cc357610100808354040283529160200191610cee565b820191906000526020600020905b815481529060010190602001808311610cd157829003601f168201915b505050505090806001015490806002018054610d09906145c9565b80601f0160208091040260200160405190810160405280929190818152602001828054610d35906145c9565b8015610d825780601f10610d5757610100808354040283529160200191610d82565b820191906000526020600020905b815481529060010190602001808311610d6557829003601f168201915b505050505090806003018054610d97906145c9565b80601f0160208091040260200160405190810160405280929190818152602001828054610dc3906145c9565b8015610e105780601f10610de557610100808354040283529160200191610e10565b820191906000526020600020905b815481529060010190602001808311610df357829003601f168201915b5050505050908060040154908060050160009054906101000a900460ff16905086565b600080610e3e61285e565b9050610e4b858285612878565b610e5685858561290c565b60019150509392505050565b600e60009054906101000a900460ff1681565b60006012905090565b69d3c21bcecceda100000081565b600981805160208101820180518482526020830160208501208183528095505050505050600091509050806000018054610ec5906145c9565b80601f0160208091040260200160405190810160405280929190818152602001828054610ef1906145c9565b8015610f3e5780601f10610f1357610100808354040283529160200191610f3e565b820191906000526020600020905b815481529060010190602001808311610f2157829003601f168201915b505050505090806001015490806002018054610f59906145c9565b80601f0160208091040260200160405190810160405280929190818152602001828054610f85906145c9565b8015610fd25780601f10610fa757610100808354040283529160200191610fd2565b820191906000526020600020905b815481529060010190602001808311610fb557829003601f168201915b5050505050908060030160009054906101000a900460ff16905084565b600560009054906101000a900473ffffffffffffffffffffffffffffffffffffffff1673ffffffffffffffffffffffffffffffffffffffff163373ffffffffffffffffffffffffffffffffffffffff161461107f576040517f08c379a000000000000000000000000000000000000000000000000000000000815260040161107690614646565b60405180910390fd5b600e60009054906101000a900460ff166110ce576040517f08c379a00000000000000000000000000000000000000000000000000000000081526004016110c5906147fc565b60405180910390fd5b600e60019054906101000a900460ff161561111e576040517f08c379a000000000000000000000000000000000000000000000000000000000815260040161111590614868565b60405180910390fd5b6000600e60006101000a81548160ff0219169083151502179055506001600e60016101000a81548160ff0219169083151502179055507f2ee88f50f05558e39b34a18214ff6a6adc091504772084c6ce7899354bec0aa460405160405180910390a17f877e2548498f42b7975a186b94ef1d32c86d420b7b806dd2be2bea293b89590460405160405180910390a1565b6000856111d28873ffffffffffffffffffffffffffffffffffffffff166014612a00565b86866111dd87612c46565b6111e687612c46565b6040516020016111fb96959493929190614b70565b6040516020818303038152906040528051906020012090509695505050505050565b6000600e60009054906101000a900460ff1661126e576040517f08c379a0000000000000000000000000000000000000000000000000000000008152600401611265906147fc565b60405180910390fd5b600e60019054906101000a900460ff16156112be576040517f08c379a00000000000000000000000000000000000000000000000000000000081526004016112b590614cc9565b60405180910390fd5b60006009836040516112d09190614ce9565b908152602001604051809103902060000180546112ec906145c9565b90501461132e576040517f08c379a000000000000000000000000000000000000000000000000000000000815260040161132590614d4c565b60405180910390fd5b60006040518060800160405280868152602001858152602001848152602001600015158152509050600681908060018154018082558091505060019003906000526020600020906004020160009091909190915060008201518160000190816113979190614f18565b506020820151816001015560408201518160020190816113b79190614f18565b5060608201518160030160006101000a81548160ff0219169083151502179055505050806009846040516113eb9190614ce9565b9081526020016040518091039020600082015181600001908161140e9190614f18565b5060208201518160010155604082015181600201908161142e9190614f18565b5060608201518160030160006101000a81548160ff02191690831515021790555090505080600c60003373ffffffffffffffffffffffffffffffffffffffff1673ffffffffffffffffffffffffffffffffffffffff16815260200190815260200160002060008201518160000190816114a79190614f18565b506020820151816001015560408201518160020190816114c79190614f18565b5060608201518160030160006101000a81548160ff0219169083151502179055509050506114fd33674563918244f40000612d14565b508260405161150c9190614ce9565b6040518091039020856040516115229190614ce9565b60405180910390207f754a5f7c9336f3562d73dacebf51de10da957ae9dfcae4fbfb93733ece3dd5aa8660405161155991906139f2565b60405180910390a360019150509392505050565b600b818051602081018201805184825260208301602085012081835280955050505050506000915090508060000180546115a6906145c9565b80601f01602080910402602001604051908101604052809291908181526020018280546115d2906145c9565b801561161f5780601f106115f45761010080835404028352916020019161161f565b820191906000526020600020905b81548152906001019060200180831161160257829003601f168201915b5050505050905081565b60008060008373ffffffffffffffffffffffffffffffffffffffff1673ffffffffffffffffffffffffffffffffffffffff168152602001908152602001600020549050919050565b600e60009054906101000a900460ff166116c0576040517f08c379a00000000000000000000000000000000000000000000000000000000081526004016116b7906147fc565b60405180910390fd5b600e60019054906101000a900460ff1615611710576040517f08c379a000000000000000000000000000000000000000000000000000000000815260040161170790614cc9565b60405180910390fd5b6000600a836040516117229190614ce9565b9081526020016040518091039020600001805461173e906145c9565b905014611780576040517f08c379a000000000000000000000000000000000000000000000000000000000815260040161177790615036565b60405180910390fd5b60006009836040516117929190614ce9565b908152602001604051809103902060000180546117ae906145c9565b9050036117f0576040517f08c379a00000000000000000000000000000000000000000000000000000000081526004016117e7906150a2565b60405180910390fd5b60006040518060c0016040528086815260200185815260200184815260200183815260200160008152602001600015158152509050600781908060018154018082558091505060019003906000526020600020906006020160009091909190915060008201518160000190816118669190614f18565b506020820151816001015560408201518160020190816118869190614f18565b50606082015181600301908161189c9190614f18565b506080820151816004015560a08201518160050160006101000a81548160ff021916908315150217905550505080600a846040516118da9190614ce9565b908152602001604051809103902060008201518160000190816118fd9190614f18565b5060208201518160010155604082015181600201908161191d9190614f18565b5060608201518160030190816119339190614f18565b506080820151816004015560a08201518160050160006101000a81548160ff0219169083151502179055509050508260405161196f9190614ce9565b6040518091039020856040516119859190614ce9565b60405180910390207f8afd5f09f2c1c39b88e6ee97fcf10294be6e0486fd829b85f61d0ab7aa008acd86856040516119be9291906150c2565b60405180910390a35050505050565b600881815481106119dd57600080fd5b9060005260206000209060020201600091509050806000018054611a00906145c9565b80601f0160208091040260200160405190810160405280929190818152602001828054611a2c906145c9565b8015611a795780601f10611a4e57610100808354040283529160200191611a79565b820191906000526020600020905b815481529060010190602001808311611a5c57829003601f168201915b5050505050905081565b6000600880549050905090565b600e60019054906101000a900460ff1681565b600560009054906101000a900473ffffffffffffffffffffffffffffffffffffffff1681565b60078181548110611ad957600080fd5b9060005260206000209060060201600091509050806000018054611afc906145c9565b80601f0160208091040260200160405190810160405280929190818152602001828054611b28906145c9565b8015611b755780601f10611b4a57610100808354040283529160200191611b75565b820191906000526020600020905b815481529060010190602001808311611b5857829003601f168201915b505050505090806001015490806002018054611b90906145c9565b80601f0160208091040260200160405190810160405280929190818152602001828054611bbc906145c9565b8015611c095780601f10611bde57610100808354040283529160200191611c09565b820191906000526020600020905b815481529060010190602001808311611bec57829003601f168201915b505050505090806003018054611c1e906145c9565b80601f0160208091040260200160405190810160405280929190818152602001828054611c4a906145c9565b8015611c975780601f10611c6c57610100808354040283529160200191611c97565b820191906000526020600020905b815481529060010190602001808311611c7a57829003601f168201915b5050505050908060040154908060050160009054906101000a900460ff16905086565b606060048054611cc9906145c9565b80601f0160208091040260200160405190810160405280929190818152602001828054611cf5906145c9565b8015611d425780601f10611d1757610100808354040283529160200191611d42565b820191906000526020600020905b815481529060010190602001808311611d2557829003601f168201915b5050505050905090565b60068181548110611d5c57600080fd5b9060005260206000209060040201600091509050806000018054611d7f906145c9565b80601f0160208091040260200160405190810160405280929190818152602001828054611dab906145c9565b8015611df85780601f10611dcd57610100808354040283529160200191611df8565b820191906000526020600020905b815481529060010190602001808311611ddb57829003601f168201915b505050505090806001015490806002018054611e13906145c9565b80601f0160208091040260200160405190810160405280929190818152602001828054611e3f906145c9565b8015611e8c5780601f10611e6157610100808354040283529160200191611e8c565b820191906000526020600020905b815481529060010190602001808311611e6f57829003601f168201915b5050505050908060030160009054906101000a900460ff16905084565b600560009054906101000a900473ffffffffffffffffffffffffffffffffffffffff1673ffffffffffffffffffffffffffffffffffffffff163373ffffffffffffffffffffffffffffffffffffffff1614611f39576040517f08c379a0000000000000000000000000000000000000000000000000000000008152600401611f3090614646565b60405180910390fd5b600a81604051611f499190614ce9565b908152602001604051809103902060050160009054906101000a900460ff1615611fa8576040517f08c379a0000000000000000000000000000000000000000000000000000000008152600401611f9f9061513e565b60405180910390fd5b6001600a82604051611fba9190614ce9565b908152602001604051809103902060050160006101000a81548160ff021916908315150217905550611ff433678ac7230489e80000612d14565b50806040516120039190614ce9565b6040518091039020600a8260405161201b9190614ce9565b908152602001604051809103902060000160405161203991906151e1565b60405180910390207fb78543f054c768084f86f0e559d1e007998ca69729eeffc4b727baa388934a3260405160405180910390a350565b600c602052806000526040600020600091509050806000018054612093906145c9565b80601f01602080910402602001604051908101604052809291908181526020018280546120bf906145c9565b801561210c5780601f106120e15761010080835404028352916020019161210c565b820191906000526020600020905b8154815290600101906020018083116120ef57829003601f168201915b505050505090806001015490806002018054612127906145c9565b80601f0160208091040260200160405190810160405280929190818152602001828054612153906145c9565b80156121a05780601f10612175576101008083540402835291602001916121a0565b820191906000526020600020905b81548152906001019060200180831161218357829003601f168201915b5050505050908060030160009054906101000a900460ff16905084565b600e60009054906101000a900460ff161561220d576040517f08c379a00000000000000000000000000000000000000000000000000000000081526004016122049061526a565b60405180910390fd5b600e60019054906101000a900460ff1661225c576040517f08c379a0000000000000000000000000000000000000000000000000000000008152600401612253906152d6565b60405180910390fd5b6000600c60003373ffffffffffffffffffffffffffffffffffffffff1673ffffffffffffffffffffffffffffffffffffffff16815260200190815260200160002090508060030160009054906101000a900460ff16156122f1576040517f08c379a00000000000000000000000000000000000000000000000000000000081526004016122e890615342565b60405180910390fd5b6000600b846040516123039190614ce9565b90815260200160405180910390206001018054905011612358576040517f08c379a000000000000000000000000000000000000000000000000000000000815260040161234f906153ae565b60405180910390fd5b600b836040516123689190614ce9565b90815260200160405180910390206001018054905082106123be576040517f08c379a00000000000000000000000000000000000000000000000000000000081526004016123b59061541a565b60405180910390fd5b6001600b846040516123d09190614ce9565b908152602001604051809103902060010183815481106123f3576123f261543a565b5b906000526020600020906006020160040160008282546124139190615498565b9250508190555060018160030160006101000a81548160ff0219169083151502179055503373ffffffffffffffffffffffffffffffffffffffff167f477d7faf347a03679fabd88feea150c41667473fc8412962f607fb7503f1bd4382600201858560405161248493929190615550565b60405180910390a2505050565b60008061249c61285e565b90506124a981858561290c565b600191505092915050565b600560009054906101000a900473ffffffffffffffffffffffffffffffffffffffff1673ffffffffffffffffffffffffffffffffffffffff163373ffffffffffffffffffffffffffffffffffffffff1614612544576040517f08c379a000000000000000000000000000000000000000000000000000000000815260040161253b90614646565b60405180910390fd5b60005b815181101561274857600d8282815181106125655761256461543a565b5b602002602001015160405161257a9190614ce9565b908152602001604051809103902060009054906101000a900460ff16156125d6576040517f08c379a00000000000000000000000000000000000000000000000000000000081526004016125cd906155e1565b60405180910390fd5b6000600b8383815181106125ed576125ec61543a565b5b60200260200101516040516126029190614ce9565b908152602001604051809103902090508282815181106126255761262461543a565b5b602002602001015181600001908161263d9190614f18565b5060088190806001815401808255809150506001900390600052602060002090600202016000909190919091506000820181600001908161267e9190615617565b506001820181600101908054612695929190613673565b5050506001600d8484815181106126af576126ae61543a565b5b60200260200101516040516126c49190614ce9565b908152602001604051809103902060006101000a81548160ff0219169083151502179055507ff635339f4b5986d632e76f25211c57346b4b4ca3aa13c1ba323ac1256373145683838151811061271d5761271c61543a565b5b602002602001015160405161273291906138a3565b60405180910390a1508080600101915050612547565b5050565b674563918244f4000081565b6000808360405160200161276c919061576c565b60405160208183030381529060405280519060200120905060006127908285612dc2565b90503373ffffffffffffffffffffffffffffffffffffffff168173ffffffffffffffffffffffffffffffffffffffff16149250505092915050565b6000600160008473ffffffffffffffffffffffffffffffffffffffff1673ffffffffffffffffffffffffffffffffffffffff16815260200190815260200160002060008373ffffffffffffffffffffffffffffffffffffffff1673ffffffffffffffffffffffffffffffffffffffff16815260200190815260200160002054905092915050565b678ac7230489e8000081565b600033905090565b6128738383836001612dee565b505050565b600061288484846127cb565b90507fffffffffffffffffffffffffffffffffffffffffffffffffffffffffffffffff811461290657818110156128f6578281836040517ffb8f41b20000000000000000000000000000000000000000000000000000000081526004016128ed93929190615792565b60405180910390fd5b61290584848484036000612dee565b5b50505050565b600073ffffffffffffffffffffffffffffffffffffffff168373ffffffffffffffffffffffffffffffffffffffff160361297e5760006040517f96c6fd1e000000000000000000000000000000000000000000000000000000008152600401612975919061428b565b60405180910390fd5b600073ffffffffffffffffffffffffffffffffffffffff168273ffffffffffffffffffffffffffffffffffffffff16036129f05760006040517fec442f050000000000000000000000000000000000000000000000000000000081526004016129e7919061428b565b60405180910390fd5b6129fb838383612fc5565b505050565b6060600083905060006002846002612a1891906157c9565b612a229190615498565b67ffffffffffffffff811115612a3b57612a3a613d00565b5b6040519080825280601f01601f191660200182016040528015612a6d5781602001600182028036833780820191505090505b5090507f300000000000000000000000000000000000000000000000000000000000000081600081518110612aa557612aa461543a565b5b60200101907effffffffffffffffffffffffffffffffffffffffffffffffffffffffffffff1916908160001a9053507f780000000000000000000000000000000000000000000000000000000000000081600181518110612b0957612b0861543a565b5b60200101907effffffffffffffffffffffffffffffffffffffffffffffffffffffffffffff1916908160001a90535060006001856002612b4991906157c9565b612b539190615498565b90505b6001811115612bf3577f3031323334353637383961626364656600000000000000000000000000000000600f841660108110612b9557612b9461543a565b5b1a60f81b828281518110612bac57612bab61543a565b5b60200101907effffffffffffffffffffffffffffffffffffffffffffffffffffffffffffff1916908160001a905350600483901c925080612bec9061580b565b9050612b56565b5060008214612c3b5784846040517fe22e27eb000000000000000000000000000000000000000000000000000000008152600401612c32929190615834565b60405180910390fd5b809250505092915050565b606060006001612c55846131ea565b01905060008167ffffffffffffffff811115612c7457612c73613d00565b5b6040519080825280601f01601f191660200182016040528015612ca65781602001600182028036833780820191505090505b509050600082602001820190505b600115612d09578080600190039150507f3031323334353637383961626364656600000000000000000000000000000000600a86061a8153600a8581612cfd57612cfc61585d565b5b04945060008503612cb4575b819350505050919050565b600069d3c21bcecceda1000000612d296108fd565b83612d349190615498565b1115612d75576040517f08c379a0000000000000000000000000000000000000000000000000000000008152600401612d6c906158d8565b60405180910390fd5b612d7f838361333d565b7fcda531bfd68624f13205c0a23cd4d5a7f09792cbb399603114f2b04aaa1bf5cf8383604051612db09291906158f8565b60405180910390a16001905092915050565b600080600080612dd286866133bf565b925092509250612de2828261341b565b82935050505092915050565b600073ffffffffffffffffffffffffffffffffffffffff168473ffffffffffffffffffffffffffffffffffffffff1603612e605760006040517fe602df05000000000000000000000000000000000000000000000000000000008152600401612e57919061428b565b60405180910390fd5b600073ffffffffffffffffffffffffffffffffffffffff168373ffffffffffffffffffffffffffffffffffffffff1603612ed25760006040517f94280d62000000000000000000000000000000000000000000000000000000008152600401612ec9919061428b565b60405180910390fd5b81600160008673ffffffffffffffffffffffffffffffffffffffff1673ffffffffffffffffffffffffffffffffffffffff16815260200190815260200160002060008573ffffffffffffffffffffffffffffffffffffffff1673ffffffffffffffffffffffffffffffffffffffff168152602001908152602001600020819055508015612fbf578273ffffffffffffffffffffffffffffffffffffffff168473ffffffffffffffffffffffffffffffffffffffff167f8c5be1e5ebec7d5bd14f71427d1e84f3dd0314c0f7b2291e5b200ac8c7c3b92584604051612fb691906139f2565b60405180910390a35b50505050565b600073ffffffffffffffffffffffffffffffffffffffff168373ffffffffffffffffffffffffffffffffffffffff160361301757806002600082825461300b9190615498565b925050819055506130ea565b60008060008573ffffffffffffffffffffffffffffffffffffffff1673ffffffffffffffffffffffffffffffffffffffff168152602001908152602001600020549050818110156130a3578381836040517fe450d38c00000000000000000000000000000000000000000000000000000000815260040161309a93929190615792565b60405180910390fd5b8181036000808673ffffffffffffffffffffffffffffffffffffffff1673ffffffffffffffffffffffffffffffffffffffff16815260200190815260200160002081905550505b600073ffffffffffffffffffffffffffffffffffffffff168273ffffffffffffffffffffffffffffffffffffffff16036131335780600260008282540392505081905550613180565b806000808473ffffffffffffffffffffffffffffffffffffffff1673ffffffffffffffffffffffffffffffffffffffff168152602001908152602001600020600082825401925050819055505b8173ffffffffffffffffffffffffffffffffffffffff168373ffffffffffffffffffffffffffffffffffffffff167fddf252ad1be2c89b69c2b068fc378daa952ba7f163c4a11628f55a4df523b3ef836040516131dd91906139f2565b60405180910390a3505050565b600080600090507a184f03e93ff9f4daa797ed6e38ed64bf6a1f0100000000000000008310613248577a184f03e93ff9f4daa797ed6e38ed64bf6a1f010000000000000000838161323e5761323d61585d565b5b0492506040810190505b6d04ee2d6d415b85acef81000000008310613285576d04ee2d6d415b85acef8100000000838161327b5761327a61585d565b5b0492506020810190505b662386f26fc1000083106132b457662386f26fc1000083816132aa576132a961585d565b5b0492506010810190505b6305f5e10083106132dd576305f5e10083816132d3576132d261585d565b5b0492506008810190505b61271083106133025761271083816132f8576132f761585d565b5b0492506004810190505b60648310613325576064838161331b5761331a61585d565b5b0492506002810190505b600a8310613334576001810190505b80915050919050565b600073ffffffffffffffffffffffffffffffffffffffff168273ffffffffffffffffffffffffffffffffffffffff16036133af5760006040517fec442f050000000000000000000000000000000000000000000000000000000081526004016133a6919061428b565b60405180910390fd5b6133bb60008383612fc5565b5050565b600080600060418451036134045760008060006020870151925060408701519150606087015160001a90506133f68882858561357f565b955095509550505050613414565b60006002855160001b9250925092505b9250925092565b6000600381111561342f5761342e615921565b5b82600381111561344257613441615921565b5b031561357b576001600381111561345c5761345b615921565b5b82600381111561346f5761346e615921565b5b036134a6576040517ff645eedf00000000000000000000000000000000000000000000000000000000815260040160405180910390fd5b600260038111156134ba576134b9615921565b5b8260038111156134cd576134cc615921565b5b03613512578060001c6040517ffce698f700000000000000000000000000000000000000000000000000000000815260040161350991906139f2565b60405180910390fd5b60038081111561352557613524615921565b5b82600381111561353857613537615921565b5b0361357a57806040517fd78bce0c00000000000000000000000000000000000000000000000000000000815260040161357191906140c1565b60405180910390fd5b5b5050565b60008060007f7fffffffffffffffffffffffffffffff5d576e7357a4501ddfe92f46681b20a08460001c11156135bf576000600385925092509250613669565b6000600188888888604051600081526020016040526040516135e49493929190615950565b6020604051602081039080840390855afa158015613606573d6000803e3d6000fd5b505050602060405103519050600073ffffffffffffffffffffffffffffffffffffffff168173ffffffffffffffffffffffffffffffffffffffff160361365a57600060016000801b93509350935050613669565b8060008060001b935093509350505b9450945094915050565b82805482825590600052602060002090600602810192821561373a5760005260206000209160060282015b82811115613739578282600082018160000190816136bc9190615617565b5060018201548160010155600282018160020190816136db9190615617565b50600382018160030190816136f09190615617565b50600482015481600401556005820160009054906101000a900460ff168160050160006101000a81548160ff02191690831515021790555050509160060191906006019061369e565b5b509050613747919061374b565b5090565b5b808211156137b2576000808201600061376591906137b6565b600182016000905560028201600061377d91906137b6565b60038201600061378d91906137b6565b60048201600090556005820160006101000a81549060ff02191690555060060161374c565b5090565b5080546137c2906145c9565b6000825580601f106137d457506137f3565b601f0160209004906000526020600020908101906137f291906137f6565b5b50565b5b8082111561380f5760008160009055506001016137f7565b5090565b600081519050919050565b600082825260208201905092915050565b60005b8381101561384d578082015181840152602081019050613832565b60008484015250505050565b6000601f19601f8301169050919050565b600061387582613813565b61387f818561381e565b935061388f81856020860161382f565b61389881613859565b840191505092915050565b600060208201905081810360008301526138bd818461386a565b905092915050565b6000604051905090565b600080fd5b600080fd5b600073ffffffffffffffffffffffffffffffffffffffff82169050919050565b6000613904826138d9565b9050919050565b613914816138f9565b811461391f57600080fd5b50565b6000813590506139318161390b565b92915050565b6000819050919050565b61394a81613937565b811461395557600080fd5b50565b60008135905061396781613941565b92915050565b60008060408385031215613984576139836138cf565b5b600061399285828601613922565b92505060206139a385828601613958565b9150509250929050565b60008115159050919050565b6139c2816139ad565b82525050565b60006020820190506139dd60008301846139b9565b92915050565b6139ec81613937565b82525050565b6000602082019050613a0760008301846139e3565b92915050565b600081519050919050565b600082825260208201905092915050565b6000819050602082019050919050565b600082825260208201905092915050565b6000613a5582613813565b613a5f8185613a39565b9350613a6f81856020860161382f565b613a7881613859565b840191505092915050565b600081519050919050565b600082825260208201905092915050565b6000819050602082019050919050565b613ab881613937565b82525050565b613ac7816139ad565b82525050565b600060c0830160008301518482036000860152613aea8282613a4a565b9150506020830151613aff6020860182613aaf565b5060408301518482036040860152613b178282613a4a565b91505060608301518482036060860152613b318282613a4a565b9150506080830151613b466080860182613aaf565b5060a0830151613b5960a0860182613abe565b508091505092915050565b6000613b708383613acd565b905092915050565b6000602082019050919050565b6000613b9082613a83565b613b9a8185613a8e565b935083602082028501613bac85613a9f565b8060005b85811015613be85784840389528151613bc98582613b64565b9450613bd483613b78565b925060208a01995050600181019050613bb0565b50829750879550505050505092915050565b60006040830160008301518482036000860152613c178282613a4a565b91505060208301518482036020860152613c318282613b85565b9150508091505092915050565b6000613c4a8383613bfa565b905092915050565b6000602082019050919050565b6000613c6a82613a0d565b613c748185613a18565b935083602082028501613c8685613a29565b8060005b85811015613cc25784840389528151613ca38582613c3e565b9450613cae83613c52565b925060208a01995050600181019050613c8a565b50829750879550505050505092915050565b60006020820190508181036000830152613cee8184613c5f565b905092915050565b600080fd5b600080fd5b7f4e487b7100000000000000000000000000000000000000000000000000000000600052604160045260246000fd5b613d3882613859565b810181811067ffffffffffffffff82111715613d5757613d56613d00565b5b80604052505050565b6000613d6a6138c5565b9050613d768282613d2f565b919050565b600067ffffffffffffffff821115613d9657613d95613d00565b5b613d9f82613859565b9050602081019050919050565b82818337600083830152505050565b6000613dce613dc984613d7b565b613d60565b905082815260208101848484011115613dea57613de9613cfb565b5b613df5848285613dac565b509392505050565b600082601f830112613e1257613e11613cf6565b5b8135613e22848260208601613dbb565b91505092915050565b600060208284031215613e4157613e406138cf565b5b600082013567ffffffffffffffff811115613e5f57613e5e6138d4565b5b613e6b84828501613dfd565b91505092915050565b600060c0820190508181036000830152613e8e818961386a565b9050613e9d60208301886139e3565b8181036040830152613eaf818761386a565b90508181036060830152613ec3818661386a565b9050613ed260808301856139e3565b613edf60a08301846139b9565b979650505050505050565b600080600060608486031215613f0357613f026138cf565b5b6000613f1186828701613922565b9350506020613f2286828701613922565b9250506040613f3386828701613958565b9150509250925092565b600060ff82169050919050565b613f5381613f3d565b82525050565b6000602082019050613f6e6000830184613f4a565b92915050565b60006080820190508181036000830152613f8e818761386a565b9050613f9d60208301866139e3565b8181036040830152613faf818561386a565b9050613fbe60608301846139b9565b95945050505050565b60008060008060008060c08789031215613fe457613fe36138cf565b5b6000613ff289828a01613922565b965050602087013567ffffffffffffffff811115614013576140126138d4565b5b61401f89828a01613dfd565b955050604087013567ffffffffffffffff8111156140405761403f6138d4565b5b61404c89828a01613dfd565b945050606087013567ffffffffffffffff81111561406d5761406c6138d4565b5b61407989828a01613dfd565b935050608061408a89828a01613958565b92505060a061409b89828a01613958565b9150509295509295509295565b6000819050919050565b6140bb816140a8565b82525050565b60006020820190506140d660008301846140b2565b92915050565b6000806000606084860312156140f5576140f46138cf565b5b600084013567ffffffffffffffff811115614113576141126138d4565b5b61411f86828701613dfd565b935050602061413086828701613958565b925050604084013567ffffffffffffffff811115614151576141506138d4565b5b61415d86828701613dfd565b9150509250925092565b60006020828403121561417d5761417c6138cf565b5b600061418b84828501613922565b91505092915050565b600080600080608085870312156141ae576141ad6138cf565b5b600085013567ffffffffffffffff8111156141cc576141cb6138d4565b5b6141d887828801613dfd565b94505060206141e987828801613958565b935050604085013567ffffffffffffffff81111561420a576142096138d4565b5b61421687828801613dfd565b925050606085013567ffffffffffffffff811115614237576142366138d4565b5b61424387828801613dfd565b91505092959194509250565b600060208284031215614265576142646138cf565b5b600061427384828501613958565b91505092915050565b614285816138f9565b82525050565b60006020820190506142a0600083018461427c565b92915050565b600080604083850312156142bd576142bc6138cf565b5b600083013567ffffffffffffffff8111156142db576142da6138d4565b5b6142e785828601613dfd565b92505060206142f885828601613958565b9150509250929050565b600067ffffffffffffffff82111561431d5761431c613d00565b5b602082029050602081019050919050565b600080fd5b600061434661434184614302565b613d60565b905080838252602082019050602084028301858111156143695761436861432e565b5b835b818110156143b057803567ffffffffffffffff81111561438e5761438d613cf6565b5b80860161439b8982613dfd565b8552602085019450505060208101905061436b565b5050509392505050565b600082601f8301126143cf576143ce613cf6565b5b81356143df848260208601614333565b91505092915050565b6000602082840312156143fe576143fd6138cf565b5b600082013567ffffffffffffffff81111561441c5761441b6138d4565b5b614428848285016143ba565b91505092915050565b61443a816140a8565b811461444557600080fd5b50565b60008135905061445781614431565b92915050565b600067ffffffffffffffff82111561447857614477613d00565b5b61448182613859565b9050602081019050919050565b60006144a161449c8461445d565b613d60565b9050828152602081018484840111156144bd576144bc613cfb565b5b6144c8848285613dac565b509392505050565b600082601f8301126144e5576144e4613cf6565b5b81356144f584826020860161448e565b91505092915050565b60008060408385031215614515576145146138cf565b5b600061452385828601614448565b925050602083013567ffffffffffffffff811115614544576145436138d4565b5b614550858286016144d0565b9150509250929050565b60008060408385031215614571576145706138cf565b5b600061457f85828601613922565b925050602061459085828601613922565b9150509250929050565b7f4e487b7100000000000000000000000000000000000000000000000000000000600052602260045260246000fd5b600060028204905060018216806145e157607f821691505b6020821081036145f4576145f361459a565b5b50919050565b7f596f7520617265206e6f7420746865206f776e65722100000000000000000000600082015250565b600061463060168361381e565b915061463b826145fa565b602082019050919050565b6000602082019050818103600083015261465f81614623565b9050919050565b7f526567697374726174696f6e2068617320616c7265616479207374617274656460008201527f2e00000000000000000000000000000000000000000000000000000000000000602082015250565b60006146c260218361381e565b91506146cd82614666565b604082019050919050565b600060208201905081810360008301526146f1816146b5565b9050919050565b7f43616e6e6f7420737461727420726567697374726174696f6e2061667465722060008201527f766f74696e672068617320626567756e2e000000000000000000000000000000602082015250565b600061475460318361381e565b915061475f826146f8565b604082019050919050565b6000602082019050818103600083015261478381614747565b9050919050565b7f526567697374726174696f6e20706572696f6420686173206e6f74207374617260008201527f7465642e00000000000000000000000000000000000000000000000000000000602082015250565b60006147e660248361381e565b91506147f18261478a565b604082019050919050565b60006020820190508181036000830152614815816147d9565b9050919050565b7f566f74696e672068617320616c726561647920737461727465642e0000000000600082015250565b6000614852601b8361381e565b915061485d8261481c565b602082019050919050565b6000602082019050818103600083015261488181614845565b9050919050565b600081905092915050565b7f19457468657265756d205369676e6564204d6573736167653a0a000000000000600082015250565b60006148c9601a83614888565b91506148d482614893565b601a82019050919050565b7f446f6d61696e3a20000000000000000000000000000000000000000000000000600082015250565b6000614915600883614888565b9150614920826148df565b600882019050919050565b600061493682613813565b6149408185614888565b935061495081856020860161382f565b80840191505092915050565b7f0a00000000000000000000000000000000000000000000000000000000000000600082015250565b6000614992600183614888565b915061499d8261495c565b600182019050919050565b7f416464726573733a200000000000000000000000000000000000000000000000600082015250565b60006149de600983614888565b91506149e9826149a8565b600982019050919050565b7f53746174656d656e743a20000000000000000000000000000000000000000000600082015250565b6000614a2a600b83614888565b9150614a35826149f4565b600b82019050919050565b7f5552493a20000000000000000000000000000000000000000000000000000000600082015250565b6000614a76600583614888565b9150614a8182614a40565b600582019050919050565b7f56657273696f6e3a20310a000000000000000000000000000000000000000000600082015250565b6000614ac2600b83614888565b9150614acd82614a8c565b600b82019050919050565b7f436861696e2049443a2000000000000000000000000000000000000000000000600082015250565b6000614b0e600a83614888565b9150614b1982614ad8565b600a82019050919050565b7f4e6f6e63653a2000000000000000000000000000000000000000000000000000600082015250565b6000614b5a600783614888565b9150614b6582614b24565b600782019050919050565b6000614b7b826148bc565b9150614b8682614908565b9150614b92828961492b565b9150614b9d82614985565b9150614ba8826149d1565b9150614bb4828861492b565b9150614bbf82614985565b9150614bca82614a1d565b9150614bd6828761492b565b9150614be182614985565b9150614bec82614a69565b9150614bf8828661492b565b9150614c0382614985565b9150614c0e82614ab5565b9150614c1982614b01565b9150614c25828561492b565b9150614c3082614985565b9150614c3b82614b4d565b9150614c47828461492b565b9150819050979650505050505050565b7f43616e6e6f7420726567697374657220647572696e6720766f74696e6720706560008201527f72696f642e000000000000000000000000000000000000000000000000000000602082015250565b6000614cb360258361381e565b9150614cbe82614c57565b604082019050919050565b60006020820190508181036000830152614ce281614ca6565b9050919050565b6000614cf5828461492b565b915081905092915050565b7f566f74657220616c726561647920657869737473210000000000000000000000600082015250565b6000614d3660158361381e565b9150614d4182614d00565b602082019050919050565b60006020820190508181036000830152614d6581614d29565b9050919050565b60008190508160005260206000209050919050565b60006020601f8301049050919050565b600082821b905092915050565b600060088302614dce7fffffffffffffffffffffffffffffffffffffffffffffffffffffffffffffffff82614d91565b614dd88683614d91565b95508019841693508086168417925050509392505050565b6000819050919050565b6000614e15614e10614e0b84613937565b614df0565b613937565b9050919050565b6000819050919050565b614e2f83614dfa565b614e43614e3b82614e1c565b848454614d9e565b825550505050565b600090565b614e58614e4b565b614e63818484614e26565b505050565b5b81811015614e8757614e7c600082614e50565b600181019050614e69565b5050565b601f821115614ecc57614e9d81614d6c565b614ea684614d81565b81016020851015614eb5578190505b614ec9614ec185614d81565b830182614e68565b50505b505050565b600082821c905092915050565b6000614eef60001984600802614ed1565b1980831691505092915050565b6000614f088383614ede565b9150826002028217905092915050565b614f2182613813565b67ffffffffffffffff811115614f3a57614f39613d00565b5b614f4482546145c9565b614f4f828285614e8b565b600060209050601f831160018114614f825760008415614f70578287015190505b614f7a8582614efc565b865550614fe2565b601f198416614f9086614d6c565b60005b82811015614fb857848901518255600182019150602085019450602081019050614f93565b86831015614fd55784890151614fd1601f891682614ede565b8355505b6001600288020188555050505b505050505050565b7f43616e64696461746520616c7265616479206578697374732100000000000000600082015250565b600061502060198361381e565b915061502b82614fea565b602082019050919050565b6000602082019050818103600083015261504f81615013565b9050919050565b7f596f75206d7573742062652061207265676973746572656420766f7465722100600082015250565b600061508c601f8361381e565b915061509782615056565b602082019050919050565b600060208201905081810360008301526150bb8161507f565b9050919050565b60006040820190506150d760008301856139e3565b81810360208301526150e9818461386a565b90509392505050565b7f43616e64696461746520616c7265616479207665726966696564210000000000600082015250565b6000615128601b8361381e565b9150615133826150f2565b602082019050919050565b600060208201905081810360008301526151578161511b565b9050919050565b6000815461516b816145c9565b6151758186614888565b9450600182166000811461519057600181146151a5576151d8565b60ff19831686528115158202860193506151d8565b6151ae85614d6c565b60005b838110156151d0578154818901526001820191506020810190506151b1565b838801955050505b50505092915050565b60006151ed828461515e565b915081905092915050565b7f526567697374726174696f6e20706572696f64206973207374696c6c2061637460008201527f6976652e00000000000000000000000000000000000000000000000000000000602082015250565b600061525460248361381e565b915061525f826151f8565b604082019050919050565b6000602082019050818103600083015261528381615247565b9050919050565b7f566f74696e6720686173206e6f742073746172746564207965742e0000000000600082015250565b60006152c0601b8361381e565b91506152cb8261528a565b602082019050919050565b600060208201905081810360008301526152ef816152b3565b9050919050565b7f596f75206861766520616c726561647920766f7465642e000000000000000000600082015250565b600061532c60178361381e565b9150615337826152f6565b602082019050919050565b6000602082019050818103600083015261535b8161531f565b9050919050565b7f496e76616c696420706f736974696f6e2e000000000000000000000000000000600082015250565b600061539860118361381e565b91506153a382615362565b602082019050919050565b600060208201905081810360008301526153c78161538b565b9050919050565b7f496e76616c69642063616e64696461746520696e6465782e0000000000000000600082015250565b600061540460188361381e565b915061540f826153ce565b602082019050919050565b60006020820190508181036000830152615433816153f7565b9050919050565b7f4e487b7100000000000000000000000000000000000000000000000000000000600052603260045260246000fd5b7f4e487b7100000000000000000000000000000000000000000000000000000000600052601160045260246000fd5b60006154a382613937565b91506154ae83613937565b92508282019050808211156154c6576154c5615469565b5b92915050565b600081546154d9816145c9565b6154e3818661381e565b945060018216600081146154fe576001811461551457615547565b60ff198316865281151560200286019350615547565b61551d85614d6c565b60005b8381101561553f57815481890152600182019150602081019050615520565b808801955050505b50505092915050565b6000606082019050818103600083015261556a81866154cc565b9050818103602083015261557e818561386a565b905061558d60408301846139e3565b949350505050565b7f506f736974696f6e20616c726561647920657869737473210000000000000000600082015250565b60006155cb60188361381e565b91506155d682615595565b602082019050919050565b600060208201905081810360008301526155fa816155be565b9050919050565b600081549050615610816145c9565b9050919050565b8181036156255750506156fd565b61562e82615601565b67ffffffffffffffff81111561564757615646613d00565b5b61565182546145c9565b61565c828285614e8b565b6000601f83116001811461568b5760008415615679578287015490505b6156838582614efc565b8655506156f6565b601f19841661569987614d6c565b96506156a486614d6c565b60005b828110156156cc578489015482556001820191506001850194506020810190506156a7565b868310156156e957848901546156e5601f891682614ede565b8355505b6001600288020188555050505b5050505050505b565b7f19457468657265756d205369676e6564204d6573736167653a0a333200000000600082015250565b6000615735601c83614888565b9150615740826156ff565b601c82019050919050565b6000819050919050565b615766615761826140a8565b61574b565b82525050565b600061577782615728565b91506157838284615755565b60208201915081905092915050565b60006060820190506157a7600083018661427c565b6157b460208301856139e3565b6157c160408301846139e3565b949350505050565b60006157d482613937565b91506157df83613937565b92508282026157ed81613937565b9150828204841483151761580457615803615469565b5b5092915050565b600061581682613937565b91506000820361582957615828615469565b5b600182039050919050565b600060408201905061584960008301856139e3565b61585660208301846139e3565b9392505050565b7f4e487b7100000000000000000000000000000000000000000000000000000000600052601260045260246000fd5b7f546f6b656e206c696d6974206578636565646564210000000000000000000000600082015250565b60006158c260158361381e565b91506158cd8261588c565b602082019050919050565b600060208201905081810360008301526158f1816158b5565b9050919050565b600060408201905061590d600083018561427c565b61591a60208301846139e3565b9392505050565b7f4e487b7100000000000000000000000000000000000000000000000000000000600052602160045260246000fd5b600060808201905061596560008301876140b2565b6159726020830186613f4a565b61597f60408301856140b2565b61598c60608301846140b2565b9594505050505056fea26469706673582212204bc828ea128bfb606521c2707182e47ea4f50530452b7644dcf81402e3216f9d64736f6c634300081b0033","opcodes":"PUSH1 0x80 PUSH1 0x40 MSTORE PUSH1 0x0 PUSH1 0xE PUSH1 0x0 PUSH2 0x100 EXP DUP2 SLOAD DUP2 PUSH1 0xFF MUL NOT AND SWAP1 DUP4 ISZERO ISZERO MUL OR SWAP1 SSTORE POP PUSH1 0x0 PUSH1 0xE PUSH1 0x1 PUSH2 0x100 EXP DUP2 SLOAD DUP2 PUSH1 0xFF MUL NOT AND SWAP1 DUP4 ISZERO ISZERO MUL OR SWAP1 SSTORE POP CALLVALUE DUP1 ISZERO PUSH2 0x46 JUMPI PUSH1 0x0 DUP1 REVERT JUMPDEST POP PUSH1 0x40 MLOAD DUP1 PUSH1 0x40 ADD PUSH1 0x40 MSTORE DUP1 PUSH1 0x5 DUP2 MSTORE PUSH1 0x20 ADD PUSH32 0x566F746578000000000000000000000000000000000000000000000000000000 DUP2 MSTORE POP PUSH1 0x40 MLOAD DUP1 PUSH1 0x40 ADD PUSH1 0x40 MSTORE DUP1 PUSH1 0x4 DUP2 MSTORE PUSH1 0x20 ADD PUSH32 0x56544B4E00000000000000000000000000000000000000000000000000000000 DUP2 MSTORE POP DUP2 PUSH1 0x3 SWAP1 DUP2 PUSH2 0xC2 SWAP2 SWAP1 PUSH2 0x36B JUMP JUMPDEST POP DUP1 PUSH1 0x4 SWAP1 DUP2 PUSH2 0xD2 SWAP2 SWAP1 PUSH2 0x36B JUMP JUMPDEST POP POP POP CALLER PUSH1 0x5 PUSH1 0x0 PUSH2 0x100 EXP DUP2 SLOAD DUP2 PUSH20 0xFFFFFFFFFFFFFFFFFFFFFFFFFFFFFFFFFFFFFFFF MUL NOT AND SWAP1 DUP4 PUSH20 0xFFFFFFFFFFFFFFFFFFFFFFFFFFFFFFFFFFFFFFFF AND MUL OR SWAP1 SSTORE POP PUSH2 0x43D JUMP JUMPDEST PUSH1 0x0 DUP2 MLOAD SWAP1 POP SWAP2 SWAP1 POP JUMP JUMPDEST PUSH32 0x4E487B7100000000000000000000000000000000000000000000000000000000 PUSH1 0x0 MSTORE PUSH1 0x41 PUSH1 0x4 MSTORE PUSH1 0x24 PUSH1 0x0 REVERT JUMPDEST PUSH32 0x4E487B7100000000000000000000000000000000000000000000000000000000 PUSH1 0x0 MSTORE PUSH1 0x22 PUSH1 0x4 MSTORE PUSH1 0x24 PUSH1 0x0 REVERT JUMPDEST PUSH1 0x0 PUSH1 0x2 DUP3 DIV SWAP1 POP PUSH1 0x1 DUP3 AND DUP1 PUSH2 0x19C JUMPI PUSH1 0x7F DUP3 AND SWAP2 POP JUMPDEST PUSH1 0x20 DUP3 LT DUP2 SUB PUSH2 0x1AF JUMPI PUSH2 0x1AE PUSH2 0x155 JUMP JUMPDEST JUMPDEST POP SWAP2 SWAP1 POP JUMP JUMPDEST PUSH1 0x0 DUP2 SWAP1 POP DUP2 PUSH1 0x0 MSTORE PUSH1 0x20 PUSH1 0x0 KECCAK256 SWAP1 POP SWAP2 SWAP1 POP JUMP JUMPDEST PUSH1 0x0 PUSH1 0x20 PUSH1 0x1F DUP4 ADD DIV SWAP1 POP SWAP2 SWAP1 POP JUMP JUMPDEST PUSH1 0x0 DUP3 DUP3 SHL SWAP1 POP SWAP3 SWAP2 POP POP JUMP JUMPDEST PUSH1 0x0 PUSH1 0x8 DUP4 MUL PUSH2 0x217 PUSH32 0xFFFFFFFFFFFFFFFFFFFFFFFFFFFFFFFFFFFFFFFFFFFFFFFFFFFFFFFFFFFFFFFF DUP3 PUSH2 0x1DA JUMP JUMPDEST PUSH2 0x221 DUP7 DUP4 PUSH2 0x1DA JUMP JUMPDEST SWAP6 POP DUP1 NOT DUP5 AND SWAP4 POP DUP1 DUP7 AND DUP5 OR SWAP3 POP POP POP SWAP4 SWAP3 POP POP POP JUMP JUMPDEST PUSH1 0x0 DUP2 SWAP1 POP SWAP2 SWAP1 POP JUMP JUMPDEST PUSH1 0x0 DUP2 SWAP1 POP SWAP2 SWAP1 POP JUMP JUMPDEST PUSH1 0x0 PUSH2 0x268 PUSH2 0x263 PUSH2 0x25E DUP5 PUSH2 0x239 JUMP JUMPDEST PUSH2 0x243 JUMP JUMPDEST PUSH2 0x239 JUMP JUMPDEST SWAP1 POP SWAP2 SWAP1 POP JUMP JUMPDEST PUSH1 0x0 DUP2 SWAP1 POP SWAP2 SWAP1 POP JUMP JUMPDEST PUSH2 0x282 DUP4 PUSH2 0x24D JUMP JUMPDEST PUSH2 0x296 PUSH2 0x28E DUP3 PUSH2 0x26F JUMP JUMPDEST DUP5 DUP5 SLOAD PUSH2 0x1E7 JUMP JUMPDEST DUP3 SSTORE POP POP POP POP JUMP JUMPDEST PUSH1 0x0 SWAP1 JUMP JUMPDEST PUSH2 0x2AB PUSH2 0x29E JUMP JUMPDEST PUSH2 0x2B6 DUP2 DUP5 DUP5 PUSH2 0x279 JUMP JUMPDEST POP POP POP JUMP JUMPDEST JUMPDEST DUP2 DUP2 LT ISZERO PUSH2 0x2DA JUMPI PUSH2 0x2CF PUSH1 0x0 DUP3 PUSH2 0x2A3 JUMP JUMPDEST PUSH1 0x1 DUP2 ADD SWAP1 POP PUSH2 0x2BC JUMP JUMPDEST POP POP JUMP JUMPDEST PUSH1 0x1F DUP3 GT ISZERO PUSH2 0x31F JUMPI PUSH2 0x2F0 DUP2 PUSH2 0x1B5 JUMP JUMPDEST PUSH2 0x2F9 DUP5 PUSH2 0x1CA JUMP JUMPDEST DUP2 ADD PUSH1 0x20 DUP6 LT ISZERO PUSH2 0x308 JUMPI DUP2 SWAP1 POP JUMPDEST PUSH2 0x31C PUSH2 0x314 DUP6 PUSH2 0x1CA JUMP JUMPDEST DUP4 ADD DUP3 PUSH2 0x2BB JUMP JUMPDEST POP POP JUMPDEST POP POP POP JUMP JUMPDEST PUSH1 0x0 DUP3 DUP3 SHR SWAP1 POP SWAP3 SWAP2 POP POP JUMP JUMPDEST PUSH1 0x0 PUSH2 0x342 PUSH1 0x0 NOT DUP5 PUSH1 0x8 MUL PUSH2 0x324 JUMP JUMPDEST NOT DUP1 DUP4 AND SWAP2 POP POP SWAP3 SWAP2 POP POP JUMP JUMPDEST PUSH1 0x0 PUSH2 0x35B DUP4 DUP4 PUSH2 0x331 JUMP JUMPDEST SWAP2 POP DUP3 PUSH1 0x2 MUL DUP3 OR SWAP1 POP SWAP3 SWAP2 POP POP JUMP JUMPDEST PUSH2 0x374 DUP3 PUSH2 0x11B JUMP JUMPDEST PUSH8 0xFFFFFFFFFFFFFFFF DUP2 GT ISZERO PUSH2 0x38D JUMPI PUSH2 0x38C PUSH2 0x126 JUMP JUMPDEST JUMPDEST PUSH2 0x397 DUP3 SLOAD PUSH2 0x184 JUMP JUMPDEST PUSH2 0x3A2 DUP3 DUP3 DUP6 PUSH2 0x2DE JUMP JUMPDEST PUSH1 0x0 PUSH1 0x20 SWAP1 POP PUSH1 0x1F DUP4 GT PUSH1 0x1 DUP2 EQ PUSH2 0x3D5 JUMPI PUSH1 0x0 DUP5 ISZERO PUSH2 0x3C3 JUMPI DUP3 DUP8 ADD MLOAD SWAP1 POP JUMPDEST PUSH2 0x3CD DUP6 DUP3 PUSH2 0x34F JUMP JUMPDEST DUP7 SSTORE POP PUSH2 0x435 JUMP JUMPDEST PUSH1 0x1F NOT DUP5 AND PUSH2 0x3E3 DUP7 PUSH2 0x1B5 JUMP JUMPDEST PUSH1 0x0 JUMPDEST DUP3 DUP2 LT ISZERO PUSH2 0x40B JUMPI DUP5 DUP10 ADD MLOAD DUP3 SSTORE PUSH1 0x1 DUP3 ADD SWAP2 POP PUSH1 0x20 DUP6 ADD SWAP5 POP PUSH1 0x20 DUP2 ADD SWAP1 POP PUSH2 0x3E6 JUMP JUMPDEST DUP7 DUP4 LT ISZERO PUSH2 0x428 JUMPI DUP5 DUP10 ADD MLOAD PUSH2 0x424 PUSH1 0x1F DUP10 AND DUP3 PUSH2 0x331 JUMP JUMPDEST DUP4 SSTORE POP JUMPDEST PUSH1 0x1 PUSH1 0x2 DUP9 MUL ADD DUP9 SSTORE POP POP POP JUMPDEST POP POP POP POP POP POP JUMP JUMPDEST PUSH2 0x59CB DUP1 PUSH2 0x44C PUSH1 0x0 CODECOPY PUSH1 0x0 RETURN INVALID PUSH1 0x80 PUSH1 0x40 MSTORE CALLVALUE DUP1 ISZERO PUSH2 0x10 JUMPI PUSH1 0x0 DUP1 REVERT JUMPDEST POP PUSH1 0x4 CALLDATASIZE LT PUSH2 0x1FB JUMPI PUSH1 0x0 CALLDATALOAD PUSH1 0xE0 SHR DUP1 PUSH4 0x71565D2E GT PUSH2 0x11A JUMPI DUP1 PUSH4 0x9DFA9065 GT PUSH2 0xAD JUMPI DUP1 PUSH4 0xABCEAAD2 GT PUSH2 0x7C JUMPI DUP1 PUSH4 0xABCEAAD2 EQ PUSH2 0x617 JUMPI DUP1 PUSH4 0xBE94CED7 EQ PUSH2 0x633 JUMPI DUP1 PUSH4 0xDACA6F78 EQ PUSH2 0x651 JUMPI DUP1 PUSH4 0xDD62ED3E EQ PUSH2 0x681 JUMPI DUP1 PUSH4 0xFFDD7496 EQ PUSH2 0x6B1 JUMPI PUSH2 0x1FB JUMP JUMPDEST DUP1 PUSH4 0x9DFA9065 EQ PUSH2 0x57C JUMPI DUP1 PUSH4 0xA3EC138D EQ PUSH2 0x598 JUMPI DUP1 PUSH4 0xA6385803 EQ PUSH2 0x5CB JUMPI DUP1 PUSH4 0xA9059CBB EQ PUSH2 0x5E7 JUMPI PUSH2 0x1FB JUMP JUMPDEST DUP1 PUSH4 0x8DA5CB5B GT PUSH2 0xE9 JUMPI DUP1 PUSH4 0x8DA5CB5B EQ PUSH2 0x4D8 JUMPI DUP1 PUSH4 0x92D7DF4A EQ PUSH2 0x4F6 JUMPI DUP1 PUSH4 0x95D89B41 EQ PUSH2 0x52B JUMPI DUP1 PUSH4 0x9A53CBEA EQ PUSH2 0x549 JUMPI PUSH2 0x1FB JUMP JUMPDEST DUP1 PUSH4 0x71565D2E EQ PUSH2 0x450 JUMPI DUP1 PUSH4 0x71A6F465 EQ PUSH2 0x46C JUMPI DUP1 PUSH4 0x81683476 EQ PUSH2 0x49C JUMPI DUP1 PUSH4 0x83D948B7 EQ PUSH2 0x4BA JUMPI PUSH2 0x1FB JUMP JUMPDEST DUP1 PUSH4 0x313CE567 GT PUSH2 0x192 JUMPI DUP1 PUSH4 0x5FBCC155 GT PUSH2 0x161 JUMPI DUP1 PUSH4 0x5FBCC155 EQ PUSH2 0x390 JUMPI DUP1 PUSH4 0x6636B91E EQ PUSH2 0x3C0 JUMPI DUP1 PUSH4 0x676F86B0 EQ PUSH2 0x3F0 JUMPI DUP1 PUSH4 0x70A08231 EQ PUSH2 0x420 JUMPI PUSH2 0x1FB JUMP JUMPDEST DUP1 PUSH4 0x313CE567 EQ PUSH2 0x317 JUMPI DUP1 PUSH4 0x32CB6B0C EQ PUSH2 0x335 JUMPI DUP1 PUSH4 0x4A66E1AB EQ PUSH2 0x353 JUMPI DUP1 PUSH4 0x55D5D611 EQ PUSH2 0x386 JUMPI PUSH2 0x1FB JUMP JUMPDEST DUP1 PUSH4 0x18F56A0A GT PUSH2 0x1CE JUMPI DUP1 PUSH4 0x18F56A0A EQ PUSH2 0x276 JUMPI DUP1 PUSH4 0x1C64A33E EQ PUSH2 0x294 JUMPI DUP1 PUSH4 0x23B872DD EQ PUSH2 0x2C9 JUMPI DUP1 PUSH4 0x27AED42E EQ PUSH2 0x2F9 JUMPI PUSH2 0x1FB JUMP JUMPDEST DUP1 PUSH4 0x6FDDE03 EQ PUSH2 0x200 JUMPI DUP1 PUSH4 0x95EA7B3 EQ PUSH2 0x21E JUMPI DUP1 PUSH4 0x10B86695 EQ PUSH2 0x24E JUMPI DUP1 PUSH4 0x18160DDD EQ PUSH2 0x258 JUMPI JUMPDEST PUSH1 0x0 DUP1 REVERT JUMPDEST PUSH2 0x208 PUSH2 0x6CF JUMP JUMPDEST PUSH1 0x40 MLOAD PUSH2 0x215 SWAP2 SWAP1 PUSH2 0x38A3 JUMP JUMPDEST PUSH1 0x40 MLOAD DUP1 SWAP2 SUB SWAP1 RETURN JUMPDEST PUSH2 0x238 PUSH1 0x4 DUP1 CALLDATASIZE SUB DUP2 ADD SWAP1 PUSH2 0x233 SWAP2 SWAP1 PUSH2 0x396D JUMP JUMPDEST PUSH2 0x761 JUMP JUMPDEST PUSH1 0x40 MLOAD PUSH2 0x245 SWAP2 SWAP1 PUSH2 0x39C8 JUMP JUMPDEST PUSH1 0x40 MLOAD DUP1 SWAP2 SUB SWAP1 RETURN JUMPDEST PUSH2 0x256 PUSH2 0x784 JUMP JUMPDEST STOP JUMPDEST PUSH2 0x260 PUSH2 0x8FD JUMP JUMPDEST PUSH1 0x40 MLOAD PUSH2 0x26D SWAP2 SWAP1 PUSH2 0x39F2 JUMP JUMPDEST PUSH1 0x40 MLOAD DUP1 SWAP2 SUB SWAP1 RETURN JUMPDEST PUSH2 0x27E PUSH2 0x907 JUMP JUMPDEST PUSH1 0x40 MLOAD PUSH2 0x28B SWAP2 SWAP1 PUSH2 0x3CD4 JUMP JUMPDEST PUSH1 0x40 MLOAD DUP1 SWAP2 SUB SWAP1 RETURN JUMPDEST PUSH2 0x2AE PUSH1 0x4 DUP1 CALLDATASIZE SUB DUP2 ADD SWAP1 PUSH2 0x2A9 SWAP2 SWAP1 PUSH2 0x3E2B JUMP JUMPDEST PUSH2 0xC3C JUMP JUMPDEST PUSH1 0x40 MLOAD PUSH2 0x2C0 SWAP7 SWAP6 SWAP5 SWAP4 SWAP3 SWAP2 SWAP1 PUSH2 0x3E74 JUMP JUMPDEST PUSH1 0x40 MLOAD DUP1 SWAP2 SUB SWAP1 RETURN JUMPDEST PUSH2 0x2E3 PUSH1 0x4 DUP1 CALLDATASIZE SUB DUP2 ADD SWAP1 PUSH2 0x2DE SWAP2 SWAP1 PUSH2 0x3EEA JUMP JUMPDEST PUSH2 0xE33 JUMP JUMPDEST PUSH1 0x40 MLOAD PUSH2 0x2F0 SWAP2 SWAP1 PUSH2 0x39C8 JUMP JUMPDEST PUSH1 0x40 MLOAD DUP1 SWAP2 SUB SWAP1 RETURN JUMPDEST PUSH2 0x301 PUSH2 0xE62 JUMP JUMPDEST PUSH1 0x40 MLOAD PUSH2 0x30E SWAP2 SWAP1 PUSH2 0x39C8 JUMP JUMPDEST PUSH1 0x40 MLOAD DUP1 SWAP2 SUB SWAP1 RETURN JUMPDEST PUSH2 0x31F PUSH2 0xE75 JUMP JUMPDEST PUSH1 0x40 MLOAD PUSH2 0x32C SWAP2 SWAP1 PUSH2 0x3F59 JUMP JUMPDEST PUSH1 0x40 MLOAD DUP1 SWAP2 SUB SWAP1 RETURN JUMPDEST PUSH2 0x33D PUSH2 0xE7E JUMP JUMPDEST PUSH1 0x40 MLOAD PUSH2 0x34A SWAP2 SWAP1 PUSH2 0x39F2 JUMP JUMPDEST PUSH1 0x40 MLOAD DUP1 SWAP2 SUB SWAP1 RETURN JUMPDEST PUSH2 0x36D PUSH1 0x4 DUP1 CALLDATASIZE SUB DUP2 ADD SWAP1 PUSH2 0x368 SWAP2 SWAP1 PUSH2 0x3E2B JUMP JUMPDEST PUSH2 0xE8C JUMP JUMPDEST PUSH1 0x40 MLOAD PUSH2 0x37D SWAP5 SWAP4 SWAP3 SWAP2 SWAP1 PUSH2 0x3F74 JUMP JUMPDEST PUSH1 0x40 MLOAD DUP1 SWAP2 SUB SWAP1 RETURN JUMPDEST PUSH2 0x38E PUSH2 0xFEF JUMP JUMPDEST STOP JUMPDEST PUSH2 0x3AA PUSH1 0x4 DUP1 CALLDATASIZE SUB DUP2 ADD SWAP1 PUSH2 0x3A5 SWAP2 SWAP1 PUSH2 0x3FC7 JUMP JUMPDEST PUSH2 0x11AE JUMP JUMPDEST PUSH1 0x40 MLOAD PUSH2 0x3B7 SWAP2 SWAP1 PUSH2 0x40C1 JUMP JUMPDEST PUSH1 0x40 MLOAD DUP1 SWAP2 SUB SWAP1 RETURN JUMPDEST PUSH2 0x3DA PUSH1 0x4 DUP1 CALLDATASIZE SUB DUP2 ADD SWAP1 PUSH2 0x3D5 SWAP2 SWAP1 PUSH2 0x40DC JUMP JUMPDEST PUSH2 0x121D JUMP JUMPDEST PUSH1 0x40 MLOAD PUSH2 0x3E7 SWAP2 SWAP1 PUSH2 0x39C8 JUMP JUMPDEST PUSH1 0x40 MLOAD DUP1 SWAP2 SUB SWAP1 RETURN JUMPDEST PUSH2 0x40A PUSH1 0x4 DUP1 CALLDATASIZE SUB DUP2 ADD SWAP1 PUSH2 0x405 SWAP2 SWAP1 PUSH2 0x3E2B JUMP JUMPDEST PUSH2 0x156D JUMP JUMPDEST PUSH1 0x40 MLOAD PUSH2 0x417 SWAP2 SWAP1 PUSH2 0x38A3 JUMP JUMPDEST PUSH1 0x40 MLOAD DUP1 SWAP2 SUB SWAP1 RETURN JUMPDEST PUSH2 0x43A PUSH1 0x4 DUP1 CALLDATASIZE SUB DUP2 ADD SWAP1 PUSH2 0x435 SWAP2 SWAP1 PUSH2 0x4167 JUMP JUMPDEST PUSH2 0x1629 JUMP JUMPDEST PUSH1 0x40 MLOAD PUSH2 0x447 SWAP2 SWAP1 PUSH2 0x39F2 JUMP JUMPDEST PUSH1 0x40 MLOAD DUP1 SWAP2 SUB SWAP1 RETURN JUMPDEST PUSH2 0x46A PUSH1 0x4 DUP1 CALLDATASIZE SUB DUP2 ADD SWAP1 PUSH2 0x465 SWAP2 SWAP1 PUSH2 0x4194 JUMP JUMPDEST PUSH2 0x1671 JUMP JUMPDEST STOP JUMPDEST PUSH2 0x486 PUSH1 0x4 DUP1 CALLDATASIZE SUB DUP2 ADD SWAP1 PUSH2 0x481 SWAP2 SWAP1 PUSH2 0x424F JUMP JUMPDEST PUSH2 0x19CD JUMP JUMPDEST PUSH1 0x40 MLOAD PUSH2 0x493 SWAP2 SWAP1 PUSH2 0x38A3 JUMP JUMPDEST PUSH1 0x40 MLOAD DUP1 SWAP2 SUB SWAP1 RETURN JUMPDEST PUSH2 0x4A4 PUSH2 0x1A83 JUMP JUMPDEST PUSH1 0x40 MLOAD PUSH2 0x4B1 SWAP2 SWAP1 PUSH2 0x39F2 JUMP JUMPDEST PUSH1 0x40 MLOAD DUP1 SWAP2 SUB SWAP1 RETURN JUMPDEST PUSH2 0x4C2 PUSH2 0x1A90 JUMP JUMPDEST PUSH1 0x40 MLOAD PUSH2 0x4CF SWAP2 SWAP1 PUSH2 0x39C8 JUMP JUMPDEST PUSH1 0x40 MLOAD DUP1 SWAP2 SUB SWAP1 RETURN JUMPDEST PUSH2 0x4E0 PUSH2 0x1AA3 JUMP JUMPDEST PUSH1 0x40 MLOAD PUSH2 0x4ED SWAP2 SWAP1 PUSH2 0x428B JUMP JUMPDEST PUSH1 0x40 MLOAD DUP1 SWAP2 SUB SWAP1 RETURN JUMPDEST PUSH2 0x510 PUSH1 0x4 DUP1 CALLDATASIZE SUB DUP2 ADD SWAP1 PUSH2 0x50B SWAP2 SWAP1 PUSH2 0x424F JUMP JUMPDEST PUSH2 0x1AC9 JUMP JUMPDEST PUSH1 0x40 MLOAD PUSH2 0x522 SWAP7 SWAP6 SWAP5 SWAP4 SWAP3 SWAP2 SWAP1 PUSH2 0x3E74 JUMP JUMPDEST PUSH1 0x40 MLOAD DUP1 SWAP2 SUB SWAP1 RETURN JUMPDEST PUSH2 0x533 PUSH2 0x1CBA JUMP JUMPDEST PUSH1 0x40 MLOAD PUSH2 0x540 SWAP2 SWAP1 PUSH2 0x38A3 JUMP JUMPDEST PUSH1 0x40 MLOAD DUP1 SWAP2 SUB SWAP1 RETURN JUMPDEST PUSH2 0x563 PUSH1 0x4 DUP1 CALLDATASIZE SUB DUP2 ADD SWAP1 PUSH2 0x55E SWAP2 SWAP1 PUSH2 0x424F JUMP JUMPDEST PUSH2 0x1D4C JUMP JUMPDEST PUSH1 0x40 MLOAD PUSH2 0x573 SWAP5 SWAP4 SWAP3 SWAP2 SWAP1 PUSH2 0x3F74 JUMP JUMPDEST PUSH1 0x40 MLOAD DUP1 SWAP2 SUB SWAP1 RETURN JUMPDEST PUSH2 0x596 PUSH1 0x4 DUP1 CALLDATASIZE SUB DUP2 ADD SWAP1 PUSH2 0x591 SWAP2 SWAP1 PUSH2 0x3E2B JUMP JUMPDEST PUSH2 0x1EA9 JUMP JUMPDEST STOP JUMPDEST PUSH2 0x5B2 PUSH1 0x4 DUP1 CALLDATASIZE SUB DUP2 ADD SWAP1 PUSH2 0x5AD SWAP2 SWAP1 PUSH2 0x4167 JUMP JUMPDEST PUSH2 0x2070 JUMP JUMPDEST PUSH1 0x40 MLOAD PUSH2 0x5C2 SWAP5 SWAP4 SWAP3 SWAP2 SWAP1 PUSH2 0x3F74 JUMP JUMPDEST PUSH1 0x40 MLOAD DUP1 SWAP2 SUB SWAP1 RETURN JUMPDEST PUSH2 0x5E5 PUSH1 0x4 DUP1 CALLDATASIZE SUB DUP2 ADD SWAP1 PUSH2 0x5E0 SWAP2 SWAP1 PUSH2 0x42A6 JUMP JUMPDEST PUSH2 0x21BD JUMP JUMPDEST STOP JUMPDEST PUSH2 0x601 PUSH1 0x4 DUP1 CALLDATASIZE SUB DUP2 ADD SWAP1 PUSH2 0x5FC SWAP2 SWAP1 PUSH2 0x396D JUMP JUMPDEST PUSH2 0x2491 JUMP JUMPDEST PUSH1 0x40 MLOAD PUSH2 0x60E SWAP2 SWAP1 PUSH2 0x39C8 JUMP JUMPDEST PUSH1 0x40 MLOAD DUP1 SWAP2 SUB SWAP1 RETURN JUMPDEST PUSH2 0x631 PUSH1 0x4 DUP1 CALLDATASIZE SUB DUP2 ADD SWAP1 PUSH2 0x62C SWAP2 SWAP1 PUSH2 0x43E8 JUMP JUMPDEST PUSH2 0x24B4 JUMP JUMPDEST STOP JUMPDEST PUSH2 0x63B PUSH2 0x274C JUMP JUMPDEST PUSH1 0x40 MLOAD PUSH2 0x648 SWAP2 SWAP1 PUSH2 0x39F2 JUMP JUMPDEST PUSH1 0x40 MLOAD DUP1 SWAP2 SUB SWAP1 RETURN JUMPDEST PUSH2 0x66B PUSH1 0x4 DUP1 CALLDATASIZE SUB DUP2 ADD SWAP1 PUSH2 0x666 SWAP2 SWAP1 PUSH2 0x44FE JUMP JUMPDEST PUSH2 0x2758 JUMP JUMPDEST PUSH1 0x40 MLOAD PUSH2 0x678 SWAP2 SWAP1 PUSH2 0x39C8 JUMP JUMPDEST PUSH1 0x40 MLOAD DUP1 SWAP2 SUB SWAP1 RETURN JUMPDEST PUSH2 0x69B PUSH1 0x4 DUP1 CALLDATASIZE SUB DUP2 ADD SWAP1 PUSH2 0x696 SWAP2 SWAP1 PUSH2 0x455A JUMP JUMPDEST PUSH2 0x27CB JUMP JUMPDEST PUSH1 0x40 MLOAD PUSH2 0x6A8 SWAP2 SWAP1 PUSH2 0x39F2 JUMP JUMPDEST PUSH1 0x40 MLOAD DUP1 SWAP2 SUB SWAP1 RETURN JUMPDEST PUSH2 0x6B9 PUSH2 0x2852 JUMP JUMPDEST PUSH1 0x40 MLOAD PUSH2 0x6C6 SWAP2 SWAP1 PUSH2 0x39F2 JUMP JUMPDEST PUSH1 0x40 MLOAD DUP1 SWAP2 SUB SWAP1 RETURN JUMPDEST PUSH1 0x60 PUSH1 0x3 DUP1 SLOAD PUSH2 0x6DE SWAP1 PUSH2 0x45C9 JUMP JUMPDEST DUP1 PUSH1 0x1F ADD PUSH1 0x20 DUP1 SWAP2 DIV MUL PUSH1 0x20 ADD PUSH1 0x40 MLOAD SWAP1 DUP2 ADD PUSH1 0x40 MSTORE DUP1 SWAP3 SWAP2 SWAP1 DUP2 DUP2 MSTORE PUSH1 0x20 ADD DUP3 DUP1 SLOAD PUSH2 0x70A SWAP1 PUSH2 0x45C9 JUMP JUMPDEST DUP1 ISZERO PUSH2 0x757 JUMPI DUP1 PUSH1 0x1F LT PUSH2 0x72C JUMPI PUSH2 0x100 DUP1 DUP4 SLOAD DIV MUL DUP4 MSTORE SWAP2 PUSH1 0x20 ADD SWAP2 PUSH2 0x757 JUMP JUMPDEST DUP3 ADD SWAP2 SWAP1 PUSH1 0x0 MSTORE PUSH1 0x20 PUSH1 0x0 KECCAK256 SWAP1 JUMPDEST DUP2 SLOAD DUP2 MSTORE SWAP1 PUSH1 0x1 ADD SWAP1 PUSH1 0x20 ADD DUP1 DUP4 GT PUSH2 0x73A JUMPI DUP3 SWAP1 SUB PUSH1 0x1F AND DUP3 ADD SWAP2 JUMPDEST POP POP POP POP POP SWAP1 POP SWAP1 JUMP JUMPDEST PUSH1 0x0 DUP1 PUSH2 0x76C PUSH2 0x285E JUMP JUMPDEST SWAP1 POP PUSH2 0x779 DUP2 DUP6 DUP6 PUSH2 0x2866 JUMP JUMPDEST PUSH1 0x1 SWAP2 POP POP SWAP3 SWAP2 POP POP JUMP JUMPDEST PUSH1 0x5 PUSH1 0x0 SWAP1 SLOAD SWAP1 PUSH2 0x100 EXP SWAP1 DIV PUSH20 0xFFFFFFFFFFFFFFFFFFFFFFFFFFFFFFFFFFFFFFFF AND PUSH20 0xFFFFFFFFFFFFFFFFFFFFFFFFFFFFFFFFFFFFFFFF AND CALLER PUSH20 0xFFFFFFFFFFFFFFFFFFFFFFFFFFFFFFFFFFFFFFFF AND EQ PUSH2 0x814 JUMPI PUSH1 0x40 MLOAD PUSH32 0x8C379A000000000000000000000000000000000000000000000000000000000 DUP2 MSTORE PUSH1 0x4 ADD PUSH2 0x80B SWAP1 PUSH2 0x4646 JUMP JUMPDEST PUSH1 0x40 MLOAD DUP1 SWAP2 SUB SWAP1 REVERT JUMPDEST PUSH1 0xE PUSH1 0x0 SWAP1 SLOAD SWAP1 PUSH2 0x100 EXP SWAP1 DIV PUSH1 0xFF AND ISZERO PUSH2 0x864 JUMPI PUSH1 0x40 MLOAD PUSH32 0x8C379A000000000000000000000000000000000000000000000000000000000 DUP2 MSTORE PUSH1 0x4 ADD PUSH2 0x85B SWAP1 PUSH2 0x46D8 JUMP JUMPDEST PUSH1 0x40 MLOAD DUP1 SWAP2 SUB SWAP1 REVERT JUMPDEST PUSH1 0xE PUSH1 0x1 SWAP1 SLOAD SWAP1 PUSH2 0x100 EXP SWAP1 DIV PUSH1 0xFF AND ISZERO PUSH2 0x8B4 JUMPI PUSH1 0x40 MLOAD PUSH32 0x8C379A000000000000000000000000000000000000000000000000000000000 DUP2 MSTORE PUSH1 0x4 ADD PUSH2 0x8AB SWAP1 PUSH2 0x476A JUMP JUMPDEST PUSH1 0x40 MLOAD DUP1 SWAP2 SUB SWAP1 REVERT JUMPDEST PUSH1 0x1 PUSH1 0xE PUSH1 0x0 PUSH2 0x100 EXP DUP2 SLOAD DUP2 PUSH1 0xFF MUL NOT AND SWAP1 DUP4 ISZERO ISZERO MUL OR SWAP1 SSTORE POP PUSH32 0x82E6C84ABD647D1B4FAE9BEE1859F2642E5443AF0FF900D4AF83A93C2BF41512 PUSH1 0x40 MLOAD PUSH1 0x40 MLOAD DUP1 SWAP2 SUB SWAP1 LOG1 JUMP JUMPDEST PUSH1 0x0 PUSH1 0x2 SLOAD SWAP1 POP SWAP1 JUMP JUMPDEST PUSH1 0x60 PUSH1 0x8 DUP1 SLOAD DUP1 PUSH1 0x20 MUL PUSH1 0x20 ADD PUSH1 0x40 MLOAD SWAP1 DUP2 ADD PUSH1 0x40 MSTORE DUP1 SWAP3 SWAP2 SWAP1 DUP2 DUP2 MSTORE PUSH1 0x20 ADD PUSH1 0x0 SWAP1 JUMPDEST DUP3 DUP3 LT ISZERO PUSH2 0xC33 JUMPI DUP4 DUP3 SWAP1 PUSH1 0x0 MSTORE PUSH1 0x20 PUSH1 0x0 KECCAK256 SWAP1 PUSH1 0x2 MUL ADD PUSH1 0x40 MLOAD DUP1 PUSH1 0x40 ADD PUSH1 0x40 MSTORE SWAP1 DUP2 PUSH1 0x0 DUP3 ADD DUP1 SLOAD PUSH2 0x95E SWAP1 PUSH2 0x45C9 JUMP JUMPDEST DUP1 PUSH1 0x1F ADD PUSH1 0x20 DUP1 SWAP2 DIV MUL PUSH1 0x20 ADD PUSH1 0x40 MLOAD SWAP1 DUP2 ADD PUSH1 0x40 MSTORE DUP1 SWAP3 SWAP2 SWAP1 DUP2 DUP2 MSTORE PUSH1 0x20 ADD DUP3 DUP1 SLOAD PUSH2 0x98A SWAP1 PUSH2 0x45C9 JUMP JUMPDEST DUP1 ISZERO PUSH2 0x9D7 JUMPI DUP1 PUSH1 0x1F LT PUSH2 0x9AC JUMPI PUSH2 0x100 DUP1 DUP4 SLOAD DIV MUL DUP4 MSTORE SWAP2 PUSH1 0x20 ADD SWAP2 PUSH2 0x9D7 JUMP JUMPDEST DUP3 ADD SWAP2 SWAP1 PUSH1 0x0 MSTORE PUSH1 0x20 PUSH1 0x0 KECCAK256 SWAP1 JUMPDEST DUP2 SLOAD DUP2 MSTORE SWAP1 PUSH1 0x1 ADD SWAP1 PUSH1 0x20 ADD DUP1 DUP4 GT PUSH2 0x9BA JUMPI DUP3 SWAP1 SUB PUSH1 0x1F AND DUP3 ADD SWAP2 JUMPDEST POP POP POP POP POP DUP2 MSTORE PUSH1 0x20 ADD PUSH1 0x1 DUP3 ADD DUP1 SLOAD DUP1 PUSH1 0x20 MUL PUSH1 0x20 ADD PUSH1 0x40 MLOAD SWAP1 DUP2 ADD PUSH1 0x40 MSTORE DUP1 SWAP3 SWAP2 SWAP1 DUP2 DUP2 MSTORE PUSH1 0x20 ADD PUSH1 0x0 SWAP1 JUMPDEST DUP3 DUP3 LT ISZERO PUSH2 0xC1C JUMPI DUP4 DUP3 SWAP1 PUSH1 0x0 MSTORE PUSH1 0x20 PUSH1 0x0 KECCAK256 SWAP1 PUSH1 0x6 MUL ADD PUSH1 0x40 MLOAD DUP1 PUSH1 0xC0 ADD PUSH1 0x40 MSTORE SWAP1 DUP2 PUSH1 0x0 DUP3 ADD DUP1 SLOAD PUSH2 0xA38 SWAP1 PUSH2 0x45C9 JUMP JUMPDEST DUP1 PUSH1 0x1F ADD PUSH1 0x20 DUP1 SWAP2 DIV MUL PUSH1 0x20 ADD PUSH1 0x40 MLOAD SWAP1 DUP2 ADD PUSH1 0x40 MSTORE DUP1 SWAP3 SWAP2 SWAP1 DUP2 DUP2 MSTORE PUSH1 0x20 ADD DUP3 DUP1 SLOAD PUSH2 0xA64 SWAP1 PUSH2 0x45C9 JUMP JUMPDEST DUP1 ISZERO PUSH2 0xAB1 JUMPI DUP1 PUSH1 0x1F LT PUSH2 0xA86 JUMPI PUSH2 0x100 DUP1 DUP4 SLOAD DIV MUL DUP4 MSTORE SWAP2 PUSH1 0x20 ADD SWAP2 PUSH2 0xAB1 JUMP JUMPDEST DUP3 ADD SWAP2 SWAP1 PUSH1 0x0 MSTORE PUSH1 0x20 PUSH1 0x0 KECCAK256 SWAP1 JUMPDEST DUP2 SLOAD DUP2 MSTORE SWAP1 PUSH1 0x1 ADD SWAP1 PUSH1 0x20 ADD DUP1 DUP4 GT PUSH2 0xA94 JUMPI DUP3 SWAP1 SUB PUSH1 0x1F AND DUP3 ADD SWAP2 JUMPDEST POP POP POP POP POP DUP2 MSTORE PUSH1 0x20 ADD PUSH1 0x1 DUP3 ADD SLOAD DUP2 MSTORE PUSH1 0x20 ADD PUSH1 0x2 DUP3 ADD DUP1 SLOAD PUSH2 0xAD4 SWAP1 PUSH2 0x45C9 JUMP JUMPDEST DUP1 PUSH1 0x1F ADD PUSH1 0x20 DUP1 SWAP2 DIV MUL PUSH1 0x20 ADD PUSH1 0x40 MLOAD SWAP1 DUP2 ADD PUSH1 0x40 MSTORE DUP1 SWAP3 SWAP2 SWAP1 DUP2 DUP2 MSTORE PUSH1 0x20 ADD DUP3 DUP1 SLOAD PUSH2 0xB00 SWAP1 PUSH2 0x45C9 JUMP JUMPDEST DUP1 ISZERO PUSH2 0xB4D JUMPI DUP1 PUSH1 0x1F LT PUSH2 0xB22 JUMPI PUSH2 0x100 DUP1 DUP4 SLOAD DIV MUL DUP4 MSTORE SWAP2 PUSH1 0x20 ADD SWAP2 PUSH2 0xB4D JUMP JUMPDEST DUP3 ADD SWAP2 SWAP1 PUSH1 0x0 MSTORE PUSH1 0x20 PUSH1 0x0 KECCAK256 SWAP1 JUMPDEST DUP2 SLOAD DUP2 MSTORE SWAP1 PUSH1 0x1 ADD SWAP1 PUSH1 0x20 ADD DUP1 DUP4 GT PUSH2 0xB30 JUMPI DUP3 SWAP1 SUB PUSH1 0x1F AND DUP3 ADD SWAP2 JUMPDEST POP POP POP POP POP DUP2 MSTORE PUSH1 0x20 ADD PUSH1 0x3 DUP3 ADD DUP1 SLOAD PUSH2 0xB66 SWAP1 PUSH2 0x45C9 JUMP JUMPDEST DUP1 PUSH1 0x1F ADD PUSH1 0x20 DUP1 SWAP2 DIV MUL PUSH1 0x20 ADD PUSH1 0x40 MLOAD SWAP1 DUP2 ADD PUSH1 0x40 MSTORE DUP1 SWAP3 SWAP2 SWAP1 DUP2 DUP2 MSTORE PUSH1 0x20 ADD DUP3 DUP1 SLOAD PUSH2 0xB92 SWAP1 PUSH2 0x45C9 JUMP JUMPDEST DUP1 ISZERO PUSH2 0xBDF JUMPI DUP1 PUSH1 0x1F LT PUSH2 0xBB4 JUMPI PUSH2 0x100 DUP1 DUP4 SLOAD DIV MUL DUP4 MSTORE SWAP2 PUSH1 0x20 ADD SWAP2 PUSH2 0xBDF JUMP JUMPDEST DUP3 ADD SWAP2 SWAP1 PUSH1 0x0 MSTORE PUSH1 0x20 PUSH1 0x0 KECCAK256 SWAP1 JUMPDEST DUP2 SLOAD DUP2 MSTORE SWAP1 PUSH1 0x1 ADD SWAP1 PUSH1 0x20 ADD DUP1 DUP4 GT PUSH2 0xBC2 JUMPI DUP3 SWAP1 SUB PUSH1 0x1F AND DUP3 ADD SWAP2 JUMPDEST POP POP POP POP POP DUP2 MSTORE PUSH1 0x20 ADD PUSH1 0x4 DUP3 ADD SLOAD DUP2 MSTORE PUSH1 0x20 ADD PUSH1 0x5 DUP3 ADD PUSH1 0x0 SWAP1 SLOAD SWAP1 PUSH2 0x100 EXP SWAP1 DIV PUSH1 0xFF AND ISZERO ISZERO ISZERO ISZERO DUP2 MSTORE POP POP DUP2 MSTORE PUSH1 0x20 ADD SWAP1 PUSH1 0x1 ADD SWAP1 PUSH2 0xA05 JUMP JUMPDEST POP POP POP POP DUP2 MSTORE POP POP DUP2 MSTORE PUSH1 0x20 ADD SWAP1 PUSH1 0x1 ADD SWAP1 PUSH2 0x92B JUMP JUMPDEST POP POP POP POP SWAP1 POP SWAP1 JUMP JUMPDEST PUSH1 0xA DUP2 DUP1 MLOAD PUSH1 0x20 DUP2 ADD DUP3 ADD DUP1 MLOAD DUP5 DUP3 MSTORE PUSH1 0x20 DUP4 ADD PUSH1 0x20 DUP6 ADD KECCAK256 DUP2 DUP4 MSTORE DUP1 SWAP6 POP POP POP POP POP POP PUSH1 0x0 SWAP2 POP SWAP1 POP DUP1 PUSH1 0x0 ADD DUP1 SLOAD PUSH2 0xC75 SWAP1 PUSH2 0x45C9 JUMP JUMPDEST DUP1 PUSH1 0x1F ADD PUSH1 0x20 DUP1 SWAP2 DIV MUL PUSH1 0x20 ADD PUSH1 0x40 MLOAD SWAP1 DUP2 ADD PUSH1 0x40 MSTORE DUP1 SWAP3 SWAP2 SWAP1 DUP2 DUP2 MSTORE PUSH1 0x20 ADD DUP3 DUP1 SLOAD PUSH2 0xCA1 SWAP1 PUSH2 0x45C9 JUMP JUMPDEST DUP1 ISZERO PUSH2 0xCEE JUMPI DUP1 PUSH1 0x1F LT PUSH2 0xCC3 JUMPI PUSH2 0x100 DUP1 DUP4 SLOAD DIV MUL DUP4 MSTORE SWAP2 PUSH1 0x20 ADD SWAP2 PUSH2 0xCEE JUMP JUMPDEST DUP3 ADD SWAP2 SWAP1 PUSH1 0x0 MSTORE PUSH1 0x20 PUSH1 0x0 KECCAK256 SWAP1 JUMPDEST DUP2 SLOAD DUP2 MSTORE SWAP1 PUSH1 0x1 ADD SWAP1 PUSH1 0x20 ADD DUP1 DUP4 GT PUSH2 0xCD1 JUMPI DUP3 SWAP1 SUB PUSH1 0x1F AND DUP3 ADD SWAP2 JUMPDEST POP POP POP POP POP SWAP1 DUP1 PUSH1 0x1 ADD SLOAD SWAP1 DUP1 PUSH1 0x2 ADD DUP1 SLOAD PUSH2 0xD09 SWAP1 PUSH2 0x45C9 JUMP JUMPDEST DUP1 PUSH1 0x1F ADD PUSH1 0x20 DUP1 SWAP2 DIV MUL PUSH1 0x20 ADD PUSH1 0x40 MLOAD SWAP1 DUP2 ADD PUSH1 0x40 MSTORE DUP1 SWAP3 SWAP2 SWAP1 DUP2 DUP2 MSTORE PUSH1 0x20 ADD DUP3 DUP1 SLOAD PUSH2 0xD35 SWAP1 PUSH2 0x45C9 JUMP JUMPDEST DUP1 ISZERO PUSH2 0xD82 JUMPI DUP1 PUSH1 0x1F LT PUSH2 0xD57 JUMPI PUSH2 0x100 DUP1 DUP4 SLOAD DIV MUL DUP4 MSTORE SWAP2 PUSH1 0x20 ADD SWAP2 PUSH2 0xD82 JUMP JUMPDEST DUP3 ADD SWAP2 SWAP1 PUSH1 0x0 MSTORE PUSH1 0x20 PUSH1 0x0 KECCAK256 SWAP1 JUMPDEST DUP2 SLOAD DUP2 MSTORE SWAP1 PUSH1 0x1 ADD SWAP1 PUSH1 0x20 ADD DUP1 DUP4 GT PUSH2 0xD65 JUMPI DUP3 SWAP1 SUB PUSH1 0x1F AND DUP3 ADD SWAP2 JUMPDEST POP POP POP POP POP SWAP1 DUP1 PUSH1 0x3 ADD DUP1 SLOAD PUSH2 0xD97 SWAP1 PUSH2 0x45C9 JUMP JUMPDEST DUP1 PUSH1 0x1F ADD PUSH1 0x20 DUP1 SWAP2 DIV MUL PUSH1 0x20 ADD PUSH1 0x40 MLOAD SWAP1 DUP2 ADD PUSH1 0x40 MSTORE DUP1 SWAP3 SWAP2 SWAP1 DUP2 DUP2 MSTORE PUSH1 0x20 ADD DUP3 DUP1 SLOAD PUSH2 0xDC3 SWAP1 PUSH2 0x45C9 JUMP JUMPDEST DUP1 ISZERO PUSH2 0xE10 JUMPI DUP1 PUSH1 0x1F LT PUSH2 0xDE5 JUMPI PUSH2 0x100 DUP1 DUP4 SLOAD DIV MUL DUP4 MSTORE SWAP2 PUSH1 0x20 ADD SWAP2 PUSH2 0xE10 JUMP JUMPDEST DUP3 ADD SWAP2 SWAP1 PUSH1 0x0 MSTORE PUSH1 0x20 PUSH1 0x0 KECCAK256 SWAP1 JUMPDEST DUP2 SLOAD DUP2 MSTORE SWAP1 PUSH1 0x1 ADD SWAP1 PUSH1 0x20 ADD DUP1 DUP4 GT PUSH2 0xDF3 JUMPI DUP3 SWAP1 SUB PUSH1 0x1F AND DUP3 ADD SWAP2 JUMPDEST POP POP POP POP POP SWAP1 DUP1 PUSH1 0x4 ADD SLOAD SWAP1 DUP1 PUSH1 0x5 ADD PUSH1 0x0 SWAP1 SLOAD SWAP1 PUSH2 0x100 EXP SWAP1 DIV PUSH1 0xFF AND SWAP1 POP DUP7 JUMP JUMPDEST PUSH1 0x0 DUP1 PUSH2 0xE3E PUSH2 0x285E JUMP JUMPDEST SWAP1 POP PUSH2 0xE4B DUP6 DUP3 DUP6 PUSH2 0x2878 JUMP JUMPDEST PUSH2 0xE56 DUP6 DUP6 DUP6 PUSH2 0x290C JUMP JUMPDEST PUSH1 0x1 SWAP2 POP POP SWAP4 SWAP3 POP POP POP JUMP JUMPDEST PUSH1 0xE PUSH1 0x0 SWAP1 SLOAD SWAP1 PUSH2 0x100 EXP SWAP1 DIV PUSH1 0xFF AND DUP2 JUMP JUMPDEST PUSH1 0x0 PUSH1 0x12 SWAP1 POP SWAP1 JUMP JUMPDEST PUSH10 0xD3C21BCECCEDA1000000 DUP2 JUMP JUMPDEST PUSH1 0x9 DUP2 DUP1 MLOAD PUSH1 0x20 DUP2 ADD DUP3 ADD DUP1 MLOAD DUP5 DUP3 MSTORE PUSH1 0x20 DUP4 ADD PUSH1 0x20 DUP6 ADD KECCAK256 DUP2 DUP4 MSTORE DUP1 SWAP6 POP POP POP POP POP POP PUSH1 0x0 SWAP2 POP SWAP1 POP DUP1 PUSH1 0x0 ADD DUP1 SLOAD PUSH2 0xEC5 SWAP1 PUSH2 0x45C9 JUMP JUMPDEST DUP1 PUSH1 0x1F ADD PUSH1 0x20 DUP1 SWAP2 DIV MUL PUSH1 0x20 ADD PUSH1 0x40 MLOAD SWAP1 DUP2 ADD PUSH1 0x40 MSTORE DUP1 SWAP3 SWAP2 SWAP1 DUP2 DUP2 MSTORE PUSH1 0x20 ADD DUP3 DUP1 SLOAD PUSH2 0xEF1 SWAP1 PUSH2 0x45C9 JUMP JUMPDEST DUP1 ISZERO PUSH2 0xF3E JUMPI DUP1 PUSH1 0x1F LT PUSH2 0xF13 JUMPI PUSH2 0x100 DUP1 DUP4 SLOAD DIV MUL DUP4 MSTORE SWAP2 PUSH1 0x20 ADD SWAP2 PUSH2 0xF3E JUMP JUMPDEST DUP3 ADD SWAP2 SWAP1 PUSH1 0x0 MSTORE PUSH1 0x20 PUSH1 0x0 KECCAK256 SWAP1 JUMPDEST DUP2 SLOAD DUP2 MSTORE SWAP1 PUSH1 0x1 ADD SWAP1 PUSH1 0x20 ADD DUP1 DUP4 GT PUSH2 0xF21 JUMPI DUP3 SWAP1 SUB PUSH1 0x1F AND DUP3 ADD SWAP2 JUMPDEST POP POP POP POP POP SWAP1 DUP1 PUSH1 0x1 ADD SLOAD SWAP1 DUP1 PUSH1 0x2 ADD DUP1 SLOAD PUSH2 0xF59 SWAP1 PUSH2 0x45C9 JUMP JUMPDEST DUP1 PUSH1 0x1F ADD PUSH1 0x20 DUP1 SWAP2 DIV MUL PUSH1 0x20 ADD PUSH1 0x40 MLOAD SWAP1 DUP2 ADD PUSH1 0x40 MSTORE DUP1 SWAP3 SWAP2 SWAP1 DUP2 DUP2 MSTORE PUSH1 0x20 ADD DUP3 DUP1 SLOAD PUSH2 0xF85 SWAP1 PUSH2 0x45C9 JUMP JUMPDEST DUP1 ISZERO PUSH2 0xFD2 JUMPI DUP1 PUSH1 0x1F LT PUSH2 0xFA7 JUMPI PUSH2 0x100 DUP1 DUP4 SLOAD DIV MUL DUP4 MSTORE SWAP2 PUSH1 0x20 ADD SWAP2 PUSH2 0xFD2 JUMP JUMPDEST DUP3 ADD SWAP2 SWAP1 PUSH1 0x0 MSTORE PUSH1 0x20 PUSH1 0x0 KECCAK256 SWAP1 JUMPDEST DUP2 SLOAD DUP2 MSTORE SWAP1 PUSH1 0x1 ADD SWAP1 PUSH1 0x20 ADD DUP1 DUP4 GT PUSH2 0xFB5 JUMPI DUP3 SWAP1 SUB PUSH1 0x1F AND DUP3 ADD SWAP2 JUMPDEST POP POP POP POP POP SWAP1 DUP1 PUSH1 0x3 ADD PUSH1 0x0 SWAP1 SLOAD SWAP1 PUSH2 0x100 EXP SWAP1 DIV PUSH1 0xFF AND SWAP1 POP DUP5 JUMP JUMPDEST PUSH1 0x5 PUSH1 0x0 SWAP1 SLOAD SWAP1 PUSH2 0x100 EXP SWAP1 DIV PUSH20 0xFFFFFFFFFFFFFFFFFFFFFFFFFFFFFFFFFFFFFFFF AND PUSH20 0xFFFFFFFFFFFFFFFFFFFFFFFFFFFFFFFFFFFFFFFF AND CALLER PUSH20 0xFFFFFFFFFFFFFFFFFFFFFFFFFFFFFFFFFFFFFFFF AND EQ PUSH2 0x107F JUMPI PUSH1 0x40 MLOAD PUSH32 0x8C379A000000000000000000000000000000000000000000000000000000000 DUP2 MSTORE PUSH1 0x4 ADD PUSH2 0x1076 SWAP1 PUSH2 0x4646 JUMP JUMPDEST PUSH1 0x40 MLOAD DUP1 SWAP2 SUB SWAP1 REVERT JUMPDEST PUSH1 0xE PUSH1 0x0 SWAP1 SLOAD SWAP1 PUSH2 0x100 EXP SWAP1 DIV PUSH1 0xFF AND PUSH2 0x10CE JUMPI PUSH1 0x40 MLOAD PUSH32 0x8C379A000000000000000000000000000000000000000000000000000000000 DUP2 MSTORE PUSH1 0x4 ADD PUSH2 0x10C5 SWAP1 PUSH2 0x47FC JUMP JUMPDEST PUSH1 0x40 MLOAD DUP1 SWAP2 SUB SWAP1 REVERT JUMPDEST PUSH1 0xE PUSH1 0x1 SWAP1 SLOAD SWAP1 PUSH2 0x100 EXP SWAP1 DIV PUSH1 0xFF AND ISZERO PUSH2 0x111E JUMPI PUSH1 0x40 MLOAD PUSH32 0x8C379A000000000000000000000000000000000000000000000000000000000 DUP2 MSTORE PUSH1 0x4 ADD PUSH2 0x1115 SWAP1 PUSH2 0x4868 JUMP JUMPDEST PUSH1 0x40 MLOAD DUP1 SWAP2 SUB SWAP1 REVERT JUMPDEST PUSH1 0x0 PUSH1 0xE PUSH1 0x0 PUSH2 0x100 EXP DUP2 SLOAD DUP2 PUSH1 0xFF MUL NOT AND SWAP1 DUP4 ISZERO ISZERO MUL OR SWAP1 SSTORE POP PUSH1 0x1 PUSH1 0xE PUSH1 0x1 PUSH2 0x100 EXP DUP2 SLOAD DUP2 PUSH1 0xFF MUL NOT AND SWAP1 DUP4 ISZERO ISZERO MUL OR SWAP1 SSTORE POP PUSH32 0x2EE88F50F05558E39B34A18214FF6A6ADC091504772084C6CE7899354BEC0AA4 PUSH1 0x40 MLOAD PUSH1 0x40 MLOAD DUP1 SWAP2 SUB SWAP1 LOG1 PUSH32 0x877E2548498F42B7975A186B94EF1D32C86D420B7B806DD2BE2BEA293B895904 PUSH1 0x40 MLOAD PUSH1 0x40 MLOAD DUP1 SWAP2 SUB SWAP1 LOG1 JUMP JUMPDEST PUSH1 0x0 DUP6 PUSH2 0x11D2 DUP9 PUSH20 0xFFFFFFFFFFFFFFFFFFFFFFFFFFFFFFFFFFFFFFFF AND PUSH1 0x14 PUSH2 0x2A00 JUMP JUMPDEST DUP7 DUP7 PUSH2 0x11DD DUP8 PUSH2 0x2C46 JUMP JUMPDEST PUSH2 0x11E6 DUP8 PUSH2 0x2C46 JUMP JUMPDEST PUSH1 0x40 MLOAD PUSH1 0x20 ADD PUSH2 0x11FB SWAP7 SWAP6 SWAP5 SWAP4 SWAP3 SWAP2 SWAP1 PUSH2 0x4B70 JUMP JUMPDEST PUSH1 0x40 MLOAD PUSH1 0x20 DUP2 DUP4 SUB SUB DUP2 MSTORE SWAP1 PUSH1 0x40 MSTORE DUP1 MLOAD SWAP1 PUSH1 0x20 ADD KECCAK256 SWAP1 POP SWAP7 SWAP6 POP POP POP POP POP POP JUMP JUMPDEST PUSH1 0x0 PUSH1 0xE PUSH1 0x0 SWAP1 SLOAD SWAP1 PUSH2 0x100 EXP SWAP1 DIV PUSH1 0xFF AND PUSH2 0x126E JUMPI PUSH1 0x40 MLOAD PUSH32 0x8C379A000000000000000000000000000000000000000000000000000000000 DUP2 MSTORE PUSH1 0x4 ADD PUSH2 0x1265 SWAP1 PUSH2 0x47FC JUMP JUMPDEST PUSH1 0x40 MLOAD DUP1 SWAP2 SUB SWAP1 REVERT JUMPDEST PUSH1 0xE PUSH1 0x1 SWAP1 SLOAD SWAP1 PUSH2 0x100 EXP SWAP1 DIV PUSH1 0xFF AND ISZERO PUSH2 0x12BE JUMPI PUSH1 0x40 MLOAD PUSH32 0x8C379A000000000000000000000000000000000000000000000000000000000 DUP2 MSTORE PUSH1 0x4 ADD PUSH2 0x12B5 SWAP1 PUSH2 0x4CC9 JUMP JUMPDEST PUSH1 0x40 MLOAD DUP1 SWAP2 SUB SWAP1 REVERT JUMPDEST PUSH1 0x0 PUSH1 0x9 DUP4 PUSH1 0x40 MLOAD PUSH2 0x12D0 SWAP2 SWAP1 PUSH2 0x4CE9 JUMP JUMPDEST SWAP1 DUP2 MSTORE PUSH1 0x20 ADD PUSH1 0x40 MLOAD DUP1 SWAP2 SUB SWAP1 KECCAK256 PUSH1 0x0 ADD DUP1 SLOAD PUSH2 0x12EC SWAP1 PUSH2 0x45C9 JUMP JUMPDEST SWAP1 POP EQ PUSH2 0x132E JUMPI PUSH1 0x40 MLOAD PUSH32 0x8C379A000000000000000000000000000000000000000000000000000000000 DUP2 MSTORE PUSH1 0x4 ADD PUSH2 0x1325 SWAP1 PUSH2 0x4D4C JUMP JUMPDEST PUSH1 0x40 MLOAD DUP1 SWAP2 SUB SWAP1 REVERT JUMPDEST PUSH1 0x0 PUSH1 0x40 MLOAD DUP1 PUSH1 0x80 ADD PUSH1 0x40 MSTORE DUP1 DUP7 DUP2 MSTORE PUSH1 0x20 ADD DUP6 DUP2 MSTORE PUSH1 0x20 ADD DUP5 DUP2 MSTORE PUSH1 0x20 ADD PUSH1 0x0 ISZERO ISZERO DUP2 MSTORE POP SWAP1 POP PUSH1 0x6 DUP2 SWAP1 DUP1 PUSH1 0x1 DUP2 SLOAD ADD DUP1 DUP3 SSTORE DUP1 SWAP2 POP POP PUSH1 0x1 SWAP1 SUB SWAP1 PUSH1 0x0 MSTORE PUSH1 0x20 PUSH1 0x0 KECCAK256 SWAP1 PUSH1 0x4 MUL ADD PUSH1 0x0 SWAP1 SWAP2 SWAP1 SWAP2 SWAP1 SWAP2 POP PUSH1 0x0 DUP3 ADD MLOAD DUP2 PUSH1 0x0 ADD SWAP1 DUP2 PUSH2 0x1397 SWAP2 SWAP1 PUSH2 0x4F18 JUMP JUMPDEST POP PUSH1 0x20 DUP3 ADD MLOAD DUP2 PUSH1 0x1 ADD SSTORE PUSH1 0x40 DUP3 ADD MLOAD DUP2 PUSH1 0x2 ADD SWAP1 DUP2 PUSH2 0x13B7 SWAP2 SWAP1 PUSH2 0x4F18 JUMP JUMPDEST POP PUSH1 0x60 DUP3 ADD MLOAD DUP2 PUSH1 0x3 ADD PUSH1 0x0 PUSH2 0x100 EXP DUP2 SLOAD DUP2 PUSH1 0xFF MUL NOT AND SWAP1 DUP4 ISZERO ISZERO MUL OR SWAP1 SSTORE POP POP POP DUP1 PUSH1 0x9 DUP5 PUSH1 0x40 MLOAD PUSH2 0x13EB SWAP2 SWAP1 PUSH2 0x4CE9 JUMP JUMPDEST SWAP1 DUP2 MSTORE PUSH1 0x20 ADD PUSH1 0x40 MLOAD DUP1 SWAP2 SUB SWAP1 KECCAK256 PUSH1 0x0 DUP3 ADD MLOAD DUP2 PUSH1 0x0 ADD SWAP1 DUP2 PUSH2 0x140E SWAP2 SWAP1 PUSH2 0x4F18 JUMP JUMPDEST POP PUSH1 0x20 DUP3 ADD MLOAD DUP2 PUSH1 0x1 ADD SSTORE PUSH1 0x40 DUP3 ADD MLOAD DUP2 PUSH1 0x2 ADD SWAP1 DUP2 PUSH2 0x142E SWAP2 SWAP1 PUSH2 0x4F18 JUMP JUMPDEST POP PUSH1 0x60 DUP3 ADD MLOAD DUP2 PUSH1 0x3 ADD PUSH1 0x0 PUSH2 0x100 EXP DUP2 SLOAD DUP2 PUSH1 0xFF MUL NOT AND SWAP1 DUP4 ISZERO ISZERO MUL OR SWAP1 SSTORE POP SWAP1 POP POP DUP1 PUSH1 0xC PUSH1 0x0 CALLER PUSH20 0xFFFFFFFFFFFFFFFFFFFFFFFFFFFFFFFFFFFFFFFF AND PUSH20 0xFFFFFFFFFFFFFFFFFFFFFFFFFFFFFFFFFFFFFFFF AND DUP2 MSTORE PUSH1 0x20 ADD SWAP1 DUP2 MSTORE PUSH1 0x20 ADD PUSH1 0x0 KECCAK256 PUSH1 0x0 DUP3 ADD MLOAD DUP2 PUSH1 0x0 ADD SWAP1 DUP2 PUSH2 0x14A7 SWAP2 SWAP1 PUSH2 0x4F18 JUMP JUMPDEST POP PUSH1 0x20 DUP3 ADD MLOAD DUP2 PUSH1 0x1 ADD SSTORE PUSH1 0x40 DUP3 ADD MLOAD DUP2 PUSH1 0x2 ADD SWAP1 DUP2 PUSH2 0x14C7 SWAP2 SWAP1 PUSH2 0x4F18 JUMP JUMPDEST POP PUSH1 0x60 DUP3 ADD MLOAD DUP2 PUSH1 0x3 ADD PUSH1 0x0 PUSH2 0x100 EXP DUP2 SLOAD DUP2 PUSH1 0xFF MUL NOT AND SWAP1 DUP4 ISZERO ISZERO MUL OR SWAP1 SSTORE POP SWAP1 POP POP PUSH2 0x14FD CALLER PUSH8 0x4563918244F40000 PUSH2 0x2D14 JUMP JUMPDEST POP DUP3 PUSH1 0x40 MLOAD PUSH2 0x150C SWAP2 SWAP1 PUSH2 0x4CE9 JUMP JUMPDEST PUSH1 0x40 MLOAD DUP1 SWAP2 SUB SWAP1 KECCAK256 DUP6 PUSH1 0x40 MLOAD PUSH2 0x1522 SWAP2 SWAP1 PUSH2 0x4CE9 JUMP JUMPDEST PUSH1 0x40 MLOAD DUP1 SWAP2 SUB SWAP1 KECCAK256 PUSH32 0x754A5F7C9336F3562D73DACEBF51DE10DA957AE9DFCAE4FBFB93733ECE3DD5AA DUP7 PUSH1 0x40 MLOAD PUSH2 0x1559 SWAP2 SWAP1 PUSH2 0x39F2 JUMP JUMPDEST PUSH1 0x40 MLOAD DUP1 SWAP2 SUB SWAP1 LOG3 PUSH1 0x1 SWAP2 POP POP SWAP4 SWAP3 POP POP POP JUMP JUMPDEST PUSH1 0xB DUP2 DUP1 MLOAD PUSH1 0x20 DUP2 ADD DUP3 ADD DUP1 MLOAD DUP5 DUP3 MSTORE PUSH1 0x20 DUP4 ADD PUSH1 0x20 DUP6 ADD KECCAK256 DUP2 DUP4 MSTORE DUP1 SWAP6 POP POP POP POP POP POP PUSH1 0x0 SWAP2 POP SWAP1 POP DUP1 PUSH1 0x0 ADD DUP1 SLOAD PUSH2 0x15A6 SWAP1 PUSH2 0x45C9 JUMP JUMPDEST DUP1 PUSH1 0x1F ADD PUSH1 0x20 DUP1 SWAP2 DIV MUL PUSH1 0x20 ADD PUSH1 0x40 MLOAD SWAP1 DUP2 ADD PUSH1 0x40 MSTORE DUP1 SWAP3 SWAP2 SWAP1 DUP2 DUP2 MSTORE PUSH1 0x20 ADD DUP3 DUP1 SLOAD PUSH2 0x15D2 SWAP1 PUSH2 0x45C9 JUMP JUMPDEST DUP1 ISZERO PUSH2 0x161F JUMPI DUP1 PUSH1 0x1F LT PUSH2 0x15F4 JUMPI PUSH2 0x100 DUP1 DUP4 SLOAD DIV MUL DUP4 MSTORE SWAP2 PUSH1 0x20 ADD SWAP2 PUSH2 0x161F JUMP JUMPDEST DUP3 ADD SWAP2 SWAP1 PUSH1 0x0 MSTORE PUSH1 0x20 PUSH1 0x0 KECCAK256 SWAP1 JUMPDEST DUP2 SLOAD DUP2 MSTORE SWAP1 PUSH1 0x1 ADD SWAP1 PUSH1 0x20 ADD DUP1 DUP4 GT PUSH2 0x1602 JUMPI DUP3 SWAP1 SUB PUSH1 0x1F AND DUP3 ADD SWAP2 JUMPDEST POP POP POP POP POP SWAP1 POP DUP2 JUMP JUMPDEST PUSH1 0x0 DUP1 PUSH1 0x0 DUP4 PUSH20 0xFFFFFFFFFFFFFFFFFFFFFFFFFFFFFFFFFFFFFFFF AND PUSH20 0xFFFFFFFFFFFFFFFFFFFFFFFFFFFFFFFFFFFFFFFF AND DUP2 MSTORE PUSH1 0x20 ADD SWAP1 DUP2 MSTORE PUSH1 0x20 ADD PUSH1 0x0 KECCAK256 SLOAD SWAP1 POP SWAP2 SWAP1 POP JUMP JUMPDEST PUSH1 0xE PUSH1 0x0 SWAP1 SLOAD SWAP1 PUSH2 0x100 EXP SWAP1 DIV PUSH1 0xFF AND PUSH2 0x16C0 JUMPI PUSH1 0x40 MLOAD PUSH32 0x8C379A000000000000000000000000000000000000000000000000000000000 DUP2 MSTORE PUSH1 0x4 ADD PUSH2 0x16B7 SWAP1 PUSH2 0x47FC JUMP JUMPDEST PUSH1 0x40 MLOAD DUP1 SWAP2 SUB SWAP1 REVERT JUMPDEST PUSH1 0xE PUSH1 0x1 SWAP1 SLOAD SWAP1 PUSH2 0x100 EXP SWAP1 DIV PUSH1 0xFF AND ISZERO PUSH2 0x1710 JUMPI PUSH1 0x40 MLOAD PUSH32 0x8C379A000000000000000000000000000000000000000000000000000000000 DUP2 MSTORE PUSH1 0x4 ADD PUSH2 0x1707 SWAP1 PUSH2 0x4CC9 JUMP JUMPDEST PUSH1 0x40 MLOAD DUP1 SWAP2 SUB SWAP1 REVERT JUMPDEST PUSH1 0x0 PUSH1 0xA DUP4 PUSH1 0x40 MLOAD PUSH2 0x1722 SWAP2 SWAP1 PUSH2 0x4CE9 JUMP JUMPDEST SWAP1 DUP2 MSTORE PUSH1 0x20 ADD PUSH1 0x40 MLOAD DUP1 SWAP2 SUB SWAP1 KECCAK256 PUSH1 0x0 ADD DUP1 SLOAD PUSH2 0x173E SWAP1 PUSH2 0x45C9 JUMP JUMPDEST SWAP1 POP EQ PUSH2 0x1780 JUMPI PUSH1 0x40 MLOAD PUSH32 0x8C379A000000000000000000000000000000000000000000000000000000000 DUP2 MSTORE PUSH1 0x4 ADD PUSH2 0x1777 SWAP1 PUSH2 0x5036 JUMP JUMPDEST PUSH1 0x40 MLOAD DUP1 SWAP2 SUB SWAP1 REVERT JUMPDEST PUSH1 0x0 PUSH1 0x9 DUP4 PUSH1 0x40 MLOAD PUSH2 0x1792 SWAP2 SWAP1 PUSH2 0x4CE9 JUMP JUMPDEST SWAP1 DUP2 MSTORE PUSH1 0x20 ADD PUSH1 0x40 MLOAD DUP1 SWAP2 SUB SWAP1 KECCAK256 PUSH1 0x0 ADD DUP1 SLOAD PUSH2 0x17AE SWAP1 PUSH2 0x45C9 JUMP JUMPDEST SWAP1 POP SUB PUSH2 0x17F0 JUMPI PUSH1 0x40 MLOAD PUSH32 0x8C379A000000000000000000000000000000000000000000000000000000000 DUP2 MSTORE PUSH1 0x4 ADD PUSH2 0x17E7 SWAP1 PUSH2 0x50A2 JUMP JUMPDEST PUSH1 0x40 MLOAD DUP1 SWAP2 SUB SWAP1 REVERT JUMPDEST PUSH1 0x0 PUSH1 0x40 MLOAD DUP1 PUSH1 0xC0 ADD PUSH1 0x40 MSTORE DUP1 DUP7 DUP2 MSTORE PUSH1 0x20 ADD DUP6 DUP2 MSTORE PUSH1 0x20 ADD DUP5 DUP2 MSTORE PUSH1 0x20 ADD DUP4 DUP2 MSTORE PUSH1 0x20 ADD PUSH1 0x0 DUP2 MSTORE PUSH1 0x20 ADD PUSH1 0x0 ISZERO ISZERO DUP2 MSTORE POP SWAP1 POP PUSH1 0x7 DUP2 SWAP1 DUP1 PUSH1 0x1 DUP2 SLOAD ADD DUP1 DUP3 SSTORE DUP1 SWAP2 POP POP PUSH1 0x1 SWAP1 SUB SWAP1 PUSH1 0x0 MSTORE PUSH1 0x20 PUSH1 0x0 KECCAK256 SWAP1 PUSH1 0x6 MUL ADD PUSH1 0x0 SWAP1 SWAP2 SWAP1 SWAP2 SWAP1 SWAP2 POP PUSH1 0x0 DUP3 ADD MLOAD DUP2 PUSH1 0x0 ADD SWAP1 DUP2 PUSH2 0x1866 SWAP2 SWAP1 PUSH2 0x4F18 JUMP JUMPDEST POP PUSH1 0x20 DUP3 ADD MLOAD DUP2 PUSH1 0x1 ADD SSTORE PUSH1 0x40 DUP3 ADD MLOAD DUP2 PUSH1 0x2 ADD SWAP1 DUP2 PUSH2 0x1886 SWAP2 SWAP1 PUSH2 0x4F18 JUMP JUMPDEST POP PUSH1 0x60 DUP3 ADD MLOAD DUP2 PUSH1 0x3 ADD SWAP1 DUP2 PUSH2 0x189C SWAP2 SWAP1 PUSH2 0x4F18 JUMP JUMPDEST POP PUSH1 0x80 DUP3 ADD MLOAD DUP2 PUSH1 0x4 ADD SSTORE PUSH1 0xA0 DUP3 ADD MLOAD DUP2 PUSH1 0x5 ADD PUSH1 0x0 PUSH2 0x100 EXP DUP2 SLOAD DUP2 PUSH1 0xFF MUL NOT AND SWAP1 DUP4 ISZERO ISZERO MUL OR SWAP1 SSTORE POP POP POP DUP1 PUSH1 0xA DUP5 PUSH1 0x40 MLOAD PUSH2 0x18DA SWAP2 SWAP1 PUSH2 0x4CE9 JUMP JUMPDEST SWAP1 DUP2 MSTORE PUSH1 0x20 ADD PUSH1 0x40 MLOAD DUP1 SWAP2 SUB SWAP1 KECCAK256 PUSH1 0x0 DUP3 ADD MLOAD DUP2 PUSH1 0x0 ADD SWAP1 DUP2 PUSH2 0x18FD SWAP2 SWAP1 PUSH2 0x4F18 JUMP JUMPDEST POP PUSH1 0x20 DUP3 ADD MLOAD DUP2 PUSH1 0x1 ADD SSTORE PUSH1 0x40 DUP3 ADD MLOAD DUP2 PUSH1 0x2 ADD SWAP1 DUP2 PUSH2 0x191D SWAP2 SWAP1 PUSH2 0x4F18 JUMP JUMPDEST POP PUSH1 0x60 DUP3 ADD MLOAD DUP2 PUSH1 0x3 ADD SWAP1 DUP2 PUSH2 0x1933 SWAP2 SWAP1 PUSH2 0x4F18 JUMP JUMPDEST POP PUSH1 0x80 DUP3 ADD MLOAD DUP2 PUSH1 0x4 ADD SSTORE PUSH1 0xA0 DUP3 ADD MLOAD DUP2 PUSH1 0x5 ADD PUSH1 0x0 PUSH2 0x100 EXP DUP2 SLOAD DUP2 PUSH1 0xFF MUL NOT AND SWAP1 DUP4 ISZERO ISZERO MUL OR SWAP1 SSTORE POP SWAP1 POP POP DUP3 PUSH1 0x40 MLOAD PUSH2 0x196F SWAP2 SWAP1 PUSH2 0x4CE9 JUMP JUMPDEST PUSH1 0x40 MLOAD DUP1 SWAP2 SUB SWAP1 KECCAK256 DUP6 PUSH1 0x40 MLOAD PUSH2 0x1985 SWAP2 SWAP1 PUSH2 0x4CE9 JUMP JUMPDEST PUSH1 0x40 MLOAD DUP1 SWAP2 SUB SWAP1 KECCAK256 PUSH32 0x8AFD5F09F2C1C39B88E6EE97FCF10294BE6E0486FD829B85F61D0AB7AA008ACD DUP7 DUP6 PUSH1 0x40 MLOAD PUSH2 0x19BE SWAP3 SWAP2 SWAP1 PUSH2 0x50C2 JUMP JUMPDEST PUSH1 0x40 MLOAD DUP1 SWAP2 SUB SWAP1 LOG3 POP POP POP POP POP JUMP JUMPDEST PUSH1 0x8 DUP2 DUP2 SLOAD DUP2 LT PUSH2 0x19DD JUMPI PUSH1 0x0 DUP1 REVERT JUMPDEST SWAP1 PUSH1 0x0 MSTORE PUSH1 0x20 PUSH1 0x0 KECCAK256 SWAP1 PUSH1 0x2 MUL ADD PUSH1 0x0 SWAP2 POP SWAP1 POP DUP1 PUSH1 0x0 ADD DUP1 SLOAD PUSH2 0x1A00 SWAP1 PUSH2 0x45C9 JUMP JUMPDEST DUP1 PUSH1 0x1F ADD PUSH1 0x20 DUP1 SWAP2 DIV MUL PUSH1 0x20 ADD PUSH1 0x40 MLOAD SWAP1 DUP2 ADD PUSH1 0x40 MSTORE DUP1 SWAP3 SWAP2 SWAP1 DUP2 DUP2 MSTORE PUSH1 0x20 ADD DUP3 DUP1 SLOAD PUSH2 0x1A2C SWAP1 PUSH2 0x45C9 JUMP JUMPDEST DUP1 ISZERO PUSH2 0x1A79 JUMPI DUP1 PUSH1 0x1F LT PUSH2 0x1A4E JUMPI PUSH2 0x100 DUP1 DUP4 SLOAD DIV MUL DUP4 MSTORE SWAP2 PUSH1 0x20 ADD SWAP2 PUSH2 0x1A79 JUMP JUMPDEST DUP3 ADD SWAP2 SWAP1 PUSH1 0x0 MSTORE PUSH1 0x20 PUSH1 0x0 KECCAK256 SWAP1 JUMPDEST DUP2 SLOAD DUP2 MSTORE SWAP1 PUSH1 0x1 ADD SWAP1 PUSH1 0x20 ADD DUP1 DUP4 GT PUSH2 0x1A5C JUMPI DUP3 SWAP1 SUB PUSH1 0x1F AND DUP3 ADD SWAP2 JUMPDEST POP POP POP POP POP SWAP1 POP DUP2 JUMP JUMPDEST PUSH1 0x0 PUSH1 0x8 DUP1 SLOAD SWAP1 POP SWAP1 POP SWAP1 JUMP JUMPDEST PUSH1 0xE PUSH1 0x1 SWAP1 SLOAD SWAP1 PUSH2 0x100 EXP SWAP1 DIV PUSH1 0xFF AND DUP2 JUMP JUMPDEST PUSH1 0x5 PUSH1 0x0 SWAP1 SLOAD SWAP1 PUSH2 0x100 EXP SWAP1 DIV PUSH20 0xFFFFFFFFFFFFFFFFFFFFFFFFFFFFFFFFFFFFFFFF AND DUP2 JUMP JUMPDEST PUSH1 0x7 DUP2 DUP2 SLOAD DUP2 LT PUSH2 0x1AD9 JUMPI PUSH1 0x0 DUP1 REVERT JUMPDEST SWAP1 PUSH1 0x0 MSTORE PUSH1 0x20 PUSH1 0x0 KECCAK256 SWAP1 PUSH1 0x6 MUL ADD PUSH1 0x0 SWAP2 POP SWAP1 POP DUP1 PUSH1 0x0 ADD DUP1 SLOAD PUSH2 0x1AFC SWAP1 PUSH2 0x45C9 JUMP JUMPDEST DUP1 PUSH1 0x1F ADD PUSH1 0x20 DUP1 SWAP2 DIV MUL PUSH1 0x20 ADD PUSH1 0x40 MLOAD SWAP1 DUP2 ADD PUSH1 0x40 MSTORE DUP1 SWAP3 SWAP2 SWAP1 DUP2 DUP2 MSTORE PUSH1 0x20 ADD DUP3 DUP1 SLOAD PUSH2 0x1B28 SWAP1 PUSH2 0x45C9 JUMP JUMPDEST DUP1 ISZERO PUSH2 0x1B75 JUMPI DUP1 PUSH1 0x1F LT PUSH2 0x1B4A JUMPI PUSH2 0x100 DUP1 DUP4 SLOAD DIV MUL DUP4 MSTORE SWAP2 PUSH1 0x20 ADD SWAP2 PUSH2 0x1B75 JUMP JUMPDEST DUP3 ADD SWAP2 SWAP1 PUSH1 0x0 MSTORE PUSH1 0x20 PUSH1 0x0 KECCAK256 SWAP1 JUMPDEST DUP2 SLOAD DUP2 MSTORE SWAP1 PUSH1 0x1 ADD SWAP1 PUSH1 0x20 ADD DUP1 DUP4 GT PUSH2 0x1B58 JUMPI DUP3 SWAP1 SUB PUSH1 0x1F AND DUP3 ADD SWAP2 JUMPDEST POP POP POP POP POP SWAP1 DUP1 PUSH1 0x1 ADD SLOAD SWAP1 DUP1 PUSH1 0x2 ADD DUP1 SLOAD PUSH2 0x1B90 SWAP1 PUSH2 0x45C9 JUMP JUMPDEST DUP1 PUSH1 0x1F ADD PUSH1 0x20 DUP1 SWAP2 DIV MUL PUSH1 0x20 ADD PUSH1 0x40 MLOAD SWAP1 DUP2 ADD PUSH1 0x40 MSTORE DUP1 SWAP3 SWAP2 SWAP1 DUP2 DUP2 MSTORE PUSH1 0x20 ADD DUP3 DUP1 SLOAD PUSH2 0x1BBC SWAP1 PUSH2 0x45C9 JUMP JUMPDEST DUP1 ISZERO PUSH2 0x1C09 JUMPI DUP1 PUSH1 0x1F LT PUSH2 0x1BDE JUMPI PUSH2 0x100 DUP1 DUP4 SLOAD DIV MUL DUP4 MSTORE SWAP2 PUSH1 0x20 ADD SWAP2 PUSH2 0x1C09 JUMP JUMPDEST DUP3 ADD SWAP2 SWAP1 PUSH1 0x0 MSTORE PUSH1 0x20 PUSH1 0x0 KECCAK256 SWAP1 JUMPDEST DUP2 SLOAD DUP2 MSTORE SWAP1 PUSH1 0x1 ADD SWAP1 PUSH1 0x20 ADD DUP1 DUP4 GT PUSH2 0x1BEC JUMPI DUP3 SWAP1 SUB PUSH1 0x1F AND DUP3 ADD SWAP2 JUMPDEST POP POP POP POP POP SWAP1 DUP1 PUSH1 0x3 ADD DUP1 SLOAD PUSH2 0x1C1E SWAP1 PUSH2 0x45C9 JUMP JUMPDEST DUP1 PUSH1 0x1F ADD PUSH1 0x20 DUP1 SWAP2 DIV MUL PUSH1 0x20 ADD PUSH1 0x40 MLOAD SWAP1 DUP2 ADD PUSH1 0x40 MSTORE DUP1 SWAP3 SWAP2 SWAP1 DUP2 DUP2 MSTORE PUSH1 0x20 ADD DUP3 DUP1 SLOAD PUSH2 0x1C4A SWAP1 PUSH2 0x45C9 JUMP JUMPDEST DUP1 ISZERO PUSH2 0x1C97 JUMPI DUP1 PUSH1 0x1F LT PUSH2 0x1C6C JUMPI PUSH2 0x100 DUP1 DUP4 SLOAD DIV MUL DUP4 MSTORE SWAP2 PUSH1 0x20 ADD SWAP2 PUSH2 0x1C97 JUMP JUMPDEST DUP3 ADD SWAP2 SWAP1 PUSH1 0x0 MSTORE PUSH1 0x20 PUSH1 0x0 KECCAK256 SWAP1 JUMPDEST DUP2 SLOAD DUP2 MSTORE SWAP1 PUSH1 0x1 ADD SWAP1 PUSH1 0x20 ADD DUP1 DUP4 GT PUSH2 0x1C7A JUMPI DUP3 SWAP1 SUB PUSH1 0x1F AND DUP3 ADD SWAP2 JUMPDEST POP POP POP POP POP SWAP1 DUP1 PUSH1 0x4 ADD SLOAD SWAP1 DUP1 PUSH1 0x5 ADD PUSH1 0x0 SWAP1 SLOAD SWAP1 PUSH2 0x100 EXP SWAP1 DIV PUSH1 0xFF AND SWAP1 POP DUP7 JUMP JUMPDEST PUSH1 0x60 PUSH1 0x4 DUP1 SLOAD PUSH2 0x1CC9 SWAP1 PUSH2 0x45C9 JUMP JUMPDEST DUP1 PUSH1 0x1F ADD PUSH1 0x20 DUP1 SWAP2 DIV MUL PUSH1 0x20 ADD PUSH1 0x40 MLOAD SWAP1 DUP2 ADD PUSH1 0x40 MSTORE DUP1 SWAP3 SWAP2 SWAP1 DUP2 DUP2 MSTORE PUSH1 0x20 ADD DUP3 DUP1 SLOAD PUSH2 0x1CF5 SWAP1 PUSH2 0x45C9 JUMP JUMPDEST DUP1 ISZERO PUSH2 0x1D42 JUMPI DUP1 PUSH1 0x1F LT PUSH2 0x1D17 JUMPI PUSH2 0x100 DUP1 DUP4 SLOAD DIV MUL DUP4 MSTORE SWAP2 PUSH1 0x20 ADD SWAP2 PUSH2 0x1D42 JUMP JUMPDEST DUP3 ADD SWAP2 SWAP1 PUSH1 0x0 MSTORE PUSH1 0x20 PUSH1 0x0 KECCAK256 SWAP1 JUMPDEST DUP2 SLOAD DUP2 MSTORE SWAP1 PUSH1 0x1 ADD SWAP1 PUSH1 0x20 ADD DUP1 DUP4 GT PUSH2 0x1D25 JUMPI DUP3 SWAP1 SUB PUSH1 0x1F AND DUP3 ADD SWAP2 JUMPDEST POP POP POP POP POP SWAP1 POP SWAP1 JUMP JUMPDEST PUSH1 0x6 DUP2 DUP2 SLOAD DUP2 LT PUSH2 0x1D5C JUMPI PUSH1 0x0 DUP1 REVERT JUMPDEST SWAP1 PUSH1 0x0 MSTORE PUSH1 0x20 PUSH1 0x0 KECCAK256 SWAP1 PUSH1 0x4 MUL ADD PUSH1 0x0 SWAP2 POP SWAP1 POP DUP1 PUSH1 0x0 ADD DUP1 SLOAD PUSH2 0x1D7F SWAP1 PUSH2 0x45C9 JUMP JUMPDEST DUP1 PUSH1 0x1F ADD PUSH1 0x20 DUP1 SWAP2 DIV MUL PUSH1 0x20 ADD PUSH1 0x40 MLOAD SWAP1 DUP2 ADD PUSH1 0x40 MSTORE DUP1 SWAP3 SWAP2 SWAP1 DUP2 DUP2 MSTORE PUSH1 0x20 ADD DUP3 DUP1 SLOAD PUSH2 0x1DAB SWAP1 PUSH2 0x45C9 JUMP JUMPDEST DUP1 ISZERO PUSH2 0x1DF8 JUMPI DUP1 PUSH1 0x1F LT PUSH2 0x1DCD JUMPI PUSH2 0x100 DUP1 DUP4 SLOAD DIV MUL DUP4 MSTORE SWAP2 PUSH1 0x20 ADD SWAP2 PUSH2 0x1DF8 JUMP JUMPDEST DUP3 ADD SWAP2 SWAP1 PUSH1 0x0 MSTORE PUSH1 0x20 PUSH1 0x0 KECCAK256 SWAP1 JUMPDEST DUP2 SLOAD DUP2 MSTORE SWAP1 PUSH1 0x1 ADD SWAP1 PUSH1 0x20 ADD DUP1 DUP4 GT PUSH2 0x1DDB JUMPI DUP3 SWAP1 SUB PUSH1 0x1F AND DUP3 ADD SWAP2 JUMPDEST POP POP POP POP POP SWAP1 DUP1 PUSH1 0x1 ADD SLOAD SWAP1 DUP1 PUSH1 0x2 ADD DUP1 SLOAD PUSH2 0x1E13 SWAP1 PUSH2 0x45C9 JUMP JUMPDEST DUP1 PUSH1 0x1F ADD PUSH1 0x20 DUP1 SWAP2 DIV MUL PUSH1 0x20 ADD PUSH1 0x40 MLOAD SWAP1 DUP2 ADD PUSH1 0x40 MSTORE DUP1 SWAP3 SWAP2 SWAP1 DUP2 DUP2 MSTORE PUSH1 0x20 ADD DUP3 DUP1 SLOAD PUSH2 0x1E3F SWAP1 PUSH2 0x45C9 JUMP JUMPDEST DUP1 ISZERO PUSH2 0x1E8C JUMPI DUP1 PUSH1 0x1F LT PUSH2 0x1E61 JUMPI PUSH2 0x100 DUP1 DUP4 SLOAD DIV MUL DUP4 MSTORE SWAP2 PUSH1 0x20 ADD SWAP2 PUSH2 0x1E8C JUMP JUMPDEST DUP3 ADD SWAP2 SWAP1 PUSH1 0x0 MSTORE PUSH1 0x20 PUSH1 0x0 KECCAK256 SWAP1 JUMPDEST DUP2 SLOAD DUP2 MSTORE SWAP1 PUSH1 0x1 ADD SWAP1 PUSH1 0x20 ADD DUP1 DUP4 GT PUSH2 0x1E6F JUMPI DUP3 SWAP1 SUB PUSH1 0x1F AND DUP3 ADD SWAP2 JUMPDEST POP POP POP POP POP SWAP1 DUP1 PUSH1 0x3 ADD PUSH1 0x0 SWAP1 SLOAD SWAP1 PUSH2 0x100 EXP SWAP1 DIV PUSH1 0xFF AND SWAP1 POP DUP5 JUMP JUMPDEST PUSH1 0x5 PUSH1 0x0 SWAP1 SLOAD SWAP1 PUSH2 0x100 EXP SWAP1 DIV PUSH20 0xFFFFFFFFFFFFFFFFFFFFFFFFFFFFFFFFFFFFFFFF AND PUSH20 0xFFFFFFFFFFFFFFFFFFFFFFFFFFFFFFFFFFFFFFFF AND CALLER PUSH20 0xFFFFFFFFFFFFFFFFFFFFFFFFFFFFFFFFFFFFFFFF AND EQ PUSH2 0x1F39 JUMPI PUSH1 0x40 MLOAD PUSH32 0x8C379A000000000000000000000000000000000000000000000000000000000 DUP2 MSTORE PUSH1 0x4 ADD PUSH2 0x1F30 SWAP1 PUSH2 0x4646 JUMP JUMPDEST PUSH1 0x40 MLOAD DUP1 SWAP2 SUB SWAP1 REVERT JUMPDEST PUSH1 0xA DUP2 PUSH1 0x40 MLOAD PUSH2 0x1F49 SWAP2 SWAP1 PUSH2 0x4CE9 JUMP JUMPDEST SWAP1 DUP2 MSTORE PUSH1 0x20 ADD PUSH1 0x40 MLOAD DUP1 SWAP2 SUB SWAP1 KECCAK256 PUSH1 0x5 ADD PUSH1 0x0 SWAP1 SLOAD SWAP1 PUSH2 0x100 EXP SWAP1 DIV PUSH1 0xFF AND ISZERO PUSH2 0x1FA8 JUMPI PUSH1 0x40 MLOAD PUSH32 0x8C379A000000000000000000000000000000000000000000000000000000000 DUP2 MSTORE PUSH1 0x4 ADD PUSH2 0x1F9F SWAP1 PUSH2 0x513E JUMP JUMPDEST PUSH1 0x40 MLOAD DUP1 SWAP2 SUB SWAP1 REVERT JUMPDEST PUSH1 0x1 PUSH1 0xA DUP3 PUSH1 0x40 MLOAD PUSH2 0x1FBA SWAP2 SWAP1 PUSH2 0x4CE9 JUMP JUMPDEST SWAP1 DUP2 MSTORE PUSH1 0x20 ADD PUSH1 0x40 MLOAD DUP1 SWAP2 SUB SWAP1 KECCAK256 PUSH1 0x5 ADD PUSH1 0x0 PUSH2 0x100 EXP DUP2 SLOAD DUP2 PUSH1 0xFF MUL NOT AND SWAP1 DUP4 ISZERO ISZERO MUL OR SWAP1 SSTORE POP PUSH2 0x1FF4 CALLER PUSH8 0x8AC7230489E80000 PUSH2 0x2D14 JUMP JUMPDEST POP DUP1 PUSH1 0x40 MLOAD PUSH2 0x2003 SWAP2 SWAP1 PUSH2 0x4CE9 JUMP JUMPDEST PUSH1 0x40 MLOAD DUP1 SWAP2 SUB SWAP1 KECCAK256 PUSH1 0xA DUP3 PUSH1 0x40 MLOAD PUSH2 0x201B SWAP2 SWAP1 PUSH2 0x4CE9 JUMP JUMPDEST SWAP1 DUP2 MSTORE PUSH1 0x20 ADD PUSH1 0x40 MLOAD DUP1 SWAP2 SUB SWAP1 KECCAK256 PUSH1 0x0 ADD PUSH1 0x40 MLOAD PUSH2 0x2039 SWAP2 SWAP1 PUSH2 0x51E1 JUMP JUMPDEST PUSH1 0x40 MLOAD DUP1 SWAP2 SUB SWAP1 KECCAK256 PUSH32 0xB78543F054C768084F86F0E559D1E007998CA69729EEFFC4B727BAA388934A32 PUSH1 0x40 MLOAD PUSH1 0x40 MLOAD DUP1 SWAP2 SUB SWAP1 LOG3 POP JUMP JUMPDEST PUSH1 0xC PUSH1 0x20 MSTORE DUP1 PUSH1 0x0 MSTORE PUSH1 0x40 PUSH1 0x0 KECCAK256 PUSH1 0x0 SWAP2 POP SWAP1 POP DUP1 PUSH1 0x0 ADD DUP1 SLOAD PUSH2 0x2093 SWAP1 PUSH2 0x45C9 JUMP JUMPDEST DUP1 PUSH1 0x1F ADD PUSH1 0x20 DUP1 SWAP2 DIV MUL PUSH1 0x20 ADD PUSH1 0x40 MLOAD SWAP1 DUP2 ADD PUSH1 0x40 MSTORE DUP1 SWAP3 SWAP2 SWAP1 DUP2 DUP2 MSTORE PUSH1 0x20 ADD DUP3 DUP1 SLOAD PUSH2 0x20BF SWAP1 PUSH2 0x45C9 JUMP JUMPDEST DUP1 ISZERO PUSH2 0x210C JUMPI DUP1 PUSH1 0x1F LT PUSH2 0x20E1 JUMPI PUSH2 0x100 DUP1 DUP4 SLOAD DIV MUL DUP4 MSTORE SWAP2 PUSH1 0x20 ADD SWAP2 PUSH2 0x210C JUMP JUMPDEST DUP3 ADD SWAP2 SWAP1 PUSH1 0x0 MSTORE PUSH1 0x20 PUSH1 0x0 KECCAK256 SWAP1 JUMPDEST DUP2 SLOAD DUP2 MSTORE SWAP1 PUSH1 0x1 ADD SWAP1 PUSH1 0x20 ADD DUP1 DUP4 GT PUSH2 0x20EF JUMPI DUP3 SWAP1 SUB PUSH1 0x1F AND DUP3 ADD SWAP2 JUMPDEST POP POP POP POP POP SWAP1 DUP1 PUSH1 0x1 ADD SLOAD SWAP1 DUP1 PUSH1 0x2 ADD DUP1 SLOAD PUSH2 0x2127 SWAP1 PUSH2 0x45C9 JUMP JUMPDEST DUP1 PUSH1 0x1F ADD PUSH1 0x20 DUP1 SWAP2 DIV MUL PUSH1 0x20 ADD PUSH1 0x40 MLOAD SWAP1 DUP2 ADD PUSH1 0x40 MSTORE DUP1 SWAP3 SWAP2 SWAP1 DUP2 DUP2 MSTORE PUSH1 0x20 ADD DUP3 DUP1 SLOAD PUSH2 0x2153 SWAP1 PUSH2 0x45C9 JUMP JUMPDEST DUP1 ISZERO PUSH2 0x21A0 JUMPI DUP1 PUSH1 0x1F LT PUSH2 0x2175 JUMPI PUSH2 0x100 DUP1 DUP4 SLOAD DIV MUL DUP4 MSTORE SWAP2 PUSH1 0x20 ADD SWAP2 PUSH2 0x21A0 JUMP JUMPDEST DUP3 ADD SWAP2 SWAP1 PUSH1 0x0 MSTORE PUSH1 0x20 PUSH1 0x0 KECCAK256 SWAP1 JUMPDEST DUP2 SLOAD DUP2 MSTORE SWAP1 PUSH1 0x1 ADD SWAP1 PUSH1 0x20 ADD DUP1 DUP4 GT PUSH2 0x2183 JUMPI DUP3 SWAP1 SUB PUSH1 0x1F AND DUP3 ADD SWAP2 JUMPDEST POP POP POP POP POP SWAP1 DUP1 PUSH1 0x3 ADD PUSH1 0x0 SWAP1 SLOAD SWAP1 PUSH2 0x100 EXP SWAP1 DIV PUSH1 0xFF AND SWAP1 POP DUP5 JUMP JUMPDEST PUSH1 0xE PUSH1 0x0 SWAP1 SLOAD SWAP1 PUSH2 0x100 EXP SWAP1 DIV PUSH1 0xFF AND ISZERO PUSH2 0x220D JUMPI PUSH1 0x40 MLOAD PUSH32 0x8C379A000000000000000000000000000000000000000000000000000000000 DUP2 MSTORE PUSH1 0x4 ADD PUSH2 0x2204 SWAP1 PUSH2 0x526A JUMP JUMPDEST PUSH1 0x40 MLOAD DUP1 SWAP2 SUB SWAP1 REVERT JUMPDEST PUSH1 0xE PUSH1 0x1 SWAP1 SLOAD SWAP1 PUSH2 0x100 EXP SWAP1 DIV PUSH1 0xFF AND PUSH2 0x225C JUMPI PUSH1 0x40 MLOAD PUSH32 0x8C379A000000000000000000000000000000000000000000000000000000000 DUP2 MSTORE PUSH1 0x4 ADD PUSH2 0x2253 SWAP1 PUSH2 0x52D6 JUMP JUMPDEST PUSH1 0x40 MLOAD DUP1 SWAP2 SUB SWAP1 REVERT JUMPDEST PUSH1 0x0 PUSH1 0xC PUSH1 0x0 CALLER PUSH20 0xFFFFFFFFFFFFFFFFFFFFFFFFFFFFFFFFFFFFFFFF AND PUSH20 0xFFFFFFFFFFFFFFFFFFFFFFFFFFFFFFFFFFFFFFFF AND DUP2 MSTORE PUSH1 0x20 ADD SWAP1 DUP2 MSTORE PUSH1 0x20 ADD PUSH1 0x0 KECCAK256 SWAP1 POP DUP1 PUSH1 0x3 ADD PUSH1 0x0 SWAP1 SLOAD SWAP1 PUSH2 0x100 EXP SWAP1 DIV PUSH1 0xFF AND ISZERO PUSH2 0x22F1 JUMPI PUSH1 0x40 MLOAD PUSH32 0x8C379A000000000000000000000000000000000000000000000000000000000 DUP2 MSTORE PUSH1 0x4 ADD PUSH2 0x22E8 SWAP1 PUSH2 0x5342 JUMP JUMPDEST PUSH1 0x40 MLOAD DUP1 SWAP2 SUB SWAP1 REVERT JUMPDEST PUSH1 0x0 PUSH1 0xB DUP5 PUSH1 0x40 MLOAD PUSH2 0x2303 SWAP2 SWAP1 PUSH2 0x4CE9 JUMP JUMPDEST SWAP1 DUP2 MSTORE PUSH1 0x20 ADD PUSH1 0x40 MLOAD DUP1 SWAP2 SUB SWAP1 KECCAK256 PUSH1 0x1 ADD DUP1 SLOAD SWAP1 POP GT PUSH2 0x2358 JUMPI PUSH1 0x40 MLOAD PUSH32 0x8C379A000000000000000000000000000000000000000000000000000000000 DUP2 MSTORE PUSH1 0x4 ADD PUSH2 0x234F SWAP1 PUSH2 0x53AE JUMP JUMPDEST PUSH1 0x40 MLOAD DUP1 SWAP2 SUB SWAP1 REVERT JUMPDEST PUSH1 0xB DUP4 PUSH1 0x40 MLOAD PUSH2 0x2368 SWAP2 SWAP1 PUSH2 0x4CE9 JUMP JUMPDEST SWAP1 DUP2 MSTORE PUSH1 0x20 ADD PUSH1 0x40 MLOAD DUP1 SWAP2 SUB SWAP1 KECCAK256 PUSH1 0x1 ADD DUP1 SLOAD SWAP1 POP DUP3 LT PUSH2 0x23BE JUMPI PUSH1 0x40 MLOAD PUSH32 0x8C379A000000000000000000000000000000000000000000000000000000000 DUP2 MSTORE PUSH1 0x4 ADD PUSH2 0x23B5 SWAP1 PUSH2 0x541A JUMP JUMPDEST PUSH1 0x40 MLOAD DUP1 SWAP2 SUB SWAP1 REVERT JUMPDEST PUSH1 0x1 PUSH1 0xB DUP5 PUSH1 0x40 MLOAD PUSH2 0x23D0 SWAP2 SWAP1 PUSH2 0x4CE9 JUMP JUMPDEST SWAP1 DUP2 MSTORE PUSH1 0x20 ADD PUSH1 0x40 MLOAD DUP1 SWAP2 SUB SWAP1 KECCAK256 PUSH1 0x1 ADD DUP4 DUP2 SLOAD DUP2 LT PUSH2 0x23F3 JUMPI PUSH2 0x23F2 PUSH2 0x543A JUMP JUMPDEST JUMPDEST SWAP1 PUSH1 0x0 MSTORE PUSH1 0x20 PUSH1 0x0 KECCAK256 SWAP1 PUSH1 0x6 MUL ADD PUSH1 0x4 ADD PUSH1 0x0 DUP3 DUP3 SLOAD PUSH2 0x2413 SWAP2 SWAP1 PUSH2 0x5498 JUMP JUMPDEST SWAP3 POP POP DUP2 SWAP1 SSTORE POP PUSH1 0x1 DUP2 PUSH1 0x3 ADD PUSH1 0x0 PUSH2 0x100 EXP DUP2 SLOAD DUP2 PUSH1 0xFF MUL NOT AND SWAP1 DUP4 ISZERO ISZERO MUL OR SWAP1 SSTORE POP CALLER PUSH20 0xFFFFFFFFFFFFFFFFFFFFFFFFFFFFFFFFFFFFFFFF AND PUSH32 0x477D7FAF347A03679FABD88FEEA150C41667473FC8412962F607FB7503F1BD43 DUP3 PUSH1 0x2 ADD DUP6 DUP6 PUSH1 0x40 MLOAD PUSH2 0x2484 SWAP4 SWAP3 SWAP2 SWAP1 PUSH2 0x5550 JUMP JUMPDEST PUSH1 0x40 MLOAD DUP1 SWAP2 SUB SWAP1 LOG2 POP POP POP JUMP JUMPDEST PUSH1 0x0 DUP1 PUSH2 0x249C PUSH2 0x285E JUMP JUMPDEST SWAP1 POP PUSH2 0x24A9 DUP2 DUP6 DUP6 PUSH2 0x290C JUMP JUMPDEST PUSH1 0x1 SWAP2 POP POP SWAP3 SWAP2 POP POP JUMP JUMPDEST PUSH1 0x5 PUSH1 0x0 SWAP1 SLOAD SWAP1 PUSH2 0x100 EXP SWAP1 DIV PUSH20 0xFFFFFFFFFFFFFFFFFFFFFFFFFFFFFFFFFFFFFFFF AND PUSH20 0xFFFFFFFFFFFFFFFFFFFFFFFFFFFFFFFFFFFFFFFF AND CALLER PUSH20 0xFFFFFFFFFFFFFFFFFFFFFFFFFFFFFFFFFFFFFFFF AND EQ PUSH2 0x2544 JUMPI PUSH1 0x40 MLOAD PUSH32 0x8C379A000000000000000000000000000000000000000000000000000000000 DUP2 MSTORE PUSH1 0x4 ADD PUSH2 0x253B SWAP1 PUSH2 0x4646 JUMP JUMPDEST PUSH1 0x40 MLOAD DUP1 SWAP2 SUB SWAP1 REVERT JUMPDEST PUSH1 0x0 JUMPDEST DUP2 MLOAD DUP2 LT ISZERO PUSH2 0x2748 JUMPI PUSH1 0xD DUP3 DUP3 DUP2 MLOAD DUP2 LT PUSH2 0x2565 JUMPI PUSH2 0x2564 PUSH2 0x543A JUMP JUMPDEST JUMPDEST PUSH1 0x20 MUL PUSH1 0x20 ADD ADD MLOAD PUSH1 0x40 MLOAD PUSH2 0x257A SWAP2 SWAP1 PUSH2 0x4CE9 JUMP JUMPDEST SWAP1 DUP2 MSTORE PUSH1 0x20 ADD PUSH1 0x40 MLOAD DUP1 SWAP2 SUB SWAP1 KECCAK256 PUSH1 0x0 SWAP1 SLOAD SWAP1 PUSH2 0x100 EXP SWAP1 DIV PUSH1 0xFF AND ISZERO PUSH2 0x25D6 JUMPI PUSH1 0x40 MLOAD PUSH32 0x8C379A000000000000000000000000000000000000000000000000000000000 DUP2 MSTORE PUSH1 0x4 ADD PUSH2 0x25CD SWAP1 PUSH2 0x55E1 JUMP JUMPDEST PUSH1 0x40 MLOAD DUP1 SWAP2 SUB SWAP1 REVERT JUMPDEST PUSH1 0x0 PUSH1 0xB DUP4 DUP4 DUP2 MLOAD DUP2 LT PUSH2 0x25ED JUMPI PUSH2 0x25EC PUSH2 0x543A JUMP JUMPDEST JUMPDEST PUSH1 0x20 MUL PUSH1 0x20 ADD ADD MLOAD PUSH1 0x40 MLOAD PUSH2 0x2602 SWAP2 SWAP1 PUSH2 0x4CE9 JUMP JUMPDEST SWAP1 DUP2 MSTORE PUSH1 0x20 ADD PUSH1 0x40 MLOAD DUP1 SWAP2 SUB SWAP1 KECCAK256 SWAP1 POP DUP3 DUP3 DUP2 MLOAD DUP2 LT PUSH2 0x2625 JUMPI PUSH2 0x2624 PUSH2 0x543A JUMP JUMPDEST JUMPDEST PUSH1 0x20 MUL PUSH1 0x20 ADD ADD MLOAD DUP2 PUSH1 0x0 ADD SWAP1 DUP2 PUSH2 0x263D SWAP2 SWAP1 PUSH2 0x4F18 JUMP JUMPDEST POP PUSH1 0x8 DUP2 SWAP1 DUP1 PUSH1 0x1 DUP2 SLOAD ADD DUP1 DUP3 SSTORE DUP1 SWAP2 POP POP PUSH1 0x1 SWAP1 SUB SWAP1 PUSH1 0x0 MSTORE PUSH1 0x20 PUSH1 0x0 KECCAK256 SWAP1 PUSH1 0x2 MUL ADD PUSH1 0x0 SWAP1 SWAP2 SWAP1 SWAP2 SWAP1 SWAP2 POP PUSH1 0x0 DUP3 ADD DUP2 PUSH1 0x0 ADD SWAP1 DUP2 PUSH2 0x267E SWAP2 SWAP1 PUSH2 0x5617 JUMP JUMPDEST POP PUSH1 0x1 DUP3 ADD DUP2 PUSH1 0x1 ADD SWAP1 DUP1 SLOAD PUSH2 0x2695 SWAP3 SWAP2 SWAP1 PUSH2 0x3673 JUMP JUMPDEST POP POP POP PUSH1 0x1 PUSH1 0xD DUP5 DUP5 DUP2 MLOAD DUP2 LT PUSH2 0x26AF JUMPI PUSH2 0x26AE PUSH2 0x543A JUMP JUMPDEST JUMPDEST PUSH1 0x20 MUL PUSH1 0x20 ADD ADD MLOAD PUSH1 0x40 MLOAD PUSH2 0x26C4 SWAP2 SWAP1 PUSH2 0x4CE9 JUMP JUMPDEST SWAP1 DUP2 MSTORE PUSH1 0x20 ADD PUSH1 0x40 MLOAD DUP1 SWAP2 SUB SWAP1 KECCAK256 PUSH1 0x0 PUSH2 0x100 EXP DUP2 SLOAD DUP2 PUSH1 0xFF MUL NOT AND SWAP1 DUP4 ISZERO ISZERO MUL OR SWAP1 SSTORE POP PUSH32 0xF635339F4B5986D632E76F25211C57346B4B4CA3AA13C1BA323AC12563731456 DUP4 DUP4 DUP2 MLOAD DUP2 LT PUSH2 0x271D JUMPI PUSH2 0x271C PUSH2 0x543A JUMP JUMPDEST JUMPDEST PUSH1 0x20 MUL PUSH1 0x20 ADD ADD MLOAD PUSH1 0x40 MLOAD PUSH2 0x2732 SWAP2 SWAP1 PUSH2 0x38A3 JUMP JUMPDEST PUSH1 0x40 MLOAD DUP1 SWAP2 SUB SWAP1 LOG1 POP DUP1 DUP1 PUSH1 0x1 ADD SWAP2 POP POP PUSH2 0x2547 JUMP JUMPDEST POP POP JUMP JUMPDEST PUSH8 0x4563918244F40000 DUP2 JUMP JUMPDEST PUSH1 0x0 DUP1 DUP4 PUSH1 0x40 MLOAD PUSH1 0x20 ADD PUSH2 0x276C SWAP2 SWAP1 PUSH2 0x576C JUMP JUMPDEST PUSH1 0x40 MLOAD PUSH1 0x20 DUP2 DUP4 SUB SUB DUP2 MSTORE SWAP1 PUSH1 0x40 MSTORE DUP1 MLOAD SWAP1 PUSH1 0x20 ADD KECCAK256 SWAP1 POP PUSH1 0x0 PUSH2 0x2790 DUP3 DUP6 PUSH2 0x2DC2 JUMP JUMPDEST SWAP1 POP CALLER PUSH20 0xFFFFFFFFFFFFFFFFFFFFFFFFFFFFFFFFFFFFFFFF AND DUP2 PUSH20 0xFFFFFFFFFFFFFFFFFFFFFFFFFFFFFFFFFFFFFFFF AND EQ SWAP3 POP POP POP SWAP3 SWAP2 POP POP JUMP JUMPDEST PUSH1 0x0 PUSH1 0x1 PUSH1 0x0 DUP5 PUSH20 0xFFFFFFFFFFFFFFFFFFFFFFFFFFFFFFFFFFFFFFFF AND PUSH20 0xFFFFFFFFFFFFFFFFFFFFFFFFFFFFFFFFFFFFFFFF AND DUP2 MSTORE PUSH1 0x20 ADD SWAP1 DUP2 MSTORE PUSH1 0x20 ADD PUSH1 0x0 KECCAK256 PUSH1 0x0 DUP4 PUSH20 0xFFFFFFFFFFFFFFFFFFFFFFFFFFFFFFFFFFFFFFFF AND PUSH20 0xFFFFFFFFFFFFFFFFFFFFFFFFFFFFFFFFFFFFFFFF AND DUP2 MSTORE PUSH1 0x20 ADD SWAP1 DUP2 MSTORE PUSH1 0x20 ADD PUSH1 0x0 KECCAK256 SLOAD SWAP1 POP SWAP3 SWAP2 POP POP JUMP JUMPDEST PUSH8 0x8AC7230489E80000 DUP2 JUMP JUMPDEST PUSH1 0x0 CALLER SWAP1 POP SWAP1 JUMP JUMPDEST PUSH2 0x2873 DUP4 DUP4 DUP4 PUSH1 0x1 PUSH2 0x2DEE JUMP JUMPDEST POP POP POP JUMP JUMPDEST PUSH1 0x0 PUSH2 0x2884 DUP5 DUP5 PUSH2 0x27CB JUMP JUMPDEST SWAP1 POP PUSH32 0xFFFFFFFFFFFFFFFFFFFFFFFFFFFFFFFFFFFFFFFFFFFFFFFFFFFFFFFFFFFFFFFF DUP2 EQ PUSH2 0x2906 JUMPI DUP2 DUP2 LT ISZERO PUSH2 0x28F6 JUMPI DUP3 DUP2 DUP4 PUSH1 0x40 MLOAD PUSH32 0xFB8F41B200000000000000000000000000000000000000000000000000000000 DUP2 MSTORE PUSH1 0x4 ADD PUSH2 0x28ED SWAP4 SWAP3 SWAP2 SWAP1 PUSH2 0x5792 JUMP JUMPDEST PUSH1 0x40 MLOAD DUP1 SWAP2 SUB SWAP1 REVERT JUMPDEST PUSH2 0x2905 DUP5 DUP5 DUP5 DUP5 SUB PUSH1 0x0 PUSH2 0x2DEE JUMP JUMPDEST JUMPDEST POP POP POP POP JUMP JUMPDEST PUSH1 0x0 PUSH20 0xFFFFFFFFFFFFFFFFFFFFFFFFFFFFFFFFFFFFFFFF AND DUP4 PUSH20 0xFFFFFFFFFFFFFFFFFFFFFFFFFFFFFFFFFFFFFFFF AND SUB PUSH2 0x297E JUMPI PUSH1 0x0 PUSH1 0x40 MLOAD PUSH32 0x96C6FD1E00000000000000000000000000000000000000000000000000000000 DUP2 MSTORE PUSH1 0x4 ADD PUSH2 0x2975 SWAP2 SWAP1 PUSH2 0x428B JUMP JUMPDEST PUSH1 0x40 MLOAD DUP1 SWAP2 SUB SWAP1 REVERT JUMPDEST PUSH1 0x0 PUSH20 0xFFFFFFFFFFFFFFFFFFFFFFFFFFFFFFFFFFFFFFFF AND DUP3 PUSH20 0xFFFFFFFFFFFFFFFFFFFFFFFFFFFFFFFFFFFFFFFF AND SUB PUSH2 0x29F0 JUMPI PUSH1 0x0 PUSH1 0x40 MLOAD PUSH32 0xEC442F0500000000000000000000000000000000000000000000000000000000 DUP2 MSTORE PUSH1 0x4 ADD PUSH2 0x29E7 SWAP2 SWAP1 PUSH2 0x428B JUMP JUMPDEST PUSH1 0x40 MLOAD DUP1 SWAP2 SUB SWAP1 REVERT JUMPDEST PUSH2 0x29FB DUP4 DUP4 DUP4 PUSH2 0x2FC5 JUMP JUMPDEST POP POP POP JUMP JUMPDEST PUSH1 0x60 PUSH1 0x0 DUP4 SWAP1 POP PUSH1 0x0 PUSH1 0x2 DUP5 PUSH1 0x2 PUSH2 0x2A18 SWAP2 SWAP1 PUSH2 0x57C9 JUMP JUMPDEST PUSH2 0x2A22 SWAP2 SWAP1 PUSH2 0x5498 JUMP JUMPDEST PUSH8 0xFFFFFFFFFFFFFFFF DUP2 GT ISZERO PUSH2 0x2A3B JUMPI PUSH2 0x2A3A PUSH2 0x3D00 JUMP JUMPDEST JUMPDEST PUSH1 0x40 MLOAD SWAP1 DUP1 DUP3 MSTORE DUP1 PUSH1 0x1F ADD PUSH1 0x1F NOT AND PUSH1 0x20 ADD DUP3 ADD PUSH1 0x40 MSTORE DUP1 ISZERO PUSH2 0x2A6D JUMPI DUP2 PUSH1 0x20 ADD PUSH1 0x1 DUP3 MUL DUP1 CALLDATASIZE DUP4 CALLDATACOPY DUP1 DUP3 ADD SWAP2 POP POP SWAP1 POP JUMPDEST POP SWAP1 POP PUSH32 0x3000000000000000000000000000000000000000000000000000000000000000 DUP2 PUSH1 0x0 DUP2 MLOAD DUP2 LT PUSH2 0x2AA5 JUMPI PUSH2 0x2AA4 PUSH2 0x543A JUMP JUMPDEST JUMPDEST PUSH1 0x20 ADD ADD SWAP1 PUSH31 0xFFFFFFFFFFFFFFFFFFFFFFFFFFFFFFFFFFFFFFFFFFFFFFFFFFFFFFFFFFFFFF NOT AND SWAP1 DUP2 PUSH1 0x0 BYTE SWAP1 MSTORE8 POP PUSH32 0x7800000000000000000000000000000000000000000000000000000000000000 DUP2 PUSH1 0x1 DUP2 MLOAD DUP2 LT PUSH2 0x2B09 JUMPI PUSH2 0x2B08 PUSH2 0x543A JUMP JUMPDEST JUMPDEST PUSH1 0x20 ADD ADD SWAP1 PUSH31 0xFFFFFFFFFFFFFFFFFFFFFFFFFFFFFFFFFFFFFFFFFFFFFFFFFFFFFFFFFFFFFF NOT AND SWAP1 DUP2 PUSH1 0x0 BYTE SWAP1 MSTORE8 POP PUSH1 0x0 PUSH1 0x1 DUP6 PUSH1 0x2 PUSH2 0x2B49 SWAP2 SWAP1 PUSH2 0x57C9 JUMP JUMPDEST PUSH2 0x2B53 SWAP2 SWAP1 PUSH2 0x5498 JUMP JUMPDEST SWAP1 POP JUMPDEST PUSH1 0x1 DUP2 GT ISZERO PUSH2 0x2BF3 JUMPI PUSH32 0x3031323334353637383961626364656600000000000000000000000000000000 PUSH1 0xF DUP5 AND PUSH1 0x10 DUP2 LT PUSH2 0x2B95 JUMPI PUSH2 0x2B94 PUSH2 0x543A JUMP JUMPDEST JUMPDEST BYTE PUSH1 0xF8 SHL DUP3 DUP3 DUP2 MLOAD DUP2 LT PUSH2 0x2BAC JUMPI PUSH2 0x2BAB PUSH2 0x543A JUMP JUMPDEST JUMPDEST PUSH1 0x20 ADD ADD SWAP1 PUSH31 0xFFFFFFFFFFFFFFFFFFFFFFFFFFFFFFFFFFFFFFFFFFFFFFFFFFFFFFFFFFFFFF NOT AND SWAP1 DUP2 PUSH1 0x0 BYTE SWAP1 MSTORE8 POP PUSH1 0x4 DUP4 SWAP1 SHR SWAP3 POP DUP1 PUSH2 0x2BEC SWAP1 PUSH2 0x580B JUMP JUMPDEST SWAP1 POP PUSH2 0x2B56 JUMP JUMPDEST POP PUSH1 0x0 DUP3 EQ PUSH2 0x2C3B JUMPI DUP5 DUP5 PUSH1 0x40 MLOAD PUSH32 0xE22E27EB00000000000000000000000000000000000000000000000000000000 DUP2 MSTORE PUSH1 0x4 ADD PUSH2 0x2C32 SWAP3 SWAP2 SWAP1 PUSH2 0x5834 JUMP JUMPDEST PUSH1 0x40 MLOAD DUP1 SWAP2 SUB SWAP1 REVERT JUMPDEST DUP1 SWAP3 POP POP POP SWAP3 SWAP2 POP POP JUMP JUMPDEST PUSH1 0x60 PUSH1 0x0 PUSH1 0x1 PUSH2 0x2C55 DUP5 PUSH2 0x31EA JUMP JUMPDEST ADD SWAP1 POP PUSH1 0x0 DUP2 PUSH8 0xFFFFFFFFFFFFFFFF DUP2 GT ISZERO PUSH2 0x2C74 JUMPI PUSH2 0x2C73 PUSH2 0x3D00 JUMP JUMPDEST JUMPDEST PUSH1 0x40 MLOAD SWAP1 DUP1 DUP3 MSTORE DUP1 PUSH1 0x1F ADD PUSH1 0x1F NOT AND PUSH1 0x20 ADD DUP3 ADD PUSH1 0x40 MSTORE DUP1 ISZERO PUSH2 0x2CA6 JUMPI DUP2 PUSH1 0x20 ADD PUSH1 0x1 DUP3 MUL DUP1 CALLDATASIZE DUP4 CALLDATACOPY DUP1 DUP3 ADD SWAP2 POP POP SWAP1 POP JUMPDEST POP SWAP1 POP PUSH1 0x0 DUP3 PUSH1 0x20 ADD DUP3 ADD SWAP1 POP JUMPDEST PUSH1 0x1 ISZERO PUSH2 0x2D09 JUMPI DUP1 DUP1 PUSH1 0x1 SWAP1 SUB SWAP2 POP POP PUSH32 0x3031323334353637383961626364656600000000000000000000000000000000 PUSH1 0xA DUP7 MOD BYTE DUP2 MSTORE8 PUSH1 0xA DUP6 DUP2 PUSH2 0x2CFD JUMPI PUSH2 0x2CFC PUSH2 0x585D JUMP JUMPDEST JUMPDEST DIV SWAP5 POP PUSH1 0x0 DUP6 SUB PUSH2 0x2CB4 JUMPI JUMPDEST DUP2 SWAP4 POP POP POP POP SWAP2 SWAP1 POP JUMP JUMPDEST PUSH1 0x0 PUSH10 0xD3C21BCECCEDA1000000 PUSH2 0x2D29 PUSH2 0x8FD JUMP JUMPDEST DUP4 PUSH2 0x2D34 SWAP2 SWAP1 PUSH2 0x5498 JUMP JUMPDEST GT ISZERO PUSH2 0x2D75 JUMPI PUSH1 0x40 MLOAD PUSH32 0x8C379A000000000000000000000000000000000000000000000000000000000 DUP2 MSTORE PUSH1 0x4 ADD PUSH2 0x2D6C SWAP1 PUSH2 0x58D8 JUMP JUMPDEST PUSH1 0x40 MLOAD DUP1 SWAP2 SUB SWAP1 REVERT JUMPDEST PUSH2 0x2D7F DUP4 DUP4 PUSH2 0x333D JUMP JUMPDEST PUSH32 0xCDA531BFD68624F13205C0A23CD4D5A7F09792CBB399603114F2B04AAA1BF5CF DUP4 DUP4 PUSH1 0x40 MLOAD PUSH2 0x2DB0 SWAP3 SWAP2 SWAP1 PUSH2 0x58F8 JUMP JUMPDEST PUSH1 0x40 MLOAD DUP1 SWAP2 SUB SWAP1 LOG1 PUSH1 0x1 SWAP1 POP SWAP3 SWAP2 POP POP JUMP JUMPDEST PUSH1 0x0 DUP1 PUSH1 0x0 DUP1 PUSH2 0x2DD2 DUP7 DUP7 PUSH2 0x33BF JUMP JUMPDEST SWAP3 POP SWAP3 POP SWAP3 POP PUSH2 0x2DE2 DUP3 DUP3 PUSH2 0x341B JUMP JUMPDEST DUP3 SWAP4 POP POP POP POP SWAP3 SWAP2 POP POP JUMP JUMPDEST PUSH1 0x0 PUSH20 0xFFFFFFFFFFFFFFFFFFFFFFFFFFFFFFFFFFFFFFFF AND DUP5 PUSH20 0xFFFFFFFFFFFFFFFFFFFFFFFFFFFFFFFFFFFFFFFF AND SUB PUSH2 0x2E60 JUMPI PUSH1 0x0 PUSH1 0x40 MLOAD PUSH32 0xE602DF0500000000000000000000000000000000000000000000000000000000 DUP2 MSTORE PUSH1 0x4 ADD PUSH2 0x2E57 SWAP2 SWAP1 PUSH2 0x428B JUMP JUMPDEST PUSH1 0x40 MLOAD DUP1 SWAP2 SUB SWAP1 REVERT JUMPDEST PUSH1 0x0 PUSH20 0xFFFFFFFFFFFFFFFFFFFFFFFFFFFFFFFFFFFFFFFF AND DUP4 PUSH20 0xFFFFFFFFFFFFFFFFFFFFFFFFFFFFFFFFFFFFFFFF AND SUB PUSH2 0x2ED2 JUMPI PUSH1 0x0 PUSH1 0x40 MLOAD PUSH32 0x94280D6200000000000000000000000000000000000000000000000000000000 DUP2 MSTORE PUSH1 0x4 ADD PUSH2 0x2EC9 SWAP2 SWAP1 PUSH2 0x428B JUMP JUMPDEST PUSH1 0x40 MLOAD DUP1 SWAP2 SUB SWAP1 REVERT JUMPDEST DUP2 PUSH1 0x1 PUSH1 0x0 DUP7 PUSH20 0xFFFFFFFFFFFFFFFFFFFFFFFFFFFFFFFFFFFFFFFF AND PUSH20 0xFFFFFFFFFFFFFFFFFFFFFFFFFFFFFFFFFFFFFFFF AND DUP2 MSTORE PUSH1 0x20 ADD SWAP1 DUP2 MSTORE PUSH1 0x20 ADD PUSH1 0x0 KECCAK256 PUSH1 0x0 DUP6 PUSH20 0xFFFFFFFFFFFFFFFFFFFFFFFFFFFFFFFFFFFFFFFF AND PUSH20 0xFFFFFFFFFFFFFFFFFFFFFFFFFFFFFFFFFFFFFFFF AND DUP2 MSTORE PUSH1 0x20 ADD SWAP1 DUP2 MSTORE PUSH1 0x20 ADD PUSH1 0x0 KECCAK256 DUP2 SWAP1 SSTORE POP DUP1 ISZERO PUSH2 0x2FBF JUMPI DUP3 PUSH20 0xFFFFFFFFFFFFFFFFFFFFFFFFFFFFFFFFFFFFFFFF AND DUP5 PUSH20 0xFFFFFFFFFFFFFFFFFFFFFFFFFFFFFFFFFFFFFFFF AND PUSH32 0x8C5BE1E5EBEC7D5BD14F71427D1E84F3DD0314C0F7B2291E5B200AC8C7C3B925 DUP5 PUSH1 0x40 MLOAD PUSH2 0x2FB6 SWAP2 SWAP1 PUSH2 0x39F2 JUMP JUMPDEST PUSH1 0x40 MLOAD DUP1 SWAP2 SUB SWAP1 LOG3 JUMPDEST POP POP POP POP JUMP JUMPDEST PUSH1 0x0 PUSH20 0xFFFFFFFFFFFFFFFFFFFFFFFFFFFFFFFFFFFFFFFF AND DUP4 PUSH20 0xFFFFFFFFFFFFFFFFFFFFFFFFFFFFFFFFFFFFFFFF AND SUB PUSH2 0x3017 JUMPI DUP1 PUSH1 0x2 PUSH1 0x0 DUP3 DUP3 SLOAD PUSH2 0x300B SWAP2 SWAP1 PUSH2 0x5498 JUMP JUMPDEST SWAP3 POP POP DUP2 SWAP1 SSTORE POP PUSH2 0x30EA JUMP JUMPDEST PUSH1 0x0 DUP1 PUSH1 0x0 DUP6 PUSH20 0xFFFFFFFFFFFFFFFFFFFFFFFFFFFFFFFFFFFFFFFF AND PUSH20 0xFFFFFFFFFFFFFFFFFFFFFFFFFFFFFFFFFFFFFFFF AND DUP2 MSTORE PUSH1 0x20 ADD SWAP1 DUP2 MSTORE PUSH1 0x20 ADD PUSH1 0x0 KECCAK256 SLOAD SWAP1 POP DUP2 DUP2 LT ISZERO PUSH2 0x30A3 JUMPI DUP4 DUP2 DUP4 PUSH1 0x40 MLOAD PUSH32 0xE450D38C00000000000000000000000000000000000000000000000000000000 DUP2 MSTORE PUSH1 0x4 ADD PUSH2 0x309A SWAP4 SWAP3 SWAP2 SWAP1 PUSH2 0x5792 JUMP JUMPDEST PUSH1 0x40 MLOAD DUP1 SWAP2 SUB SWAP1 REVERT JUMPDEST DUP2 DUP2 SUB PUSH1 0x0 DUP1 DUP7 PUSH20 0xFFFFFFFFFFFFFFFFFFFFFFFFFFFFFFFFFFFFFFFF AND PUSH20 0xFFFFFFFFFFFFFFFFFFFFFFFFFFFFFFFFFFFFFFFF AND DUP2 MSTORE PUSH1 0x20 ADD SWAP1 DUP2 MSTORE PUSH1 0x20 ADD PUSH1 0x0 KECCAK256 DUP2 SWAP1 SSTORE POP POP JUMPDEST PUSH1 0x0 PUSH20 0xFFFFFFFFFFFFFFFFFFFFFFFFFFFFFFFFFFFFFFFF AND DUP3 PUSH20 0xFFFFFFFFFFFFFFFFFFFFFFFFFFFFFFFFFFFFFFFF AND SUB PUSH2 0x3133 JUMPI DUP1 PUSH1 0x2 PUSH1 0x0 DUP3 DUP3 SLOAD SUB SWAP3 POP POP DUP2 SWAP1 SSTORE POP PUSH2 0x3180 JUMP JUMPDEST DUP1 PUSH1 0x0 DUP1 DUP5 PUSH20 0xFFFFFFFFFFFFFFFFFFFFFFFFFFFFFFFFFFFFFFFF AND PUSH20 0xFFFFFFFFFFFFFFFFFFFFFFFFFFFFFFFFFFFFFFFF AND DUP2 MSTORE PUSH1 0x20 ADD SWAP1 DUP2 MSTORE PUSH1 0x20 ADD PUSH1 0x0 KECCAK256 PUSH1 0x0 DUP3 DUP3 SLOAD ADD SWAP3 POP POP DUP2 SWAP1 SSTORE POP JUMPDEST DUP2 PUSH20 0xFFFFFFFFFFFFFFFFFFFFFFFFFFFFFFFFFFFFFFFF AND DUP4 PUSH20 0xFFFFFFFFFFFFFFFFFFFFFFFFFFFFFFFFFFFFFFFF AND PUSH32 0xDDF252AD1BE2C89B69C2B068FC378DAA952BA7F163C4A11628F55A4DF523B3EF DUP4 PUSH1 0x40 MLOAD PUSH2 0x31DD SWAP2 SWAP1 PUSH2 0x39F2 JUMP JUMPDEST PUSH1 0x40 MLOAD DUP1 SWAP2 SUB SWAP1 LOG3 POP POP POP JUMP JUMPDEST PUSH1 0x0 DUP1 PUSH1 0x0 SWAP1 POP PUSH27 0x184F03E93FF9F4DAA797ED6E38ED64BF6A1F010000000000000000 DUP4 LT PUSH2 0x3248 JUMPI PUSH27 0x184F03E93FF9F4DAA797ED6E38ED64BF6A1F010000000000000000 DUP4 DUP2 PUSH2 0x323E JUMPI PUSH2 0x323D PUSH2 0x585D JUMP JUMPDEST JUMPDEST DIV SWAP3 POP PUSH1 0x40 DUP2 ADD SWAP1 POP JUMPDEST PUSH14 0x4EE2D6D415B85ACEF8100000000 DUP4 LT PUSH2 0x3285 JUMPI PUSH14 0x4EE2D6D415B85ACEF8100000000 DUP4 DUP2 PUSH2 0x327B JUMPI PUSH2 0x327A PUSH2 0x585D JUMP JUMPDEST JUMPDEST DIV SWAP3 POP PUSH1 0x20 DUP2 ADD SWAP1 POP JUMPDEST PUSH7 0x2386F26FC10000 DUP4 LT PUSH2 0x32B4 JUMPI PUSH7 0x2386F26FC10000 DUP4 DUP2 PUSH2 0x32AA JUMPI PUSH2 0x32A9 PUSH2 0x585D JUMP JUMPDEST JUMPDEST DIV SWAP3 POP PUSH1 0x10 DUP2 ADD SWAP1 POP JUMPDEST PUSH4 0x5F5E100 DUP4 LT PUSH2 0x32DD JUMPI PUSH4 0x5F5E100 DUP4 DUP2 PUSH2 0x32D3 JUMPI PUSH2 0x32D2 PUSH2 0x585D JUMP JUMPDEST JUMPDEST DIV SWAP3 POP PUSH1 0x8 DUP2 ADD SWAP1 POP JUMPDEST PUSH2 0x2710 DUP4 LT PUSH2 0x3302 JUMPI PUSH2 0x2710 DUP4 DUP2 PUSH2 0x32F8 JUMPI PUSH2 0x32F7 PUSH2 0x585D JUMP JUMPDEST JUMPDEST DIV SWAP3 POP PUSH1 0x4 DUP2 ADD SWAP1 POP JUMPDEST PUSH1 0x64 DUP4 LT PUSH2 0x3325 JUMPI PUSH1 0x64 DUP4 DUP2 PUSH2 0x331B JUMPI PUSH2 0x331A PUSH2 0x585D JUMP JUMPDEST JUMPDEST DIV SWAP3 POP PUSH1 0x2 DUP2 ADD SWAP1 POP JUMPDEST PUSH1 0xA DUP4 LT PUSH2 0x3334 JUMPI PUSH1 0x1 DUP2 ADD SWAP1 POP JUMPDEST DUP1 SWAP2 POP POP SWAP2 SWAP1 POP JUMP JUMPDEST PUSH1 0x0 PUSH20 0xFFFFFFFFFFFFFFFFFFFFFFFFFFFFFFFFFFFFFFFF AND DUP3 PUSH20 0xFFFFFFFFFFFFFFFFFFFFFFFFFFFFFFFFFFFFFFFF AND SUB PUSH2 0x33AF JUMPI PUSH1 0x0 PUSH1 0x40 MLOAD PUSH32 0xEC442F0500000000000000000000000000000000000000000000000000000000 DUP2 MSTORE PUSH1 0x4 ADD PUSH2 0x33A6 SWAP2 SWAP1 PUSH2 0x428B JUMP JUMPDEST PUSH1 0x40 MLOAD DUP1 SWAP2 SUB SWAP1 REVERT JUMPDEST PUSH2 0x33BB PUSH1 0x0 DUP4 DUP4 PUSH2 0x2FC5 JUMP JUMPDEST POP POP JUMP JUMPDEST PUSH1 0x0 DUP1 PUSH1 0x0 PUSH1 0x41 DUP5 MLOAD SUB PUSH2 0x3404 JUMPI PUSH1 0x0 DUP1 PUSH1 0x0 PUSH1 0x20 DUP8 ADD MLOAD SWAP3 POP PUSH1 0x40 DUP8 ADD MLOAD SWAP2 POP PUSH1 0x60 DUP8 ADD MLOAD PUSH1 0x0 BYTE SWAP1 POP PUSH2 0x33F6 DUP9 DUP3 DUP6 DUP6 PUSH2 0x357F JUMP JUMPDEST SWAP6 POP SWAP6 POP SWAP6 POP POP POP POP PUSH2 0x3414 JUMP JUMPDEST PUSH1 0x0 PUSH1 0x2 DUP6 MLOAD PUSH1 0x0 SHL SWAP3 POP SWAP3 POP SWAP3 POP JUMPDEST SWAP3 POP SWAP3 POP SWAP3 JUMP JUMPDEST PUSH1 0x0 PUSH1 0x3 DUP2 GT ISZERO PUSH2 0x342F JUMPI PUSH2 0x342E PUSH2 0x5921 JUMP JUMPDEST JUMPDEST DUP3 PUSH1 0x3 DUP2 GT ISZERO PUSH2 0x3442 JUMPI PUSH2 0x3441 PUSH2 0x5921 JUMP JUMPDEST JUMPDEST SUB ISZERO PUSH2 0x357B JUMPI PUSH1 0x1 PUSH1 0x3 DUP2 GT ISZERO PUSH2 0x345C JUMPI PUSH2 0x345B PUSH2 0x5921 JUMP JUMPDEST JUMPDEST DUP3 PUSH1 0x3 DUP2 GT ISZERO PUSH2 0x346F JUMPI PUSH2 0x346E PUSH2 0x5921 JUMP JUMPDEST JUMPDEST SUB PUSH2 0x34A6 JUMPI PUSH1 0x40 MLOAD PUSH32 0xF645EEDF00000000000000000000000000000000000000000000000000000000 DUP2 MSTORE PUSH1 0x4 ADD PUSH1 0x40 MLOAD DUP1 SWAP2 SUB SWAP1 REVERT JUMPDEST PUSH1 0x2 PUSH1 0x3 DUP2 GT ISZERO PUSH2 0x34BA JUMPI PUSH2 0x34B9 PUSH2 0x5921 JUMP JUMPDEST JUMPDEST DUP3 PUSH1 0x3 DUP2 GT ISZERO PUSH2 0x34CD JUMPI PUSH2 0x34CC PUSH2 0x5921 JUMP JUMPDEST JUMPDEST SUB PUSH2 0x3512 JUMPI DUP1 PUSH1 0x0 SHR PUSH1 0x40 MLOAD PUSH32 0xFCE698F700000000000000000000000000000000000000000000000000000000 DUP2 MSTORE PUSH1 0x4 ADD PUSH2 0x3509 SWAP2 SWAP1 PUSH2 0x39F2 JUMP JUMPDEST PUSH1 0x40 MLOAD DUP1 SWAP2 SUB SWAP1 REVERT JUMPDEST PUSH1 0x3 DUP1 DUP2 GT ISZERO PUSH2 0x3525 JUMPI PUSH2 0x3524 PUSH2 0x5921 JUMP JUMPDEST JUMPDEST DUP3 PUSH1 0x3 DUP2 GT ISZERO PUSH2 0x3538 JUMPI PUSH2 0x3537 PUSH2 0x5921 JUMP JUMPDEST JUMPDEST SUB PUSH2 0x357A JUMPI DUP1 PUSH1 0x40 MLOAD PUSH32 0xD78BCE0C00000000000000000000000000000000000000000000000000000000 DUP2 MSTORE PUSH1 0x4 ADD PUSH2 0x3571 SWAP2 SWAP1 PUSH2 0x40C1 JUMP JUMPDEST PUSH1 0x40 MLOAD DUP1 SWAP2 SUB SWAP1 REVERT JUMPDEST JUMPDEST POP POP JUMP JUMPDEST PUSH1 0x0 DUP1 PUSH1 0x0 PUSH32 0x7FFFFFFFFFFFFFFFFFFFFFFFFFFFFFFF5D576E7357A4501DDFE92F46681B20A0 DUP5 PUSH1 0x0 SHR GT ISZERO PUSH2 0x35BF JUMPI PUSH1 0x0 PUSH1 0x3 DUP6 SWAP3 POP SWAP3 POP SWAP3 POP PUSH2 0x3669 JUMP JUMPDEST PUSH1 0x0 PUSH1 0x1 DUP9 DUP9 DUP9 DUP9 PUSH1 0x40 MLOAD PUSH1 0x0 DUP2 MSTORE PUSH1 0x20 ADD PUSH1 0x40 MSTORE PUSH1 0x40 MLOAD PUSH2 0x35E4 SWAP5 SWAP4 SWAP3 SWAP2 SWAP1 PUSH2 0x5950 JUMP JUMPDEST PUSH1 0x20 PUSH1 0x40 MLOAD PUSH1 0x20 DUP2 SUB SWAP1 DUP1 DUP5 SUB SWAP1 DUP6 GAS STATICCALL ISZERO DUP1 ISZERO PUSH2 0x3606 JUMPI RETURNDATASIZE PUSH1 0x0 DUP1 RETURNDATACOPY RETURNDATASIZE PUSH1 0x0 REVERT JUMPDEST POP POP POP PUSH1 0x20 PUSH1 0x40 MLOAD SUB MLOAD SWAP1 POP PUSH1 0x0 PUSH20 0xFFFFFFFFFFFFFFFFFFFFFFFFFFFFFFFFFFFFFFFF AND DUP2 PUSH20 0xFFFFFFFFFFFFFFFFFFFFFFFFFFFFFFFFFFFFFFFF AND SUB PUSH2 0x365A JUMPI PUSH1 0x0 PUSH1 0x1 PUSH1 0x0 DUP1 SHL SWAP4 POP SWAP4 POP SWAP4 POP POP PUSH2 0x3669 JUMP JUMPDEST DUP1 PUSH1 0x0 DUP1 PUSH1 0x0 SHL SWAP4 POP SWAP4 POP SWAP4 POP POP JUMPDEST SWAP5 POP SWAP5 POP SWAP5 SWAP2 POP POP JUMP JUMPDEST DUP3 DUP1 SLOAD DUP3 DUP3 SSTORE SWAP1 PUSH1 0x0 MSTORE PUSH1 0x20 PUSH1 0x0 KECCAK256 SWAP1 PUSH1 0x6 MUL DUP2 ADD SWAP3 DUP3 ISZERO PUSH2 0x373A JUMPI PUSH1 0x0 MSTORE PUSH1 0x20 PUSH1 0x0 KECCAK256 SWAP2 PUSH1 0x6 MUL DUP3 ADD JUMPDEST DUP3 DUP2 GT ISZERO PUSH2 0x3739 JUMPI DUP3 DUP3 PUSH1 0x0 DUP3 ADD DUP2 PUSH1 0x0 ADD SWAP1 DUP2 PUSH2 0x36BC SWAP2 SWAP1 PUSH2 0x5617 JUMP JUMPDEST POP PUSH1 0x1 DUP3 ADD SLOAD DUP2 PUSH1 0x1 ADD SSTORE PUSH1 0x2 DUP3 ADD DUP2 PUSH1 0x2 ADD SWAP1 DUP2 PUSH2 0x36DB SWAP2 SWAP1 PUSH2 0x5617 JUMP JUMPDEST POP PUSH1 0x3 DUP3 ADD DUP2 PUSH1 0x3 ADD SWAP1 DUP2 PUSH2 0x36F0 SWAP2 SWAP1 PUSH2 0x5617 JUMP JUMPDEST POP PUSH1 0x4 DUP3 ADD SLOAD DUP2 PUSH1 0x4 ADD SSTORE PUSH1 0x5 DUP3 ADD PUSH1 0x0 SWAP1 SLOAD SWAP1 PUSH2 0x100 EXP SWAP1 DIV PUSH1 0xFF AND DUP2 PUSH1 0x5 ADD PUSH1 0x0 PUSH2 0x100 EXP DUP2 SLOAD DUP2 PUSH1 0xFF MUL NOT AND SWAP1 DUP4 ISZERO ISZERO MUL OR SWAP1 SSTORE POP POP POP SWAP2 PUSH1 0x6 ADD SWAP2 SWAP1 PUSH1 0x6 ADD SWAP1 PUSH2 0x369E JUMP JUMPDEST JUMPDEST POP SWAP1 POP PUSH2 0x3747 SWAP2 SWAP1 PUSH2 0x374B JUMP JUMPDEST POP SWAP1 JUMP JUMPDEST JUMPDEST DUP1 DUP3 GT ISZERO PUSH2 0x37B2 JUMPI PUSH1 0x0 DUP1 DUP3 ADD PUSH1 0x0 PUSH2 0x3765 SWAP2 SWAP1 PUSH2 0x37B6 JUMP JUMPDEST PUSH1 0x1 DUP3 ADD PUSH1 0x0 SWAP1 SSTORE PUSH1 0x2 DUP3 ADD PUSH1 0x0 PUSH2 0x377D SWAP2 SWAP1 PUSH2 0x37B6 JUMP JUMPDEST PUSH1 0x3 DUP3 ADD PUSH1 0x0 PUSH2 0x378D SWAP2 SWAP1 PUSH2 0x37B6 JUMP JUMPDEST PUSH1 0x4 DUP3 ADD PUSH1 0x0 SWAP1 SSTORE PUSH1 0x5 DUP3 ADD PUSH1 0x0 PUSH2 0x100 EXP DUP2 SLOAD SWAP1 PUSH1 0xFF MUL NOT AND SWAP1 SSTORE POP PUSH1 0x6 ADD PUSH2 0x374C JUMP JUMPDEST POP SWAP1 JUMP JUMPDEST POP DUP1 SLOAD PUSH2 0x37C2 SWAP1 PUSH2 0x45C9 JUMP JUMPDEST PUSH1 0x0 DUP3 SSTORE DUP1 PUSH1 0x1F LT PUSH2 0x37D4 JUMPI POP PUSH2 0x37F3 JUMP JUMPDEST PUSH1 0x1F ADD PUSH1 0x20 SWAP1 DIV SWAP1 PUSH1 0x0 MSTORE PUSH1 0x20 PUSH1 0x0 KECCAK256 SWAP1 DUP2 ADD SWAP1 PUSH2 0x37F2 SWAP2 SWAP1 PUSH2 0x37F6 JUMP JUMPDEST JUMPDEST POP JUMP JUMPDEST JUMPDEST DUP1 DUP3 GT ISZERO PUSH2 0x380F JUMPI PUSH1 0x0 DUP2 PUSH1 0x0 SWAP1 SSTORE POP PUSH1 0x1 ADD PUSH2 0x37F7 JUMP JUMPDEST POP SWAP1 JUMP JUMPDEST PUSH1 0x0 DUP2 MLOAD SWAP1 POP SWAP2 SWAP1 POP JUMP JUMPDEST PUSH1 0x0 DUP3 DUP3 MSTORE PUSH1 0x20 DUP3 ADD SWAP1 POP SWAP3 SWAP2 POP POP JUMP JUMPDEST PUSH1 0x0 JUMPDEST DUP4 DUP2 LT ISZERO PUSH2 0x384D JUMPI DUP1 DUP3 ADD MLOAD DUP2 DUP5 ADD MSTORE PUSH1 0x20 DUP2 ADD SWAP1 POP PUSH2 0x3832 JUMP JUMPDEST PUSH1 0x0 DUP5 DUP5 ADD MSTORE POP POP POP POP JUMP JUMPDEST PUSH1 0x0 PUSH1 0x1F NOT PUSH1 0x1F DUP4 ADD AND SWAP1 POP SWAP2 SWAP1 POP JUMP JUMPDEST PUSH1 0x0 PUSH2 0x3875 DUP3 PUSH2 0x3813 JUMP JUMPDEST PUSH2 0x387F DUP2 DUP6 PUSH2 0x381E JUMP JUMPDEST SWAP4 POP PUSH2 0x388F DUP2 DUP6 PUSH1 0x20 DUP7 ADD PUSH2 0x382F JUMP JUMPDEST PUSH2 0x3898 DUP2 PUSH2 0x3859 JUMP JUMPDEST DUP5 ADD SWAP2 POP POP SWAP3 SWAP2 POP POP JUMP JUMPDEST PUSH1 0x0 PUSH1 0x20 DUP3 ADD SWAP1 POP DUP2 DUP2 SUB PUSH1 0x0 DUP4 ADD MSTORE PUSH2 0x38BD DUP2 DUP5 PUSH2 0x386A JUMP JUMPDEST SWAP1 POP SWAP3 SWAP2 POP POP JUMP JUMPDEST PUSH1 0x0 PUSH1 0x40 MLOAD SWAP1 POP SWAP1 JUMP JUMPDEST PUSH1 0x0 DUP1 REVERT JUMPDEST PUSH1 0x0 DUP1 REVERT JUMPDEST PUSH1 0x0 PUSH20 0xFFFFFFFFFFFFFFFFFFFFFFFFFFFFFFFFFFFFFFFF DUP3 AND SWAP1 POP SWAP2 SWAP1 POP JUMP JUMPDEST PUSH1 0x0 PUSH2 0x3904 DUP3 PUSH2 0x38D9 JUMP JUMPDEST SWAP1 POP SWAP2 SWAP1 POP JUMP JUMPDEST PUSH2 0x3914 DUP2 PUSH2 0x38F9 JUMP JUMPDEST DUP2 EQ PUSH2 0x391F JUMPI PUSH1 0x0 DUP1 REVERT JUMPDEST POP JUMP JUMPDEST PUSH1 0x0 DUP2 CALLDATALOAD SWAP1 POP PUSH2 0x3931 DUP2 PUSH2 0x390B JUMP JUMPDEST SWAP3 SWAP2 POP POP JUMP JUMPDEST PUSH1 0x0 DUP2 SWAP1 POP SWAP2 SWAP1 POP JUMP JUMPDEST PUSH2 0x394A DUP2 PUSH2 0x3937 JUMP JUMPDEST DUP2 EQ PUSH2 0x3955 JUMPI PUSH1 0x0 DUP1 REVERT JUMPDEST POP JUMP JUMPDEST PUSH1 0x0 DUP2 CALLDATALOAD SWAP1 POP PUSH2 0x3967 DUP2 PUSH2 0x3941 JUMP JUMPDEST SWAP3 SWAP2 POP POP JUMP JUMPDEST PUSH1 0x0 DUP1 PUSH1 0x40 DUP4 DUP6 SUB SLT ISZERO PUSH2 0x3984 JUMPI PUSH2 0x3983 PUSH2 0x38CF JUMP JUMPDEST JUMPDEST PUSH1 0x0 PUSH2 0x3992 DUP6 DUP3 DUP7 ADD PUSH2 0x3922 JUMP JUMPDEST SWAP3 POP POP PUSH1 0x20 PUSH2 0x39A3 DUP6 DUP3 DUP7 ADD PUSH2 0x3958 JUMP JUMPDEST SWAP2 POP POP SWAP3 POP SWAP3 SWAP1 POP JUMP JUMPDEST PUSH1 0x0 DUP2 ISZERO ISZERO SWAP1 POP SWAP2 SWAP1 POP JUMP JUMPDEST PUSH2 0x39C2 DUP2 PUSH2 0x39AD JUMP JUMPDEST DUP3 MSTORE POP POP JUMP JUMPDEST PUSH1 0x0 PUSH1 0x20 DUP3 ADD SWAP1 POP PUSH2 0x39DD PUSH1 0x0 DUP4 ADD DUP5 PUSH2 0x39B9 JUMP JUMPDEST SWAP3 SWAP2 POP POP JUMP JUMPDEST PUSH2 0x39EC DUP2 PUSH2 0x3937 JUMP JUMPDEST DUP3 MSTORE POP POP JUMP JUMPDEST PUSH1 0x0 PUSH1 0x20 DUP3 ADD SWAP1 POP PUSH2 0x3A07 PUSH1 0x0 DUP4 ADD DUP5 PUSH2 0x39E3 JUMP JUMPDEST SWAP3 SWAP2 POP POP JUMP JUMPDEST PUSH1 0x0 DUP2 MLOAD SWAP1 POP SWAP2 SWAP1 POP JUMP JUMPDEST PUSH1 0x0 DUP3 DUP3 MSTORE PUSH1 0x20 DUP3 ADD SWAP1 POP SWAP3 SWAP2 POP POP JUMP JUMPDEST PUSH1 0x0 DUP2 SWAP1 POP PUSH1 0x20 DUP3 ADD SWAP1 POP SWAP2 SWAP1 POP JUMP JUMPDEST PUSH1 0x0 DUP3 DUP3 MSTORE PUSH1 0x20 DUP3 ADD SWAP1 POP SWAP3 SWAP2 POP POP JUMP JUMPDEST PUSH1 0x0 PUSH2 0x3A55 DUP3 PUSH2 0x3813 JUMP JUMPDEST PUSH2 0x3A5F DUP2 DUP6 PUSH2 0x3A39 JUMP JUMPDEST SWAP4 POP PUSH2 0x3A6F DUP2 DUP6 PUSH1 0x20 DUP7 ADD PUSH2 0x382F JUMP JUMPDEST PUSH2 0x3A78 DUP2 PUSH2 0x3859 JUMP JUMPDEST DUP5 ADD SWAP2 POP POP SWAP3 SWAP2 POP POP JUMP JUMPDEST PUSH1 0x0 DUP2 MLOAD SWAP1 POP SWAP2 SWAP1 POP JUMP JUMPDEST PUSH1 0x0 DUP3 DUP3 MSTORE PUSH1 0x20 DUP3 ADD SWAP1 POP SWAP3 SWAP2 POP POP JUMP JUMPDEST PUSH1 0x0 DUP2 SWAP1 POP PUSH1 0x20 DUP3 ADD SWAP1 POP SWAP2 SWAP1 POP JUMP JUMPDEST PUSH2 0x3AB8 DUP2 PUSH2 0x3937 JUMP JUMPDEST DUP3 MSTORE POP POP JUMP JUMPDEST PUSH2 0x3AC7 DUP2 PUSH2 0x39AD JUMP JUMPDEST DUP3 MSTORE POP POP JUMP JUMPDEST PUSH1 0x0 PUSH1 0xC0 DUP4 ADD PUSH1 0x0 DUP4 ADD MLOAD DUP5 DUP3 SUB PUSH1 0x0 DUP7 ADD MSTORE PUSH2 0x3AEA DUP3 DUP3 PUSH2 0x3A4A JUMP JUMPDEST SWAP2 POP POP PUSH1 0x20 DUP4 ADD MLOAD PUSH2 0x3AFF PUSH1 0x20 DUP7 ADD DUP3 PUSH2 0x3AAF JUMP JUMPDEST POP PUSH1 0x40 DUP4 ADD MLOAD DUP5 DUP3 SUB PUSH1 0x40 DUP7 ADD MSTORE PUSH2 0x3B17 DUP3 DUP3 PUSH2 0x3A4A JUMP JUMPDEST SWAP2 POP POP PUSH1 0x60 DUP4 ADD MLOAD DUP5 DUP3 SUB PUSH1 0x60 DUP7 ADD MSTORE PUSH2 0x3B31 DUP3 DUP3 PUSH2 0x3A4A JUMP JUMPDEST SWAP2 POP POP PUSH1 0x80 DUP4 ADD MLOAD PUSH2 0x3B46 PUSH1 0x80 DUP7 ADD DUP3 PUSH2 0x3AAF JUMP JUMPDEST POP PUSH1 0xA0 DUP4 ADD MLOAD PUSH2 0x3B59 PUSH1 0xA0 DUP7 ADD DUP3 PUSH2 0x3ABE JUMP JUMPDEST POP DUP1 SWAP2 POP POP SWAP3 SWAP2 POP POP JUMP JUMPDEST PUSH1 0x0 PUSH2 0x3B70 DUP4 DUP4 PUSH2 0x3ACD JUMP JUMPDEST SWAP1 POP SWAP3 SWAP2 POP POP JUMP JUMPDEST PUSH1 0x0 PUSH1 0x20 DUP3 ADD SWAP1 POP SWAP2 SWAP1 POP JUMP JUMPDEST PUSH1 0x0 PUSH2 0x3B90 DUP3 PUSH2 0x3A83 JUMP JUMPDEST PUSH2 0x3B9A DUP2 DUP6 PUSH2 0x3A8E JUMP JUMPDEST SWAP4 POP DUP4 PUSH1 0x20 DUP3 MUL DUP6 ADD PUSH2 0x3BAC DUP6 PUSH2 0x3A9F JUMP JUMPDEST DUP1 PUSH1 0x0 JUMPDEST DUP6 DUP2 LT ISZERO PUSH2 0x3BE8 JUMPI DUP5 DUP5 SUB DUP10 MSTORE DUP2 MLOAD PUSH2 0x3BC9 DUP6 DUP3 PUSH2 0x3B64 JUMP JUMPDEST SWAP5 POP PUSH2 0x3BD4 DUP4 PUSH2 0x3B78 JUMP JUMPDEST SWAP3 POP PUSH1 0x20 DUP11 ADD SWAP10 POP POP PUSH1 0x1 DUP2 ADD SWAP1 POP PUSH2 0x3BB0 JUMP JUMPDEST POP DUP3 SWAP8 POP DUP8 SWAP6 POP POP POP POP POP POP SWAP3 SWAP2 POP POP JUMP JUMPDEST PUSH1 0x0 PUSH1 0x40 DUP4 ADD PUSH1 0x0 DUP4 ADD MLOAD DUP5 DUP3 SUB PUSH1 0x0 DUP7 ADD MSTORE PUSH2 0x3C17 DUP3 DUP3 PUSH2 0x3A4A JUMP JUMPDEST SWAP2 POP POP PUSH1 0x20 DUP4 ADD MLOAD DUP5 DUP3 SUB PUSH1 0x20 DUP7 ADD MSTORE PUSH2 0x3C31 DUP3 DUP3 PUSH2 0x3B85 JUMP JUMPDEST SWAP2 POP POP DUP1 SWAP2 POP POP SWAP3 SWAP2 POP POP JUMP JUMPDEST PUSH1 0x0 PUSH2 0x3C4A DUP4 DUP4 PUSH2 0x3BFA JUMP JUMPDEST SWAP1 POP SWAP3 SWAP2 POP POP JUMP JUMPDEST PUSH1 0x0 PUSH1 0x20 DUP3 ADD SWAP1 POP SWAP2 SWAP1 POP JUMP JUMPDEST PUSH1 0x0 PUSH2 0x3C6A DUP3 PUSH2 0x3A0D JUMP JUMPDEST PUSH2 0x3C74 DUP2 DUP6 PUSH2 0x3A18 JUMP JUMPDEST SWAP4 POP DUP4 PUSH1 0x20 DUP3 MUL DUP6 ADD PUSH2 0x3C86 DUP6 PUSH2 0x3A29 JUMP JUMPDEST DUP1 PUSH1 0x0 JUMPDEST DUP6 DUP2 LT ISZERO PUSH2 0x3CC2 JUMPI DUP5 DUP5 SUB DUP10 MSTORE DUP2 MLOAD PUSH2 0x3CA3 DUP6 DUP3 PUSH2 0x3C3E JUMP JUMPDEST SWAP5 POP PUSH2 0x3CAE DUP4 PUSH2 0x3C52 JUMP JUMPDEST SWAP3 POP PUSH1 0x20 DUP11 ADD SWAP10 POP POP PUSH1 0x1 DUP2 ADD SWAP1 POP PUSH2 0x3C8A JUMP JUMPDEST POP DUP3 SWAP8 POP DUP8 SWAP6 POP POP POP POP POP POP SWAP3 SWAP2 POP POP JUMP JUMPDEST PUSH1 0x0 PUSH1 0x20 DUP3 ADD SWAP1 POP DUP2 DUP2 SUB PUSH1 0x0 DUP4 ADD MSTORE PUSH2 0x3CEE DUP2 DUP5 PUSH2 0x3C5F JUMP JUMPDEST SWAP1 POP SWAP3 SWAP2 POP POP JUMP JUMPDEST PUSH1 0x0 DUP1 REVERT JUMPDEST PUSH1 0x0 DUP1 REVERT JUMPDEST PUSH32 0x4E487B7100000000000000000000000000000000000000000000000000000000 PUSH1 0x0 MSTORE PUSH1 0x41 PUSH1 0x4 MSTORE PUSH1 0x24 PUSH1 0x0 REVERT JUMPDEST PUSH2 0x3D38 DUP3 PUSH2 0x3859 JUMP JUMPDEST DUP2 ADD DUP2 DUP2 LT PUSH8 0xFFFFFFFFFFFFFFFF DUP3 GT OR ISZERO PUSH2 0x3D57 JUMPI PUSH2 0x3D56 PUSH2 0x3D00 JUMP JUMPDEST JUMPDEST DUP1 PUSH1 0x40 MSTORE POP POP POP JUMP JUMPDEST PUSH1 0x0 PUSH2 0x3D6A PUSH2 0x38C5 JUMP JUMPDEST SWAP1 POP PUSH2 0x3D76 DUP3 DUP3 PUSH2 0x3D2F JUMP JUMPDEST SWAP2 SWAP1 POP JUMP JUMPDEST PUSH1 0x0 PUSH8 0xFFFFFFFFFFFFFFFF DUP3 GT ISZERO PUSH2 0x3D96 JUMPI PUSH2 0x3D95 PUSH2 0x3D00 JUMP JUMPDEST JUMPDEST PUSH2 0x3D9F DUP3 PUSH2 0x3859 JUMP JUMPDEST SWAP1 POP PUSH1 0x20 DUP2 ADD SWAP1 POP SWAP2 SWAP1 POP JUMP JUMPDEST DUP3 DUP2 DUP4 CALLDATACOPY PUSH1 0x0 DUP4 DUP4 ADD MSTORE POP POP POP JUMP JUMPDEST PUSH1 0x0 PUSH2 0x3DCE PUSH2 0x3DC9 DUP5 PUSH2 0x3D7B JUMP JUMPDEST PUSH2 0x3D60 JUMP JUMPDEST SWAP1 POP DUP3 DUP2 MSTORE PUSH1 0x20 DUP2 ADD DUP5 DUP5 DUP5 ADD GT ISZERO PUSH2 0x3DEA JUMPI PUSH2 0x3DE9 PUSH2 0x3CFB JUMP JUMPDEST JUMPDEST PUSH2 0x3DF5 DUP5 DUP3 DUP6 PUSH2 0x3DAC JUMP JUMPDEST POP SWAP4 SWAP3 POP POP POP JUMP JUMPDEST PUSH1 0x0 DUP3 PUSH1 0x1F DUP4 ADD SLT PUSH2 0x3E12 JUMPI PUSH2 0x3E11 PUSH2 0x3CF6 JUMP JUMPDEST JUMPDEST DUP2 CALLDATALOAD PUSH2 0x3E22 DUP5 DUP3 PUSH1 0x20 DUP7 ADD PUSH2 0x3DBB JUMP JUMPDEST SWAP2 POP POP SWAP3 SWAP2 POP POP JUMP JUMPDEST PUSH1 0x0 PUSH1 0x20 DUP3 DUP5 SUB SLT ISZERO PUSH2 0x3E41 JUMPI PUSH2 0x3E40 PUSH2 0x38CF JUMP JUMPDEST JUMPDEST PUSH1 0x0 DUP3 ADD CALLDATALOAD PUSH8 0xFFFFFFFFFFFFFFFF DUP2 GT ISZERO PUSH2 0x3E5F JUMPI PUSH2 0x3E5E PUSH2 0x38D4 JUMP JUMPDEST JUMPDEST PUSH2 0x3E6B DUP5 DUP3 DUP6 ADD PUSH2 0x3DFD JUMP JUMPDEST SWAP2 POP POP SWAP3 SWAP2 POP POP JUMP JUMPDEST PUSH1 0x0 PUSH1 0xC0 DUP3 ADD SWAP1 POP DUP2 DUP2 SUB PUSH1 0x0 DUP4 ADD MSTORE PUSH2 0x3E8E DUP2 DUP10 PUSH2 0x386A JUMP JUMPDEST SWAP1 POP PUSH2 0x3E9D PUSH1 0x20 DUP4 ADD DUP9 PUSH2 0x39E3 JUMP JUMPDEST DUP2 DUP2 SUB PUSH1 0x40 DUP4 ADD MSTORE PUSH2 0x3EAF DUP2 DUP8 PUSH2 0x386A JUMP JUMPDEST SWAP1 POP DUP2 DUP2 SUB PUSH1 0x60 DUP4 ADD MSTORE PUSH2 0x3EC3 DUP2 DUP7 PUSH2 0x386A JUMP JUMPDEST SWAP1 POP PUSH2 0x3ED2 PUSH1 0x80 DUP4 ADD DUP6 PUSH2 0x39E3 JUMP JUMPDEST PUSH2 0x3EDF PUSH1 0xA0 DUP4 ADD DUP5 PUSH2 0x39B9 JUMP JUMPDEST SWAP8 SWAP7 POP POP POP POP POP POP POP JUMP JUMPDEST PUSH1 0x0 DUP1 PUSH1 0x0 PUSH1 0x60 DUP5 DUP7 SUB SLT ISZERO PUSH2 0x3F03 JUMPI PUSH2 0x3F02 PUSH2 0x38CF JUMP JUMPDEST JUMPDEST PUSH1 0x0 PUSH2 0x3F11 DUP7 DUP3 DUP8 ADD PUSH2 0x3922 JUMP JUMPDEST SWAP4 POP POP PUSH1 0x20 PUSH2 0x3F22 DUP7 DUP3 DUP8 ADD PUSH2 0x3922 JUMP JUMPDEST SWAP3 POP POP PUSH1 0x40 PUSH2 0x3F33 DUP7 DUP3 DUP8 ADD PUSH2 0x3958 JUMP JUMPDEST SWAP2 POP POP SWAP3 POP SWAP3 POP SWAP3 JUMP JUMPDEST PUSH1 0x0 PUSH1 0xFF DUP3 AND SWAP1 POP SWAP2 SWAP1 POP JUMP JUMPDEST PUSH2 0x3F53 DUP2 PUSH2 0x3F3D JUMP JUMPDEST DUP3 MSTORE POP POP JUMP JUMPDEST PUSH1 0x0 PUSH1 0x20 DUP3 ADD SWAP1 POP PUSH2 0x3F6E PUSH1 0x0 DUP4 ADD DUP5 PUSH2 0x3F4A JUMP JUMPDEST SWAP3 SWAP2 POP POP JUMP JUMPDEST PUSH1 0x0 PUSH1 0x80 DUP3 ADD SWAP1 POP DUP2 DUP2 SUB PUSH1 0x0 DUP4 ADD MSTORE PUSH2 0x3F8E DUP2 DUP8 PUSH2 0x386A JUMP JUMPDEST SWAP1 POP PUSH2 0x3F9D PUSH1 0x20 DUP4 ADD DUP7 PUSH2 0x39E3 JUMP JUMPDEST DUP2 DUP2 SUB PUSH1 0x40 DUP4 ADD MSTORE PUSH2 0x3FAF DUP2 DUP6 PUSH2 0x386A JUMP JUMPDEST SWAP1 POP PUSH2 0x3FBE PUSH1 0x60 DUP4 ADD DUP5 PUSH2 0x39B9 JUMP JUMPDEST SWAP6 SWAP5 POP POP POP POP POP JUMP JUMPDEST PUSH1 0x0 DUP1 PUSH1 0x0 DUP1 PUSH1 0x0 DUP1 PUSH1 0xC0 DUP8 DUP10 SUB SLT ISZERO PUSH2 0x3FE4 JUMPI PUSH2 0x3FE3 PUSH2 0x38CF JUMP JUMPDEST JUMPDEST PUSH1 0x0 PUSH2 0x3FF2 DUP10 DUP3 DUP11 ADD PUSH2 0x3922 JUMP JUMPDEST SWAP7 POP POP PUSH1 0x20 DUP8 ADD CALLDATALOAD PUSH8 0xFFFFFFFFFFFFFFFF DUP2 GT ISZERO PUSH2 0x4013 JUMPI PUSH2 0x4012 PUSH2 0x38D4 JUMP JUMPDEST JUMPDEST PUSH2 0x401F DUP10 DUP3 DUP11 ADD PUSH2 0x3DFD JUMP JUMPDEST SWAP6 POP POP PUSH1 0x40 DUP8 ADD CALLDATALOAD PUSH8 0xFFFFFFFFFFFFFFFF DUP2 GT ISZERO PUSH2 0x4040 JUMPI PUSH2 0x403F PUSH2 0x38D4 JUMP JUMPDEST JUMPDEST PUSH2 0x404C DUP10 DUP3 DUP11 ADD PUSH2 0x3DFD JUMP JUMPDEST SWAP5 POP POP PUSH1 0x60 DUP8 ADD CALLDATALOAD PUSH8 0xFFFFFFFFFFFFFFFF DUP2 GT ISZERO PUSH2 0x406D JUMPI PUSH2 0x406C PUSH2 0x38D4 JUMP JUMPDEST JUMPDEST PUSH2 0x4079 DUP10 DUP3 DUP11 ADD PUSH2 0x3DFD JUMP JUMPDEST SWAP4 POP POP PUSH1 0x80 PUSH2 0x408A DUP10 DUP3 DUP11 ADD PUSH2 0x3958 JUMP JUMPDEST SWAP3 POP POP PUSH1 0xA0 PUSH2 0x409B DUP10 DUP3 DUP11 ADD PUSH2 0x3958 JUMP JUMPDEST SWAP2 POP POP SWAP3 SWAP6 POP SWAP3 SWAP6 POP SWAP3 SWAP6 JUMP JUMPDEST PUSH1 0x0 DUP2 SWAP1 POP SWAP2 SWAP1 POP JUMP JUMPDEST PUSH2 0x40BB DUP2 PUSH2 0x40A8 JUMP JUMPDEST DUP3 MSTORE POP POP JUMP JUMPDEST PUSH1 0x0 PUSH1 0x20 DUP3 ADD SWAP1 POP PUSH2 0x40D6 PUSH1 0x0 DUP4 ADD DUP5 PUSH2 0x40B2 JUMP JUMPDEST SWAP3 SWAP2 POP POP JUMP JUMPDEST PUSH1 0x0 DUP1 PUSH1 0x0 PUSH1 0x60 DUP5 DUP7 SUB SLT ISZERO PUSH2 0x40F5 JUMPI PUSH2 0x40F4 PUSH2 0x38CF JUMP JUMPDEST JUMPDEST PUSH1 0x0 DUP5 ADD CALLDATALOAD PUSH8 0xFFFFFFFFFFFFFFFF DUP2 GT ISZERO PUSH2 0x4113 JUMPI PUSH2 0x4112 PUSH2 0x38D4 JUMP JUMPDEST JUMPDEST PUSH2 0x411F DUP7 DUP3 DUP8 ADD PUSH2 0x3DFD JUMP JUMPDEST SWAP4 POP POP PUSH1 0x20 PUSH2 0x4130 DUP7 DUP3 DUP8 ADD PUSH2 0x3958 JUMP JUMPDEST SWAP3 POP POP PUSH1 0x40 DUP5 ADD CALLDATALOAD PUSH8 0xFFFFFFFFFFFFFFFF DUP2 GT ISZERO PUSH2 0x4151 JUMPI PUSH2 0x4150 PUSH2 0x38D4 JUMP JUMPDEST JUMPDEST PUSH2 0x415D DUP7 DUP3 DUP8 ADD PUSH2 0x3DFD JUMP JUMPDEST SWAP2 POP POP SWAP3 POP SWAP3 POP SWAP3 JUMP JUMPDEST PUSH1 0x0 PUSH1 0x20 DUP3 DUP5 SUB SLT ISZERO PUSH2 0x417D JUMPI PUSH2 0x417C PUSH2 0x38CF JUMP JUMPDEST JUMPDEST PUSH1 0x0 PUSH2 0x418B DUP5 DUP3 DUP6 ADD PUSH2 0x3922 JUMP JUMPDEST SWAP2 POP POP SWAP3 SWAP2 POP POP JUMP JUMPDEST PUSH1 0x0 DUP1 PUSH1 0x0 DUP1 PUSH1 0x80 DUP6 DUP8 SUB SLT ISZERO PUSH2 0x41AE JUMPI PUSH2 0x41AD PUSH2 0x38CF JUMP JUMPDEST JUMPDEST PUSH1 0x0 DUP6 ADD CALLDATALOAD PUSH8 0xFFFFFFFFFFFFFFFF DUP2 GT ISZERO PUSH2 0x41CC JUMPI PUSH2 0x41CB PUSH2 0x38D4 JUMP JUMPDEST JUMPDEST PUSH2 0x41D8 DUP8 DUP3 DUP9 ADD PUSH2 0x3DFD JUMP JUMPDEST SWAP5 POP POP PUSH1 0x20 PUSH2 0x41E9 DUP8 DUP3 DUP9 ADD PUSH2 0x3958 JUMP JUMPDEST SWAP4 POP POP PUSH1 0x40 DUP6 ADD CALLDATALOAD PUSH8 0xFFFFFFFFFFFFFFFF DUP2 GT ISZERO PUSH2 0x420A JUMPI PUSH2 0x4209 PUSH2 0x38D4 JUMP JUMPDEST JUMPDEST PUSH2 0x4216 DUP8 DUP3 DUP9 ADD PUSH2 0x3DFD JUMP JUMPDEST SWAP3 POP POP PUSH1 0x60 DUP6 ADD CALLDATALOAD PUSH8 0xFFFFFFFFFFFFFFFF DUP2 GT ISZERO PUSH2 0x4237 JUMPI PUSH2 0x4236 PUSH2 0x38D4 JUMP JUMPDEST JUMPDEST PUSH2 0x4243 DUP8 DUP3 DUP9 ADD PUSH2 0x3DFD JUMP JUMPDEST SWAP2 POP POP SWAP3 SWAP6 SWAP2 SWAP5 POP SWAP3 POP JUMP JUMPDEST PUSH1 0x0 PUSH1 0x20 DUP3 DUP5 SUB SLT ISZERO PUSH2 0x4265 JUMPI PUSH2 0x4264 PUSH2 0x38CF JUMP JUMPDEST JUMPDEST PUSH1 0x0 PUSH2 0x4273 DUP5 DUP3 DUP6 ADD PUSH2 0x3958 JUMP JUMPDEST SWAP2 POP POP SWAP3 SWAP2 POP POP JUMP JUMPDEST PUSH2 0x4285 DUP2 PUSH2 0x38F9 JUMP JUMPDEST DUP3 MSTORE POP POP JUMP JUMPDEST PUSH1 0x0 PUSH1 0x20 DUP3 ADD SWAP1 POP PUSH2 0x42A0 PUSH1 0x0 DUP4 ADD DUP5 PUSH2 0x427C JUMP JUMPDEST SWAP3 SWAP2 POP POP JUMP JUMPDEST PUSH1 0x0 DUP1 PUSH1 0x40 DUP4 DUP6 SUB SLT ISZERO PUSH2 0x42BD JUMPI PUSH2 0x42BC PUSH2 0x38CF JUMP JUMPDEST JUMPDEST PUSH1 0x0 DUP4 ADD CALLDATALOAD PUSH8 0xFFFFFFFFFFFFFFFF DUP2 GT ISZERO PUSH2 0x42DB JUMPI PUSH2 0x42DA PUSH2 0x38D4 JUMP JUMPDEST JUMPDEST PUSH2 0x42E7 DUP6 DUP3 DUP7 ADD PUSH2 0x3DFD JUMP JUMPDEST SWAP3 POP POP PUSH1 0x20 PUSH2 0x42F8 DUP6 DUP3 DUP7 ADD PUSH2 0x3958 JUMP JUMPDEST SWAP2 POP POP SWAP3 POP SWAP3 SWAP1 POP JUMP JUMPDEST PUSH1 0x0 PUSH8 0xFFFFFFFFFFFFFFFF DUP3 GT ISZERO PUSH2 0x431D JUMPI PUSH2 0x431C PUSH2 0x3D00 JUMP JUMPDEST JUMPDEST PUSH1 0x20 DUP3 MUL SWAP1 POP PUSH1 0x20 DUP2 ADD SWAP1 POP SWAP2 SWAP1 POP JUMP JUMPDEST PUSH1 0x0 DUP1 REVERT JUMPDEST PUSH1 0x0 PUSH2 0x4346 PUSH2 0x4341 DUP5 PUSH2 0x4302 JUMP JUMPDEST PUSH2 0x3D60 JUMP JUMPDEST SWAP1 POP DUP1 DUP4 DUP3 MSTORE PUSH1 0x20 DUP3 ADD SWAP1 POP PUSH1 0x20 DUP5 MUL DUP4 ADD DUP6 DUP2 GT ISZERO PUSH2 0x4369 JUMPI PUSH2 0x4368 PUSH2 0x432E JUMP JUMPDEST JUMPDEST DUP4 JUMPDEST DUP2 DUP2 LT ISZERO PUSH2 0x43B0 JUMPI DUP1 CALLDATALOAD PUSH8 0xFFFFFFFFFFFFFFFF DUP2 GT ISZERO PUSH2 0x438E JUMPI PUSH2 0x438D PUSH2 0x3CF6 JUMP JUMPDEST JUMPDEST DUP1 DUP7 ADD PUSH2 0x439B DUP10 DUP3 PUSH2 0x3DFD JUMP JUMPDEST DUP6 MSTORE PUSH1 0x20 DUP6 ADD SWAP5 POP POP POP PUSH1 0x20 DUP2 ADD SWAP1 POP PUSH2 0x436B JUMP JUMPDEST POP POP POP SWAP4 SWAP3 POP POP POP JUMP JUMPDEST PUSH1 0x0 DUP3 PUSH1 0x1F DUP4 ADD SLT PUSH2 0x43CF JUMPI PUSH2 0x43CE PUSH2 0x3CF6 JUMP JUMPDEST JUMPDEST DUP2 CALLDATALOAD PUSH2 0x43DF DUP5 DUP3 PUSH1 0x20 DUP7 ADD PUSH2 0x4333 JUMP JUMPDEST SWAP2 POP POP SWAP3 SWAP2 POP POP JUMP JUMPDEST PUSH1 0x0 PUSH1 0x20 DUP3 DUP5 SUB SLT ISZERO PUSH2 0x43FE JUMPI PUSH2 0x43FD PUSH2 0x38CF JUMP JUMPDEST JUMPDEST PUSH1 0x0 DUP3 ADD CALLDATALOAD PUSH8 0xFFFFFFFFFFFFFFFF DUP2 GT ISZERO PUSH2 0x441C JUMPI PUSH2 0x441B PUSH2 0x38D4 JUMP JUMPDEST JUMPDEST PUSH2 0x4428 DUP5 DUP3 DUP6 ADD PUSH2 0x43BA JUMP JUMPDEST SWAP2 POP POP SWAP3 SWAP2 POP POP JUMP JUMPDEST PUSH2 0x443A DUP2 PUSH2 0x40A8 JUMP JUMPDEST DUP2 EQ PUSH2 0x4445 JUMPI PUSH1 0x0 DUP1 REVERT JUMPDEST POP JUMP JUMPDEST PUSH1 0x0 DUP2 CALLDATALOAD SWAP1 POP PUSH2 0x4457 DUP2 PUSH2 0x4431 JUMP JUMPDEST SWAP3 SWAP2 POP POP JUMP JUMPDEST PUSH1 0x0 PUSH8 0xFFFFFFFFFFFFFFFF DUP3 GT ISZERO PUSH2 0x4478 JUMPI PUSH2 0x4477 PUSH2 0x3D00 JUMP JUMPDEST JUMPDEST PUSH2 0x4481 DUP3 PUSH2 0x3859 JUMP JUMPDEST SWAP1 POP PUSH1 0x20 DUP2 ADD SWAP1 POP SWAP2 SWAP1 POP JUMP JUMPDEST PUSH1 0x0 PUSH2 0x44A1 PUSH2 0x449C DUP5 PUSH2 0x445D JUMP JUMPDEST PUSH2 0x3D60 JUMP JUMPDEST SWAP1 POP DUP3 DUP2 MSTORE PUSH1 0x20 DUP2 ADD DUP5 DUP5 DUP5 ADD GT ISZERO PUSH2 0x44BD JUMPI PUSH2 0x44BC PUSH2 0x3CFB JUMP JUMPDEST JUMPDEST PUSH2 0x44C8 DUP5 DUP3 DUP6 PUSH2 0x3DAC JUMP JUMPDEST POP SWAP4 SWAP3 POP POP POP JUMP JUMPDEST PUSH1 0x0 DUP3 PUSH1 0x1F DUP4 ADD SLT PUSH2 0x44E5 JUMPI PUSH2 0x44E4 PUSH2 0x3CF6 JUMP JUMPDEST JUMPDEST DUP2 CALLDATALOAD PUSH2 0x44F5 DUP5 DUP3 PUSH1 0x20 DUP7 ADD PUSH2 0x448E JUMP JUMPDEST SWAP2 POP POP SWAP3 SWAP2 POP POP JUMP JUMPDEST PUSH1 0x0 DUP1 PUSH1 0x40 DUP4 DUP6 SUB SLT ISZERO PUSH2 0x4515 JUMPI PUSH2 0x4514 PUSH2 0x38CF JUMP JUMPDEST JUMPDEST PUSH1 0x0 PUSH2 0x4523 DUP6 DUP3 DUP7 ADD PUSH2 0x4448 JUMP JUMPDEST SWAP3 POP POP PUSH1 0x20 DUP4 ADD CALLDATALOAD PUSH8 0xFFFFFFFFFFFFFFFF DUP2 GT ISZERO PUSH2 0x4544 JUMPI PUSH2 0x4543 PUSH2 0x38D4 JUMP JUMPDEST JUMPDEST PUSH2 0x4550 DUP6 DUP3 DUP7 ADD PUSH2 0x44D0 JUMP JUMPDEST SWAP2 POP POP SWAP3 POP SWAP3 SWAP1 POP JUMP JUMPDEST PUSH1 0x0 DUP1 PUSH1 0x40 DUP4 DUP6 SUB SLT ISZERO PUSH2 0x4571 JUMPI PUSH2 0x4570 PUSH2 0x38CF JUMP JUMPDEST JUMPDEST PUSH1 0x0 PUSH2 0x457F DUP6 DUP3 DUP7 ADD PUSH2 0x3922 JUMP JUMPDEST SWAP3 POP POP PUSH1 0x20 PUSH2 0x4590 DUP6 DUP3 DUP7 ADD PUSH2 0x3922 JUMP JUMPDEST SWAP2 POP POP SWAP3 POP SWAP3 SWAP1 POP JUMP JUMPDEST PUSH32 0x4E487B7100000000000000000000000000000000000000000000000000000000 PUSH1 0x0 MSTORE PUSH1 0x22 PUSH1 0x4 MSTORE PUSH1 0x24 PUSH1 0x0 REVERT JUMPDEST PUSH1 0x0 PUSH1 0x2 DUP3 DIV SWAP1 POP PUSH1 0x1 DUP3 AND DUP1 PUSH2 0x45E1 JUMPI PUSH1 0x7F DUP3 AND SWAP2 POP JUMPDEST PUSH1 0x20 DUP3 LT DUP2 SUB PUSH2 0x45F4 JUMPI PUSH2 0x45F3 PUSH2 0x459A JUMP JUMPDEST JUMPDEST POP SWAP2 SWAP1 POP JUMP JUMPDEST PUSH32 0x596F7520617265206E6F7420746865206F776E65722100000000000000000000 PUSH1 0x0 DUP3 ADD MSTORE POP JUMP JUMPDEST PUSH1 0x0 PUSH2 0x4630 PUSH1 0x16 DUP4 PUSH2 0x381E JUMP JUMPDEST SWAP2 POP PUSH2 0x463B DUP3 PUSH2 0x45FA JUMP JUMPDEST PUSH1 0x20 DUP3 ADD SWAP1 POP SWAP2 SWAP1 POP JUMP JUMPDEST PUSH1 0x0 PUSH1 0x20 DUP3 ADD SWAP1 POP DUP2 DUP2 SUB PUSH1 0x0 DUP4 ADD MSTORE PUSH2 0x465F DUP2 PUSH2 0x4623 JUMP JUMPDEST SWAP1 POP SWAP2 SWAP1 POP JUMP JUMPDEST PUSH32 0x526567697374726174696F6E2068617320616C72656164792073746172746564 PUSH1 0x0 DUP3 ADD MSTORE PUSH32 0x2E00000000000000000000000000000000000000000000000000000000000000 PUSH1 0x20 DUP3 ADD MSTORE POP JUMP JUMPDEST PUSH1 0x0 PUSH2 0x46C2 PUSH1 0x21 DUP4 PUSH2 0x381E JUMP JUMPDEST SWAP2 POP PUSH2 0x46CD DUP3 PUSH2 0x4666 JUMP JUMPDEST PUSH1 0x40 DUP3 ADD SWAP1 POP SWAP2 SWAP1 POP JUMP JUMPDEST PUSH1 0x0 PUSH1 0x20 DUP3 ADD SWAP1 POP DUP2 DUP2 SUB PUSH1 0x0 DUP4 ADD MSTORE PUSH2 0x46F1 DUP2 PUSH2 0x46B5 JUMP JUMPDEST SWAP1 POP SWAP2 SWAP1 POP JUMP JUMPDEST PUSH32 0x43616E6E6F7420737461727420726567697374726174696F6E20616674657220 PUSH1 0x0 DUP3 ADD MSTORE PUSH32 0x766F74696E672068617320626567756E2E000000000000000000000000000000 PUSH1 0x20 DUP3 ADD MSTORE POP JUMP JUMPDEST PUSH1 0x0 PUSH2 0x4754 PUSH1 0x31 DUP4 PUSH2 0x381E JUMP JUMPDEST SWAP2 POP PUSH2 0x475F DUP3 PUSH2 0x46F8 JUMP JUMPDEST PUSH1 0x40 DUP3 ADD SWAP1 POP SWAP2 SWAP1 POP JUMP JUMPDEST PUSH1 0x0 PUSH1 0x20 DUP3 ADD SWAP1 POP DUP2 DUP2 SUB PUSH1 0x0 DUP4 ADD MSTORE PUSH2 0x4783 DUP2 PUSH2 0x4747 JUMP JUMPDEST SWAP1 POP SWAP2 SWAP1 POP JUMP JUMPDEST PUSH32 0x526567697374726174696F6E20706572696F6420686173206E6F742073746172 PUSH1 0x0 DUP3 ADD MSTORE PUSH32 0x7465642E00000000000000000000000000000000000000000000000000000000 PUSH1 0x20 DUP3 ADD MSTORE POP JUMP JUMPDEST PUSH1 0x0 PUSH2 0x47E6 PUSH1 0x24 DUP4 PUSH2 0x381E JUMP JUMPDEST SWAP2 POP PUSH2 0x47F1 DUP3 PUSH2 0x478A JUMP JUMPDEST PUSH1 0x40 DUP3 ADD SWAP1 POP SWAP2 SWAP1 POP JUMP JUMPDEST PUSH1 0x0 PUSH1 0x20 DUP3 ADD SWAP1 POP DUP2 DUP2 SUB PUSH1 0x0 DUP4 ADD MSTORE PUSH2 0x4815 DUP2 PUSH2 0x47D9 JUMP JUMPDEST SWAP1 POP SWAP2 SWAP1 POP JUMP JUMPDEST PUSH32 0x566F74696E672068617320616C726561647920737461727465642E0000000000 PUSH1 0x0 DUP3 ADD MSTORE POP JUMP JUMPDEST PUSH1 0x0 PUSH2 0x4852 PUSH1 0x1B DUP4 PUSH2 0x381E JUMP JUMPDEST SWAP2 POP PUSH2 0x485D DUP3 PUSH2 0x481C JUMP JUMPDEST PUSH1 0x20 DUP3 ADD SWAP1 POP SWAP2 SWAP1 POP JUMP JUMPDEST PUSH1 0x0 PUSH1 0x20 DUP3 ADD SWAP1 POP DUP2 DUP2 SUB PUSH1 0x0 DUP4 ADD MSTORE PUSH2 0x4881 DUP2 PUSH2 0x4845 JUMP JUMPDEST SWAP1 POP SWAP2 SWAP1 POP JUMP JUMPDEST PUSH1 0x0 DUP2 SWAP1 POP SWAP3 SWAP2 POP POP JUMP JUMPDEST PUSH32 0x19457468657265756D205369676E6564204D6573736167653A0A000000000000 PUSH1 0x0 DUP3 ADD MSTORE POP JUMP JUMPDEST PUSH1 0x0 PUSH2 0x48C9 PUSH1 0x1A DUP4 PUSH2 0x4888 JUMP JUMPDEST SWAP2 POP PUSH2 0x48D4 DUP3 PUSH2 0x4893 JUMP JUMPDEST PUSH1 0x1A DUP3 ADD SWAP1 POP SWAP2 SWAP1 POP JUMP JUMPDEST PUSH32 0x446F6D61696E3A20000000000000000000000000000000000000000000000000 PUSH1 0x0 DUP3 ADD MSTORE POP JUMP JUMPDEST PUSH1 0x0 PUSH2 0x4915 PUSH1 0x8 DUP4 PUSH2 0x4888 JUMP JUMPDEST SWAP2 POP PUSH2 0x4920 DUP3 PUSH2 0x48DF JUMP JUMPDEST PUSH1 0x8 DUP3 ADD SWAP1 POP SWAP2 SWAP1 POP JUMP JUMPDEST PUSH1 0x0 PUSH2 0x4936 DUP3 PUSH2 0x3813 JUMP JUMPDEST PUSH2 0x4940 DUP2 DUP6 PUSH2 0x4888 JUMP JUMPDEST SWAP4 POP PUSH2 0x4950 DUP2 DUP6 PUSH1 0x20 DUP7 ADD PUSH2 0x382F JUMP JUMPDEST DUP1 DUP5 ADD SWAP2 POP POP SWAP3 SWAP2 POP POP JUMP JUMPDEST PUSH32 0xA00000000000000000000000000000000000000000000000000000000000000 PUSH1 0x0 DUP3 ADD MSTORE POP JUMP JUMPDEST PUSH1 0x0 PUSH2 0x4992 PUSH1 0x1 DUP4 PUSH2 0x4888 JUMP JUMPDEST SWAP2 POP PUSH2 0x499D DUP3 PUSH2 0x495C JUMP JUMPDEST PUSH1 0x1 DUP3 ADD SWAP1 POP SWAP2 SWAP1 POP JUMP JUMPDEST PUSH32 0x416464726573733A200000000000000000000000000000000000000000000000 PUSH1 0x0 DUP3 ADD MSTORE POP JUMP JUMPDEST PUSH1 0x0 PUSH2 0x49DE PUSH1 0x9 DUP4 PUSH2 0x4888 JUMP JUMPDEST SWAP2 POP PUSH2 0x49E9 DUP3 PUSH2 0x49A8 JUMP JUMPDEST PUSH1 0x9 DUP3 ADD SWAP1 POP SWAP2 SWAP1 POP JUMP JUMPDEST PUSH32 0x53746174656D656E743A20000000000000000000000000000000000000000000 PUSH1 0x0 DUP3 ADD MSTORE POP JUMP JUMPDEST PUSH1 0x0 PUSH2 0x4A2A PUSH1 0xB DUP4 PUSH2 0x4888 JUMP JUMPDEST SWAP2 POP PUSH2 0x4A35 DUP3 PUSH2 0x49F4 JUMP JUMPDEST PUSH1 0xB DUP3 ADD SWAP1 POP SWAP2 SWAP1 POP JUMP JUMPDEST PUSH32 0x5552493A20000000000000000000000000000000000000000000000000000000 PUSH1 0x0 DUP3 ADD MSTORE POP JUMP JUMPDEST PUSH1 0x0 PUSH2 0x4A76 PUSH1 0x5 DUP4 PUSH2 0x4888 JUMP JUMPDEST SWAP2 POP PUSH2 0x4A81 DUP3 PUSH2 0x4A40 JUMP JUMPDEST PUSH1 0x5 DUP3 ADD SWAP1 POP SWAP2 SWAP1 POP JUMP JUMPDEST PUSH32 0x56657273696F6E3A20310A000000000000000000000000000000000000000000 PUSH1 0x0 DUP3 ADD MSTORE POP JUMP JUMPDEST PUSH1 0x0 PUSH2 0x4AC2 PUSH1 0xB DUP4 PUSH2 0x4888 JUMP JUMPDEST SWAP2 POP PUSH2 0x4ACD DUP3 PUSH2 0x4A8C JUMP JUMPDEST PUSH1 0xB DUP3 ADD SWAP1 POP SWAP2 SWAP1 POP JUMP JUMPDEST PUSH32 0x436861696E2049443A2000000000000000000000000000000000000000000000 PUSH1 0x0 DUP3 ADD MSTORE POP JUMP JUMPDEST PUSH1 0x0 PUSH2 0x4B0E PUSH1 0xA DUP4 PUSH2 0x4888 JUMP JUMPDEST SWAP2 POP PUSH2 0x4B19 DUP3 PUSH2 0x4AD8 JUMP JUMPDEST PUSH1 0xA DUP3 ADD SWAP1 POP SWAP2 SWAP1 POP JUMP JUMPDEST PUSH32 0x4E6F6E63653A2000000000000000000000000000000000000000000000000000 PUSH1 0x0 DUP3 ADD MSTORE POP JUMP JUMPDEST PUSH1 0x0 PUSH2 0x4B5A PUSH1 0x7 DUP4 PUSH2 0x4888 JUMP JUMPDEST SWAP2 POP PUSH2 0x4B65 DUP3 PUSH2 0x4B24 JUMP JUMPDEST PUSH1 0x7 DUP3 ADD SWAP1 POP SWAP2 SWAP1 POP JUMP JUMPDEST PUSH1 0x0 PUSH2 0x4B7B DUP3 PUSH2 0x48BC JUMP JUMPDEST SWAP2 POP PUSH2 0x4B86 DUP3 PUSH2 0x4908 JUMP JUMPDEST SWAP2 POP PUSH2 0x4B92 DUP3 DUP10 PUSH2 0x492B JUMP JUMPDEST SWAP2 POP PUSH2 0x4B9D DUP3 PUSH2 0x4985 JUMP JUMPDEST SWAP2 POP PUSH2 0x4BA8 DUP3 PUSH2 0x49D1 JUMP JUMPDEST SWAP2 POP PUSH2 0x4BB4 DUP3 DUP9 PUSH2 0x492B JUMP JUMPDEST SWAP2 POP PUSH2 0x4BBF DUP3 PUSH2 0x4985 JUMP JUMPDEST SWAP2 POP PUSH2 0x4BCA DUP3 PUSH2 0x4A1D JUMP JUMPDEST SWAP2 POP PUSH2 0x4BD6 DUP3 DUP8 PUSH2 0x492B JUMP JUMPDEST SWAP2 POP PUSH2 0x4BE1 DUP3 PUSH2 0x4985 JUMP JUMPDEST SWAP2 POP PUSH2 0x4BEC DUP3 PUSH2 0x4A69 JUMP JUMPDEST SWAP2 POP PUSH2 0x4BF8 DUP3 DUP7 PUSH2 0x492B JUMP JUMPDEST SWAP2 POP PUSH2 0x4C03 DUP3 PUSH2 0x4985 JUMP JUMPDEST SWAP2 POP PUSH2 0x4C0E DUP3 PUSH2 0x4AB5 JUMP JUMPDEST SWAP2 POP PUSH2 0x4C19 DUP3 PUSH2 0x4B01 JUMP JUMPDEST SWAP2 POP PUSH2 0x4C25 DUP3 DUP6 PUSH2 0x492B JUMP JUMPDEST SWAP2 POP PUSH2 0x4C30 DUP3 PUSH2 0x4985 JUMP JUMPDEST SWAP2 POP PUSH2 0x4C3B DUP3 PUSH2 0x4B4D JUMP JUMPDEST SWAP2 POP PUSH2 0x4C47 DUP3 DUP5 PUSH2 0x492B JUMP JUMPDEST SWAP2 POP DUP2 SWAP1 POP SWAP8 SWAP7 POP POP POP POP POP POP POP JUMP JUMPDEST PUSH32 0x43616E6E6F7420726567697374657220647572696E6720766F74696E67207065 PUSH1 0x0 DUP3 ADD MSTORE PUSH32 0x72696F642E000000000000000000000000000000000000000000000000000000 PUSH1 0x20 DUP3 ADD MSTORE POP JUMP JUMPDEST PUSH1 0x0 PUSH2 0x4CB3 PUSH1 0x25 DUP4 PUSH2 0x381E JUMP JUMPDEST SWAP2 POP PUSH2 0x4CBE DUP3 PUSH2 0x4C57 JUMP JUMPDEST PUSH1 0x40 DUP3 ADD SWAP1 POP SWAP2 SWAP1 POP JUMP JUMPDEST PUSH1 0x0 PUSH1 0x20 DUP3 ADD SWAP1 POP DUP2 DUP2 SUB PUSH1 0x0 DUP4 ADD MSTORE PUSH2 0x4CE2 DUP2 PUSH2 0x4CA6 JUMP JUMPDEST SWAP1 POP SWAP2 SWAP1 POP JUMP JUMPDEST PUSH1 0x0 PUSH2 0x4CF5 DUP3 DUP5 PUSH2 0x492B JUMP JUMPDEST SWAP2 POP DUP2 SWAP1 POP SWAP3 SWAP2 POP POP JUMP JUMPDEST PUSH32 0x566F74657220616C726561647920657869737473210000000000000000000000 PUSH1 0x0 DUP3 ADD MSTORE POP JUMP JUMPDEST PUSH1 0x0 PUSH2 0x4D36 PUSH1 0x15 DUP4 PUSH2 0x381E JUMP JUMPDEST SWAP2 POP PUSH2 0x4D41 DUP3 PUSH2 0x4D00 JUMP JUMPDEST PUSH1 0x20 DUP3 ADD SWAP1 POP SWAP2 SWAP1 POP JUMP JUMPDEST PUSH1 0x0 PUSH1 0x20 DUP3 ADD SWAP1 POP DUP2 DUP2 SUB PUSH1 0x0 DUP4 ADD MSTORE PUSH2 0x4D65 DUP2 PUSH2 0x4D29 JUMP JUMPDEST SWAP1 POP SWAP2 SWAP1 POP JUMP JUMPDEST PUSH1 0x0 DUP2 SWAP1 POP DUP2 PUSH1 0x0 MSTORE PUSH1 0x20 PUSH1 0x0 KECCAK256 SWAP1 POP SWAP2 SWAP1 POP JUMP JUMPDEST PUSH1 0x0 PUSH1 0x20 PUSH1 0x1F DUP4 ADD DIV SWAP1 POP SWAP2 SWAP1 POP JUMP JUMPDEST PUSH1 0x0 DUP3 DUP3 SHL SWAP1 POP SWAP3 SWAP2 POP POP JUMP JUMPDEST PUSH1 0x0 PUSH1 0x8 DUP4 MUL PUSH2 0x4DCE PUSH32 0xFFFFFFFFFFFFFFFFFFFFFFFFFFFFFFFFFFFFFFFFFFFFFFFFFFFFFFFFFFFFFFFF DUP3 PUSH2 0x4D91 JUMP JUMPDEST PUSH2 0x4DD8 DUP7 DUP4 PUSH2 0x4D91 JUMP JUMPDEST SWAP6 POP DUP1 NOT DUP5 AND SWAP4 POP DUP1 DUP7 AND DUP5 OR SWAP3 POP POP POP SWAP4 SWAP3 POP POP POP JUMP JUMPDEST PUSH1 0x0 DUP2 SWAP1 POP SWAP2 SWAP1 POP JUMP JUMPDEST PUSH1 0x0 PUSH2 0x4E15 PUSH2 0x4E10 PUSH2 0x4E0B DUP5 PUSH2 0x3937 JUMP JUMPDEST PUSH2 0x4DF0 JUMP JUMPDEST PUSH2 0x3937 JUMP JUMPDEST SWAP1 POP SWAP2 SWAP1 POP JUMP JUMPDEST PUSH1 0x0 DUP2 SWAP1 POP SWAP2 SWAP1 POP JUMP JUMPDEST PUSH2 0x4E2F DUP4 PUSH2 0x4DFA JUMP JUMPDEST PUSH2 0x4E43 PUSH2 0x4E3B DUP3 PUSH2 0x4E1C JUMP JUMPDEST DUP5 DUP5 SLOAD PUSH2 0x4D9E JUMP JUMPDEST DUP3 SSTORE POP POP POP POP JUMP JUMPDEST PUSH1 0x0 SWAP1 JUMP JUMPDEST PUSH2 0x4E58 PUSH2 0x4E4B JUMP JUMPDEST PUSH2 0x4E63 DUP2 DUP5 DUP5 PUSH2 0x4E26 JUMP JUMPDEST POP POP POP JUMP JUMPDEST JUMPDEST DUP2 DUP2 LT ISZERO PUSH2 0x4E87 JUMPI PUSH2 0x4E7C PUSH1 0x0 DUP3 PUSH2 0x4E50 JUMP JUMPDEST PUSH1 0x1 DUP2 ADD SWAP1 POP PUSH2 0x4E69 JUMP JUMPDEST POP POP JUMP JUMPDEST PUSH1 0x1F DUP3 GT ISZERO PUSH2 0x4ECC JUMPI PUSH2 0x4E9D DUP2 PUSH2 0x4D6C JUMP JUMPDEST PUSH2 0x4EA6 DUP5 PUSH2 0x4D81 JUMP JUMPDEST DUP2 ADD PUSH1 0x20 DUP6 LT ISZERO PUSH2 0x4EB5 JUMPI DUP2 SWAP1 POP JUMPDEST PUSH2 0x4EC9 PUSH2 0x4EC1 DUP6 PUSH2 0x4D81 JUMP JUMPDEST DUP4 ADD DUP3 PUSH2 0x4E68 JUMP JUMPDEST POP POP JUMPDEST POP POP POP JUMP JUMPDEST PUSH1 0x0 DUP3 DUP3 SHR SWAP1 POP SWAP3 SWAP2 POP POP JUMP JUMPDEST PUSH1 0x0 PUSH2 0x4EEF PUSH1 0x0 NOT DUP5 PUSH1 0x8 MUL PUSH2 0x4ED1 JUMP JUMPDEST NOT DUP1 DUP4 AND SWAP2 POP POP SWAP3 SWAP2 POP POP JUMP JUMPDEST PUSH1 0x0 PUSH2 0x4F08 DUP4 DUP4 PUSH2 0x4EDE JUMP JUMPDEST SWAP2 POP DUP3 PUSH1 0x2 MUL DUP3 OR SWAP1 POP SWAP3 SWAP2 POP POP JUMP JUMPDEST PUSH2 0x4F21 DUP3 PUSH2 0x3813 JUMP JUMPDEST PUSH8 0xFFFFFFFFFFFFFFFF DUP2 GT ISZERO PUSH2 0x4F3A JUMPI PUSH2 0x4F39 PUSH2 0x3D00 JUMP JUMPDEST JUMPDEST PUSH2 0x4F44 DUP3 SLOAD PUSH2 0x45C9 JUMP JUMPDEST PUSH2 0x4F4F DUP3 DUP3 DUP6 PUSH2 0x4E8B JUMP JUMPDEST PUSH1 0x0 PUSH1 0x20 SWAP1 POP PUSH1 0x1F DUP4 GT PUSH1 0x1 DUP2 EQ PUSH2 0x4F82 JUMPI PUSH1 0x0 DUP5 ISZERO PUSH2 0x4F70 JUMPI DUP3 DUP8 ADD MLOAD SWAP1 POP JUMPDEST PUSH2 0x4F7A DUP6 DUP3 PUSH2 0x4EFC JUMP JUMPDEST DUP7 SSTORE POP PUSH2 0x4FE2 JUMP JUMPDEST PUSH1 0x1F NOT DUP5 AND PUSH2 0x4F90 DUP7 PUSH2 0x4D6C JUMP JUMPDEST PUSH1 0x0 JUMPDEST DUP3 DUP2 LT ISZERO PUSH2 0x4FB8 JUMPI DUP5 DUP10 ADD MLOAD DUP3 SSTORE PUSH1 0x1 DUP3 ADD SWAP2 POP PUSH1 0x20 DUP6 ADD SWAP5 POP PUSH1 0x20 DUP2 ADD SWAP1 POP PUSH2 0x4F93 JUMP JUMPDEST DUP7 DUP4 LT ISZERO PUSH2 0x4FD5 JUMPI DUP5 DUP10 ADD MLOAD PUSH2 0x4FD1 PUSH1 0x1F DUP10 AND DUP3 PUSH2 0x4EDE JUMP JUMPDEST DUP4 SSTORE POP JUMPDEST PUSH1 0x1 PUSH1 0x2 DUP9 MUL ADD DUP9 SSTORE POP POP POP JUMPDEST POP POP POP POP POP POP JUMP JUMPDEST PUSH32 0x43616E64696461746520616C7265616479206578697374732100000000000000 PUSH1 0x0 DUP3 ADD MSTORE POP JUMP JUMPDEST PUSH1 0x0 PUSH2 0x5020 PUSH1 0x19 DUP4 PUSH2 0x381E JUMP JUMPDEST SWAP2 POP PUSH2 0x502B DUP3 PUSH2 0x4FEA JUMP JUMPDEST PUSH1 0x20 DUP3 ADD SWAP1 POP SWAP2 SWAP1 POP JUMP JUMPDEST PUSH1 0x0 PUSH1 0x20 DUP3 ADD SWAP1 POP DUP2 DUP2 SUB PUSH1 0x0 DUP4 ADD MSTORE PUSH2 0x504F DUP2 PUSH2 0x5013 JUMP JUMPDEST SWAP1 POP SWAP2 SWAP1 POP JUMP JUMPDEST PUSH32 0x596F75206D7573742062652061207265676973746572656420766F7465722100 PUSH1 0x0 DUP3 ADD MSTORE POP JUMP JUMPDEST PUSH1 0x0 PUSH2 0x508C PUSH1 0x1F DUP4 PUSH2 0x381E JUMP JUMPDEST SWAP2 POP PUSH2 0x5097 DUP3 PUSH2 0x5056 JUMP JUMPDEST PUSH1 0x20 DUP3 ADD SWAP1 POP SWAP2 SWAP1 POP JUMP JUMPDEST PUSH1 0x0 PUSH1 0x20 DUP3 ADD SWAP1 POP DUP2 DUP2 SUB PUSH1 0x0 DUP4 ADD MSTORE PUSH2 0x50BB DUP2 PUSH2 0x507F JUMP JUMPDEST SWAP1 POP SWAP2 SWAP1 POP JUMP JUMPDEST PUSH1 0x0 PUSH1 0x40 DUP3 ADD SWAP1 POP PUSH2 0x50D7 PUSH1 0x0 DUP4 ADD DUP6 PUSH2 0x39E3 JUMP JUMPDEST DUP2 DUP2 SUB PUSH1 0x20 DUP4 ADD MSTORE PUSH2 0x50E9 DUP2 DUP5 PUSH2 0x386A JUMP JUMPDEST SWAP1 POP SWAP4 SWAP3 POP POP POP JUMP JUMPDEST PUSH32 0x43616E64696461746520616C7265616479207665726966696564210000000000 PUSH1 0x0 DUP3 ADD MSTORE POP JUMP JUMPDEST PUSH1 0x0 PUSH2 0x5128 PUSH1 0x1B DUP4 PUSH2 0x381E JUMP JUMPDEST SWAP2 POP PUSH2 0x5133 DUP3 PUSH2 0x50F2 JUMP JUMPDEST PUSH1 0x20 DUP3 ADD SWAP1 POP SWAP2 SWAP1 POP JUMP JUMPDEST PUSH1 0x0 PUSH1 0x20 DUP3 ADD SWAP1 POP DUP2 DUP2 SUB PUSH1 0x0 DUP4 ADD MSTORE PUSH2 0x5157 DUP2 PUSH2 0x511B JUMP JUMPDEST SWAP1 POP SWAP2 SWAP1 POP JUMP JUMPDEST PUSH1 0x0 DUP2 SLOAD PUSH2 0x516B DUP2 PUSH2 0x45C9 JUMP JUMPDEST PUSH2 0x5175 DUP2 DUP7 PUSH2 0x4888 JUMP JUMPDEST SWAP5 POP PUSH1 0x1 DUP3 AND PUSH1 0x0 DUP2 EQ PUSH2 0x5190 JUMPI PUSH1 0x1 DUP2 EQ PUSH2 0x51A5 JUMPI PUSH2 0x51D8 JUMP JUMPDEST PUSH1 0xFF NOT DUP4 AND DUP7 MSTORE DUP2 ISZERO ISZERO DUP3 MUL DUP7 ADD SWAP4 POP PUSH2 0x51D8 JUMP JUMPDEST PUSH2 0x51AE DUP6 PUSH2 0x4D6C JUMP JUMPDEST PUSH1 0x0 JUMPDEST DUP4 DUP2 LT ISZERO PUSH2 0x51D0 JUMPI DUP2 SLOAD DUP2 DUP10 ADD MSTORE PUSH1 0x1 DUP3 ADD SWAP2 POP PUSH1 0x20 DUP2 ADD SWAP1 POP PUSH2 0x51B1 JUMP JUMPDEST DUP4 DUP9 ADD SWAP6 POP POP POP JUMPDEST POP POP POP SWAP3 SWAP2 POP POP JUMP JUMPDEST PUSH1 0x0 PUSH2 0x51ED DUP3 DUP5 PUSH2 0x515E JUMP JUMPDEST SWAP2 POP DUP2 SWAP1 POP SWAP3 SWAP2 POP POP JUMP JUMPDEST PUSH32 0x526567697374726174696F6E20706572696F64206973207374696C6C20616374 PUSH1 0x0 DUP3 ADD MSTORE PUSH32 0x6976652E00000000000000000000000000000000000000000000000000000000 PUSH1 0x20 DUP3 ADD MSTORE POP JUMP JUMPDEST PUSH1 0x0 PUSH2 0x5254 PUSH1 0x24 DUP4 PUSH2 0x381E JUMP JUMPDEST SWAP2 POP PUSH2 0x525F DUP3 PUSH2 0x51F8 JUMP JUMPDEST PUSH1 0x40 DUP3 ADD SWAP1 POP SWAP2 SWAP1 POP JUMP JUMPDEST PUSH1 0x0 PUSH1 0x20 DUP3 ADD SWAP1 POP DUP2 DUP2 SUB PUSH1 0x0 DUP4 ADD MSTORE PUSH2 0x5283 DUP2 PUSH2 0x5247 JUMP JUMPDEST SWAP1 POP SWAP2 SWAP1 POP JUMP JUMPDEST PUSH32 0x566F74696E6720686173206E6F742073746172746564207965742E0000000000 PUSH1 0x0 DUP3 ADD MSTORE POP JUMP JUMPDEST PUSH1 0x0 PUSH2 0x52C0 PUSH1 0x1B DUP4 PUSH2 0x381E JUMP JUMPDEST SWAP2 POP PUSH2 0x52CB DUP3 PUSH2 0x528A JUMP JUMPDEST PUSH1 0x20 DUP3 ADD SWAP1 POP SWAP2 SWAP1 POP JUMP JUMPDEST PUSH1 0x0 PUSH1 0x20 DUP3 ADD SWAP1 POP DUP2 DUP2 SUB PUSH1 0x0 DUP4 ADD MSTORE PUSH2 0x52EF DUP2 PUSH2 0x52B3 JUMP JUMPDEST SWAP1 POP SWAP2 SWAP1 POP JUMP JUMPDEST PUSH32 0x596F75206861766520616C726561647920766F7465642E000000000000000000 PUSH1 0x0 DUP3 ADD MSTORE POP JUMP JUMPDEST PUSH1 0x0 PUSH2 0x532C PUSH1 0x17 DUP4 PUSH2 0x381E JUMP JUMPDEST SWAP2 POP PUSH2 0x5337 DUP3 PUSH2 0x52F6 JUMP JUMPDEST PUSH1 0x20 DUP3 ADD SWAP1 POP SWAP2 SWAP1 POP JUMP JUMPDEST PUSH1 0x0 PUSH1 0x20 DUP3 ADD SWAP1 POP DUP2 DUP2 SUB PUSH1 0x0 DUP4 ADD MSTORE PUSH2 0x535B DUP2 PUSH2 0x531F JUMP JUMPDEST SWAP1 POP SWAP2 SWAP1 POP JUMP JUMPDEST PUSH32 0x496E76616C696420706F736974696F6E2E000000000000000000000000000000 PUSH1 0x0 DUP3 ADD MSTORE POP JUMP JUMPDEST PUSH1 0x0 PUSH2 0x5398 PUSH1 0x11 DUP4 PUSH2 0x381E JUMP JUMPDEST SWAP2 POP PUSH2 0x53A3 DUP3 PUSH2 0x5362 JUMP JUMPDEST PUSH1 0x20 DUP3 ADD SWAP1 POP SWAP2 SWAP1 POP JUMP JUMPDEST PUSH1 0x0 PUSH1 0x20 DUP3 ADD SWAP1 POP DUP2 DUP2 SUB PUSH1 0x0 DUP4 ADD MSTORE PUSH2 0x53C7 DUP2 PUSH2 0x538B JUMP JUMPDEST SWAP1 POP SWAP2 SWAP1 POP JUMP JUMPDEST PUSH32 0x496E76616C69642063616E64696461746520696E6465782E0000000000000000 PUSH1 0x0 DUP3 ADD MSTORE POP JUMP JUMPDEST PUSH1 0x0 PUSH2 0x5404 PUSH1 0x18 DUP4 PUSH2 0x381E JUMP JUMPDEST SWAP2 POP PUSH2 0x540F DUP3 PUSH2 0x53CE JUMP JUMPDEST PUSH1 0x20 DUP3 ADD SWAP1 POP SWAP2 SWAP1 POP JUMP JUMPDEST PUSH1 0x0 PUSH1 0x20 DUP3 ADD SWAP1 POP DUP2 DUP2 SUB PUSH1 0x0 DUP4 ADD MSTORE PUSH2 0x5433 DUP2 PUSH2 0x53F7 JUMP JUMPDEST SWAP1 POP SWAP2 SWAP1 POP JUMP JUMPDEST PUSH32 0x4E487B7100000000000000000000000000000000000000000000000000000000 PUSH1 0x0 MSTORE PUSH1 0x32 PUSH1 0x4 MSTORE PUSH1 0x24 PUSH1 0x0 REVERT JUMPDEST PUSH32 0x4E487B7100000000000000000000000000000000000000000000000000000000 PUSH1 0x0 MSTORE PUSH1 0x11 PUSH1 0x4 MSTORE PUSH1 0x24 PUSH1 0x0 REVERT JUMPDEST PUSH1 0x0 PUSH2 0x54A3 DUP3 PUSH2 0x3937 JUMP JUMPDEST SWAP2 POP PUSH2 0x54AE DUP4 PUSH2 0x3937 JUMP JUMPDEST SWAP3 POP DUP3 DUP3 ADD SWAP1 POP DUP1 DUP3 GT ISZERO PUSH2 0x54C6 JUMPI PUSH2 0x54C5 PUSH2 0x5469 JUMP JUMPDEST JUMPDEST SWAP3 SWAP2 POP POP JUMP JUMPDEST PUSH1 0x0 DUP2 SLOAD PUSH2 0x54D9 DUP2 PUSH2 0x45C9 JUMP JUMPDEST PUSH2 0x54E3 DUP2 DUP7 PUSH2 0x381E JUMP JUMPDEST SWAP5 POP PUSH1 0x1 DUP3 AND PUSH1 0x0 DUP2 EQ PUSH2 0x54FE JUMPI PUSH1 0x1 DUP2 EQ PUSH2 0x5514 JUMPI PUSH2 0x5547 JUMP JUMPDEST PUSH1 0xFF NOT DUP4 AND DUP7 MSTORE DUP2 ISZERO ISZERO PUSH1 0x20 MUL DUP7 ADD SWAP4 POP PUSH2 0x5547 JUMP JUMPDEST PUSH2 0x551D DUP6 PUSH2 0x4D6C JUMP JUMPDEST PUSH1 0x0 JUMPDEST DUP4 DUP2 LT ISZERO PUSH2 0x553F JUMPI DUP2 SLOAD DUP2 DUP10 ADD MSTORE PUSH1 0x1 DUP3 ADD SWAP2 POP PUSH1 0x20 DUP2 ADD SWAP1 POP PUSH2 0x5520 JUMP JUMPDEST DUP1 DUP9 ADD SWAP6 POP POP POP JUMPDEST POP POP POP SWAP3 SWAP2 POP POP JUMP JUMPDEST PUSH1 0x0 PUSH1 0x60 DUP3 ADD SWAP1 POP DUP2 DUP2 SUB PUSH1 0x0 DUP4 ADD MSTORE PUSH2 0x556A DUP2 DUP7 PUSH2 0x54CC JUMP JUMPDEST SWAP1 POP DUP2 DUP2 SUB PUSH1 0x20 DUP4 ADD MSTORE PUSH2 0x557E DUP2 DUP6 PUSH2 0x386A JUMP JUMPDEST SWAP1 POP PUSH2 0x558D PUSH1 0x40 DUP4 ADD DUP5 PUSH2 0x39E3 JUMP JUMPDEST SWAP5 SWAP4 POP POP POP POP JUMP JUMPDEST PUSH32 0x506F736974696F6E20616C726561647920657869737473210000000000000000 PUSH1 0x0 DUP3 ADD MSTORE POP JUMP JUMPDEST PUSH1 0x0 PUSH2 0x55CB PUSH1 0x18 DUP4 PUSH2 0x381E JUMP JUMPDEST SWAP2 POP PUSH2 0x55D6 DUP3 PUSH2 0x5595 JUMP JUMPDEST PUSH1 0x20 DUP3 ADD SWAP1 POP SWAP2 SWAP1 POP JUMP JUMPDEST PUSH1 0x0 PUSH1 0x20 DUP3 ADD SWAP1 POP DUP2 DUP2 SUB PUSH1 0x0 DUP4 ADD MSTORE PUSH2 0x55FA DUP2 PUSH2 0x55BE JUMP JUMPDEST SWAP1 POP SWAP2 SWAP1 POP JUMP JUMPDEST PUSH1 0x0 DUP2 SLOAD SWAP1 POP PUSH2 0x5610 DUP2 PUSH2 0x45C9 JUMP JUMPDEST SWAP1 POP SWAP2 SWAP1 POP JUMP JUMPDEST DUP2 DUP2 SUB PUSH2 0x5625 JUMPI POP POP PUSH2 0x56FD JUMP JUMPDEST PUSH2 0x562E DUP3 PUSH2 0x5601 JUMP JUMPDEST PUSH8 0xFFFFFFFFFFFFFFFF DUP2 GT ISZERO PUSH2 0x5647 JUMPI PUSH2 0x5646 PUSH2 0x3D00 JUMP JUMPDEST JUMPDEST PUSH2 0x5651 DUP3 SLOAD PUSH2 0x45C9 JUMP JUMPDEST PUSH2 0x565C DUP3 DUP3 DUP6 PUSH2 0x4E8B JUMP JUMPDEST PUSH1 0x0 PUSH1 0x1F DUP4 GT PUSH1 0x1 DUP2 EQ PUSH2 0x568B JUMPI PUSH1 0x0 DUP5 ISZERO PUSH2 0x5679 JUMPI DUP3 DUP8 ADD SLOAD SWAP1 POP JUMPDEST PUSH2 0x5683 DUP6 DUP3 PUSH2 0x4EFC JUMP JUMPDEST DUP7 SSTORE POP PUSH2 0x56F6 JUMP JUMPDEST PUSH1 0x1F NOT DUP5 AND PUSH2 0x5699 DUP8 PUSH2 0x4D6C JUMP JUMPDEST SWAP7 POP PUSH2 0x56A4 DUP7 PUSH2 0x4D6C JUMP JUMPDEST PUSH1 0x0 JUMPDEST DUP3 DUP2 LT ISZERO PUSH2 0x56CC JUMPI DUP5 DUP10 ADD SLOAD DUP3 SSTORE PUSH1 0x1 DUP3 ADD SWAP2 POP PUSH1 0x1 DUP6 ADD SWAP5 POP PUSH1 0x20 DUP2 ADD SWAP1 POP PUSH2 0x56A7 JUMP JUMPDEST DUP7 DUP4 LT ISZERO PUSH2 0x56E9 JUMPI DUP5 DUP10 ADD SLOAD PUSH2 0x56E5 PUSH1 0x1F DUP10 AND DUP3 PUSH2 0x4EDE JUMP JUMPDEST DUP4 SSTORE POP JUMPDEST PUSH1 0x1 PUSH1 0x2 DUP9 MUL ADD DUP9 SSTORE POP POP POP JUMPDEST POP POP POP POP POP POP JUMPDEST JUMP JUMPDEST PUSH32 0x19457468657265756D205369676E6564204D6573736167653A0A333200000000 PUSH1 0x0 DUP3 ADD MSTORE POP JUMP JUMPDEST PUSH1 0x0 PUSH2 0x5735 PUSH1 0x1C DUP4 PUSH2 0x4888 JUMP JUMPDEST SWAP2 POP PUSH2 0x5740 DUP3 PUSH2 0x56FF JUMP JUMPDEST PUSH1 0x1C DUP3 ADD SWAP1 POP SWAP2 SWAP1 POP JUMP JUMPDEST PUSH1 0x0 DUP2 SWAP1 POP SWAP2 SWAP1 POP JUMP JUMPDEST PUSH2 0x5766 PUSH2 0x5761 DUP3 PUSH2 0x40A8 JUMP JUMPDEST PUSH2 0x574B JUMP JUMPDEST DUP3 MSTORE POP POP JUMP JUMPDEST PUSH1 0x0 PUSH2 0x5777 DUP3 PUSH2 0x5728 JUMP JUMPDEST SWAP2 POP PUSH2 0x5783 DUP3 DUP5 PUSH2 0x5755 JUMP JUMPDEST PUSH1 0x20 DUP3 ADD SWAP2 POP DUP2 SWAP1 POP SWAP3 SWAP2 POP POP JUMP JUMPDEST PUSH1 0x0 PUSH1 0x60 DUP3 ADD SWAP1 POP PUSH2 0x57A7 PUSH1 0x0 DUP4 ADD DUP7 PUSH2 0x427C JUMP JUMPDEST PUSH2 0x57B4 PUSH1 0x20 DUP4 ADD DUP6 PUSH2 0x39E3 JUMP JUMPDEST PUSH2 0x57C1 PUSH1 0x40 DUP4 ADD DUP5 PUSH2 0x39E3 JUMP JUMPDEST SWAP5 SWAP4 POP POP POP POP JUMP JUMPDEST PUSH1 0x0 PUSH2 0x57D4 DUP3 PUSH2 0x3937 JUMP JUMPDEST SWAP2 POP PUSH2 0x57DF DUP4 PUSH2 0x3937 JUMP JUMPDEST SWAP3 POP DUP3 DUP3 MUL PUSH2 0x57ED DUP2 PUSH2 0x3937 JUMP JUMPDEST SWAP2 POP DUP3 DUP3 DIV DUP5 EQ DUP4 ISZERO OR PUSH2 0x5804 JUMPI PUSH2 0x5803 PUSH2 0x5469 JUMP JUMPDEST JUMPDEST POP SWAP3 SWAP2 POP POP JUMP JUMPDEST PUSH1 0x0 PUSH2 0x5816 DUP3 PUSH2 0x3937 JUMP JUMPDEST SWAP2 POP PUSH1 0x0 DUP3 SUB PUSH2 0x5829 JUMPI PUSH2 0x5828 PUSH2 0x5469 JUMP JUMPDEST JUMPDEST PUSH1 0x1 DUP3 SUB SWAP1 POP SWAP2 SWAP1 POP JUMP JUMPDEST PUSH1 0x0 PUSH1 0x40 DUP3 ADD SWAP1 POP PUSH2 0x5849 PUSH1 0x0 DUP4 ADD DUP6 PUSH2 0x39E3 JUMP JUMPDEST PUSH2 0x5856 PUSH1 0x20 DUP4 ADD DUP5 PUSH2 0x39E3 JUMP JUMPDEST SWAP4 SWAP3 POP POP POP JUMP JUMPDEST PUSH32 0x4E487B7100000000000000000000000000000000000000000000000000000000 PUSH1 0x0 MSTORE PUSH1 0x12 PUSH1 0x4 MSTORE PUSH1 0x24 PUSH1 0x0 REVERT JUMPDEST PUSH32 0x546F6B656E206C696D6974206578636565646564210000000000000000000000 PUSH1 0x0 DUP3 ADD MSTORE POP JUMP JUMPDEST PUSH1 0x0 PUSH2 0x58C2 PUSH1 0x15 DUP4 PUSH2 0x381E JUMP JUMPDEST SWAP2 POP PUSH2 0x58CD DUP3 PUSH2 0x588C JUMP JUMPDEST PUSH1 0x20 DUP3 ADD SWAP1 POP SWAP2 SWAP1 POP JUMP JUMPDEST PUSH1 0x0 PUSH1 0x20 DUP3 ADD SWAP1 POP DUP2 DUP2 SUB PUSH1 0x0 DUP4 ADD MSTORE PUSH2 0x58F1 DUP2 PUSH2 0x58B5 JUMP JUMPDEST SWAP1 POP SWAP2 SWAP1 POP JUMP JUMPDEST PUSH1 0x0 PUSH1 0x40 DUP3 ADD SWAP1 POP PUSH2 0x590D PUSH1 0x0 DUP4 ADD DUP6 PUSH2 0x427C JUMP JUMPDEST PUSH2 0x591A PUSH1 0x20 DUP4 ADD DUP5 PUSH2 0x39E3 JUMP JUMPDEST SWAP4 SWAP3 POP POP POP JUMP JUMPDEST PUSH32 0x4E487B7100000000000000000000000000000000000000000000000000000000 PUSH1 0x0 MSTORE PUSH1 0x21 PUSH1 0x4 MSTORE PUSH1 0x24 PUSH1 0x0 REVERT JUMPDEST PUSH1 0x0 PUSH1 0x80 DUP3 ADD SWAP1 POP PUSH2 0x5965 PUSH1 0x0 DUP4 ADD DUP8 PUSH2 0x40B2 JUMP JUMPDEST PUSH2 0x5972 PUSH1 0x20 DUP4 ADD DUP7 PUSH2 0x3F4A JUMP JUMPDEST PUSH2 0x597F PUSH1 0x40 DUP4 ADD DUP6 PUSH2 0x40B2 JUMP JUMPDEST PUSH2 0x598C PUSH1 0x60 DUP4 ADD DUP5 PUSH2 0x40B2 JUMP JUMPDEST SWAP6 SWAP5 POP POP POP POP POP JUMP INVALID LOG2 PUSH5 0x6970667358 0x22 SLT KECCAK256 0x4B 0xC8 0x28 0xEA SLT DUP12 0xFB PUSH1 0x65 0x21 0xC2 PUSH17 0x7182E47EA4F50530452B7644DCF81402E3 0x21 PUSH16 0x9D64736F6C634300081B003300000000 "},"methodIdentifiers":{"MAX_SUPPLY()":"32cb6b0c","REGISTER_AS_VOTER()":"be94ced7","VERIFY_CANDIDATE()":"ffdd7496","addPositions(string[])":"abceaad2","allowance(address,address)":"dd62ed3e","approve(address,uint256)":"095ea7b3","balanceOf(address)":"70a08231","candidateObject(string)":"1c64a33e","createMessageHash(address,string,string,string,uint256,uint256)":"5fbcc155","decimals()":"313ce567","endRegistrationAndStartVoting()":"55d5d611","getAllPositions()":"18f56a0a","getPositionCount()":"81683476","listOfCandidates(uint256)":"92d7df4a","listOfPositions(uint256)":"71a6f465","listOfVoters(uint256)":"9a53cbea","name()":"06fdde03","owner()":"8da5cb5b","positions(string)":"676f86b0","registerCandidate(string,uint256,string,string)":"71565d2e","registerVoter(string,uint256,string)":"6636b91e","registrationStarted()":"27aed42e","startRegistration()":"10b86695","symbol()":"95d89b41","totalSupply()":"18160ddd","transfer(address,uint256)":"a9059cbb","transferFrom(address,address,uint256)":"23b872dd","verifyCandidate(string)":"9dfa9065","verifySignature(bytes32,bytes)":"daca6f78","vote(string,uint256)":"a6385803","voterObject(string)":"4a66e1ab","voters(address)":"a3ec138d","votingStarted()":"83d948b7"}}}}}