{
  "_format": "hh-sol-artifact-1",
  "contractName": "Voting",
  "sourceName": "contracts/Voting.sol",
  "abi": [
    {
      "inputs": [],
      "stateMutability": "nonpayable",
      "type": "constructor"
    },
    {
      "inputs": [],
      "name": "ECDSAInvalidSignature",
      "type": "error"
    },
    {
      "inputs": [
        {
          "internalType": "uint256",
          "name": "length",
          "type": "uint256"
        }
      ],
      "name": "ECDSAInvalidSignatureLength",
      "type": "error"
    },
    {
      "inputs": [
        {
          "internalType": "bytes32",
          "name": "s",
          "type": "bytes32"
        }
      ],
      "name": "ECDSAInvalidSignatureS",
      "type": "error"
    },
    {
      "inputs": [
        {
          "internalType": "address",
          "name": "spender",
          "type": "address"
        },
        {
          "internalType": "uint256",
          "name": "allowance",
          "type": "uint256"
        },
        {
          "internalType": "uint256",
          "name": "needed",
          "type": "uint256"
        }
      ],
      "name": "ERC20InsufficientAllowance",
      "type": "error"
    },
    {
      "inputs": [
        {
          "internalType": "address",
          "name": "sender",
          "type": "address"
        },
        {
          "internalType": "uint256",
          "name": "balance",
          "type": "uint256"
        },
        {
          "internalType": "uint256",
          "name": "needed",
          "type": "uint256"
        }
      ],
      "name": "ERC20InsufficientBalance",
      "type": "error"
    },
    {
      "inputs": [
        {
          "internalType": "address",
          "name": "approver",
          "type": "address"
        }
      ],
      "name": "ERC20InvalidApprover",
      "type": "error"
    },
    {
      "inputs": [
        {
          "internalType": "address",
          "name": "receiver",
          "type": "address"
        }
      ],
      "name": "ERC20InvalidReceiver",
      "type": "error"
    },
    {
      "inputs": [
        {
          "internalType": "address",
          "name": "sender",
          "type": "address"
        }
      ],
      "name": "ERC20InvalidSender",
      "type": "error"
    },
    {
      "inputs": [
        {
          "internalType": "address",
          "name": "spender",
          "type": "address"
        }
      ],
      "name": "ERC20InvalidSpender",
      "type": "error"
    },
    {
      "inputs": [
        {
          "internalType": "uint256",
          "name": "value",
          "type": "uint256"
        },
        {
          "internalType": "uint256",
          "name": "length",
          "type": "uint256"
        }
      ],
      "name": "StringsInsufficientHexLength",
      "type": "error"
    },
    {
      "anonymous": false,
      "inputs": [
        {
          "indexed": true,
          "internalType": "address",
          "name": "owner",
          "type": "address"
        },
        {
          "indexed": true,
          "internalType": "address",
          "name": "spender",
          "type": "address"
        },
        {
          "indexed": false,
          "internalType": "uint256",
          "name": "value",
          "type": "uint256"
        }
      ],
      "name": "Approval",
      "type": "event"
    },
    {
      "anonymous": false,
      "inputs": [
        {
          "indexed": true,
          "internalType": "string",
          "name": "_names",
          "type": "string"
        },
        {
          "indexed": false,
          "internalType": "uint256",
          "name": "_age",
          "type": "uint256"
        },
        {
          "indexed": true,
          "internalType": "string",
          "name": "_idNumber",
          "type": "string"
        },
        {
          "indexed": false,
          "internalType": "string",
          "name": "_party",
          "type": "string"
        },
        {
          "indexed": false,
          "internalType": "string",
          "name": "_position",
          "type": "string"
        }
      ],
      "name": "CandidateRegistrationSuccess",
      "type": "event"
    },
    {
      "anonymous": false,
      "inputs": [
        {
          "indexed": false,
          "internalType": "string",
          "name": "message",
          "type": "string"
        },
        {
          "indexed": false,
          "internalType": "address",
          "name": "voter",
          "type": "address"
        },
        {
          "indexed": false,
          "internalType": "string",
          "name": "position",
          "type": "string"
        },
        {
          "indexed": false,
          "internalType": "bool",
          "name": "hasVoted",
          "type": "bool"
        }
      ],
      "name": "Debug",
      "type": "event"
    },
    {
      "anonymous": false,
      "inputs": [
        {
          "indexed": false,
          "internalType": "address",
          "name": "_to",
          "type": "address"
        },
        {
          "indexed": false,
          "internalType": "uint256",
          "name": "_amount",
          "type": "uint256"
        }
      ],
      "name": "MintSuccess",
      "type": "event"
    },
    {
      "anonymous": false,
      "inputs": [
        {
          "indexed": false,
          "internalType": "string",
          "name": "positionName",
          "type": "string"
        }
      ],
      "name": "PositionAdded",
      "type": "event"
    },
    {
      "anonymous": false,
      "inputs": [],
      "name": "RegistrationEnded",
      "type": "event"
    },
    {
      "anonymous": false,
      "inputs": [],
      "name": "RegistrationStarted",
      "type": "event"
    },
    {
      "anonymous": false,
      "inputs": [
        {
          "indexed": true,
          "internalType": "string",
          "name": "_idNumber",
          "type": "string"
        }
      ],
      "name": "RejectCandidateSuccess",
      "type": "event"
    },
    {
      "anonymous": false,
      "inputs": [
        {
          "indexed": true,
          "internalType": "address",
          "name": "from",
          "type": "address"
        },
        {
          "indexed": true,
          "internalType": "address",
          "name": "to",
          "type": "address"
        },
        {
          "indexed": false,
          "internalType": "uint256",
          "name": "value",
          "type": "uint256"
        }
      ],
      "name": "Transfer",
      "type": "event"
    },
    {
      "anonymous": false,
      "inputs": [
        {
          "indexed": true,
          "internalType": "string",
          "name": "_names",
          "type": "string"
        },
        {
          "indexed": true,
          "internalType": "string",
          "name": "_idNumber",
          "type": "string"
        }
      ],
      "name": "VerifyCandidateSuccess",
      "type": "event"
    },
    {
      "anonymous": false,
      "inputs": [
        {
          "indexed": true,
          "internalType": "address",
          "name": "voter",
          "type": "address"
        },
        {
          "indexed": false,
          "internalType": "string",
          "name": "_idNumber",
          "type": "string"
        },
        {
          "indexed": false,
          "internalType": "string",
          "name": "position",
          "type": "string"
        },
        {
          "indexed": false,
          "internalType": "uint256",
          "name": "candidateIndex",
          "type": "uint256"
        }
      ],
      "name": "VotedSuccess",
      "type": "event"
    },
    {
      "anonymous": false,
      "inputs": [
        {
          "indexed": true,
          "internalType": "string",
          "name": "_names",
          "type": "string"
        },
        {
          "indexed": false,
          "internalType": "uint256",
          "name": "_age",
          "type": "uint256"
        },
        {
          "indexed": true,
          "internalType": "string",
          "name": "_idNumber",
          "type": "string"
        }
      ],
      "name": "VoterRegistrationSuccess",
      "type": "event"
    },
    {
      "anonymous": false,
      "inputs": [],
      "name": "VotingEnded",
      "type": "event"
    },
    {
      "anonymous": false,
      "inputs": [],
      "name": "VotingStarted",
      "type": "event"
    },
    {
      "inputs": [],
      "name": "MAX_SUPPLY",
      "outputs": [
        {
          "internalType": "uint256",
          "name": "",
          "type": "uint256"
        }
      ],
      "stateMutability": "view",
      "type": "function"
    },
    {
      "inputs": [],
      "name": "REGISTER_AS_VOTER",
      "outputs": [
        {
          "internalType": "uint256",
          "name": "",
          "type": "uint256"
        }
      ],
      "stateMutability": "view",
      "type": "function"
    },
    {
      "inputs": [],
      "name": "VERIFY_CANDIDATE",
      "outputs": [
        {
          "internalType": "uint256",
          "name": "",
          "type": "uint256"
        }
      ],
      "stateMutability": "view",
      "type": "function"
    },
    {
      "inputs": [
        {
          "internalType": "string[]",
          "name": "_pNames",
          "type": "string[]"
        }
      ],
      "name": "addPositions",
      "outputs": [],
      "stateMutability": "nonpayable",
      "type": "function"
    },
    {
      "inputs": [
        {
          "internalType": "address",
          "name": "owner",
          "type": "address"
        },
        {
          "internalType": "address",
          "name": "spender",
          "type": "address"
        }
      ],
      "name": "allowance",
      "outputs": [
        {
          "internalType": "uint256",
          "name": "",
          "type": "uint256"
        }
      ],
      "stateMutability": "view",
      "type": "function"
    },
    {
      "inputs": [
        {
          "internalType": "address",
          "name": "spender",
          "type": "address"
        },
        {
          "internalType": "uint256",
          "name": "value",
          "type": "uint256"
        }
      ],
      "name": "approve",
      "outputs": [
        {
          "internalType": "bool",
          "name": "",
          "type": "bool"
        }
      ],
      "stateMutability": "nonpayable",
      "type": "function"
    },
    {
      "inputs": [
        {
          "internalType": "address",
          "name": "account",
          "type": "address"
        }
      ],
      "name": "balanceOf",
      "outputs": [
        {
          "internalType": "uint256",
          "name": "",
          "type": "uint256"
        }
      ],
      "stateMutability": "view",
      "type": "function"
    },
    {
      "inputs": [
        {
          "internalType": "string",
          "name": "",
          "type": "string"
        }
      ],
      "name": "candidateObject",
      "outputs": [
        {
          "internalType": "string",
          "name": "names",
          "type": "string"
        },
        {
          "internalType": "uint256",
          "name": "age",
          "type": "uint256"
        },
        {
          "internalType": "string",
          "name": "idNumber",
          "type": "string"
        },
        {
          "internalType": "string",
          "name": "party",
          "type": "string"
        },
        {
          "internalType": "uint256",
          "name": "votes",
          "type": "uint256"
        },
        {
          "internalType": "bool",
          "name": "verified",
          "type": "bool"
        },
        {
          "internalType": "string",
          "name": "position",
          "type": "string"
        },
        {
          "components": [
            {
              "internalType": "string",
              "name": "education",
              "type": "string"
            },
            {
              "internalType": "string",
              "name": "achievements",
              "type": "string"
            },
            {
              "internalType": "string",
              "name": "experience",
              "type": "string"
            },
            {
              "internalType": "string",
              "name": "policies",
              "type": "string"
            }
          ],
          "internalType": "struct Voting.Profile",
          "name": "profile",
          "type": "tuple"
        }
      ],
      "stateMutability": "view",
      "type": "function"
    },
    {
      "inputs": [
        {
          "internalType": "address",
          "name": "userAddress",
          "type": "address"
        },
        {
          "internalType": "string",
          "name": "domain",
          "type": "string"
        },
        {
          "internalType": "string",
          "name": "statement",
          "type": "string"
        },
        {
          "internalType": "string",
          "name": "uri",
          "type": "string"
        },
        {
          "internalType": "uint256",
          "name": "chainId",
          "type": "uint256"
        },
        {
          "internalType": "uint256",
          "name": "nonce",
          "type": "uint256"
        }
      ],
      "name": "createMessageHash",
      "outputs": [
        {
          "internalType": "bytes32",
          "name": "",
          "type": "bytes32"
        }
      ],
      "stateMutability": "pure",
      "type": "function"
    },
    {
      "inputs": [],
      "name": "decimals",
      "outputs": [
        {
          "internalType": "uint8",
          "name": "",
          "type": "uint8"
        }
      ],
      "stateMutability": "view",
      "type": "function"
    },
    {
      "inputs": [
        {
          "internalType": "uint256",
          "name": "votingDays",
          "type": "uint256"
        }
      ],
      "name": "endRegistrationAndStartVoting",
      "outputs": [],
      "stateMutability": "nonpayable",
      "type": "function"
    },
    {
      "inputs": [],
      "name": "endVoting",
      "outputs": [],
      "stateMutability": "nonpayable",
      "type": "function"
    },
    {
      "inputs": [],
      "name": "getAllPositions",
      "outputs": [
        {
          "components": [
            {
              "internalType": "string",
              "name": "pName",
              "type": "string"
            },
            {
              "components": [
                {
                  "internalType": "string",
                  "name": "names",
                  "type": "string"
                },
                {
                  "internalType": "uint256",
                  "name": "age",
                  "type": "uint256"
                },
                {
                  "internalType": "string",
                  "name": "idNumber",
                  "type": "string"
                },
                {
                  "internalType": "string",
                  "name": "party",
                  "type": "string"
                },
                {
                  "internalType": "uint256",
                  "name": "votes",
                  "type": "uint256"
                },
                {
                  "internalType": "bool",
                  "name": "verified",
                  "type": "bool"
                },
                {
                  "internalType": "string",
                  "name": "position",
                  "type": "string"
                },
                {
                  "components": [
                    {
                      "internalType": "string",
                      "name": "education",
                      "type": "string"
                    },
                    {
                      "internalType": "string",
                      "name": "achievements",
                      "type": "string"
                    },
                    {
                      "internalType": "string",
                      "name": "experience",
                      "type": "string"
                    },
                    {
                      "internalType": "string",
                      "name": "policies",
                      "type": "string"
                    }
                  ],
                  "internalType": "struct Voting.Profile",
                  "name": "profile",
                  "type": "tuple"
                }
              ],
              "internalType": "struct Voting.Candidate[]",
              "name": "candidates",
              "type": "tuple[]"
            }
          ],
          "internalType": "struct Voting.Position[]",
          "name": "",
          "type": "tuple[]"
        }
      ],
      "stateMutability": "view",
      "type": "function"
    },
    {
      "inputs": [
        {
          "internalType": "string",
          "name": "_idNumber",
          "type": "string"
        }
      ],
      "name": "getCandidateProfile",
      "outputs": [
        {
          "components": [
            {
              "internalType": "string",
              "name": "education",
              "type": "string"
            },
            {
              "internalType": "string",
              "name": "achievements",
              "type": "string"
            },
            {
              "internalType": "string",
              "name": "experience",
              "type": "string"
            },
            {
              "internalType": "string",
              "name": "policies",
              "type": "string"
            }
          ],
          "internalType": "struct Voting.Profile",
          "name": "",
          "type": "tuple"
        }
      ],
      "stateMutability": "view",
      "type": "function"
    },
    {
      "inputs": [],
      "name": "getCandidates",
      "outputs": [
        {
          "components": [
            {
              "internalType": "string",
              "name": "names",
              "type": "string"
            },
            {
              "internalType": "uint256",
              "name": "age",
              "type": "uint256"
            },
            {
              "internalType": "string",
              "name": "idNumber",
              "type": "string"
            },
            {
              "internalType": "string",
              "name": "party",
              "type": "string"
            },
            {
              "internalType": "uint256",
              "name": "votes",
              "type": "uint256"
            },
            {
              "internalType": "bool",
              "name": "verified",
              "type": "bool"
            },
            {
              "internalType": "string",
              "name": "position",
              "type": "string"
            },
            {
              "components": [
                {
                  "internalType": "string",
                  "name": "education",
                  "type": "string"
                },
                {
                  "internalType": "string",
                  "name": "achievements",
                  "type": "string"
                },
                {
                  "internalType": "string",
                  "name": "experience",
                  "type": "string"
                },
                {
                  "internalType": "string",
                  "name": "policies",
                  "type": "string"
                }
              ],
              "internalType": "struct Voting.Profile",
              "name": "profile",
              "type": "tuple"
            }
          ],
          "internalType": "struct Voting.Candidate[]",
          "name": "",
          "type": "tuple[]"
        }
      ],
      "stateMutability": "view",
      "type": "function"
    },
    {
      "inputs": [],
      "name": "getPositionCount",
      "outputs": [
        {
          "internalType": "uint256",
          "name": "",
          "type": "uint256"
        }
      ],
      "stateMutability": "view",
      "type": "function"
    },
    {
      "inputs": [],
      "name": "getVoters",
      "outputs": [
        {
          "components": [
            {
              "internalType": "string",
              "name": "names",
              "type": "string"
            },
            {
              "internalType": "uint256",
              "name": "age",
              "type": "uint256"
            },
            {
              "internalType": "string",
              "name": "idNumber",
              "type": "string"
            },
            {
              "internalType": "bool",
              "name": "voted",
              "type": "bool"
            }
          ],
          "internalType": "struct Voting.Voter[]",
          "name": "",
          "type": "tuple[]"
        }
      ],
      "stateMutability": "view",
      "type": "function"
    },
    {
      "inputs": [],
      "name": "getVotingEndTime",
      "outputs": [
        {
          "internalType": "uint256",
          "name": "",
          "type": "uint256"
        }
      ],
      "stateMutability": "view",
      "type": "function"
    },
    {
      "inputs": [
        {
          "internalType": "address",
          "name": "voter",
          "type": "address"
        },
        {
          "internalType": "string",
          "name": "position",
          "type": "string"
        }
      ],
      "name": "hasVoted",
      "outputs": [
        {
          "internalType": "bool",
          "name": "",
          "type": "bool"
        }
      ],
      "stateMutability": "view",
      "type": "function"
    },
    {
      "inputs": [
        {
          "internalType": "address",
          "name": "",
          "type": "address"
        },
        {
          "internalType": "string",
          "name": "",
          "type": "string"
        }
      ],
      "name": "hasVotedForPosition",
      "outputs": [
        {
          "internalType": "bool",
          "name": "",
          "type": "bool"
        }
      ],
      "stateMutability": "view",
      "type": "function"
    },
    {
      "inputs": [],
      "name": "hasVotingEnded",
      "outputs": [
        {
          "internalType": "bool",
          "name": "",
          "type": "bool"
        }
      ],
      "stateMutability": "view",
      "type": "function"
    },
    {
      "inputs": [
        {
          "internalType": "string",
          "name": "_idNumber",
          "type": "string"
        }
      ],
      "name": "isCandidateRegistered",
      "outputs": [
        {
          "internalType": "bool",
          "name": "",
          "type": "bool"
        }
      ],
      "stateMutability": "view",
      "type": "function"
    },
    {
      "inputs": [
        {
          "internalType": "address",
          "name": "_account",
          "type": "address"
        }
      ],
      "name": "isVoterRegistered",
      "outputs": [
        {
          "internalType": "bool",
          "name": "",
          "type": "bool"
        }
      ],
      "stateMutability": "view",
      "type": "function"
    },
    {
      "inputs": [
        {
          "internalType": "uint256",
          "name": "",
          "type": "uint256"
        }
      ],
      "name": "listOfCandidates",
      "outputs": [
        {
          "internalType": "string",
          "name": "names",
          "type": "string"
        },
        {
          "internalType": "uint256",
          "name": "age",
          "type": "uint256"
        },
        {
          "internalType": "string",
          "name": "idNumber",
          "type": "string"
        },
        {
          "internalType": "string",
          "name": "party",
          "type": "string"
        },
        {
          "internalType": "uint256",
          "name": "votes",
          "type": "uint256"
        },
        {
          "internalType": "bool",
          "name": "verified",
          "type": "bool"
        },
        {
          "internalType": "string",
          "name": "position",
          "type": "string"
        },
        {
          "components": [
            {
              "internalType": "string",
              "name": "education",
              "type": "string"
            },
            {
              "internalType": "string",
              "name": "achievements",
              "type": "string"
            },
            {
              "internalType": "string",
              "name": "experience",
              "type": "string"
            },
            {
              "internalType": "string",
              "name": "policies",
              "type": "string"
            }
          ],
          "internalType": "struct Voting.Profile",
          "name": "profile",
          "type": "tuple"
        }
      ],
      "stateMutability": "view",
      "type": "function"
    },
    {
      "inputs": [
        {
          "internalType": "uint256",
          "name": "",
          "type": "uint256"
        }
      ],
      "name": "listOfPositions",
      "outputs": [
        {
          "internalType": "string",
          "name": "pName",
          "type": "string"
        }
      ],
      "stateMutability": "view",
      "type": "function"
    },
    {
      "inputs": [
        {
          "internalType": "uint256",
          "name": "",
          "type": "uint256"
        }
      ],
      "name": "listOfVoters",
      "outputs": [
        {
          "internalType": "string",
          "name": "names",
          "type": "string"
        },
        {
          "internalType": "uint256",
          "name": "age",
          "type": "uint256"
        },
        {
          "internalType": "string",
          "name": "idNumber",
          "type": "string"
        },
        {
          "internalType": "bool",
          "name": "voted",
          "type": "bool"
        }
      ],
      "stateMutability": "view",
      "type": "function"
    },
    {
      "inputs": [],
      "name": "name",
      "outputs": [
        {
          "internalType": "string",
          "name": "",
          "type": "string"
        }
      ],
      "stateMutability": "view",
      "type": "function"
    },
    {
      "inputs": [],
      "name": "owner",
      "outputs": [
        {
          "internalType": "address",
          "name": "",
          "type": "address"
        }
      ],
      "stateMutability": "view",
      "type": "function"
    },
    {
      "inputs": [
        {
          "internalType": "string",
          "name": "",
          "type": "string"
        }
      ],
      "name": "positions",
      "outputs": [
        {
          "internalType": "string",
          "name": "pName",
          "type": "string"
        }
      ],
      "stateMutability": "view",
      "type": "function"
    },
    {
      "inputs": [
        {
          "internalType": "string",
          "name": "_names",
          "type": "string"
        },
        {
          "internalType": "uint256",
          "name": "_age",
          "type": "uint256"
        },
        {
          "internalType": "string",
          "name": "_idNumber",
          "type": "string"
        },
        {
          "internalType": "string",
          "name": "_party",
          "type": "string"
        },
        {
          "internalType": "string",
          "name": "_position",
          "type": "string"
        },
        {
          "internalType": "string",
          "name": "_education",
          "type": "string"
        },
        {
          "internalType": "string",
          "name": "_achievements",
          "type": "string"
        },
        {
          "internalType": "string",
          "name": "_experience",
          "type": "string"
        },
        {
          "internalType": "string",
          "name": "_policies",
          "type": "string"
        }
      ],
      "name": "registerCandidate",
      "outputs": [],
      "stateMutability": "nonpayable",
      "type": "function"
    },
    {
      "inputs": [
        {
          "internalType": "string",
          "name": "_names",
          "type": "string"
        },
        {
          "internalType": "uint256",
          "name": "_age",
          "type": "uint256"
        },
        {
          "internalType": "string",
          "name": "_idNumber",
          "type": "string"
        }
      ],
      "name": "registerVoter",
      "outputs": [
        {
          "internalType": "bool",
          "name": "",
          "type": "bool"
        }
      ],
      "stateMutability": "nonpayable",
      "type": "function"
    },
    {
      "inputs": [],
      "name": "registrationStarted",
      "outputs": [
        {
          "internalType": "bool",
          "name": "",
          "type": "bool"
        }
      ],
      "stateMutability": "view",
      "type": "function"
    },
    {
      "inputs": [
        {
          "internalType": "string",
          "name": "_idNumber",
          "type": "string"
        }
      ],
      "name": "rejectCandidate",
      "outputs": [],
      "stateMutability": "nonpayable",
      "type": "function"
    },
    {
      "inputs": [],
      "name": "startRegistration",
      "outputs": [],
      "stateMutability": "nonpayable",
      "type": "function"
    },
    {
      "inputs": [],
      "name": "symbol",
      "outputs": [
        {
          "internalType": "string",
          "name": "",
          "type": "string"
        }
      ],
      "stateMutability": "view",
      "type": "function"
    },
    {
      "inputs": [],
      "name": "totalSupply",
      "outputs": [
        {
          "internalType": "uint256",
          "name": "",
          "type": "uint256"
        }
      ],
      "stateMutability": "view",
      "type": "function"
    },
    {
      "inputs": [
        {
          "internalType": "address",
          "name": "to",
          "type": "address"
        },
        {
          "internalType": "uint256",
          "name": "value",
          "type": "uint256"
        }
      ],
      "name": "transfer",
      "outputs": [
        {
          "internalType": "bool",
          "name": "",
          "type": "bool"
        }
      ],
      "stateMutability": "nonpayable",
      "type": "function"
    },
    {
      "inputs": [
        {
          "internalType": "address",
          "name": "from",
          "type": "address"
        },
        {
          "internalType": "address",
          "name": "to",
          "type": "address"
        },
        {
          "internalType": "uint256",
          "name": "value",
          "type": "uint256"
        }
      ],
      "name": "transferFrom",
      "outputs": [
        {
          "internalType": "bool",
          "name": "",
          "type": "bool"
        }
      ],
      "stateMutability": "nonpayable",
      "type": "function"
    },
    {
      "inputs": [
        {
          "internalType": "string",
          "name": "_idNumber",
          "type": "string"
        }
      ],
      "name": "verifyCandidate",
      "outputs": [],
      "stateMutability": "nonpayable",
      "type": "function"
    },
    {
      "inputs": [
        {
          "internalType": "bytes32",
          "name": "hash",
          "type": "bytes32"
        },
        {
          "internalType": "bytes",
          "name": "signature",
          "type": "bytes"
        }
      ],
      "name": "verifySignature",
      "outputs": [
        {
          "internalType": "bool",
          "name": "",
          "type": "bool"
        }
      ],
      "stateMutability": "view",
      "type": "function"
    },
    {
      "inputs": [
        {
          "internalType": "string",
          "name": "position",
          "type": "string"
        },
        {
          "internalType": "uint256",
          "name": "candidateIndex",
          "type": "uint256"
        }
      ],
      "name": "vote",
      "outputs": [],
      "stateMutability": "nonpayable",
      "type": "function"
    },
    {
      "inputs": [
        {
          "internalType": "string",
          "name": "",
          "type": "string"
        }
      ],
      "name": "voterObject",
      "outputs": [
        {
          "internalType": "string",
          "name": "names",
          "type": "string"
        },
        {
          "internalType": "uint256",
          "name": "age",
          "type": "uint256"
        },
        {
          "internalType": "string",
          "name": "idNumber",
          "type": "string"
        },
        {
          "internalType": "bool",
          "name": "voted",
          "type": "bool"
        }
      ],
      "stateMutability": "view",
      "type": "function"
    },
    {
      "inputs": [
        {
          "internalType": "address",
          "name": "",
          "type": "address"
        }
      ],
      "name": "voters",
      "outputs": [
        {
          "internalType": "string",
          "name": "names",
          "type": "string"
        },
        {
          "internalType": "uint256",
          "name": "age",
          "type": "uint256"
        },
        {
          "internalType": "string",
          "name": "idNumber",
          "type": "string"
        },
        {
          "internalType": "bool",
          "name": "voted",
          "type": "bool"
        }
      ],
      "stateMutability": "view",
      "type": "function"
    },
    {
      "inputs": [],
      "name": "votingEndTime",
      "outputs": [
        {
          "internalType": "uint256",
          "name": "",
          "type": "uint256"
        }
      ],
      "stateMutability": "view",
      "type": "function"
    },
    {
      "inputs": [],
      "name": "votingStarted",
      "outputs": [
        {
          "internalType": "bool",
          "name": "",
          "type": "bool"
        }
      ],
      "stateMutability": "view",
      "type": "function"
    }
  ],
  "bytecode": "0x60806040526000601060006101000a81548160ff0219169083151502179055506000601060016101000a81548160ff02191690831515021790555034801561004657600080fd5b506040518060400160405280600581526020017f566f7465780000000000000000000000000000000000000000000000000000008152506040518060400160405280600481526020017f56544b4e0000000000000000000000000000000000000000000000000000000081525081600390816100c2919061036b565b5080600490816100d2919061036b565b50505033600560006101000a81548173ffffffffffffffffffffffffffffffffffffffff021916908373ffffffffffffffffffffffffffffffffffffffff16021790555061043d565b600081519050919050565b7f4e487b7100000000000000000000000000000000000000000000000000000000600052604160045260246000fd5b7f4e487b7100000000000000000000000000000000000000000000000000000000600052602260045260246000fd5b6000600282049050600182168061019c57607f821691505b6020821081036101af576101ae610155565b5b50919050565b60008190508160005260206000209050919050565b60006020601f8301049050919050565b600082821b905092915050565b6000600883026102177fffffffffffffffffffffffffffffffffffffffffffffffffffffffffffffffff826101da565b61022186836101da565b95508019841693508086168417925050509392505050565b6000819050919050565b6000819050919050565b600061026861026361025e84610239565b610243565b610239565b9050919050565b6000819050919050565b6102828361024d565b61029661028e8261026f565b8484546101e7565b825550505050565b600090565b6102ab61029e565b6102b6818484610279565b505050565b5b818110156102da576102cf6000826102a3565b6001810190506102bc565b5050565b601f82111561031f576102f0816101b5565b6102f9846101ca565b81016020851015610308578190505b61031c610314856101ca565b8301826102bb565b50505b505050565b600082821c905092915050565b600061034260001984600802610324565b1980831691505092915050565b600061035b8383610331565b9150826002028217905092915050565b6103748261011b565b67ffffffffffffffff81111561038d5761038c610126565b5b6103978254610184565b6103a28282856102de565b600060209050601f8311600181146103d557600084156103c3578287015190505b6103cd858261034f565b865550610435565b601f1984166103e3866101b5565b60005b8281101561040b578489015182556001820191506020850194506020810190506103e6565b868310156104285784890151610424601f891682610331565b8355505b6001600288020188555050505b505050505050565b618a418061044c6000396000f3fe608060405234801561001057600080fd5b506004361061027f5760003560e01c8063816834761161015c578063a9059cbb116100ce578063c684706011610087578063c684706014610819578063cdd7225314610849578063daca6f7814610867578063dd62ed3e14610897578063eb2119db146108c7578063ffdd7496146108f75761027f565b8063a9059cbb1461076b578063abceaad21461079b578063b034d2b3146107b7578063b1bf87b0146107d3578063be94ced7146107f1578063c3403ddf1461080f5761027f565b806395d89b411161012057806395d89b41146106935780639a53cbea146106b15780639cc9e521146106e45780639dfa906514610700578063a3ec138d1461071c578063a63858031461074f5761027f565b806381683476146105d257806383d948b7146105f05780638ad1782b1461060e5780638da5cb5b1461063e57806392d7df4a1461065c5761027f565b806332cb6b0c116101f5578063565e802a116101b9578063565e802a146104b25780635fbcc155146104e25780636636b91e14610512578063676f86b01461054257806370a082311461057257806371a6f465146105a25761027f565b806332cb6b0c146103f75780633dd079c0146104155780634902a179146104335780634a66e1ab1461044f5780635041832e146104825761027f565b806318f56a0a1161024757806318f56a0a146103185780631c64a33e146103365780631ea736e01461036d57806323b872dd1461038b57806327aed42e146103bb578063313ce567146103d95761027f565b806306a49fce1461028457806306fdde03146102a2578063095ea7b3146102c057806310b86695146102f057806318160ddd146102fa575b600080fd5b61028c610915565b6040516102999190616100565b60405180910390f35b6102aa610e48565b6040516102b7919061616c565b60405180910390f35b6102da60048036038101906102d5919061622c565b610eda565b6040516102e7919061627b565b60405180910390f35b6102f8610efd565b005b610302611076565b60405161030f91906162a5565b60405180910390f35b610320611080565b60405161032d919061644c565b60405180910390f35b610350600480360381019061034b91906165a3565b6116a4565b604051610364989796959493929190616664565b60405180910390f35b610375611b81565b60405161038291906162a5565b60405180910390f35b6103a560048036038101906103a09190616705565b611b87565b6040516103b2919061627b565b60405180910390f35b6103c3611bb6565b6040516103d0919061627b565b60405180910390f35b6103e1611bc9565b6040516103ee9190616774565b60405180910390f35b6103ff611bd2565b60405161040c91906162a5565b60405180910390f35b61041d611be0565b60405161042a919061627b565b60405180910390f35b61044d6004803603810190610448919061678f565b611c05565b005b610469600480360381019061046491906165a3565b611de5565b60405161047994939291906167bc565b60405180910390f35b61049c600480360381019061049791906165a3565b611f48565b6040516104a9919061680f565b60405180910390f35b6104cc60048036038101906104c791906165a3565b6121cb565b6040516104d9919061627b565b60405180910390f35b6104fc60048036038101906104f79190616831565b612204565b604051610509919061692b565b60405180910390f35b61052c60048036038101906105279190616946565b612273565b604051610539919061627b565b60405180910390f35b61055c600480360381019061055791906165a3565b612648565b604051610569919061616c565b60405180910390f35b61058c600480360381019061058791906169d1565b612704565b60405161059991906162a5565b60405180910390f35b6105bc60048036038101906105b7919061678f565b61274c565b6040516105c9919061616c565b60405180910390f35b6105da612802565b6040516105e791906162a5565b60405180910390f35b6105f861280f565b604051610605919061627b565b60405180910390f35b610628600480360381019061062391906169fe565b612822565b604051610635919061627b565b60405180910390f35b610646612867565b6040516106539190616a69565b60405180910390f35b6106766004803603810190610671919061678f565b61288d565b60405161068a989796959493929190616664565b60405180910390f35b61069b612d64565b6040516106a8919061616c565b60405180910390f35b6106cb60048036038101906106c6919061678f565b612df6565b6040516106db94939291906167bc565b60405180910390f35b6106fe60048036038101906106f99190616a84565b612f53565b005b61071a600480360381019061071591906165a3565b613579565b005b610736600480360381019061073191906169d1565b613818565b60405161074694939291906167bc565b60405180910390f35b61076960048036038101906107649190616c2e565b613965565b005b6107856004803603810190610780919061622c565b614020565b604051610792919061627b565b60405180910390f35b6107b560048036038101906107b09190616d70565b614043565b005b6107d160048036038101906107cc91906165a3565b61437a565b005b6107db61486e565b6040516107e891906162a5565b60405180910390f35b6107f9614878565b60405161080691906162a5565b60405180910390f35b610817614884565b005b610833600480360381019061082e91906169fe565b614a13565b604051610840919061627b565b60405180910390f35b610851614a86565b60405161085e9190616ee5565b60405180910390f35b610881600480360381019061087c9190616fd4565b614c2e565b60405161088e919061627b565b60405180910390f35b6108b160048036038101906108ac9190617030565b614ca1565b6040516108be91906162a5565b60405180910390f35b6108e160048036038101906108dc91906169d1565b614d28565b6040516108ee919061627b565b60405180910390f35b6108ff614d83565b60405161090c91906162a5565b60405180910390f35b60606008805480602002602001604051908101604052809291908181526020016000905b82821015610e3f57838290600052602060002090600b02016040518061010001604052908160008201805461096d9061709f565b80601f01602080910402602001604051908101604052809291908181526020018280546109999061709f565b80156109e65780601f106109bb576101008083540402835291602001916109e6565b820191906000526020600020905b8154815290600101906020018083116109c957829003601f168201915b5050505050815260200160018201548152602001600282018054610a099061709f565b80601f0160208091040260200160405190810160405280929190818152602001828054610a359061709f565b8015610a825780601f10610a5757610100808354040283529160200191610a82565b820191906000526020600020905b815481529060010190602001808311610a6557829003601f168201915b50505050508152602001600382018054610a9b9061709f565b80601f0160208091040260200160405190810160405280929190818152602001828054610ac79061709f565b8015610b145780601f10610ae957610100808354040283529160200191610b14565b820191906000526020600020905b815481529060010190602001808311610af757829003601f168201915b50505050508152602001600482015481526020016005820160009054906101000a900460ff16151515158152602001600682018054610b529061709f565b80601f0160208091040260200160405190810160405280929190818152602001828054610b7e9061709f565b8015610bcb5780601f10610ba057610100808354040283529160200191610bcb565b820191906000526020600020905b815481529060010190602001808311610bae57829003601f168201915b5050505050815260200160078201604051806080016040529081600082018054610bf49061709f565b80601f0160208091040260200160405190810160405280929190818152602001828054610c209061709f565b8015610c6d5780601f10610c4257610100808354040283529160200191610c6d565b820191906000526020600020905b815481529060010190602001808311610c5057829003601f168201915b50505050508152602001600182018054610c869061709f565b80601f0160208091040260200160405190810160405280929190818152602001828054610cb29061709f565b8015610cff5780601f10610cd457610100808354040283529160200191610cff565b820191906000526020600020905b815481529060010190602001808311610ce257829003601f168201915b50505050508152602001600282018054610d189061709f565b80601f0160208091040260200160405190810160405280929190818152602001828054610d449061709f565b8015610d915780601f10610d6657610100808354040283529160200191610d91565b820191906000526020600020905b815481529060010190602001808311610d7457829003601f168201915b50505050508152602001600382018054610daa9061709f565b80601f0160208091040260200160405190810160405280929190818152602001828054610dd69061709f565b8015610e235780601f10610df857610100808354040283529160200191610e23565b820191906000526020600020905b815481529060010190602001808311610e0657829003601f168201915b5050505050815250508152505081526020019060010190610939565b50505050905090565b606060038054610e579061709f565b80601f0160208091040260200160405190810160405280929190818152602001828054610e839061709f565b8015610ed05780601f10610ea557610100808354040283529160200191610ed0565b820191906000526020600020905b815481529060010190602001808311610eb357829003601f168201915b5050505050905090565b600080610ee5614d8f565b9050610ef2818585614d97565b600191505092915050565b600560009054906101000a900473ffffffffffffffffffffffffffffffffffffffff1673ffffffffffffffffffffffffffffffffffffffff163373ffffffffffffffffffffffffffffffffffffffff1614610f8d576040517f08c379a0000000000000000000000000000000000000000000000000000000008152600401610f849061711c565b60405180910390fd5b601060009054906101000a900460ff1615610fdd576040517f08c379a0000000000000000000000000000000000000000000000000000000008152600401610fd4906171ae565b60405180910390fd5b601060019054906101000a900460ff161561102d576040517f08c379a000000000000000000000000000000000000000000000000000000000815260040161102490617240565b60405180910390fd5b6001601060006101000a81548160ff0219169083151502179055507f82e6c84abd647d1b4fae9bee1859f2642e5443af0ff900d4af83a93c2bf4151260405160405180910390a1565b6000600254905090565b60606009805480602002602001604051908101604052809291908181526020016000905b8282101561169b57838290600052602060002090600202016040518060400160405290816000820180546110d79061709f565b80601f01602080910402602001604051908101604052809291908181526020018280546111039061709f565b80156111505780601f1061112557610100808354040283529160200191611150565b820191906000526020600020905b81548152906001019060200180831161113357829003601f168201915b5050505050815260200160018201805480602002602001604051908101604052809291908181526020016000905b8282101561168457838290600052602060002090600b0201604051806101000160405290816000820180546111b29061709f565b80601f01602080910402602001604051908101604052809291908181526020018280546111de9061709f565b801561122b5780601f106112005761010080835404028352916020019161122b565b820191906000526020600020905b81548152906001019060200180831161120e57829003601f168201915b505050505081526020016001820154815260200160028201805461124e9061709f565b80601f016020809104026020016040519081016040528092919081815260200182805461127a9061709f565b80156112c75780601f1061129c576101008083540402835291602001916112c7565b820191906000526020600020905b8154815290600101906020018083116112aa57829003601f168201915b505050505081526020016003820180546112e09061709f565b80601f016020809104026020016040519081016040528092919081815260200182805461130c9061709f565b80156113595780601f1061132e57610100808354040283529160200191611359565b820191906000526020600020905b81548152906001019060200180831161133c57829003601f168201915b50505050508152602001600482015481526020016005820160009054906101000a900460ff161515151581526020016006820180546113979061709f565b80601f01602080910402602001604051908101604052809291908181526020018280546113c39061709f565b80156114105780601f106113e557610100808354040283529160200191611410565b820191906000526020600020905b8154815290600101906020018083116113f357829003601f168201915b50505050508152602001600782016040518060800160405290816000820180546114399061709f565b80601f01602080910402602001604051908101604052809291908181526020018280546114659061709f565b80156114b25780601f10611487576101008083540402835291602001916114b2565b820191906000526020600020905b81548152906001019060200180831161149557829003601f168201915b505050505081526020016001820180546114cb9061709f565b80601f01602080910402602001604051908101604052809291908181526020018280546114f79061709f565b80156115445780601f1061151957610100808354040283529160200191611544565b820191906000526020600020905b81548152906001019060200180831161152757829003601f168201915b5050505050815260200160028201805461155d9061709f565b80601f01602080910402602001604051908101604052809291908181526020018280546115899061709f565b80156115d65780601f106115ab576101008083540402835291602001916115d6565b820191906000526020600020905b8154815290600101906020018083116115b957829003601f168201915b505050505081526020016003820180546115ef9061709f565b80601f016020809104026020016040519081016040528092919081815260200182805461161b9061709f565b80156116685780601f1061163d57610100808354040283529160200191611668565b820191906000526020600020905b81548152906001019060200180831161164b57829003601f168201915b505050505081525050815250508152602001906001019061117e565b5050505081525050815260200190600101906110a4565b50505050905090565b600b818051602081018201805184825260208301602085012081835280955050505050506000915090508060000180546116dd9061709f565b80601f01602080910402602001604051908101604052809291908181526020018280546117099061709f565b80156117565780601f1061172b57610100808354040283529160200191611756565b820191906000526020600020905b81548152906001019060200180831161173957829003601f168201915b5050505050908060010154908060020180546117719061709f565b80601f016020809104026020016040519081016040528092919081815260200182805461179d9061709f565b80156117ea5780601f106117bf576101008083540402835291602001916117ea565b820191906000526020600020905b8154815290600101906020018083116117cd57829003601f168201915b5050505050908060030180546117ff9061709f565b80601f016020809104026020016040519081016040528092919081815260200182805461182b9061709f565b80156118785780601f1061184d57610100808354040283529160200191611878565b820191906000526020600020905b81548152906001019060200180831161185b57829003601f168201915b5050505050908060040154908060050160009054906101000a900460ff16908060060180546118a69061709f565b80601f01602080910402602001604051908101604052809291908181526020018280546118d29061709f565b801561191f5780601f106118f45761010080835404028352916020019161191f565b820191906000526020600020905b81548152906001019060200180831161190257829003601f168201915b505050505090806007016040518060800160405290816000820180546119449061709f565b80601f01602080910402602001604051908101604052809291908181526020018280546119709061709f565b80156119bd5780601f10611992576101008083540402835291602001916119bd565b820191906000526020600020905b8154815290600101906020018083116119a057829003601f168201915b505050505081526020016001820180546119d69061709f565b80601f0160208091040260200160405190810160405280929190818152602001828054611a029061709f565b8015611a4f5780601f10611a2457610100808354040283529160200191611a4f565b820191906000526020600020905b815481529060010190602001808311611a3257829003601f168201915b50505050508152602001600282018054611a689061709f565b80601f0160208091040260200160405190810160405280929190818152602001828054611a949061709f565b8015611ae15780601f10611ab657610100808354040283529160200191611ae1565b820191906000526020600020905b815481529060010190602001808311611ac457829003601f168201915b50505050508152602001600382018054611afa9061709f565b80601f0160208091040260200160405190810160405280929190818152602001828054611b269061709f565b8015611b735780601f10611b4857610100808354040283529160200191611b73565b820191906000526020600020905b815481529060010190602001808311611b5657829003601f168201915b505050505081525050905088565b60065481565b600080611b92614d8f565b9050611b9f858285614da9565b611baa858585614e3d565b60019150509392505050565b601060009054906101000a900460ff1681565b60006012905090565b69d3c21bcecceda100000081565b6000601060019054906101000a900460ff168015611c0057506006544210155b905090565b600560009054906101000a900473ffffffffffffffffffffffffffffffffffffffff1673ffffffffffffffffffffffffffffffffffffffff163373ffffffffffffffffffffffffffffffffffffffff1614611c95576040517f08c379a0000000000000000000000000000000000000000000000000000000008152600401611c8c9061711c565b60405180910390fd5b601060009054906101000a900460ff16611ce4576040517f08c379a0000000000000000000000000000000000000000000000000000000008152600401611cdb906172d2565b60405180910390fd5b601060019054906101000a900460ff1615611d34576040517f08c379a0000000000000000000000000000000000000000000000000000000008152600401611d2b9061733e565b60405180910390fd5b6000601060006101000a81548160ff0219169083151502179055506001601060016101000a81548160ff0219169083151502179055506201518081611d79919061738d565b42611d8491906173cf565b6006819055507f2ee88f50f05558e39b34a18214ff6a6adc091504772084c6ce7899354bec0aa460405160405180910390a17f877e2548498f42b7975a186b94ef1d32c86d420b7b806dd2be2bea293b89590460405160405180910390a150565b600a81805160208101820180518482526020830160208501208183528095505050505050600091509050806000018054611e1e9061709f565b80601f0160208091040260200160405190810160405280929190818152602001828054611e4a9061709f565b8015611e975780601f10611e6c57610100808354040283529160200191611e97565b820191906000526020600020905b815481529060010190602001808311611e7a57829003601f168201915b505050505090806001015490806002018054611eb29061709f565b80601f0160208091040260200160405190810160405280929190818152602001828054611ede9061709f565b8015611f2b5780601f10611f0057610100808354040283529160200191611f2b565b820191906000526020600020905b815481529060010190602001808311611f0e57829003601f168201915b5050505050908060030160009054906101000a900460ff16905084565b611f50615ba4565b600b82604051611f60919061743f565b9081526020016040518091039020600701604051806080016040529081600082018054611f8c9061709f565b80601f0160208091040260200160405190810160405280929190818152602001828054611fb89061709f565b80156120055780601f10611fda57610100808354040283529160200191612005565b820191906000526020600020905b815481529060010190602001808311611fe857829003601f168201915b5050505050815260200160018201805461201e9061709f565b80601f016020809104026020016040519081016040528092919081815260200182805461204a9061709f565b80156120975780601f1061206c57610100808354040283529160200191612097565b820191906000526020600020905b81548152906001019060200180831161207a57829003601f168201915b505050505081526020016002820180546120b09061709f565b80601f01602080910402602001604051908101604052809291908181526020018280546120dc9061709f565b80156121295780601f106120fe57610100808354040283529160200191612129565b820191906000526020600020905b81548152906001019060200180831161210c57829003601f168201915b505050505081526020016003820180546121429061709f565b80601f016020809104026020016040519081016040528092919081815260200182805461216e9061709f565b80156121bb5780601f10612190576101008083540402835291602001916121bb565b820191906000526020600020905b81548152906001019060200180831161219e57829003601f168201915b5050505050815250509050919050565b600080600b836040516121de919061743f565b908152602001604051809103902060000180546121fa9061709f565b9050119050919050565b6000856122288873ffffffffffffffffffffffffffffffffffffffff166014614f31565b868661223387615177565b61223c87615177565b60405160200161225196959493929190617702565b6040516020818303038152906040528051906020012090509695505050505050565b6000601060009054906101000a900460ff166122c4576040517f08c379a00000000000000000000000000000000000000000000000000000000081526004016122bb906172d2565b60405180910390fd5b601060019054906101000a900460ff1615612314576040517f08c379a000000000000000000000000000000000000000000000000000000000815260040161230b9061785b565b60405180910390fd5b6000600a83604051612326919061743f565b908152602001604051809103902060000180546123429061709f565b905014612384576040517f08c379a000000000000000000000000000000000000000000000000000000000815260040161237b906178c7565b60405180910390fd5b6000600d60003373ffffffffffffffffffffffffffffffffffffffff1673ffffffffffffffffffffffffffffffffffffffff1681526020019081526020016000206001015414612409576040517f08c379a000000000000000000000000000000000000000000000000000000000815260040161240090617959565b60405180910390fd5b60006040518060800160405280868152602001858152602001848152602001600015158152509050600781908060018154018082558091505060019003906000526020600020906004020160009091909190915060008201518160000190816124729190617b25565b506020820151816001015560408201518160020190816124929190617b25565b5060608201518160030160006101000a81548160ff021916908315150217905550505080600a846040516124c6919061743f565b908152602001604051809103902060008201518160000190816124e99190617b25565b506020820151816001015560408201518160020190816125099190617b25565b5060608201518160030160006101000a81548160ff02191690831515021790555090505080600d60003373ffffffffffffffffffffffffffffffffffffffff1673ffffffffffffffffffffffffffffffffffffffff16815260200190815260200160002060008201518160000190816125829190617b25565b506020820151816001015560408201518160020190816125a29190617b25565b5060608201518160030160006101000a81548160ff0219169083151502179055509050506125d833674563918244f40000615245565b50826040516125e7919061743f565b6040518091039020856040516125fd919061743f565b60405180910390207f754a5f7c9336f3562d73dacebf51de10da957ae9dfcae4fbfb93733ece3dd5aa8660405161263491906162a5565b60405180910390a360019150509392505050565b600c818051602081018201805184825260208301602085012081835280955050505050506000915090508060000180546126819061709f565b80601f01602080910402602001604051908101604052809291908181526020018280546126ad9061709f565b80156126fa5780601f106126cf576101008083540402835291602001916126fa565b820191906000526020600020905b8154815290600101906020018083116126dd57829003601f168201915b5050505050905081565b60008060008373ffffffffffffffffffffffffffffffffffffffff1673ffffffffffffffffffffffffffffffffffffffff168152602001908152602001600020549050919050565b6009818154811061275c57600080fd5b906000526020600020906002020160009150905080600001805461277f9061709f565b80601f01602080910402602001604051908101604052809291908181526020018280546127ab9061709f565b80156127f85780601f106127cd576101008083540402835291602001916127f8565b820191906000526020600020905b8154815290600101906020018083116127db57829003601f168201915b5050505050905081565b6000600980549050905090565b601060019054906101000a900460ff1681565b600f602052816000526040600020818051602081018201805184825260208301602085012081835280955050505050506000915091509054906101000a900460ff1681565b600560009054906101000a900473ffffffffffffffffffffffffffffffffffffffff1681565b6008818154811061289d57600080fd5b90600052602060002090600b02016000915090508060000180546128c09061709f565b80601f01602080910402602001604051908101604052809291908181526020018280546128ec9061709f565b80156129395780601f1061290e57610100808354040283529160200191612939565b820191906000526020600020905b81548152906001019060200180831161291c57829003601f168201915b5050505050908060010154908060020180546129549061709f565b80601f01602080910402602001604051908101604052809291908181526020018280546129809061709f565b80156129cd5780601f106129a2576101008083540402835291602001916129cd565b820191906000526020600020905b8154815290600101906020018083116129b057829003601f168201915b5050505050908060030180546129e29061709f565b80601f0160208091040260200160405190810160405280929190818152602001828054612a0e9061709f565b8015612a5b5780601f10612a3057610100808354040283529160200191612a5b565b820191906000526020600020905b815481529060010190602001808311612a3e57829003601f168201915b5050505050908060040154908060050160009054906101000a900460ff1690806006018054612a899061709f565b80601f0160208091040260200160405190810160405280929190818152602001828054612ab59061709f565b8015612b025780601f10612ad757610100808354040283529160200191612b02565b820191906000526020600020905b815481529060010190602001808311612ae557829003601f168201915b50505050509080600701604051806080016040529081600082018054612b279061709f565b80601f0160208091040260200160405190810160405280929190818152602001828054612b539061709f565b8015612ba05780601f10612b7557610100808354040283529160200191612ba0565b820191906000526020600020905b815481529060010190602001808311612b8357829003601f168201915b50505050508152602001600182018054612bb99061709f565b80601f0160208091040260200160405190810160405280929190818152602001828054612be59061709f565b8015612c325780601f10612c0757610100808354040283529160200191612c32565b820191906000526020600020905b815481529060010190602001808311612c1557829003601f168201915b50505050508152602001600282018054612c4b9061709f565b80601f0160208091040260200160405190810160405280929190818152602001828054612c779061709f565b8015612cc45780601f10612c9957610100808354040283529160200191612cc4565b820191906000526020600020905b815481529060010190602001808311612ca757829003601f168201915b50505050508152602001600382018054612cdd9061709f565b80601f0160208091040260200160405190810160405280929190818152602001828054612d099061709f565b8015612d565780601f10612d2b57610100808354040283529160200191612d56565b820191906000526020600020905b815481529060010190602001808311612d3957829003601f168201915b505050505081525050905088565b606060048054612d739061709f565b80601f0160208091040260200160405190810160405280929190818152602001828054612d9f9061709f565b8015612dec5780601f10612dc157610100808354040283529160200191612dec565b820191906000526020600020905b815481529060010190602001808311612dcf57829003601f168201915b5050505050905090565b60078181548110612e0657600080fd5b9060005260206000209060040201600091509050806000018054612e299061709f565b80601f0160208091040260200160405190810160405280929190818152602001828054612e559061709f565b8015612ea25780601f10612e7757610100808354040283529160200191612ea2565b820191906000526020600020905b815481529060010190602001808311612e8557829003601f168201915b505050505090806001015490806002018054612ebd9061709f565b80601f0160208091040260200160405190810160405280929190818152602001828054612ee99061709f565b8015612f365780601f10612f0b57610100808354040283529160200191612f36565b820191906000526020600020905b815481529060010190602001808311612f1957829003601f168201915b5050505050908060030160009054906101000a900460ff16905084565b601060009054906101000a900460ff16612fa2576040517f08c379a0000000000000000000000000000000000000000000000000000000008152600401612f99906172d2565b60405180910390fd5b601060019054906101000a900460ff1615612ff2576040517f08c379a0000000000000000000000000000000000000000000000000000000008152600401612fe99061785b565b60405180910390fd5b6000600b88604051613004919061743f565b908152602001604051809103902060000180546130209061709f565b905014613062576040517f08c379a000000000000000000000000000000000000000000000000000000000815260040161305990617c43565b60405180910390fd5b6000600a88604051613074919061743f565b908152602001604051809103902060000180546130909061709f565b9050036130d2576040517f08c379a00000000000000000000000000000000000000000000000000000000081526004016130c990617caf565b60405180910390fd5b60006040518061010001604052808b81526020018a815260200189815260200188815260200160008152602001600015158152602001878152602001604051806080016040528088815260200187815260200186815260200185815250815250905060088190806001815401808255809150506001900390600052602060002090600b020160009091909190915060008201518160000190816131759190617b25565b506020820151816001015560408201518160020190816131959190617b25565b5060608201518160030190816131ab9190617b25565b506080820151816004015560a08201518160050160006101000a81548160ff02191690831515021790555060c08201518160060190816131eb9190617b25565b5060e082015181600701600082015181600001908161320a9190617b25565b5060208201518160010190816132209190617b25565b5060408201518160020190816132369190617b25565b50606082015181600301908161324c9190617b25565b505050505080600b89604051613262919061743f565b908152602001604051809103902060008201518160000190816132859190617b25565b506020820151816001015560408201518160020190816132a59190617b25565b5060608201518160030190816132bb9190617b25565b506080820151816004015560a08201518160050160006101000a81548160ff02191690831515021790555060c08201518160060190816132fb9190617b25565b5060e082015181600701600082015181600001908161331a9190617b25565b5060208201518160010190816133309190617b25565b5060408201518160020190816133469190617b25565b50606082015181600301908161335c9190617b25565b5050509050506000600c87604051613374919061743f565b90815260200160405180910390206001018054905010156133ca576040517f08c379a00000000000000000000000000000000000000000000000000000000081526004016133c190617d1b565b60405180910390fd5b600c866040516133da919061743f565b90815260200160405180910390206001018190806001815401808255809150506001900390600052602060002090600b0201600090919091909150600082015181600001908161342a9190617b25565b5060208201518160010155604082015181600201908161344a9190617b25565b5060608201518160030190816134609190617b25565b506080820151816004015560a08201518160050160006101000a81548160ff02191690831515021790555060c08201518160060190816134a09190617b25565b5060e08201518160070160008201518160000190816134bf9190617b25565b5060208201518160010190816134d59190617b25565b5060408201518160020190816134eb9190617b25565b5060608201518160030190816135019190617b25565b505050505087604051613514919061743f565b60405180910390208a60405161352a919061743f565b60405180910390207fd9f17a5389d6109c78413a18e9adfec5a898c288bbd8c9e65de38e95f04b9e078b8a8a60405161356593929190617d3b565b60405180910390a350505050505050505050565b600560009054906101000a900473ffffffffffffffffffffffffffffffffffffffff1673ffffffffffffffffffffffffffffffffffffffff163373ffffffffffffffffffffffffffffffffffffffff1614613609576040517f08c379a00000000000000000000000000000000000000000000000000000000081526004016136009061711c565b60405180910390fd5b600b81604051613619919061743f565b908152602001604051809103902060050160009054906101000a900460ff1615613678576040517f08c379a000000000000000000000000000000000000000000000000000000000815260040161366f90617dcc565b60405180910390fd5b6001600b8260405161368a919061743f565b908152602001604051809103902060050160006101000a81548160ff02191690831515021790555060005b60088054905081101561378957816040516020016136d3919061743f565b60405160208183030381529060405280519060200120600882815481106136fd576136fc617dec565b5b90600052602060002090600b020160020160405160200161371e9190617e9e565b604051602081830303815290604052805190602001200361377c5760016008828154811061374f5761374e617dec565b5b90600052602060002090600b020160050160006101000a81548160ff021916908315150217905550613789565b80806001019150506136b5565b5061379c33678ac7230489e80000615245565b50806040516137ab919061743f565b6040518091039020600b826040516137c3919061743f565b90815260200160405180910390206000016040516137e19190617e9e565b60405180910390207fb78543f054c768084f86f0e559d1e007998ca69729eeffc4b727baa388934a3260405160405180910390a350565b600d60205280600052604060002060009150905080600001805461383b9061709f565b80601f01602080910402602001604051908101604052809291908181526020018280546138679061709f565b80156138b45780601f10613889576101008083540402835291602001916138b4565b820191906000526020600020905b81548152906001019060200180831161389757829003601f168201915b5050505050908060010154908060020180546138cf9061709f565b80601f01602080910402602001604051908101604052809291908181526020018280546138fb9061709f565b80156139485780601f1061391d57610100808354040283529160200191613948565b820191906000526020600020905b81548152906001019060200180831161392b57829003601f168201915b5050505050908060030160009054906101000a900460ff16905084565b601060009054906101000a900460ff16156139b5576040517f08c379a00000000000000000000000000000000000000000000000000000000081526004016139ac90617f27565b60405180910390fd5b601060019054906101000a900460ff16613a04576040517f08c379a00000000000000000000000000000000000000000000000000000000081526004016139fb90617f93565b60405180910390fd5b6000600d60003373ffffffffffffffffffffffffffffffffffffffff1673ffffffffffffffffffffffffffffffffffffffff16815260200190815260200160002090507fa78b5858bb0b1b1a89861b226e2017f861eb09b440e6dccbbc3a4a11fde5bf0a33846000604051613a7b93929190617fff565b60405180910390a16000600c84604051613a95919061743f565b90815260200160405180910390206001018054905011613aea576040517f08c379a0000000000000000000000000000000000000000000000000000000008152600401613ae19061809c565b60405180910390fd5b7fa78b5858bb0b1b1a89861b226e2017f861eb09b440e6dccbbc3a4a11fde5bf0a33846000604051613b1e9392919061812e565b60405180910390a1600c83604051613b36919061743f565b9081526020016040518091039020600101805490508210613b8c576040517f08c379a0000000000000000000000000000000000000000000000000000000008152600401613b83906181cb565b60405180910390fd5b7fa78b5858bb0b1b1a89861b226e2017f861eb09b440e6dccbbc3a4a11fde5bf0a3384600f60003373ffffffffffffffffffffffffffffffffffffffff1673ffffffffffffffffffffffffffffffffffffffff16815260200190815260200160002086604051613bfc919061743f565b908152602001604051809103902060009054906101000a900460ff16604051613c279392919061825d565b60405180910390a1600f60003373ffffffffffffffffffffffffffffffffffffffff1673ffffffffffffffffffffffffffffffffffffffff16815260200190815260200160002083604051613c7c919061743f565b908152602001604051809103902060009054906101000a900460ff1615613cd8576040517f08c379a0000000000000000000000000000000000000000000000000000000008152600401613ccf90618320565b60405180910390fd5b6001600c84604051613cea919061743f565b90815260200160405180910390206001018381548110613d0d57613d0c617dec565b5b90600052602060002090600b02016004016000828254613d2d91906173cf565b925050819055506000600c84604051613d46919061743f565b90815260200160405180910390206001018381548110613d6957613d68617dec565b5b90600052602060002090600b02016002018054613d859061709f565b80601f0160208091040260200160405190810160405280929190818152602001828054613db19061709f565b8015613dfe5780601f10613dd357610100808354040283529160200191613dfe565b820191906000526020600020905b815481529060010190602001808311613de157829003601f168201915b5050505050905060005b600880549050811015613edb5781604051602001613e26919061743f565b6040516020818303038152906040528051906020012060088281548110613e5057613e4f617dec565b5b90600052602060002090600b0201600201604051602001613e719190617e9e565b6040516020818303038152906040528051906020012003613ece57600160088281548110613ea257613ea1617dec565b5b90600052602060002090600b02016004016000828254613ec291906173cf565b92505081905550613edb565b8080600101915050613e08565b506001600b82604051613eee919061743f565b90815260200160405180910390206004016000828254613f0e91906173cf565b925050819055506001600f60003373ffffffffffffffffffffffffffffffffffffffff1673ffffffffffffffffffffffffffffffffffffffff16815260200190815260200160002085604051613f64919061743f565b908152602001604051809103902060006101000a81548160ff0219169083151502179055503373ffffffffffffffffffffffffffffffffffffffff167f477d7faf347a03679fabd88feea150c41667473fc8412962f607fb7503f1bd43836002018686604051613fd6939291906183c4565b60405180910390a27fa78b5858bb0b1b1a89861b226e2017f861eb09b440e6dccbbc3a4a11fde5bf0a3385600160405161401293929190618455565b60405180910390a150505050565b60008061402b614d8f565b9050614038818585614e3d565b600191505092915050565b600560009054906101000a900473ffffffffffffffffffffffffffffffffffffffff1673ffffffffffffffffffffffffffffffffffffffff163373ffffffffffffffffffffffffffffffffffffffff16146140d3576040517f08c379a00000000000000000000000000000000000000000000000000000000081526004016140ca9061711c565b60405180910390fd5b601060009054906101000a900460ff16614122576040517f08c379a0000000000000000000000000000000000000000000000000000000008152600401614119906172d2565b60405180910390fd5b601060019054906101000a900460ff1615614172576040517f08c379a00000000000000000000000000000000000000000000000000000000081526004016141699061785b565b60405180910390fd5b60005b815181101561437657600e82828151811061419357614192617dec565b5b60200260200101516040516141a8919061743f565b908152602001604051809103902060009054906101000a900460ff1615614204576040517f08c379a00000000000000000000000000000000000000000000000000000000081526004016141fb906184f2565b60405180910390fd5b6000600c83838151811061421b5761421a617dec565b5b6020026020010151604051614230919061743f565b9081526020016040518091039020905082828151811061425357614252617dec565b5b602002602001015181600001908161426b9190617b25565b506009819080600181540180825580915050600190039060005260206000209060020201600090919091909150600082018160000190816142ac9190618528565b5060018201816001019080546142c3929190615bcc565b5050506001600e8484815181106142dd576142dc617dec565b5b60200260200101516040516142f2919061743f565b908152602001604051809103902060006101000a81548160ff0219169083151502179055507ff635339f4b5986d632e76f25211c57346b4b4ca3aa13c1ba323ac1256373145683838151811061434b5761434a617dec565b5b6020026020010151604051614360919061616c565b60405180910390a1508080600101915050614175565b5050565b600560009054906101000a900473ffffffffffffffffffffffffffffffffffffffff1673ffffffffffffffffffffffffffffffffffffffff163373ffffffffffffffffffffffffffffffffffffffff161461440a576040517f08c379a00000000000000000000000000000000000000000000000000000000081526004016144019061711c565b60405180910390fd5b6000600b8260405161441c919061743f565b908152602001604051809103902060000180546144389061709f565b90500361447a576040517f08c379a00000000000000000000000000000000000000000000000000000000081526004016144719061865c565b60405180910390fd5b60005b60088054905081101561486a578160405160200161449b919061743f565b60405160208183030381529060405280519060200120600882815481106144c5576144c4617dec565b5b90600052602060002090600b02016002016040516020016144e69190617e9e565b604051602081830303815290604052805190602001200361485d5760008190505b6001600880549050614519919061867c565b81101561467357600860018261452f91906173cf565b815481106145405761453f617dec565b5b90600052602060002090600b02016008828154811061456257614561617dec565b5b90600052602060002090600b0201600082018160000190816145849190618528565b5060018201548160010155600282018160020190816145a39190618528565b50600382018160030190816145b89190618528565b50600482015481600401556005820160009054906101000a900460ff168160050160006101000a81548160ff021916908315150217905550600682018160060190816146049190618528565b506007820181600701600082018160000190816146219190618528565b50600182018160010190816146369190618528565b506002820181600201908161464b9190618528565b50600382018160030190816146609190618528565b5050509050508080600101915050614507565b506008805480614686576146856186b0565b5b60019003818190600052602060002090600b0201600080820160006146ab9190615d17565b60018201600090556002820160006146c39190615d17565b6003820160006146d39190615d17565b60048201600090556005820160006101000a81549060ff02191690556006820160006146ff9190615d17565b60078201600080820160006147149190615d17565b6001820160006147249190615d17565b6002820160006147349190615d17565b6003820160006147449190615d17565b505050509055600b8260405161475a919061743f565b9081526020016040518091039020600080820160006147799190615d17565b60018201600090556002820160006147919190615d17565b6003820160006147a19190615d17565b60048201600090556005820160006101000a81549060ff02191690556006820160006147cd9190615d17565b60078201600080820160006147e29190615d17565b6001820160006147f29190615d17565b6002820160006148029190615d17565b6003820160006148129190615d17565b5050505081604051614824919061743f565b60405180910390207f8f5f7793556433ecc92e19fec29f06611a3ac9c5a32b806db2149f70d52946fe60405160405180910390a261486a565b808060010191505061447d565b5050565b6000600654905090565b674563918244f4000081565b600560009054906101000a900473ffffffffffffffffffffffffffffffffffffffff1673ffffffffffffffffffffffffffffffffffffffff163373ffffffffffffffffffffffffffffffffffffffff1614614914576040517f08c379a000000000000000000000000000000000000000000000000000000000815260040161490b9061711c565b60405180910390fd5b601060019054906101000a900460ff16614963576040517f08c379a000000000000000000000000000000000000000000000000000000000815260040161495a9061872b565b60405180910390fd5b60065442106149a7576040517f08c379a000000000000000000000000000000000000000000000000000000000815260040161499e90618797565b60405180910390fd5b6000601060016101000a81548160ff02191690831515021790555060006006819055506001601060006101000a81548160ff0219169083151502179055507f7a19ed057db79e3c2fa0b97a54b43bef4fce74b31bb6c01af514b9a18a7f70ab60405160405180910390a1565b6000600f60008473ffffffffffffffffffffffffffffffffffffffff1673ffffffffffffffffffffffffffffffffffffffff16815260200190815260200160002082604051614a62919061743f565b908152602001604051809103902060009054906101000a900460ff16905092915050565b60606007805480602002602001604051908101604052809291908181526020016000905b82821015614c255783829060005260206000209060040201604051806080016040529081600082018054614add9061709f565b80601f0160208091040260200160405190810160405280929190818152602001828054614b099061709f565b8015614b565780601f10614b2b57610100808354040283529160200191614b56565b820191906000526020600020905b815481529060010190602001808311614b3957829003601f168201915b5050505050815260200160018201548152602001600282018054614b799061709f565b80601f0160208091040260200160405190810160405280929190818152602001828054614ba59061709f565b8015614bf25780601f10614bc757610100808354040283529160200191614bf2565b820191906000526020600020905b815481529060010190602001808311614bd557829003601f168201915b505050505081526020016003820160009054906101000a900460ff16151515158152505081526020019060010190614aaa565b50505050905090565b60008083604051602001614c429190618824565b6040516020818303038152906040528051906020012090506000614c6682856152f3565b90503373ffffffffffffffffffffffffffffffffffffffff168173ffffffffffffffffffffffffffffffffffffffff16149250505092915050565b6000600160008473ffffffffffffffffffffffffffffffffffffffff1673ffffffffffffffffffffffffffffffffffffffff16815260200190815260200160002060008373ffffffffffffffffffffffffffffffffffffffff1673ffffffffffffffffffffffffffffffffffffffff16815260200190815260200160002054905092915050565b600080600d60008473ffffffffffffffffffffffffffffffffffffffff1673ffffffffffffffffffffffffffffffffffffffff1681526020019081526020016000206000018054614d789061709f565b905014159050919050565b678ac7230489e8000081565b600033905090565b614da4838383600161531f565b505050565b6000614db58484614ca1565b90507fffffffffffffffffffffffffffffffffffffffffffffffffffffffffffffffff8114614e375781811015614e27578281836040517ffb8f41b2000000000000000000000000000000000000000000000000000000008152600401614e1e9392919061884a565b60405180910390fd5b614e368484848403600061531f565b5b50505050565b600073ffffffffffffffffffffffffffffffffffffffff168373ffffffffffffffffffffffffffffffffffffffff1603614eaf5760006040517f96c6fd1e000000000000000000000000000000000000000000000000000000008152600401614ea69190616a69565b60405180910390fd5b600073ffffffffffffffffffffffffffffffffffffffff168273ffffffffffffffffffffffffffffffffffffffff1603614f215760006040517fec442f05000000000000000000000000000000000000000000000000000000008152600401614f189190616a69565b60405180910390fd5b614f2c8383836154f6565b505050565b6060600083905060006002846002614f49919061738d565b614f5391906173cf565b67ffffffffffffffff811115614f6c57614f6b616478565b5b6040519080825280601f01601f191660200182016040528015614f9e5781602001600182028036833780820191505090505b5090507f300000000000000000000000000000000000000000000000000000000000000081600081518110614fd657614fd5617dec565b5b60200101907effffffffffffffffffffffffffffffffffffffffffffffffffffffffffffff1916908160001a9053507f78000000000000000000000000000000000000000000000000000000000000008160018151811061503a57615039617dec565b5b60200101907effffffffffffffffffffffffffffffffffffffffffffffffffffffffffffff1916908160001a9053506000600185600261507a919061738d565b61508491906173cf565b90505b6001811115615124577f3031323334353637383961626364656600000000000000000000000000000000600f8416601081106150c6576150c5617dec565b5b1a60f81b8282815181106150dd576150dc617dec565b5b60200101907effffffffffffffffffffffffffffffffffffffffffffffffffffffffffffff1916908160001a905350600483901c92508061511d90618881565b9050615087565b506000821461516c5784846040517fe22e27eb0000000000000000000000000000000000000000000000000000000081526004016151639291906188aa565b60405180910390fd5b809250505092915050565b6060600060016151868461571b565b01905060008167ffffffffffffffff8111156151a5576151a4616478565b5b6040519080825280601f01601f1916602001820160405280156151d75781602001600182028036833780820191505090505b509050600082602001820190505b60011561523a578080600190039150507f3031323334353637383961626364656600000000000000000000000000000000600a86061a8153600a858161522e5761522d6188d3565b5b049450600085036151e5575b819350505050919050565b600069d3c21bcecceda100000061525a611076565b8361526591906173cf565b11156152a6576040517f08c379a000000000000000000000000000000000000000000000000000000000815260040161529d9061894e565b60405180910390fd5b6152b0838361586e565b7fcda531bfd68624f13205c0a23cd4d5a7f09792cbb399603114f2b04aaa1bf5cf83836040516152e192919061896e565b60405180910390a16001905092915050565b60008060008061530386866158f0565b925092509250615313828261594c565b82935050505092915050565b600073ffffffffffffffffffffffffffffffffffffffff168473ffffffffffffffffffffffffffffffffffffffff16036153915760006040517fe602df050000000000000000000000000000000000000000000000000000000081526004016153889190616a69565b60405180910390fd5b600073ffffffffffffffffffffffffffffffffffffffff168373ffffffffffffffffffffffffffffffffffffffff16036154035760006040517f94280d620000000000000000000000000000000000000000000000000000000081526004016153fa9190616a69565b60405180910390fd5b81600160008673ffffffffffffffffffffffffffffffffffffffff1673ffffffffffffffffffffffffffffffffffffffff16815260200190815260200160002060008573ffffffffffffffffffffffffffffffffffffffff1673ffffffffffffffffffffffffffffffffffffffff1681526020019081526020016000208190555080156154f0578273ffffffffffffffffffffffffffffffffffffffff168473ffffffffffffffffffffffffffffffffffffffff167f8c5be1e5ebec7d5bd14f71427d1e84f3dd0314c0f7b2291e5b200ac8c7c3b925846040516154e791906162a5565b60405180910390a35b50505050565b600073ffffffffffffffffffffffffffffffffffffffff168373ffffffffffffffffffffffffffffffffffffffff160361554857806002600082825461553c91906173cf565b9250508190555061561b565b60008060008573ffffffffffffffffffffffffffffffffffffffff1673ffffffffffffffffffffffffffffffffffffffff168152602001908152602001600020549050818110156155d4578381836040517fe450d38c0000000000000000000000000000000000000000000000000000000081526004016155cb9392919061884a565b60405180910390fd5b8181036000808673ffffffffffffffffffffffffffffffffffffffff1673ffffffffffffffffffffffffffffffffffffffff16815260200190815260200160002081905550505b600073ffffffffffffffffffffffffffffffffffffffff168273ffffffffffffffffffffffffffffffffffffffff160361566457806002600082825403925050819055506156b1565b806000808473ffffffffffffffffffffffffffffffffffffffff1673ffffffffffffffffffffffffffffffffffffffff168152602001908152602001600020600082825401925050819055505b8173ffffffffffffffffffffffffffffffffffffffff168373ffffffffffffffffffffffffffffffffffffffff167fddf252ad1be2c89b69c2b068fc378daa952ba7f163c4a11628f55a4df523b3ef8360405161570e91906162a5565b60405180910390a3505050565b600080600090507a184f03e93ff9f4daa797ed6e38ed64bf6a1f0100000000000000008310615779577a184f03e93ff9f4daa797ed6e38ed64bf6a1f010000000000000000838161576f5761576e6188d3565b5b0492506040810190505b6d04ee2d6d415b85acef810000000083106157b6576d04ee2d6d415b85acef810000000083816157ac576157ab6188d3565b5b0492506020810190505b662386f26fc1000083106157e557662386f26fc1000083816157db576157da6188d3565b5b0492506010810190505b6305f5e100831061580e576305f5e1008381615804576158036188d3565b5b0492506008810190505b6127108310615833576127108381615829576158286188d3565b5b0492506004810190505b60648310615856576064838161584c5761584b6188d3565b5b0492506002810190505b600a8310615865576001810190505b80915050919050565b600073ffffffffffffffffffffffffffffffffffffffff168273ffffffffffffffffffffffffffffffffffffffff16036158e05760006040517fec442f050000000000000000000000000000000000000000000000000000000081526004016158d79190616a69565b60405180910390fd5b6158ec600083836154f6565b5050565b600080600060418451036159355760008060006020870151925060408701519150606087015160001a905061592788828585615ab0565b955095509550505050615945565b60006002855160001b9250925092505b9250925092565b600060038111156159605761595f618997565b5b82600381111561597357615972618997565b5b0315615aac576001600381111561598d5761598c618997565b5b8260038111156159a05761599f618997565b5b036159d7576040517ff645eedf00000000000000000000000000000000000000000000000000000000815260040160405180910390fd5b600260038111156159eb576159ea618997565b5b8260038111156159fe576159fd618997565b5b03615a43578060001c6040517ffce698f7000000000000000000000000000000000000000000000000000000008152600401615a3a91906162a5565b60405180910390fd5b600380811115615a5657615a55618997565b5b826003811115615a6957615a68618997565b5b03615aab57806040517fd78bce0c000000000000000000000000000000000000000000000000000000008152600401615aa2919061692b565b60405180910390fd5b5b5050565b60008060007f7fffffffffffffffffffffffffffffff5d576e7357a4501ddfe92f46681b20a08460001c1115615af0576000600385925092509250615b9a565b600060018888888860405160008152602001604052604051615b1594939291906189c6565b6020604051602081039080840390855afa158015615b37573d6000803e3d6000fd5b505050602060405103519050600073ffffffffffffffffffffffffffffffffffffffff168173ffffffffffffffffffffffffffffffffffffffff1603615b8b57600060016000801b93509350935050615b9a565b8060008060001b935093509350505b9450945094915050565b6040518060800160405280606081526020016060815260200160608152602001606081525090565b82805482825590600052602060002090600b028101928215615d0657600052602060002091600b0282015b82811115615d0557828260008201816000019081615c159190618528565b506001820154816001015560028201816002019081615c349190618528565b5060038201816003019081615c499190618528565b50600482015481600401556005820160009054906101000a900460ff168160050160006101000a81548160ff02191690831515021790555060068201816006019081615c959190618528565b50600782018160070160008201816000019081615cb29190618528565b5060018201816001019081615cc79190618528565b5060028201816002019081615cdc9190618528565b5060038201816003019081615cf19190618528565b505050505091600b019190600b0190615bf7565b5b509050615d139190615d57565b5090565b508054615d239061709f565b6000825580601f10615d355750615d54565b601f016020900490600052602060002090810190615d539190615e19565b5b50565b5b80821115615e155760008082016000615d719190615d17565b6001820160009055600282016000615d899190615d17565b600382016000615d999190615d17565b60048201600090556005820160006101000a81549060ff0219169055600682016000615dc59190615d17565b6007820160008082016000615dda9190615d17565b600182016000615dea9190615d17565b600282016000615dfa9190615d17565b600382016000615e0a9190615d17565b505050600b01615d58565b5090565b5b80821115615e32576000816000905550600101615e1a565b5090565b600081519050919050565b600082825260208201905092915050565b6000819050602082019050919050565b600081519050919050565b600082825260208201905092915050565b60005b83811015615e9c578082015181840152602081019050615e81565b60008484015250505050565b6000601f19601f8301169050919050565b6000615ec482615e62565b615ece8185615e6d565b9350615ede818560208601615e7e565b615ee781615ea8565b840191505092915050565b6000819050919050565b615f0581615ef2565b82525050565b60008115159050919050565b615f2081615f0b565b82525050565b60006080830160008301518482036000860152615f438282615eb9565b91505060208301518482036020860152615f5d8282615eb9565b91505060408301518482036040860152615f778282615eb9565b91505060608301518482036060860152615f918282615eb9565b9150508091505092915050565b6000610100830160008301518482036000860152615fbc8282615eb9565b9150506020830151615fd16020860182615efc565b5060408301518482036040860152615fe98282615eb9565b915050606083015184820360608601526160038282615eb9565b91505060808301516160186080860182615efc565b5060a083015161602b60a0860182615f17565b5060c083015184820360c08601526160438282615eb9565b91505060e083015184820360e086015261605d8282615f26565b9150508091505092915050565b60006160768383615f9e565b905092915050565b6000602082019050919050565b600061609682615e36565b6160a08185615e41565b9350836020820285016160b285615e52565b8060005b858110156160ee57848403895281516160cf858261606a565b94506160da8361607e565b925060208a019950506001810190506160b6565b50829750879550505050505092915050565b6000602082019050818103600083015261611a818461608b565b905092915050565b600082825260208201905092915050565b600061613e82615e62565b6161488185616122565b9350616158818560208601615e7e565b61616181615ea8565b840191505092915050565b600060208201905081810360008301526161868184616133565b905092915050565b6000604051905090565b600080fd5b600080fd5b600073ffffffffffffffffffffffffffffffffffffffff82169050919050565b60006161cd826161a2565b9050919050565b6161dd816161c2565b81146161e857600080fd5b50565b6000813590506161fa816161d4565b92915050565b61620981615ef2565b811461621457600080fd5b50565b60008135905061622681616200565b92915050565b6000806040838503121561624357616242616198565b5b6000616251858286016161eb565b925050602061626285828601616217565b9150509250929050565b61627581615f0b565b82525050565b6000602082019050616290600083018461626c565b92915050565b61629f81615ef2565b82525050565b60006020820190506162ba6000830184616296565b92915050565b600081519050919050565b600082825260208201905092915050565b6000819050602082019050919050565b600082825260208201905092915050565b600061630882615e36565b61631281856162ec565b93508360208202850161632485615e52565b8060005b858110156163605784840389528151616341858261606a565b945061634c8361607e565b925060208a01995050600181019050616328565b50829750879550505050505092915050565b6000604083016000830151848203600086015261638f8282615eb9565b915050602083015184820360208601526163a982826162fd565b9150508091505092915050565b60006163c28383616372565b905092915050565b6000602082019050919050565b60006163e2826162c0565b6163ec81856162cb565b9350836020820285016163fe856162dc565b8060005b8581101561643a578484038952815161641b85826163b6565b9450616426836163ca565b925060208a01995050600181019050616402565b50829750879550505050505092915050565b6000602082019050818103600083015261646681846163d7565b905092915050565b600080fd5b600080fd5b7f4e487b7100000000000000000000000000000000000000000000000000000000600052604160045260246000fd5b6164b082615ea8565b810181811067ffffffffffffffff821117156164cf576164ce616478565b5b80604052505050565b60006164e261618e565b90506164ee82826164a7565b919050565b600067ffffffffffffffff82111561650e5761650d616478565b5b61651782615ea8565b9050602081019050919050565b82818337600083830152505050565b6000616546616541846164f3565b6164d8565b90508281526020810184848401111561656257616561616473565b5b61656d848285616524565b509392505050565b600082601f83011261658a5761658961646e565b5b813561659a848260208601616533565b91505092915050565b6000602082840312156165b9576165b8616198565b5b600082013567ffffffffffffffff8111156165d7576165d661619d565b5b6165e384828501616575565b91505092915050565b600060808301600083015184820360008601526166098282615eb9565b915050602083015184820360208601526166238282615eb9565b9150506040830151848203604086015261663d8282615eb9565b915050606083015184820360608601526166578282615eb9565b9150508091505092915050565b600061010082019050818103600083015261667f818b616133565b905061668e602083018a616296565b81810360408301526166a08189616133565b905081810360608301526166b48188616133565b90506166c36080830187616296565b6166d060a083018661626c565b81810360c08301526166e28185616133565b905081810360e08301526166f681846165ec565b90509998505050505050505050565b60008060006060848603121561671e5761671d616198565b5b600061672c868287016161eb565b935050602061673d868287016161eb565b925050604061674e86828701616217565b9150509250925092565b600060ff82169050919050565b61676e81616758565b82525050565b60006020820190506167896000830184616765565b92915050565b6000602082840312156167a5576167a4616198565b5b60006167b384828501616217565b91505092915050565b600060808201905081810360008301526167d68187616133565b90506167e56020830186616296565b81810360408301526167f78185616133565b9050616806606083018461626c565b95945050505050565b6000602082019050818103600083015261682981846165ec565b905092915050565b60008060008060008060c0878903121561684e5761684d616198565b5b600061685c89828a016161eb565b965050602087013567ffffffffffffffff81111561687d5761687c61619d565b5b61688989828a01616575565b955050604087013567ffffffffffffffff8111156168aa576168a961619d565b5b6168b689828a01616575565b945050606087013567ffffffffffffffff8111156168d7576168d661619d565b5b6168e389828a01616575565b93505060806168f489828a01616217565b92505060a061690589828a01616217565b9150509295509295509295565b6000819050919050565b61692581616912565b82525050565b6000602082019050616940600083018461691c565b92915050565b60008060006060848603121561695f5761695e616198565b5b600084013567ffffffffffffffff81111561697d5761697c61619d565b5b61698986828701616575565b935050602061699a86828701616217565b925050604084013567ffffffffffffffff8111156169bb576169ba61619d565b5b6169c786828701616575565b9150509250925092565b6000602082840312156169e7576169e6616198565b5b60006169f5848285016161eb565b91505092915050565b60008060408385031215616a1557616a14616198565b5b6000616a23858286016161eb565b925050602083013567ffffffffffffffff811115616a4457616a4361619d565b5b616a5085828601616575565b9150509250929050565b616a63816161c2565b82525050565b6000602082019050616a7e6000830184616a5a565b92915050565b60008060008060008060008060006101208a8c031215616aa757616aa6616198565b5b60008a013567ffffffffffffffff811115616ac557616ac461619d565b5b616ad18c828d01616575565b9950506020616ae28c828d01616217565b98505060408a013567ffffffffffffffff811115616b0357616b0261619d565b5b616b0f8c828d01616575565b97505060608a013567ffffffffffffffff811115616b3057616b2f61619d565b5b616b3c8c828d01616575565b96505060808a013567ffffffffffffffff811115616b5d57616b5c61619d565b5b616b698c828d01616575565b95505060a08a013567ffffffffffffffff811115616b8a57616b8961619d565b5b616b968c828d01616575565b94505060c08a013567ffffffffffffffff811115616bb757616bb661619d565b5b616bc38c828d01616575565b93505060e08a013567ffffffffffffffff811115616be457616be361619d565b5b616bf08c828d01616575565b9250506101008a013567ffffffffffffffff811115616c1257616c1161619d565b5b616c1e8c828d01616575565b9150509295985092959850929598565b60008060408385031215616c4557616c44616198565b5b600083013567ffffffffffffffff811115616c6357616c6261619d565b5b616c6f85828601616575565b9250506020616c8085828601616217565b9150509250929050565b600067ffffffffffffffff821115616ca557616ca4616478565b5b602082029050602081019050919050565b600080fd5b6000616cce616cc984616c8a565b6164d8565b90508083825260208201905060208402830185811115616cf157616cf0616cb6565b5b835b81811015616d3857803567ffffffffffffffff811115616d1657616d1561646e565b5b808601616d238982616575565b85526020850194505050602081019050616cf3565b5050509392505050565b600082601f830112616d5757616d5661646e565b5b8135616d67848260208601616cbb565b91505092915050565b600060208284031215616d8657616d85616198565b5b600082013567ffffffffffffffff811115616da457616da361619d565b5b616db084828501616d42565b91505092915050565b600081519050919050565b600082825260208201905092915050565b6000819050602082019050919050565b60006080830160008301518482036000860152616e028282615eb9565b9150506020830151616e176020860182615efc565b5060408301518482036040860152616e2f8282615eb9565b9150506060830151616e446060860182615f17565b508091505092915050565b6000616e5b8383616de5565b905092915050565b6000602082019050919050565b6000616e7b82616db9565b616e858185616dc4565b935083602082028501616e9785616dd5565b8060005b85811015616ed35784840389528151616eb48582616e4f565b9450616ebf83616e63565b925060208a01995050600181019050616e9b565b50829750879550505050505092915050565b60006020820190508181036000830152616eff8184616e70565b905092915050565b616f1081616912565b8114616f1b57600080fd5b50565b600081359050616f2d81616f07565b92915050565b600067ffffffffffffffff821115616f4e57616f4d616478565b5b616f5782615ea8565b9050602081019050919050565b6000616f77616f7284616f33565b6164d8565b905082815260208101848484011115616f9357616f92616473565b5b616f9e848285616524565b509392505050565b600082601f830112616fbb57616fba61646e565b5b8135616fcb848260208601616f64565b91505092915050565b60008060408385031215616feb57616fea616198565b5b6000616ff985828601616f1e565b925050602083013567ffffffffffffffff81111561701a5761701961619d565b5b61702685828601616fa6565b9150509250929050565b6000806040838503121561704757617046616198565b5b6000617055858286016161eb565b9250506020617066858286016161eb565b9150509250929050565b7f4e487b7100000000000000000000000000000000000000000000000000000000600052602260045260246000fd5b600060028204905060018216806170b757607f821691505b6020821081036170ca576170c9617070565b5b50919050565b7f596f7520617265206e6f7420746865206f776e65722100000000000000000000600082015250565b6000617106601683616122565b9150617111826170d0565b602082019050919050565b60006020820190508181036000830152617135816170f9565b9050919050565b7f526567697374726174696f6e2068617320616c7265616479207374617274656460008201527f2e00000000000000000000000000000000000000000000000000000000000000602082015250565b6000617198602183616122565b91506171a38261713c565b604082019050919050565b600060208201905081810360008301526171c78161718b565b9050919050565b7f43616e6e6f7420737461727420726567697374726174696f6e2061667465722060008201527f766f74696e672068617320626567756e2e000000000000000000000000000000602082015250565b600061722a603183616122565b9150617235826171ce565b604082019050919050565b600060208201905081810360008301526172598161721d565b9050919050565b7f526567697374726174696f6e20706572696f6420686173206e6f74207374617260008201527f7465642e00000000000000000000000000000000000000000000000000000000602082015250565b60006172bc602483616122565b91506172c782617260565b604082019050919050565b600060208201905081810360008301526172eb816172af565b9050919050565b7f566f74696e672068617320616c726561647920737461727465642e0000000000600082015250565b6000617328601b83616122565b9150617333826172f2565b602082019050919050565b600060208201905081810360008301526173578161731b565b9050919050565b7f4e487b7100000000000000000000000000000000000000000000000000000000600052601160045260246000fd5b600061739882615ef2565b91506173a383615ef2565b92508282026173b181615ef2565b915082820484148315176173c8576173c761735e565b5b5092915050565b60006173da82615ef2565b91506173e583615ef2565b92508282019050808211156173fd576173fc61735e565b5b92915050565b600081905092915050565b600061741982615e62565b6174238185617403565b9350617433818560208601615e7e565b80840191505092915050565b600061744b828461740e565b915081905092915050565b7f19457468657265756d205369676e6564204d6573736167653a0a000000000000600082015250565b600061748c601a83617403565b915061749782617456565b601a82019050919050565b7f446f6d61696e3a20000000000000000000000000000000000000000000000000600082015250565b60006174d8600883617403565b91506174e3826174a2565b600882019050919050565b7f0a00000000000000000000000000000000000000000000000000000000000000600082015250565b6000617524600183617403565b915061752f826174ee565b600182019050919050565b7f416464726573733a200000000000000000000000000000000000000000000000600082015250565b6000617570600983617403565b915061757b8261753a565b600982019050919050565b7f53746174656d656e743a20000000000000000000000000000000000000000000600082015250565b60006175bc600b83617403565b91506175c782617586565b600b82019050919050565b7f5552493a20000000000000000000000000000000000000000000000000000000600082015250565b6000617608600583617403565b9150617613826175d2565b600582019050919050565b7f56657273696f6e3a20310a000000000000000000000000000000000000000000600082015250565b6000617654600b83617403565b915061765f8261761e565b600b82019050919050565b7f436861696e2049443a2000000000000000000000000000000000000000000000600082015250565b60006176a0600a83617403565b91506176ab8261766a565b600a82019050919050565b7f4e6f6e63653a2000000000000000000000000000000000000000000000000000600082015250565b60006176ec600783617403565b91506176f7826176b6565b600782019050919050565b600061770d8261747f565b9150617718826174cb565b9150617724828961740e565b915061772f82617517565b915061773a82617563565b9150617746828861740e565b915061775182617517565b915061775c826175af565b9150617768828761740e565b915061777382617517565b915061777e826175fb565b915061778a828661740e565b915061779582617517565b91506177a082617647565b91506177ab82617693565b91506177b7828561740e565b91506177c282617517565b91506177cd826176df565b91506177d9828461740e565b9150819050979650505050505050565b7f43616e6e6f7420726567697374657220647572696e6720766f74696e6720706560008201527f72696f642e000000000000000000000000000000000000000000000000000000602082015250565b6000617845602583616122565b9150617850826177e9565b604082019050919050565b6000602082019050818103600083015261787481617838565b9050919050565b7f566f74657220616c726561647920657869737473210000000000000000000000600082015250565b60006178b1601583616122565b91506178bc8261787b565b602082019050919050565b600060208201905081810360008301526178e0816178a4565b9050919050565b7f4163636f756e7420616c7265616479207265676973746572656420617320766f60008201527f7465720000000000000000000000000000000000000000000000000000000000602082015250565b6000617943602383616122565b915061794e826178e7565b604082019050919050565b6000602082019050818103600083015261797281617936565b9050919050565b60008190508160005260206000209050919050565b60006020601f8301049050919050565b600082821b905092915050565b6000600883026179db7fffffffffffffffffffffffffffffffffffffffffffffffffffffffffffffffff8261799e565b6179e5868361799e565b95508019841693508086168417925050509392505050565b6000819050919050565b6000617a22617a1d617a1884615ef2565b6179fd565b615ef2565b9050919050565b6000819050919050565b617a3c83617a07565b617a50617a4882617a29565b8484546179ab565b825550505050565b600090565b617a65617a58565b617a70818484617a33565b505050565b5b81811015617a9457617a89600082617a5d565b600181019050617a76565b5050565b601f821115617ad957617aaa81617979565b617ab38461798e565b81016020851015617ac2578190505b617ad6617ace8561798e565b830182617a75565b50505b505050565b600082821c905092915050565b6000617afc60001984600802617ade565b1980831691505092915050565b6000617b158383617aeb565b9150826002028217905092915050565b617b2e82615e62565b67ffffffffffffffff811115617b4757617b46616478565b5b617b51825461709f565b617b5c828285617a98565b600060209050601f831160018114617b8f5760008415617b7d578287015190505b617b878582617b09565b865550617bef565b601f198416617b9d86617979565b60005b82811015617bc557848901518255600182019150602085019450602081019050617ba0565b86831015617be25784890151617bde601f891682617aeb565b8355505b6001600288020188555050505b505050505050565b7f43616e64696461746520616c7265616479206578697374732100000000000000600082015250565b6000617c2d601983616122565b9150617c3882617bf7565b602082019050919050565b60006020820190508181036000830152617c5c81617c20565b9050919050565b7f596f75206d7573742062652061207265676973746572656420766f7465722100600082015250565b6000617c99601f83616122565b9150617ca482617c63565b602082019050919050565b60006020820190508181036000830152617cc881617c8c565b9050919050565b7f506f736974696f6e20646f6573206e6f74206578697374210000000000000000600082015250565b6000617d05601883616122565b9150617d1082617ccf565b602082019050919050565b60006020820190508181036000830152617d3481617cf8565b9050919050565b6000606082019050617d506000830186616296565b8181036020830152617d628185616133565b90508181036040830152617d768184616133565b9050949350505050565b7f43616e64696461746520616c7265616479207665726966696564210000000000600082015250565b6000617db6601b83616122565b9150617dc182617d80565b602082019050919050565b60006020820190508181036000830152617de581617da9565b9050919050565b7f4e487b7100000000000000000000000000000000000000000000000000000000600052603260045260246000fd5b60008154617e288161709f565b617e328186617403565b94506001821660008114617e4d5760018114617e6257617e95565b60ff1983168652811515820286019350617e95565b617e6b85617979565b60005b83811015617e8d57815481890152600182019150602081019050617e6e565b838801955050505b50505092915050565b6000617eaa8284617e1b565b915081905092915050565b7f526567697374726174696f6e20706572696f64206973207374696c6c2061637460008201527f6976652e00000000000000000000000000000000000000000000000000000000602082015250565b6000617f11602483616122565b9150617f1c82617eb5565b604082019050919050565b60006020820190508181036000830152617f4081617f04565b9050919050565b7f566f74696e6720686173206e6f742073746172746564207965742e0000000000600082015250565b6000617f7d601b83616122565b9150617f8882617f47565b602082019050919050565b60006020820190508181036000830152617fac81617f70565b9050919050565b7f436865636b696e6720706f736974696f6e2076616c6964697479000000000000600082015250565b6000617fe9601a83616122565b9150617ff482617fb3565b602082019050919050565b6000608082019050818103600083015261801881617fdc565b90506180276020830186616a5a565b81810360408301526180398185616133565b9050618048606083018461626c565b949350505050565b7f496e76616c696420706f736974696f6e2e000000000000000000000000000000600082015250565b6000618086601183616122565b915061809182618050565b602082019050919050565b600060208201905081810360008301526180b581618079565b9050919050565b7f436865636b696e672063616e64696461746520696e6465782076616c6964697460008201527f7900000000000000000000000000000000000000000000000000000000000000602082015250565b6000618118602183616122565b9150618123826180bc565b604082019050919050565b600060808201905081810360008301526181478161810b565b90506181566020830186616a5a565b81810360408301526181688185616133565b9050618177606083018461626c565b949350505050565b7f496e76616c69642063616e64696461746520696e6465782e0000000000000000600082015250565b60006181b5601883616122565b91506181c08261817f565b602082019050919050565b600060208201905081810360008301526181e4816181a8565b9050919050565b7f436865636b696e6720696620616c726561647920766f74656420666f7220706f60008201527f736974696f6e0000000000000000000000000000000000000000000000000000602082015250565b6000618247602683616122565b9150618252826181eb565b604082019050919050565b600060808201905081810360008301526182768161823a565b90506182856020830186616a5a565b81810360408301526182978185616133565b90506182a6606083018461626c565b949350505050565b7f596f75206861766520616c726561647920766f74656420666f7220746869732060008201527f706f736974696f6e2e0000000000000000000000000000000000000000000000602082015250565b600061830a602983616122565b9150618315826182ae565b604082019050919050565b60006020820190508181036000830152618339816182fd565b9050919050565b6000815461834d8161709f565b6183578186616122565b945060018216600081146183725760018114618388576183bb565b60ff1983168652811515602002860193506183bb565b61839185617979565b60005b838110156183b357815481890152600182019150602081019050618394565b808801955050505b50505092915050565b600060608201905081810360008301526183de8186618340565b905081810360208301526183f28185616133565b90506184016040830184616296565b949350505050565b7f566f7465207375636365737366756c0000000000000000000000000000000000600082015250565b600061843f600f83616122565b915061844a82618409565b602082019050919050565b6000608082019050818103600083015261846e81618432565b905061847d6020830186616a5a565b818103604083015261848f8185616133565b905061849e606083018461626c565b949350505050565b7f506f736974696f6e20616c726561647920657869737473210000000000000000600082015250565b60006184dc601883616122565b91506184e7826184a6565b602082019050919050565b6000602082019050818103600083015261850b816184cf565b9050919050565b6000815490506185218161709f565b9050919050565b81810361853657505061860e565b61853f82618512565b67ffffffffffffffff81111561855857618557616478565b5b618562825461709f565b61856d828285617a98565b6000601f83116001811461859c576000841561858a578287015490505b6185948582617b09565b865550618607565b601f1984166185aa87617979565b96506185b586617979565b60005b828110156185dd578489015482556001820191506001850194506020810190506185b8565b868310156185fa57848901546185f6601f891682617aeb565b8355505b6001600288020188555050505b5050505050505b565b7f43616e64696461746520646f6573206e6f742065786973742100000000000000600082015250565b6000618646601983616122565b915061865182618610565b602082019050919050565b6000602082019050818103600083015261867581618639565b9050919050565b600061868782615ef2565b915061869283615ef2565b92508282039050818111156186aa576186a961735e565b5b92915050565b7f4e487b7100000000000000000000000000000000000000000000000000000000600052603160045260246000fd5b7f566f74696e6720686173206e6f7420737461727465642e000000000000000000600082015250565b6000618715601783616122565b9150618720826186df565b602082019050919050565b6000602082019050818103600083015261874481618708565b9050919050565b7f566f74696e6720706572696f6420686173206e6f7420656e6465642e00000000600082015250565b6000618781601c83616122565b915061878c8261874b565b602082019050919050565b600060208201905081810360008301526187b081618774565b9050919050565b7f19457468657265756d205369676e6564204d6573736167653a0a333200000000600082015250565b60006187ed601c83617403565b91506187f8826187b7565b601c82019050919050565b6000819050919050565b61881e61881982616912565b618803565b82525050565b600061882f826187e0565b915061883b828461880d565b60208201915081905092915050565b600060608201905061885f6000830186616a5a565b61886c6020830185616296565b6188796040830184616296565b949350505050565b600061888c82615ef2565b91506000820361889f5761889e61735e565b5b600182039050919050565b60006040820190506188bf6000830185616296565b6188cc6020830184616296565b9392505050565b7f4e487b7100000000000000000000000000000000000000000000000000000000600052601260045260246000fd5b7f546f6b656e206c696d6974206578636565646564210000000000000000000000600082015250565b6000618938601583616122565b915061894382618902565b602082019050919050565b600060208201905081810360008301526189678161892b565b9050919050565b60006040820190506189836000830185616a5a565b6189906020830184616296565b9392505050565b7f4e487b7100000000000000000000000000000000000000000000000000000000600052602160045260246000fd5b60006080820190506189db600083018761691c565b6189e86020830186616765565b6189f5604083018561691c565b618a02606083018461691c565b9594505050505056fea264697066735822122042f9f237e239c90447a4ab81b371898440f5fc1876178e3b12f8a794a116450a64736f6c634300081b0033",
  "linkReferences": {},
  "deployedLinkReferences": {}
}