{
  "_format": "hh-sol-artifact-1",
  "contractName": "Voting",
  "sourceName": "contracts/Voting.sol",
  "abi": [
    {
      "inputs": [],
      "stateMutability": "nonpayable",
      "type": "constructor"
    },
    {
      "inputs": [],
      "name": "ECDSAInvalidSignature",
      "type": "error"
    },
    {
      "inputs": [
        {
          "internalType": "uint256",
          "name": "length",
          "type": "uint256"
        }
      ],
      "name": "ECDSAInvalidSignatureLength",
      "type": "error"
    },
    {
      "inputs": [
        {
          "internalType": "bytes32",
          "name": "s",
          "type": "bytes32"
        }
      ],
      "name": "ECDSAInvalidSignatureS",
      "type": "error"
    },
    {
      "inputs": [
        {
          "internalType": "address",
          "name": "spender",
          "type": "address"
        },
        {
          "internalType": "uint256",
          "name": "allowance",
          "type": "uint256"
        },
        {
          "internalType": "uint256",
          "name": "needed",
          "type": "uint256"
        }
      ],
      "name": "ERC20InsufficientAllowance",
      "type": "error"
    },
    {
      "inputs": [
        {
          "internalType": "address",
          "name": "sender",
          "type": "address"
        },
        {
          "internalType": "uint256",
          "name": "balance",
          "type": "uint256"
        },
        {
          "internalType": "uint256",
          "name": "needed",
          "type": "uint256"
        }
      ],
      "name": "ERC20InsufficientBalance",
      "type": "error"
    },
    {
      "inputs": [
        {
          "internalType": "address",
          "name": "approver",
          "type": "address"
        }
      ],
      "name": "ERC20InvalidApprover",
      "type": "error"
    },
    {
      "inputs": [
        {
          "internalType": "address",
          "name": "receiver",
          "type": "address"
        }
      ],
      "name": "ERC20InvalidReceiver",
      "type": "error"
    },
    {
      "inputs": [
        {
          "internalType": "address",
          "name": "sender",
          "type": "address"
        }
      ],
      "name": "ERC20InvalidSender",
      "type": "error"
    },
    {
      "inputs": [
        {
          "internalType": "address",
          "name": "spender",
          "type": "address"
        }
      ],
      "name": "ERC20InvalidSpender",
      "type": "error"
    },
    {
      "inputs": [
        {
          "internalType": "uint256",
          "name": "value",
          "type": "uint256"
        },
        {
          "internalType": "uint256",
          "name": "length",
          "type": "uint256"
        }
      ],
      "name": "StringsInsufficientHexLength",
      "type": "error"
    },
    {
      "anonymous": false,
      "inputs": [
        {
          "indexed": true,
          "internalType": "address",
          "name": "owner",
          "type": "address"
        },
        {
          "indexed": true,
          "internalType": "address",
          "name": "spender",
          "type": "address"
        },
        {
          "indexed": false,
          "internalType": "uint256",
          "name": "value",
          "type": "uint256"
        }
      ],
      "name": "Approval",
      "type": "event"
    },
    {
      "anonymous": false,
      "inputs": [
        {
          "indexed": true,
          "internalType": "string",
          "name": "_names",
          "type": "string"
        },
        {
          "indexed": false,
          "internalType": "uint256",
          "name": "_age",
          "type": "uint256"
        },
        {
          "indexed": true,
          "internalType": "string",
          "name": "_idNumber",
          "type": "string"
        },
        {
          "indexed": false,
          "internalType": "string",
          "name": "_party",
          "type": "string"
        },
        {
          "indexed": false,
          "internalType": "string",
          "name": "_position",
          "type": "string"
        }
      ],
      "name": "CandidateRegistrationSuccess",
      "type": "event"
    },
    {
      "anonymous": false,
      "inputs": [
        {
          "indexed": false,
          "internalType": "string",
          "name": "message",
          "type": "string"
        },
        {
          "indexed": false,
          "internalType": "address",
          "name": "voter",
          "type": "address"
        },
        {
          "indexed": false,
          "internalType": "string",
          "name": "position",
          "type": "string"
        },
        {
          "indexed": false,
          "internalType": "bool",
          "name": "hasVoted",
          "type": "bool"
        }
      ],
      "name": "Debug",
      "type": "event"
    },
    {
      "anonymous": false,
      "inputs": [
        {
          "indexed": false,
          "internalType": "address",
          "name": "_to",
          "type": "address"
        },
        {
          "indexed": false,
          "internalType": "uint256",
          "name": "_amount",
          "type": "uint256"
        }
      ],
      "name": "MintSuccess",
      "type": "event"
    },
    {
      "anonymous": false,
      "inputs": [
        {
          "indexed": false,
          "internalType": "string",
          "name": "positionName",
          "type": "string"
        }
      ],
      "name": "PositionAdded",
      "type": "event"
    },
    {
      "anonymous": false,
      "inputs": [],
      "name": "RegistrationEnded",
      "type": "event"
    },
    {
      "anonymous": false,
      "inputs": [],
      "name": "RegistrationStarted",
      "type": "event"
    },
    {
      "anonymous": false,
      "inputs": [
        {
          "indexed": true,
          "internalType": "string",
          "name": "_idNumber",
          "type": "string"
        }
      ],
      "name": "RejectCandidateSuccess",
      "type": "event"
    },
    {
      "anonymous": false,
      "inputs": [
        {
          "indexed": true,
          "internalType": "address",
          "name": "from",
          "type": "address"
        },
        {
          "indexed": true,
          "internalType": "address",
          "name": "to",
          "type": "address"
        },
        {
          "indexed": false,
          "internalType": "uint256",
          "name": "value",
          "type": "uint256"
        }
      ],
      "name": "Transfer",
      "type": "event"
    },
    {
      "anonymous": false,
      "inputs": [
        {
          "indexed": true,
          "internalType": "string",
          "name": "_names",
          "type": "string"
        },
        {
          "indexed": true,
          "internalType": "string",
          "name": "_idNumber",
          "type": "string"
        }
      ],
      "name": "VerifyCandidateSuccess",
      "type": "event"
    },
    {
      "anonymous": false,
      "inputs": [
        {
          "indexed": true,
          "internalType": "address",
          "name": "voter",
          "type": "address"
        },
        {
          "indexed": false,
          "internalType": "string",
          "name": "_idNumber",
          "type": "string"
        },
        {
          "indexed": false,
          "internalType": "string",
          "name": "position",
          "type": "string"
        },
        {
          "indexed": false,
          "internalType": "uint256",
          "name": "candidateIndex",
          "type": "uint256"
        }
      ],
      "name": "VotedSuccess",
      "type": "event"
    },
    {
      "anonymous": false,
      "inputs": [
        {
          "indexed": true,
          "internalType": "string",
          "name": "_names",
          "type": "string"
        },
        {
          "indexed": false,
          "internalType": "uint256",
          "name": "_age",
          "type": "uint256"
        },
        {
          "indexed": true,
          "internalType": "string",
          "name": "_idNumber",
          "type": "string"
        }
      ],
      "name": "VoterRegistrationSuccess",
      "type": "event"
    },
    {
      "anonymous": false,
      "inputs": [],
      "name": "VotingEnded",
      "type": "event"
    },
    {
      "anonymous": false,
      "inputs": [],
      "name": "VotingStarted",
      "type": "event"
    },
    {
      "inputs": [],
      "name": "MAX_SUPPLY",
      "outputs": [
        {
          "internalType": "uint256",
          "name": "",
          "type": "uint256"
        }
      ],
      "stateMutability": "view",
      "type": "function"
    },
    {
      "inputs": [],
      "name": "REGISTER_AS_VOTER",
      "outputs": [
        {
          "internalType": "uint256",
          "name": "",
          "type": "uint256"
        }
      ],
      "stateMutability": "view",
      "type": "function"
    },
    {
      "inputs": [],
      "name": "VERIFY_CANDIDATE",
      "outputs": [
        {
          "internalType": "uint256",
          "name": "",
          "type": "uint256"
        }
      ],
      "stateMutability": "view",
      "type": "function"
    },
    {
      "inputs": [
        {
          "internalType": "string[]",
          "name": "_pNames",
          "type": "string[]"
        }
      ],
      "name": "addPositions",
      "outputs": [],
      "stateMutability": "nonpayable",
      "type": "function"
    },
    {
      "inputs": [
        {
          "internalType": "address",
          "name": "owner",
          "type": "address"
        },
        {
          "internalType": "address",
          "name": "spender",
          "type": "address"
        }
      ],
      "name": "allowance",
      "outputs": [
        {
          "internalType": "uint256",
          "name": "",
          "type": "uint256"
        }
      ],
      "stateMutability": "view",
      "type": "function"
    },
    {
      "inputs": [
        {
          "internalType": "address",
          "name": "spender",
          "type": "address"
        },
        {
          "internalType": "uint256",
          "name": "value",
          "type": "uint256"
        }
      ],
      "name": "approve",
      "outputs": [
        {
          "internalType": "bool",
          "name": "",
          "type": "bool"
        }
      ],
      "stateMutability": "nonpayable",
      "type": "function"
    },
    {
      "inputs": [
        {
          "internalType": "address",
          "name": "account",
          "type": "address"
        }
      ],
      "name": "balanceOf",
      "outputs": [
        {
          "internalType": "uint256",
          "name": "",
          "type": "uint256"
        }
      ],
      "stateMutability": "view",
      "type": "function"
    },
    {
      "inputs": [
        {
          "internalType": "string",
          "name": "",
          "type": "string"
        }
      ],
      "name": "candidateObject",
      "outputs": [
        {
          "internalType": "string",
          "name": "names",
          "type": "string"
        },
        {
          "internalType": "uint256",
          "name": "age",
          "type": "uint256"
        },
        {
          "internalType": "string",
          "name": "idNumber",
          "type": "string"
        },
        {
          "internalType": "string",
          "name": "party",
          "type": "string"
        },
        {
          "internalType": "uint256",
          "name": "votes",
          "type": "uint256"
        },
        {
          "internalType": "bool",
          "name": "verified",
          "type": "bool"
        },
        {
          "internalType": "string",
          "name": "position",
          "type": "string"
        }
      ],
      "stateMutability": "view",
      "type": "function"
    },
    {
      "inputs": [
        {
          "internalType": "address",
          "name": "userAddress",
          "type": "address"
        },
        {
          "internalType": "string",
          "name": "domain",
          "type": "string"
        },
        {
          "internalType": "string",
          "name": "statement",
          "type": "string"
        },
        {
          "internalType": "string",
          "name": "uri",
          "type": "string"
        },
        {
          "internalType": "uint256",
          "name": "chainId",
          "type": "uint256"
        },
        {
          "internalType": "uint256",
          "name": "nonce",
          "type": "uint256"
        }
      ],
      "name": "createMessageHash",
      "outputs": [
        {
          "internalType": "bytes32",
          "name": "",
          "type": "bytes32"
        }
      ],
      "stateMutability": "pure",
      "type": "function"
    },
    {
      "inputs": [],
      "name": "decimals",
      "outputs": [
        {
          "internalType": "uint8",
          "name": "",
          "type": "uint8"
        }
      ],
      "stateMutability": "view",
      "type": "function"
    },
    {
      "inputs": [
        {
          "internalType": "uint256",
          "name": "votingDays",
          "type": "uint256"
        }
      ],
      "name": "endRegistrationAndStartVoting",
      "outputs": [],
      "stateMutability": "nonpayable",
      "type": "function"
    },
    {
      "inputs": [],
      "name": "endVoting",
      "outputs": [],
      "stateMutability": "nonpayable",
      "type": "function"
    },
    {
      "inputs": [],
      "name": "getAllPositions",
      "outputs": [
        {
          "components": [
            {
              "internalType": "string",
              "name": "pName",
              "type": "string"
            },
            {
              "components": [
                {
                  "internalType": "string",
                  "name": "names",
                  "type": "string"
                },
                {
                  "internalType": "uint256",
                  "name": "age",
                  "type": "uint256"
                },
                {
                  "internalType": "string",
                  "name": "idNumber",
                  "type": "string"
                },
                {
                  "internalType": "string",
                  "name": "party",
                  "type": "string"
                },
                {
                  "internalType": "uint256",
                  "name": "votes",
                  "type": "uint256"
                },
                {
                  "internalType": "bool",
                  "name": "verified",
                  "type": "bool"
                },
                {
                  "internalType": "string",
                  "name": "position",
                  "type": "string"
                }
              ],
              "internalType": "struct Voting.Candidate[]",
              "name": "candidates",
              "type": "tuple[]"
            }
          ],
          "internalType": "struct Voting.Position[]",
          "name": "",
          "type": "tuple[]"
        }
      ],
      "stateMutability": "view",
      "type": "function"
    },
    {
      "inputs": [],
      "name": "getCandidates",
      "outputs": [
        {
          "components": [
            {
              "internalType": "string",
              "name": "names",
              "type": "string"
            },
            {
              "internalType": "uint256",
              "name": "age",
              "type": "uint256"
            },
            {
              "internalType": "string",
              "name": "idNumber",
              "type": "string"
            },
            {
              "internalType": "string",
              "name": "party",
              "type": "string"
            },
            {
              "internalType": "uint256",
              "name": "votes",
              "type": "uint256"
            },
            {
              "internalType": "bool",
              "name": "verified",
              "type": "bool"
            },
            {
              "internalType": "string",
              "name": "position",
              "type": "string"
            }
          ],
          "internalType": "struct Voting.Candidate[]",
          "name": "",
          "type": "tuple[]"
        }
      ],
      "stateMutability": "view",
      "type": "function"
    },
    {
      "inputs": [],
      "name": "getPositionCount",
      "outputs": [
        {
          "internalType": "uint256",
          "name": "",
          "type": "uint256"
        }
      ],
      "stateMutability": "view",
      "type": "function"
    },
    {
      "inputs": [],
      "name": "getVoters",
      "outputs": [
        {
          "components": [
            {
              "internalType": "string",
              "name": "names",
              "type": "string"
            },
            {
              "internalType": "uint256",
              "name": "age",
              "type": "uint256"
            },
            {
              "internalType": "string",
              "name": "idNumber",
              "type": "string"
            },
            {
              "internalType": "bool",
              "name": "voted",
              "type": "bool"
            }
          ],
          "internalType": "struct Voting.Voter[]",
          "name": "",
          "type": "tuple[]"
        }
      ],
      "stateMutability": "view",
      "type": "function"
    },
    {
      "inputs": [],
      "name": "getVotingEndTime",
      "outputs": [
        {
          "internalType": "uint256",
          "name": "",
          "type": "uint256"
        }
      ],
      "stateMutability": "view",
      "type": "function"
    },
    {
      "inputs": [
        {
          "internalType": "address",
          "name": "voter",
          "type": "address"
        },
        {
          "internalType": "string",
          "name": "position",
          "type": "string"
        }
      ],
      "name": "hasVoted",
      "outputs": [
        {
          "internalType": "bool",
          "name": "",
          "type": "bool"
        }
      ],
      "stateMutability": "view",
      "type": "function"
    },
    {
      "inputs": [
        {
          "internalType": "address",
          "name": "",
          "type": "address"
        },
        {
          "internalType": "string",
          "name": "",
          "type": "string"
        }
      ],
      "name": "hasVotedForPosition",
      "outputs": [
        {
          "internalType": "bool",
          "name": "",
          "type": "bool"
        }
      ],
      "stateMutability": "view",
      "type": "function"
    },
    {
      "inputs": [],
      "name": "hasVotingEnded",
      "outputs": [
        {
          "internalType": "bool",
          "name": "",
          "type": "bool"
        }
      ],
      "stateMutability": "view",
      "type": "function"
    },
    {
      "inputs": [
        {
          "internalType": "string",
          "name": "_idNumber",
          "type": "string"
        }
      ],
      "name": "isCandidateRegistered",
      "outputs": [
        {
          "internalType": "bool",
          "name": "",
          "type": "bool"
        }
      ],
      "stateMutability": "view",
      "type": "function"
    },
    {
      "inputs": [
        {
          "internalType": "address",
          "name": "_account",
          "type": "address"
        }
      ],
      "name": "isVoterRegistered",
      "outputs": [
        {
          "internalType": "bool",
          "name": "",
          "type": "bool"
        }
      ],
      "stateMutability": "view",
      "type": "function"
    },
    {
      "inputs": [
        {
          "internalType": "uint256",
          "name": "",
          "type": "uint256"
        }
      ],
      "name": "listOfCandidates",
      "outputs": [
        {
          "internalType": "string",
          "name": "names",
          "type": "string"
        },
        {
          "internalType": "uint256",
          "name": "age",
          "type": "uint256"
        },
        {
          "internalType": "string",
          "name": "idNumber",
          "type": "string"
        },
        {
          "internalType": "string",
          "name": "party",
          "type": "string"
        },
        {
          "internalType": "uint256",
          "name": "votes",
          "type": "uint256"
        },
        {
          "internalType": "bool",
          "name": "verified",
          "type": "bool"
        },
        {
          "internalType": "string",
          "name": "position",
          "type": "string"
        }
      ],
      "stateMutability": "view",
      "type": "function"
    },
    {
      "inputs": [
        {
          "internalType": "uint256",
          "name": "",
          "type": "uint256"
        }
      ],
      "name": "listOfPositions",
      "outputs": [
        {
          "internalType": "string",
          "name": "pName",
          "type": "string"
        }
      ],
      "stateMutability": "view",
      "type": "function"
    },
    {
      "inputs": [
        {
          "internalType": "uint256",
          "name": "",
          "type": "uint256"
        }
      ],
      "name": "listOfVoters",
      "outputs": [
        {
          "internalType": "string",
          "name": "names",
          "type": "string"
        },
        {
          "internalType": "uint256",
          "name": "age",
          "type": "uint256"
        },
        {
          "internalType": "string",
          "name": "idNumber",
          "type": "string"
        },
        {
          "internalType": "bool",
          "name": "voted",
          "type": "bool"
        }
      ],
      "stateMutability": "view",
      "type": "function"
    },
    {
      "inputs": [],
      "name": "name",
      "outputs": [
        {
          "internalType": "string",
          "name": "",
          "type": "string"
        }
      ],
      "stateMutability": "view",
      "type": "function"
    },
    {
      "inputs": [],
      "name": "owner",
      "outputs": [
        {
          "internalType": "address",
          "name": "",
          "type": "address"
        }
      ],
      "stateMutability": "view",
      "type": "function"
    },
    {
      "inputs": [
        {
          "internalType": "string",
          "name": "",
          "type": "string"
        }
      ],
      "name": "positions",
      "outputs": [
        {
          "internalType": "string",
          "name": "pName",
          "type": "string"
        }
      ],
      "stateMutability": "view",
      "type": "function"
    },
    {
      "inputs": [
        {
          "internalType": "string",
          "name": "_names",
          "type": "string"
        },
        {
          "internalType": "uint256",
          "name": "_age",
          "type": "uint256"
        },
        {
          "internalType": "string",
          "name": "_idNumber",
          "type": "string"
        },
        {
          "internalType": "string",
          "name": "_party",
          "type": "string"
        },
        {
          "internalType": "string",
          "name": "_position",
          "type": "string"
        }
      ],
      "name": "registerCandidate",
      "outputs": [],
      "stateMutability": "nonpayable",
      "type": "function"
    },
    {
      "inputs": [
        {
          "internalType": "string",
          "name": "_names",
          "type": "string"
        },
        {
          "internalType": "uint256",
          "name": "_age",
          "type": "uint256"
        },
        {
          "internalType": "string",
          "name": "_idNumber",
          "type": "string"
        }
      ],
      "name": "registerVoter",
      "outputs": [
        {
          "internalType": "bool",
          "name": "",
          "type": "bool"
        }
      ],
      "stateMutability": "nonpayable",
      "type": "function"
    },
    {
      "inputs": [],
      "name": "registrationStarted",
      "outputs": [
        {
          "internalType": "bool",
          "name": "",
          "type": "bool"
        }
      ],
      "stateMutability": "view",
      "type": "function"
    },
    {
      "inputs": [
        {
          "internalType": "string",
          "name": "_idNumber",
          "type": "string"
        }
      ],
      "name": "rejectCandidate",
      "outputs": [],
      "stateMutability": "nonpayable",
      "type": "function"
    },
    {
      "inputs": [],
      "name": "startRegistration",
      "outputs": [],
      "stateMutability": "nonpayable",
      "type": "function"
    },
    {
      "inputs": [],
      "name": "symbol",
      "outputs": [
        {
          "internalType": "string",
          "name": "",
          "type": "string"
        }
      ],
      "stateMutability": "view",
      "type": "function"
    },
    {
      "inputs": [],
      "name": "totalSupply",
      "outputs": [
        {
          "internalType": "uint256",
          "name": "",
          "type": "uint256"
        }
      ],
      "stateMutability": "view",
      "type": "function"
    },
    {
      "inputs": [
        {
          "internalType": "address",
          "name": "to",
          "type": "address"
        },
        {
          "internalType": "uint256",
          "name": "value",
          "type": "uint256"
        }
      ],
      "name": "transfer",
      "outputs": [
        {
          "internalType": "bool",
          "name": "",
          "type": "bool"
        }
      ],
      "stateMutability": "nonpayable",
      "type": "function"
    },
    {
      "inputs": [
        {
          "internalType": "address",
          "name": "from",
          "type": "address"
        },
        {
          "internalType": "address",
          "name": "to",
          "type": "address"
        },
        {
          "internalType": "uint256",
          "name": "value",
          "type": "uint256"
        }
      ],
      "name": "transferFrom",
      "outputs": [
        {
          "internalType": "bool",
          "name": "",
          "type": "bool"
        }
      ],
      "stateMutability": "nonpayable",
      "type": "function"
    },
    {
      "inputs": [
        {
          "internalType": "string",
          "name": "_idNumber",
          "type": "string"
        }
      ],
      "name": "verifyCandidate",
      "outputs": [],
      "stateMutability": "nonpayable",
      "type": "function"
    },
    {
      "inputs": [
        {
          "internalType": "bytes32",
          "name": "hash",
          "type": "bytes32"
        },
        {
          "internalType": "bytes",
          "name": "signature",
          "type": "bytes"
        }
      ],
      "name": "verifySignature",
      "outputs": [
        {
          "internalType": "bool",
          "name": "",
          "type": "bool"
        }
      ],
      "stateMutability": "view",
      "type": "function"
    },
    {
      "inputs": [
        {
          "internalType": "string",
          "name": "position",
          "type": "string"
        },
        {
          "internalType": "uint256",
          "name": "candidateIndex",
          "type": "uint256"
        }
      ],
      "name": "vote",
      "outputs": [],
      "stateMutability": "nonpayable",
      "type": "function"
    },
    {
      "inputs": [
        {
          "internalType": "string",
          "name": "",
          "type": "string"
        }
      ],
      "name": "voterObject",
      "outputs": [
        {
          "internalType": "string",
          "name": "names",
          "type": "string"
        },
        {
          "internalType": "uint256",
          "name": "age",
          "type": "uint256"
        },
        {
          "internalType": "string",
          "name": "idNumber",
          "type": "string"
        },
        {
          "internalType": "bool",
          "name": "voted",
          "type": "bool"
        }
      ],
      "stateMutability": "view",
      "type": "function"
    },
    {
      "inputs": [
        {
          "internalType": "address",
          "name": "",
          "type": "address"
        }
      ],
      "name": "voters",
      "outputs": [
        {
          "internalType": "string",
          "name": "names",
          "type": "string"
        },
        {
          "internalType": "uint256",
          "name": "age",
          "type": "uint256"
        },
        {
          "internalType": "string",
          "name": "idNumber",
          "type": "string"
        },
        {
          "internalType": "bool",
          "name": "voted",
          "type": "bool"
        }
      ],
      "stateMutability": "view",
      "type": "function"
    },
    {
      "inputs": [],
      "name": "votingEndTime",
      "outputs": [
        {
          "internalType": "uint256",
          "name": "",
          "type": "uint256"
        }
      ],
      "stateMutability": "view",
      "type": "function"
    },
    {
      "inputs": [],
      "name": "votingStarted",
      "outputs": [
        {
          "internalType": "bool",
          "name": "",
          "type": "bool"
        }
      ],
      "stateMutability": "view",
      "type": "function"
    }
  ],
  "bytecode": "0x60806040526000601060006101000a81548160ff0219169083151502179055506000601060016101000a81548160ff02191690831515021790555034801561004657600080fd5b506040518060400160405280600581526020017f566f7465780000000000000000000000000000000000000000000000000000008152506040518060400160405280600481526020017f56544b4e0000000000000000000000000000000000000000000000000000000081525081600390816100c2919061036b565b5080600490816100d2919061036b565b50505033600560006101000a81548173ffffffffffffffffffffffffffffffffffffffff021916908373ffffffffffffffffffffffffffffffffffffffff16021790555061043d565b600081519050919050565b7f4e487b7100000000000000000000000000000000000000000000000000000000600052604160045260246000fd5b7f4e487b7100000000000000000000000000000000000000000000000000000000600052602260045260246000fd5b6000600282049050600182168061019c57607f821691505b6020821081036101af576101ae610155565b5b50919050565b60008190508160005260206000209050919050565b60006020601f8301049050919050565b600082821b905092915050565b6000600883026102177fffffffffffffffffffffffffffffffffffffffffffffffffffffffffffffffff826101da565b61022186836101da565b95508019841693508086168417925050509392505050565b6000819050919050565b6000819050919050565b600061026861026361025e84610239565b610243565b610239565b9050919050565b6000819050919050565b6102828361024d565b61029661028e8261026f565b8484546101e7565b825550505050565b600090565b6102ab61029e565b6102b6818484610279565b505050565b5b818110156102da576102cf6000826102a3565b6001810190506102bc565b5050565b601f82111561031f576102f0816101b5565b6102f9846101ca565b81016020851015610308578190505b61031c610314856101ca565b8301826102bb565b50505b505050565b600082821c905092915050565b600061034260001984600802610324565b1980831691505092915050565b600061035b8383610331565b9150826002028217905092915050565b6103748261011b565b67ffffffffffffffff81111561038d5761038c610126565b5b6103978254610184565b6103a28282856102de565b600060209050601f8311600181146103d557600084156103c3578287015190505b6103cd858261034f565b865550610435565b601f1984166103e3866101b5565b60005b8281101561040b578489015182556001820191506020850194506020810190506103e6565b868310156104285784890151610424601f891682610331565b8355505b6001600288020188555050505b505050505050565b6178698061044c6000396000f3fe608060405234801561001057600080fd5b50600436106102745760003560e01c806383d948b711610151578063b034d2b3116100c3578063c684706011610087578063c6847060146107dc578063cdd722531461080c578063daca6f781461082a578063dd62ed3e1461085a578063eb2119db1461088a578063ffdd7496146108ba57610274565b8063b034d2b31461075e578063b1bf87b01461077a578063b80a398a14610798578063be94ced7146107b4578063c3403ddf146107d257610274565b80639a53cbea116101155780639a53cbea146106745780639dfa9065146106a7578063a3ec138d146106c3578063a6385803146106f6578063a9059cbb14610712578063abceaad21461074257610274565b806383d948b7146105b45780638ad1782b146105d25780638da5cb5b1461060257806392d7df4a1461062057806395d89b411461065657610274565b806332cb6b0c116101ea5780635fbcc155116101ae5780635fbcc155146104a65780636636b91e146104d6578063676f86b01461050657806370a082311461053657806371a6f46514610566578063816834761461059657610274565b806332cb6b0c146103eb5780633dd079c0146104095780634902a179146104275780634a66e1ab14610443578063565e802a1461047657610274565b806318f56a0a1161023c57806318f56a0a1461030d5780631c64a33e1461032b5780631ea736e01461036157806323b872dd1461037f57806327aed42e146103af578063313ce567146103cd57610274565b806306a49fce1461027957806306fdde0314610297578063095ea7b3146102b557806310b86695146102e557806318160ddd146102ef575b600080fd5b6102816108d8565b60405161028e9190615097565b60405180910390f35b61029f610bae565b6040516102ac9190615103565b60405180910390f35b6102cf60048036038101906102ca91906151c3565b610c40565b6040516102dc9190615212565b60405180910390f35b6102ed610c63565b005b6102f7610ddc565b604051610304919061523c565b60405180910390f35b610315610de6565b60405161032291906153e3565b60405180910390f35b6103456004803603810190610340919061553a565b6111ad565b6040516103589796959493929190615583565b60405180910390f35b610369611432565b604051610376919061523c565b60405180910390f35b6103996004803603810190610394919061560e565b611438565b6040516103a69190615212565b60405180910390f35b6103b7611467565b6040516103c49190615212565b60405180910390f35b6103d561147a565b6040516103e2919061567d565b60405180910390f35b6103f3611483565b604051610400919061523c565b60405180910390f35b610411611491565b60405161041e9190615212565b60405180910390f35b610441600480360381019061043c9190615698565b6114b6565b005b61045d6004803603810190610458919061553a565b611696565b60405161046d94939291906156c5565b60405180910390f35b610490600480360381019061048b919061553a565b6117f9565b60405161049d9190615212565b60405180910390f35b6104c060048036038101906104bb9190615718565b611832565b6040516104cd9190615812565b60405180910390f35b6104f060048036038101906104eb919061582d565b6118a1565b6040516104fd9190615212565b60405180910390f35b610520600480360381019061051b919061553a565b611c76565b60405161052d9190615103565b60405180910390f35b610550600480360381019061054b91906158b8565b611d32565b60405161055d919061523c565b60405180910390f35b610580600480360381019061057b9190615698565b611d7a565b60405161058d9190615103565b60405180910390f35b61059e611e30565b6040516105ab919061523c565b60405180910390f35b6105bc611e3d565b6040516105c99190615212565b60405180910390f35b6105ec60048036038101906105e791906158e5565b611e50565b6040516105f99190615212565b60405180910390f35b61060a611e95565b6040516106179190615950565b60405180910390f35b61063a60048036038101906106359190615698565b611ebb565b60405161064d9796959493929190615583565b60405180910390f35b61065e61213a565b60405161066b9190615103565b60405180910390f35b61068e60048036038101906106899190615698565b6121cc565b60405161069e94939291906156c5565b60405180910390f35b6106c160048036038101906106bc919061553a565b612329565b005b6106dd60048036038101906106d891906158b8565b6125c8565b6040516106ed94939291906156c5565b60405180910390f35b610710600480360381019061070b919061596b565b612715565b005b61072c600480360381019061072791906151c3565b612dd0565b6040516107399190615212565b60405180910390f35b61075c60048036038101906107579190615aad565b612df3565b005b6107786004803603810190610773919061553a565b61308b565b005b610782613493565b60405161078f919061523c565b60405180910390f35b6107b260048036038101906107ad9190615af6565b61349d565b005b6107bc61396f565b6040516107c9919061523c565b60405180910390f35b6107da61397b565b005b6107f660048036038101906107f191906158e5565b613b0a565b6040516108039190615212565b60405180910390f35b610814613b7d565b6040516108219190615d0d565b60405180910390f35b610844600480360381019061083f9190615dfc565b613d25565b6040516108519190615212565b60405180910390f35b610874600480360381019061086f9190615e58565b613d98565b604051610881919061523c565b60405180910390f35b6108a4600480360381019061089f91906158b8565b613e1f565b6040516108b19190615212565b60405180910390f35b6108c2613e7a565b6040516108cf919061523c565b60405180910390f35b60606008805480602002602001604051908101604052809291908181526020016000905b82821015610ba557838290600052602060002090600702016040518060e001604052908160008201805461092f90615ec7565b80601f016020809104026020016040519081016040528092919081815260200182805461095b90615ec7565b80156109a85780601f1061097d576101008083540402835291602001916109a8565b820191906000526020600020905b81548152906001019060200180831161098b57829003601f168201915b50505050508152602001600182015481526020016002820180546109cb90615ec7565b80601f01602080910402602001604051908101604052809291908181526020018280546109f790615ec7565b8015610a445780601f10610a1957610100808354040283529160200191610a44565b820191906000526020600020905b815481529060010190602001808311610a2757829003601f168201915b50505050508152602001600382018054610a5d90615ec7565b80601f0160208091040260200160405190810160405280929190818152602001828054610a8990615ec7565b8015610ad65780601f10610aab57610100808354040283529160200191610ad6565b820191906000526020600020905b815481529060010190602001808311610ab957829003601f168201915b50505050508152602001600482015481526020016005820160009054906101000a900460ff16151515158152602001600682018054610b1490615ec7565b80601f0160208091040260200160405190810160405280929190818152602001828054610b4090615ec7565b8015610b8d5780601f10610b6257610100808354040283529160200191610b8d565b820191906000526020600020905b815481529060010190602001808311610b7057829003601f168201915b505050505081525050815260200190600101906108fc565b50505050905090565b606060038054610bbd90615ec7565b80601f0160208091040260200160405190810160405280929190818152602001828054610be990615ec7565b8015610c365780601f10610c0b57610100808354040283529160200191610c36565b820191906000526020600020905b815481529060010190602001808311610c1957829003601f168201915b5050505050905090565b600080610c4b613e86565b9050610c58818585613e8e565b600191505092915050565b600560009054906101000a900473ffffffffffffffffffffffffffffffffffffffff1673ffffffffffffffffffffffffffffffffffffffff163373ffffffffffffffffffffffffffffffffffffffff1614610cf3576040517f08c379a0000000000000000000000000000000000000000000000000000000008152600401610cea90615f44565b60405180910390fd5b601060009054906101000a900460ff1615610d43576040517f08c379a0000000000000000000000000000000000000000000000000000000008152600401610d3a90615fd6565b60405180910390fd5b601060019054906101000a900460ff1615610d93576040517f08c379a0000000000000000000000000000000000000000000000000000000008152600401610d8a90616068565b60405180910390fd5b6001601060006101000a81548160ff0219169083151502179055507f82e6c84abd647d1b4fae9bee1859f2642e5443af0ff900d4af83a93c2bf4151260405160405180910390a1565b6000600254905090565b60606009805480602002602001604051908101604052809291908181526020016000905b828210156111a45783829060005260206000209060020201604051806040016040529081600082018054610e3d90615ec7565b80601f0160208091040260200160405190810160405280929190818152602001828054610e6990615ec7565b8015610eb65780601f10610e8b57610100808354040283529160200191610eb6565b820191906000526020600020905b815481529060010190602001808311610e9957829003601f168201915b5050505050815260200160018201805480602002602001604051908101604052809291908181526020016000905b8282101561118d57838290600052602060002090600702016040518060e0016040529081600082018054610f1790615ec7565b80601f0160208091040260200160405190810160405280929190818152602001828054610f4390615ec7565b8015610f905780601f10610f6557610100808354040283529160200191610f90565b820191906000526020600020905b815481529060010190602001808311610f7357829003601f168201915b5050505050815260200160018201548152602001600282018054610fb390615ec7565b80601f0160208091040260200160405190810160405280929190818152602001828054610fdf90615ec7565b801561102c5780601f106110015761010080835404028352916020019161102c565b820191906000526020600020905b81548152906001019060200180831161100f57829003601f168201915b5050505050815260200160038201805461104590615ec7565b80601f016020809104026020016040519081016040528092919081815260200182805461107190615ec7565b80156110be5780601f10611093576101008083540402835291602001916110be565b820191906000526020600020905b8154815290600101906020018083116110a157829003601f168201915b50505050508152602001600482015481526020016005820160009054906101000a900460ff161515151581526020016006820180546110fc90615ec7565b80601f016020809104026020016040519081016040528092919081815260200182805461112890615ec7565b80156111755780601f1061114a57610100808354040283529160200191611175565b820191906000526020600020905b81548152906001019060200180831161115857829003601f168201915b50505050508152505081526020019060010190610ee4565b505050508152505081526020019060010190610e0a565b50505050905090565b600b818051602081018201805184825260208301602085012081835280955050505050506000915090508060000180546111e690615ec7565b80601f016020809104026020016040519081016040528092919081815260200182805461121290615ec7565b801561125f5780601f106112345761010080835404028352916020019161125f565b820191906000526020600020905b81548152906001019060200180831161124257829003601f168201915b50505050509080600101549080600201805461127a90615ec7565b80601f01602080910402602001604051908101604052809291908181526020018280546112a690615ec7565b80156112f35780601f106112c8576101008083540402835291602001916112f3565b820191906000526020600020905b8154815290600101906020018083116112d657829003601f168201915b50505050509080600301805461130890615ec7565b80601f016020809104026020016040519081016040528092919081815260200182805461133490615ec7565b80156113815780601f1061135657610100808354040283529160200191611381565b820191906000526020600020905b81548152906001019060200180831161136457829003601f168201915b5050505050908060040154908060050160009054906101000a900460ff16908060060180546113af90615ec7565b80601f01602080910402602001604051908101604052809291908181526020018280546113db90615ec7565b80156114285780601f106113fd57610100808354040283529160200191611428565b820191906000526020600020905b81548152906001019060200180831161140b57829003601f168201915b5050505050905087565b60065481565b600080611443613e86565b9050611450858285613ea0565b61145b858585613f34565b60019150509392505050565b601060009054906101000a900460ff1681565b60006012905090565b69d3c21bcecceda100000081565b6000601060019054906101000a900460ff1680156114b157506006544210155b905090565b600560009054906101000a900473ffffffffffffffffffffffffffffffffffffffff1673ffffffffffffffffffffffffffffffffffffffff163373ffffffffffffffffffffffffffffffffffffffff1614611546576040517f08c379a000000000000000000000000000000000000000000000000000000000815260040161153d90615f44565b60405180910390fd5b601060009054906101000a900460ff16611595576040517f08c379a000000000000000000000000000000000000000000000000000000000815260040161158c906160fa565b60405180910390fd5b601060019054906101000a900460ff16156115e5576040517f08c379a00000000000000000000000000000000000000000000000000000000081526004016115dc90616166565b60405180910390fd5b6000601060006101000a81548160ff0219169083151502179055506001601060016101000a81548160ff021916908315150217905550620151808161162a91906161b5565b4261163591906161f7565b6006819055507f2ee88f50f05558e39b34a18214ff6a6adc091504772084c6ce7899354bec0aa460405160405180910390a17f877e2548498f42b7975a186b94ef1d32c86d420b7b806dd2be2bea293b89590460405160405180910390a150565b600a818051602081018201805184825260208301602085012081835280955050505050506000915090508060000180546116cf90615ec7565b80601f01602080910402602001604051908101604052809291908181526020018280546116fb90615ec7565b80156117485780601f1061171d57610100808354040283529160200191611748565b820191906000526020600020905b81548152906001019060200180831161172b57829003601f168201915b50505050509080600101549080600201805461176390615ec7565b80601f016020809104026020016040519081016040528092919081815260200182805461178f90615ec7565b80156117dc5780601f106117b1576101008083540402835291602001916117dc565b820191906000526020600020905b8154815290600101906020018083116117bf57829003601f168201915b5050505050908060030160009054906101000a900460ff16905084565b600080600b8360405161180c9190616267565b9081526020016040518091039020600001805461182890615ec7565b9050119050919050565b6000856118568873ffffffffffffffffffffffffffffffffffffffff166014614028565b86866118618761426e565b61186a8761426e565b60405160200161187f9695949392919061652a565b6040516020818303038152906040528051906020012090509695505050505050565b6000601060009054906101000a900460ff166118f2576040517f08c379a00000000000000000000000000000000000000000000000000000000081526004016118e9906160fa565b60405180910390fd5b601060019054906101000a900460ff1615611942576040517f08c379a000000000000000000000000000000000000000000000000000000000815260040161193990616683565b60405180910390fd5b6000600a836040516119549190616267565b9081526020016040518091039020600001805461197090615ec7565b9050146119b2576040517f08c379a00000000000000000000000000000000000000000000000000000000081526004016119a9906166ef565b60405180910390fd5b6000600d60003373ffffffffffffffffffffffffffffffffffffffff1673ffffffffffffffffffffffffffffffffffffffff1681526020019081526020016000206001015414611a37576040517f08c379a0000000000000000000000000000000000000000000000000000000008152600401611a2e90616781565b60405180910390fd5b6000604051806080016040528086815260200185815260200184815260200160001515815250905060078190806001815401808255809150506001900390600052602060002090600402016000909190919091506000820151816000019081611aa0919061694d565b50602082015181600101556040820151816002019081611ac0919061694d565b5060608201518160030160006101000a81548160ff021916908315150217905550505080600a84604051611af49190616267565b90815260200160405180910390206000820151816000019081611b17919061694d565b50602082015181600101556040820151816002019081611b37919061694d565b5060608201518160030160006101000a81548160ff02191690831515021790555090505080600d60003373ffffffffffffffffffffffffffffffffffffffff1673ffffffffffffffffffffffffffffffffffffffff1681526020019081526020016000206000820151816000019081611bb0919061694d565b50602082015181600101556040820151816002019081611bd0919061694d565b5060608201518160030160006101000a81548160ff021916908315150217905550905050611c0633674563918244f4000061433c565b5082604051611c159190616267565b604051809103902085604051611c2b9190616267565b60405180910390207f754a5f7c9336f3562d73dacebf51de10da957ae9dfcae4fbfb93733ece3dd5aa86604051611c62919061523c565b60405180910390a360019150509392505050565b600c81805160208101820180518482526020830160208501208183528095505050505050600091509050806000018054611caf90615ec7565b80601f0160208091040260200160405190810160405280929190818152602001828054611cdb90615ec7565b8015611d285780601f10611cfd57610100808354040283529160200191611d28565b820191906000526020600020905b815481529060010190602001808311611d0b57829003601f168201915b5050505050905081565b60008060008373ffffffffffffffffffffffffffffffffffffffff1673ffffffffffffffffffffffffffffffffffffffff168152602001908152602001600020549050919050565b60098181548110611d8a57600080fd5b9060005260206000209060020201600091509050806000018054611dad90615ec7565b80601f0160208091040260200160405190810160405280929190818152602001828054611dd990615ec7565b8015611e265780601f10611dfb57610100808354040283529160200191611e26565b820191906000526020600020905b815481529060010190602001808311611e0957829003601f168201915b5050505050905081565b6000600980549050905090565b601060019054906101000a900460ff1681565b600f602052816000526040600020818051602081018201805184825260208301602085012081835280955050505050506000915091509054906101000a900460ff1681565b600560009054906101000a900473ffffffffffffffffffffffffffffffffffffffff1681565b60088181548110611ecb57600080fd5b9060005260206000209060070201600091509050806000018054611eee90615ec7565b80601f0160208091040260200160405190810160405280929190818152602001828054611f1a90615ec7565b8015611f675780601f10611f3c57610100808354040283529160200191611f67565b820191906000526020600020905b815481529060010190602001808311611f4a57829003601f168201915b505050505090806001015490806002018054611f8290615ec7565b80601f0160208091040260200160405190810160405280929190818152602001828054611fae90615ec7565b8015611ffb5780601f10611fd057610100808354040283529160200191611ffb565b820191906000526020600020905b815481529060010190602001808311611fde57829003601f168201915b50505050509080600301805461201090615ec7565b80601f016020809104026020016040519081016040528092919081815260200182805461203c90615ec7565b80156120895780601f1061205e57610100808354040283529160200191612089565b820191906000526020600020905b81548152906001019060200180831161206c57829003601f168201915b5050505050908060040154908060050160009054906101000a900460ff16908060060180546120b790615ec7565b80601f01602080910402602001604051908101604052809291908181526020018280546120e390615ec7565b80156121305780601f1061210557610100808354040283529160200191612130565b820191906000526020600020905b81548152906001019060200180831161211357829003601f168201915b5050505050905087565b60606004805461214990615ec7565b80601f016020809104026020016040519081016040528092919081815260200182805461217590615ec7565b80156121c25780601f10612197576101008083540402835291602001916121c2565b820191906000526020600020905b8154815290600101906020018083116121a557829003601f168201915b5050505050905090565b600781815481106121dc57600080fd5b90600052602060002090600402016000915090508060000180546121ff90615ec7565b80601f016020809104026020016040519081016040528092919081815260200182805461222b90615ec7565b80156122785780601f1061224d57610100808354040283529160200191612278565b820191906000526020600020905b81548152906001019060200180831161225b57829003601f168201915b50505050509080600101549080600201805461229390615ec7565b80601f01602080910402602001604051908101604052809291908181526020018280546122bf90615ec7565b801561230c5780601f106122e15761010080835404028352916020019161230c565b820191906000526020600020905b8154815290600101906020018083116122ef57829003601f168201915b5050505050908060030160009054906101000a900460ff16905084565b600560009054906101000a900473ffffffffffffffffffffffffffffffffffffffff1673ffffffffffffffffffffffffffffffffffffffff163373ffffffffffffffffffffffffffffffffffffffff16146123b9576040517f08c379a00000000000000000000000000000000000000000000000000000000081526004016123b090615f44565b60405180910390fd5b600b816040516123c99190616267565b908152602001604051809103902060050160009054906101000a900460ff1615612428576040517f08c379a000000000000000000000000000000000000000000000000000000000815260040161241f90616a6b565b60405180910390fd5b6001600b8260405161243a9190616267565b908152602001604051809103902060050160006101000a81548160ff02191690831515021790555060005b60088054905081101561253957816040516020016124839190616267565b60405160208183030381529060405280519060200120600882815481106124ad576124ac616a8b565b5b90600052602060002090600702016002016040516020016124ce9190616b3d565b604051602081830303815290604052805190602001200361252c576001600882815481106124ff576124fe616a8b565b5b906000526020600020906007020160050160006101000a81548160ff021916908315150217905550612539565b8080600101915050612465565b5061254c33678ac7230489e8000061433c565b508060405161255b9190616267565b6040518091039020600b826040516125739190616267565b90815260200160405180910390206000016040516125919190616b3d565b60405180910390207fb78543f054c768084f86f0e559d1e007998ca69729eeffc4b727baa388934a3260405160405180910390a350565b600d6020528060005260406000206000915090508060000180546125eb90615ec7565b80601f016020809104026020016040519081016040528092919081815260200182805461261790615ec7565b80156126645780601f1061263957610100808354040283529160200191612664565b820191906000526020600020905b81548152906001019060200180831161264757829003601f168201915b50505050509080600101549080600201805461267f90615ec7565b80601f01602080910402602001604051908101604052809291908181526020018280546126ab90615ec7565b80156126f85780601f106126cd576101008083540402835291602001916126f8565b820191906000526020600020905b8154815290600101906020018083116126db57829003601f168201915b5050505050908060030160009054906101000a900460ff16905084565b601060009054906101000a900460ff1615612765576040517f08c379a000000000000000000000000000000000000000000000000000000000815260040161275c90616bc6565b60405180910390fd5b601060019054906101000a900460ff166127b4576040517f08c379a00000000000000000000000000000000000000000000000000000000081526004016127ab90616c32565b60405180910390fd5b6000600d60003373ffffffffffffffffffffffffffffffffffffffff1673ffffffffffffffffffffffffffffffffffffffff16815260200190815260200160002090507fa78b5858bb0b1b1a89861b226e2017f861eb09b440e6dccbbc3a4a11fde5bf0a3384600060405161282b93929190616c9e565b60405180910390a16000600c846040516128459190616267565b9081526020016040518091039020600101805490501161289a576040517f08c379a000000000000000000000000000000000000000000000000000000000815260040161289190616d3b565b60405180910390fd5b7fa78b5858bb0b1b1a89861b226e2017f861eb09b440e6dccbbc3a4a11fde5bf0a338460006040516128ce93929190616dcd565b60405180910390a1600c836040516128e69190616267565b908152602001604051809103902060010180549050821061293c576040517f08c379a000000000000000000000000000000000000000000000000000000000815260040161293390616e6a565b60405180910390fd5b7fa78b5858bb0b1b1a89861b226e2017f861eb09b440e6dccbbc3a4a11fde5bf0a3384600f60003373ffffffffffffffffffffffffffffffffffffffff1673ffffffffffffffffffffffffffffffffffffffff168152602001908152602001600020866040516129ac9190616267565b908152602001604051809103902060009054906101000a900460ff166040516129d793929190616efc565b60405180910390a1600f60003373ffffffffffffffffffffffffffffffffffffffff1673ffffffffffffffffffffffffffffffffffffffff16815260200190815260200160002083604051612a2c9190616267565b908152602001604051809103902060009054906101000a900460ff1615612a88576040517f08c379a0000000000000000000000000000000000000000000000000000000008152600401612a7f90616fbf565b60405180910390fd5b6001600c84604051612a9a9190616267565b90815260200160405180910390206001018381548110612abd57612abc616a8b565b5b90600052602060002090600702016004016000828254612add91906161f7565b925050819055506000600c84604051612af69190616267565b90815260200160405180910390206001018381548110612b1957612b18616a8b565b5b90600052602060002090600702016002018054612b3590615ec7565b80601f0160208091040260200160405190810160405280929190818152602001828054612b6190615ec7565b8015612bae5780601f10612b8357610100808354040283529160200191612bae565b820191906000526020600020905b815481529060010190602001808311612b9157829003601f168201915b5050505050905060005b600880549050811015612c8b5781604051602001612bd69190616267565b6040516020818303038152906040528051906020012060088281548110612c0057612bff616a8b565b5b9060005260206000209060070201600201604051602001612c219190616b3d565b6040516020818303038152906040528051906020012003612c7e57600160088281548110612c5257612c51616a8b565b5b90600052602060002090600702016004016000828254612c7291906161f7565b92505081905550612c8b565b8080600101915050612bb8565b506001600b82604051612c9e9190616267565b90815260200160405180910390206004016000828254612cbe91906161f7565b925050819055506001600f60003373ffffffffffffffffffffffffffffffffffffffff1673ffffffffffffffffffffffffffffffffffffffff16815260200190815260200160002085604051612d149190616267565b908152602001604051809103902060006101000a81548160ff0219169083151502179055503373ffffffffffffffffffffffffffffffffffffffff167f477d7faf347a03679fabd88feea150c41667473fc8412962f607fb7503f1bd43836002018686604051612d8693929190617063565b60405180910390a27fa78b5858bb0b1b1a89861b226e2017f861eb09b440e6dccbbc3a4a11fde5bf0a33856001604051612dc2939291906170f4565b60405180910390a150505050565b600080612ddb613e86565b9050612de8818585613f34565b600191505092915050565b600560009054906101000a900473ffffffffffffffffffffffffffffffffffffffff1673ffffffffffffffffffffffffffffffffffffffff163373ffffffffffffffffffffffffffffffffffffffff1614612e83576040517f08c379a0000000000000000000000000000000000000000000000000000000008152600401612e7a90615f44565b60405180910390fd5b60005b815181101561308757600e828281518110612ea457612ea3616a8b565b5b6020026020010151604051612eb99190616267565b908152602001604051809103902060009054906101000a900460ff1615612f15576040517f08c379a0000000000000000000000000000000000000000000000000000000008152600401612f0c90617191565b60405180910390fd5b6000600c838381518110612f2c57612f2b616a8b565b5b6020026020010151604051612f419190616267565b90815260200160405180910390209050828281518110612f6457612f63616a8b565b5b6020026020010151816000019081612f7c919061694d565b50600981908060018154018082558091505060019003906000526020600020906002020160009091909190915060008201816000019081612fbd91906171c7565b506001820181600101908054612fd4929190614c9b565b5050506001600e848481518110612fee57612fed616a8b565b5b60200260200101516040516130039190616267565b908152602001604051809103902060006101000a81548160ff0219169083151502179055507ff635339f4b5986d632e76f25211c57346b4b4ca3aa13c1ba323ac1256373145683838151811061305c5761305b616a8b565b5b60200260200101516040516130719190615103565b60405180910390a1508080600101915050612e86565b5050565b600560009054906101000a900473ffffffffffffffffffffffffffffffffffffffff1673ffffffffffffffffffffffffffffffffffffffff163373ffffffffffffffffffffffffffffffffffffffff161461311b576040517f08c379a000000000000000000000000000000000000000000000000000000000815260040161311290615f44565b60405180910390fd5b6000600b8260405161312d9190616267565b9081526020016040518091039020600001805461314990615ec7565b90500361318b576040517f08c379a0000000000000000000000000000000000000000000000000000000008152600401613182906172fb565b60405180910390fd5b60005b60088054905081101561348f57816040516020016131ac9190616267565b60405160208183030381529060405280519060200120600882815481106131d6576131d5616a8b565b5b90600052602060002090600702016002016040516020016131f79190616b3d565b60405160208183030381529060405280519060200120036134825760008190505b600160088054905061322a919061731b565b81101561332657600860018261324091906161f7565b8154811061325157613250616a8b565b5b90600052602060002090600702016008828154811061327357613272616a8b565b5b90600052602060002090600702016000820181600001908161329591906171c7565b5060018201548160010155600282018160020190816132b491906171c7565b50600382018160030190816132c991906171c7565b50600482015481600401556005820160009054906101000a900460ff168160050160006101000a81548160ff0219169083151502179055506006820181600601908161331591906171c7565b509050508080600101915050613218565b5060088054806133395761333861734f565b5b60019003818190600052602060002090600702016000808201600061335e9190614d88565b60018201600090556002820160006133769190614d88565b6003820160006133869190614d88565b60048201600090556005820160006101000a81549060ff02191690556006820160006133b29190614d88565b50509055600b826040516133c69190616267565b9081526020016040518091039020600080820160006133e59190614d88565b60018201600090556002820160006133fd9190614d88565b60038201600061340d9190614d88565b60048201600090556005820160006101000a81549060ff02191690556006820160006134399190614d88565b5050816040516134499190616267565b60405180910390207f8f5f7793556433ecc92e19fec29f06611a3ac9c5a32b806db2149f70d52946fe60405160405180910390a261348f565b808060010191505061318e565b5050565b6000600654905090565b601060009054906101000a900460ff166134ec576040517f08c379a00000000000000000000000000000000000000000000000000000000081526004016134e3906160fa565b60405180910390fd5b601060019054906101000a900460ff161561353c576040517f08c379a000000000000000000000000000000000000000000000000000000000815260040161353390616683565b60405180910390fd5b6000600b8460405161354e9190616267565b9081526020016040518091039020600001805461356a90615ec7565b9050146135ac576040517f08c379a00000000000000000000000000000000000000000000000000000000081526004016135a3906173ca565b60405180910390fd5b6000600a846040516135be9190616267565b908152602001604051809103902060000180546135da90615ec7565b90500361361c576040517f08c379a000000000000000000000000000000000000000000000000000000000815260040161361390617436565b60405180910390fd5b60006040518060e001604052808781526020018681526020018581526020018481526020016000815260200160001515815260200183815250905060088190806001815401808255809150506001900390600052602060002090600702016000909190919091506000820151816000019081613698919061694d565b506020820151816001015560408201518160020190816136b8919061694d565b5060608201518160030190816136ce919061694d565b506080820151816004015560a08201518160050160006101000a81548160ff02191690831515021790555060c082015181600601908161370e919061694d565b50505080600b856040516137229190616267565b90815260200160405180910390206000820151816000019081613745919061694d565b50602082015181600101556040820151816002019081613765919061694d565b50606082015181600301908161377b919061694d565b506080820151816004015560a08201518160050160006101000a81548160ff02191690831515021790555060c08201518160060190816137bb919061694d565b509050506000600c836040516137d19190616267565b9081526020016040518091039020600101805490501015613827576040517f08c379a000000000000000000000000000000000000000000000000000000000815260040161381e906174a2565b60405180910390fd5b600c826040516138379190616267565b90815260200160405180910390206001018190806001815401808255809150506001900390600052602060002090600702016000909190919091506000820151816000019081613887919061694d565b506020820151816001015560408201518160020190816138a7919061694d565b5060608201518160030190816138bd919061694d565b506080820151816004015560a08201518160050160006101000a81548160ff02191690831515021790555060c08201518160060190816138fd919061694d565b5050508360405161390e9190616267565b6040518091039020866040516139249190616267565b60405180910390207fd9f17a5389d6109c78413a18e9adfec5a898c288bbd8c9e65de38e95f04b9e0787868660405161395f939291906174c2565b60405180910390a3505050505050565b674563918244f4000081565b600560009054906101000a900473ffffffffffffffffffffffffffffffffffffffff1673ffffffffffffffffffffffffffffffffffffffff163373ffffffffffffffffffffffffffffffffffffffff1614613a0b576040517f08c379a0000000000000000000000000000000000000000000000000000000008152600401613a0290615f44565b60405180910390fd5b601060019054906101000a900460ff16613a5a576040517f08c379a0000000000000000000000000000000000000000000000000000000008152600401613a5190617553565b60405180910390fd5b6006544210613a9e576040517f08c379a0000000000000000000000000000000000000000000000000000000008152600401613a95906175bf565b60405180910390fd5b6000601060016101000a81548160ff02191690831515021790555060006006819055506001601060006101000a81548160ff0219169083151502179055507f7a19ed057db79e3c2fa0b97a54b43bef4fce74b31bb6c01af514b9a18a7f70ab60405160405180910390a1565b6000600f60008473ffffffffffffffffffffffffffffffffffffffff1673ffffffffffffffffffffffffffffffffffffffff16815260200190815260200160002082604051613b599190616267565b908152602001604051809103902060009054906101000a900460ff16905092915050565b60606007805480602002602001604051908101604052809291908181526020016000905b82821015613d1c5783829060005260206000209060040201604051806080016040529081600082018054613bd490615ec7565b80601f0160208091040260200160405190810160405280929190818152602001828054613c0090615ec7565b8015613c4d5780601f10613c2257610100808354040283529160200191613c4d565b820191906000526020600020905b815481529060010190602001808311613c3057829003601f168201915b5050505050815260200160018201548152602001600282018054613c7090615ec7565b80601f0160208091040260200160405190810160405280929190818152602001828054613c9c90615ec7565b8015613ce95780601f10613cbe57610100808354040283529160200191613ce9565b820191906000526020600020905b815481529060010190602001808311613ccc57829003601f168201915b505050505081526020016003820160009054906101000a900460ff16151515158152505081526020019060010190613ba1565b50505050905090565b60008083604051602001613d39919061764c565b6040516020818303038152906040528051906020012090506000613d5d82856143ea565b90503373ffffffffffffffffffffffffffffffffffffffff168173ffffffffffffffffffffffffffffffffffffffff16149250505092915050565b6000600160008473ffffffffffffffffffffffffffffffffffffffff1673ffffffffffffffffffffffffffffffffffffffff16815260200190815260200160002060008373ffffffffffffffffffffffffffffffffffffffff1673ffffffffffffffffffffffffffffffffffffffff16815260200190815260200160002054905092915050565b600080600d60008473ffffffffffffffffffffffffffffffffffffffff1673ffffffffffffffffffffffffffffffffffffffff1681526020019081526020016000206000018054613e6f90615ec7565b905014159050919050565b678ac7230489e8000081565b600033905090565b613e9b8383836001614416565b505050565b6000613eac8484613d98565b90507fffffffffffffffffffffffffffffffffffffffffffffffffffffffffffffffff8114613f2e5781811015613f1e578281836040517ffb8f41b2000000000000000000000000000000000000000000000000000000008152600401613f1593929190617672565b60405180910390fd5b613f2d84848484036000614416565b5b50505050565b600073ffffffffffffffffffffffffffffffffffffffff168373ffffffffffffffffffffffffffffffffffffffff1603613fa65760006040517f96c6fd1e000000000000000000000000000000000000000000000000000000008152600401613f9d9190615950565b60405180910390fd5b600073ffffffffffffffffffffffffffffffffffffffff168273ffffffffffffffffffffffffffffffffffffffff16036140185760006040517fec442f0500000000000000000000000000000000000000000000000000000000815260040161400f9190615950565b60405180910390fd5b6140238383836145ed565b505050565b606060008390506000600284600261404091906161b5565b61404a91906161f7565b67ffffffffffffffff8111156140635761406261540f565b5b6040519080825280601f01601f1916602001820160405280156140955781602001600182028036833780820191505090505b5090507f3000000000000000000000000000000000000000000000000000000000000000816000815181106140cd576140cc616a8b565b5b60200101907effffffffffffffffffffffffffffffffffffffffffffffffffffffffffffff1916908160001a9053507f78000000000000000000000000000000000000000000000000000000000000008160018151811061413157614130616a8b565b5b60200101907effffffffffffffffffffffffffffffffffffffffffffffffffffffffffffff1916908160001a9053506000600185600261417191906161b5565b61417b91906161f7565b90505b600181111561421b577f3031323334353637383961626364656600000000000000000000000000000000600f8416601081106141bd576141bc616a8b565b5b1a60f81b8282815181106141d4576141d3616a8b565b5b60200101907effffffffffffffffffffffffffffffffffffffffffffffffffffffffffffff1916908160001a905350600483901c925080614214906176a9565b905061417e565b50600082146142635784846040517fe22e27eb00000000000000000000000000000000000000000000000000000000815260040161425a9291906176d2565b60405180910390fd5b809250505092915050565b60606000600161427d84614812565b01905060008167ffffffffffffffff81111561429c5761429b61540f565b5b6040519080825280601f01601f1916602001820160405280156142ce5781602001600182028036833780820191505090505b509050600082602001820190505b600115614331578080600190039150507f3031323334353637383961626364656600000000000000000000000000000000600a86061a8153600a8581614325576143246176fb565b5b049450600085036142dc575b819350505050919050565b600069d3c21bcecceda1000000614351610ddc565b8361435c91906161f7565b111561439d576040517f08c379a000000000000000000000000000000000000000000000000000000000815260040161439490617776565b60405180910390fd5b6143a78383614965565b7fcda531bfd68624f13205c0a23cd4d5a7f09792cbb399603114f2b04aaa1bf5cf83836040516143d8929190617796565b60405180910390a16001905092915050565b6000806000806143fa86866149e7565b92509250925061440a8282614a43565b82935050505092915050565b600073ffffffffffffffffffffffffffffffffffffffff168473ffffffffffffffffffffffffffffffffffffffff16036144885760006040517fe602df0500000000000000000000000000000000000000000000000000000000815260040161447f9190615950565b60405180910390fd5b600073ffffffffffffffffffffffffffffffffffffffff168373ffffffffffffffffffffffffffffffffffffffff16036144fa5760006040517f94280d620000000000000000000000000000000000000000000000000000000081526004016144f19190615950565b60405180910390fd5b81600160008673ffffffffffffffffffffffffffffffffffffffff1673ffffffffffffffffffffffffffffffffffffffff16815260200190815260200160002060008573ffffffffffffffffffffffffffffffffffffffff1673ffffffffffffffffffffffffffffffffffffffff1681526020019081526020016000208190555080156145e7578273ffffffffffffffffffffffffffffffffffffffff168473ffffffffffffffffffffffffffffffffffffffff167f8c5be1e5ebec7d5bd14f71427d1e84f3dd0314c0f7b2291e5b200ac8c7c3b925846040516145de919061523c565b60405180910390a35b50505050565b600073ffffffffffffffffffffffffffffffffffffffff168373ffffffffffffffffffffffffffffffffffffffff160361463f57806002600082825461463391906161f7565b92505081905550614712565b60008060008573ffffffffffffffffffffffffffffffffffffffff1673ffffffffffffffffffffffffffffffffffffffff168152602001908152602001600020549050818110156146cb578381836040517fe450d38c0000000000000000000000000000000000000000000000000000000081526004016146c293929190617672565b60405180910390fd5b8181036000808673ffffffffffffffffffffffffffffffffffffffff1673ffffffffffffffffffffffffffffffffffffffff16815260200190815260200160002081905550505b600073ffffffffffffffffffffffffffffffffffffffff168273ffffffffffffffffffffffffffffffffffffffff160361475b57806002600082825403925050819055506147a8565b806000808473ffffffffffffffffffffffffffffffffffffffff1673ffffffffffffffffffffffffffffffffffffffff168152602001908152602001600020600082825401925050819055505b8173ffffffffffffffffffffffffffffffffffffffff168373ffffffffffffffffffffffffffffffffffffffff167fddf252ad1be2c89b69c2b068fc378daa952ba7f163c4a11628f55a4df523b3ef83604051614805919061523c565b60405180910390a3505050565b600080600090507a184f03e93ff9f4daa797ed6e38ed64bf6a1f0100000000000000008310614870577a184f03e93ff9f4daa797ed6e38ed64bf6a1f0100000000000000008381614866576148656176fb565b5b0492506040810190505b6d04ee2d6d415b85acef810000000083106148ad576d04ee2d6d415b85acef810000000083816148a3576148a26176fb565b5b0492506020810190505b662386f26fc1000083106148dc57662386f26fc1000083816148d2576148d16176fb565b5b0492506010810190505b6305f5e1008310614905576305f5e10083816148fb576148fa6176fb565b5b0492506008810190505b612710831061492a5761271083816149205761491f6176fb565b5b0492506004810190505b6064831061494d5760648381614943576149426176fb565b5b0492506002810190505b600a831061495c576001810190505b80915050919050565b600073ffffffffffffffffffffffffffffffffffffffff168273ffffffffffffffffffffffffffffffffffffffff16036149d75760006040517fec442f050000000000000000000000000000000000000000000000000000000081526004016149ce9190615950565b60405180910390fd5b6149e3600083836145ed565b5050565b60008060006041845103614a2c5760008060006020870151925060408701519150606087015160001a9050614a1e88828585614ba7565b955095509550505050614a3c565b60006002855160001b9250925092505b9250925092565b60006003811115614a5757614a566177bf565b5b826003811115614a6a57614a696177bf565b5b0315614ba35760016003811115614a8457614a836177bf565b5b826003811115614a9757614a966177bf565b5b03614ace576040517ff645eedf00000000000000000000000000000000000000000000000000000000815260040160405180910390fd5b60026003811115614ae257614ae16177bf565b5b826003811115614af557614af46177bf565b5b03614b3a578060001c6040517ffce698f7000000000000000000000000000000000000000000000000000000008152600401614b31919061523c565b60405180910390fd5b600380811115614b4d57614b4c6177bf565b5b826003811115614b6057614b5f6177bf565b5b03614ba257806040517fd78bce0c000000000000000000000000000000000000000000000000000000008152600401614b999190615812565b60405180910390fd5b5b5050565b60008060007f7fffffffffffffffffffffffffffffff5d576e7357a4501ddfe92f46681b20a08460001c1115614be7576000600385925092509250614c91565b600060018888888860405160008152602001604052604051614c0c94939291906177ee565b6020604051602081039080840390855afa158015614c2e573d6000803e3d6000fd5b505050602060405103519050600073ffffffffffffffffffffffffffffffffffffffff168173ffffffffffffffffffffffffffffffffffffffff1603614c8257600060016000801b93509350935050614c91565b8060008060001b935093509350505b9450945094915050565b828054828255906000526020600020906007028101928215614d775760005260206000209160070282015b82811115614d7657828260008201816000019081614ce491906171c7565b506001820154816001015560028201816002019081614d0391906171c7565b5060038201816003019081614d1891906171c7565b50600482015481600401556005820160009054906101000a900460ff168160050160006101000a81548160ff02191690831515021790555060068201816006019081614d6491906171c7565b50505091600701919060070190614cc6565b5b509050614d849190614dc8565b5090565b508054614d9490615ec7565b6000825580601f10614da65750614dc5565b601f016020900490600052602060002090810190614dc49190614e43565b5b50565b5b80821115614e3f5760008082016000614de29190614d88565b6001820160009055600282016000614dfa9190614d88565b600382016000614e0a9190614d88565b60048201600090556005820160006101000a81549060ff0219169055600682016000614e369190614d88565b50600701614dc9565b5090565b5b80821115614e5c576000816000905550600101614e44565b5090565b600081519050919050565b600082825260208201905092915050565b6000819050602082019050919050565b600081519050919050565b600082825260208201905092915050565b60005b83811015614ec6578082015181840152602081019050614eab565b60008484015250505050565b6000601f19601f8301169050919050565b6000614eee82614e8c565b614ef88185614e97565b9350614f08818560208601614ea8565b614f1181614ed2565b840191505092915050565b6000819050919050565b614f2f81614f1c565b82525050565b60008115159050919050565b614f4a81614f35565b82525050565b600060e0830160008301518482036000860152614f6d8282614ee3565b9150506020830151614f826020860182614f26565b5060408301518482036040860152614f9a8282614ee3565b91505060608301518482036060860152614fb48282614ee3565b9150506080830151614fc96080860182614f26565b5060a0830151614fdc60a0860182614f41565b5060c083015184820360c0860152614ff48282614ee3565b9150508091505092915050565b600061500d8383614f50565b905092915050565b6000602082019050919050565b600061502d82614e60565b6150378185614e6b565b93508360208202850161504985614e7c565b8060005b8581101561508557848403895281516150668582615001565b945061507183615015565b925060208a0199505060018101905061504d565b50829750879550505050505092915050565b600060208201905081810360008301526150b18184615022565b905092915050565b600082825260208201905092915050565b60006150d582614e8c565b6150df81856150b9565b93506150ef818560208601614ea8565b6150f881614ed2565b840191505092915050565b6000602082019050818103600083015261511d81846150ca565b905092915050565b6000604051905090565b600080fd5b600080fd5b600073ffffffffffffffffffffffffffffffffffffffff82169050919050565b600061516482615139565b9050919050565b61517481615159565b811461517f57600080fd5b50565b6000813590506151918161516b565b92915050565b6151a081614f1c565b81146151ab57600080fd5b50565b6000813590506151bd81615197565b92915050565b600080604083850312156151da576151d961512f565b5b60006151e885828601615182565b92505060206151f9858286016151ae565b9150509250929050565b61520c81614f35565b82525050565b60006020820190506152276000830184615203565b92915050565b61523681614f1c565b82525050565b6000602082019050615251600083018461522d565b92915050565b600081519050919050565b600082825260208201905092915050565b6000819050602082019050919050565b600082825260208201905092915050565b600061529f82614e60565b6152a98185615283565b9350836020820285016152bb85614e7c565b8060005b858110156152f757848403895281516152d88582615001565b94506152e383615015565b925060208a019950506001810190506152bf565b50829750879550505050505092915050565b600060408301600083015184820360008601526153268282614ee3565b915050602083015184820360208601526153408282615294565b9150508091505092915050565b60006153598383615309565b905092915050565b6000602082019050919050565b600061537982615257565b6153838185615262565b93508360208202850161539585615273565b8060005b858110156153d157848403895281516153b2858261534d565b94506153bd83615361565b925060208a01995050600181019050615399565b50829750879550505050505092915050565b600060208201905081810360008301526153fd818461536e565b905092915050565b600080fd5b600080fd5b7f4e487b7100000000000000000000000000000000000000000000000000000000600052604160045260246000fd5b61544782614ed2565b810181811067ffffffffffffffff821117156154665761546561540f565b5b80604052505050565b6000615479615125565b9050615485828261543e565b919050565b600067ffffffffffffffff8211156154a5576154a461540f565b5b6154ae82614ed2565b9050602081019050919050565b82818337600083830152505050565b60006154dd6154d88461548a565b61546f565b9050828152602081018484840111156154f9576154f861540a565b5b6155048482856154bb565b509392505050565b600082601f83011261552157615520615405565b5b81356155318482602086016154ca565b91505092915050565b6000602082840312156155505761554f61512f565b5b600082013567ffffffffffffffff81111561556e5761556d615134565b5b61557a8482850161550c565b91505092915050565b600060e082019050818103600083015261559d818a6150ca565b90506155ac602083018961522d565b81810360408301526155be81886150ca565b905081810360608301526155d281876150ca565b90506155e1608083018661522d565b6155ee60a0830185615203565b81810360c083015261560081846150ca565b905098975050505050505050565b6000806000606084860312156156275761562661512f565b5b600061563586828701615182565b935050602061564686828701615182565b9250506040615657868287016151ae565b9150509250925092565b600060ff82169050919050565b61567781615661565b82525050565b6000602082019050615692600083018461566e565b92915050565b6000602082840312156156ae576156ad61512f565b5b60006156bc848285016151ae565b91505092915050565b600060808201905081810360008301526156df81876150ca565b90506156ee602083018661522d565b818103604083015261570081856150ca565b905061570f6060830184615203565b95945050505050565b60008060008060008060c087890312156157355761573461512f565b5b600061574389828a01615182565b965050602087013567ffffffffffffffff81111561576457615763615134565b5b61577089828a0161550c565b955050604087013567ffffffffffffffff81111561579157615790615134565b5b61579d89828a0161550c565b945050606087013567ffffffffffffffff8111156157be576157bd615134565b5b6157ca89828a0161550c565b93505060806157db89828a016151ae565b92505060a06157ec89828a016151ae565b9150509295509295509295565b6000819050919050565b61580c816157f9565b82525050565b60006020820190506158276000830184615803565b92915050565b6000806000606084860312156158465761584561512f565b5b600084013567ffffffffffffffff81111561586457615863615134565b5b6158708682870161550c565b9350506020615881868287016151ae565b925050604084013567ffffffffffffffff8111156158a2576158a1615134565b5b6158ae8682870161550c565b9150509250925092565b6000602082840312156158ce576158cd61512f565b5b60006158dc84828501615182565b91505092915050565b600080604083850312156158fc576158fb61512f565b5b600061590a85828601615182565b925050602083013567ffffffffffffffff81111561592b5761592a615134565b5b6159378582860161550c565b9150509250929050565b61594a81615159565b82525050565b60006020820190506159656000830184615941565b92915050565b600080604083850312156159825761598161512f565b5b600083013567ffffffffffffffff8111156159a05761599f615134565b5b6159ac8582860161550c565b92505060206159bd858286016151ae565b9150509250929050565b600067ffffffffffffffff8211156159e2576159e161540f565b5b602082029050602081019050919050565b600080fd5b6000615a0b615a06846159c7565b61546f565b90508083825260208201905060208402830185811115615a2e57615a2d6159f3565b5b835b81811015615a7557803567ffffffffffffffff811115615a5357615a52615405565b5b808601615a60898261550c565b85526020850194505050602081019050615a30565b5050509392505050565b600082601f830112615a9457615a93615405565b5b8135615aa48482602086016159f8565b91505092915050565b600060208284031215615ac357615ac261512f565b5b600082013567ffffffffffffffff811115615ae157615ae0615134565b5b615aed84828501615a7f565b91505092915050565b600080600080600060a08688031215615b1257615b1161512f565b5b600086013567ffffffffffffffff811115615b3057615b2f615134565b5b615b3c8882890161550c565b9550506020615b4d888289016151ae565b945050604086013567ffffffffffffffff811115615b6e57615b6d615134565b5b615b7a8882890161550c565b935050606086013567ffffffffffffffff811115615b9b57615b9a615134565b5b615ba78882890161550c565b925050608086013567ffffffffffffffff811115615bc857615bc7615134565b5b615bd48882890161550c565b9150509295509295909350565b600081519050919050565b600082825260208201905092915050565b6000819050602082019050919050565b60006080830160008301518482036000860152615c2a8282614ee3565b9150506020830151615c3f6020860182614f26565b5060408301518482036040860152615c578282614ee3565b9150506060830151615c6c6060860182614f41565b508091505092915050565b6000615c838383615c0d565b905092915050565b6000602082019050919050565b6000615ca382615be1565b615cad8185615bec565b935083602082028501615cbf85615bfd565b8060005b85811015615cfb5784840389528151615cdc8582615c77565b9450615ce783615c8b565b925060208a01995050600181019050615cc3565b50829750879550505050505092915050565b60006020820190508181036000830152615d278184615c98565b905092915050565b615d38816157f9565b8114615d4357600080fd5b50565b600081359050615d5581615d2f565b92915050565b600067ffffffffffffffff821115615d7657615d7561540f565b5b615d7f82614ed2565b9050602081019050919050565b6000615d9f615d9a84615d5b565b61546f565b905082815260208101848484011115615dbb57615dba61540a565b5b615dc68482856154bb565b509392505050565b600082601f830112615de357615de2615405565b5b8135615df3848260208601615d8c565b91505092915050565b60008060408385031215615e1357615e1261512f565b5b6000615e2185828601615d46565b925050602083013567ffffffffffffffff811115615e4257615e41615134565b5b615e4e85828601615dce565b9150509250929050565b60008060408385031215615e6f57615e6e61512f565b5b6000615e7d85828601615182565b9250506020615e8e85828601615182565b9150509250929050565b7f4e487b7100000000000000000000000000000000000000000000000000000000600052602260045260246000fd5b60006002820490506001821680615edf57607f821691505b602082108103615ef257615ef1615e98565b5b50919050565b7f596f7520617265206e6f7420746865206f776e65722100000000000000000000600082015250565b6000615f2e6016836150b9565b9150615f3982615ef8565b602082019050919050565b60006020820190508181036000830152615f5d81615f21565b9050919050565b7f526567697374726174696f6e2068617320616c7265616479207374617274656460008201527f2e00000000000000000000000000000000000000000000000000000000000000602082015250565b6000615fc06021836150b9565b9150615fcb82615f64565b604082019050919050565b60006020820190508181036000830152615fef81615fb3565b9050919050565b7f43616e6e6f7420737461727420726567697374726174696f6e2061667465722060008201527f766f74696e672068617320626567756e2e000000000000000000000000000000602082015250565b60006160526031836150b9565b915061605d82615ff6565b604082019050919050565b6000602082019050818103600083015261608181616045565b9050919050565b7f526567697374726174696f6e20706572696f6420686173206e6f74207374617260008201527f7465642e00000000000000000000000000000000000000000000000000000000602082015250565b60006160e46024836150b9565b91506160ef82616088565b604082019050919050565b60006020820190508181036000830152616113816160d7565b9050919050565b7f566f74696e672068617320616c726561647920737461727465642e0000000000600082015250565b6000616150601b836150b9565b915061615b8261611a565b602082019050919050565b6000602082019050818103600083015261617f81616143565b9050919050565b7f4e487b7100000000000000000000000000000000000000000000000000000000600052601160045260246000fd5b60006161c082614f1c565b91506161cb83614f1c565b92508282026161d981614f1c565b915082820484148315176161f0576161ef616186565b5b5092915050565b600061620282614f1c565b915061620d83614f1c565b925082820190508082111561622557616224616186565b5b92915050565b600081905092915050565b600061624182614e8c565b61624b818561622b565b935061625b818560208601614ea8565b80840191505092915050565b60006162738284616236565b915081905092915050565b7f19457468657265756d205369676e6564204d6573736167653a0a000000000000600082015250565b60006162b4601a8361622b565b91506162bf8261627e565b601a82019050919050565b7f446f6d61696e3a20000000000000000000000000000000000000000000000000600082015250565b600061630060088361622b565b915061630b826162ca565b600882019050919050565b7f0a00000000000000000000000000000000000000000000000000000000000000600082015250565b600061634c60018361622b565b915061635782616316565b600182019050919050565b7f416464726573733a200000000000000000000000000000000000000000000000600082015250565b600061639860098361622b565b91506163a382616362565b600982019050919050565b7f53746174656d656e743a20000000000000000000000000000000000000000000600082015250565b60006163e4600b8361622b565b91506163ef826163ae565b600b82019050919050565b7f5552493a20000000000000000000000000000000000000000000000000000000600082015250565b600061643060058361622b565b915061643b826163fa565b600582019050919050565b7f56657273696f6e3a20310a000000000000000000000000000000000000000000600082015250565b600061647c600b8361622b565b915061648782616446565b600b82019050919050565b7f436861696e2049443a2000000000000000000000000000000000000000000000600082015250565b60006164c8600a8361622b565b91506164d382616492565b600a82019050919050565b7f4e6f6e63653a2000000000000000000000000000000000000000000000000000600082015250565b600061651460078361622b565b915061651f826164de565b600782019050919050565b6000616535826162a7565b9150616540826162f3565b915061654c8289616236565b91506165578261633f565b91506165628261638b565b915061656e8288616236565b91506165798261633f565b9150616584826163d7565b91506165908287616236565b915061659b8261633f565b91506165a682616423565b91506165b28286616236565b91506165bd8261633f565b91506165c88261646f565b91506165d3826164bb565b91506165df8285616236565b91506165ea8261633f565b91506165f582616507565b91506166018284616236565b9150819050979650505050505050565b7f43616e6e6f7420726567697374657220647572696e6720766f74696e6720706560008201527f72696f642e000000000000000000000000000000000000000000000000000000602082015250565b600061666d6025836150b9565b915061667882616611565b604082019050919050565b6000602082019050818103600083015261669c81616660565b9050919050565b7f566f74657220616c726561647920657869737473210000000000000000000000600082015250565b60006166d96015836150b9565b91506166e4826166a3565b602082019050919050565b60006020820190508181036000830152616708816166cc565b9050919050565b7f4163636f756e7420616c7265616479207265676973746572656420617320766f60008201527f7465720000000000000000000000000000000000000000000000000000000000602082015250565b600061676b6023836150b9565b91506167768261670f565b604082019050919050565b6000602082019050818103600083015261679a8161675e565b9050919050565b60008190508160005260206000209050919050565b60006020601f8301049050919050565b600082821b905092915050565b6000600883026168037fffffffffffffffffffffffffffffffffffffffffffffffffffffffffffffffff826167c6565b61680d86836167c6565b95508019841693508086168417925050509392505050565b6000819050919050565b600061684a61684561684084614f1c565b616825565b614f1c565b9050919050565b6000819050919050565b6168648361682f565b61687861687082616851565b8484546167d3565b825550505050565b600090565b61688d616880565b61689881848461685b565b505050565b5b818110156168bc576168b1600082616885565b60018101905061689e565b5050565b601f821115616901576168d2816167a1565b6168db846167b6565b810160208510156168ea578190505b6168fe6168f6856167b6565b83018261689d565b50505b505050565b600082821c905092915050565b600061692460001984600802616906565b1980831691505092915050565b600061693d8383616913565b9150826002028217905092915050565b61695682614e8c565b67ffffffffffffffff81111561696f5761696e61540f565b5b6169798254615ec7565b6169848282856168c0565b600060209050601f8311600181146169b757600084156169a5578287015190505b6169af8582616931565b865550616a17565b601f1984166169c5866167a1565b60005b828110156169ed578489015182556001820191506020850194506020810190506169c8565b86831015616a0a5784890151616a06601f891682616913565b8355505b6001600288020188555050505b505050505050565b7f43616e64696461746520616c7265616479207665726966696564210000000000600082015250565b6000616a55601b836150b9565b9150616a6082616a1f565b602082019050919050565b60006020820190508181036000830152616a8481616a48565b9050919050565b7f4e487b7100000000000000000000000000000000000000000000000000000000600052603260045260246000fd5b60008154616ac781615ec7565b616ad1818661622b565b94506001821660008114616aec5760018114616b0157616b34565b60ff1983168652811515820286019350616b34565b616b0a856167a1565b60005b83811015616b2c57815481890152600182019150602081019050616b0d565b838801955050505b50505092915050565b6000616b498284616aba565b915081905092915050565b7f526567697374726174696f6e20706572696f64206973207374696c6c2061637460008201527f6976652e00000000000000000000000000000000000000000000000000000000602082015250565b6000616bb06024836150b9565b9150616bbb82616b54565b604082019050919050565b60006020820190508181036000830152616bdf81616ba3565b9050919050565b7f566f74696e6720686173206e6f742073746172746564207965742e0000000000600082015250565b6000616c1c601b836150b9565b9150616c2782616be6565b602082019050919050565b60006020820190508181036000830152616c4b81616c0f565b9050919050565b7f436865636b696e6720706f736974696f6e2076616c6964697479000000000000600082015250565b6000616c88601a836150b9565b9150616c9382616c52565b602082019050919050565b60006080820190508181036000830152616cb781616c7b565b9050616cc66020830186615941565b8181036040830152616cd881856150ca565b9050616ce76060830184615203565b949350505050565b7f496e76616c696420706f736974696f6e2e000000000000000000000000000000600082015250565b6000616d256011836150b9565b9150616d3082616cef565b602082019050919050565b60006020820190508181036000830152616d5481616d18565b9050919050565b7f436865636b696e672063616e64696461746520696e6465782076616c6964697460008201527f7900000000000000000000000000000000000000000000000000000000000000602082015250565b6000616db76021836150b9565b9150616dc282616d5b565b604082019050919050565b60006080820190508181036000830152616de681616daa565b9050616df56020830186615941565b8181036040830152616e0781856150ca565b9050616e166060830184615203565b949350505050565b7f496e76616c69642063616e64696461746520696e6465782e0000000000000000600082015250565b6000616e546018836150b9565b9150616e5f82616e1e565b602082019050919050565b60006020820190508181036000830152616e8381616e47565b9050919050565b7f436865636b696e6720696620616c726561647920766f74656420666f7220706f60008201527f736974696f6e0000000000000000000000000000000000000000000000000000602082015250565b6000616ee66026836150b9565b9150616ef182616e8a565b604082019050919050565b60006080820190508181036000830152616f1581616ed9565b9050616f246020830186615941565b8181036040830152616f3681856150ca565b9050616f456060830184615203565b949350505050565b7f596f75206861766520616c726561647920766f74656420666f7220746869732060008201527f706f736974696f6e2e0000000000000000000000000000000000000000000000602082015250565b6000616fa96029836150b9565b9150616fb482616f4d565b604082019050919050565b60006020820190508181036000830152616fd881616f9c565b9050919050565b60008154616fec81615ec7565b616ff681866150b9565b9450600182166000811461701157600181146170275761705a565b60ff19831686528115156020028601935061705a565b617030856167a1565b60005b8381101561705257815481890152600182019150602081019050617033565b808801955050505b50505092915050565b6000606082019050818103600083015261707d8186616fdf565b9050818103602083015261709181856150ca565b90506170a0604083018461522d565b949350505050565b7f566f7465207375636365737366756c0000000000000000000000000000000000600082015250565b60006170de600f836150b9565b91506170e9826170a8565b602082019050919050565b6000608082019050818103600083015261710d816170d1565b905061711c6020830186615941565b818103604083015261712e81856150ca565b905061713d6060830184615203565b949350505050565b7f506f736974696f6e20616c726561647920657869737473210000000000000000600082015250565b600061717b6018836150b9565b915061718682617145565b602082019050919050565b600060208201905081810360008301526171aa8161716e565b9050919050565b6000815490506171c081615ec7565b9050919050565b8181036171d55750506172ad565b6171de826171b1565b67ffffffffffffffff8111156171f7576171f661540f565b5b6172018254615ec7565b61720c8282856168c0565b6000601f83116001811461723b5760008415617229578287015490505b6172338582616931565b8655506172a6565b601f198416617249876167a1565b9650617254866167a1565b60005b8281101561727c57848901548255600182019150600185019450602081019050617257565b868310156172995784890154617295601f891682616913565b8355505b6001600288020188555050505b5050505050505b565b7f43616e64696461746520646f6573206e6f742065786973742100000000000000600082015250565b60006172e56019836150b9565b91506172f0826172af565b602082019050919050565b60006020820190508181036000830152617314816172d8565b9050919050565b600061732682614f1c565b915061733183614f1c565b925082820390508181111561734957617348616186565b5b92915050565b7f4e487b7100000000000000000000000000000000000000000000000000000000600052603160045260246000fd5b7f43616e64696461746520616c7265616479206578697374732100000000000000600082015250565b60006173b46019836150b9565b91506173bf8261737e565b602082019050919050565b600060208201905081810360008301526173e3816173a7565b9050919050565b7f596f75206d7573742062652061207265676973746572656420766f7465722100600082015250565b6000617420601f836150b9565b915061742b826173ea565b602082019050919050565b6000602082019050818103600083015261744f81617413565b9050919050565b7f506f736974696f6e20646f6573206e6f74206578697374210000000000000000600082015250565b600061748c6018836150b9565b915061749782617456565b602082019050919050565b600060208201905081810360008301526174bb8161747f565b9050919050565b60006060820190506174d7600083018661522d565b81810360208301526174e981856150ca565b905081810360408301526174fd81846150ca565b9050949350505050565b7f566f74696e6720686173206e6f7420737461727465642e000000000000000000600082015250565b600061753d6017836150b9565b915061754882617507565b602082019050919050565b6000602082019050818103600083015261756c81617530565b9050919050565b7f566f74696e6720706572696f6420686173206e6f7420656e6465642e00000000600082015250565b60006175a9601c836150b9565b91506175b482617573565b602082019050919050565b600060208201905081810360008301526175d88161759c565b9050919050565b7f19457468657265756d205369676e6564204d6573736167653a0a333200000000600082015250565b6000617615601c8361622b565b9150617620826175df565b601c82019050919050565b6000819050919050565b617646617641826157f9565b61762b565b82525050565b600061765782617608565b91506176638284617635565b60208201915081905092915050565b60006060820190506176876000830186615941565b617694602083018561522d565b6176a1604083018461522d565b949350505050565b60006176b482614f1c565b9150600082036176c7576176c6616186565b5b600182039050919050565b60006040820190506176e7600083018561522d565b6176f4602083018461522d565b9392505050565b7f4e487b7100000000000000000000000000000000000000000000000000000000600052601260045260246000fd5b7f546f6b656e206c696d6974206578636565646564210000000000000000000000600082015250565b60006177606015836150b9565b915061776b8261772a565b602082019050919050565b6000602082019050818103600083015261778f81617753565b9050919050565b60006040820190506177ab6000830185615941565b6177b8602083018461522d565b9392505050565b7f4e487b7100000000000000000000000000000000000000000000000000000000600052602160045260246000fd5b60006080820190506178036000830187615803565b617810602083018661566e565b61781d6040830185615803565b61782a6060830184615803565b9594505050505056fea2646970667358221220776d4c68dd5cfcc70567843767908af0cc8ccd89cb4c96da398fc9b271036f0f64736f6c634300081b0033",
  "linkReferences": {},
  "deployedLinkReferences": {}
}