{
  "_format": "hh-sol-artifact-1",
  "contractName": "Voting",
  "sourceName": "contracts/Voting.sol",
  "abi": [
    {
      "inputs": [],
      "stateMutability": "nonpayable",
      "type": "constructor"
    },
    {
      "inputs": [],
      "name": "ECDSAInvalidSignature",
      "type": "error"
    },
    {
      "inputs": [
        {
          "internalType": "uint256",
          "name": "length",
          "type": "uint256"
        }
      ],
      "name": "ECDSAInvalidSignatureLength",
      "type": "error"
    },
    {
      "inputs": [
        {
          "internalType": "bytes32",
          "name": "s",
          "type": "bytes32"
        }
      ],
      "name": "ECDSAInvalidSignatureS",
      "type": "error"
    },
    {
      "inputs": [
        {
          "internalType": "address",
          "name": "spender",
          "type": "address"
        },
        {
          "internalType": "uint256",
          "name": "allowance",
          "type": "uint256"
        },
        {
          "internalType": "uint256",
          "name": "needed",
          "type": "uint256"
        }
      ],
      "name": "ERC20InsufficientAllowance",
      "type": "error"
    },
    {
      "inputs": [
        {
          "internalType": "address",
          "name": "sender",
          "type": "address"
        },
        {
          "internalType": "uint256",
          "name": "balance",
          "type": "uint256"
        },
        {
          "internalType": "uint256",
          "name": "needed",
          "type": "uint256"
        }
      ],
      "name": "ERC20InsufficientBalance",
      "type": "error"
    },
    {
      "inputs": [
        {
          "internalType": "address",
          "name": "approver",
          "type": "address"
        }
      ],
      "name": "ERC20InvalidApprover",
      "type": "error"
    },
    {
      "inputs": [
        {
          "internalType": "address",
          "name": "receiver",
          "type": "address"
        }
      ],
      "name": "ERC20InvalidReceiver",
      "type": "error"
    },
    {
      "inputs": [
        {
          "internalType": "address",
          "name": "sender",
          "type": "address"
        }
      ],
      "name": "ERC20InvalidSender",
      "type": "error"
    },
    {
      "inputs": [
        {
          "internalType": "address",
          "name": "spender",
          "type": "address"
        }
      ],
      "name": "ERC20InvalidSpender",
      "type": "error"
    },
    {
      "inputs": [
        {
          "internalType": "uint256",
          "name": "value",
          "type": "uint256"
        },
        {
          "internalType": "uint256",
          "name": "length",
          "type": "uint256"
        }
      ],
      "name": "StringsInsufficientHexLength",
      "type": "error"
    },
    {
      "anonymous": false,
      "inputs": [
        {
          "indexed": true,
          "internalType": "address",
          "name": "owner",
          "type": "address"
        },
        {
          "indexed": true,
          "internalType": "address",
          "name": "spender",
          "type": "address"
        },
        {
          "indexed": false,
          "internalType": "uint256",
          "name": "value",
          "type": "uint256"
        }
      ],
      "name": "Approval",
      "type": "event"
    },
    {
      "anonymous": false,
      "inputs": [
        {
          "indexed": true,
          "internalType": "string",
          "name": "_names",
          "type": "string"
        },
        {
          "indexed": false,
          "internalType": "uint256",
          "name": "_age",
          "type": "uint256"
        },
        {
          "indexed": true,
          "internalType": "string",
          "name": "_idNumber",
          "type": "string"
        },
        {
          "indexed": false,
          "internalType": "string",
          "name": "_party",
          "type": "string"
        },
        {
          "indexed": false,
          "internalType": "string",
          "name": "_position",
          "type": "string"
        }
      ],
      "name": "CandidateRegistrationSuccess",
      "type": "event"
    },
    {
      "anonymous": false,
      "inputs": [
        {
          "indexed": false,
          "internalType": "address",
          "name": "_to",
          "type": "address"
        },
        {
          "indexed": false,
          "internalType": "uint256",
          "name": "_amount",
          "type": "uint256"
        }
      ],
      "name": "MintSuccess",
      "type": "event"
    },
    {
      "anonymous": false,
      "inputs": [
        {
          "indexed": false,
          "internalType": "string",
          "name": "positionName",
          "type": "string"
        }
      ],
      "name": "PositionAdded",
      "type": "event"
    },
    {
      "anonymous": false,
      "inputs": [],
      "name": "RegistrationEnded",
      "type": "event"
    },
    {
      "anonymous": false,
      "inputs": [],
      "name": "RegistrationStarted",
      "type": "event"
    },
    {
      "anonymous": false,
      "inputs": [
        {
          "indexed": true,
          "internalType": "string",
          "name": "_idNumber",
          "type": "string"
        }
      ],
      "name": "RejectCandidateSuccess",
      "type": "event"
    },
    {
      "anonymous": false,
      "inputs": [
        {
          "indexed": true,
          "internalType": "address",
          "name": "from",
          "type": "address"
        },
        {
          "indexed": true,
          "internalType": "address",
          "name": "to",
          "type": "address"
        },
        {
          "indexed": false,
          "internalType": "uint256",
          "name": "value",
          "type": "uint256"
        }
      ],
      "name": "Transfer",
      "type": "event"
    },
    {
      "anonymous": false,
      "inputs": [
        {
          "indexed": true,
          "internalType": "string",
          "name": "_names",
          "type": "string"
        },
        {
          "indexed": true,
          "internalType": "string",
          "name": "_idNumber",
          "type": "string"
        }
      ],
      "name": "VerifyCandidateSuccess",
      "type": "event"
    },
    {
      "anonymous": false,
      "inputs": [
        {
          "indexed": true,
          "internalType": "address",
          "name": "voter",
          "type": "address"
        },
        {
          "indexed": false,
          "internalType": "string",
          "name": "_idNumber",
          "type": "string"
        },
        {
          "indexed": false,
          "internalType": "string",
          "name": "position",
          "type": "string"
        },
        {
          "indexed": false,
          "internalType": "uint256",
          "name": "candidateIndex",
          "type": "uint256"
        }
      ],
      "name": "VotedSuccess",
      "type": "event"
    },
    {
      "anonymous": false,
      "inputs": [
        {
          "indexed": true,
          "internalType": "string",
          "name": "_names",
          "type": "string"
        },
        {
          "indexed": false,
          "internalType": "uint256",
          "name": "_age",
          "type": "uint256"
        },
        {
          "indexed": true,
          "internalType": "string",
          "name": "_idNumber",
          "type": "string"
        }
      ],
      "name": "VoterRegistrationSuccess",
      "type": "event"
    },
    {
      "anonymous": false,
      "inputs": [],
      "name": "VotingEnded",
      "type": "event"
    },
    {
      "anonymous": false,
      "inputs": [],
      "name": "VotingStarted",
      "type": "event"
    },
    {
      "inputs": [],
      "name": "MAX_SUPPLY",
      "outputs": [
        {
          "internalType": "uint256",
          "name": "",
          "type": "uint256"
        }
      ],
      "stateMutability": "view",
      "type": "function"
    },
    {
      "inputs": [],
      "name": "REGISTER_AS_VOTER",
      "outputs": [
        {
          "internalType": "uint256",
          "name": "",
          "type": "uint256"
        }
      ],
      "stateMutability": "view",
      "type": "function"
    },
    {
      "inputs": [],
      "name": "VERIFY_CANDIDATE",
      "outputs": [
        {
          "internalType": "uint256",
          "name": "",
          "type": "uint256"
        }
      ],
      "stateMutability": "view",
      "type": "function"
    },
    {
      "inputs": [
        {
          "internalType": "string[]",
          "name": "_pNames",
          "type": "string[]"
        }
      ],
      "name": "addPositions",
      "outputs": [],
      "stateMutability": "nonpayable",
      "type": "function"
    },
    {
      "inputs": [
        {
          "internalType": "address",
          "name": "owner",
          "type": "address"
        },
        {
          "internalType": "address",
          "name": "spender",
          "type": "address"
        }
      ],
      "name": "allowance",
      "outputs": [
        {
          "internalType": "uint256",
          "name": "",
          "type": "uint256"
        }
      ],
      "stateMutability": "view",
      "type": "function"
    },
    {
      "inputs": [
        {
          "internalType": "address",
          "name": "spender",
          "type": "address"
        },
        {
          "internalType": "uint256",
          "name": "value",
          "type": "uint256"
        }
      ],
      "name": "approve",
      "outputs": [
        {
          "internalType": "bool",
          "name": "",
          "type": "bool"
        }
      ],
      "stateMutability": "nonpayable",
      "type": "function"
    },
    {
      "inputs": [
        {
          "internalType": "address",
          "name": "account",
          "type": "address"
        }
      ],
      "name": "balanceOf",
      "outputs": [
        {
          "internalType": "uint256",
          "name": "",
          "type": "uint256"
        }
      ],
      "stateMutability": "view",
      "type": "function"
    },
    {
      "inputs": [
        {
          "internalType": "string",
          "name": "",
          "type": "string"
        }
      ],
      "name": "candidateObject",
      "outputs": [
        {
          "internalType": "string",
          "name": "names",
          "type": "string"
        },
        {
          "internalType": "uint256",
          "name": "age",
          "type": "uint256"
        },
        {
          "internalType": "string",
          "name": "idNumber",
          "type": "string"
        },
        {
          "internalType": "string",
          "name": "party",
          "type": "string"
        },
        {
          "internalType": "uint256",
          "name": "votes",
          "type": "uint256"
        },
        {
          "internalType": "bool",
          "name": "verified",
          "type": "bool"
        },
        {
          "internalType": "string",
          "name": "position",
          "type": "string"
        }
      ],
      "stateMutability": "view",
      "type": "function"
    },
    {
      "inputs": [
        {
          "internalType": "address",
          "name": "userAddress",
          "type": "address"
        },
        {
          "internalType": "string",
          "name": "domain",
          "type": "string"
        },
        {
          "internalType": "string",
          "name": "statement",
          "type": "string"
        },
        {
          "internalType": "string",
          "name": "uri",
          "type": "string"
        },
        {
          "internalType": "uint256",
          "name": "chainId",
          "type": "uint256"
        },
        {
          "internalType": "uint256",
          "name": "nonce",
          "type": "uint256"
        }
      ],
      "name": "createMessageHash",
      "outputs": [
        {
          "internalType": "bytes32",
          "name": "",
          "type": "bytes32"
        }
      ],
      "stateMutability": "pure",
      "type": "function"
    },
    {
      "inputs": [],
      "name": "decimals",
      "outputs": [
        {
          "internalType": "uint8",
          "name": "",
          "type": "uint8"
        }
      ],
      "stateMutability": "view",
      "type": "function"
    },
    {
      "inputs": [
        {
          "internalType": "uint256",
          "name": "votingDays",
          "type": "uint256"
        }
      ],
      "name": "endRegistrationAndStartVoting",
      "outputs": [],
      "stateMutability": "nonpayable",
      "type": "function"
    },
    {
      "inputs": [],
      "name": "endVoting",
      "outputs": [],
      "stateMutability": "nonpayable",
      "type": "function"
    },
    {
      "inputs": [],
      "name": "getAllPositions",
      "outputs": [
        {
          "components": [
            {
              "internalType": "string",
              "name": "pName",
              "type": "string"
            },
            {
              "components": [
                {
                  "internalType": "string",
                  "name": "names",
                  "type": "string"
                },
                {
                  "internalType": "uint256",
                  "name": "age",
                  "type": "uint256"
                },
                {
                  "internalType": "string",
                  "name": "idNumber",
                  "type": "string"
                },
                {
                  "internalType": "string",
                  "name": "party",
                  "type": "string"
                },
                {
                  "internalType": "uint256",
                  "name": "votes",
                  "type": "uint256"
                },
                {
                  "internalType": "bool",
                  "name": "verified",
                  "type": "bool"
                },
                {
                  "internalType": "string",
                  "name": "position",
                  "type": "string"
                }
              ],
              "internalType": "struct Voting.Candidate[]",
              "name": "candidates",
              "type": "tuple[]"
            }
          ],
          "internalType": "struct Voting.Position[]",
          "name": "",
          "type": "tuple[]"
        }
      ],
      "stateMutability": "view",
      "type": "function"
    },
    {
      "inputs": [],
      "name": "getCandidates",
      "outputs": [
        {
          "components": [
            {
              "internalType": "string",
              "name": "names",
              "type": "string"
            },
            {
              "internalType": "uint256",
              "name": "age",
              "type": "uint256"
            },
            {
              "internalType": "string",
              "name": "idNumber",
              "type": "string"
            },
            {
              "internalType": "string",
              "name": "party",
              "type": "string"
            },
            {
              "internalType": "uint256",
              "name": "votes",
              "type": "uint256"
            },
            {
              "internalType": "bool",
              "name": "verified",
              "type": "bool"
            },
            {
              "internalType": "string",
              "name": "position",
              "type": "string"
            }
          ],
          "internalType": "struct Voting.Candidate[]",
          "name": "",
          "type": "tuple[]"
        }
      ],
      "stateMutability": "view",
      "type": "function"
    },
    {
      "inputs": [],
      "name": "getPositionCount",
      "outputs": [
        {
          "internalType": "uint256",
          "name": "",
          "type": "uint256"
        }
      ],
      "stateMutability": "view",
      "type": "function"
    },
    {
      "inputs": [],
      "name": "getVoters",
      "outputs": [
        {
          "components": [
            {
              "internalType": "string",
              "name": "names",
              "type": "string"
            },
            {
              "internalType": "uint256",
              "name": "age",
              "type": "uint256"
            },
            {
              "internalType": "string",
              "name": "idNumber",
              "type": "string"
            },
            {
              "internalType": "bool",
              "name": "voted",
              "type": "bool"
            }
          ],
          "internalType": "struct Voting.Voter[]",
          "name": "",
          "type": "tuple[]"
        }
      ],
      "stateMutability": "view",
      "type": "function"
    },
    {
      "inputs": [],
      "name": "getVotingEndTime",
      "outputs": [
        {
          "internalType": "uint256",
          "name": "",
          "type": "uint256"
        }
      ],
      "stateMutability": "view",
      "type": "function"
    },
    {
      "inputs": [
        {
          "internalType": "address",
          "name": "",
          "type": "address"
        },
        {
          "internalType": "string",
          "name": "",
          "type": "string"
        }
      ],
      "name": "hasVotedForPosition",
      "outputs": [
        {
          "internalType": "bool",
          "name": "",
          "type": "bool"
        }
      ],
      "stateMutability": "view",
      "type": "function"
    },
    {
      "inputs": [],
      "name": "hasVotingEnded",
      "outputs": [
        {
          "internalType": "bool",
          "name": "",
          "type": "bool"
        }
      ],
      "stateMutability": "view",
      "type": "function"
    },
    {
      "inputs": [
        {
          "internalType": "address",
          "name": "_account",
          "type": "address"
        }
      ],
      "name": "isVoterRegistered",
      "outputs": [
        {
          "internalType": "bool",
          "name": "",
          "type": "bool"
        }
      ],
      "stateMutability": "view",
      "type": "function"
    },
    {
      "inputs": [
        {
          "internalType": "uint256",
          "name": "",
          "type": "uint256"
        }
      ],
      "name": "listOfCandidates",
      "outputs": [
        {
          "internalType": "string",
          "name": "names",
          "type": "string"
        },
        {
          "internalType": "uint256",
          "name": "age",
          "type": "uint256"
        },
        {
          "internalType": "string",
          "name": "idNumber",
          "type": "string"
        },
        {
          "internalType": "string",
          "name": "party",
          "type": "string"
        },
        {
          "internalType": "uint256",
          "name": "votes",
          "type": "uint256"
        },
        {
          "internalType": "bool",
          "name": "verified",
          "type": "bool"
        },
        {
          "internalType": "string",
          "name": "position",
          "type": "string"
        }
      ],
      "stateMutability": "view",
      "type": "function"
    },
    {
      "inputs": [
        {
          "internalType": "uint256",
          "name": "",
          "type": "uint256"
        }
      ],
      "name": "listOfPositions",
      "outputs": [
        {
          "internalType": "string",
          "name": "pName",
          "type": "string"
        }
      ],
      "stateMutability": "view",
      "type": "function"
    },
    {
      "inputs": [
        {
          "internalType": "uint256",
          "name": "",
          "type": "uint256"
        }
      ],
      "name": "listOfVoters",
      "outputs": [
        {
          "internalType": "string",
          "name": "names",
          "type": "string"
        },
        {
          "internalType": "uint256",
          "name": "age",
          "type": "uint256"
        },
        {
          "internalType": "string",
          "name": "idNumber",
          "type": "string"
        },
        {
          "internalType": "bool",
          "name": "voted",
          "type": "bool"
        }
      ],
      "stateMutability": "view",
      "type": "function"
    },
    {
      "inputs": [],
      "name": "name",
      "outputs": [
        {
          "internalType": "string",
          "name": "",
          "type": "string"
        }
      ],
      "stateMutability": "view",
      "type": "function"
    },
    {
      "inputs": [],
      "name": "owner",
      "outputs": [
        {
          "internalType": "address",
          "name": "",
          "type": "address"
        }
      ],
      "stateMutability": "view",
      "type": "function"
    },
    {
      "inputs": [
        {
          "internalType": "string",
          "name": "",
          "type": "string"
        }
      ],
      "name": "positions",
      "outputs": [
        {
          "internalType": "string",
          "name": "pName",
          "type": "string"
        }
      ],
      "stateMutability": "view",
      "type": "function"
    },
    {
      "inputs": [
        {
          "internalType": "string",
          "name": "_names",
          "type": "string"
        },
        {
          "internalType": "uint256",
          "name": "_age",
          "type": "uint256"
        },
        {
          "internalType": "string",
          "name": "_idNumber",
          "type": "string"
        },
        {
          "internalType": "string",
          "name": "_party",
          "type": "string"
        },
        {
          "internalType": "string",
          "name": "_position",
          "type": "string"
        }
      ],
      "name": "registerCandidate",
      "outputs": [],
      "stateMutability": "nonpayable",
      "type": "function"
    },
    {
      "inputs": [
        {
          "internalType": "string",
          "name": "_names",
          "type": "string"
        },
        {
          "internalType": "uint256",
          "name": "_age",
          "type": "uint256"
        },
        {
          "internalType": "string",
          "name": "_idNumber",
          "type": "string"
        }
      ],
      "name": "registerVoter",
      "outputs": [
        {
          "internalType": "bool",
          "name": "",
          "type": "bool"
        }
      ],
      "stateMutability": "nonpayable",
      "type": "function"
    },
    {
      "inputs": [],
      "name": "registrationStarted",
      "outputs": [
        {
          "internalType": "bool",
          "name": "",
          "type": "bool"
        }
      ],
      "stateMutability": "view",
      "type": "function"
    },
    {
      "inputs": [
        {
          "internalType": "string",
          "name": "_idNumber",
          "type": "string"
        }
      ],
      "name": "rejectCandidate",
      "outputs": [],
      "stateMutability": "nonpayable",
      "type": "function"
    },
    {
      "inputs": [],
      "name": "startRegistration",
      "outputs": [],
      "stateMutability": "nonpayable",
      "type": "function"
    },
    {
      "inputs": [],
      "name": "symbol",
      "outputs": [
        {
          "internalType": "string",
          "name": "",
          "type": "string"
        }
      ],
      "stateMutability": "view",
      "type": "function"
    },
    {
      "inputs": [],
      "name": "totalSupply",
      "outputs": [
        {
          "internalType": "uint256",
          "name": "",
          "type": "uint256"
        }
      ],
      "stateMutability": "view",
      "type": "function"
    },
    {
      "inputs": [
        {
          "internalType": "address",
          "name": "to",
          "type": "address"
        },
        {
          "internalType": "uint256",
          "name": "value",
          "type": "uint256"
        }
      ],
      "name": "transfer",
      "outputs": [
        {
          "internalType": "bool",
          "name": "",
          "type": "bool"
        }
      ],
      "stateMutability": "nonpayable",
      "type": "function"
    },
    {
      "inputs": [
        {
          "internalType": "address",
          "name": "from",
          "type": "address"
        },
        {
          "internalType": "address",
          "name": "to",
          "type": "address"
        },
        {
          "internalType": "uint256",
          "name": "value",
          "type": "uint256"
        }
      ],
      "name": "transferFrom",
      "outputs": [
        {
          "internalType": "bool",
          "name": "",
          "type": "bool"
        }
      ],
      "stateMutability": "nonpayable",
      "type": "function"
    },
    {
      "inputs": [
        {
          "internalType": "string",
          "name": "_idNumber",
          "type": "string"
        }
      ],
      "name": "verifyCandidate",
      "outputs": [],
      "stateMutability": "nonpayable",
      "type": "function"
    },
    {
      "inputs": [
        {
          "internalType": "bytes32",
          "name": "hash",
          "type": "bytes32"
        },
        {
          "internalType": "bytes",
          "name": "signature",
          "type": "bytes"
        }
      ],
      "name": "verifySignature",
      "outputs": [
        {
          "internalType": "bool",
          "name": "",
          "type": "bool"
        }
      ],
      "stateMutability": "view",
      "type": "function"
    },
    {
      "inputs": [
        {
          "internalType": "string",
          "name": "position",
          "type": "string"
        },
        {
          "internalType": "uint256",
          "name": "candidateIndex",
          "type": "uint256"
        }
      ],
      "name": "vote",
      "outputs": [],
      "stateMutability": "nonpayable",
      "type": "function"
    },
    {
      "inputs": [
        {
          "internalType": "string",
          "name": "",
          "type": "string"
        }
      ],
      "name": "voterObject",
      "outputs": [
        {
          "internalType": "string",
          "name": "names",
          "type": "string"
        },
        {
          "internalType": "uint256",
          "name": "age",
          "type": "uint256"
        },
        {
          "internalType": "string",
          "name": "idNumber",
          "type": "string"
        },
        {
          "internalType": "bool",
          "name": "voted",
          "type": "bool"
        }
      ],
      "stateMutability": "view",
      "type": "function"
    },
    {
      "inputs": [
        {
          "internalType": "address",
          "name": "",
          "type": "address"
        }
      ],
      "name": "voters",
      "outputs": [
        {
          "internalType": "string",
          "name": "names",
          "type": "string"
        },
        {
          "internalType": "uint256",
          "name": "age",
          "type": "uint256"
        },
        {
          "internalType": "string",
          "name": "idNumber",
          "type": "string"
        },
        {
          "internalType": "bool",
          "name": "voted",
          "type": "bool"
        }
      ],
      "stateMutability": "view",
      "type": "function"
    },
    {
      "inputs": [],
      "name": "votingEndTime",
      "outputs": [
        {
          "internalType": "uint256",
          "name": "",
          "type": "uint256"
        }
      ],
      "stateMutability": "view",
      "type": "function"
    },
    {
      "inputs": [],
      "name": "votingStarted",
      "outputs": [
        {
          "internalType": "bool",
          "name": "",
          "type": "bool"
        }
      ],
      "stateMutability": "view",
      "type": "function"
    }
  ],
  "bytecode": "0x60806040526000601060006101000a81548160ff0219169083151502179055506000601060016101000a81548160ff02191690831515021790555034801561004657600080fd5b506040518060400160405280600581526020017f566f7465780000000000000000000000000000000000000000000000000000008152506040518060400160405280600481526020017f56544b4e0000000000000000000000000000000000000000000000000000000081525081600390816100c2919061036b565b5080600490816100d2919061036b565b50505033600560006101000a81548173ffffffffffffffffffffffffffffffffffffffff021916908373ffffffffffffffffffffffffffffffffffffffff16021790555061043d565b600081519050919050565b7f4e487b7100000000000000000000000000000000000000000000000000000000600052604160045260246000fd5b7f4e487b7100000000000000000000000000000000000000000000000000000000600052602260045260246000fd5b6000600282049050600182168061019c57607f821691505b6020821081036101af576101ae610155565b5b50919050565b60008190508160005260206000209050919050565b60006020601f8301049050919050565b600082821b905092915050565b6000600883026102177fffffffffffffffffffffffffffffffffffffffffffffffffffffffffffffffff826101da565b61022186836101da565b95508019841693508086168417925050509392505050565b6000819050919050565b6000819050919050565b600061026861026361025e84610239565b610243565b610239565b9050919050565b6000819050919050565b6102828361024d565b61029661028e8261026f565b8484546101e7565b825550505050565b600090565b6102ab61029e565b6102b6818484610279565b505050565b5b818110156102da576102cf6000826102a3565b6001810190506102bc565b5050565b601f82111561031f576102f0816101b5565b6102f9846101ca565b81016020851015610308578190505b61031c610314856101ca565b8301826102bb565b50505b505050565b600082821c905092915050565b600061034260001984600802610324565b1980831691505092915050565b600061035b8383610331565b9150826002028217905092915050565b6103748261011b565b67ffffffffffffffff81111561038d5761038c610126565b5b6103978254610184565b6103a28282856102de565b600060209050601f8311600181146103d557600084156103c3578287015190505b6103cd858261034f565b865550610435565b601f1984166103e3866101b5565b60005b8281101561040b578489015182556001820191506020850194506020810190506103e6565b868310156104285784890151610424601f891682610331565b8355505b6001600288020188555050505b505050505050565b61734d8061044c6000396000f3fe608060405234801561001057600080fd5b506004361061025e5760003560e01c806383d948b711610146578063abceaad2116100c3578063c3403ddf11610087578063c3403ddf1461078c578063cdd7225314610796578063daca6f78146107b4578063dd62ed3e146107e4578063eb2119db14610814578063ffdd7496146108445761025e565b8063abceaad2146106fc578063b034d2b314610718578063b1bf87b014610734578063b80a398a14610752578063be94ced71461076e5761025e565b80639a53cbea1161010a5780639a53cbea1461062e5780639dfa906514610661578063a3ec138d1461067d578063a6385803146106b0578063a9059cbb146106cc5761025e565b806383d948b71461056e5780638ad1782b1461058c5780638da5cb5b146105bc57806392d7df4a146105da57806395d89b41146106105761025e565b8063313ce567116101df5780635fbcc155116101a35780635fbcc155146104605780636636b91e14610490578063676f86b0146104c057806370a08231146104f057806371a6f4651461052057806381683476146105505761025e565b8063313ce567146103b757806332cb6b0c146103d55780633dd079c0146103f35780634902a179146104115780634a66e1ab1461042d5761025e565b806318f56a0a1161022657806318f56a0a146102f75780631c64a33e146103155780631ea736e01461034b57806323b872dd1461036957806327aed42e146103995761025e565b806306a49fce1461026357806306fdde0314610281578063095ea7b31461029f57806310b86695146102cf57806318160ddd146102d9575b600080fd5b61026b610862565b6040516102789190614e3b565b60405180910390f35b610289610b38565b6040516102969190614ea7565b60405180910390f35b6102b960048036038101906102b49190614f67565b610bca565b6040516102c69190614fb6565b60405180910390f35b6102d7610bed565b005b6102e1610d66565b6040516102ee9190614fe0565b60405180910390f35b6102ff610d70565b60405161030c9190615187565b60405180910390f35b61032f600480360381019061032a91906152de565b611137565b6040516103429796959493929190615327565b60405180910390f35b6103536113bc565b6040516103609190614fe0565b60405180910390f35b610383600480360381019061037e91906153b2565b6113c2565b6040516103909190614fb6565b60405180910390f35b6103a16113f1565b6040516103ae9190614fb6565b60405180910390f35b6103bf611404565b6040516103cc9190615421565b60405180910390f35b6103dd61140d565b6040516103ea9190614fe0565b60405180910390f35b6103fb61141b565b6040516104089190614fb6565b60405180910390f35b61042b6004803603810190610426919061543c565b611440565b005b610447600480360381019061044291906152de565b611620565b6040516104579493929190615469565b60405180910390f35b61047a600480360381019061047591906154bc565b611783565b60405161048791906155b6565b60405180910390f35b6104aa60048036038101906104a591906155d1565b6117f2565b6040516104b79190614fb6565b60405180910390f35b6104da60048036038101906104d591906152de565b611bc7565b6040516104e79190614ea7565b60405180910390f35b61050a6004803603810190610505919061565c565b611c83565b6040516105179190614fe0565b60405180910390f35b61053a6004803603810190610535919061543c565b611ccb565b6040516105479190614ea7565b60405180910390f35b610558611d81565b6040516105659190614fe0565b60405180910390f35b610576611d8e565b6040516105839190614fb6565b60405180910390f35b6105a660048036038101906105a19190615689565b611da1565b6040516105b39190614fb6565b60405180910390f35b6105c4611de6565b6040516105d191906156f4565b60405180910390f35b6105f460048036038101906105ef919061543c565b611e0c565b6040516106079796959493929190615327565b60405180910390f35b61061861208b565b6040516106259190614ea7565b60405180910390f35b6106486004803603810190610643919061543c565b61211d565b6040516106589493929190615469565b60405180910390f35b61067b600480360381019061067691906152de565b61227a565b005b6106976004803603810190610692919061565c565b612519565b6040516106a79493929190615469565b60405180910390f35b6106ca60048036038101906106c5919061570f565b612666565b005b6106e660048036038101906106e19190614f67565b612be7565b6040516106f39190614fb6565b60405180910390f35b61071660048036038101906107119190615851565b612c0a565b005b610732600480360381019061072d91906152de565b612ea2565b005b61073c6132aa565b6040516107499190614fe0565b60405180910390f35b61076c6004803603810190610767919061589a565b6132b4565b005b610776613786565b6040516107839190614fe0565b60405180910390f35b610794613792565b005b61079e613921565b6040516107ab9190615ab1565b60405180910390f35b6107ce60048036038101906107c99190615ba0565b613ac9565b6040516107db9190614fb6565b60405180910390f35b6107fe60048036038101906107f99190615bfc565b613b3c565b60405161080b9190614fe0565b60405180910390f35b61082e6004803603810190610829919061565c565b613bc3565b60405161083b9190614fb6565b60405180910390f35b61084c613c1e565b6040516108599190614fe0565b60405180910390f35b60606008805480602002602001604051908101604052809291908181526020016000905b82821015610b2f57838290600052602060002090600702016040518060e00160405290816000820180546108b990615c6b565b80601f01602080910402602001604051908101604052809291908181526020018280546108e590615c6b565b80156109325780601f1061090757610100808354040283529160200191610932565b820191906000526020600020905b81548152906001019060200180831161091557829003601f168201915b505050505081526020016001820154815260200160028201805461095590615c6b565b80601f016020809104026020016040519081016040528092919081815260200182805461098190615c6b565b80156109ce5780601f106109a3576101008083540402835291602001916109ce565b820191906000526020600020905b8154815290600101906020018083116109b157829003601f168201915b505050505081526020016003820180546109e790615c6b565b80601f0160208091040260200160405190810160405280929190818152602001828054610a1390615c6b565b8015610a605780601f10610a3557610100808354040283529160200191610a60565b820191906000526020600020905b815481529060010190602001808311610a4357829003601f168201915b50505050508152602001600482015481526020016005820160009054906101000a900460ff16151515158152602001600682018054610a9e90615c6b565b80601f0160208091040260200160405190810160405280929190818152602001828054610aca90615c6b565b8015610b175780601f10610aec57610100808354040283529160200191610b17565b820191906000526020600020905b815481529060010190602001808311610afa57829003601f168201915b50505050508152505081526020019060010190610886565b50505050905090565b606060038054610b4790615c6b565b80601f0160208091040260200160405190810160405280929190818152602001828054610b7390615c6b565b8015610bc05780601f10610b9557610100808354040283529160200191610bc0565b820191906000526020600020905b815481529060010190602001808311610ba357829003601f168201915b5050505050905090565b600080610bd5613c2a565b9050610be2818585613c32565b600191505092915050565b600560009054906101000a900473ffffffffffffffffffffffffffffffffffffffff1673ffffffffffffffffffffffffffffffffffffffff163373ffffffffffffffffffffffffffffffffffffffff1614610c7d576040517f08c379a0000000000000000000000000000000000000000000000000000000008152600401610c7490615ce8565b60405180910390fd5b601060009054906101000a900460ff1615610ccd576040517f08c379a0000000000000000000000000000000000000000000000000000000008152600401610cc490615d7a565b60405180910390fd5b601060019054906101000a900460ff1615610d1d576040517f08c379a0000000000000000000000000000000000000000000000000000000008152600401610d1490615e0c565b60405180910390fd5b6001601060006101000a81548160ff0219169083151502179055507f82e6c84abd647d1b4fae9bee1859f2642e5443af0ff900d4af83a93c2bf4151260405160405180910390a1565b6000600254905090565b60606009805480602002602001604051908101604052809291908181526020016000905b8282101561112e5783829060005260206000209060020201604051806040016040529081600082018054610dc790615c6b565b80601f0160208091040260200160405190810160405280929190818152602001828054610df390615c6b565b8015610e405780601f10610e1557610100808354040283529160200191610e40565b820191906000526020600020905b815481529060010190602001808311610e2357829003601f168201915b5050505050815260200160018201805480602002602001604051908101604052809291908181526020016000905b8282101561111757838290600052602060002090600702016040518060e0016040529081600082018054610ea190615c6b565b80601f0160208091040260200160405190810160405280929190818152602001828054610ecd90615c6b565b8015610f1a5780601f10610eef57610100808354040283529160200191610f1a565b820191906000526020600020905b815481529060010190602001808311610efd57829003601f168201915b5050505050815260200160018201548152602001600282018054610f3d90615c6b565b80601f0160208091040260200160405190810160405280929190818152602001828054610f6990615c6b565b8015610fb65780601f10610f8b57610100808354040283529160200191610fb6565b820191906000526020600020905b815481529060010190602001808311610f9957829003601f168201915b50505050508152602001600382018054610fcf90615c6b565b80601f0160208091040260200160405190810160405280929190818152602001828054610ffb90615c6b565b80156110485780601f1061101d57610100808354040283529160200191611048565b820191906000526020600020905b81548152906001019060200180831161102b57829003601f168201915b50505050508152602001600482015481526020016005820160009054906101000a900460ff1615151515815260200160068201805461108690615c6b565b80601f01602080910402602001604051908101604052809291908181526020018280546110b290615c6b565b80156110ff5780601f106110d4576101008083540402835291602001916110ff565b820191906000526020600020905b8154815290600101906020018083116110e257829003601f168201915b50505050508152505081526020019060010190610e6e565b505050508152505081526020019060010190610d94565b50505050905090565b600b8180516020810182018051848252602083016020850120818352809550505050505060009150905080600001805461117090615c6b565b80601f016020809104026020016040519081016040528092919081815260200182805461119c90615c6b565b80156111e95780601f106111be576101008083540402835291602001916111e9565b820191906000526020600020905b8154815290600101906020018083116111cc57829003601f168201915b50505050509080600101549080600201805461120490615c6b565b80601f016020809104026020016040519081016040528092919081815260200182805461123090615c6b565b801561127d5780601f106112525761010080835404028352916020019161127d565b820191906000526020600020905b81548152906001019060200180831161126057829003601f168201915b50505050509080600301805461129290615c6b565b80601f01602080910402602001604051908101604052809291908181526020018280546112be90615c6b565b801561130b5780601f106112e05761010080835404028352916020019161130b565b820191906000526020600020905b8154815290600101906020018083116112ee57829003601f168201915b5050505050908060040154908060050160009054906101000a900460ff169080600601805461133990615c6b565b80601f016020809104026020016040519081016040528092919081815260200182805461136590615c6b565b80156113b25780601f10611387576101008083540402835291602001916113b2565b820191906000526020600020905b81548152906001019060200180831161139557829003601f168201915b5050505050905087565b60065481565b6000806113cd613c2a565b90506113da858285613c44565b6113e5858585613cd8565b60019150509392505050565b601060009054906101000a900460ff1681565b60006012905090565b69d3c21bcecceda100000081565b6000601060019054906101000a900460ff16801561143b57506006544210155b905090565b600560009054906101000a900473ffffffffffffffffffffffffffffffffffffffff1673ffffffffffffffffffffffffffffffffffffffff163373ffffffffffffffffffffffffffffffffffffffff16146114d0576040517f08c379a00000000000000000000000000000000000000000000000000000000081526004016114c790615ce8565b60405180910390fd5b601060009054906101000a900460ff1661151f576040517f08c379a000000000000000000000000000000000000000000000000000000000815260040161151690615e9e565b60405180910390fd5b601060019054906101000a900460ff161561156f576040517f08c379a000000000000000000000000000000000000000000000000000000000815260040161156690615f0a565b60405180910390fd5b6000601060006101000a81548160ff0219169083151502179055506001601060016101000a81548160ff02191690831515021790555062015180816115b49190615f59565b426115bf9190615f9b565b6006819055507f2ee88f50f05558e39b34a18214ff6a6adc091504772084c6ce7899354bec0aa460405160405180910390a17f877e2548498f42b7975a186b94ef1d32c86d420b7b806dd2be2bea293b89590460405160405180910390a150565b600a8180516020810182018051848252602083016020850120818352809550505050505060009150905080600001805461165990615c6b565b80601f016020809104026020016040519081016040528092919081815260200182805461168590615c6b565b80156116d25780601f106116a7576101008083540402835291602001916116d2565b820191906000526020600020905b8154815290600101906020018083116116b557829003601f168201915b5050505050908060010154908060020180546116ed90615c6b565b80601f016020809104026020016040519081016040528092919081815260200182805461171990615c6b565b80156117665780601f1061173b57610100808354040283529160200191611766565b820191906000526020600020905b81548152906001019060200180831161174957829003601f168201915b5050505050908060030160009054906101000a900460ff16905084565b6000856117a78873ffffffffffffffffffffffffffffffffffffffff166014613dcc565b86866117b287614012565b6117bb87614012565b6040516020016117d0969594939291906162b7565b6040516020818303038152906040528051906020012090509695505050505050565b6000601060009054906101000a900460ff16611843576040517f08c379a000000000000000000000000000000000000000000000000000000000815260040161183a90615e9e565b60405180910390fd5b601060019054906101000a900460ff1615611893576040517f08c379a000000000000000000000000000000000000000000000000000000000815260040161188a90616410565b60405180910390fd5b6000600a836040516118a59190616430565b908152602001604051809103902060000180546118c190615c6b565b905014611903576040517f08c379a00000000000000000000000000000000000000000000000000000000081526004016118fa90616493565b60405180910390fd5b6000600d60003373ffffffffffffffffffffffffffffffffffffffff1673ffffffffffffffffffffffffffffffffffffffff1681526020019081526020016000206001015414611988576040517f08c379a000000000000000000000000000000000000000000000000000000000815260040161197f90616525565b60405180910390fd5b60006040518060800160405280868152602001858152602001848152602001600015158152509050600781908060018154018082558091505060019003906000526020600020906004020160009091909190915060008201518160000190816119f191906166f1565b50602082015181600101556040820151816002019081611a1191906166f1565b5060608201518160030160006101000a81548160ff021916908315150217905550505080600a84604051611a459190616430565b90815260200160405180910390206000820151816000019081611a6891906166f1565b50602082015181600101556040820151816002019081611a8891906166f1565b5060608201518160030160006101000a81548160ff02191690831515021790555090505080600d60003373ffffffffffffffffffffffffffffffffffffffff1673ffffffffffffffffffffffffffffffffffffffff1681526020019081526020016000206000820151816000019081611b0191906166f1565b50602082015181600101556040820151816002019081611b2191906166f1565b5060608201518160030160006101000a81548160ff021916908315150217905550905050611b5733674563918244f400006140e0565b5082604051611b669190616430565b604051809103902085604051611b7c9190616430565b60405180910390207f754a5f7c9336f3562d73dacebf51de10da957ae9dfcae4fbfb93733ece3dd5aa86604051611bb39190614fe0565b60405180910390a360019150509392505050565b600c81805160208101820180518482526020830160208501208183528095505050505050600091509050806000018054611c0090615c6b565b80601f0160208091040260200160405190810160405280929190818152602001828054611c2c90615c6b565b8015611c795780601f10611c4e57610100808354040283529160200191611c79565b820191906000526020600020905b815481529060010190602001808311611c5c57829003601f168201915b5050505050905081565b60008060008373ffffffffffffffffffffffffffffffffffffffff1673ffffffffffffffffffffffffffffffffffffffff168152602001908152602001600020549050919050565b60098181548110611cdb57600080fd5b9060005260206000209060020201600091509050806000018054611cfe90615c6b565b80601f0160208091040260200160405190810160405280929190818152602001828054611d2a90615c6b565b8015611d775780601f10611d4c57610100808354040283529160200191611d77565b820191906000526020600020905b815481529060010190602001808311611d5a57829003601f168201915b5050505050905081565b6000600980549050905090565b601060019054906101000a900460ff1681565b600f602052816000526040600020818051602081018201805184825260208301602085012081835280955050505050506000915091509054906101000a900460ff1681565b600560009054906101000a900473ffffffffffffffffffffffffffffffffffffffff1681565b60088181548110611e1c57600080fd5b9060005260206000209060070201600091509050806000018054611e3f90615c6b565b80601f0160208091040260200160405190810160405280929190818152602001828054611e6b90615c6b565b8015611eb85780601f10611e8d57610100808354040283529160200191611eb8565b820191906000526020600020905b815481529060010190602001808311611e9b57829003601f168201915b505050505090806001015490806002018054611ed390615c6b565b80601f0160208091040260200160405190810160405280929190818152602001828054611eff90615c6b565b8015611f4c5780601f10611f2157610100808354040283529160200191611f4c565b820191906000526020600020905b815481529060010190602001808311611f2f57829003601f168201915b505050505090806003018054611f6190615c6b565b80601f0160208091040260200160405190810160405280929190818152602001828054611f8d90615c6b565b8015611fda5780601f10611faf57610100808354040283529160200191611fda565b820191906000526020600020905b815481529060010190602001808311611fbd57829003601f168201915b5050505050908060040154908060050160009054906101000a900460ff169080600601805461200890615c6b565b80601f016020809104026020016040519081016040528092919081815260200182805461203490615c6b565b80156120815780601f1061205657610100808354040283529160200191612081565b820191906000526020600020905b81548152906001019060200180831161206457829003601f168201915b5050505050905087565b60606004805461209a90615c6b565b80601f01602080910402602001604051908101604052809291908181526020018280546120c690615c6b565b80156121135780601f106120e857610100808354040283529160200191612113565b820191906000526020600020905b8154815290600101906020018083116120f657829003601f168201915b5050505050905090565b6007818154811061212d57600080fd5b906000526020600020906004020160009150905080600001805461215090615c6b565b80601f016020809104026020016040519081016040528092919081815260200182805461217c90615c6b565b80156121c95780601f1061219e576101008083540402835291602001916121c9565b820191906000526020600020905b8154815290600101906020018083116121ac57829003601f168201915b5050505050908060010154908060020180546121e490615c6b565b80601f016020809104026020016040519081016040528092919081815260200182805461221090615c6b565b801561225d5780601f106122325761010080835404028352916020019161225d565b820191906000526020600020905b81548152906001019060200180831161224057829003601f168201915b5050505050908060030160009054906101000a900460ff16905084565b600560009054906101000a900473ffffffffffffffffffffffffffffffffffffffff1673ffffffffffffffffffffffffffffffffffffffff163373ffffffffffffffffffffffffffffffffffffffff161461230a576040517f08c379a000000000000000000000000000000000000000000000000000000000815260040161230190615ce8565b60405180910390fd5b600b8160405161231a9190616430565b908152602001604051809103902060050160009054906101000a900460ff1615612379576040517f08c379a00000000000000000000000000000000000000000000000000000000081526004016123709061680f565b60405180910390fd5b6001600b8260405161238b9190616430565b908152602001604051809103902060050160006101000a81548160ff02191690831515021790555060005b60088054905081101561248a57816040516020016123d49190616430565b60405160208183030381529060405280519060200120600882815481106123fe576123fd61682f565b5b906000526020600020906007020160020160405160200161241f91906168e1565b604051602081830303815290604052805190602001200361247d576001600882815481106124505761244f61682f565b5b906000526020600020906007020160050160006101000a81548160ff02191690831515021790555061248a565b80806001019150506123b6565b5061249d33678ac7230489e800006140e0565b50806040516124ac9190616430565b6040518091039020600b826040516124c49190616430565b90815260200160405180910390206000016040516124e291906168e1565b60405180910390207fb78543f054c768084f86f0e559d1e007998ca69729eeffc4b727baa388934a3260405160405180910390a350565b600d60205280600052604060002060009150905080600001805461253c90615c6b565b80601f016020809104026020016040519081016040528092919081815260200182805461256890615c6b565b80156125b55780601f1061258a576101008083540402835291602001916125b5565b820191906000526020600020905b81548152906001019060200180831161259857829003601f168201915b5050505050908060010154908060020180546125d090615c6b565b80601f01602080910402602001604051908101604052809291908181526020018280546125fc90615c6b565b80156126495780601f1061261e57610100808354040283529160200191612649565b820191906000526020600020905b81548152906001019060200180831161262c57829003601f168201915b5050505050908060030160009054906101000a900460ff16905084565b601060009054906101000a900460ff16156126b6576040517f08c379a00000000000000000000000000000000000000000000000000000000081526004016126ad9061696a565b60405180910390fd5b601060019054906101000a900460ff16612705576040517f08c379a00000000000000000000000000000000000000000000000000000000081526004016126fc906169d6565b60405180910390fd5b6000600d60003373ffffffffffffffffffffffffffffffffffffffff1673ffffffffffffffffffffffffffffffffffffffff16815260200190815260200160002090506000600c8460405161275a9190616430565b908152602001604051809103902060010180549050116127af576040517f08c379a00000000000000000000000000000000000000000000000000000000081526004016127a690616a42565b60405180910390fd5b600c836040516127bf9190616430565b9081526020016040518091039020600101805490508210612815576040517f08c379a000000000000000000000000000000000000000000000000000000000815260040161280c90616aae565b60405180910390fd5b600f60003373ffffffffffffffffffffffffffffffffffffffff1673ffffffffffffffffffffffffffffffffffffffff168152602001908152602001600020836040516128629190616430565b908152602001604051809103902060009054906101000a900460ff16156128be576040517f08c379a00000000000000000000000000000000000000000000000000000000081526004016128b590616b40565b60405180910390fd5b6001600c846040516128d09190616430565b908152602001604051809103902060010183815481106128f3576128f261682f565b5b906000526020600020906007020160040160008282546129139190615f9b565b925050819055506000600c8460405161292c9190616430565b9081526020016040518091039020600101838154811061294f5761294e61682f565b5b9060005260206000209060070201600201805461296b90615c6b565b80601f016020809104026020016040519081016040528092919081815260200182805461299790615c6b565b80156129e45780601f106129b9576101008083540402835291602001916129e4565b820191906000526020600020905b8154815290600101906020018083116129c757829003601f168201915b5050505050905060005b600880549050811015612ac15781604051602001612a0c9190616430565b6040516020818303038152906040528051906020012060088281548110612a3657612a3561682f565b5b9060005260206000209060070201600201604051602001612a5791906168e1565b6040516020818303038152906040528051906020012003612ab457600160088281548110612a8857612a8761682f565b5b90600052602060002090600702016004016000828254612aa89190615f9b565b92505081905550612ac1565b80806001019150506129ee565b506001600b82604051612ad49190616430565b90815260200160405180910390206004016000828254612af49190615f9b565b9250508190555060018260030160006101000a81548160ff0219169083151502179055506001600f60003373ffffffffffffffffffffffffffffffffffffffff1673ffffffffffffffffffffffffffffffffffffffff16815260200190815260200160002085604051612b679190616430565b908152602001604051809103902060006101000a81548160ff0219169083151502179055503373ffffffffffffffffffffffffffffffffffffffff167f477d7faf347a03679fabd88feea150c41667473fc8412962f607fb7503f1bd43836002018686604051612bd993929190616be4565b60405180910390a250505050565b600080612bf2613c2a565b9050612bff818585613cd8565b600191505092915050565b600560009054906101000a900473ffffffffffffffffffffffffffffffffffffffff1673ffffffffffffffffffffffffffffffffffffffff163373ffffffffffffffffffffffffffffffffffffffff1614612c9a576040517f08c379a0000000000000000000000000000000000000000000000000000000008152600401612c9190615ce8565b60405180910390fd5b60005b8151811015612e9e57600e828281518110612cbb57612cba61682f565b5b6020026020010151604051612cd09190616430565b908152602001604051809103902060009054906101000a900460ff1615612d2c576040517f08c379a0000000000000000000000000000000000000000000000000000000008152600401612d2390616c75565b60405180910390fd5b6000600c838381518110612d4357612d4261682f565b5b6020026020010151604051612d589190616430565b90815260200160405180910390209050828281518110612d7b57612d7a61682f565b5b6020026020010151816000019081612d9391906166f1565b50600981908060018154018082558091505060019003906000526020600020906002020160009091909190915060008201816000019081612dd49190616cab565b506001820181600101908054612deb929190614a3f565b5050506001600e848481518110612e0557612e0461682f565b5b6020026020010151604051612e1a9190616430565b908152602001604051809103902060006101000a81548160ff0219169083151502179055507ff635339f4b5986d632e76f25211c57346b4b4ca3aa13c1ba323ac12563731456838381518110612e7357612e7261682f565b5b6020026020010151604051612e889190614ea7565b60405180910390a1508080600101915050612c9d565b5050565b600560009054906101000a900473ffffffffffffffffffffffffffffffffffffffff1673ffffffffffffffffffffffffffffffffffffffff163373ffffffffffffffffffffffffffffffffffffffff1614612f32576040517f08c379a0000000000000000000000000000000000000000000000000000000008152600401612f2990615ce8565b60405180910390fd5b6000600b82604051612f449190616430565b90815260200160405180910390206000018054612f6090615c6b565b905003612fa2576040517f08c379a0000000000000000000000000000000000000000000000000000000008152600401612f9990616ddf565b60405180910390fd5b60005b6008805490508110156132a65781604051602001612fc39190616430565b6040516020818303038152906040528051906020012060088281548110612fed57612fec61682f565b5b906000526020600020906007020160020160405160200161300e91906168e1565b60405160208183030381529060405280519060200120036132995760008190505b60016008805490506130419190616dff565b81101561313d5760086001826130579190615f9b565b815481106130685761306761682f565b5b90600052602060002090600702016008828154811061308a5761308961682f565b5b9060005260206000209060070201600082018160000190816130ac9190616cab565b5060018201548160010155600282018160020190816130cb9190616cab565b50600382018160030190816130e09190616cab565b50600482015481600401556005820160009054906101000a900460ff168160050160006101000a81548160ff0219169083151502179055506006820181600601908161312c9190616cab565b50905050808060010191505061302f565b5060088054806131505761314f616e33565b5b6001900381819060005260206000209060070201600080820160006131759190614b2c565b600182016000905560028201600061318d9190614b2c565b60038201600061319d9190614b2c565b60048201600090556005820160006101000a81549060ff02191690556006820160006131c99190614b2c565b50509055600b826040516131dd9190616430565b9081526020016040518091039020600080820160006131fc9190614b2c565b60018201600090556002820160006132149190614b2c565b6003820160006132249190614b2c565b60048201600090556005820160006101000a81549060ff02191690556006820160006132509190614b2c565b5050816040516132609190616430565b60405180910390207f8f5f7793556433ecc92e19fec29f06611a3ac9c5a32b806db2149f70d52946fe60405160405180910390a26132a6565b8080600101915050612fa5565b5050565b6000600654905090565b601060009054906101000a900460ff16613303576040517f08c379a00000000000000000000000000000000000000000000000000000000081526004016132fa90615e9e565b60405180910390fd5b601060019054906101000a900460ff1615613353576040517f08c379a000000000000000000000000000000000000000000000000000000000815260040161334a90616410565b60405180910390fd5b6000600b846040516133659190616430565b9081526020016040518091039020600001805461338190615c6b565b9050146133c3576040517f08c379a00000000000000000000000000000000000000000000000000000000081526004016133ba90616eae565b60405180910390fd5b6000600a846040516133d59190616430565b908152602001604051809103902060000180546133f190615c6b565b905003613433576040517f08c379a000000000000000000000000000000000000000000000000000000000815260040161342a90616f1a565b60405180910390fd5b60006040518060e0016040528087815260200186815260200185815260200184815260200160008152602001600015158152602001838152509050600881908060018154018082558091505060019003906000526020600020906007020160009091909190915060008201518160000190816134af91906166f1565b506020820151816001015560408201518160020190816134cf91906166f1565b5060608201518160030190816134e591906166f1565b506080820151816004015560a08201518160050160006101000a81548160ff02191690831515021790555060c082015181600601908161352591906166f1565b50505080600b856040516135399190616430565b9081526020016040518091039020600082015181600001908161355c91906166f1565b5060208201518160010155604082015181600201908161357c91906166f1565b50606082015181600301908161359291906166f1565b506080820151816004015560a08201518160050160006101000a81548160ff02191690831515021790555060c08201518160060190816135d291906166f1565b509050506000600c836040516135e89190616430565b908152602001604051809103902060010180549050101561363e576040517f08c379a000000000000000000000000000000000000000000000000000000000815260040161363590616f86565b60405180910390fd5b600c8260405161364e9190616430565b9081526020016040518091039020600101819080600181540180825580915050600190039060005260206000209060070201600090919091909150600082015181600001908161369e91906166f1565b506020820151816001015560408201518160020190816136be91906166f1565b5060608201518160030190816136d491906166f1565b506080820151816004015560a08201518160050160006101000a81548160ff02191690831515021790555060c082015181600601908161371491906166f1565b505050836040516137259190616430565b60405180910390208660405161373b9190616430565b60405180910390207fd9f17a5389d6109c78413a18e9adfec5a898c288bbd8c9e65de38e95f04b9e0787868660405161377693929190616fa6565b60405180910390a3505050505050565b674563918244f4000081565b600560009054906101000a900473ffffffffffffffffffffffffffffffffffffffff1673ffffffffffffffffffffffffffffffffffffffff163373ffffffffffffffffffffffffffffffffffffffff1614613822576040517f08c379a000000000000000000000000000000000000000000000000000000000815260040161381990615ce8565b60405180910390fd5b601060019054906101000a900460ff16613871576040517f08c379a000000000000000000000000000000000000000000000000000000000815260040161386890617037565b60405180910390fd5b60065442106138b5576040517f08c379a00000000000000000000000000000000000000000000000000000000081526004016138ac906170a3565b60405180910390fd5b6000601060016101000a81548160ff02191690831515021790555060006006819055506001601060006101000a81548160ff0219169083151502179055507f7a19ed057db79e3c2fa0b97a54b43bef4fce74b31bb6c01af514b9a18a7f70ab60405160405180910390a1565b60606007805480602002602001604051908101604052809291908181526020016000905b82821015613ac0578382906000526020600020906004020160405180608001604052908160008201805461397890615c6b565b80601f01602080910402602001604051908101604052809291908181526020018280546139a490615c6b565b80156139f15780601f106139c6576101008083540402835291602001916139f1565b820191906000526020600020905b8154815290600101906020018083116139d457829003601f168201915b5050505050815260200160018201548152602001600282018054613a1490615c6b565b80601f0160208091040260200160405190810160405280929190818152602001828054613a4090615c6b565b8015613a8d5780601f10613a6257610100808354040283529160200191613a8d565b820191906000526020600020905b815481529060010190602001808311613a7057829003601f168201915b505050505081526020016003820160009054906101000a900460ff16151515158152505081526020019060010190613945565b50505050905090565b60008083604051602001613add9190617130565b6040516020818303038152906040528051906020012090506000613b01828561418e565b90503373ffffffffffffffffffffffffffffffffffffffff168173ffffffffffffffffffffffffffffffffffffffff16149250505092915050565b6000600160008473ffffffffffffffffffffffffffffffffffffffff1673ffffffffffffffffffffffffffffffffffffffff16815260200190815260200160002060008373ffffffffffffffffffffffffffffffffffffffff1673ffffffffffffffffffffffffffffffffffffffff16815260200190815260200160002054905092915050565b600080600d60008473ffffffffffffffffffffffffffffffffffffffff1673ffffffffffffffffffffffffffffffffffffffff1681526020019081526020016000206000018054613c1390615c6b565b905014159050919050565b678ac7230489e8000081565b600033905090565b613c3f83838360016141ba565b505050565b6000613c508484613b3c565b90507fffffffffffffffffffffffffffffffffffffffffffffffffffffffffffffffff8114613cd25781811015613cc2578281836040517ffb8f41b2000000000000000000000000000000000000000000000000000000008152600401613cb993929190617156565b60405180910390fd5b613cd1848484840360006141ba565b5b50505050565b600073ffffffffffffffffffffffffffffffffffffffff168373ffffffffffffffffffffffffffffffffffffffff1603613d4a5760006040517f96c6fd1e000000000000000000000000000000000000000000000000000000008152600401613d4191906156f4565b60405180910390fd5b600073ffffffffffffffffffffffffffffffffffffffff168273ffffffffffffffffffffffffffffffffffffffff1603613dbc5760006040517fec442f05000000000000000000000000000000000000000000000000000000008152600401613db391906156f4565b60405180910390fd5b613dc7838383614391565b505050565b6060600083905060006002846002613de49190615f59565b613dee9190615f9b565b67ffffffffffffffff811115613e0757613e066151b3565b5b6040519080825280601f01601f191660200182016040528015613e395781602001600182028036833780820191505090505b5090507f300000000000000000000000000000000000000000000000000000000000000081600081518110613e7157613e7061682f565b5b60200101907effffffffffffffffffffffffffffffffffffffffffffffffffffffffffffff1916908160001a9053507f780000000000000000000000000000000000000000000000000000000000000081600181518110613ed557613ed461682f565b5b60200101907effffffffffffffffffffffffffffffffffffffffffffffffffffffffffffff1916908160001a90535060006001856002613f159190615f59565b613f1f9190615f9b565b90505b6001811115613fbf577f3031323334353637383961626364656600000000000000000000000000000000600f841660108110613f6157613f6061682f565b5b1a60f81b828281518110613f7857613f7761682f565b5b60200101907effffffffffffffffffffffffffffffffffffffffffffffffffffffffffffff1916908160001a905350600483901c925080613fb89061718d565b9050613f22565b50600082146140075784846040517fe22e27eb000000000000000000000000000000000000000000000000000000008152600401613ffe9291906171b6565b60405180910390fd5b809250505092915050565b606060006001614021846145b6565b01905060008167ffffffffffffffff8111156140405761403f6151b3565b5b6040519080825280601f01601f1916602001820160405280156140725781602001600182028036833780820191505090505b509050600082602001820190505b6001156140d5578080600190039150507f3031323334353637383961626364656600000000000000000000000000000000600a86061a8153600a85816140c9576140c86171df565b5b04945060008503614080575b819350505050919050565b600069d3c21bcecceda10000006140f5610d66565b836141009190615f9b565b1115614141576040517f08c379a00000000000000000000000000000000000000000000000000000000081526004016141389061725a565b60405180910390fd5b61414b8383614709565b7fcda531bfd68624f13205c0a23cd4d5a7f09792cbb399603114f2b04aaa1bf5cf838360405161417c92919061727a565b60405180910390a16001905092915050565b60008060008061419e868661478b565b9250925092506141ae82826147e7565b82935050505092915050565b600073ffffffffffffffffffffffffffffffffffffffff168473ffffffffffffffffffffffffffffffffffffffff160361422c5760006040517fe602df0500000000000000000000000000000000000000000000000000000000815260040161422391906156f4565b60405180910390fd5b600073ffffffffffffffffffffffffffffffffffffffff168373ffffffffffffffffffffffffffffffffffffffff160361429e5760006040517f94280d6200000000000000000000000000000000000000000000000000000000815260040161429591906156f4565b60405180910390fd5b81600160008673ffffffffffffffffffffffffffffffffffffffff1673ffffffffffffffffffffffffffffffffffffffff16815260200190815260200160002060008573ffffffffffffffffffffffffffffffffffffffff1673ffffffffffffffffffffffffffffffffffffffff16815260200190815260200160002081905550801561438b578273ffffffffffffffffffffffffffffffffffffffff168473ffffffffffffffffffffffffffffffffffffffff167f8c5be1e5ebec7d5bd14f71427d1e84f3dd0314c0f7b2291e5b200ac8c7c3b925846040516143829190614fe0565b60405180910390a35b50505050565b600073ffffffffffffffffffffffffffffffffffffffff168373ffffffffffffffffffffffffffffffffffffffff16036143e35780600260008282546143d79190615f9b565b925050819055506144b6565b60008060008573ffffffffffffffffffffffffffffffffffffffff1673ffffffffffffffffffffffffffffffffffffffff1681526020019081526020016000205490508181101561446f578381836040517fe450d38c00000000000000000000000000000000000000000000000000000000815260040161446693929190617156565b60405180910390fd5b8181036000808673ffffffffffffffffffffffffffffffffffffffff1673ffffffffffffffffffffffffffffffffffffffff16815260200190815260200160002081905550505b600073ffffffffffffffffffffffffffffffffffffffff168273ffffffffffffffffffffffffffffffffffffffff16036144ff578060026000828254039250508190555061454c565b806000808473ffffffffffffffffffffffffffffffffffffffff1673ffffffffffffffffffffffffffffffffffffffff168152602001908152602001600020600082825401925050819055505b8173ffffffffffffffffffffffffffffffffffffffff168373ffffffffffffffffffffffffffffffffffffffff167fddf252ad1be2c89b69c2b068fc378daa952ba7f163c4a11628f55a4df523b3ef836040516145a99190614fe0565b60405180910390a3505050565b600080600090507a184f03e93ff9f4daa797ed6e38ed64bf6a1f0100000000000000008310614614577a184f03e93ff9f4daa797ed6e38ed64bf6a1f010000000000000000838161460a576146096171df565b5b0492506040810190505b6d04ee2d6d415b85acef81000000008310614651576d04ee2d6d415b85acef81000000008381614647576146466171df565b5b0492506020810190505b662386f26fc10000831061468057662386f26fc100008381614676576146756171df565b5b0492506010810190505b6305f5e10083106146a9576305f5e100838161469f5761469e6171df565b5b0492506008810190505b61271083106146ce5761271083816146c4576146c36171df565b5b0492506004810190505b606483106146f157606483816146e7576146e66171df565b5b0492506002810190505b600a8310614700576001810190505b80915050919050565b600073ffffffffffffffffffffffffffffffffffffffff168273ffffffffffffffffffffffffffffffffffffffff160361477b5760006040517fec442f0500000000000000000000000000000000000000000000000000000000815260040161477291906156f4565b60405180910390fd5b61478760008383614391565b5050565b600080600060418451036147d05760008060006020870151925060408701519150606087015160001a90506147c28882858561494b565b9550955095505050506147e0565b60006002855160001b9250925092505b9250925092565b600060038111156147fb576147fa6172a3565b5b82600381111561480e5761480d6172a3565b5b03156149475760016003811115614828576148276172a3565b5b82600381111561483b5761483a6172a3565b5b03614872576040517ff645eedf00000000000000000000000000000000000000000000000000000000815260040160405180910390fd5b60026003811115614886576148856172a3565b5b826003811115614899576148986172a3565b5b036148de578060001c6040517ffce698f70000000000000000000000000000000000000000000000000000000081526004016148d59190614fe0565b60405180910390fd5b6003808111156148f1576148f06172a3565b5b826003811115614904576149036172a3565b5b0361494657806040517fd78bce0c00000000000000000000000000000000000000000000000000000000815260040161493d91906155b6565b60405180910390fd5b5b5050565b60008060007f7fffffffffffffffffffffffffffffff5d576e7357a4501ddfe92f46681b20a08460001c111561498b576000600385925092509250614a35565b6000600188888888604051600081526020016040526040516149b094939291906172d2565b6020604051602081039080840390855afa1580156149d2573d6000803e3d6000fd5b505050602060405103519050600073ffffffffffffffffffffffffffffffffffffffff168173ffffffffffffffffffffffffffffffffffffffff1603614a2657600060016000801b93509350935050614a35565b8060008060001b935093509350505b9450945094915050565b828054828255906000526020600020906007028101928215614b1b5760005260206000209160070282015b82811115614b1a57828260008201816000019081614a889190616cab565b506001820154816001015560028201816002019081614aa79190616cab565b5060038201816003019081614abc9190616cab565b50600482015481600401556005820160009054906101000a900460ff168160050160006101000a81548160ff02191690831515021790555060068201816006019081614b089190616cab565b50505091600701919060070190614a6a565b5b509050614b289190614b6c565b5090565b508054614b3890615c6b565b6000825580601f10614b4a5750614b69565b601f016020900490600052602060002090810190614b689190614be7565b5b50565b5b80821115614be35760008082016000614b869190614b2c565b6001820160009055600282016000614b9e9190614b2c565b600382016000614bae9190614b2c565b60048201600090556005820160006101000a81549060ff0219169055600682016000614bda9190614b2c565b50600701614b6d565b5090565b5b80821115614c00576000816000905550600101614be8565b5090565b600081519050919050565b600082825260208201905092915050565b6000819050602082019050919050565b600081519050919050565b600082825260208201905092915050565b60005b83811015614c6a578082015181840152602081019050614c4f565b60008484015250505050565b6000601f19601f8301169050919050565b6000614c9282614c30565b614c9c8185614c3b565b9350614cac818560208601614c4c565b614cb581614c76565b840191505092915050565b6000819050919050565b614cd381614cc0565b82525050565b60008115159050919050565b614cee81614cd9565b82525050565b600060e0830160008301518482036000860152614d118282614c87565b9150506020830151614d266020860182614cca565b5060408301518482036040860152614d3e8282614c87565b91505060608301518482036060860152614d588282614c87565b9150506080830151614d6d6080860182614cca565b5060a0830151614d8060a0860182614ce5565b5060c083015184820360c0860152614d988282614c87565b9150508091505092915050565b6000614db18383614cf4565b905092915050565b6000602082019050919050565b6000614dd182614c04565b614ddb8185614c0f565b935083602082028501614ded85614c20565b8060005b85811015614e295784840389528151614e0a8582614da5565b9450614e1583614db9565b925060208a01995050600181019050614df1565b50829750879550505050505092915050565b60006020820190508181036000830152614e558184614dc6565b905092915050565b600082825260208201905092915050565b6000614e7982614c30565b614e838185614e5d565b9350614e93818560208601614c4c565b614e9c81614c76565b840191505092915050565b60006020820190508181036000830152614ec18184614e6e565b905092915050565b6000604051905090565b600080fd5b600080fd5b600073ffffffffffffffffffffffffffffffffffffffff82169050919050565b6000614f0882614edd565b9050919050565b614f1881614efd565b8114614f2357600080fd5b50565b600081359050614f3581614f0f565b92915050565b614f4481614cc0565b8114614f4f57600080fd5b50565b600081359050614f6181614f3b565b92915050565b60008060408385031215614f7e57614f7d614ed3565b5b6000614f8c85828601614f26565b9250506020614f9d85828601614f52565b9150509250929050565b614fb081614cd9565b82525050565b6000602082019050614fcb6000830184614fa7565b92915050565b614fda81614cc0565b82525050565b6000602082019050614ff56000830184614fd1565b92915050565b600081519050919050565b600082825260208201905092915050565b6000819050602082019050919050565b600082825260208201905092915050565b600061504382614c04565b61504d8185615027565b93508360208202850161505f85614c20565b8060005b8581101561509b578484038952815161507c8582614da5565b945061508783614db9565b925060208a01995050600181019050615063565b50829750879550505050505092915050565b600060408301600083015184820360008601526150ca8282614c87565b915050602083015184820360208601526150e48282615038565b9150508091505092915050565b60006150fd83836150ad565b905092915050565b6000602082019050919050565b600061511d82614ffb565b6151278185615006565b93508360208202850161513985615017565b8060005b85811015615175578484038952815161515685826150f1565b945061516183615105565b925060208a0199505060018101905061513d565b50829750879550505050505092915050565b600060208201905081810360008301526151a18184615112565b905092915050565b600080fd5b600080fd5b7f4e487b7100000000000000000000000000000000000000000000000000000000600052604160045260246000fd5b6151eb82614c76565b810181811067ffffffffffffffff8211171561520a576152096151b3565b5b80604052505050565b600061521d614ec9565b905061522982826151e2565b919050565b600067ffffffffffffffff821115615249576152486151b3565b5b61525282614c76565b9050602081019050919050565b82818337600083830152505050565b600061528161527c8461522e565b615213565b90508281526020810184848401111561529d5761529c6151ae565b5b6152a884828561525f565b509392505050565b600082601f8301126152c5576152c46151a9565b5b81356152d584826020860161526e565b91505092915050565b6000602082840312156152f4576152f3614ed3565b5b600082013567ffffffffffffffff81111561531257615311614ed8565b5b61531e848285016152b0565b91505092915050565b600060e0820190508181036000830152615341818a614e6e565b90506153506020830189614fd1565b81810360408301526153628188614e6e565b905081810360608301526153768187614e6e565b90506153856080830186614fd1565b61539260a0830185614fa7565b81810360c08301526153a48184614e6e565b905098975050505050505050565b6000806000606084860312156153cb576153ca614ed3565b5b60006153d986828701614f26565b93505060206153ea86828701614f26565b92505060406153fb86828701614f52565b9150509250925092565b600060ff82169050919050565b61541b81615405565b82525050565b60006020820190506154366000830184615412565b92915050565b60006020828403121561545257615451614ed3565b5b600061546084828501614f52565b91505092915050565b600060808201905081810360008301526154838187614e6e565b90506154926020830186614fd1565b81810360408301526154a48185614e6e565b90506154b36060830184614fa7565b95945050505050565b60008060008060008060c087890312156154d9576154d8614ed3565b5b60006154e789828a01614f26565b965050602087013567ffffffffffffffff81111561550857615507614ed8565b5b61551489828a016152b0565b955050604087013567ffffffffffffffff81111561553557615534614ed8565b5b61554189828a016152b0565b945050606087013567ffffffffffffffff81111561556257615561614ed8565b5b61556e89828a016152b0565b935050608061557f89828a01614f52565b92505060a061559089828a01614f52565b9150509295509295509295565b6000819050919050565b6155b08161559d565b82525050565b60006020820190506155cb60008301846155a7565b92915050565b6000806000606084860312156155ea576155e9614ed3565b5b600084013567ffffffffffffffff81111561560857615607614ed8565b5b615614868287016152b0565b935050602061562586828701614f52565b925050604084013567ffffffffffffffff81111561564657615645614ed8565b5b615652868287016152b0565b9150509250925092565b60006020828403121561567257615671614ed3565b5b600061568084828501614f26565b91505092915050565b600080604083850312156156a05761569f614ed3565b5b60006156ae85828601614f26565b925050602083013567ffffffffffffffff8111156156cf576156ce614ed8565b5b6156db858286016152b0565b9150509250929050565b6156ee81614efd565b82525050565b600060208201905061570960008301846156e5565b92915050565b6000806040838503121561572657615725614ed3565b5b600083013567ffffffffffffffff81111561574457615743614ed8565b5b615750858286016152b0565b925050602061576185828601614f52565b9150509250929050565b600067ffffffffffffffff821115615786576157856151b3565b5b602082029050602081019050919050565b600080fd5b60006157af6157aa8461576b565b615213565b905080838252602082019050602084028301858111156157d2576157d1615797565b5b835b8181101561581957803567ffffffffffffffff8111156157f7576157f66151a9565b5b80860161580489826152b0565b855260208501945050506020810190506157d4565b5050509392505050565b600082601f830112615838576158376151a9565b5b813561584884826020860161579c565b91505092915050565b60006020828403121561586757615866614ed3565b5b600082013567ffffffffffffffff81111561588557615884614ed8565b5b61589184828501615823565b91505092915050565b600080600080600060a086880312156158b6576158b5614ed3565b5b600086013567ffffffffffffffff8111156158d4576158d3614ed8565b5b6158e0888289016152b0565b95505060206158f188828901614f52565b945050604086013567ffffffffffffffff81111561591257615911614ed8565b5b61591e888289016152b0565b935050606086013567ffffffffffffffff81111561593f5761593e614ed8565b5b61594b888289016152b0565b925050608086013567ffffffffffffffff81111561596c5761596b614ed8565b5b615978888289016152b0565b9150509295509295909350565b600081519050919050565b600082825260208201905092915050565b6000819050602082019050919050565b600060808301600083015184820360008601526159ce8282614c87565b91505060208301516159e36020860182614cca565b50604083015184820360408601526159fb8282614c87565b9150506060830151615a106060860182614ce5565b508091505092915050565b6000615a2783836159b1565b905092915050565b6000602082019050919050565b6000615a4782615985565b615a518185615990565b935083602082028501615a63856159a1565b8060005b85811015615a9f5784840389528151615a808582615a1b565b9450615a8b83615a2f565b925060208a01995050600181019050615a67565b50829750879550505050505092915050565b60006020820190508181036000830152615acb8184615a3c565b905092915050565b615adc8161559d565b8114615ae757600080fd5b50565b600081359050615af981615ad3565b92915050565b600067ffffffffffffffff821115615b1a57615b196151b3565b5b615b2382614c76565b9050602081019050919050565b6000615b43615b3e84615aff565b615213565b905082815260208101848484011115615b5f57615b5e6151ae565b5b615b6a84828561525f565b509392505050565b600082601f830112615b8757615b866151a9565b5b8135615b97848260208601615b30565b91505092915050565b60008060408385031215615bb757615bb6614ed3565b5b6000615bc585828601615aea565b925050602083013567ffffffffffffffff811115615be657615be5614ed8565b5b615bf285828601615b72565b9150509250929050565b60008060408385031215615c1357615c12614ed3565b5b6000615c2185828601614f26565b9250506020615c3285828601614f26565b9150509250929050565b7f4e487b7100000000000000000000000000000000000000000000000000000000600052602260045260246000fd5b60006002820490506001821680615c8357607f821691505b602082108103615c9657615c95615c3c565b5b50919050565b7f596f7520617265206e6f7420746865206f776e65722100000000000000000000600082015250565b6000615cd2601683614e5d565b9150615cdd82615c9c565b602082019050919050565b60006020820190508181036000830152615d0181615cc5565b9050919050565b7f526567697374726174696f6e2068617320616c7265616479207374617274656460008201527f2e00000000000000000000000000000000000000000000000000000000000000602082015250565b6000615d64602183614e5d565b9150615d6f82615d08565b604082019050919050565b60006020820190508181036000830152615d9381615d57565b9050919050565b7f43616e6e6f7420737461727420726567697374726174696f6e2061667465722060008201527f766f74696e672068617320626567756e2e000000000000000000000000000000602082015250565b6000615df6603183614e5d565b9150615e0182615d9a565b604082019050919050565b60006020820190508181036000830152615e2581615de9565b9050919050565b7f526567697374726174696f6e20706572696f6420686173206e6f74207374617260008201527f7465642e00000000000000000000000000000000000000000000000000000000602082015250565b6000615e88602483614e5d565b9150615e9382615e2c565b604082019050919050565b60006020820190508181036000830152615eb781615e7b565b9050919050565b7f566f74696e672068617320616c726561647920737461727465642e0000000000600082015250565b6000615ef4601b83614e5d565b9150615eff82615ebe565b602082019050919050565b60006020820190508181036000830152615f2381615ee7565b9050919050565b7f4e487b7100000000000000000000000000000000000000000000000000000000600052601160045260246000fd5b6000615f6482614cc0565b9150615f6f83614cc0565b9250828202615f7d81614cc0565b91508282048414831517615f9457615f93615f2a565b5b5092915050565b6000615fa682614cc0565b9150615fb183614cc0565b9250828201905080821115615fc957615fc8615f2a565b5b92915050565b600081905092915050565b7f19457468657265756d205369676e6564204d6573736167653a0a000000000000600082015250565b6000616010601a83615fcf565b915061601b82615fda565b601a82019050919050565b7f446f6d61696e3a20000000000000000000000000000000000000000000000000600082015250565b600061605c600883615fcf565b915061606782616026565b600882019050919050565b600061607d82614c30565b6160878185615fcf565b9350616097818560208601614c4c565b80840191505092915050565b7f0a00000000000000000000000000000000000000000000000000000000000000600082015250565b60006160d9600183615fcf565b91506160e4826160a3565b600182019050919050565b7f416464726573733a200000000000000000000000000000000000000000000000600082015250565b6000616125600983615fcf565b9150616130826160ef565b600982019050919050565b7f53746174656d656e743a20000000000000000000000000000000000000000000600082015250565b6000616171600b83615fcf565b915061617c8261613b565b600b82019050919050565b7f5552493a20000000000000000000000000000000000000000000000000000000600082015250565b60006161bd600583615fcf565b91506161c882616187565b600582019050919050565b7f56657273696f6e3a20310a000000000000000000000000000000000000000000600082015250565b6000616209600b83615fcf565b9150616214826161d3565b600b82019050919050565b7f436861696e2049443a2000000000000000000000000000000000000000000000600082015250565b6000616255600a83615fcf565b91506162608261621f565b600a82019050919050565b7f4e6f6e63653a2000000000000000000000000000000000000000000000000000600082015250565b60006162a1600783615fcf565b91506162ac8261626b565b600782019050919050565b60006162c282616003565b91506162cd8261604f565b91506162d98289616072565b91506162e4826160cc565b91506162ef82616118565b91506162fb8288616072565b9150616306826160cc565b915061631182616164565b915061631d8287616072565b9150616328826160cc565b9150616333826161b0565b915061633f8286616072565b915061634a826160cc565b9150616355826161fc565b915061636082616248565b915061636c8285616072565b9150616377826160cc565b915061638282616294565b915061638e8284616072565b9150819050979650505050505050565b7f43616e6e6f7420726567697374657220647572696e6720766f74696e6720706560008201527f72696f642e000000000000000000000000000000000000000000000000000000602082015250565b60006163fa602583614e5d565b91506164058261639e565b604082019050919050565b60006020820190508181036000830152616429816163ed565b9050919050565b600061643c8284616072565b915081905092915050565b7f566f74657220616c726561647920657869737473210000000000000000000000600082015250565b600061647d601583614e5d565b915061648882616447565b602082019050919050565b600060208201905081810360008301526164ac81616470565b9050919050565b7f4163636f756e7420616c7265616479207265676973746572656420617320766f60008201527f7465720000000000000000000000000000000000000000000000000000000000602082015250565b600061650f602383614e5d565b915061651a826164b3565b604082019050919050565b6000602082019050818103600083015261653e81616502565b9050919050565b60008190508160005260206000209050919050565b60006020601f8301049050919050565b600082821b905092915050565b6000600883026165a77fffffffffffffffffffffffffffffffffffffffffffffffffffffffffffffffff8261656a565b6165b1868361656a565b95508019841693508086168417925050509392505050565b6000819050919050565b60006165ee6165e96165e484614cc0565b6165c9565b614cc0565b9050919050565b6000819050919050565b616608836165d3565b61661c616614826165f5565b848454616577565b825550505050565b600090565b616631616624565b61663c8184846165ff565b505050565b5b8181101561666057616655600082616629565b600181019050616642565b5050565b601f8211156166a55761667681616545565b61667f8461655a565b8101602085101561668e578190505b6166a261669a8561655a565b830182616641565b50505b505050565b600082821c905092915050565b60006166c8600019846008026166aa565b1980831691505092915050565b60006166e183836166b7565b9150826002028217905092915050565b6166fa82614c30565b67ffffffffffffffff811115616713576167126151b3565b5b61671d8254615c6b565b616728828285616664565b600060209050601f83116001811461675b5760008415616749578287015190505b61675385826166d5565b8655506167bb565b601f19841661676986616545565b60005b828110156167915784890151825560018201915060208501945060208101905061676c565b868310156167ae57848901516167aa601f8916826166b7565b8355505b6001600288020188555050505b505050505050565b7f43616e64696461746520616c7265616479207665726966696564210000000000600082015250565b60006167f9601b83614e5d565b9150616804826167c3565b602082019050919050565b60006020820190508181036000830152616828816167ec565b9050919050565b7f4e487b7100000000000000000000000000000000000000000000000000000000600052603260045260246000fd5b6000815461686b81615c6b565b6168758186615fcf565b9450600182166000811461689057600181146168a5576168d8565b60ff19831686528115158202860193506168d8565b6168ae85616545565b60005b838110156168d0578154818901526001820191506020810190506168b1565b838801955050505b50505092915050565b60006168ed828461685e565b915081905092915050565b7f526567697374726174696f6e20706572696f64206973207374696c6c2061637460008201527f6976652e00000000000000000000000000000000000000000000000000000000602082015250565b6000616954602483614e5d565b915061695f826168f8565b604082019050919050565b6000602082019050818103600083015261698381616947565b9050919050565b7f566f74696e6720686173206e6f742073746172746564207965742e0000000000600082015250565b60006169c0601b83614e5d565b91506169cb8261698a565b602082019050919050565b600060208201905081810360008301526169ef816169b3565b9050919050565b7f496e76616c696420706f736974696f6e2e000000000000000000000000000000600082015250565b6000616a2c601183614e5d565b9150616a37826169f6565b602082019050919050565b60006020820190508181036000830152616a5b81616a1f565b9050919050565b7f496e76616c69642063616e64696461746520696e6465782e0000000000000000600082015250565b6000616a98601883614e5d565b9150616aa382616a62565b602082019050919050565b60006020820190508181036000830152616ac781616a8b565b9050919050565b7f596f75206861766520616c726561647920766f74656420666f7220746869732060008201527f706f736974696f6e2e0000000000000000000000000000000000000000000000602082015250565b6000616b2a602983614e5d565b9150616b3582616ace565b604082019050919050565b60006020820190508181036000830152616b5981616b1d565b9050919050565b60008154616b6d81615c6b565b616b778186614e5d565b94506001821660008114616b925760018114616ba857616bdb565b60ff198316865281151560200286019350616bdb565b616bb185616545565b60005b83811015616bd357815481890152600182019150602081019050616bb4565b808801955050505b50505092915050565b60006060820190508181036000830152616bfe8186616b60565b90508181036020830152616c128185614e6e565b9050616c216040830184614fd1565b949350505050565b7f506f736974696f6e20616c726561647920657869737473210000000000000000600082015250565b6000616c5f601883614e5d565b9150616c6a82616c29565b602082019050919050565b60006020820190508181036000830152616c8e81616c52565b9050919050565b600081549050616ca481615c6b565b9050919050565b818103616cb9575050616d91565b616cc282616c95565b67ffffffffffffffff811115616cdb57616cda6151b3565b5b616ce58254615c6b565b616cf0828285616664565b6000601f831160018114616d1f5760008415616d0d578287015490505b616d1785826166d5565b865550616d8a565b601f198416616d2d87616545565b9650616d3886616545565b60005b82811015616d6057848901548255600182019150600185019450602081019050616d3b565b86831015616d7d5784890154616d79601f8916826166b7565b8355505b6001600288020188555050505b5050505050505b565b7f43616e64696461746520646f6573206e6f742065786973742100000000000000600082015250565b6000616dc9601983614e5d565b9150616dd482616d93565b602082019050919050565b60006020820190508181036000830152616df881616dbc565b9050919050565b6000616e0a82614cc0565b9150616e1583614cc0565b9250828203905081811115616e2d57616e2c615f2a565b5b92915050565b7f4e487b7100000000000000000000000000000000000000000000000000000000600052603160045260246000fd5b7f43616e64696461746520616c7265616479206578697374732100000000000000600082015250565b6000616e98601983614e5d565b9150616ea382616e62565b602082019050919050565b60006020820190508181036000830152616ec781616e8b565b9050919050565b7f596f75206d7573742062652061207265676973746572656420766f7465722100600082015250565b6000616f04601f83614e5d565b9150616f0f82616ece565b602082019050919050565b60006020820190508181036000830152616f3381616ef7565b9050919050565b7f506f736974696f6e20646f6573206e6f74206578697374210000000000000000600082015250565b6000616f70601883614e5d565b9150616f7b82616f3a565b602082019050919050565b60006020820190508181036000830152616f9f81616f63565b9050919050565b6000606082019050616fbb6000830186614fd1565b8181036020830152616fcd8185614e6e565b90508181036040830152616fe18184614e6e565b9050949350505050565b7f566f74696e6720686173206e6f7420737461727465642e000000000000000000600082015250565b6000617021601783614e5d565b915061702c82616feb565b602082019050919050565b6000602082019050818103600083015261705081617014565b9050919050565b7f566f74696e6720706572696f6420686173206e6f7420656e6465642e00000000600082015250565b600061708d601c83614e5d565b915061709882617057565b602082019050919050565b600060208201905081810360008301526170bc81617080565b9050919050565b7f19457468657265756d205369676e6564204d6573736167653a0a333200000000600082015250565b60006170f9601c83615fcf565b9150617104826170c3565b601c82019050919050565b6000819050919050565b61712a6171258261559d565b61710f565b82525050565b600061713b826170ec565b91506171478284617119565b60208201915081905092915050565b600060608201905061716b60008301866156e5565b6171786020830185614fd1565b6171856040830184614fd1565b949350505050565b600061719882614cc0565b9150600082036171ab576171aa615f2a565b5b600182039050919050565b60006040820190506171cb6000830185614fd1565b6171d86020830184614fd1565b9392505050565b7f4e487b7100000000000000000000000000000000000000000000000000000000600052601260045260246000fd5b7f546f6b656e206c696d6974206578636565646564210000000000000000000000600082015250565b6000617244601583614e5d565b915061724f8261720e565b602082019050919050565b6000602082019050818103600083015261727381617237565b9050919050565b600060408201905061728f60008301856156e5565b61729c6020830184614fd1565b9392505050565b7f4e487b7100000000000000000000000000000000000000000000000000000000600052602160045260246000fd5b60006080820190506172e760008301876155a7565b6172f46020830186615412565b61730160408301856155a7565b61730e60608301846155a7565b9594505050505056fea2646970667358221220082550645a00e1f329608a01babb6475446999e8bd38aac5d81173ec931dd3a364736f6c634300081b0033",
  "linkReferences": {},
  "deployedLinkReferences": {}
}