{
  "_format": "hh-sol-artifact-1",
  "contractName": "Voting",
  "sourceName": "contracts/Voting.sol",
  "abi": [
    {
      "inputs": [],
      "stateMutability": "nonpayable",
      "type": "constructor"
    },
    {
      "inputs": [],
      "name": "ECDSAInvalidSignature",
      "type": "error"
    },
    {
      "inputs": [
        {
          "internalType": "uint256",
          "name": "length",
          "type": "uint256"
        }
      ],
      "name": "ECDSAInvalidSignatureLength",
      "type": "error"
    },
    {
      "inputs": [
        {
          "internalType": "bytes32",
          "name": "s",
          "type": "bytes32"
        }
      ],
      "name": "ECDSAInvalidSignatureS",
      "type": "error"
    },
    {
      "inputs": [
        {
          "internalType": "address",
          "name": "spender",
          "type": "address"
        },
        {
          "internalType": "uint256",
          "name": "allowance",
          "type": "uint256"
        },
        {
          "internalType": "uint256",
          "name": "needed",
          "type": "uint256"
        }
      ],
      "name": "ERC20InsufficientAllowance",
      "type": "error"
    },
    {
      "inputs": [
        {
          "internalType": "address",
          "name": "sender",
          "type": "address"
        },
        {
          "internalType": "uint256",
          "name": "balance",
          "type": "uint256"
        },
        {
          "internalType": "uint256",
          "name": "needed",
          "type": "uint256"
        }
      ],
      "name": "ERC20InsufficientBalance",
      "type": "error"
    },
    {
      "inputs": [
        {
          "internalType": "address",
          "name": "approver",
          "type": "address"
        }
      ],
      "name": "ERC20InvalidApprover",
      "type": "error"
    },
    {
      "inputs": [
        {
          "internalType": "address",
          "name": "receiver",
          "type": "address"
        }
      ],
      "name": "ERC20InvalidReceiver",
      "type": "error"
    },
    {
      "inputs": [
        {
          "internalType": "address",
          "name": "sender",
          "type": "address"
        }
      ],
      "name": "ERC20InvalidSender",
      "type": "error"
    },
    {
      "inputs": [
        {
          "internalType": "address",
          "name": "spender",
          "type": "address"
        }
      ],
      "name": "ERC20InvalidSpender",
      "type": "error"
    },
    {
      "inputs": [
        {
          "internalType": "uint256",
          "name": "value",
          "type": "uint256"
        },
        {
          "internalType": "uint256",
          "name": "length",
          "type": "uint256"
        }
      ],
      "name": "StringsInsufficientHexLength",
      "type": "error"
    },
    {
      "anonymous": false,
      "inputs": [
        {
          "indexed": true,
          "internalType": "address",
          "name": "owner",
          "type": "address"
        },
        {
          "indexed": true,
          "internalType": "address",
          "name": "spender",
          "type": "address"
        },
        {
          "indexed": false,
          "internalType": "uint256",
          "name": "value",
          "type": "uint256"
        }
      ],
      "name": "Approval",
      "type": "event"
    },
    {
      "anonymous": false,
      "inputs": [
        {
          "indexed": true,
          "internalType": "string",
          "name": "_names",
          "type": "string"
        },
        {
          "indexed": false,
          "internalType": "uint256",
          "name": "_age",
          "type": "uint256"
        },
        {
          "indexed": true,
          "internalType": "string",
          "name": "_idNumber",
          "type": "string"
        },
        {
          "indexed": false,
          "internalType": "string",
          "name": "_party",
          "type": "string"
        },
        {
          "indexed": false,
          "internalType": "string",
          "name": "_position",
          "type": "string"
        }
      ],
      "name": "CandidateRegistrationSuccess",
      "type": "event"
    },
    {
      "anonymous": false,
      "inputs": [
        {
          "indexed": false,
          "internalType": "address",
          "name": "_to",
          "type": "address"
        },
        {
          "indexed": false,
          "internalType": "uint256",
          "name": "_amount",
          "type": "uint256"
        }
      ],
      "name": "MintSuccess",
      "type": "event"
    },
    {
      "anonymous": false,
      "inputs": [
        {
          "indexed": false,
          "internalType": "string",
          "name": "positionName",
          "type": "string"
        }
      ],
      "name": "PositionAdded",
      "type": "event"
    },
    {
      "anonymous": false,
      "inputs": [],
      "name": "RegistrationEnded",
      "type": "event"
    },
    {
      "anonymous": false,
      "inputs": [],
      "name": "RegistrationStarted",
      "type": "event"
    },
    {
      "anonymous": false,
      "inputs": [
        {
          "indexed": true,
          "internalType": "string",
          "name": "_idNumber",
          "type": "string"
        }
      ],
      "name": "RejectCandidateSuccess",
      "type": "event"
    },
    {
      "anonymous": false,
      "inputs": [
        {
          "indexed": true,
          "internalType": "address",
          "name": "from",
          "type": "address"
        },
        {
          "indexed": true,
          "internalType": "address",
          "name": "to",
          "type": "address"
        },
        {
          "indexed": false,
          "internalType": "uint256",
          "name": "value",
          "type": "uint256"
        }
      ],
      "name": "Transfer",
      "type": "event"
    },
    {
      "anonymous": false,
      "inputs": [
        {
          "indexed": true,
          "internalType": "string",
          "name": "_names",
          "type": "string"
        },
        {
          "indexed": true,
          "internalType": "string",
          "name": "_idNumber",
          "type": "string"
        }
      ],
      "name": "VerifyCandidateSuccess",
      "type": "event"
    },
    {
      "anonymous": false,
      "inputs": [
        {
          "indexed": true,
          "internalType": "address",
          "name": "voter",
          "type": "address"
        },
        {
          "indexed": false,
          "internalType": "string",
          "name": "_idNumber",
          "type": "string"
        },
        {
          "indexed": false,
          "internalType": "string",
          "name": "position",
          "type": "string"
        },
        {
          "indexed": false,
          "internalType": "uint256",
          "name": "candidateIndex",
          "type": "uint256"
        }
      ],
      "name": "VotedSuccess",
      "type": "event"
    },
    {
      "anonymous": false,
      "inputs": [
        {
          "indexed": true,
          "internalType": "string",
          "name": "_names",
          "type": "string"
        },
        {
          "indexed": false,
          "internalType": "uint256",
          "name": "_age",
          "type": "uint256"
        },
        {
          "indexed": true,
          "internalType": "string",
          "name": "_idNumber",
          "type": "string"
        }
      ],
      "name": "VoterRegistrationSuccess",
      "type": "event"
    },
    {
      "anonymous": false,
      "inputs": [],
      "name": "VotingStarted",
      "type": "event"
    },
    {
      "inputs": [],
      "name": "MAX_SUPPLY",
      "outputs": [
        {
          "internalType": "uint256",
          "name": "",
          "type": "uint256"
        }
      ],
      "stateMutability": "view",
      "type": "function"
    },
    {
      "inputs": [],
      "name": "REGISTER_AS_VOTER",
      "outputs": [
        {
          "internalType": "uint256",
          "name": "",
          "type": "uint256"
        }
      ],
      "stateMutability": "view",
      "type": "function"
    },
    {
      "inputs": [],
      "name": "VERIFY_CANDIDATE",
      "outputs": [
        {
          "internalType": "uint256",
          "name": "",
          "type": "uint256"
        }
      ],
      "stateMutability": "view",
      "type": "function"
    },
    {
      "inputs": [
        {
          "internalType": "string[]",
          "name": "_pNames",
          "type": "string[]"
        }
      ],
      "name": "addPositions",
      "outputs": [],
      "stateMutability": "nonpayable",
      "type": "function"
    },
    {
      "inputs": [
        {
          "internalType": "address",
          "name": "owner",
          "type": "address"
        },
        {
          "internalType": "address",
          "name": "spender",
          "type": "address"
        }
      ],
      "name": "allowance",
      "outputs": [
        {
          "internalType": "uint256",
          "name": "",
          "type": "uint256"
        }
      ],
      "stateMutability": "view",
      "type": "function"
    },
    {
      "inputs": [
        {
          "internalType": "address",
          "name": "spender",
          "type": "address"
        },
        {
          "internalType": "uint256",
          "name": "value",
          "type": "uint256"
        }
      ],
      "name": "approve",
      "outputs": [
        {
          "internalType": "bool",
          "name": "",
          "type": "bool"
        }
      ],
      "stateMutability": "nonpayable",
      "type": "function"
    },
    {
      "inputs": [
        {
          "internalType": "address",
          "name": "account",
          "type": "address"
        }
      ],
      "name": "balanceOf",
      "outputs": [
        {
          "internalType": "uint256",
          "name": "",
          "type": "uint256"
        }
      ],
      "stateMutability": "view",
      "type": "function"
    },
    {
      "inputs": [
        {
          "internalType": "string",
          "name": "",
          "type": "string"
        }
      ],
      "name": "candidateObject",
      "outputs": [
        {
          "internalType": "string",
          "name": "names",
          "type": "string"
        },
        {
          "internalType": "uint256",
          "name": "age",
          "type": "uint256"
        },
        {
          "internalType": "string",
          "name": "idNumber",
          "type": "string"
        },
        {
          "internalType": "string",
          "name": "party",
          "type": "string"
        },
        {
          "internalType": "uint256",
          "name": "votes",
          "type": "uint256"
        },
        {
          "internalType": "bool",
          "name": "verified",
          "type": "bool"
        },
        {
          "internalType": "string",
          "name": "position",
          "type": "string"
        }
      ],
      "stateMutability": "view",
      "type": "function"
    },
    {
      "inputs": [
        {
          "internalType": "address",
          "name": "userAddress",
          "type": "address"
        },
        {
          "internalType": "string",
          "name": "domain",
          "type": "string"
        },
        {
          "internalType": "string",
          "name": "statement",
          "type": "string"
        },
        {
          "internalType": "string",
          "name": "uri",
          "type": "string"
        },
        {
          "internalType": "uint256",
          "name": "chainId",
          "type": "uint256"
        },
        {
          "internalType": "uint256",
          "name": "nonce",
          "type": "uint256"
        }
      ],
      "name": "createMessageHash",
      "outputs": [
        {
          "internalType": "bytes32",
          "name": "",
          "type": "bytes32"
        }
      ],
      "stateMutability": "pure",
      "type": "function"
    },
    {
      "inputs": [],
      "name": "decimals",
      "outputs": [
        {
          "internalType": "uint8",
          "name": "",
          "type": "uint8"
        }
      ],
      "stateMutability": "view",
      "type": "function"
    },
    {
      "inputs": [],
      "name": "endRegistrationAndStartVoting",
      "outputs": [],
      "stateMutability": "nonpayable",
      "type": "function"
    },
    {
      "inputs": [],
      "name": "getAllPositions",
      "outputs": [
        {
          "components": [
            {
              "internalType": "string",
              "name": "pName",
              "type": "string"
            },
            {
              "components": [
                {
                  "internalType": "string",
                  "name": "names",
                  "type": "string"
                },
                {
                  "internalType": "uint256",
                  "name": "age",
                  "type": "uint256"
                },
                {
                  "internalType": "string",
                  "name": "idNumber",
                  "type": "string"
                },
                {
                  "internalType": "string",
                  "name": "party",
                  "type": "string"
                },
                {
                  "internalType": "uint256",
                  "name": "votes",
                  "type": "uint256"
                },
                {
                  "internalType": "bool",
                  "name": "verified",
                  "type": "bool"
                },
                {
                  "internalType": "string",
                  "name": "position",
                  "type": "string"
                }
              ],
              "internalType": "struct Voting.Candidate[]",
              "name": "candidates",
              "type": "tuple[]"
            }
          ],
          "internalType": "struct Voting.Position[]",
          "name": "",
          "type": "tuple[]"
        }
      ],
      "stateMutability": "view",
      "type": "function"
    },
    {
      "inputs": [],
      "name": "getCandidates",
      "outputs": [
        {
          "components": [
            {
              "internalType": "string",
              "name": "names",
              "type": "string"
            },
            {
              "internalType": "uint256",
              "name": "age",
              "type": "uint256"
            },
            {
              "internalType": "string",
              "name": "idNumber",
              "type": "string"
            },
            {
              "internalType": "string",
              "name": "party",
              "type": "string"
            },
            {
              "internalType": "uint256",
              "name": "votes",
              "type": "uint256"
            },
            {
              "internalType": "bool",
              "name": "verified",
              "type": "bool"
            },
            {
              "internalType": "string",
              "name": "position",
              "type": "string"
            }
          ],
          "internalType": "struct Voting.Candidate[]",
          "name": "",
          "type": "tuple[]"
        }
      ],
      "stateMutability": "view",
      "type": "function"
    },
    {
      "inputs": [],
      "name": "getPositionCount",
      "outputs": [
        {
          "internalType": "uint256",
          "name": "",
          "type": "uint256"
        }
      ],
      "stateMutability": "view",
      "type": "function"
    },
    {
      "inputs": [],
      "name": "getVoters",
      "outputs": [
        {
          "components": [
            {
              "internalType": "string",
              "name": "names",
              "type": "string"
            },
            {
              "internalType": "uint256",
              "name": "age",
              "type": "uint256"
            },
            {
              "internalType": "string",
              "name": "idNumber",
              "type": "string"
            },
            {
              "internalType": "bool",
              "name": "voted",
              "type": "bool"
            }
          ],
          "internalType": "struct Voting.Voter[]",
          "name": "",
          "type": "tuple[]"
        }
      ],
      "stateMutability": "view",
      "type": "function"
    },
    {
      "inputs": [
        {
          "internalType": "address",
          "name": "_account",
          "type": "address"
        }
      ],
      "name": "isVoterRegistered",
      "outputs": [
        {
          "internalType": "bool",
          "name": "",
          "type": "bool"
        }
      ],
      "stateMutability": "view",
      "type": "function"
    },
    {
      "inputs": [
        {
          "internalType": "uint256",
          "name": "",
          "type": "uint256"
        }
      ],
      "name": "listOfCandidates",
      "outputs": [
        {
          "internalType": "string",
          "name": "names",
          "type": "string"
        },
        {
          "internalType": "uint256",
          "name": "age",
          "type": "uint256"
        },
        {
          "internalType": "string",
          "name": "idNumber",
          "type": "string"
        },
        {
          "internalType": "string",
          "name": "party",
          "type": "string"
        },
        {
          "internalType": "uint256",
          "name": "votes",
          "type": "uint256"
        },
        {
          "internalType": "bool",
          "name": "verified",
          "type": "bool"
        },
        {
          "internalType": "string",
          "name": "position",
          "type": "string"
        }
      ],
      "stateMutability": "view",
      "type": "function"
    },
    {
      "inputs": [
        {
          "internalType": "uint256",
          "name": "",
          "type": "uint256"
        }
      ],
      "name": "listOfPositions",
      "outputs": [
        {
          "internalType": "string",
          "name": "pName",
          "type": "string"
        }
      ],
      "stateMutability": "view",
      "type": "function"
    },
    {
      "inputs": [
        {
          "internalType": "uint256",
          "name": "",
          "type": "uint256"
        }
      ],
      "name": "listOfVoters",
      "outputs": [
        {
          "internalType": "string",
          "name": "names",
          "type": "string"
        },
        {
          "internalType": "uint256",
          "name": "age",
          "type": "uint256"
        },
        {
          "internalType": "string",
          "name": "idNumber",
          "type": "string"
        },
        {
          "internalType": "bool",
          "name": "voted",
          "type": "bool"
        }
      ],
      "stateMutability": "view",
      "type": "function"
    },
    {
      "inputs": [],
      "name": "name",
      "outputs": [
        {
          "internalType": "string",
          "name": "",
          "type": "string"
        }
      ],
      "stateMutability": "view",
      "type": "function"
    },
    {
      "inputs": [],
      "name": "owner",
      "outputs": [
        {
          "internalType": "address",
          "name": "",
          "type": "address"
        }
      ],
      "stateMutability": "view",
      "type": "function"
    },
    {
      "inputs": [
        {
          "internalType": "string",
          "name": "",
          "type": "string"
        }
      ],
      "name": "positions",
      "outputs": [
        {
          "internalType": "string",
          "name": "pName",
          "type": "string"
        }
      ],
      "stateMutability": "view",
      "type": "function"
    },
    {
      "inputs": [
        {
          "internalType": "string",
          "name": "_names",
          "type": "string"
        },
        {
          "internalType": "uint256",
          "name": "_age",
          "type": "uint256"
        },
        {
          "internalType": "string",
          "name": "_idNumber",
          "type": "string"
        },
        {
          "internalType": "string",
          "name": "_party",
          "type": "string"
        },
        {
          "internalType": "string",
          "name": "_position",
          "type": "string"
        }
      ],
      "name": "registerCandidate",
      "outputs": [],
      "stateMutability": "nonpayable",
      "type": "function"
    },
    {
      "inputs": [
        {
          "internalType": "string",
          "name": "_names",
          "type": "string"
        },
        {
          "internalType": "uint256",
          "name": "_age",
          "type": "uint256"
        },
        {
          "internalType": "string",
          "name": "_idNumber",
          "type": "string"
        }
      ],
      "name": "registerVoter",
      "outputs": [
        {
          "internalType": "bool",
          "name": "",
          "type": "bool"
        }
      ],
      "stateMutability": "nonpayable",
      "type": "function"
    },
    {
      "inputs": [],
      "name": "registrationStarted",
      "outputs": [
        {
          "internalType": "bool",
          "name": "",
          "type": "bool"
        }
      ],
      "stateMutability": "view",
      "type": "function"
    },
    {
      "inputs": [
        {
          "internalType": "string",
          "name": "_idNumber",
          "type": "string"
        }
      ],
      "name": "rejectCandidate",
      "outputs": [],
      "stateMutability": "nonpayable",
      "type": "function"
    },
    {
      "inputs": [],
      "name": "startRegistration",
      "outputs": [],
      "stateMutability": "nonpayable",
      "type": "function"
    },
    {
      "inputs": [],
      "name": "symbol",
      "outputs": [
        {
          "internalType": "string",
          "name": "",
          "type": "string"
        }
      ],
      "stateMutability": "view",
      "type": "function"
    },
    {
      "inputs": [],
      "name": "totalSupply",
      "outputs": [
        {
          "internalType": "uint256",
          "name": "",
          "type": "uint256"
        }
      ],
      "stateMutability": "view",
      "type": "function"
    },
    {
      "inputs": [
        {
          "internalType": "address",
          "name": "to",
          "type": "address"
        },
        {
          "internalType": "uint256",
          "name": "value",
          "type": "uint256"
        }
      ],
      "name": "transfer",
      "outputs": [
        {
          "internalType": "bool",
          "name": "",
          "type": "bool"
        }
      ],
      "stateMutability": "nonpayable",
      "type": "function"
    },
    {
      "inputs": [
        {
          "internalType": "address",
          "name": "from",
          "type": "address"
        },
        {
          "internalType": "address",
          "name": "to",
          "type": "address"
        },
        {
          "internalType": "uint256",
          "name": "value",
          "type": "uint256"
        }
      ],
      "name": "transferFrom",
      "outputs": [
        {
          "internalType": "bool",
          "name": "",
          "type": "bool"
        }
      ],
      "stateMutability": "nonpayable",
      "type": "function"
    },
    {
      "inputs": [
        {
          "internalType": "string",
          "name": "_idNumber",
          "type": "string"
        }
      ],
      "name": "verifyCandidate",
      "outputs": [],
      "stateMutability": "nonpayable",
      "type": "function"
    },
    {
      "inputs": [
        {
          "internalType": "bytes32",
          "name": "hash",
          "type": "bytes32"
        },
        {
          "internalType": "bytes",
          "name": "signature",
          "type": "bytes"
        }
      ],
      "name": "verifySignature",
      "outputs": [
        {
          "internalType": "bool",
          "name": "",
          "type": "bool"
        }
      ],
      "stateMutability": "view",
      "type": "function"
    },
    {
      "inputs": [
        {
          "internalType": "string",
          "name": "position",
          "type": "string"
        },
        {
          "internalType": "uint256",
          "name": "candidateIndex",
          "type": "uint256"
        }
      ],
      "name": "vote",
      "outputs": [],
      "stateMutability": "nonpayable",
      "type": "function"
    },
    {
      "inputs": [
        {
          "internalType": "string",
          "name": "",
          "type": "string"
        }
      ],
      "name": "voterObject",
      "outputs": [
        {
          "internalType": "string",
          "name": "names",
          "type": "string"
        },
        {
          "internalType": "uint256",
          "name": "age",
          "type": "uint256"
        },
        {
          "internalType": "string",
          "name": "idNumber",
          "type": "string"
        },
        {
          "internalType": "bool",
          "name": "voted",
          "type": "bool"
        }
      ],
      "stateMutability": "view",
      "type": "function"
    },
    {
      "inputs": [
        {
          "internalType": "address",
          "name": "",
          "type": "address"
        }
      ],
      "name": "voters",
      "outputs": [
        {
          "internalType": "string",
          "name": "names",
          "type": "string"
        },
        {
          "internalType": "uint256",
          "name": "age",
          "type": "uint256"
        },
        {
          "internalType": "string",
          "name": "idNumber",
          "type": "string"
        },
        {
          "internalType": "bool",
          "name": "voted",
          "type": "bool"
        }
      ],
      "stateMutability": "view",
      "type": "function"
    },
    {
      "inputs": [],
      "name": "votingStarted",
      "outputs": [
        {
          "internalType": "bool",
          "name": "",
          "type": "bool"
        }
      ],
      "stateMutability": "view",
      "type": "function"
    }
  ],
  "bytecode": "0x60806040526000600e60006101000a81548160ff0219169083151502179055506000600e60016101000a81548160ff02191690831515021790555034801561004657600080fd5b506040518060400160405280600581526020017f566f7465780000000000000000000000000000000000000000000000000000008152506040518060400160405280600481526020017f56544b4e0000000000000000000000000000000000000000000000000000000081525081600390816100c2919061036b565b5080600490816100d2919061036b565b50505033600560006101000a81548173ffffffffffffffffffffffffffffffffffffffff021916908373ffffffffffffffffffffffffffffffffffffffff16021790555061043d565b600081519050919050565b7f4e487b7100000000000000000000000000000000000000000000000000000000600052604160045260246000fd5b7f4e487b7100000000000000000000000000000000000000000000000000000000600052602260045260246000fd5b6000600282049050600182168061019c57607f821691505b6020821081036101af576101ae610155565b5b50919050565b60008190508160005260206000209050919050565b60006020601f8301049050919050565b600082821b905092915050565b6000600883026102177fffffffffffffffffffffffffffffffffffffffffffffffffffffffffffffffff826101da565b61022186836101da565b95508019841693508086168417925050509392505050565b6000819050919050565b6000819050919050565b600061026861026361025e84610239565b610243565b610239565b9050919050565b6000819050919050565b6102828361024d565b61029661028e8261026f565b8484546101e7565b825550505050565b600090565b6102ab61029e565b6102b6818484610279565b505050565b5b818110156102da576102cf6000826102a3565b6001810190506102bc565b5050565b601f82111561031f576102f0816101b5565b6102f9846101ca565b81016020851015610308578190505b61031c610314856101ca565b8301826102bb565b50505b505050565b600082821c905092915050565b600061034260001984600802610324565b1980831691505092915050565b600061035b8383610331565b9150826002028217905092915050565b6103748261011b565b67ffffffffffffffff81111561038d5761038c610126565b5b6103978254610184565b6103a28282856102de565b600060209050601f8311600181146103d557600084156103c3578287015190505b6103cd858261034f565b865550610435565b601f1984166103e3866101b5565b60005b8281101561040b578489015182556001820191506020850194506020810190506103e6565b868310156104285784890151610424601f891682610331565b8355505b6001600288020188555050505b505050505050565b616a928061044c6000396000f3fe608060405234801561001057600080fd5b50600436106102275760003560e01c80638168347611610130578063a9059cbb116100b8578063cdd722531161007c578063cdd72253146106b9578063daca6f78146106d7578063dd62ed3e14610707578063eb2119db14610737578063ffdd74961461076757610227565b8063a9059cbb14610617578063abceaad214610647578063b034d2b314610663578063b80a398a1461067f578063be94ced71461069b57610227565b806395d89b41116100ff57806395d89b411461055b5780639a53cbea146105795780639dfa9065146105ac578063a3ec138d146105c8578063a6385803146105fb57610227565b806381683476146104cb57806383d948b7146104e95780638da5cb5b1461050757806392d7df4a1461052557610227565b8063313ce567116101b35780635fbcc155116101825780635fbcc155146103db5780636636b91e1461040b578063676f86b01461043b57806370a082311461046b57806371a6f4651461049b57610227565b8063313ce5671461036257806332cb6b0c146103805780634a66e1ab1461039e57806355d5d611146103d157610227565b806318160ddd116101fa57806318160ddd146102a257806318f56a0a146102c05780631c64a33e146102de57806323b872dd1461031457806327aed42e1461034457610227565b806306a49fce1461022c57806306fdde031461024a578063095ea7b31461026857806310b8669514610298575b600080fd5b610234610785565b6040516102419190614746565b60405180910390f35b610252610a5b565b60405161025f91906147b2565b60405180910390f35b610282600480360381019061027d9190614872565b610aed565b60405161028f91906148c1565b60405180910390f35b6102a0610b10565b005b6102aa610c89565b6040516102b791906148eb565b60405180910390f35b6102c8610c93565b6040516102d59190614a92565b60405180910390f35b6102f860048036038101906102f39190614be9565b61105a565b60405161030b9796959493929190614c32565b60405180910390f35b61032e60048036038101906103299190614cbd565b6112df565b60405161033b91906148c1565b60405180910390f35b61034c61130e565b60405161035991906148c1565b60405180910390f35b61036a611321565b6040516103779190614d2c565b60405180910390f35b61038861132a565b60405161039591906148eb565b60405180910390f35b6103b860048036038101906103b39190614be9565b611338565b6040516103c89493929190614d47565b60405180910390f35b6103d961149b565b005b6103f560048036038101906103f09190614d9a565b61165a565b6040516104029190614e94565b60405180910390f35b61042560048036038101906104209190614eaf565b6116c9565b60405161043291906148c1565b60405180910390f35b61045560048036038101906104509190614be9565b611a9e565b60405161046291906147b2565b60405180910390f35b61048560048036038101906104809190614f3a565b611b5a565b60405161049291906148eb565b60405180910390f35b6104b560048036038101906104b09190614f67565b611ba2565b6040516104c291906147b2565b60405180910390f35b6104d3611c58565b6040516104e091906148eb565b60405180910390f35b6104f1611c65565b6040516104fe91906148c1565b60405180910390f35b61050f611c78565b60405161051c9190614fa3565b60405180910390f35b61053f600480360381019061053a9190614f67565b611c9e565b6040516105529796959493929190614c32565b60405180910390f35b610563611f1d565b60405161057091906147b2565b60405180910390f35b610593600480360381019061058e9190614f67565b611faf565b6040516105a39493929190614d47565b60405180910390f35b6105c660048036038101906105c19190614be9565b61210c565b005b6105e260048036038101906105dd9190614f3a565b6123ab565b6040516105f29493929190614d47565b60405180910390f35b61061560048036038101906106109190614fbe565b6124f8565b005b610631600480360381019061062c9190614872565b6127cc565b60405161063e91906148c1565b60405180910390f35b610661600480360381019061065c9190615100565b6127ef565b005b61067d60048036038101906106789190614be9565b612a87565b005b61069960048036038101906106949190615149565b612e8f565b005b6106a3613220565b6040516106b091906148eb565b60405180910390f35b6106c161322c565b6040516106ce9190615360565b60405180910390f35b6106f160048036038101906106ec919061544f565b6133d4565b6040516106fe91906148c1565b60405180910390f35b610721600480360381019061071c91906154ab565b613447565b60405161072e91906148eb565b60405180910390f35b610751600480360381019061074c9190614f3a565b6134ce565b60405161075e91906148c1565b60405180910390f35b61076f613529565b60405161077c91906148eb565b60405180910390f35b60606007805480602002602001604051908101604052809291908181526020016000905b82821015610a5257838290600052602060002090600702016040518060e00160405290816000820180546107dc9061551a565b80601f01602080910402602001604051908101604052809291908181526020018280546108089061551a565b80156108555780601f1061082a57610100808354040283529160200191610855565b820191906000526020600020905b81548152906001019060200180831161083857829003601f168201915b50505050508152602001600182015481526020016002820180546108789061551a565b80601f01602080910402602001604051908101604052809291908181526020018280546108a49061551a565b80156108f15780601f106108c6576101008083540402835291602001916108f1565b820191906000526020600020905b8154815290600101906020018083116108d457829003601f168201915b5050505050815260200160038201805461090a9061551a565b80601f01602080910402602001604051908101604052809291908181526020018280546109369061551a565b80156109835780601f1061095857610100808354040283529160200191610983565b820191906000526020600020905b81548152906001019060200180831161096657829003601f168201915b50505050508152602001600482015481526020016005820160009054906101000a900460ff161515151581526020016006820180546109c19061551a565b80601f01602080910402602001604051908101604052809291908181526020018280546109ed9061551a565b8015610a3a5780601f10610a0f57610100808354040283529160200191610a3a565b820191906000526020600020905b815481529060010190602001808311610a1d57829003601f168201915b505050505081525050815260200190600101906107a9565b50505050905090565b606060038054610a6a9061551a565b80601f0160208091040260200160405190810160405280929190818152602001828054610a969061551a565b8015610ae35780601f10610ab857610100808354040283529160200191610ae3565b820191906000526020600020905b815481529060010190602001808311610ac657829003601f168201915b5050505050905090565b600080610af8613535565b9050610b0581858561353d565b600191505092915050565b600560009054906101000a900473ffffffffffffffffffffffffffffffffffffffff1673ffffffffffffffffffffffffffffffffffffffff163373ffffffffffffffffffffffffffffffffffffffff1614610ba0576040517f08c379a0000000000000000000000000000000000000000000000000000000008152600401610b9790615597565b60405180910390fd5b600e60009054906101000a900460ff1615610bf0576040517f08c379a0000000000000000000000000000000000000000000000000000000008152600401610be790615629565b60405180910390fd5b600e60019054906101000a900460ff1615610c40576040517f08c379a0000000000000000000000000000000000000000000000000000000008152600401610c37906156bb565b60405180910390fd5b6001600e60006101000a81548160ff0219169083151502179055507f82e6c84abd647d1b4fae9bee1859f2642e5443af0ff900d4af83a93c2bf4151260405160405180910390a1565b6000600254905090565b60606008805480602002602001604051908101604052809291908181526020016000905b828210156110515783829060005260206000209060020201604051806040016040529081600082018054610cea9061551a565b80601f0160208091040260200160405190810160405280929190818152602001828054610d169061551a565b8015610d635780601f10610d3857610100808354040283529160200191610d63565b820191906000526020600020905b815481529060010190602001808311610d4657829003601f168201915b5050505050815260200160018201805480602002602001604051908101604052809291908181526020016000905b8282101561103a57838290600052602060002090600702016040518060e0016040529081600082018054610dc49061551a565b80601f0160208091040260200160405190810160405280929190818152602001828054610df09061551a565b8015610e3d5780601f10610e1257610100808354040283529160200191610e3d565b820191906000526020600020905b815481529060010190602001808311610e2057829003601f168201915b5050505050815260200160018201548152602001600282018054610e609061551a565b80601f0160208091040260200160405190810160405280929190818152602001828054610e8c9061551a565b8015610ed95780601f10610eae57610100808354040283529160200191610ed9565b820191906000526020600020905b815481529060010190602001808311610ebc57829003601f168201915b50505050508152602001600382018054610ef29061551a565b80601f0160208091040260200160405190810160405280929190818152602001828054610f1e9061551a565b8015610f6b5780601f10610f4057610100808354040283529160200191610f6b565b820191906000526020600020905b815481529060010190602001808311610f4e57829003601f168201915b50505050508152602001600482015481526020016005820160009054906101000a900460ff16151515158152602001600682018054610fa99061551a565b80601f0160208091040260200160405190810160405280929190818152602001828054610fd59061551a565b80156110225780601f10610ff757610100808354040283529160200191611022565b820191906000526020600020905b81548152906001019060200180831161100557829003601f168201915b50505050508152505081526020019060010190610d91565b505050508152505081526020019060010190610cb7565b50505050905090565b600a818051602081018201805184825260208301602085012081835280955050505050506000915090508060000180546110939061551a565b80601f01602080910402602001604051908101604052809291908181526020018280546110bf9061551a565b801561110c5780601f106110e15761010080835404028352916020019161110c565b820191906000526020600020905b8154815290600101906020018083116110ef57829003601f168201915b5050505050908060010154908060020180546111279061551a565b80601f01602080910402602001604051908101604052809291908181526020018280546111539061551a565b80156111a05780601f10611175576101008083540402835291602001916111a0565b820191906000526020600020905b81548152906001019060200180831161118357829003601f168201915b5050505050908060030180546111b59061551a565b80601f01602080910402602001604051908101604052809291908181526020018280546111e19061551a565b801561122e5780601f106112035761010080835404028352916020019161122e565b820191906000526020600020905b81548152906001019060200180831161121157829003601f168201915b5050505050908060040154908060050160009054906101000a900460ff169080600601805461125c9061551a565b80601f01602080910402602001604051908101604052809291908181526020018280546112889061551a565b80156112d55780601f106112aa576101008083540402835291602001916112d5565b820191906000526020600020905b8154815290600101906020018083116112b857829003601f168201915b5050505050905087565b6000806112ea613535565b90506112f785828561354f565b6113028585856135e3565b60019150509392505050565b600e60009054906101000a900460ff1681565b60006012905090565b69d3c21bcecceda100000081565b6009818051602081018201805184825260208301602085012081835280955050505050506000915090508060000180546113719061551a565b80601f016020809104026020016040519081016040528092919081815260200182805461139d9061551a565b80156113ea5780601f106113bf576101008083540402835291602001916113ea565b820191906000526020600020905b8154815290600101906020018083116113cd57829003601f168201915b5050505050908060010154908060020180546114059061551a565b80601f01602080910402602001604051908101604052809291908181526020018280546114319061551a565b801561147e5780601f106114535761010080835404028352916020019161147e565b820191906000526020600020905b81548152906001019060200180831161146157829003601f168201915b5050505050908060030160009054906101000a900460ff16905084565b600560009054906101000a900473ffffffffffffffffffffffffffffffffffffffff1673ffffffffffffffffffffffffffffffffffffffff163373ffffffffffffffffffffffffffffffffffffffff161461152b576040517f08c379a000000000000000000000000000000000000000000000000000000000815260040161152290615597565b60405180910390fd5b600e60009054906101000a900460ff1661157a576040517f08c379a00000000000000000000000000000000000000000000000000000000081526004016115719061574d565b60405180910390fd5b600e60019054906101000a900460ff16156115ca576040517f08c379a00000000000000000000000000000000000000000000000000000000081526004016115c1906157b9565b60405180910390fd5b6000600e60006101000a81548160ff0219169083151502179055506001600e60016101000a81548160ff0219169083151502179055507f2ee88f50f05558e39b34a18214ff6a6adc091504772084c6ce7899354bec0aa460405160405180910390a17f877e2548498f42b7975a186b94ef1d32c86d420b7b806dd2be2bea293b89590460405160405180910390a1565b60008561167e8873ffffffffffffffffffffffffffffffffffffffff1660146136d7565b86866116898761391d565b6116928761391d565b6040516020016116a796959493929190615ac1565b6040516020818303038152906040528051906020012090509695505050505050565b6000600e60009054906101000a900460ff1661171a576040517f08c379a00000000000000000000000000000000000000000000000000000000081526004016117119061574d565b60405180910390fd5b600e60019054906101000a900460ff161561176a576040517f08c379a000000000000000000000000000000000000000000000000000000000815260040161176190615c1a565b60405180910390fd5b600060098360405161177c9190615c3a565b908152602001604051809103902060000180546117989061551a565b9050146117da576040517f08c379a00000000000000000000000000000000000000000000000000000000081526004016117d190615c9d565b60405180910390fd5b6000600c60003373ffffffffffffffffffffffffffffffffffffffff1673ffffffffffffffffffffffffffffffffffffffff168152602001908152602001600020600101541461185f576040517f08c379a000000000000000000000000000000000000000000000000000000000815260040161185690615d2f565b60405180910390fd5b60006040518060800160405280868152602001858152602001848152602001600015158152509050600681908060018154018082558091505060019003906000526020600020906004020160009091909190915060008201518160000190816118c89190615efb565b506020820151816001015560408201518160020190816118e89190615efb565b5060608201518160030160006101000a81548160ff02191690831515021790555050508060098460405161191c9190615c3a565b9081526020016040518091039020600082015181600001908161193f9190615efb565b5060208201518160010155604082015181600201908161195f9190615efb565b5060608201518160030160006101000a81548160ff02191690831515021790555090505080600c60003373ffffffffffffffffffffffffffffffffffffffff1673ffffffffffffffffffffffffffffffffffffffff16815260200190815260200160002060008201518160000190816119d89190615efb565b506020820151816001015560408201518160020190816119f89190615efb565b5060608201518160030160006101000a81548160ff021916908315150217905550905050611a2e33674563918244f400006139eb565b5082604051611a3d9190615c3a565b604051809103902085604051611a539190615c3a565b60405180910390207f754a5f7c9336f3562d73dacebf51de10da957ae9dfcae4fbfb93733ece3dd5aa86604051611a8a91906148eb565b60405180910390a360019150509392505050565b600b81805160208101820180518482526020830160208501208183528095505050505050600091509050806000018054611ad79061551a565b80601f0160208091040260200160405190810160405280929190818152602001828054611b039061551a565b8015611b505780601f10611b2557610100808354040283529160200191611b50565b820191906000526020600020905b815481529060010190602001808311611b3357829003601f168201915b5050505050905081565b60008060008373ffffffffffffffffffffffffffffffffffffffff1673ffffffffffffffffffffffffffffffffffffffff168152602001908152602001600020549050919050565b60088181548110611bb257600080fd5b9060005260206000209060020201600091509050806000018054611bd59061551a565b80601f0160208091040260200160405190810160405280929190818152602001828054611c019061551a565b8015611c4e5780601f10611c2357610100808354040283529160200191611c4e565b820191906000526020600020905b815481529060010190602001808311611c3157829003601f168201915b5050505050905081565b6000600880549050905090565b600e60019054906101000a900460ff1681565b600560009054906101000a900473ffffffffffffffffffffffffffffffffffffffff1681565b60078181548110611cae57600080fd5b9060005260206000209060070201600091509050806000018054611cd19061551a565b80601f0160208091040260200160405190810160405280929190818152602001828054611cfd9061551a565b8015611d4a5780601f10611d1f57610100808354040283529160200191611d4a565b820191906000526020600020905b815481529060010190602001808311611d2d57829003601f168201915b505050505090806001015490806002018054611d659061551a565b80601f0160208091040260200160405190810160405280929190818152602001828054611d919061551a565b8015611dde5780601f10611db357610100808354040283529160200191611dde565b820191906000526020600020905b815481529060010190602001808311611dc157829003601f168201915b505050505090806003018054611df39061551a565b80601f0160208091040260200160405190810160405280929190818152602001828054611e1f9061551a565b8015611e6c5780601f10611e4157610100808354040283529160200191611e6c565b820191906000526020600020905b815481529060010190602001808311611e4f57829003601f168201915b5050505050908060040154908060050160009054906101000a900460ff1690806006018054611e9a9061551a565b80601f0160208091040260200160405190810160405280929190818152602001828054611ec69061551a565b8015611f135780601f10611ee857610100808354040283529160200191611f13565b820191906000526020600020905b815481529060010190602001808311611ef657829003601f168201915b5050505050905087565b606060048054611f2c9061551a565b80601f0160208091040260200160405190810160405280929190818152602001828054611f589061551a565b8015611fa55780601f10611f7a57610100808354040283529160200191611fa5565b820191906000526020600020905b815481529060010190602001808311611f8857829003601f168201915b5050505050905090565b60068181548110611fbf57600080fd5b9060005260206000209060040201600091509050806000018054611fe29061551a565b80601f016020809104026020016040519081016040528092919081815260200182805461200e9061551a565b801561205b5780601f106120305761010080835404028352916020019161205b565b820191906000526020600020905b81548152906001019060200180831161203e57829003601f168201915b5050505050908060010154908060020180546120769061551a565b80601f01602080910402602001604051908101604052809291908181526020018280546120a29061551a565b80156120ef5780601f106120c4576101008083540402835291602001916120ef565b820191906000526020600020905b8154815290600101906020018083116120d257829003601f168201915b5050505050908060030160009054906101000a900460ff16905084565b600560009054906101000a900473ffffffffffffffffffffffffffffffffffffffff1673ffffffffffffffffffffffffffffffffffffffff163373ffffffffffffffffffffffffffffffffffffffff161461219c576040517f08c379a000000000000000000000000000000000000000000000000000000000815260040161219390615597565b60405180910390fd5b600a816040516121ac9190615c3a565b908152602001604051809103902060050160009054906101000a900460ff161561220b576040517f08c379a000000000000000000000000000000000000000000000000000000000815260040161220290616019565b60405180910390fd5b6001600a8260405161221d9190615c3a565b908152602001604051809103902060050160006101000a81548160ff02191690831515021790555060005b60078054905081101561231c57816040516020016122669190615c3a565b60405160208183030381529060405280519060200120600782815481106122905761228f616039565b5b90600052602060002090600702016002016040516020016122b191906160eb565b604051602081830303815290604052805190602001200361230f576001600782815481106122e2576122e1616039565b5b906000526020600020906007020160050160006101000a81548160ff02191690831515021790555061231c565b8080600101915050612248565b5061232f33678ac7230489e800006139eb565b508060405161233e9190615c3a565b6040518091039020600a826040516123569190615c3a565b908152602001604051809103902060000160405161237491906160eb565b60405180910390207fb78543f054c768084f86f0e559d1e007998ca69729eeffc4b727baa388934a3260405160405180910390a350565b600c6020528060005260406000206000915090508060000180546123ce9061551a565b80601f01602080910402602001604051908101604052809291908181526020018280546123fa9061551a565b80156124475780601f1061241c57610100808354040283529160200191612447565b820191906000526020600020905b81548152906001019060200180831161242a57829003601f168201915b5050505050908060010154908060020180546124629061551a565b80601f016020809104026020016040519081016040528092919081815260200182805461248e9061551a565b80156124db5780601f106124b0576101008083540402835291602001916124db565b820191906000526020600020905b8154815290600101906020018083116124be57829003601f168201915b5050505050908060030160009054906101000a900460ff16905084565b600e60009054906101000a900460ff1615612548576040517f08c379a000000000000000000000000000000000000000000000000000000000815260040161253f90616174565b60405180910390fd5b600e60019054906101000a900460ff16612597576040517f08c379a000000000000000000000000000000000000000000000000000000000815260040161258e906161e0565b60405180910390fd5b6000600c60003373ffffffffffffffffffffffffffffffffffffffff1673ffffffffffffffffffffffffffffffffffffffff16815260200190815260200160002090508060030160009054906101000a900460ff161561262c576040517f08c379a00000000000000000000000000000000000000000000000000000000081526004016126239061624c565b60405180910390fd5b6000600b8460405161263e9190615c3a565b90815260200160405180910390206001018054905011612693576040517f08c379a000000000000000000000000000000000000000000000000000000000815260040161268a906162b8565b60405180910390fd5b600b836040516126a39190615c3a565b90815260200160405180910390206001018054905082106126f9576040517f08c379a00000000000000000000000000000000000000000000000000000000081526004016126f090616324565b60405180910390fd5b6001600b8460405161270b9190615c3a565b9081526020016040518091039020600101838154811061272e5761272d616039565b5b9060005260206000209060070201600401600082825461274e9190616373565b9250508190555060018160030160006101000a81548160ff0219169083151502179055503373ffffffffffffffffffffffffffffffffffffffff167f477d7faf347a03679fabd88feea150c41667473fc8412962f607fb7503f1bd438260020185856040516127bf9392919061642b565b60405180910390a2505050565b6000806127d7613535565b90506127e48185856135e3565b600191505092915050565b600560009054906101000a900473ffffffffffffffffffffffffffffffffffffffff1673ffffffffffffffffffffffffffffffffffffffff163373ffffffffffffffffffffffffffffffffffffffff161461287f576040517f08c379a000000000000000000000000000000000000000000000000000000000815260040161287690615597565b60405180910390fd5b60005b8151811015612a8357600d8282815181106128a05761289f616039565b5b60200260200101516040516128b59190615c3a565b908152602001604051809103902060009054906101000a900460ff1615612911576040517f08c379a0000000000000000000000000000000000000000000000000000000008152600401612908906164bc565b60405180910390fd5b6000600b83838151811061292857612927616039565b5b602002602001015160405161293d9190615c3a565b908152602001604051809103902090508282815181106129605761295f616039565b5b60200260200101518160000190816129789190615efb565b506008819080600181540180825580915050600190039060005260206000209060020201600090919091909150600082018160000190816129b991906164f2565b5060018201816001019080546129d092919061434a565b5050506001600d8484815181106129ea576129e9616039565b5b60200260200101516040516129ff9190615c3a565b908152602001604051809103902060006101000a81548160ff0219169083151502179055507ff635339f4b5986d632e76f25211c57346b4b4ca3aa13c1ba323ac12563731456838381518110612a5857612a57616039565b5b6020026020010151604051612a6d91906147b2565b60405180910390a1508080600101915050612882565b5050565b600560009054906101000a900473ffffffffffffffffffffffffffffffffffffffff1673ffffffffffffffffffffffffffffffffffffffff163373ffffffffffffffffffffffffffffffffffffffff1614612b17576040517f08c379a0000000000000000000000000000000000000000000000000000000008152600401612b0e90615597565b60405180910390fd5b6000600a82604051612b299190615c3a565b90815260200160405180910390206000018054612b459061551a565b905003612b87576040517f08c379a0000000000000000000000000000000000000000000000000000000008152600401612b7e90616626565b60405180910390fd5b60005b600780549050811015612e8b5781604051602001612ba89190615c3a565b6040516020818303038152906040528051906020012060078281548110612bd257612bd1616039565b5b9060005260206000209060070201600201604051602001612bf391906160eb565b6040516020818303038152906040528051906020012003612e7e5760008190505b6001600780549050612c269190616646565b811015612d22576007600182612c3c9190616373565b81548110612c4d57612c4c616039565b5b906000526020600020906007020160078281548110612c6f57612c6e616039565b5b906000526020600020906007020160008201816000019081612c9191906164f2565b506001820154816001015560028201816002019081612cb091906164f2565b5060038201816003019081612cc591906164f2565b50600482015481600401556005820160009054906101000a900460ff168160050160006101000a81548160ff02191690831515021790555060068201816006019081612d1191906164f2565b509050508080600101915050612c14565b506007805480612d3557612d3461667a565b5b600190038181906000526020600020906007020160008082016000612d5a9190614437565b6001820160009055600282016000612d729190614437565b600382016000612d829190614437565b60048201600090556005820160006101000a81549060ff0219169055600682016000612dae9190614437565b50509055600a82604051612dc29190615c3a565b908152602001604051809103902060008082016000612de19190614437565b6001820160009055600282016000612df99190614437565b600382016000612e099190614437565b60048201600090556005820160006101000a81549060ff0219169055600682016000612e359190614437565b505081604051612e459190615c3a565b60405180910390207f8f5f7793556433ecc92e19fec29f06611a3ac9c5a32b806db2149f70d52946fe60405160405180910390a2612e8b565b8080600101915050612b8a565b5050565b600e60009054906101000a900460ff16612ede576040517f08c379a0000000000000000000000000000000000000000000000000000000008152600401612ed59061574d565b60405180910390fd5b600e60019054906101000a900460ff1615612f2e576040517f08c379a0000000000000000000000000000000000000000000000000000000008152600401612f2590615c1a565b60405180910390fd5b6000600a84604051612f409190615c3a565b90815260200160405180910390206000018054612f5c9061551a565b905014612f9e576040517f08c379a0000000000000000000000000000000000000000000000000000000008152600401612f95906166f5565b60405180910390fd5b6000600984604051612fb09190615c3a565b90815260200160405180910390206000018054612fcc9061551a565b90500361300e576040517f08c379a000000000000000000000000000000000000000000000000000000000815260040161300590616761565b60405180910390fd5b60006040518060e00160405280878152602001868152602001858152602001848152602001600081526020016000151581526020018381525090506007819080600181540180825580915050600190039060005260206000209060070201600090919091909150600082015181600001908161308a9190615efb565b506020820151816001015560408201518160020190816130aa9190615efb565b5060608201518160030190816130c09190615efb565b506080820151816004015560a08201518160050160006101000a81548160ff02191690831515021790555060c08201518160060190816131009190615efb565b50505080600a856040516131149190615c3a565b908152602001604051809103902060008201518160000190816131379190615efb565b506020820151816001015560408201518160020190816131579190615efb565b50606082015181600301908161316d9190615efb565b506080820151816004015560a08201518160050160006101000a81548160ff02191690831515021790555060c08201518160060190816131ad9190615efb565b50905050836040516131bf9190615c3a565b6040518091039020866040516131d59190615c3a565b60405180910390207fd9f17a5389d6109c78413a18e9adfec5a898c288bbd8c9e65de38e95f04b9e0787868660405161321093929190616781565b60405180910390a3505050505050565b674563918244f4000081565b60606006805480602002602001604051908101604052809291908181526020016000905b828210156133cb57838290600052602060002090600402016040518060800160405290816000820180546132839061551a565b80601f01602080910402602001604051908101604052809291908181526020018280546132af9061551a565b80156132fc5780601f106132d1576101008083540402835291602001916132fc565b820191906000526020600020905b8154815290600101906020018083116132df57829003601f168201915b505050505081526020016001820154815260200160028201805461331f9061551a565b80601f016020809104026020016040519081016040528092919081815260200182805461334b9061551a565b80156133985780601f1061336d57610100808354040283529160200191613398565b820191906000526020600020905b81548152906001019060200180831161337b57829003601f168201915b505050505081526020016003820160009054906101000a900460ff16151515158152505081526020019060010190613250565b50505050905090565b600080836040516020016133e89190616833565b604051602081830303815290604052805190602001209050600061340c8285613a99565b90503373ffffffffffffffffffffffffffffffffffffffff168173ffffffffffffffffffffffffffffffffffffffff16149250505092915050565b6000600160008473ffffffffffffffffffffffffffffffffffffffff1673ffffffffffffffffffffffffffffffffffffffff16815260200190815260200160002060008373ffffffffffffffffffffffffffffffffffffffff1673ffffffffffffffffffffffffffffffffffffffff16815260200190815260200160002054905092915050565b600080600c60008473ffffffffffffffffffffffffffffffffffffffff1673ffffffffffffffffffffffffffffffffffffffff168152602001908152602001600020600001805461351e9061551a565b905014159050919050565b678ac7230489e8000081565b600033905090565b61354a8383836001613ac5565b505050565b600061355b8484613447565b90507fffffffffffffffffffffffffffffffffffffffffffffffffffffffffffffffff81146135dd57818110156135cd578281836040517ffb8f41b20000000000000000000000000000000000000000000000000000000081526004016135c493929190616859565b60405180910390fd5b6135dc84848484036000613ac5565b5b50505050565b600073ffffffffffffffffffffffffffffffffffffffff168373ffffffffffffffffffffffffffffffffffffffff16036136555760006040517f96c6fd1e00000000000000000000000000000000000000000000000000000000815260040161364c9190614fa3565b60405180910390fd5b600073ffffffffffffffffffffffffffffffffffffffff168273ffffffffffffffffffffffffffffffffffffffff16036136c75760006040517fec442f050000000000000000000000000000000000000000000000000000000081526004016136be9190614fa3565b60405180910390fd5b6136d2838383613c9c565b505050565b60606000839050600060028460026136ef9190616890565b6136f99190616373565b67ffffffffffffffff81111561371257613711614abe565b5b6040519080825280601f01601f1916602001820160405280156137445781602001600182028036833780820191505090505b5090507f30000000000000000000000000000000000000000000000000000000000000008160008151811061377c5761377b616039565b5b60200101907effffffffffffffffffffffffffffffffffffffffffffffffffffffffffffff1916908160001a9053507f7800000000000000000000000000000000000000000000000000000000000000816001815181106137e0576137df616039565b5b60200101907effffffffffffffffffffffffffffffffffffffffffffffffffffffffffffff1916908160001a905350600060018560026138209190616890565b61382a9190616373565b90505b60018111156138ca577f3031323334353637383961626364656600000000000000000000000000000000600f84166010811061386c5761386b616039565b5b1a60f81b82828151811061388357613882616039565b5b60200101907effffffffffffffffffffffffffffffffffffffffffffffffffffffffffffff1916908160001a905350600483901c9250806138c3906168d2565b905061382d565b50600082146139125784846040517fe22e27eb0000000000000000000000000000000000000000000000000000000081526004016139099291906168fb565b60405180910390fd5b809250505092915050565b60606000600161392c84613ec1565b01905060008167ffffffffffffffff81111561394b5761394a614abe565b5b6040519080825280601f01601f19166020018201604052801561397d5781602001600182028036833780820191505090505b509050600082602001820190505b6001156139e0578080600190039150507f3031323334353637383961626364656600000000000000000000000000000000600a86061a8153600a85816139d4576139d3616924565b5b0494506000850361398b575b819350505050919050565b600069d3c21bcecceda1000000613a00610c89565b83613a0b9190616373565b1115613a4c576040517f08c379a0000000000000000000000000000000000000000000000000000000008152600401613a439061699f565b60405180910390fd5b613a568383614014565b7fcda531bfd68624f13205c0a23cd4d5a7f09792cbb399603114f2b04aaa1bf5cf8383604051613a879291906169bf565b60405180910390a16001905092915050565b600080600080613aa98686614096565b925092509250613ab982826140f2565b82935050505092915050565b600073ffffffffffffffffffffffffffffffffffffffff168473ffffffffffffffffffffffffffffffffffffffff1603613b375760006040517fe602df05000000000000000000000000000000000000000000000000000000008152600401613b2e9190614fa3565b60405180910390fd5b600073ffffffffffffffffffffffffffffffffffffffff168373ffffffffffffffffffffffffffffffffffffffff1603613ba95760006040517f94280d62000000000000000000000000000000000000000000000000000000008152600401613ba09190614fa3565b60405180910390fd5b81600160008673ffffffffffffffffffffffffffffffffffffffff1673ffffffffffffffffffffffffffffffffffffffff16815260200190815260200160002060008573ffffffffffffffffffffffffffffffffffffffff1673ffffffffffffffffffffffffffffffffffffffff168152602001908152602001600020819055508015613c96578273ffffffffffffffffffffffffffffffffffffffff168473ffffffffffffffffffffffffffffffffffffffff167f8c5be1e5ebec7d5bd14f71427d1e84f3dd0314c0f7b2291e5b200ac8c7c3b92584604051613c8d91906148eb565b60405180910390a35b50505050565b600073ffffffffffffffffffffffffffffffffffffffff168373ffffffffffffffffffffffffffffffffffffffff1603613cee578060026000828254613ce29190616373565b92505081905550613dc1565b60008060008573ffffffffffffffffffffffffffffffffffffffff1673ffffffffffffffffffffffffffffffffffffffff16815260200190815260200160002054905081811015613d7a578381836040517fe450d38c000000000000000000000000000000000000000000000000000000008152600401613d7193929190616859565b60405180910390fd5b8181036000808673ffffffffffffffffffffffffffffffffffffffff1673ffffffffffffffffffffffffffffffffffffffff16815260200190815260200160002081905550505b600073ffffffffffffffffffffffffffffffffffffffff168273ffffffffffffffffffffffffffffffffffffffff1603613e0a5780600260008282540392505081905550613e57565b806000808473ffffffffffffffffffffffffffffffffffffffff1673ffffffffffffffffffffffffffffffffffffffff168152602001908152602001600020600082825401925050819055505b8173ffffffffffffffffffffffffffffffffffffffff168373ffffffffffffffffffffffffffffffffffffffff167fddf252ad1be2c89b69c2b068fc378daa952ba7f163c4a11628f55a4df523b3ef83604051613eb491906148eb565b60405180910390a3505050565b600080600090507a184f03e93ff9f4daa797ed6e38ed64bf6a1f0100000000000000008310613f1f577a184f03e93ff9f4daa797ed6e38ed64bf6a1f0100000000000000008381613f1557613f14616924565b5b0492506040810190505b6d04ee2d6d415b85acef81000000008310613f5c576d04ee2d6d415b85acef81000000008381613f5257613f51616924565b5b0492506020810190505b662386f26fc100008310613f8b57662386f26fc100008381613f8157613f80616924565b5b0492506010810190505b6305f5e1008310613fb4576305f5e1008381613faa57613fa9616924565b5b0492506008810190505b6127108310613fd9576127108381613fcf57613fce616924565b5b0492506004810190505b60648310613ffc5760648381613ff257613ff1616924565b5b0492506002810190505b600a831061400b576001810190505b80915050919050565b600073ffffffffffffffffffffffffffffffffffffffff168273ffffffffffffffffffffffffffffffffffffffff16036140865760006040517fec442f0500000000000000000000000000000000000000000000000000000000815260040161407d9190614fa3565b60405180910390fd5b61409260008383613c9c565b5050565b600080600060418451036140db5760008060006020870151925060408701519150606087015160001a90506140cd88828585614256565b9550955095505050506140eb565b60006002855160001b9250925092505b9250925092565b60006003811115614106576141056169e8565b5b826003811115614119576141186169e8565b5b03156142525760016003811115614133576141326169e8565b5b826003811115614146576141456169e8565b5b0361417d576040517ff645eedf00000000000000000000000000000000000000000000000000000000815260040160405180910390fd5b60026003811115614191576141906169e8565b5b8260038111156141a4576141a36169e8565b5b036141e9578060001c6040517ffce698f70000000000000000000000000000000000000000000000000000000081526004016141e091906148eb565b60405180910390fd5b6003808111156141fc576141fb6169e8565b5b82600381111561420f5761420e6169e8565b5b0361425157806040517fd78bce0c0000000000000000000000000000000000000000000000000000000081526004016142489190614e94565b60405180910390fd5b5b5050565b60008060007f7fffffffffffffffffffffffffffffff5d576e7357a4501ddfe92f46681b20a08460001c1115614296576000600385925092509250614340565b6000600188888888604051600081526020016040526040516142bb9493929190616a17565b6020604051602081039080840390855afa1580156142dd573d6000803e3d6000fd5b505050602060405103519050600073ffffffffffffffffffffffffffffffffffffffff168173ffffffffffffffffffffffffffffffffffffffff160361433157600060016000801b93509350935050614340565b8060008060001b935093509350505b9450945094915050565b8280548282559060005260206000209060070281019282156144265760005260206000209160070282015b828111156144255782826000820181600001908161439391906164f2565b5060018201548160010155600282018160020190816143b291906164f2565b50600382018160030190816143c791906164f2565b50600482015481600401556005820160009054906101000a900460ff168160050160006101000a81548160ff0219169083151502179055506006820181600601908161441391906164f2565b50505091600701919060070190614375565b5b5090506144339190614477565b5090565b5080546144439061551a565b6000825580601f106144555750614474565b601f01602090049060005260206000209081019061447391906144f2565b5b50565b5b808211156144ee57600080820160006144919190614437565b60018201600090556002820160006144a99190614437565b6003820160006144b99190614437565b60048201600090556005820160006101000a81549060ff02191690556006820160006144e59190614437565b50600701614478565b5090565b5b8082111561450b5760008160009055506001016144f3565b5090565b600081519050919050565b600082825260208201905092915050565b6000819050602082019050919050565b600081519050919050565b600082825260208201905092915050565b60005b8381101561457557808201518184015260208101905061455a565b60008484015250505050565b6000601f19601f8301169050919050565b600061459d8261453b565b6145a78185614546565b93506145b7818560208601614557565b6145c081614581565b840191505092915050565b6000819050919050565b6145de816145cb565b82525050565b60008115159050919050565b6145f9816145e4565b82525050565b600060e083016000830151848203600086015261461c8282614592565b915050602083015161463160208601826145d5565b50604083015184820360408601526146498282614592565b915050606083015184820360608601526146638282614592565b915050608083015161467860808601826145d5565b5060a083015161468b60a08601826145f0565b5060c083015184820360c08601526146a38282614592565b9150508091505092915050565b60006146bc83836145ff565b905092915050565b6000602082019050919050565b60006146dc8261450f565b6146e6818561451a565b9350836020820285016146f88561452b565b8060005b85811015614734578484038952815161471585826146b0565b9450614720836146c4565b925060208a019950506001810190506146fc565b50829750879550505050505092915050565b6000602082019050818103600083015261476081846146d1565b905092915050565b600082825260208201905092915050565b60006147848261453b565b61478e8185614768565b935061479e818560208601614557565b6147a781614581565b840191505092915050565b600060208201905081810360008301526147cc8184614779565b905092915050565b6000604051905090565b600080fd5b600080fd5b600073ffffffffffffffffffffffffffffffffffffffff82169050919050565b6000614813826147e8565b9050919050565b61482381614808565b811461482e57600080fd5b50565b6000813590506148408161481a565b92915050565b61484f816145cb565b811461485a57600080fd5b50565b60008135905061486c81614846565b92915050565b60008060408385031215614889576148886147de565b5b600061489785828601614831565b92505060206148a88582860161485d565b9150509250929050565b6148bb816145e4565b82525050565b60006020820190506148d660008301846148b2565b92915050565b6148e5816145cb565b82525050565b600060208201905061490060008301846148dc565b92915050565b600081519050919050565b600082825260208201905092915050565b6000819050602082019050919050565b600082825260208201905092915050565b600061494e8261450f565b6149588185614932565b93508360208202850161496a8561452b565b8060005b858110156149a6578484038952815161498785826146b0565b9450614992836146c4565b925060208a0199505060018101905061496e565b50829750879550505050505092915050565b600060408301600083015184820360008601526149d58282614592565b915050602083015184820360208601526149ef8282614943565b9150508091505092915050565b6000614a0883836149b8565b905092915050565b6000602082019050919050565b6000614a2882614906565b614a328185614911565b935083602082028501614a4485614922565b8060005b85811015614a805784840389528151614a6185826149fc565b9450614a6c83614a10565b925060208a01995050600181019050614a48565b50829750879550505050505092915050565b60006020820190508181036000830152614aac8184614a1d565b905092915050565b600080fd5b600080fd5b7f4e487b7100000000000000000000000000000000000000000000000000000000600052604160045260246000fd5b614af682614581565b810181811067ffffffffffffffff82111715614b1557614b14614abe565b5b80604052505050565b6000614b286147d4565b9050614b348282614aed565b919050565b600067ffffffffffffffff821115614b5457614b53614abe565b5b614b5d82614581565b9050602081019050919050565b82818337600083830152505050565b6000614b8c614b8784614b39565b614b1e565b905082815260208101848484011115614ba857614ba7614ab9565b5b614bb3848285614b6a565b509392505050565b600082601f830112614bd057614bcf614ab4565b5b8135614be0848260208601614b79565b91505092915050565b600060208284031215614bff57614bfe6147de565b5b600082013567ffffffffffffffff811115614c1d57614c1c6147e3565b5b614c2984828501614bbb565b91505092915050565b600060e0820190508181036000830152614c4c818a614779565b9050614c5b60208301896148dc565b8181036040830152614c6d8188614779565b90508181036060830152614c818187614779565b9050614c9060808301866148dc565b614c9d60a08301856148b2565b81810360c0830152614caf8184614779565b905098975050505050505050565b600080600060608486031215614cd657614cd56147de565b5b6000614ce486828701614831565b9350506020614cf586828701614831565b9250506040614d068682870161485d565b9150509250925092565b600060ff82169050919050565b614d2681614d10565b82525050565b6000602082019050614d416000830184614d1d565b92915050565b60006080820190508181036000830152614d618187614779565b9050614d7060208301866148dc565b8181036040830152614d828185614779565b9050614d9160608301846148b2565b95945050505050565b60008060008060008060c08789031215614db757614db66147de565b5b6000614dc589828a01614831565b965050602087013567ffffffffffffffff811115614de657614de56147e3565b5b614df289828a01614bbb565b955050604087013567ffffffffffffffff811115614e1357614e126147e3565b5b614e1f89828a01614bbb565b945050606087013567ffffffffffffffff811115614e4057614e3f6147e3565b5b614e4c89828a01614bbb565b9350506080614e5d89828a0161485d565b92505060a0614e6e89828a0161485d565b9150509295509295509295565b6000819050919050565b614e8e81614e7b565b82525050565b6000602082019050614ea96000830184614e85565b92915050565b600080600060608486031215614ec857614ec76147de565b5b600084013567ffffffffffffffff811115614ee657614ee56147e3565b5b614ef286828701614bbb565b9350506020614f038682870161485d565b925050604084013567ffffffffffffffff811115614f2457614f236147e3565b5b614f3086828701614bbb565b9150509250925092565b600060208284031215614f5057614f4f6147de565b5b6000614f5e84828501614831565b91505092915050565b600060208284031215614f7d57614f7c6147de565b5b6000614f8b8482850161485d565b91505092915050565b614f9d81614808565b82525050565b6000602082019050614fb86000830184614f94565b92915050565b60008060408385031215614fd557614fd46147de565b5b600083013567ffffffffffffffff811115614ff357614ff26147e3565b5b614fff85828601614bbb565b92505060206150108582860161485d565b9150509250929050565b600067ffffffffffffffff82111561503557615034614abe565b5b602082029050602081019050919050565b600080fd5b600061505e6150598461501a565b614b1e565b9050808382526020820190506020840283018581111561508157615080615046565b5b835b818110156150c857803567ffffffffffffffff8111156150a6576150a5614ab4565b5b8086016150b38982614bbb565b85526020850194505050602081019050615083565b5050509392505050565b600082601f8301126150e7576150e6614ab4565b5b81356150f784826020860161504b565b91505092915050565b600060208284031215615116576151156147de565b5b600082013567ffffffffffffffff811115615134576151336147e3565b5b615140848285016150d2565b91505092915050565b600080600080600060a08688031215615165576151646147de565b5b600086013567ffffffffffffffff811115615183576151826147e3565b5b61518f88828901614bbb565b95505060206151a08882890161485d565b945050604086013567ffffffffffffffff8111156151c1576151c06147e3565b5b6151cd88828901614bbb565b935050606086013567ffffffffffffffff8111156151ee576151ed6147e3565b5b6151fa88828901614bbb565b925050608086013567ffffffffffffffff81111561521b5761521a6147e3565b5b61522788828901614bbb565b9150509295509295909350565b600081519050919050565b600082825260208201905092915050565b6000819050602082019050919050565b6000608083016000830151848203600086015261527d8282614592565b915050602083015161529260208601826145d5565b50604083015184820360408601526152aa8282614592565b91505060608301516152bf60608601826145f0565b508091505092915050565b60006152d68383615260565b905092915050565b6000602082019050919050565b60006152f682615234565b615300818561523f565b93508360208202850161531285615250565b8060005b8581101561534e578484038952815161532f85826152ca565b945061533a836152de565b925060208a01995050600181019050615316565b50829750879550505050505092915050565b6000602082019050818103600083015261537a81846152eb565b905092915050565b61538b81614e7b565b811461539657600080fd5b50565b6000813590506153a881615382565b92915050565b600067ffffffffffffffff8211156153c9576153c8614abe565b5b6153d282614581565b9050602081019050919050565b60006153f26153ed846153ae565b614b1e565b90508281526020810184848401111561540e5761540d614ab9565b5b615419848285614b6a565b509392505050565b600082601f83011261543657615435614ab4565b5b81356154468482602086016153df565b91505092915050565b60008060408385031215615466576154656147de565b5b600061547485828601615399565b925050602083013567ffffffffffffffff811115615495576154946147e3565b5b6154a185828601615421565b9150509250929050565b600080604083850312156154c2576154c16147de565b5b60006154d085828601614831565b92505060206154e185828601614831565b9150509250929050565b7f4e487b7100000000000000000000000000000000000000000000000000000000600052602260045260246000fd5b6000600282049050600182168061553257607f821691505b602082108103615545576155446154eb565b5b50919050565b7f596f7520617265206e6f7420746865206f776e65722100000000000000000000600082015250565b6000615581601683614768565b915061558c8261554b565b602082019050919050565b600060208201905081810360008301526155b081615574565b9050919050565b7f526567697374726174696f6e2068617320616c7265616479207374617274656460008201527f2e00000000000000000000000000000000000000000000000000000000000000602082015250565b6000615613602183614768565b915061561e826155b7565b604082019050919050565b6000602082019050818103600083015261564281615606565b9050919050565b7f43616e6e6f7420737461727420726567697374726174696f6e2061667465722060008201527f766f74696e672068617320626567756e2e000000000000000000000000000000602082015250565b60006156a5603183614768565b91506156b082615649565b604082019050919050565b600060208201905081810360008301526156d481615698565b9050919050565b7f526567697374726174696f6e20706572696f6420686173206e6f74207374617260008201527f7465642e00000000000000000000000000000000000000000000000000000000602082015250565b6000615737602483614768565b9150615742826156db565b604082019050919050565b600060208201905081810360008301526157668161572a565b9050919050565b7f566f74696e672068617320616c726561647920737461727465642e0000000000600082015250565b60006157a3601b83614768565b91506157ae8261576d565b602082019050919050565b600060208201905081810360008301526157d281615796565b9050919050565b600081905092915050565b7f19457468657265756d205369676e6564204d6573736167653a0a000000000000600082015250565b600061581a601a836157d9565b9150615825826157e4565b601a82019050919050565b7f446f6d61696e3a20000000000000000000000000000000000000000000000000600082015250565b60006158666008836157d9565b915061587182615830565b600882019050919050565b60006158878261453b565b61589181856157d9565b93506158a1818560208601614557565b80840191505092915050565b7f0a00000000000000000000000000000000000000000000000000000000000000600082015250565b60006158e36001836157d9565b91506158ee826158ad565b600182019050919050565b7f416464726573733a200000000000000000000000000000000000000000000000600082015250565b600061592f6009836157d9565b915061593a826158f9565b600982019050919050565b7f53746174656d656e743a20000000000000000000000000000000000000000000600082015250565b600061597b600b836157d9565b915061598682615945565b600b82019050919050565b7f5552493a20000000000000000000000000000000000000000000000000000000600082015250565b60006159c76005836157d9565b91506159d282615991565b600582019050919050565b7f56657273696f6e3a20310a000000000000000000000000000000000000000000600082015250565b6000615a13600b836157d9565b9150615a1e826159dd565b600b82019050919050565b7f436861696e2049443a2000000000000000000000000000000000000000000000600082015250565b6000615a5f600a836157d9565b9150615a6a82615a29565b600a82019050919050565b7f4e6f6e63653a2000000000000000000000000000000000000000000000000000600082015250565b6000615aab6007836157d9565b9150615ab682615a75565b600782019050919050565b6000615acc8261580d565b9150615ad782615859565b9150615ae3828961587c565b9150615aee826158d6565b9150615af982615922565b9150615b05828861587c565b9150615b10826158d6565b9150615b1b8261596e565b9150615b27828761587c565b9150615b32826158d6565b9150615b3d826159ba565b9150615b49828661587c565b9150615b54826158d6565b9150615b5f82615a06565b9150615b6a82615a52565b9150615b76828561587c565b9150615b81826158d6565b9150615b8c82615a9e565b9150615b98828461587c565b9150819050979650505050505050565b7f43616e6e6f7420726567697374657220647572696e6720766f74696e6720706560008201527f72696f642e000000000000000000000000000000000000000000000000000000602082015250565b6000615c04602583614768565b9150615c0f82615ba8565b604082019050919050565b60006020820190508181036000830152615c3381615bf7565b9050919050565b6000615c46828461587c565b915081905092915050565b7f566f74657220616c726561647920657869737473210000000000000000000000600082015250565b6000615c87601583614768565b9150615c9282615c51565b602082019050919050565b60006020820190508181036000830152615cb681615c7a565b9050919050565b7f4163636f756e7420616c7265616479207265676973746572656420617320766f60008201527f7465720000000000000000000000000000000000000000000000000000000000602082015250565b6000615d19602383614768565b9150615d2482615cbd565b604082019050919050565b60006020820190508181036000830152615d4881615d0c565b9050919050565b60008190508160005260206000209050919050565b60006020601f8301049050919050565b600082821b905092915050565b600060088302615db17fffffffffffffffffffffffffffffffffffffffffffffffffffffffffffffffff82615d74565b615dbb8683615d74565b95508019841693508086168417925050509392505050565b6000819050919050565b6000615df8615df3615dee846145cb565b615dd3565b6145cb565b9050919050565b6000819050919050565b615e1283615ddd565b615e26615e1e82615dff565b848454615d81565b825550505050565b600090565b615e3b615e2e565b615e46818484615e09565b505050565b5b81811015615e6a57615e5f600082615e33565b600181019050615e4c565b5050565b601f821115615eaf57615e8081615d4f565b615e8984615d64565b81016020851015615e98578190505b615eac615ea485615d64565b830182615e4b565b50505b505050565b600082821c905092915050565b6000615ed260001984600802615eb4565b1980831691505092915050565b6000615eeb8383615ec1565b9150826002028217905092915050565b615f048261453b565b67ffffffffffffffff811115615f1d57615f1c614abe565b5b615f27825461551a565b615f32828285615e6e565b600060209050601f831160018114615f655760008415615f53578287015190505b615f5d8582615edf565b865550615fc5565b601f198416615f7386615d4f565b60005b82811015615f9b57848901518255600182019150602085019450602081019050615f76565b86831015615fb85784890151615fb4601f891682615ec1565b8355505b6001600288020188555050505b505050505050565b7f43616e64696461746520616c7265616479207665726966696564210000000000600082015250565b6000616003601b83614768565b915061600e82615fcd565b602082019050919050565b6000602082019050818103600083015261603281615ff6565b9050919050565b7f4e487b7100000000000000000000000000000000000000000000000000000000600052603260045260246000fd5b600081546160758161551a565b61607f81866157d9565b9450600182166000811461609a57600181146160af576160e2565b60ff19831686528115158202860193506160e2565b6160b885615d4f565b60005b838110156160da578154818901526001820191506020810190506160bb565b838801955050505b50505092915050565b60006160f78284616068565b915081905092915050565b7f526567697374726174696f6e20706572696f64206973207374696c6c2061637460008201527f6976652e00000000000000000000000000000000000000000000000000000000602082015250565b600061615e602483614768565b915061616982616102565b604082019050919050565b6000602082019050818103600083015261618d81616151565b9050919050565b7f566f74696e6720686173206e6f742073746172746564207965742e0000000000600082015250565b60006161ca601b83614768565b91506161d582616194565b602082019050919050565b600060208201905081810360008301526161f9816161bd565b9050919050565b7f596f75206861766520616c726561647920766f7465642e000000000000000000600082015250565b6000616236601783614768565b915061624182616200565b602082019050919050565b6000602082019050818103600083015261626581616229565b9050919050565b7f496e76616c696420706f736974696f6e2e000000000000000000000000000000600082015250565b60006162a2601183614768565b91506162ad8261626c565b602082019050919050565b600060208201905081810360008301526162d181616295565b9050919050565b7f496e76616c69642063616e64696461746520696e6465782e0000000000000000600082015250565b600061630e601883614768565b9150616319826162d8565b602082019050919050565b6000602082019050818103600083015261633d81616301565b9050919050565b7f4e487b7100000000000000000000000000000000000000000000000000000000600052601160045260246000fd5b600061637e826145cb565b9150616389836145cb565b92508282019050808211156163a1576163a0616344565b5b92915050565b600081546163b48161551a565b6163be8186614768565b945060018216600081146163d957600181146163ef57616422565b60ff198316865281151560200286019350616422565b6163f885615d4f565b60005b8381101561641a578154818901526001820191506020810190506163fb565b808801955050505b50505092915050565b6000606082019050818103600083015261644581866163a7565b905081810360208301526164598185614779565b905061646860408301846148dc565b949350505050565b7f506f736974696f6e20616c726561647920657869737473210000000000000000600082015250565b60006164a6601883614768565b91506164b182616470565b602082019050919050565b600060208201905081810360008301526164d581616499565b9050919050565b6000815490506164eb8161551a565b9050919050565b8181036165005750506165d8565b616509826164dc565b67ffffffffffffffff81111561652257616521614abe565b5b61652c825461551a565b616537828285615e6e565b6000601f8311600181146165665760008415616554578287015490505b61655e8582615edf565b8655506165d1565b601f19841661657487615d4f565b965061657f86615d4f565b60005b828110156165a757848901548255600182019150600185019450602081019050616582565b868310156165c457848901546165c0601f891682615ec1565b8355505b6001600288020188555050505b5050505050505b565b7f43616e64696461746520646f6573206e6f742065786973742100000000000000600082015250565b6000616610601983614768565b915061661b826165da565b602082019050919050565b6000602082019050818103600083015261663f81616603565b9050919050565b6000616651826145cb565b915061665c836145cb565b925082820390508181111561667457616673616344565b5b92915050565b7f4e487b7100000000000000000000000000000000000000000000000000000000600052603160045260246000fd5b7f43616e64696461746520616c7265616479206578697374732100000000000000600082015250565b60006166df601983614768565b91506166ea826166a9565b602082019050919050565b6000602082019050818103600083015261670e816166d2565b9050919050565b7f596f75206d7573742062652061207265676973746572656420766f7465722100600082015250565b600061674b601f83614768565b915061675682616715565b602082019050919050565b6000602082019050818103600083015261677a8161673e565b9050919050565b600060608201905061679660008301866148dc565b81810360208301526167a88185614779565b905081810360408301526167bc8184614779565b9050949350505050565b7f19457468657265756d205369676e6564204d6573736167653a0a333200000000600082015250565b60006167fc601c836157d9565b9150616807826167c6565b601c82019050919050565b6000819050919050565b61682d61682882614e7b565b616812565b82525050565b600061683e826167ef565b915061684a828461681c565b60208201915081905092915050565b600060608201905061686e6000830186614f94565b61687b60208301856148dc565b61688860408301846148dc565b949350505050565b600061689b826145cb565b91506168a6836145cb565b92508282026168b4816145cb565b915082820484148315176168cb576168ca616344565b5b5092915050565b60006168dd826145cb565b9150600082036168f0576168ef616344565b5b600182039050919050565b600060408201905061691060008301856148dc565b61691d60208301846148dc565b9392505050565b7f4e487b7100000000000000000000000000000000000000000000000000000000600052601260045260246000fd5b7f546f6b656e206c696d6974206578636565646564210000000000000000000000600082015250565b6000616989601583614768565b915061699482616953565b602082019050919050565b600060208201905081810360008301526169b88161697c565b9050919050565b60006040820190506169d46000830185614f94565b6169e160208301846148dc565b9392505050565b7f4e487b7100000000000000000000000000000000000000000000000000000000600052602160045260246000fd5b6000608082019050616a2c6000830187614e85565b616a396020830186614d1d565b616a466040830185614e85565b616a536060830184614e85565b9594505050505056fea2646970667358221220de4a1a9008e180ff3411227c8cf1a4809b371890febd5650beaea7fad164431e64736f6c634300081b0033",
  "linkReferences": {},
  "deployedLinkReferences": {}
}