{
  "_format": "hh-sol-artifact-1",
  "contractName": "Voting",
  "sourceName": "contracts/Voting.sol",
  "abi": [
    {
      "inputs": [],
      "stateMutability": "nonpayable",
      "type": "constructor"
    },
    {
      "inputs": [],
      "name": "ECDSAInvalidSignature",
      "type": "error"
    },
    {
      "inputs": [
        {
          "internalType": "uint256",
          "name": "length",
          "type": "uint256"
        }
      ],
      "name": "ECDSAInvalidSignatureLength",
      "type": "error"
    },
    {
      "inputs": [
        {
          "internalType": "bytes32",
          "name": "s",
          "type": "bytes32"
        }
      ],
      "name": "ECDSAInvalidSignatureS",
      "type": "error"
    },
    {
      "inputs": [
        {
          "internalType": "address",
          "name": "spender",
          "type": "address"
        },
        {
          "internalType": "uint256",
          "name": "allowance",
          "type": "uint256"
        },
        {
          "internalType": "uint256",
          "name": "needed",
          "type": "uint256"
        }
      ],
      "name": "ERC20InsufficientAllowance",
      "type": "error"
    },
    {
      "inputs": [
        {
          "internalType": "address",
          "name": "sender",
          "type": "address"
        },
        {
          "internalType": "uint256",
          "name": "balance",
          "type": "uint256"
        },
        {
          "internalType": "uint256",
          "name": "needed",
          "type": "uint256"
        }
      ],
      "name": "ERC20InsufficientBalance",
      "type": "error"
    },
    {
      "inputs": [
        {
          "internalType": "address",
          "name": "approver",
          "type": "address"
        }
      ],
      "name": "ERC20InvalidApprover",
      "type": "error"
    },
    {
      "inputs": [
        {
          "internalType": "address",
          "name": "receiver",
          "type": "address"
        }
      ],
      "name": "ERC20InvalidReceiver",
      "type": "error"
    },
    {
      "inputs": [
        {
          "internalType": "address",
          "name": "sender",
          "type": "address"
        }
      ],
      "name": "ERC20InvalidSender",
      "type": "error"
    },
    {
      "inputs": [
        {
          "internalType": "address",
          "name": "spender",
          "type": "address"
        }
      ],
      "name": "ERC20InvalidSpender",
      "type": "error"
    },
    {
      "inputs": [
        {
          "internalType": "uint256",
          "name": "value",
          "type": "uint256"
        },
        {
          "internalType": "uint256",
          "name": "length",
          "type": "uint256"
        }
      ],
      "name": "StringsInsufficientHexLength",
      "type": "error"
    },
    {
      "anonymous": false,
      "inputs": [
        {
          "indexed": true,
          "internalType": "address",
          "name": "owner",
          "type": "address"
        },
        {
          "indexed": true,
          "internalType": "address",
          "name": "spender",
          "type": "address"
        },
        {
          "indexed": false,
          "internalType": "uint256",
          "name": "value",
          "type": "uint256"
        }
      ],
      "name": "Approval",
      "type": "event"
    },
    {
      "anonymous": false,
      "inputs": [
        {
          "indexed": true,
          "internalType": "string",
          "name": "_names",
          "type": "string"
        },
        {
          "indexed": false,
          "internalType": "uint256",
          "name": "_age",
          "type": "uint256"
        },
        {
          "indexed": true,
          "internalType": "string",
          "name": "_idNumber",
          "type": "string"
        },
        {
          "indexed": false,
          "internalType": "string",
          "name": "_party",
          "type": "string"
        }
      ],
      "name": "CandidateRegistrationSuccess",
      "type": "event"
    },
    {
      "anonymous": false,
      "inputs": [
        {
          "indexed": false,
          "internalType": "address",
          "name": "_to",
          "type": "address"
        },
        {
          "indexed": false,
          "internalType": "uint256",
          "name": "_amount",
          "type": "uint256"
        }
      ],
      "name": "MintSuccess",
      "type": "event"
    },
    {
      "anonymous": false,
      "inputs": [
        {
          "indexed": false,
          "internalType": "string",
          "name": "positionName",
          "type": "string"
        }
      ],
      "name": "PositionAdded",
      "type": "event"
    },
    {
      "anonymous": false,
      "inputs": [],
      "name": "RegistrationEnded",
      "type": "event"
    },
    {
      "anonymous": false,
      "inputs": [],
      "name": "RegistrationStarted",
      "type": "event"
    },
    {
      "anonymous": false,
      "inputs": [
        {
          "indexed": true,
          "internalType": "address",
          "name": "from",
          "type": "address"
        },
        {
          "indexed": true,
          "internalType": "address",
          "name": "to",
          "type": "address"
        },
        {
          "indexed": false,
          "internalType": "uint256",
          "name": "value",
          "type": "uint256"
        }
      ],
      "name": "Transfer",
      "type": "event"
    },
    {
      "anonymous": false,
      "inputs": [
        {
          "indexed": true,
          "internalType": "string",
          "name": "_names",
          "type": "string"
        },
        {
          "indexed": true,
          "internalType": "string",
          "name": "_idNumber",
          "type": "string"
        }
      ],
      "name": "VerifyCandidateSuccess",
      "type": "event"
    },
    {
      "anonymous": false,
      "inputs": [
        {
          "indexed": true,
          "internalType": "address",
          "name": "voter",
          "type": "address"
        },
        {
          "indexed": false,
          "internalType": "string",
          "name": "_idNumber",
          "type": "string"
        },
        {
          "indexed": false,
          "internalType": "string",
          "name": "position",
          "type": "string"
        },
        {
          "indexed": false,
          "internalType": "uint256",
          "name": "candidateIndex",
          "type": "uint256"
        }
      ],
      "name": "VotedSuccess",
      "type": "event"
    },
    {
      "anonymous": false,
      "inputs": [
        {
          "indexed": true,
          "internalType": "string",
          "name": "_names",
          "type": "string"
        },
        {
          "indexed": false,
          "internalType": "uint256",
          "name": "_age",
          "type": "uint256"
        },
        {
          "indexed": true,
          "internalType": "string",
          "name": "_idNumber",
          "type": "string"
        }
      ],
      "name": "VoterRegistrationSuccess",
      "type": "event"
    },
    {
      "anonymous": false,
      "inputs": [],
      "name": "VotingStarted",
      "type": "event"
    },
    {
      "inputs": [],
      "name": "MAX_SUPPLY",
      "outputs": [
        {
          "internalType": "uint256",
          "name": "",
          "type": "uint256"
        }
      ],
      "stateMutability": "view",
      "type": "function"
    },
    {
      "inputs": [],
      "name": "REGISTER_AS_VOTER",
      "outputs": [
        {
          "internalType": "uint256",
          "name": "",
          "type": "uint256"
        }
      ],
      "stateMutability": "view",
      "type": "function"
    },
    {
      "inputs": [],
      "name": "VERIFY_CANDIDATE",
      "outputs": [
        {
          "internalType": "uint256",
          "name": "",
          "type": "uint256"
        }
      ],
      "stateMutability": "view",
      "type": "function"
    },
    {
      "inputs": [
        {
          "internalType": "string[]",
          "name": "_pNames",
          "type": "string[]"
        }
      ],
      "name": "addPositions",
      "outputs": [],
      "stateMutability": "nonpayable",
      "type": "function"
    },
    {
      "inputs": [
        {
          "internalType": "address",
          "name": "owner",
          "type": "address"
        },
        {
          "internalType": "address",
          "name": "spender",
          "type": "address"
        }
      ],
      "name": "allowance",
      "outputs": [
        {
          "internalType": "uint256",
          "name": "",
          "type": "uint256"
        }
      ],
      "stateMutability": "view",
      "type": "function"
    },
    {
      "inputs": [
        {
          "internalType": "address",
          "name": "spender",
          "type": "address"
        },
        {
          "internalType": "uint256",
          "name": "value",
          "type": "uint256"
        }
      ],
      "name": "approve",
      "outputs": [
        {
          "internalType": "bool",
          "name": "",
          "type": "bool"
        }
      ],
      "stateMutability": "nonpayable",
      "type": "function"
    },
    {
      "inputs": [
        {
          "internalType": "address",
          "name": "account",
          "type": "address"
        }
      ],
      "name": "balanceOf",
      "outputs": [
        {
          "internalType": "uint256",
          "name": "",
          "type": "uint256"
        }
      ],
      "stateMutability": "view",
      "type": "function"
    },
    {
      "inputs": [
        {
          "internalType": "string",
          "name": "",
          "type": "string"
        }
      ],
      "name": "candidateObject",
      "outputs": [
        {
          "internalType": "string",
          "name": "names",
          "type": "string"
        },
        {
          "internalType": "uint256",
          "name": "age",
          "type": "uint256"
        },
        {
          "internalType": "string",
          "name": "idNumber",
          "type": "string"
        },
        {
          "internalType": "string",
          "name": "party",
          "type": "string"
        },
        {
          "internalType": "uint256",
          "name": "votes",
          "type": "uint256"
        },
        {
          "internalType": "bool",
          "name": "verified",
          "type": "bool"
        }
      ],
      "stateMutability": "view",
      "type": "function"
    },
    {
      "inputs": [
        {
          "internalType": "address",
          "name": "userAddress",
          "type": "address"
        },
        {
          "internalType": "string",
          "name": "domain",
          "type": "string"
        },
        {
          "internalType": "string",
          "name": "statement",
          "type": "string"
        },
        {
          "internalType": "string",
          "name": "uri",
          "type": "string"
        },
        {
          "internalType": "uint256",
          "name": "chainId",
          "type": "uint256"
        },
        {
          "internalType": "uint256",
          "name": "nonce",
          "type": "uint256"
        }
      ],
      "name": "createMessageHash",
      "outputs": [
        {
          "internalType": "bytes32",
          "name": "",
          "type": "bytes32"
        }
      ],
      "stateMutability": "pure",
      "type": "function"
    },
    {
      "inputs": [],
      "name": "decimals",
      "outputs": [
        {
          "internalType": "uint8",
          "name": "",
          "type": "uint8"
        }
      ],
      "stateMutability": "view",
      "type": "function"
    },
    {
      "inputs": [],
      "name": "endRegistrationAndStartVoting",
      "outputs": [],
      "stateMutability": "nonpayable",
      "type": "function"
    },
    {
      "inputs": [],
      "name": "getAllPositions",
      "outputs": [
        {
          "components": [
            {
              "internalType": "string",
              "name": "pName",
              "type": "string"
            },
            {
              "components": [
                {
                  "internalType": "string",
                  "name": "names",
                  "type": "string"
                },
                {
                  "internalType": "uint256",
                  "name": "age",
                  "type": "uint256"
                },
                {
                  "internalType": "string",
                  "name": "idNumber",
                  "type": "string"
                },
                {
                  "internalType": "string",
                  "name": "party",
                  "type": "string"
                },
                {
                  "internalType": "uint256",
                  "name": "votes",
                  "type": "uint256"
                },
                {
                  "internalType": "bool",
                  "name": "verified",
                  "type": "bool"
                }
              ],
              "internalType": "struct Voting.Candidate[]",
              "name": "candidates",
              "type": "tuple[]"
            }
          ],
          "internalType": "struct Voting.Position[]",
          "name": "",
          "type": "tuple[]"
        }
      ],
      "stateMutability": "view",
      "type": "function"
    },
    {
      "inputs": [],
      "name": "getCandidates",
      "outputs": [
        {
          "components": [
            {
              "internalType": "string",
              "name": "names",
              "type": "string"
            },
            {
              "internalType": "uint256",
              "name": "age",
              "type": "uint256"
            },
            {
              "internalType": "string",
              "name": "idNumber",
              "type": "string"
            },
            {
              "internalType": "string",
              "name": "party",
              "type": "string"
            },
            {
              "internalType": "uint256",
              "name": "votes",
              "type": "uint256"
            },
            {
              "internalType": "bool",
              "name": "verified",
              "type": "bool"
            }
          ],
          "internalType": "struct Voting.Candidate[]",
          "name": "",
          "type": "tuple[]"
        }
      ],
      "stateMutability": "view",
      "type": "function"
    },
    {
      "inputs": [],
      "name": "getPositionCount",
      "outputs": [
        {
          "internalType": "uint256",
          "name": "",
          "type": "uint256"
        }
      ],
      "stateMutability": "view",
      "type": "function"
    },
    {
      "inputs": [],
      "name": "getVoters",
      "outputs": [
        {
          "components": [
            {
              "internalType": "string",
              "name": "names",
              "type": "string"
            },
            {
              "internalType": "uint256",
              "name": "age",
              "type": "uint256"
            },
            {
              "internalType": "string",
              "name": "idNumber",
              "type": "string"
            },
            {
              "internalType": "bool",
              "name": "voted",
              "type": "bool"
            }
          ],
          "internalType": "struct Voting.Voter[]",
          "name": "",
          "type": "tuple[]"
        }
      ],
      "stateMutability": "view",
      "type": "function"
    },
    {
      "inputs": [
        {
          "internalType": "uint256",
          "name": "",
          "type": "uint256"
        }
      ],
      "name": "listOfCandidates",
      "outputs": [
        {
          "internalType": "string",
          "name": "names",
          "type": "string"
        },
        {
          "internalType": "uint256",
          "name": "age",
          "type": "uint256"
        },
        {
          "internalType": "string",
          "name": "idNumber",
          "type": "string"
        },
        {
          "internalType": "string",
          "name": "party",
          "type": "string"
        },
        {
          "internalType": "uint256",
          "name": "votes",
          "type": "uint256"
        },
        {
          "internalType": "bool",
          "name": "verified",
          "type": "bool"
        }
      ],
      "stateMutability": "view",
      "type": "function"
    },
    {
      "inputs": [
        {
          "internalType": "uint256",
          "name": "",
          "type": "uint256"
        }
      ],
      "name": "listOfPositions",
      "outputs": [
        {
          "internalType": "string",
          "name": "pName",
          "type": "string"
        }
      ],
      "stateMutability": "view",
      "type": "function"
    },
    {
      "inputs": [
        {
          "internalType": "uint256",
          "name": "",
          "type": "uint256"
        }
      ],
      "name": "listOfVoters",
      "outputs": [
        {
          "internalType": "string",
          "name": "names",
          "type": "string"
        },
        {
          "internalType": "uint256",
          "name": "age",
          "type": "uint256"
        },
        {
          "internalType": "string",
          "name": "idNumber",
          "type": "string"
        },
        {
          "internalType": "bool",
          "name": "voted",
          "type": "bool"
        }
      ],
      "stateMutability": "view",
      "type": "function"
    },
    {
      "inputs": [],
      "name": "name",
      "outputs": [
        {
          "internalType": "string",
          "name": "",
          "type": "string"
        }
      ],
      "stateMutability": "view",
      "type": "function"
    },
    {
      "inputs": [],
      "name": "owner",
      "outputs": [
        {
          "internalType": "address",
          "name": "",
          "type": "address"
        }
      ],
      "stateMutability": "view",
      "type": "function"
    },
    {
      "inputs": [
        {
          "internalType": "string",
          "name": "",
          "type": "string"
        }
      ],
      "name": "positions",
      "outputs": [
        {
          "internalType": "string",
          "name": "pName",
          "type": "string"
        }
      ],
      "stateMutability": "view",
      "type": "function"
    },
    {
      "inputs": [
        {
          "internalType": "string",
          "name": "_names",
          "type": "string"
        },
        {
          "internalType": "uint256",
          "name": "_age",
          "type": "uint256"
        },
        {
          "internalType": "string",
          "name": "_idNumber",
          "type": "string"
        },
        {
          "internalType": "string",
          "name": "_party",
          "type": "string"
        }
      ],
      "name": "registerCandidate",
      "outputs": [],
      "stateMutability": "nonpayable",
      "type": "function"
    },
    {
      "inputs": [
        {
          "internalType": "string",
          "name": "_names",
          "type": "string"
        },
        {
          "internalType": "uint256",
          "name": "_age",
          "type": "uint256"
        },
        {
          "internalType": "string",
          "name": "_idNumber",
          "type": "string"
        }
      ],
      "name": "registerVoter",
      "outputs": [
        {
          "internalType": "bool",
          "name": "",
          "type": "bool"
        }
      ],
      "stateMutability": "nonpayable",
      "type": "function"
    },
    {
      "inputs": [],
      "name": "registrationStarted",
      "outputs": [
        {
          "internalType": "bool",
          "name": "",
          "type": "bool"
        }
      ],
      "stateMutability": "view",
      "type": "function"
    },
    {
      "inputs": [],
      "name": "startRegistration",
      "outputs": [],
      "stateMutability": "nonpayable",
      "type": "function"
    },
    {
      "inputs": [],
      "name": "symbol",
      "outputs": [
        {
          "internalType": "string",
          "name": "",
          "type": "string"
        }
      ],
      "stateMutability": "view",
      "type": "function"
    },
    {
      "inputs": [],
      "name": "totalSupply",
      "outputs": [
        {
          "internalType": "uint256",
          "name": "",
          "type": "uint256"
        }
      ],
      "stateMutability": "view",
      "type": "function"
    },
    {
      "inputs": [
        {
          "internalType": "address",
          "name": "to",
          "type": "address"
        },
        {
          "internalType": "uint256",
          "name": "value",
          "type": "uint256"
        }
      ],
      "name": "transfer",
      "outputs": [
        {
          "internalType": "bool",
          "name": "",
          "type": "bool"
        }
      ],
      "stateMutability": "nonpayable",
      "type": "function"
    },
    {
      "inputs": [
        {
          "internalType": "address",
          "name": "from",
          "type": "address"
        },
        {
          "internalType": "address",
          "name": "to",
          "type": "address"
        },
        {
          "internalType": "uint256",
          "name": "value",
          "type": "uint256"
        }
      ],
      "name": "transferFrom",
      "outputs": [
        {
          "internalType": "bool",
          "name": "",
          "type": "bool"
        }
      ],
      "stateMutability": "nonpayable",
      "type": "function"
    },
    {
      "inputs": [
        {
          "internalType": "string",
          "name": "_idNumber",
          "type": "string"
        }
      ],
      "name": "verifyCandidate",
      "outputs": [],
      "stateMutability": "nonpayable",
      "type": "function"
    },
    {
      "inputs": [
        {
          "internalType": "bytes32",
          "name": "hash",
          "type": "bytes32"
        },
        {
          "internalType": "bytes",
          "name": "signature",
          "type": "bytes"
        }
      ],
      "name": "verifySignature",
      "outputs": [
        {
          "internalType": "bool",
          "name": "",
          "type": "bool"
        }
      ],
      "stateMutability": "view",
      "type": "function"
    },
    {
      "inputs": [
        {
          "internalType": "string",
          "name": "position",
          "type": "string"
        },
        {
          "internalType": "uint256",
          "name": "candidateIndex",
          "type": "uint256"
        }
      ],
      "name": "vote",
      "outputs": [],
      "stateMutability": "nonpayable",
      "type": "function"
    },
    {
      "inputs": [
        {
          "internalType": "string",
          "name": "",
          "type": "string"
        }
      ],
      "name": "voterObject",
      "outputs": [
        {
          "internalType": "string",
          "name": "names",
          "type": "string"
        },
        {
          "internalType": "uint256",
          "name": "age",
          "type": "uint256"
        },
        {
          "internalType": "string",
          "name": "idNumber",
          "type": "string"
        },
        {
          "internalType": "bool",
          "name": "voted",
          "type": "bool"
        }
      ],
      "stateMutability": "view",
      "type": "function"
    },
    {
      "inputs": [
        {
          "internalType": "address",
          "name": "",
          "type": "address"
        }
      ],
      "name": "voters",
      "outputs": [
        {
          "internalType": "string",
          "name": "names",
          "type": "string"
        },
        {
          "internalType": "uint256",
          "name": "age",
          "type": "uint256"
        },
        {
          "internalType": "string",
          "name": "idNumber",
          "type": "string"
        },
        {
          "internalType": "bool",
          "name": "voted",
          "type": "bool"
        }
      ],
      "stateMutability": "view",
      "type": "function"
    },
    {
      "inputs": [],
      "name": "votingStarted",
      "outputs": [
        {
          "internalType": "bool",
          "name": "",
          "type": "bool"
        }
      ],
      "stateMutability": "view",
      "type": "function"
    }
  ],
  "bytecode": "0x60806040526000600e60006101000a81548160ff0219169083151502179055506000600e60016101000a81548160ff02191690831515021790555034801561004657600080fd5b506040518060400160405280600581526020017f566f7465780000000000000000000000000000000000000000000000000000008152506040518060400160405280600481526020017f56544b4e0000000000000000000000000000000000000000000000000000000081525081600390816100c2919061036b565b5080600490816100d2919061036b565b50505033600560006101000a81548173ffffffffffffffffffffffffffffffffffffffff021916908373ffffffffffffffffffffffffffffffffffffffff16021790555061043d565b600081519050919050565b7f4e487b7100000000000000000000000000000000000000000000000000000000600052604160045260246000fd5b7f4e487b7100000000000000000000000000000000000000000000000000000000600052602260045260246000fd5b6000600282049050600182168061019c57607f821691505b6020821081036101af576101ae610155565b5b50919050565b60008190508160005260206000209050919050565b60006020601f8301049050919050565b600082821b905092915050565b6000600883026102177fffffffffffffffffffffffffffffffffffffffffffffffffffffffffffffffff826101da565b61022186836101da565b95508019841693508086168417925050509392505050565b6000819050919050565b6000819050919050565b600061026861026361025e84610239565b610243565b610239565b9050919050565b6000819050919050565b6102828361024d565b61029661028e8261026f565b8484546101e7565b825550505050565b600090565b6102ab61029e565b6102b6818484610279565b505050565b5b818110156102da576102cf6000826102a3565b6001810190506102bc565b5050565b601f82111561031f576102f0816101b5565b6102f9846101ca565b81016020851015610308578190505b61031c610314856101ca565b8301826102bb565b50505b505050565b600082821c905092915050565b600061034260001984600802610324565b1980831691505092915050565b600061035b8383610331565b9150826002028217905092915050565b6103748261011b565b67ffffffffffffffff81111561038d5761038c610126565b5b6103978254610184565b6103a28282856102de565b600060209050601f8311600181146103d557600084156103c3578287015190505b6103cd858261034f565b865550610435565b601f1984166103e3866101b5565b60005b8281101561040b578489015182556001820191506020850194506020810190506103e6565b868310156104285784890151610424601f891682610331565b8355505b6001600288020188555050505b505050505050565b615fff8061044c6000396000f3fe608060405234801561001057600080fd5b50600436106102115760003560e01c806371565d2e11610125578063a3ec138d116100ad578063be94ced71161007c578063be94ced714610667578063cdd7225314610685578063daca6f78146106a3578063dd62ed3e146106d3578063ffdd74961461070357610211565b8063a3ec138d146105cc578063a6385803146105ff578063a9059cbb1461061b578063abceaad21461064b57610211565b80638da5cb5b116100f45780638da5cb5b1461050c57806392d7df4a1461052a57806395d89b411461055f5780639a53cbea1461057d5780639dfa9065146105b057610211565b806371565d2e1461048457806371a6f465146104a057806381683476146104d057806383d948b7146104ee57610211565b806327aed42e116101a857806355d5d6111161017757806355d5d611146103ba5780635fbcc155146103c45780636636b91e146103f4578063676f86b01461042457806370a082311461045457610211565b806327aed42e1461032d578063313ce5671461034b57806332cb6b0c146103695780634a66e1ab1461038757610211565b806318160ddd116101e457806318160ddd1461028c57806318f56a0a146102aa5780631c64a33e146102c857806323b872dd146102fd57610211565b806306a49fce1461021657806306fdde0314610234578063095ea7b31461025257806310b8669514610282575b600080fd5b61021e610721565b60405161022b9190613e6e565b60405180910390f35b61023c610965565b6040516102499190613eda565b60405180910390f35b61026c60048036038101906102679190613f9a565b6109f7565b6040516102799190613fe9565b60405180910390f35b61028a610a1a565b005b610294610b93565b6040516102a19190614013565b60405180910390f35b6102b2610b9d565b6040516102bf91906141ba565b60405180910390f35b6102e260048036038101906102dd9190614311565b610ed2565b6040516102f49695949392919061435a565b60405180910390f35b610317600480360381019061031291906143d0565b6110c9565b6040516103249190613fe9565b60405180910390f35b6103356110f8565b6040516103429190613fe9565b60405180910390f35b61035361110b565b604051610360919061443f565b60405180910390f35b610371611114565b60405161037e9190614013565b60405180910390f35b6103a1600480360381019061039c9190614311565b611122565b6040516103b1949392919061445a565b60405180910390f35b6103c2611285565b005b6103de60048036038101906103d991906144ad565b611444565b6040516103eb91906145a7565b60405180910390f35b61040e600480360381019061040991906145c2565b6114b3565b60405161041b9190613fe9565b60405180910390f35b61043e60048036038101906104399190614311565b611803565b60405161044b9190613eda565b60405180910390f35b61046e6004803603810190610469919061464d565b6118bf565b60405161047b9190614013565b60405180910390f35b61049e6004803603810190610499919061467a565b611907565b005b6104ba60048036038101906104b59190614735565b611c63565b6040516104c79190613eda565b60405180910390f35b6104d8611d19565b6040516104e59190614013565b60405180910390f35b6104f6611d26565b6040516105039190613fe9565b60405180910390f35b610514611d39565b6040516105219190614771565b60405180910390f35b610544600480360381019061053f9190614735565b611d5f565b6040516105569695949392919061435a565b60405180910390f35b610567611f50565b6040516105749190613eda565b60405180910390f35b61059760048036038101906105929190614735565b611fe2565b6040516105a7949392919061445a565b60405180910390f35b6105ca60048036038101906105c59190614311565b61213f565b005b6105e660048036038101906105e1919061464d565b612306565b6040516105f6949392919061445a565b60405180910390f35b6106196004803603810190610614919061478c565b612453565b005b61063560048036038101906106309190613f9a565b612727565b6040516106429190613fe9565b60405180910390f35b610665600480360381019061066091906148ce565b61274a565b005b61066f6129e2565b60405161067c9190614013565b60405180910390f35b61068d6129ee565b60405161069a9190614a43565b60405180910390f35b6106bd60048036038101906106b89190614b32565b612b96565b6040516106ca9190613fe9565b60405180910390f35b6106ed60048036038101906106e89190614b8e565b612c09565b6040516106fa9190614013565b60405180910390f35b61070b612c90565b6040516107189190614013565b60405180910390f35b60606007805480602002602001604051908101604052809291908181526020016000905b8282101561095c57838290600052602060002090600602016040518060c001604052908160008201805461077890614bfd565b80601f01602080910402602001604051908101604052809291908181526020018280546107a490614bfd565b80156107f15780601f106107c6576101008083540402835291602001916107f1565b820191906000526020600020905b8154815290600101906020018083116107d457829003601f168201915b505050505081526020016001820154815260200160028201805461081490614bfd565b80601f016020809104026020016040519081016040528092919081815260200182805461084090614bfd565b801561088d5780601f106108625761010080835404028352916020019161088d565b820191906000526020600020905b81548152906001019060200180831161087057829003601f168201915b505050505081526020016003820180546108a690614bfd565b80601f01602080910402602001604051908101604052809291908181526020018280546108d290614bfd565b801561091f5780601f106108f45761010080835404028352916020019161091f565b820191906000526020600020905b81548152906001019060200180831161090257829003601f168201915b50505050508152602001600482015481526020016005820160009054906101000a900460ff16151515158152505081526020019060010190610745565b50505050905090565b60606003805461097490614bfd565b80601f01602080910402602001604051908101604052809291908181526020018280546109a090614bfd565b80156109ed5780601f106109c2576101008083540402835291602001916109ed565b820191906000526020600020905b8154815290600101906020018083116109d057829003601f168201915b5050505050905090565b600080610a02612c9c565b9050610a0f818585612ca4565b600191505092915050565b600560009054906101000a900473ffffffffffffffffffffffffffffffffffffffff1673ffffffffffffffffffffffffffffffffffffffff163373ffffffffffffffffffffffffffffffffffffffff1614610aaa576040517f08c379a0000000000000000000000000000000000000000000000000000000008152600401610aa190614c7a565b60405180910390fd5b600e60009054906101000a900460ff1615610afa576040517f08c379a0000000000000000000000000000000000000000000000000000000008152600401610af190614d0c565b60405180910390fd5b600e60019054906101000a900460ff1615610b4a576040517f08c379a0000000000000000000000000000000000000000000000000000000008152600401610b4190614d9e565b60405180910390fd5b6001600e60006101000a81548160ff0219169083151502179055507f82e6c84abd647d1b4fae9bee1859f2642e5443af0ff900d4af83a93c2bf4151260405160405180910390a1565b6000600254905090565b60606008805480602002602001604051908101604052809291908181526020016000905b82821015610ec95783829060005260206000209060020201604051806040016040529081600082018054610bf490614bfd565b80601f0160208091040260200160405190810160405280929190818152602001828054610c2090614bfd565b8015610c6d5780601f10610c4257610100808354040283529160200191610c6d565b820191906000526020600020905b815481529060010190602001808311610c5057829003601f168201915b5050505050815260200160018201805480602002602001604051908101604052809291908181526020016000905b82821015610eb257838290600052602060002090600602016040518060c0016040529081600082018054610cce90614bfd565b80601f0160208091040260200160405190810160405280929190818152602001828054610cfa90614bfd565b8015610d475780601f10610d1c57610100808354040283529160200191610d47565b820191906000526020600020905b815481529060010190602001808311610d2a57829003601f168201915b5050505050815260200160018201548152602001600282018054610d6a90614bfd565b80601f0160208091040260200160405190810160405280929190818152602001828054610d9690614bfd565b8015610de35780601f10610db857610100808354040283529160200191610de3565b820191906000526020600020905b815481529060010190602001808311610dc657829003601f168201915b50505050508152602001600382018054610dfc90614bfd565b80601f0160208091040260200160405190810160405280929190818152602001828054610e2890614bfd565b8015610e755780601f10610e4a57610100808354040283529160200191610e75565b820191906000526020600020905b815481529060010190602001808311610e5857829003601f168201915b50505050508152602001600482015481526020016005820160009054906101000a900460ff16151515158152505081526020019060010190610c9b565b505050508152505081526020019060010190610bc1565b50505050905090565b600a81805160208101820180518482526020830160208501208183528095505050505050600091509050806000018054610f0b90614bfd565b80601f0160208091040260200160405190810160405280929190818152602001828054610f3790614bfd565b8015610f845780601f10610f5957610100808354040283529160200191610f84565b820191906000526020600020905b815481529060010190602001808311610f6757829003601f168201915b505050505090806001015490806002018054610f9f90614bfd565b80601f0160208091040260200160405190810160405280929190818152602001828054610fcb90614bfd565b80156110185780601f10610fed57610100808354040283529160200191611018565b820191906000526020600020905b815481529060010190602001808311610ffb57829003601f168201915b50505050509080600301805461102d90614bfd565b80601f016020809104026020016040519081016040528092919081815260200182805461105990614bfd565b80156110a65780601f1061107b576101008083540402835291602001916110a6565b820191906000526020600020905b81548152906001019060200180831161108957829003601f168201915b5050505050908060040154908060050160009054906101000a900460ff16905086565b6000806110d4612c9c565b90506110e1858285612cb6565b6110ec858585612d4a565b60019150509392505050565b600e60009054906101000a900460ff1681565b60006012905090565b69d3c21bcecceda100000081565b60098180516020810182018051848252602083016020850120818352809550505050505060009150905080600001805461115b90614bfd565b80601f016020809104026020016040519081016040528092919081815260200182805461118790614bfd565b80156111d45780601f106111a9576101008083540402835291602001916111d4565b820191906000526020600020905b8154815290600101906020018083116111b757829003601f168201915b5050505050908060010154908060020180546111ef90614bfd565b80601f016020809104026020016040519081016040528092919081815260200182805461121b90614bfd565b80156112685780601f1061123d57610100808354040283529160200191611268565b820191906000526020600020905b81548152906001019060200180831161124b57829003601f168201915b5050505050908060030160009054906101000a900460ff16905084565b600560009054906101000a900473ffffffffffffffffffffffffffffffffffffffff1673ffffffffffffffffffffffffffffffffffffffff163373ffffffffffffffffffffffffffffffffffffffff1614611315576040517f08c379a000000000000000000000000000000000000000000000000000000000815260040161130c90614c7a565b60405180910390fd5b600e60009054906101000a900460ff16611364576040517f08c379a000000000000000000000000000000000000000000000000000000000815260040161135b90614e30565b60405180910390fd5b600e60019054906101000a900460ff16156113b4576040517f08c379a00000000000000000000000000000000000000000000000000000000081526004016113ab90614e9c565b60405180910390fd5b6000600e60006101000a81548160ff0219169083151502179055506001600e60016101000a81548160ff0219169083151502179055507f2ee88f50f05558e39b34a18214ff6a6adc091504772084c6ce7899354bec0aa460405160405180910390a17f877e2548498f42b7975a186b94ef1d32c86d420b7b806dd2be2bea293b89590460405160405180910390a1565b6000856114688873ffffffffffffffffffffffffffffffffffffffff166014612e3e565b868661147387613084565b61147c87613084565b604051602001611491969594939291906151a4565b6040516020818303038152906040528051906020012090509695505050505050565b6000600e60009054906101000a900460ff16611504576040517f08c379a00000000000000000000000000000000000000000000000000000000081526004016114fb90614e30565b60405180910390fd5b600e60019054906101000a900460ff1615611554576040517f08c379a000000000000000000000000000000000000000000000000000000000815260040161154b906152fd565b60405180910390fd5b6000600983604051611566919061531d565b9081526020016040518091039020600001805461158290614bfd565b9050146115c4576040517f08c379a00000000000000000000000000000000000000000000000000000000081526004016115bb90615380565b60405180910390fd5b600060405180608001604052808681526020018581526020018481526020016000151581525090506006819080600181540180825580915050600190039060005260206000209060040201600090919091909150600082015181600001908161162d919061554c565b5060208201518160010155604082015181600201908161164d919061554c565b5060608201518160030160006101000a81548160ff021916908315150217905550505080600984604051611681919061531d565b908152602001604051809103902060008201518160000190816116a4919061554c565b506020820151816001015560408201518160020190816116c4919061554c565b5060608201518160030160006101000a81548160ff02191690831515021790555090505080600c60003373ffffffffffffffffffffffffffffffffffffffff1673ffffffffffffffffffffffffffffffffffffffff168152602001908152602001600020600082015181600001908161173d919061554c565b5060208201518160010155604082015181600201908161175d919061554c565b5060608201518160030160006101000a81548160ff02191690831515021790555090505061179333674563918244f40000613152565b50826040516117a2919061531d565b6040518091039020856040516117b8919061531d565b60405180910390207f754a5f7c9336f3562d73dacebf51de10da957ae9dfcae4fbfb93733ece3dd5aa866040516117ef9190614013565b60405180910390a360019150509392505050565b600b8180516020810182018051848252602083016020850120818352809550505050505060009150905080600001805461183c90614bfd565b80601f016020809104026020016040519081016040528092919081815260200182805461186890614bfd565b80156118b55780601f1061188a576101008083540402835291602001916118b5565b820191906000526020600020905b81548152906001019060200180831161189857829003601f168201915b5050505050905081565b60008060008373ffffffffffffffffffffffffffffffffffffffff1673ffffffffffffffffffffffffffffffffffffffff168152602001908152602001600020549050919050565b600e60009054906101000a900460ff16611956576040517f08c379a000000000000000000000000000000000000000000000000000000000815260040161194d90614e30565b60405180910390fd5b600e60019054906101000a900460ff16156119a6576040517f08c379a000000000000000000000000000000000000000000000000000000000815260040161199d906152fd565b60405180910390fd5b6000600a836040516119b8919061531d565b908152602001604051809103902060000180546119d490614bfd565b905014611a16576040517f08c379a0000000000000000000000000000000000000000000000000000000008152600401611a0d9061566a565b60405180910390fd5b6000600983604051611a28919061531d565b90815260200160405180910390206000018054611a4490614bfd565b905003611a86576040517f08c379a0000000000000000000000000000000000000000000000000000000008152600401611a7d906156d6565b60405180910390fd5b60006040518060c001604052808681526020018581526020018481526020018381526020016000815260200160001515815250905060078190806001815401808255809150506001900390600052602060002090600602016000909190919091506000820151816000019081611afc919061554c565b50602082015181600101556040820151816002019081611b1c919061554c565b506060820151816003019081611b32919061554c565b506080820151816004015560a08201518160050160006101000a81548160ff021916908315150217905550505080600a84604051611b70919061531d565b90815260200160405180910390206000820151816000019081611b93919061554c565b50602082015181600101556040820151816002019081611bb3919061554c565b506060820151816003019081611bc9919061554c565b506080820151816004015560a08201518160050160006101000a81548160ff02191690831515021790555090505082604051611c05919061531d565b604051809103902085604051611c1b919061531d565b60405180910390207f8afd5f09f2c1c39b88e6ee97fcf10294be6e0486fd829b85f61d0ab7aa008acd8685604051611c549291906156f6565b60405180910390a35050505050565b60088181548110611c7357600080fd5b9060005260206000209060020201600091509050806000018054611c9690614bfd565b80601f0160208091040260200160405190810160405280929190818152602001828054611cc290614bfd565b8015611d0f5780601f10611ce457610100808354040283529160200191611d0f565b820191906000526020600020905b815481529060010190602001808311611cf257829003601f168201915b5050505050905081565b6000600880549050905090565b600e60019054906101000a900460ff1681565b600560009054906101000a900473ffffffffffffffffffffffffffffffffffffffff1681565b60078181548110611d6f57600080fd5b9060005260206000209060060201600091509050806000018054611d9290614bfd565b80601f0160208091040260200160405190810160405280929190818152602001828054611dbe90614bfd565b8015611e0b5780601f10611de057610100808354040283529160200191611e0b565b820191906000526020600020905b815481529060010190602001808311611dee57829003601f168201915b505050505090806001015490806002018054611e2690614bfd565b80601f0160208091040260200160405190810160405280929190818152602001828054611e5290614bfd565b8015611e9f5780601f10611e7457610100808354040283529160200191611e9f565b820191906000526020600020905b815481529060010190602001808311611e8257829003601f168201915b505050505090806003018054611eb490614bfd565b80601f0160208091040260200160405190810160405280929190818152602001828054611ee090614bfd565b8015611f2d5780601f10611f0257610100808354040283529160200191611f2d565b820191906000526020600020905b815481529060010190602001808311611f1057829003601f168201915b5050505050908060040154908060050160009054906101000a900460ff16905086565b606060048054611f5f90614bfd565b80601f0160208091040260200160405190810160405280929190818152602001828054611f8b90614bfd565b8015611fd85780601f10611fad57610100808354040283529160200191611fd8565b820191906000526020600020905b815481529060010190602001808311611fbb57829003601f168201915b5050505050905090565b60068181548110611ff257600080fd5b906000526020600020906004020160009150905080600001805461201590614bfd565b80601f016020809104026020016040519081016040528092919081815260200182805461204190614bfd565b801561208e5780601f106120635761010080835404028352916020019161208e565b820191906000526020600020905b81548152906001019060200180831161207157829003601f168201915b5050505050908060010154908060020180546120a990614bfd565b80601f01602080910402602001604051908101604052809291908181526020018280546120d590614bfd565b80156121225780601f106120f757610100808354040283529160200191612122565b820191906000526020600020905b81548152906001019060200180831161210557829003601f168201915b5050505050908060030160009054906101000a900460ff16905084565b600560009054906101000a900473ffffffffffffffffffffffffffffffffffffffff1673ffffffffffffffffffffffffffffffffffffffff163373ffffffffffffffffffffffffffffffffffffffff16146121cf576040517f08c379a00000000000000000000000000000000000000000000000000000000081526004016121c690614c7a565b60405180910390fd5b600a816040516121df919061531d565b908152602001604051809103902060050160009054906101000a900460ff161561223e576040517f08c379a000000000000000000000000000000000000000000000000000000000815260040161223590615772565b60405180910390fd5b6001600a82604051612250919061531d565b908152602001604051809103902060050160006101000a81548160ff02191690831515021790555061228a33678ac7230489e80000613152565b5080604051612299919061531d565b6040518091039020600a826040516122b1919061531d565b90815260200160405180910390206000016040516122cf9190615815565b60405180910390207fb78543f054c768084f86f0e559d1e007998ca69729eeffc4b727baa388934a3260405160405180910390a350565b600c60205280600052604060002060009150905080600001805461232990614bfd565b80601f016020809104026020016040519081016040528092919081815260200182805461235590614bfd565b80156123a25780601f10612377576101008083540402835291602001916123a2565b820191906000526020600020905b81548152906001019060200180831161238557829003601f168201915b5050505050908060010154908060020180546123bd90614bfd565b80601f01602080910402602001604051908101604052809291908181526020018280546123e990614bfd565b80156124365780601f1061240b57610100808354040283529160200191612436565b820191906000526020600020905b81548152906001019060200180831161241957829003601f168201915b5050505050908060030160009054906101000a900460ff16905084565b600e60009054906101000a900460ff16156124a3576040517f08c379a000000000000000000000000000000000000000000000000000000000815260040161249a9061589e565b60405180910390fd5b600e60019054906101000a900460ff166124f2576040517f08c379a00000000000000000000000000000000000000000000000000000000081526004016124e99061590a565b60405180910390fd5b6000600c60003373ffffffffffffffffffffffffffffffffffffffff1673ffffffffffffffffffffffffffffffffffffffff16815260200190815260200160002090508060030160009054906101000a900460ff1615612587576040517f08c379a000000000000000000000000000000000000000000000000000000000815260040161257e90615976565b60405180910390fd5b6000600b84604051612599919061531d565b908152602001604051809103902060010180549050116125ee576040517f08c379a00000000000000000000000000000000000000000000000000000000081526004016125e5906159e2565b60405180910390fd5b600b836040516125fe919061531d565b9081526020016040518091039020600101805490508210612654576040517f08c379a000000000000000000000000000000000000000000000000000000000815260040161264b90615a4e565b60405180910390fd5b6001600b84604051612666919061531d565b9081526020016040518091039020600101838154811061268957612688615a6e565b5b906000526020600020906006020160040160008282546126a99190615acc565b9250508190555060018160030160006101000a81548160ff0219169083151502179055503373ffffffffffffffffffffffffffffffffffffffff167f477d7faf347a03679fabd88feea150c41667473fc8412962f607fb7503f1bd4382600201858560405161271a93929190615b84565b60405180910390a2505050565b600080612732612c9c565b905061273f818585612d4a565b600191505092915050565b600560009054906101000a900473ffffffffffffffffffffffffffffffffffffffff1673ffffffffffffffffffffffffffffffffffffffff163373ffffffffffffffffffffffffffffffffffffffff16146127da576040517f08c379a00000000000000000000000000000000000000000000000000000000081526004016127d190614c7a565b60405180910390fd5b60005b81518110156129de57600d8282815181106127fb576127fa615a6e565b5b6020026020010151604051612810919061531d565b908152602001604051809103902060009054906101000a900460ff161561286c576040517f08c379a000000000000000000000000000000000000000000000000000000000815260040161286390615c15565b60405180910390fd5b6000600b83838151811061288357612882615a6e565b5b6020026020010151604051612898919061531d565b908152602001604051809103902090508282815181106128bb576128ba615a6e565b5b60200260200101518160000190816128d3919061554c565b506008819080600181540180825580915050600190039060005260206000209060020201600090919091909150600082018160000190816129149190615c4b565b50600182018160010190805461292b929190613ab1565b5050506001600d84848151811061294557612944615a6e565b5b602002602001015160405161295a919061531d565b908152602001604051809103902060006101000a81548160ff0219169083151502179055507ff635339f4b5986d632e76f25211c57346b4b4ca3aa13c1ba323ac125637314568383815181106129b3576129b2615a6e565b5b60200260200101516040516129c89190613eda565b60405180910390a15080806001019150506127dd565b5050565b674563918244f4000081565b60606006805480602002602001604051908101604052809291908181526020016000905b82821015612b8d5783829060005260206000209060040201604051806080016040529081600082018054612a4590614bfd565b80601f0160208091040260200160405190810160405280929190818152602001828054612a7190614bfd565b8015612abe5780601f10612a9357610100808354040283529160200191612abe565b820191906000526020600020905b815481529060010190602001808311612aa157829003601f168201915b5050505050815260200160018201548152602001600282018054612ae190614bfd565b80601f0160208091040260200160405190810160405280929190818152602001828054612b0d90614bfd565b8015612b5a5780601f10612b2f57610100808354040283529160200191612b5a565b820191906000526020600020905b815481529060010190602001808311612b3d57829003601f168201915b505050505081526020016003820160009054906101000a900460ff16151515158152505081526020019060010190612a12565b50505050905090565b60008083604051602001612baa9190615da0565b6040516020818303038152906040528051906020012090506000612bce8285613200565b90503373ffffffffffffffffffffffffffffffffffffffff168173ffffffffffffffffffffffffffffffffffffffff16149250505092915050565b6000600160008473ffffffffffffffffffffffffffffffffffffffff1673ffffffffffffffffffffffffffffffffffffffff16815260200190815260200160002060008373ffffffffffffffffffffffffffffffffffffffff1673ffffffffffffffffffffffffffffffffffffffff16815260200190815260200160002054905092915050565b678ac7230489e8000081565b600033905090565b612cb1838383600161322c565b505050565b6000612cc28484612c09565b90507fffffffffffffffffffffffffffffffffffffffffffffffffffffffffffffffff8114612d445781811015612d34578281836040517ffb8f41b2000000000000000000000000000000000000000000000000000000008152600401612d2b93929190615dc6565b60405180910390fd5b612d438484848403600061322c565b5b50505050565b600073ffffffffffffffffffffffffffffffffffffffff168373ffffffffffffffffffffffffffffffffffffffff1603612dbc5760006040517f96c6fd1e000000000000000000000000000000000000000000000000000000008152600401612db39190614771565b60405180910390fd5b600073ffffffffffffffffffffffffffffffffffffffff168273ffffffffffffffffffffffffffffffffffffffff1603612e2e5760006040517fec442f05000000000000000000000000000000000000000000000000000000008152600401612e259190614771565b60405180910390fd5b612e39838383613403565b505050565b6060600083905060006002846002612e569190615dfd565b612e609190615acc565b67ffffffffffffffff811115612e7957612e786141e6565b5b6040519080825280601f01601f191660200182016040528015612eab5781602001600182028036833780820191505090505b5090507f300000000000000000000000000000000000000000000000000000000000000081600081518110612ee357612ee2615a6e565b5b60200101907effffffffffffffffffffffffffffffffffffffffffffffffffffffffffffff1916908160001a9053507f780000000000000000000000000000000000000000000000000000000000000081600181518110612f4757612f46615a6e565b5b60200101907effffffffffffffffffffffffffffffffffffffffffffffffffffffffffffff1916908160001a90535060006001856002612f879190615dfd565b612f919190615acc565b90505b6001811115613031577f3031323334353637383961626364656600000000000000000000000000000000600f841660108110612fd357612fd2615a6e565b5b1a60f81b828281518110612fea57612fe9615a6e565b5b60200101907effffffffffffffffffffffffffffffffffffffffffffffffffffffffffffff1916908160001a905350600483901c92508061302a90615e3f565b9050612f94565b50600082146130795784846040517fe22e27eb000000000000000000000000000000000000000000000000000000008152600401613070929190615e68565b60405180910390fd5b809250505092915050565b60606000600161309384613628565b01905060008167ffffffffffffffff8111156130b2576130b16141e6565b5b6040519080825280601f01601f1916602001820160405280156130e45781602001600182028036833780820191505090505b509050600082602001820190505b600115613147578080600190039150507f3031323334353637383961626364656600000000000000000000000000000000600a86061a8153600a858161313b5761313a615e91565b5b049450600085036130f2575b819350505050919050565b600069d3c21bcecceda1000000613167610b93565b836131729190615acc565b11156131b3576040517f08c379a00000000000000000000000000000000000000000000000000000000081526004016131aa90615f0c565b60405180910390fd5b6131bd838361377b565b7fcda531bfd68624f13205c0a23cd4d5a7f09792cbb399603114f2b04aaa1bf5cf83836040516131ee929190615f2c565b60405180910390a16001905092915050565b60008060008061321086866137fd565b9250925092506132208282613859565b82935050505092915050565b600073ffffffffffffffffffffffffffffffffffffffff168473ffffffffffffffffffffffffffffffffffffffff160361329e5760006040517fe602df050000000000000000000000000000000000000000000000000000000081526004016132959190614771565b60405180910390fd5b600073ffffffffffffffffffffffffffffffffffffffff168373ffffffffffffffffffffffffffffffffffffffff16036133105760006040517f94280d620000000000000000000000000000000000000000000000000000000081526004016133079190614771565b60405180910390fd5b81600160008673ffffffffffffffffffffffffffffffffffffffff1673ffffffffffffffffffffffffffffffffffffffff16815260200190815260200160002060008573ffffffffffffffffffffffffffffffffffffffff1673ffffffffffffffffffffffffffffffffffffffff1681526020019081526020016000208190555080156133fd578273ffffffffffffffffffffffffffffffffffffffff168473ffffffffffffffffffffffffffffffffffffffff167f8c5be1e5ebec7d5bd14f71427d1e84f3dd0314c0f7b2291e5b200ac8c7c3b925846040516133f49190614013565b60405180910390a35b50505050565b600073ffffffffffffffffffffffffffffffffffffffff168373ffffffffffffffffffffffffffffffffffffffff16036134555780600260008282546134499190615acc565b92505081905550613528565b60008060008573ffffffffffffffffffffffffffffffffffffffff1673ffffffffffffffffffffffffffffffffffffffff168152602001908152602001600020549050818110156134e1578381836040517fe450d38c0000000000000000000000000000000000000000000000000000000081526004016134d893929190615dc6565b60405180910390fd5b8181036000808673ffffffffffffffffffffffffffffffffffffffff1673ffffffffffffffffffffffffffffffffffffffff16815260200190815260200160002081905550505b600073ffffffffffffffffffffffffffffffffffffffff168273ffffffffffffffffffffffffffffffffffffffff160361357157806002600082825403925050819055506135be565b806000808473ffffffffffffffffffffffffffffffffffffffff1673ffffffffffffffffffffffffffffffffffffffff168152602001908152602001600020600082825401925050819055505b8173ffffffffffffffffffffffffffffffffffffffff168373ffffffffffffffffffffffffffffffffffffffff167fddf252ad1be2c89b69c2b068fc378daa952ba7f163c4a11628f55a4df523b3ef8360405161361b9190614013565b60405180910390a3505050565b600080600090507a184f03e93ff9f4daa797ed6e38ed64bf6a1f0100000000000000008310613686577a184f03e93ff9f4daa797ed6e38ed64bf6a1f010000000000000000838161367c5761367b615e91565b5b0492506040810190505b6d04ee2d6d415b85acef810000000083106136c3576d04ee2d6d415b85acef810000000083816136b9576136b8615e91565b5b0492506020810190505b662386f26fc1000083106136f257662386f26fc1000083816136e8576136e7615e91565b5b0492506010810190505b6305f5e100831061371b576305f5e100838161371157613710615e91565b5b0492506008810190505b612710831061374057612710838161373657613735615e91565b5b0492506004810190505b60648310613763576064838161375957613758615e91565b5b0492506002810190505b600a8310613772576001810190505b80915050919050565b600073ffffffffffffffffffffffffffffffffffffffff168273ffffffffffffffffffffffffffffffffffffffff16036137ed5760006040517fec442f050000000000000000000000000000000000000000000000000000000081526004016137e49190614771565b60405180910390fd5b6137f960008383613403565b5050565b600080600060418451036138425760008060006020870151925060408701519150606087015160001a9050613834888285856139bd565b955095509550505050613852565b60006002855160001b9250925092505b9250925092565b6000600381111561386d5761386c615f55565b5b8260038111156138805761387f615f55565b5b03156139b9576001600381111561389a57613899615f55565b5b8260038111156138ad576138ac615f55565b5b036138e4576040517ff645eedf00000000000000000000000000000000000000000000000000000000815260040160405180910390fd5b600260038111156138f8576138f7615f55565b5b82600381111561390b5761390a615f55565b5b03613950578060001c6040517ffce698f70000000000000000000000000000000000000000000000000000000081526004016139479190614013565b60405180910390fd5b60038081111561396357613962615f55565b5b82600381111561397657613975615f55565b5b036139b857806040517fd78bce0c0000000000000000000000000000000000000000000000000000000081526004016139af91906145a7565b60405180910390fd5b5b5050565b60008060007f7fffffffffffffffffffffffffffffff5d576e7357a4501ddfe92f46681b20a08460001c11156139fd576000600385925092509250613aa7565b600060018888888860405160008152602001604052604051613a229493929190615f84565b6020604051602081039080840390855afa158015613a44573d6000803e3d6000fd5b505050602060405103519050600073ffffffffffffffffffffffffffffffffffffffff168173ffffffffffffffffffffffffffffffffffffffff1603613a9857600060016000801b93509350935050613aa7565b8060008060001b935093509350505b9450945094915050565b828054828255906000526020600020906006028101928215613b785760005260206000209160060282015b82811115613b7757828260008201816000019081613afa9190615c4b565b506001820154816001015560028201816002019081613b199190615c4b565b5060038201816003019081613b2e9190615c4b565b50600482015481600401556005820160009054906101000a900460ff168160050160006101000a81548160ff021916908315150217905550505091600601919060060190613adc565b5b509050613b859190613b89565b5090565b5b80821115613bf05760008082016000613ba39190613bf4565b6001820160009055600282016000613bbb9190613bf4565b600382016000613bcb9190613bf4565b60048201600090556005820160006101000a81549060ff021916905550600601613b8a565b5090565b508054613c0090614bfd565b6000825580601f10613c125750613c31565b601f016020900490600052602060002090810190613c309190613c34565b5b50565b5b80821115613c4d576000816000905550600101613c35565b5090565b600081519050919050565b600082825260208201905092915050565b6000819050602082019050919050565b600081519050919050565b600082825260208201905092915050565b60005b83811015613cb7578082015181840152602081019050613c9c565b60008484015250505050565b6000601f19601f8301169050919050565b6000613cdf82613c7d565b613ce98185613c88565b9350613cf9818560208601613c99565b613d0281613cc3565b840191505092915050565b6000819050919050565b613d2081613d0d565b82525050565b60008115159050919050565b613d3b81613d26565b82525050565b600060c0830160008301518482036000860152613d5e8282613cd4565b9150506020830151613d736020860182613d17565b5060408301518482036040860152613d8b8282613cd4565b91505060608301518482036060860152613da58282613cd4565b9150506080830151613dba6080860182613d17565b5060a0830151613dcd60a0860182613d32565b508091505092915050565b6000613de48383613d41565b905092915050565b6000602082019050919050565b6000613e0482613c51565b613e0e8185613c5c565b935083602082028501613e2085613c6d565b8060005b85811015613e5c5784840389528151613e3d8582613dd8565b9450613e4883613dec565b925060208a01995050600181019050613e24565b50829750879550505050505092915050565b60006020820190508181036000830152613e888184613df9565b905092915050565b600082825260208201905092915050565b6000613eac82613c7d565b613eb68185613e90565b9350613ec6818560208601613c99565b613ecf81613cc3565b840191505092915050565b60006020820190508181036000830152613ef48184613ea1565b905092915050565b6000604051905090565b600080fd5b600080fd5b600073ffffffffffffffffffffffffffffffffffffffff82169050919050565b6000613f3b82613f10565b9050919050565b613f4b81613f30565b8114613f5657600080fd5b50565b600081359050613f6881613f42565b92915050565b613f7781613d0d565b8114613f8257600080fd5b50565b600081359050613f9481613f6e565b92915050565b60008060408385031215613fb157613fb0613f06565b5b6000613fbf85828601613f59565b9250506020613fd085828601613f85565b9150509250929050565b613fe381613d26565b82525050565b6000602082019050613ffe6000830184613fda565b92915050565b61400d81613d0d565b82525050565b60006020820190506140286000830184614004565b92915050565b600081519050919050565b600082825260208201905092915050565b6000819050602082019050919050565b600082825260208201905092915050565b600061407682613c51565b614080818561405a565b93508360208202850161409285613c6d565b8060005b858110156140ce57848403895281516140af8582613dd8565b94506140ba83613dec565b925060208a01995050600181019050614096565b50829750879550505050505092915050565b600060408301600083015184820360008601526140fd8282613cd4565b91505060208301518482036020860152614117828261406b565b9150508091505092915050565b600061413083836140e0565b905092915050565b6000602082019050919050565b60006141508261402e565b61415a8185614039565b93508360208202850161416c8561404a565b8060005b858110156141a857848403895281516141898582614124565b945061419483614138565b925060208a01995050600181019050614170565b50829750879550505050505092915050565b600060208201905081810360008301526141d48184614145565b905092915050565b600080fd5b600080fd5b7f4e487b7100000000000000000000000000000000000000000000000000000000600052604160045260246000fd5b61421e82613cc3565b810181811067ffffffffffffffff8211171561423d5761423c6141e6565b5b80604052505050565b6000614250613efc565b905061425c8282614215565b919050565b600067ffffffffffffffff82111561427c5761427b6141e6565b5b61428582613cc3565b9050602081019050919050565b82818337600083830152505050565b60006142b46142af84614261565b614246565b9050828152602081018484840111156142d0576142cf6141e1565b5b6142db848285614292565b509392505050565b600082601f8301126142f8576142f76141dc565b5b81356143088482602086016142a1565b91505092915050565b60006020828403121561432757614326613f06565b5b600082013567ffffffffffffffff81111561434557614344613f0b565b5b614351848285016142e3565b91505092915050565b600060c08201905081810360008301526143748189613ea1565b90506143836020830188614004565b81810360408301526143958187613ea1565b905081810360608301526143a98186613ea1565b90506143b86080830185614004565b6143c560a0830184613fda565b979650505050505050565b6000806000606084860312156143e9576143e8613f06565b5b60006143f786828701613f59565b935050602061440886828701613f59565b925050604061441986828701613f85565b9150509250925092565b600060ff82169050919050565b61443981614423565b82525050565b60006020820190506144546000830184614430565b92915050565b600060808201905081810360008301526144748187613ea1565b90506144836020830186614004565b81810360408301526144958185613ea1565b90506144a46060830184613fda565b95945050505050565b60008060008060008060c087890312156144ca576144c9613f06565b5b60006144d889828a01613f59565b965050602087013567ffffffffffffffff8111156144f9576144f8613f0b565b5b61450589828a016142e3565b955050604087013567ffffffffffffffff81111561452657614525613f0b565b5b61453289828a016142e3565b945050606087013567ffffffffffffffff81111561455357614552613f0b565b5b61455f89828a016142e3565b935050608061457089828a01613f85565b92505060a061458189828a01613f85565b9150509295509295509295565b6000819050919050565b6145a18161458e565b82525050565b60006020820190506145bc6000830184614598565b92915050565b6000806000606084860312156145db576145da613f06565b5b600084013567ffffffffffffffff8111156145f9576145f8613f0b565b5b614605868287016142e3565b935050602061461686828701613f85565b925050604084013567ffffffffffffffff81111561463757614636613f0b565b5b614643868287016142e3565b9150509250925092565b60006020828403121561466357614662613f06565b5b600061467184828501613f59565b91505092915050565b6000806000806080858703121561469457614693613f06565b5b600085013567ffffffffffffffff8111156146b2576146b1613f0b565b5b6146be878288016142e3565b94505060206146cf87828801613f85565b935050604085013567ffffffffffffffff8111156146f0576146ef613f0b565b5b6146fc878288016142e3565b925050606085013567ffffffffffffffff81111561471d5761471c613f0b565b5b614729878288016142e3565b91505092959194509250565b60006020828403121561474b5761474a613f06565b5b600061475984828501613f85565b91505092915050565b61476b81613f30565b82525050565b60006020820190506147866000830184614762565b92915050565b600080604083850312156147a3576147a2613f06565b5b600083013567ffffffffffffffff8111156147c1576147c0613f0b565b5b6147cd858286016142e3565b92505060206147de85828601613f85565b9150509250929050565b600067ffffffffffffffff821115614803576148026141e6565b5b602082029050602081019050919050565b600080fd5b600061482c614827846147e8565b614246565b9050808382526020820190506020840283018581111561484f5761484e614814565b5b835b8181101561489657803567ffffffffffffffff811115614874576148736141dc565b5b80860161488189826142e3565b85526020850194505050602081019050614851565b5050509392505050565b600082601f8301126148b5576148b46141dc565b5b81356148c5848260208601614819565b91505092915050565b6000602082840312156148e4576148e3613f06565b5b600082013567ffffffffffffffff81111561490257614901613f0b565b5b61490e848285016148a0565b91505092915050565b600081519050919050565b600082825260208201905092915050565b6000819050602082019050919050565b600060808301600083015184820360008601526149608282613cd4565b91505060208301516149756020860182613d17565b506040830151848203604086015261498d8282613cd4565b91505060608301516149a26060860182613d32565b508091505092915050565b60006149b98383614943565b905092915050565b6000602082019050919050565b60006149d982614917565b6149e38185614922565b9350836020820285016149f585614933565b8060005b85811015614a315784840389528151614a1285826149ad565b9450614a1d836149c1565b925060208a019950506001810190506149f9565b50829750879550505050505092915050565b60006020820190508181036000830152614a5d81846149ce565b905092915050565b614a6e8161458e565b8114614a7957600080fd5b50565b600081359050614a8b81614a65565b92915050565b600067ffffffffffffffff821115614aac57614aab6141e6565b5b614ab582613cc3565b9050602081019050919050565b6000614ad5614ad084614a91565b614246565b905082815260208101848484011115614af157614af06141e1565b5b614afc848285614292565b509392505050565b600082601f830112614b1957614b186141dc565b5b8135614b29848260208601614ac2565b91505092915050565b60008060408385031215614b4957614b48613f06565b5b6000614b5785828601614a7c565b925050602083013567ffffffffffffffff811115614b7857614b77613f0b565b5b614b8485828601614b04565b9150509250929050565b60008060408385031215614ba557614ba4613f06565b5b6000614bb385828601613f59565b9250506020614bc485828601613f59565b9150509250929050565b7f4e487b7100000000000000000000000000000000000000000000000000000000600052602260045260246000fd5b60006002820490506001821680614c1557607f821691505b602082108103614c2857614c27614bce565b5b50919050565b7f596f7520617265206e6f7420746865206f776e65722100000000000000000000600082015250565b6000614c64601683613e90565b9150614c6f82614c2e565b602082019050919050565b60006020820190508181036000830152614c9381614c57565b9050919050565b7f526567697374726174696f6e2068617320616c7265616479207374617274656460008201527f2e00000000000000000000000000000000000000000000000000000000000000602082015250565b6000614cf6602183613e90565b9150614d0182614c9a565b604082019050919050565b60006020820190508181036000830152614d2581614ce9565b9050919050565b7f43616e6e6f7420737461727420726567697374726174696f6e2061667465722060008201527f766f74696e672068617320626567756e2e000000000000000000000000000000602082015250565b6000614d88603183613e90565b9150614d9382614d2c565b604082019050919050565b60006020820190508181036000830152614db781614d7b565b9050919050565b7f526567697374726174696f6e20706572696f6420686173206e6f74207374617260008201527f7465642e00000000000000000000000000000000000000000000000000000000602082015250565b6000614e1a602483613e90565b9150614e2582614dbe565b604082019050919050565b60006020820190508181036000830152614e4981614e0d565b9050919050565b7f566f74696e672068617320616c726561647920737461727465642e0000000000600082015250565b6000614e86601b83613e90565b9150614e9182614e50565b602082019050919050565b60006020820190508181036000830152614eb581614e79565b9050919050565b600081905092915050565b7f19457468657265756d205369676e6564204d6573736167653a0a000000000000600082015250565b6000614efd601a83614ebc565b9150614f0882614ec7565b601a82019050919050565b7f446f6d61696e3a20000000000000000000000000000000000000000000000000600082015250565b6000614f49600883614ebc565b9150614f5482614f13565b600882019050919050565b6000614f6a82613c7d565b614f748185614ebc565b9350614f84818560208601613c99565b80840191505092915050565b7f0a00000000000000000000000000000000000000000000000000000000000000600082015250565b6000614fc6600183614ebc565b9150614fd182614f90565b600182019050919050565b7f416464726573733a200000000000000000000000000000000000000000000000600082015250565b6000615012600983614ebc565b915061501d82614fdc565b600982019050919050565b7f53746174656d656e743a20000000000000000000000000000000000000000000600082015250565b600061505e600b83614ebc565b915061506982615028565b600b82019050919050565b7f5552493a20000000000000000000000000000000000000000000000000000000600082015250565b60006150aa600583614ebc565b91506150b582615074565b600582019050919050565b7f56657273696f6e3a20310a000000000000000000000000000000000000000000600082015250565b60006150f6600b83614ebc565b9150615101826150c0565b600b82019050919050565b7f436861696e2049443a2000000000000000000000000000000000000000000000600082015250565b6000615142600a83614ebc565b915061514d8261510c565b600a82019050919050565b7f4e6f6e63653a2000000000000000000000000000000000000000000000000000600082015250565b600061518e600783614ebc565b915061519982615158565b600782019050919050565b60006151af82614ef0565b91506151ba82614f3c565b91506151c68289614f5f565b91506151d182614fb9565b91506151dc82615005565b91506151e88288614f5f565b91506151f382614fb9565b91506151fe82615051565b915061520a8287614f5f565b915061521582614fb9565b91506152208261509d565b915061522c8286614f5f565b915061523782614fb9565b9150615242826150e9565b915061524d82615135565b91506152598285614f5f565b915061526482614fb9565b915061526f82615181565b915061527b8284614f5f565b9150819050979650505050505050565b7f43616e6e6f7420726567697374657220647572696e6720766f74696e6720706560008201527f72696f642e000000000000000000000000000000000000000000000000000000602082015250565b60006152e7602583613e90565b91506152f28261528b565b604082019050919050565b60006020820190508181036000830152615316816152da565b9050919050565b60006153298284614f5f565b915081905092915050565b7f566f74657220616c726561647920657869737473210000000000000000000000600082015250565b600061536a601583613e90565b915061537582615334565b602082019050919050565b600060208201905081810360008301526153998161535d565b9050919050565b60008190508160005260206000209050919050565b60006020601f8301049050919050565b600082821b905092915050565b6000600883026154027fffffffffffffffffffffffffffffffffffffffffffffffffffffffffffffffff826153c5565b61540c86836153c5565b95508019841693508086168417925050509392505050565b6000819050919050565b600061544961544461543f84613d0d565b615424565b613d0d565b9050919050565b6000819050919050565b6154638361542e565b61547761546f82615450565b8484546153d2565b825550505050565b600090565b61548c61547f565b61549781848461545a565b505050565b5b818110156154bb576154b0600082615484565b60018101905061549d565b5050565b601f821115615500576154d1816153a0565b6154da846153b5565b810160208510156154e9578190505b6154fd6154f5856153b5565b83018261549c565b50505b505050565b600082821c905092915050565b600061552360001984600802615505565b1980831691505092915050565b600061553c8383615512565b9150826002028217905092915050565b61555582613c7d565b67ffffffffffffffff81111561556e5761556d6141e6565b5b6155788254614bfd565b6155838282856154bf565b600060209050601f8311600181146155b657600084156155a4578287015190505b6155ae8582615530565b865550615616565b601f1984166155c4866153a0565b60005b828110156155ec578489015182556001820191506020850194506020810190506155c7565b868310156156095784890151615605601f891682615512565b8355505b6001600288020188555050505b505050505050565b7f43616e64696461746520616c7265616479206578697374732100000000000000600082015250565b6000615654601983613e90565b915061565f8261561e565b602082019050919050565b6000602082019050818103600083015261568381615647565b9050919050565b7f596f75206d7573742062652061207265676973746572656420766f7465722100600082015250565b60006156c0601f83613e90565b91506156cb8261568a565b602082019050919050565b600060208201905081810360008301526156ef816156b3565b9050919050565b600060408201905061570b6000830185614004565b818103602083015261571d8184613ea1565b90509392505050565b7f43616e64696461746520616c7265616479207665726966696564210000000000600082015250565b600061575c601b83613e90565b915061576782615726565b602082019050919050565b6000602082019050818103600083015261578b8161574f565b9050919050565b6000815461579f81614bfd565b6157a98186614ebc565b945060018216600081146157c457600181146157d95761580c565b60ff198316865281151582028601935061580c565b6157e2856153a0565b60005b83811015615804578154818901526001820191506020810190506157e5565b838801955050505b50505092915050565b60006158218284615792565b915081905092915050565b7f526567697374726174696f6e20706572696f64206973207374696c6c2061637460008201527f6976652e00000000000000000000000000000000000000000000000000000000602082015250565b6000615888602483613e90565b91506158938261582c565b604082019050919050565b600060208201905081810360008301526158b78161587b565b9050919050565b7f566f74696e6720686173206e6f742073746172746564207965742e0000000000600082015250565b60006158f4601b83613e90565b91506158ff826158be565b602082019050919050565b60006020820190508181036000830152615923816158e7565b9050919050565b7f596f75206861766520616c726561647920766f7465642e000000000000000000600082015250565b6000615960601783613e90565b915061596b8261592a565b602082019050919050565b6000602082019050818103600083015261598f81615953565b9050919050565b7f496e76616c696420706f736974696f6e2e000000000000000000000000000000600082015250565b60006159cc601183613e90565b91506159d782615996565b602082019050919050565b600060208201905081810360008301526159fb816159bf565b9050919050565b7f496e76616c69642063616e64696461746520696e6465782e0000000000000000600082015250565b6000615a38601883613e90565b9150615a4382615a02565b602082019050919050565b60006020820190508181036000830152615a6781615a2b565b9050919050565b7f4e487b7100000000000000000000000000000000000000000000000000000000600052603260045260246000fd5b7f4e487b7100000000000000000000000000000000000000000000000000000000600052601160045260246000fd5b6000615ad782613d0d565b9150615ae283613d0d565b9250828201905080821115615afa57615af9615a9d565b5b92915050565b60008154615b0d81614bfd565b615b178186613e90565b94506001821660008114615b325760018114615b4857615b7b565b60ff198316865281151560200286019350615b7b565b615b51856153a0565b60005b83811015615b7357815481890152600182019150602081019050615b54565b808801955050505b50505092915050565b60006060820190508181036000830152615b9e8186615b00565b90508181036020830152615bb28185613ea1565b9050615bc16040830184614004565b949350505050565b7f506f736974696f6e20616c726561647920657869737473210000000000000000600082015250565b6000615bff601883613e90565b9150615c0a82615bc9565b602082019050919050565b60006020820190508181036000830152615c2e81615bf2565b9050919050565b600081549050615c4481614bfd565b9050919050565b818103615c59575050615d31565b615c6282615c35565b67ffffffffffffffff811115615c7b57615c7a6141e6565b5b615c858254614bfd565b615c908282856154bf565b6000601f831160018114615cbf5760008415615cad578287015490505b615cb78582615530565b865550615d2a565b601f198416615ccd876153a0565b9650615cd8866153a0565b60005b82811015615d0057848901548255600182019150600185019450602081019050615cdb565b86831015615d1d5784890154615d19601f891682615512565b8355505b6001600288020188555050505b5050505050505b565b7f19457468657265756d205369676e6564204d6573736167653a0a333200000000600082015250565b6000615d69601c83614ebc565b9150615d7482615d33565b601c82019050919050565b6000819050919050565b615d9a615d958261458e565b615d7f565b82525050565b6000615dab82615d5c565b9150615db78284615d89565b60208201915081905092915050565b6000606082019050615ddb6000830186614762565b615de86020830185614004565b615df56040830184614004565b949350505050565b6000615e0882613d0d565b9150615e1383613d0d565b9250828202615e2181613d0d565b91508282048414831517615e3857615e37615a9d565b5b5092915050565b6000615e4a82613d0d565b915060008203615e5d57615e5c615a9d565b5b600182039050919050565b6000604082019050615e7d6000830185614004565b615e8a6020830184614004565b9392505050565b7f4e487b7100000000000000000000000000000000000000000000000000000000600052601260045260246000fd5b7f546f6b656e206c696d6974206578636565646564210000000000000000000000600082015250565b6000615ef6601583613e90565b9150615f0182615ec0565b602082019050919050565b60006020820190508181036000830152615f2581615ee9565b9050919050565b6000604082019050615f416000830185614762565b615f4e6020830184614004565b9392505050565b7f4e487b7100000000000000000000000000000000000000000000000000000000600052602160045260246000fd5b6000608082019050615f996000830187614598565b615fa66020830186614430565b615fb36040830185614598565b615fc06060830184614598565b9594505050505056fea2646970667358221220afcab7e652e6eda34df0d0e32aea51015d94b91a1a0fb3944c5bd33e50b949ef64736f6c634300081b0033",
  "linkReferences": {},
  "deployedLinkReferences": {}
}