{
  "_format": "hh-sol-artifact-1",
  "contractName": "Voting",
  "sourceName": "contracts/Voting.sol",
  "abi": [
    {
      "inputs": [],
      "stateMutability": "nonpayable",
      "type": "constructor"
    },
    {
      "inputs": [],
      "name": "ECDSAInvalidSignature",
      "type": "error"
    },
    {
      "inputs": [
        {
          "internalType": "uint256",
          "name": "length",
          "type": "uint256"
        }
      ],
      "name": "ECDSAInvalidSignatureLength",
      "type": "error"
    },
    {
      "inputs": [
        {
          "internalType": "bytes32",
          "name": "s",
          "type": "bytes32"
        }
      ],
      "name": "ECDSAInvalidSignatureS",
      "type": "error"
    },
    {
      "inputs": [
        {
          "internalType": "address",
          "name": "spender",
          "type": "address"
        },
        {
          "internalType": "uint256",
          "name": "allowance",
          "type": "uint256"
        },
        {
          "internalType": "uint256",
          "name": "needed",
          "type": "uint256"
        }
      ],
      "name": "ERC20InsufficientAllowance",
      "type": "error"
    },
    {
      "inputs": [
        {
          "internalType": "address",
          "name": "sender",
          "type": "address"
        },
        {
          "internalType": "uint256",
          "name": "balance",
          "type": "uint256"
        },
        {
          "internalType": "uint256",
          "name": "needed",
          "type": "uint256"
        }
      ],
      "name": "ERC20InsufficientBalance",
      "type": "error"
    },
    {
      "inputs": [
        {
          "internalType": "address",
          "name": "approver",
          "type": "address"
        }
      ],
      "name": "ERC20InvalidApprover",
      "type": "error"
    },
    {
      "inputs": [
        {
          "internalType": "address",
          "name": "receiver",
          "type": "address"
        }
      ],
      "name": "ERC20InvalidReceiver",
      "type": "error"
    },
    {
      "inputs": [
        {
          "internalType": "address",
          "name": "sender",
          "type": "address"
        }
      ],
      "name": "ERC20InvalidSender",
      "type": "error"
    },
    {
      "inputs": [
        {
          "internalType": "address",
          "name": "spender",
          "type": "address"
        }
      ],
      "name": "ERC20InvalidSpender",
      "type": "error"
    },
    {
      "inputs": [
        {
          "internalType": "uint256",
          "name": "value",
          "type": "uint256"
        },
        {
          "internalType": "uint256",
          "name": "length",
          "type": "uint256"
        }
      ],
      "name": "StringsInsufficientHexLength",
      "type": "error"
    },
    {
      "anonymous": false,
      "inputs": [
        {
          "indexed": true,
          "internalType": "address",
          "name": "owner",
          "type": "address"
        },
        {
          "indexed": true,
          "internalType": "address",
          "name": "spender",
          "type": "address"
        },
        {
          "indexed": false,
          "internalType": "uint256",
          "name": "value",
          "type": "uint256"
        }
      ],
      "name": "Approval",
      "type": "event"
    },
    {
      "anonymous": false,
      "inputs": [
        {
          "indexed": true,
          "internalType": "string",
          "name": "_names",
          "type": "string"
        },
        {
          "indexed": false,
          "internalType": "uint256",
          "name": "_age",
          "type": "uint256"
        },
        {
          "indexed": true,
          "internalType": "string",
          "name": "_idNumber",
          "type": "string"
        },
        {
          "indexed": false,
          "internalType": "string",
          "name": "_party",
          "type": "string"
        },
        {
          "indexed": false,
          "internalType": "string",
          "name": "_position",
          "type": "string"
        }
      ],
      "name": "CandidateRegistrationSuccess",
      "type": "event"
    },
    {
      "anonymous": false,
      "inputs": [
        {
          "indexed": false,
          "internalType": "address",
          "name": "_to",
          "type": "address"
        },
        {
          "indexed": false,
          "internalType": "uint256",
          "name": "_amount",
          "type": "uint256"
        }
      ],
      "name": "MintSuccess",
      "type": "event"
    },
    {
      "anonymous": false,
      "inputs": [
        {
          "indexed": false,
          "internalType": "string",
          "name": "positionName",
          "type": "string"
        }
      ],
      "name": "PositionAdded",
      "type": "event"
    },
    {
      "anonymous": false,
      "inputs": [],
      "name": "RegistrationEnded",
      "type": "event"
    },
    {
      "anonymous": false,
      "inputs": [],
      "name": "RegistrationStarted",
      "type": "event"
    },
    {
      "anonymous": false,
      "inputs": [
        {
          "indexed": true,
          "internalType": "string",
          "name": "_idNumber",
          "type": "string"
        }
      ],
      "name": "RejectCandidateSuccess",
      "type": "event"
    },
    {
      "anonymous": false,
      "inputs": [
        {
          "indexed": true,
          "internalType": "address",
          "name": "from",
          "type": "address"
        },
        {
          "indexed": true,
          "internalType": "address",
          "name": "to",
          "type": "address"
        },
        {
          "indexed": false,
          "internalType": "uint256",
          "name": "value",
          "type": "uint256"
        }
      ],
      "name": "Transfer",
      "type": "event"
    },
    {
      "anonymous": false,
      "inputs": [
        {
          "indexed": true,
          "internalType": "string",
          "name": "_names",
          "type": "string"
        },
        {
          "indexed": true,
          "internalType": "string",
          "name": "_idNumber",
          "type": "string"
        }
      ],
      "name": "VerifyCandidateSuccess",
      "type": "event"
    },
    {
      "anonymous": false,
      "inputs": [
        {
          "indexed": true,
          "internalType": "address",
          "name": "voter",
          "type": "address"
        },
        {
          "indexed": false,
          "internalType": "string",
          "name": "_idNumber",
          "type": "string"
        },
        {
          "indexed": false,
          "internalType": "string",
          "name": "position",
          "type": "string"
        },
        {
          "indexed": false,
          "internalType": "uint256",
          "name": "candidateIndex",
          "type": "uint256"
        }
      ],
      "name": "VotedSuccess",
      "type": "event"
    },
    {
      "anonymous": false,
      "inputs": [
        {
          "indexed": true,
          "internalType": "string",
          "name": "_names",
          "type": "string"
        },
        {
          "indexed": false,
          "internalType": "uint256",
          "name": "_age",
          "type": "uint256"
        },
        {
          "indexed": true,
          "internalType": "string",
          "name": "_idNumber",
          "type": "string"
        }
      ],
      "name": "VoterRegistrationSuccess",
      "type": "event"
    },
    {
      "anonymous": false,
      "inputs": [],
      "name": "VotingEnded",
      "type": "event"
    },
    {
      "anonymous": false,
      "inputs": [],
      "name": "VotingStarted",
      "type": "event"
    },
    {
      "inputs": [],
      "name": "MAX_SUPPLY",
      "outputs": [
        {
          "internalType": "uint256",
          "name": "",
          "type": "uint256"
        }
      ],
      "stateMutability": "view",
      "type": "function"
    },
    {
      "inputs": [],
      "name": "REGISTER_AS_VOTER",
      "outputs": [
        {
          "internalType": "uint256",
          "name": "",
          "type": "uint256"
        }
      ],
      "stateMutability": "view",
      "type": "function"
    },
    {
      "inputs": [],
      "name": "VERIFY_CANDIDATE",
      "outputs": [
        {
          "internalType": "uint256",
          "name": "",
          "type": "uint256"
        }
      ],
      "stateMutability": "view",
      "type": "function"
    },
    {
      "inputs": [
        {
          "internalType": "string[]",
          "name": "_pNames",
          "type": "string[]"
        }
      ],
      "name": "addPositions",
      "outputs": [],
      "stateMutability": "nonpayable",
      "type": "function"
    },
    {
      "inputs": [
        {
          "internalType": "address",
          "name": "owner",
          "type": "address"
        },
        {
          "internalType": "address",
          "name": "spender",
          "type": "address"
        }
      ],
      "name": "allowance",
      "outputs": [
        {
          "internalType": "uint256",
          "name": "",
          "type": "uint256"
        }
      ],
      "stateMutability": "view",
      "type": "function"
    },
    {
      "inputs": [
        {
          "internalType": "address",
          "name": "spender",
          "type": "address"
        },
        {
          "internalType": "uint256",
          "name": "value",
          "type": "uint256"
        }
      ],
      "name": "approve",
      "outputs": [
        {
          "internalType": "bool",
          "name": "",
          "type": "bool"
        }
      ],
      "stateMutability": "nonpayable",
      "type": "function"
    },
    {
      "inputs": [
        {
          "internalType": "address",
          "name": "account",
          "type": "address"
        }
      ],
      "name": "balanceOf",
      "outputs": [
        {
          "internalType": "uint256",
          "name": "",
          "type": "uint256"
        }
      ],
      "stateMutability": "view",
      "type": "function"
    },
    {
      "inputs": [
        {
          "internalType": "string",
          "name": "",
          "type": "string"
        }
      ],
      "name": "candidateObject",
      "outputs": [
        {
          "internalType": "string",
          "name": "names",
          "type": "string"
        },
        {
          "internalType": "uint256",
          "name": "age",
          "type": "uint256"
        },
        {
          "internalType": "string",
          "name": "idNumber",
          "type": "string"
        },
        {
          "internalType": "string",
          "name": "party",
          "type": "string"
        },
        {
          "internalType": "uint256",
          "name": "votes",
          "type": "uint256"
        },
        {
          "internalType": "bool",
          "name": "verified",
          "type": "bool"
        },
        {
          "internalType": "string",
          "name": "position",
          "type": "string"
        }
      ],
      "stateMutability": "view",
      "type": "function"
    },
    {
      "inputs": [
        {
          "internalType": "address",
          "name": "userAddress",
          "type": "address"
        },
        {
          "internalType": "string",
          "name": "domain",
          "type": "string"
        },
        {
          "internalType": "string",
          "name": "statement",
          "type": "string"
        },
        {
          "internalType": "string",
          "name": "uri",
          "type": "string"
        },
        {
          "internalType": "uint256",
          "name": "chainId",
          "type": "uint256"
        },
        {
          "internalType": "uint256",
          "name": "nonce",
          "type": "uint256"
        }
      ],
      "name": "createMessageHash",
      "outputs": [
        {
          "internalType": "bytes32",
          "name": "",
          "type": "bytes32"
        }
      ],
      "stateMutability": "pure",
      "type": "function"
    },
    {
      "inputs": [],
      "name": "decimals",
      "outputs": [
        {
          "internalType": "uint8",
          "name": "",
          "type": "uint8"
        }
      ],
      "stateMutability": "view",
      "type": "function"
    },
    {
      "inputs": [
        {
          "internalType": "uint256",
          "name": "votingDays",
          "type": "uint256"
        }
      ],
      "name": "endRegistrationAndStartVoting",
      "outputs": [],
      "stateMutability": "nonpayable",
      "type": "function"
    },
    {
      "inputs": [],
      "name": "endVoting",
      "outputs": [],
      "stateMutability": "nonpayable",
      "type": "function"
    },
    {
      "inputs": [],
      "name": "getAllPositions",
      "outputs": [
        {
          "components": [
            {
              "internalType": "string",
              "name": "pName",
              "type": "string"
            },
            {
              "components": [
                {
                  "internalType": "string",
                  "name": "names",
                  "type": "string"
                },
                {
                  "internalType": "uint256",
                  "name": "age",
                  "type": "uint256"
                },
                {
                  "internalType": "string",
                  "name": "idNumber",
                  "type": "string"
                },
                {
                  "internalType": "string",
                  "name": "party",
                  "type": "string"
                },
                {
                  "internalType": "uint256",
                  "name": "votes",
                  "type": "uint256"
                },
                {
                  "internalType": "bool",
                  "name": "verified",
                  "type": "bool"
                },
                {
                  "internalType": "string",
                  "name": "position",
                  "type": "string"
                }
              ],
              "internalType": "struct Voting.Candidate[]",
              "name": "candidates",
              "type": "tuple[]"
            }
          ],
          "internalType": "struct Voting.Position[]",
          "name": "",
          "type": "tuple[]"
        }
      ],
      "stateMutability": "view",
      "type": "function"
    },
    {
      "inputs": [],
      "name": "getCandidates",
      "outputs": [
        {
          "components": [
            {
              "internalType": "string",
              "name": "names",
              "type": "string"
            },
            {
              "internalType": "uint256",
              "name": "age",
              "type": "uint256"
            },
            {
              "internalType": "string",
              "name": "idNumber",
              "type": "string"
            },
            {
              "internalType": "string",
              "name": "party",
              "type": "string"
            },
            {
              "internalType": "uint256",
              "name": "votes",
              "type": "uint256"
            },
            {
              "internalType": "bool",
              "name": "verified",
              "type": "bool"
            },
            {
              "internalType": "string",
              "name": "position",
              "type": "string"
            }
          ],
          "internalType": "struct Voting.Candidate[]",
          "name": "",
          "type": "tuple[]"
        }
      ],
      "stateMutability": "view",
      "type": "function"
    },
    {
      "inputs": [],
      "name": "getPositionCount",
      "outputs": [
        {
          "internalType": "uint256",
          "name": "",
          "type": "uint256"
        }
      ],
      "stateMutability": "view",
      "type": "function"
    },
    {
      "inputs": [],
      "name": "getVoters",
      "outputs": [
        {
          "components": [
            {
              "internalType": "string",
              "name": "names",
              "type": "string"
            },
            {
              "internalType": "uint256",
              "name": "age",
              "type": "uint256"
            },
            {
              "internalType": "string",
              "name": "idNumber",
              "type": "string"
            },
            {
              "internalType": "bool",
              "name": "voted",
              "type": "bool"
            }
          ],
          "internalType": "struct Voting.Voter[]",
          "name": "",
          "type": "tuple[]"
        }
      ],
      "stateMutability": "view",
      "type": "function"
    },
    {
      "inputs": [],
      "name": "getVotingEndTime",
      "outputs": [
        {
          "internalType": "uint256",
          "name": "",
          "type": "uint256"
        }
      ],
      "stateMutability": "view",
      "type": "function"
    },
    {
      "inputs": [
        {
          "internalType": "address",
          "name": "",
          "type": "address"
        },
        {
          "internalType": "string",
          "name": "",
          "type": "string"
        }
      ],
      "name": "hasVotedForPosition",
      "outputs": [
        {
          "internalType": "bool",
          "name": "",
          "type": "bool"
        }
      ],
      "stateMutability": "view",
      "type": "function"
    },
    {
      "inputs": [],
      "name": "hasVotingEnded",
      "outputs": [
        {
          "internalType": "bool",
          "name": "",
          "type": "bool"
        }
      ],
      "stateMutability": "view",
      "type": "function"
    },
    {
      "inputs": [
        {
          "internalType": "string",
          "name": "_idNumber",
          "type": "string"
        }
      ],
      "name": "isCandidateRegistered",
      "outputs": [
        {
          "internalType": "bool",
          "name": "",
          "type": "bool"
        }
      ],
      "stateMutability": "view",
      "type": "function"
    },
    {
      "inputs": [
        {
          "internalType": "address",
          "name": "_account",
          "type": "address"
        }
      ],
      "name": "isVoterRegistered",
      "outputs": [
        {
          "internalType": "bool",
          "name": "",
          "type": "bool"
        }
      ],
      "stateMutability": "view",
      "type": "function"
    },
    {
      "inputs": [
        {
          "internalType": "uint256",
          "name": "",
          "type": "uint256"
        }
      ],
      "name": "listOfCandidates",
      "outputs": [
        {
          "internalType": "string",
          "name": "names",
          "type": "string"
        },
        {
          "internalType": "uint256",
          "name": "age",
          "type": "uint256"
        },
        {
          "internalType": "string",
          "name": "idNumber",
          "type": "string"
        },
        {
          "internalType": "string",
          "name": "party",
          "type": "string"
        },
        {
          "internalType": "uint256",
          "name": "votes",
          "type": "uint256"
        },
        {
          "internalType": "bool",
          "name": "verified",
          "type": "bool"
        },
        {
          "internalType": "string",
          "name": "position",
          "type": "string"
        }
      ],
      "stateMutability": "view",
      "type": "function"
    },
    {
      "inputs": [
        {
          "internalType": "uint256",
          "name": "",
          "type": "uint256"
        }
      ],
      "name": "listOfPositions",
      "outputs": [
        {
          "internalType": "string",
          "name": "pName",
          "type": "string"
        }
      ],
      "stateMutability": "view",
      "type": "function"
    },
    {
      "inputs": [
        {
          "internalType": "uint256",
          "name": "",
          "type": "uint256"
        }
      ],
      "name": "listOfVoters",
      "outputs": [
        {
          "internalType": "string",
          "name": "names",
          "type": "string"
        },
        {
          "internalType": "uint256",
          "name": "age",
          "type": "uint256"
        },
        {
          "internalType": "string",
          "name": "idNumber",
          "type": "string"
        },
        {
          "internalType": "bool",
          "name": "voted",
          "type": "bool"
        }
      ],
      "stateMutability": "view",
      "type": "function"
    },
    {
      "inputs": [],
      "name": "name",
      "outputs": [
        {
          "internalType": "string",
          "name": "",
          "type": "string"
        }
      ],
      "stateMutability": "view",
      "type": "function"
    },
    {
      "inputs": [],
      "name": "owner",
      "outputs": [
        {
          "internalType": "address",
          "name": "",
          "type": "address"
        }
      ],
      "stateMutability": "view",
      "type": "function"
    },
    {
      "inputs": [
        {
          "internalType": "string",
          "name": "",
          "type": "string"
        }
      ],
      "name": "positions",
      "outputs": [
        {
          "internalType": "string",
          "name": "pName",
          "type": "string"
        }
      ],
      "stateMutability": "view",
      "type": "function"
    },
    {
      "inputs": [
        {
          "internalType": "string",
          "name": "_names",
          "type": "string"
        },
        {
          "internalType": "uint256",
          "name": "_age",
          "type": "uint256"
        },
        {
          "internalType": "string",
          "name": "_idNumber",
          "type": "string"
        },
        {
          "internalType": "string",
          "name": "_party",
          "type": "string"
        },
        {
          "internalType": "string",
          "name": "_position",
          "type": "string"
        }
      ],
      "name": "registerCandidate",
      "outputs": [],
      "stateMutability": "nonpayable",
      "type": "function"
    },
    {
      "inputs": [
        {
          "internalType": "string",
          "name": "_names",
          "type": "string"
        },
        {
          "internalType": "uint256",
          "name": "_age",
          "type": "uint256"
        },
        {
          "internalType": "string",
          "name": "_idNumber",
          "type": "string"
        }
      ],
      "name": "registerVoter",
      "outputs": [
        {
          "internalType": "bool",
          "name": "",
          "type": "bool"
        }
      ],
      "stateMutability": "nonpayable",
      "type": "function"
    },
    {
      "inputs": [],
      "name": "registrationStarted",
      "outputs": [
        {
          "internalType": "bool",
          "name": "",
          "type": "bool"
        }
      ],
      "stateMutability": "view",
      "type": "function"
    },
    {
      "inputs": [
        {
          "internalType": "string",
          "name": "_idNumber",
          "type": "string"
        }
      ],
      "name": "rejectCandidate",
      "outputs": [],
      "stateMutability": "nonpayable",
      "type": "function"
    },
    {
      "inputs": [],
      "name": "startRegistration",
      "outputs": [],
      "stateMutability": "nonpayable",
      "type": "function"
    },
    {
      "inputs": [],
      "name": "symbol",
      "outputs": [
        {
          "internalType": "string",
          "name": "",
          "type": "string"
        }
      ],
      "stateMutability": "view",
      "type": "function"
    },
    {
      "inputs": [],
      "name": "totalSupply",
      "outputs": [
        {
          "internalType": "uint256",
          "name": "",
          "type": "uint256"
        }
      ],
      "stateMutability": "view",
      "type": "function"
    },
    {
      "inputs": [
        {
          "internalType": "address",
          "name": "to",
          "type": "address"
        },
        {
          "internalType": "uint256",
          "name": "value",
          "type": "uint256"
        }
      ],
      "name": "transfer",
      "outputs": [
        {
          "internalType": "bool",
          "name": "",
          "type": "bool"
        }
      ],
      "stateMutability": "nonpayable",
      "type": "function"
    },
    {
      "inputs": [
        {
          "internalType": "address",
          "name": "from",
          "type": "address"
        },
        {
          "internalType": "address",
          "name": "to",
          "type": "address"
        },
        {
          "internalType": "uint256",
          "name": "value",
          "type": "uint256"
        }
      ],
      "name": "transferFrom",
      "outputs": [
        {
          "internalType": "bool",
          "name": "",
          "type": "bool"
        }
      ],
      "stateMutability": "nonpayable",
      "type": "function"
    },
    {
      "inputs": [
        {
          "internalType": "string",
          "name": "_idNumber",
          "type": "string"
        }
      ],
      "name": "verifyCandidate",
      "outputs": [],
      "stateMutability": "nonpayable",
      "type": "function"
    },
    {
      "inputs": [
        {
          "internalType": "bytes32",
          "name": "hash",
          "type": "bytes32"
        },
        {
          "internalType": "bytes",
          "name": "signature",
          "type": "bytes"
        }
      ],
      "name": "verifySignature",
      "outputs": [
        {
          "internalType": "bool",
          "name": "",
          "type": "bool"
        }
      ],
      "stateMutability": "view",
      "type": "function"
    },
    {
      "inputs": [
        {
          "internalType": "string",
          "name": "position",
          "type": "string"
        },
        {
          "internalType": "uint256",
          "name": "candidateIndex",
          "type": "uint256"
        }
      ],
      "name": "vote",
      "outputs": [],
      "stateMutability": "nonpayable",
      "type": "function"
    },
    {
      "inputs": [
        {
          "internalType": "string",
          "name": "",
          "type": "string"
        }
      ],
      "name": "voterObject",
      "outputs": [
        {
          "internalType": "string",
          "name": "names",
          "type": "string"
        },
        {
          "internalType": "uint256",
          "name": "age",
          "type": "uint256"
        },
        {
          "internalType": "string",
          "name": "idNumber",
          "type": "string"
        },
        {
          "internalType": "bool",
          "name": "voted",
          "type": "bool"
        }
      ],
      "stateMutability": "view",
      "type": "function"
    },
    {
      "inputs": [
        {
          "internalType": "address",
          "name": "",
          "type": "address"
        }
      ],
      "name": "voters",
      "outputs": [
        {
          "internalType": "string",
          "name": "names",
          "type": "string"
        },
        {
          "internalType": "uint256",
          "name": "age",
          "type": "uint256"
        },
        {
          "internalType": "string",
          "name": "idNumber",
          "type": "string"
        },
        {
          "internalType": "bool",
          "name": "voted",
          "type": "bool"
        }
      ],
      "stateMutability": "view",
      "type": "function"
    },
    {
      "inputs": [],
      "name": "votingEndTime",
      "outputs": [
        {
          "internalType": "uint256",
          "name": "",
          "type": "uint256"
        }
      ],
      "stateMutability": "view",
      "type": "function"
    },
    {
      "inputs": [],
      "name": "votingStarted",
      "outputs": [
        {
          "internalType": "bool",
          "name": "",
          "type": "bool"
        }
      ],
      "stateMutability": "view",
      "type": "function"
    }
  ],
  "bytecode": "0x60806040526000601060006101000a81548160ff0219169083151502179055506000601060016101000a81548160ff02191690831515021790555034801561004657600080fd5b506040518060400160405280600581526020017f566f7465780000000000000000000000000000000000000000000000000000008152506040518060400160405280600481526020017f56544b4e0000000000000000000000000000000000000000000000000000000081525081600390816100c2919061036b565b5080600490816100d2919061036b565b50505033600560006101000a81548173ffffffffffffffffffffffffffffffffffffffff021916908373ffffffffffffffffffffffffffffffffffffffff16021790555061043d565b600081519050919050565b7f4e487b7100000000000000000000000000000000000000000000000000000000600052604160045260246000fd5b7f4e487b7100000000000000000000000000000000000000000000000000000000600052602260045260246000fd5b6000600282049050600182168061019c57607f821691505b6020821081036101af576101ae610155565b5b50919050565b60008190508160005260206000209050919050565b60006020601f8301049050919050565b600082821b905092915050565b6000600883026102177fffffffffffffffffffffffffffffffffffffffffffffffffffffffffffffffff826101da565b61022186836101da565b95508019841693508086168417925050509392505050565b6000819050919050565b6000819050919050565b600061026861026361025e84610239565b610243565b610239565b9050919050565b6000819050919050565b6102828361024d565b61029661028e8261026f565b8484546101e7565b825550505050565b600090565b6102ab61029e565b6102b6818484610279565b505050565b5b818110156102da576102cf6000826102a3565b6001810190506102bc565b5050565b601f82111561031f576102f0816101b5565b6102f9846101ca565b81016020851015610308578190505b61031c610314856101ca565b8301826102bb565b50505b505050565b600082821c905092915050565b600061034260001984600802610324565b1980831691505092915050565b600061035b8383610331565b9150826002028217905092915050565b6103748261011b565b67ffffffffffffffff81111561038d5761038c610126565b5b6103978254610184565b6103a28282856102de565b600060209050601f8311600181146103d557600084156103c3578287015190505b6103cd858261034f565b865550610435565b601f1984166103e3866101b5565b60005b8281101561040b578489015182556001820191506020850194506020810190506103e6565b868310156104285784890151610424601f891682610331565b8355505b6001600288020188555050505b505050505050565b6173a48061044c6000396000f3fe608060405234801561001057600080fd5b50600436106102695760003560e01c80638168347611610151578063abceaad2116100c3578063c3403ddf11610087578063c3403ddf146107c7578063cdd72253146107d1578063daca6f78146107ef578063dd62ed3e1461081f578063eb2119db1461084f578063ffdd74961461087f57610269565b8063abceaad214610737578063b034d2b314610753578063b1bf87b01461076f578063b80a398a1461078d578063be94ced7146107a957610269565b806395d89b411161011557806395d89b411461064b5780639a53cbea146106695780639dfa90651461069c578063a3ec138d146106b8578063a6385803146106eb578063a9059cbb1461070757610269565b8063816834761461058b57806383d948b7146105a95780638ad1782b146105c75780638da5cb5b146105f757806392d7df4a1461061557610269565b8063313ce567116101ea578063565e802a116101ae578063565e802a1461046b5780635fbcc1551461049b5780636636b91e146104cb578063676f86b0146104fb57806370a082311461052b57806371a6f4651461055b57610269565b8063313ce567146103c257806332cb6b0c146103e05780633dd079c0146103fe5780634902a1791461041c5780634a66e1ab1461043857610269565b806318f56a0a1161023157806318f56a0a146103025780631c64a33e146103205780631ea736e01461035657806323b872dd1461037457806327aed42e146103a457610269565b806306a49fce1461026e57806306fdde031461028c578063095ea7b3146102aa57806310b86695146102da57806318160ddd146102e4575b600080fd5b61027661089d565b6040516102839190614e92565b60405180910390f35b610294610b73565b6040516102a19190614efe565b60405180910390f35b6102c460048036038101906102bf9190614fbe565b610c05565b6040516102d1919061500d565b60405180910390f35b6102e2610c28565b005b6102ec610da1565b6040516102f99190615037565b60405180910390f35b61030a610dab565b60405161031791906151de565b60405180910390f35b61033a60048036038101906103359190615335565b611172565b60405161034d979695949392919061537e565b60405180910390f35b61035e6113f7565b60405161036b9190615037565b60405180910390f35b61038e60048036038101906103899190615409565b6113fd565b60405161039b919061500d565b60405180910390f35b6103ac61142c565b6040516103b9919061500d565b60405180910390f35b6103ca61143f565b6040516103d79190615478565b60405180910390f35b6103e8611448565b6040516103f59190615037565b60405180910390f35b610406611456565b604051610413919061500d565b60405180910390f35b61043660048036038101906104319190615493565b61147b565b005b610452600480360381019061044d9190615335565b61165b565b60405161046294939291906154c0565b60405180910390f35b61048560048036038101906104809190615335565b6117be565b604051610492919061500d565b60405180910390f35b6104b560048036038101906104b09190615513565b6117f7565b6040516104c2919061560d565b60405180910390f35b6104e560048036038101906104e09190615628565b611866565b6040516104f2919061500d565b60405180910390f35b61051560048036038101906105109190615335565b611c3b565b6040516105229190614efe565b60405180910390f35b610545600480360381019061054091906156b3565b611cf7565b6040516105529190615037565b60405180910390f35b61057560048036038101906105709190615493565b611d3f565b6040516105829190614efe565b60405180910390f35b610593611df5565b6040516105a09190615037565b60405180910390f35b6105b1611e02565b6040516105be919061500d565b60405180910390f35b6105e160048036038101906105dc91906156e0565b611e15565b6040516105ee919061500d565b60405180910390f35b6105ff611e5a565b60405161060c919061574b565b60405180910390f35b61062f600480360381019061062a9190615493565b611e80565b604051610642979695949392919061537e565b60405180910390f35b6106536120ff565b6040516106609190614efe565b60405180910390f35b610683600480360381019061067e9190615493565b612191565b60405161069394939291906154c0565b60405180910390f35b6106b660048036038101906106b19190615335565b6122ee565b005b6106d260048036038101906106cd91906156b3565b61258d565b6040516106e294939291906154c0565b60405180910390f35b61070560048036038101906107009190615766565b6126da565b005b610721600480360381019061071c9190614fbe565b612c3e565b60405161072e919061500d565b60405180910390f35b610751600480360381019061074c91906158a8565b612c61565b005b61076d60048036038101906107689190615335565b612ef9565b005b610777613301565b6040516107849190615037565b60405180910390f35b6107a760048036038101906107a291906158f1565b61330b565b005b6107b16137dd565b6040516107be9190615037565b60405180910390f35b6107cf6137e9565b005b6107d9613978565b6040516107e69190615b08565b60405180910390f35b61080960048036038101906108049190615bf7565b613b20565b604051610816919061500d565b60405180910390f35b61083960048036038101906108349190615c53565b613b93565b6040516108469190615037565b60405180910390f35b610869600480360381019061086491906156b3565b613c1a565b604051610876919061500d565b60405180910390f35b610887613c75565b6040516108949190615037565b60405180910390f35b60606008805480602002602001604051908101604052809291908181526020016000905b82821015610b6a57838290600052602060002090600702016040518060e00160405290816000820180546108f490615cc2565b80601f016020809104026020016040519081016040528092919081815260200182805461092090615cc2565b801561096d5780601f106109425761010080835404028352916020019161096d565b820191906000526020600020905b81548152906001019060200180831161095057829003601f168201915b505050505081526020016001820154815260200160028201805461099090615cc2565b80601f01602080910402602001604051908101604052809291908181526020018280546109bc90615cc2565b8015610a095780601f106109de57610100808354040283529160200191610a09565b820191906000526020600020905b8154815290600101906020018083116109ec57829003601f168201915b50505050508152602001600382018054610a2290615cc2565b80601f0160208091040260200160405190810160405280929190818152602001828054610a4e90615cc2565b8015610a9b5780601f10610a7057610100808354040283529160200191610a9b565b820191906000526020600020905b815481529060010190602001808311610a7e57829003601f168201915b50505050508152602001600482015481526020016005820160009054906101000a900460ff16151515158152602001600682018054610ad990615cc2565b80601f0160208091040260200160405190810160405280929190818152602001828054610b0590615cc2565b8015610b525780601f10610b2757610100808354040283529160200191610b52565b820191906000526020600020905b815481529060010190602001808311610b3557829003601f168201915b505050505081525050815260200190600101906108c1565b50505050905090565b606060038054610b8290615cc2565b80601f0160208091040260200160405190810160405280929190818152602001828054610bae90615cc2565b8015610bfb5780601f10610bd057610100808354040283529160200191610bfb565b820191906000526020600020905b815481529060010190602001808311610bde57829003601f168201915b5050505050905090565b600080610c10613c81565b9050610c1d818585613c89565b600191505092915050565b600560009054906101000a900473ffffffffffffffffffffffffffffffffffffffff1673ffffffffffffffffffffffffffffffffffffffff163373ffffffffffffffffffffffffffffffffffffffff1614610cb8576040517f08c379a0000000000000000000000000000000000000000000000000000000008152600401610caf90615d3f565b60405180910390fd5b601060009054906101000a900460ff1615610d08576040517f08c379a0000000000000000000000000000000000000000000000000000000008152600401610cff90615dd1565b60405180910390fd5b601060019054906101000a900460ff1615610d58576040517f08c379a0000000000000000000000000000000000000000000000000000000008152600401610d4f90615e63565b60405180910390fd5b6001601060006101000a81548160ff0219169083151502179055507f82e6c84abd647d1b4fae9bee1859f2642e5443af0ff900d4af83a93c2bf4151260405160405180910390a1565b6000600254905090565b60606009805480602002602001604051908101604052809291908181526020016000905b828210156111695783829060005260206000209060020201604051806040016040529081600082018054610e0290615cc2565b80601f0160208091040260200160405190810160405280929190818152602001828054610e2e90615cc2565b8015610e7b5780601f10610e5057610100808354040283529160200191610e7b565b820191906000526020600020905b815481529060010190602001808311610e5e57829003601f168201915b5050505050815260200160018201805480602002602001604051908101604052809291908181526020016000905b8282101561115257838290600052602060002090600702016040518060e0016040529081600082018054610edc90615cc2565b80601f0160208091040260200160405190810160405280929190818152602001828054610f0890615cc2565b8015610f555780601f10610f2a57610100808354040283529160200191610f55565b820191906000526020600020905b815481529060010190602001808311610f3857829003601f168201915b5050505050815260200160018201548152602001600282018054610f7890615cc2565b80601f0160208091040260200160405190810160405280929190818152602001828054610fa490615cc2565b8015610ff15780601f10610fc657610100808354040283529160200191610ff1565b820191906000526020600020905b815481529060010190602001808311610fd457829003601f168201915b5050505050815260200160038201805461100a90615cc2565b80601f016020809104026020016040519081016040528092919081815260200182805461103690615cc2565b80156110835780601f1061105857610100808354040283529160200191611083565b820191906000526020600020905b81548152906001019060200180831161106657829003601f168201915b50505050508152602001600482015481526020016005820160009054906101000a900460ff161515151581526020016006820180546110c190615cc2565b80601f01602080910402602001604051908101604052809291908181526020018280546110ed90615cc2565b801561113a5780601f1061110f5761010080835404028352916020019161113a565b820191906000526020600020905b81548152906001019060200180831161111d57829003601f168201915b50505050508152505081526020019060010190610ea9565b505050508152505081526020019060010190610dcf565b50505050905090565b600b818051602081018201805184825260208301602085012081835280955050505050506000915090508060000180546111ab90615cc2565b80601f01602080910402602001604051908101604052809291908181526020018280546111d790615cc2565b80156112245780601f106111f957610100808354040283529160200191611224565b820191906000526020600020905b81548152906001019060200180831161120757829003601f168201915b50505050509080600101549080600201805461123f90615cc2565b80601f016020809104026020016040519081016040528092919081815260200182805461126b90615cc2565b80156112b85780601f1061128d576101008083540402835291602001916112b8565b820191906000526020600020905b81548152906001019060200180831161129b57829003601f168201915b5050505050908060030180546112cd90615cc2565b80601f01602080910402602001604051908101604052809291908181526020018280546112f990615cc2565b80156113465780601f1061131b57610100808354040283529160200191611346565b820191906000526020600020905b81548152906001019060200180831161132957829003601f168201915b5050505050908060040154908060050160009054906101000a900460ff169080600601805461137490615cc2565b80601f01602080910402602001604051908101604052809291908181526020018280546113a090615cc2565b80156113ed5780601f106113c2576101008083540402835291602001916113ed565b820191906000526020600020905b8154815290600101906020018083116113d057829003601f168201915b5050505050905087565b60065481565b600080611408613c81565b9050611415858285613c9b565b611420858585613d2f565b60019150509392505050565b601060009054906101000a900460ff1681565b60006012905090565b69d3c21bcecceda100000081565b6000601060019054906101000a900460ff16801561147657506006544210155b905090565b600560009054906101000a900473ffffffffffffffffffffffffffffffffffffffff1673ffffffffffffffffffffffffffffffffffffffff163373ffffffffffffffffffffffffffffffffffffffff161461150b576040517f08c379a000000000000000000000000000000000000000000000000000000000815260040161150290615d3f565b60405180910390fd5b601060009054906101000a900460ff1661155a576040517f08c379a000000000000000000000000000000000000000000000000000000000815260040161155190615ef5565b60405180910390fd5b601060019054906101000a900460ff16156115aa576040517f08c379a00000000000000000000000000000000000000000000000000000000081526004016115a190615f61565b60405180910390fd5b6000601060006101000a81548160ff0219169083151502179055506001601060016101000a81548160ff02191690831515021790555062015180816115ef9190615fb0565b426115fa9190615ff2565b6006819055507f2ee88f50f05558e39b34a18214ff6a6adc091504772084c6ce7899354bec0aa460405160405180910390a17f877e2548498f42b7975a186b94ef1d32c86d420b7b806dd2be2bea293b89590460405160405180910390a150565b600a8180516020810182018051848252602083016020850120818352809550505050505060009150905080600001805461169490615cc2565b80601f01602080910402602001604051908101604052809291908181526020018280546116c090615cc2565b801561170d5780601f106116e25761010080835404028352916020019161170d565b820191906000526020600020905b8154815290600101906020018083116116f057829003601f168201915b50505050509080600101549080600201805461172890615cc2565b80601f016020809104026020016040519081016040528092919081815260200182805461175490615cc2565b80156117a15780601f10611776576101008083540402835291602001916117a1565b820191906000526020600020905b81548152906001019060200180831161178457829003601f168201915b5050505050908060030160009054906101000a900460ff16905084565b600080600b836040516117d19190616062565b908152602001604051809103902060000180546117ed90615cc2565b9050119050919050565b60008561181b8873ffffffffffffffffffffffffffffffffffffffff166014613e23565b868661182687614069565b61182f87614069565b60405160200161184496959493929190616325565b6040516020818303038152906040528051906020012090509695505050505050565b6000601060009054906101000a900460ff166118b7576040517f08c379a00000000000000000000000000000000000000000000000000000000081526004016118ae90615ef5565b60405180910390fd5b601060019054906101000a900460ff1615611907576040517f08c379a00000000000000000000000000000000000000000000000000000000081526004016118fe9061647e565b60405180910390fd5b6000600a836040516119199190616062565b9081526020016040518091039020600001805461193590615cc2565b905014611977576040517f08c379a000000000000000000000000000000000000000000000000000000000815260040161196e906164ea565b60405180910390fd5b6000600d60003373ffffffffffffffffffffffffffffffffffffffff1673ffffffffffffffffffffffffffffffffffffffff16815260200190815260200160002060010154146119fc576040517f08c379a00000000000000000000000000000000000000000000000000000000081526004016119f39061657c565b60405180910390fd5b6000604051806080016040528086815260200185815260200184815260200160001515815250905060078190806001815401808255809150506001900390600052602060002090600402016000909190919091506000820151816000019081611a659190616748565b50602082015181600101556040820151816002019081611a859190616748565b5060608201518160030160006101000a81548160ff021916908315150217905550505080600a84604051611ab99190616062565b90815260200160405180910390206000820151816000019081611adc9190616748565b50602082015181600101556040820151816002019081611afc9190616748565b5060608201518160030160006101000a81548160ff02191690831515021790555090505080600d60003373ffffffffffffffffffffffffffffffffffffffff1673ffffffffffffffffffffffffffffffffffffffff1681526020019081526020016000206000820151816000019081611b759190616748565b50602082015181600101556040820151816002019081611b959190616748565b5060608201518160030160006101000a81548160ff021916908315150217905550905050611bcb33674563918244f40000614137565b5082604051611bda9190616062565b604051809103902085604051611bf09190616062565b60405180910390207f754a5f7c9336f3562d73dacebf51de10da957ae9dfcae4fbfb93733ece3dd5aa86604051611c279190615037565b60405180910390a360019150509392505050565b600c81805160208101820180518482526020830160208501208183528095505050505050600091509050806000018054611c7490615cc2565b80601f0160208091040260200160405190810160405280929190818152602001828054611ca090615cc2565b8015611ced5780601f10611cc257610100808354040283529160200191611ced565b820191906000526020600020905b815481529060010190602001808311611cd057829003601f168201915b5050505050905081565b60008060008373ffffffffffffffffffffffffffffffffffffffff1673ffffffffffffffffffffffffffffffffffffffff168152602001908152602001600020549050919050565b60098181548110611d4f57600080fd5b9060005260206000209060020201600091509050806000018054611d7290615cc2565b80601f0160208091040260200160405190810160405280929190818152602001828054611d9e90615cc2565b8015611deb5780601f10611dc057610100808354040283529160200191611deb565b820191906000526020600020905b815481529060010190602001808311611dce57829003601f168201915b5050505050905081565b6000600980549050905090565b601060019054906101000a900460ff1681565b600f602052816000526040600020818051602081018201805184825260208301602085012081835280955050505050506000915091509054906101000a900460ff1681565b600560009054906101000a900473ffffffffffffffffffffffffffffffffffffffff1681565b60088181548110611e9057600080fd5b9060005260206000209060070201600091509050806000018054611eb390615cc2565b80601f0160208091040260200160405190810160405280929190818152602001828054611edf90615cc2565b8015611f2c5780601f10611f0157610100808354040283529160200191611f2c565b820191906000526020600020905b815481529060010190602001808311611f0f57829003601f168201915b505050505090806001015490806002018054611f4790615cc2565b80601f0160208091040260200160405190810160405280929190818152602001828054611f7390615cc2565b8015611fc05780601f10611f9557610100808354040283529160200191611fc0565b820191906000526020600020905b815481529060010190602001808311611fa357829003601f168201915b505050505090806003018054611fd590615cc2565b80601f016020809104026020016040519081016040528092919081815260200182805461200190615cc2565b801561204e5780601f106120235761010080835404028352916020019161204e565b820191906000526020600020905b81548152906001019060200180831161203157829003601f168201915b5050505050908060040154908060050160009054906101000a900460ff169080600601805461207c90615cc2565b80601f01602080910402602001604051908101604052809291908181526020018280546120a890615cc2565b80156120f55780601f106120ca576101008083540402835291602001916120f5565b820191906000526020600020905b8154815290600101906020018083116120d857829003601f168201915b5050505050905087565b60606004805461210e90615cc2565b80601f016020809104026020016040519081016040528092919081815260200182805461213a90615cc2565b80156121875780601f1061215c57610100808354040283529160200191612187565b820191906000526020600020905b81548152906001019060200180831161216a57829003601f168201915b5050505050905090565b600781815481106121a157600080fd5b90600052602060002090600402016000915090508060000180546121c490615cc2565b80601f01602080910402602001604051908101604052809291908181526020018280546121f090615cc2565b801561223d5780601f106122125761010080835404028352916020019161223d565b820191906000526020600020905b81548152906001019060200180831161222057829003601f168201915b50505050509080600101549080600201805461225890615cc2565b80601f016020809104026020016040519081016040528092919081815260200182805461228490615cc2565b80156122d15780601f106122a6576101008083540402835291602001916122d1565b820191906000526020600020905b8154815290600101906020018083116122b457829003601f168201915b5050505050908060030160009054906101000a900460ff16905084565b600560009054906101000a900473ffffffffffffffffffffffffffffffffffffffff1673ffffffffffffffffffffffffffffffffffffffff163373ffffffffffffffffffffffffffffffffffffffff161461237e576040517f08c379a000000000000000000000000000000000000000000000000000000000815260040161237590615d3f565b60405180910390fd5b600b8160405161238e9190616062565b908152602001604051809103902060050160009054906101000a900460ff16156123ed576040517f08c379a00000000000000000000000000000000000000000000000000000000081526004016123e490616866565b60405180910390fd5b6001600b826040516123ff9190616062565b908152602001604051809103902060050160006101000a81548160ff02191690831515021790555060005b6008805490508110156124fe57816040516020016124489190616062565b604051602081830303815290604052805190602001206008828154811061247257612471616886565b5b90600052602060002090600702016002016040516020016124939190616938565b60405160208183030381529060405280519060200120036124f1576001600882815481106124c4576124c3616886565b5b906000526020600020906007020160050160006101000a81548160ff0219169083151502179055506124fe565b808060010191505061242a565b5061251133678ac7230489e80000614137565b50806040516125209190616062565b6040518091039020600b826040516125389190616062565b90815260200160405180910390206000016040516125569190616938565b60405180910390207fb78543f054c768084f86f0e559d1e007998ca69729eeffc4b727baa388934a3260405160405180910390a350565b600d6020528060005260406000206000915090508060000180546125b090615cc2565b80601f01602080910402602001604051908101604052809291908181526020018280546125dc90615cc2565b80156126295780601f106125fe57610100808354040283529160200191612629565b820191906000526020600020905b81548152906001019060200180831161260c57829003601f168201915b50505050509080600101549080600201805461264490615cc2565b80601f016020809104026020016040519081016040528092919081815260200182805461267090615cc2565b80156126bd5780601f10612692576101008083540402835291602001916126bd565b820191906000526020600020905b8154815290600101906020018083116126a057829003601f168201915b5050505050908060030160009054906101000a900460ff16905084565b601060009054906101000a900460ff161561272a576040517f08c379a0000000000000000000000000000000000000000000000000000000008152600401612721906169c1565b60405180910390fd5b601060019054906101000a900460ff16612779576040517f08c379a000000000000000000000000000000000000000000000000000000000815260040161277090616a2d565b60405180910390fd5b6000600d60003373ffffffffffffffffffffffffffffffffffffffff1673ffffffffffffffffffffffffffffffffffffffff16815260200190815260200160002090506000600c846040516127ce9190616062565b90815260200160405180910390206001018054905011612823576040517f08c379a000000000000000000000000000000000000000000000000000000000815260040161281a90616a99565b60405180910390fd5b600c836040516128339190616062565b9081526020016040518091039020600101805490508210612889576040517f08c379a000000000000000000000000000000000000000000000000000000000815260040161288090616b05565b60405180910390fd5b600f60003373ffffffffffffffffffffffffffffffffffffffff1673ffffffffffffffffffffffffffffffffffffffff168152602001908152602001600020836040516128d69190616062565b908152602001604051809103902060009054906101000a900460ff1615612932576040517f08c379a000000000000000000000000000000000000000000000000000000000815260040161292990616b97565b60405180910390fd5b6001600c846040516129449190616062565b9081526020016040518091039020600101838154811061296757612966616886565b5b906000526020600020906007020160040160008282546129879190615ff2565b925050819055506000600c846040516129a09190616062565b908152602001604051809103902060010183815481106129c3576129c2616886565b5b906000526020600020906007020160020180546129df90615cc2565b80601f0160208091040260200160405190810160405280929190818152602001828054612a0b90615cc2565b8015612a585780601f10612a2d57610100808354040283529160200191612a58565b820191906000526020600020905b815481529060010190602001808311612a3b57829003601f168201915b5050505050905060005b600880549050811015612b355781604051602001612a809190616062565b6040516020818303038152906040528051906020012060088281548110612aaa57612aa9616886565b5b9060005260206000209060070201600201604051602001612acb9190616938565b6040516020818303038152906040528051906020012003612b2857600160088281548110612afc57612afb616886565b5b90600052602060002090600702016004016000828254612b1c9190615ff2565b92505081905550612b35565b8080600101915050612a62565b506001600b82604051612b489190616062565b90815260200160405180910390206004016000828254612b689190615ff2565b925050819055506001600f60003373ffffffffffffffffffffffffffffffffffffffff1673ffffffffffffffffffffffffffffffffffffffff16815260200190815260200160002085604051612bbe9190616062565b908152602001604051809103902060006101000a81548160ff0219169083151502179055503373ffffffffffffffffffffffffffffffffffffffff167f477d7faf347a03679fabd88feea150c41667473fc8412962f607fb7503f1bd43836002018686604051612c3093929190616c3b565b60405180910390a250505050565b600080612c49613c81565b9050612c56818585613d2f565b600191505092915050565b600560009054906101000a900473ffffffffffffffffffffffffffffffffffffffff1673ffffffffffffffffffffffffffffffffffffffff163373ffffffffffffffffffffffffffffffffffffffff1614612cf1576040517f08c379a0000000000000000000000000000000000000000000000000000000008152600401612ce890615d3f565b60405180910390fd5b60005b8151811015612ef557600e828281518110612d1257612d11616886565b5b6020026020010151604051612d279190616062565b908152602001604051809103902060009054906101000a900460ff1615612d83576040517f08c379a0000000000000000000000000000000000000000000000000000000008152600401612d7a90616ccc565b60405180910390fd5b6000600c838381518110612d9a57612d99616886565b5b6020026020010151604051612daf9190616062565b90815260200160405180910390209050828281518110612dd257612dd1616886565b5b6020026020010151816000019081612dea9190616748565b50600981908060018154018082558091505060019003906000526020600020906002020160009091909190915060008201816000019081612e2b9190616d02565b506001820181600101908054612e42929190614a96565b5050506001600e848481518110612e5c57612e5b616886565b5b6020026020010151604051612e719190616062565b908152602001604051809103902060006101000a81548160ff0219169083151502179055507ff635339f4b5986d632e76f25211c57346b4b4ca3aa13c1ba323ac12563731456838381518110612eca57612ec9616886565b5b6020026020010151604051612edf9190614efe565b60405180910390a1508080600101915050612cf4565b5050565b600560009054906101000a900473ffffffffffffffffffffffffffffffffffffffff1673ffffffffffffffffffffffffffffffffffffffff163373ffffffffffffffffffffffffffffffffffffffff1614612f89576040517f08c379a0000000000000000000000000000000000000000000000000000000008152600401612f8090615d3f565b60405180910390fd5b6000600b82604051612f9b9190616062565b90815260200160405180910390206000018054612fb790615cc2565b905003612ff9576040517f08c379a0000000000000000000000000000000000000000000000000000000008152600401612ff090616e36565b60405180910390fd5b60005b6008805490508110156132fd578160405160200161301a9190616062565b604051602081830303815290604052805190602001206008828154811061304457613043616886565b5b90600052602060002090600702016002016040516020016130659190616938565b60405160208183030381529060405280519060200120036132f05760008190505b60016008805490506130989190616e56565b8110156131945760086001826130ae9190615ff2565b815481106130bf576130be616886565b5b9060005260206000209060070201600882815481106130e1576130e0616886565b5b9060005260206000209060070201600082018160000190816131039190616d02565b5060018201548160010155600282018160020190816131229190616d02565b50600382018160030190816131379190616d02565b50600482015481600401556005820160009054906101000a900460ff168160050160006101000a81548160ff021916908315150217905550600682018160060190816131839190616d02565b509050508080600101915050613086565b5060088054806131a7576131a6616e8a565b5b6001900381819060005260206000209060070201600080820160006131cc9190614b83565b60018201600090556002820160006131e49190614b83565b6003820160006131f49190614b83565b60048201600090556005820160006101000a81549060ff02191690556006820160006132209190614b83565b50509055600b826040516132349190616062565b9081526020016040518091039020600080820160006132539190614b83565b600182016000905560028201600061326b9190614b83565b60038201600061327b9190614b83565b60048201600090556005820160006101000a81549060ff02191690556006820160006132a79190614b83565b5050816040516132b79190616062565b60405180910390207f8f5f7793556433ecc92e19fec29f06611a3ac9c5a32b806db2149f70d52946fe60405160405180910390a26132fd565b8080600101915050612ffc565b5050565b6000600654905090565b601060009054906101000a900460ff1661335a576040517f08c379a000000000000000000000000000000000000000000000000000000000815260040161335190615ef5565b60405180910390fd5b601060019054906101000a900460ff16156133aa576040517f08c379a00000000000000000000000000000000000000000000000000000000081526004016133a19061647e565b60405180910390fd5b6000600b846040516133bc9190616062565b908152602001604051809103902060000180546133d890615cc2565b90501461341a576040517f08c379a000000000000000000000000000000000000000000000000000000000815260040161341190616f05565b60405180910390fd5b6000600a8460405161342c9190616062565b9081526020016040518091039020600001805461344890615cc2565b90500361348a576040517f08c379a000000000000000000000000000000000000000000000000000000000815260040161348190616f71565b60405180910390fd5b60006040518060e0016040528087815260200186815260200185815260200184815260200160008152602001600015158152602001838152509050600881908060018154018082558091505060019003906000526020600020906007020160009091909190915060008201518160000190816135069190616748565b506020820151816001015560408201518160020190816135269190616748565b50606082015181600301908161353c9190616748565b506080820151816004015560a08201518160050160006101000a81548160ff02191690831515021790555060c082015181600601908161357c9190616748565b50505080600b856040516135909190616062565b908152602001604051809103902060008201518160000190816135b39190616748565b506020820151816001015560408201518160020190816135d39190616748565b5060608201518160030190816135e99190616748565b506080820151816004015560a08201518160050160006101000a81548160ff02191690831515021790555060c08201518160060190816136299190616748565b509050506000600c8360405161363f9190616062565b9081526020016040518091039020600101805490501015613695576040517f08c379a000000000000000000000000000000000000000000000000000000000815260040161368c90616fdd565b60405180910390fd5b600c826040516136a59190616062565b908152602001604051809103902060010181908060018154018082558091505060019003906000526020600020906007020160009091909190915060008201518160000190816136f59190616748565b506020820151816001015560408201518160020190816137159190616748565b50606082015181600301908161372b9190616748565b506080820151816004015560a08201518160050160006101000a81548160ff02191690831515021790555060c082015181600601908161376b9190616748565b5050508360405161377c9190616062565b6040518091039020866040516137929190616062565b60405180910390207fd9f17a5389d6109c78413a18e9adfec5a898c288bbd8c9e65de38e95f04b9e078786866040516137cd93929190616ffd565b60405180910390a3505050505050565b674563918244f4000081565b600560009054906101000a900473ffffffffffffffffffffffffffffffffffffffff1673ffffffffffffffffffffffffffffffffffffffff163373ffffffffffffffffffffffffffffffffffffffff1614613879576040517f08c379a000000000000000000000000000000000000000000000000000000000815260040161387090615d3f565b60405180910390fd5b601060019054906101000a900460ff166138c8576040517f08c379a00000000000000000000000000000000000000000000000000000000081526004016138bf9061708e565b60405180910390fd5b600654421061390c576040517f08c379a0000000000000000000000000000000000000000000000000000000008152600401613903906170fa565b60405180910390fd5b6000601060016101000a81548160ff02191690831515021790555060006006819055506001601060006101000a81548160ff0219169083151502179055507f7a19ed057db79e3c2fa0b97a54b43bef4fce74b31bb6c01af514b9a18a7f70ab60405160405180910390a1565b60606007805480602002602001604051908101604052809291908181526020016000905b82821015613b1757838290600052602060002090600402016040518060800160405290816000820180546139cf90615cc2565b80601f01602080910402602001604051908101604052809291908181526020018280546139fb90615cc2565b8015613a485780601f10613a1d57610100808354040283529160200191613a48565b820191906000526020600020905b815481529060010190602001808311613a2b57829003601f168201915b5050505050815260200160018201548152602001600282018054613a6b90615cc2565b80601f0160208091040260200160405190810160405280929190818152602001828054613a9790615cc2565b8015613ae45780601f10613ab957610100808354040283529160200191613ae4565b820191906000526020600020905b815481529060010190602001808311613ac757829003601f168201915b505050505081526020016003820160009054906101000a900460ff1615151515815250508152602001906001019061399c565b50505050905090565b60008083604051602001613b349190617187565b6040516020818303038152906040528051906020012090506000613b5882856141e5565b90503373ffffffffffffffffffffffffffffffffffffffff168173ffffffffffffffffffffffffffffffffffffffff16149250505092915050565b6000600160008473ffffffffffffffffffffffffffffffffffffffff1673ffffffffffffffffffffffffffffffffffffffff16815260200190815260200160002060008373ffffffffffffffffffffffffffffffffffffffff1673ffffffffffffffffffffffffffffffffffffffff16815260200190815260200160002054905092915050565b600080600d60008473ffffffffffffffffffffffffffffffffffffffff1673ffffffffffffffffffffffffffffffffffffffff1681526020019081526020016000206000018054613c6a90615cc2565b905014159050919050565b678ac7230489e8000081565b600033905090565b613c968383836001614211565b505050565b6000613ca78484613b93565b90507fffffffffffffffffffffffffffffffffffffffffffffffffffffffffffffffff8114613d295781811015613d19578281836040517ffb8f41b2000000000000000000000000000000000000000000000000000000008152600401613d10939291906171ad565b60405180910390fd5b613d2884848484036000614211565b5b50505050565b600073ffffffffffffffffffffffffffffffffffffffff168373ffffffffffffffffffffffffffffffffffffffff1603613da15760006040517f96c6fd1e000000000000000000000000000000000000000000000000000000008152600401613d98919061574b565b60405180910390fd5b600073ffffffffffffffffffffffffffffffffffffffff168273ffffffffffffffffffffffffffffffffffffffff1603613e135760006040517fec442f05000000000000000000000000000000000000000000000000000000008152600401613e0a919061574b565b60405180910390fd5b613e1e8383836143e8565b505050565b6060600083905060006002846002613e3b9190615fb0565b613e459190615ff2565b67ffffffffffffffff811115613e5e57613e5d61520a565b5b6040519080825280601f01601f191660200182016040528015613e905781602001600182028036833780820191505090505b5090507f300000000000000000000000000000000000000000000000000000000000000081600081518110613ec857613ec7616886565b5b60200101907effffffffffffffffffffffffffffffffffffffffffffffffffffffffffffff1916908160001a9053507f780000000000000000000000000000000000000000000000000000000000000081600181518110613f2c57613f2b616886565b5b60200101907effffffffffffffffffffffffffffffffffffffffffffffffffffffffffffff1916908160001a90535060006001856002613f6c9190615fb0565b613f769190615ff2565b90505b6001811115614016577f3031323334353637383961626364656600000000000000000000000000000000600f841660108110613fb857613fb7616886565b5b1a60f81b828281518110613fcf57613fce616886565b5b60200101907effffffffffffffffffffffffffffffffffffffffffffffffffffffffffffff1916908160001a905350600483901c92508061400f906171e4565b9050613f79565b506000821461405e5784846040517fe22e27eb00000000000000000000000000000000000000000000000000000000815260040161405592919061720d565b60405180910390fd5b809250505092915050565b6060600060016140788461460d565b01905060008167ffffffffffffffff8111156140975761409661520a565b5b6040519080825280601f01601f1916602001820160405280156140c95781602001600182028036833780820191505090505b509050600082602001820190505b60011561412c578080600190039150507f3031323334353637383961626364656600000000000000000000000000000000600a86061a8153600a85816141205761411f617236565b5b049450600085036140d7575b819350505050919050565b600069d3c21bcecceda100000061414c610da1565b836141579190615ff2565b1115614198576040517f08c379a000000000000000000000000000000000000000000000000000000000815260040161418f906172b1565b60405180910390fd5b6141a28383614760565b7fcda531bfd68624f13205c0a23cd4d5a7f09792cbb399603114f2b04aaa1bf5cf83836040516141d39291906172d1565b60405180910390a16001905092915050565b6000806000806141f586866147e2565b925092509250614205828261483e565b82935050505092915050565b600073ffffffffffffffffffffffffffffffffffffffff168473ffffffffffffffffffffffffffffffffffffffff16036142835760006040517fe602df0500000000000000000000000000000000000000000000000000000000815260040161427a919061574b565b60405180910390fd5b600073ffffffffffffffffffffffffffffffffffffffff168373ffffffffffffffffffffffffffffffffffffffff16036142f55760006040517f94280d620000000000000000000000000000000000000000000000000000000081526004016142ec919061574b565b60405180910390fd5b81600160008673ffffffffffffffffffffffffffffffffffffffff1673ffffffffffffffffffffffffffffffffffffffff16815260200190815260200160002060008573ffffffffffffffffffffffffffffffffffffffff1673ffffffffffffffffffffffffffffffffffffffff1681526020019081526020016000208190555080156143e2578273ffffffffffffffffffffffffffffffffffffffff168473ffffffffffffffffffffffffffffffffffffffff167f8c5be1e5ebec7d5bd14f71427d1e84f3dd0314c0f7b2291e5b200ac8c7c3b925846040516143d99190615037565b60405180910390a35b50505050565b600073ffffffffffffffffffffffffffffffffffffffff168373ffffffffffffffffffffffffffffffffffffffff160361443a57806002600082825461442e9190615ff2565b9250508190555061450d565b60008060008573ffffffffffffffffffffffffffffffffffffffff1673ffffffffffffffffffffffffffffffffffffffff168152602001908152602001600020549050818110156144c6578381836040517fe450d38c0000000000000000000000000000000000000000000000000000000081526004016144bd939291906171ad565b60405180910390fd5b8181036000808673ffffffffffffffffffffffffffffffffffffffff1673ffffffffffffffffffffffffffffffffffffffff16815260200190815260200160002081905550505b600073ffffffffffffffffffffffffffffffffffffffff168273ffffffffffffffffffffffffffffffffffffffff160361455657806002600082825403925050819055506145a3565b806000808473ffffffffffffffffffffffffffffffffffffffff1673ffffffffffffffffffffffffffffffffffffffff168152602001908152602001600020600082825401925050819055505b8173ffffffffffffffffffffffffffffffffffffffff168373ffffffffffffffffffffffffffffffffffffffff167fddf252ad1be2c89b69c2b068fc378daa952ba7f163c4a11628f55a4df523b3ef836040516146009190615037565b60405180910390a3505050565b600080600090507a184f03e93ff9f4daa797ed6e38ed64bf6a1f010000000000000000831061466b577a184f03e93ff9f4daa797ed6e38ed64bf6a1f010000000000000000838161466157614660617236565b5b0492506040810190505b6d04ee2d6d415b85acef810000000083106146a8576d04ee2d6d415b85acef8100000000838161469e5761469d617236565b5b0492506020810190505b662386f26fc1000083106146d757662386f26fc1000083816146cd576146cc617236565b5b0492506010810190505b6305f5e1008310614700576305f5e10083816146f6576146f5617236565b5b0492506008810190505b612710831061472557612710838161471b5761471a617236565b5b0492506004810190505b60648310614748576064838161473e5761473d617236565b5b0492506002810190505b600a8310614757576001810190505b80915050919050565b600073ffffffffffffffffffffffffffffffffffffffff168273ffffffffffffffffffffffffffffffffffffffff16036147d25760006040517fec442f050000000000000000000000000000000000000000000000000000000081526004016147c9919061574b565b60405180910390fd5b6147de600083836143e8565b5050565b600080600060418451036148275760008060006020870151925060408701519150606087015160001a9050614819888285856149a2565b955095509550505050614837565b60006002855160001b9250925092505b9250925092565b60006003811115614852576148516172fa565b5b826003811115614865576148646172fa565b5b031561499e576001600381111561487f5761487e6172fa565b5b826003811115614892576148916172fa565b5b036148c9576040517ff645eedf00000000000000000000000000000000000000000000000000000000815260040160405180910390fd5b600260038111156148dd576148dc6172fa565b5b8260038111156148f0576148ef6172fa565b5b03614935578060001c6040517ffce698f700000000000000000000000000000000000000000000000000000000815260040161492c9190615037565b60405180910390fd5b600380811115614948576149476172fa565b5b82600381111561495b5761495a6172fa565b5b0361499d57806040517fd78bce0c000000000000000000000000000000000000000000000000000000008152600401614994919061560d565b60405180910390fd5b5b5050565b60008060007f7fffffffffffffffffffffffffffffff5d576e7357a4501ddfe92f46681b20a08460001c11156149e2576000600385925092509250614a8c565b600060018888888860405160008152602001604052604051614a079493929190617329565b6020604051602081039080840390855afa158015614a29573d6000803e3d6000fd5b505050602060405103519050600073ffffffffffffffffffffffffffffffffffffffff168173ffffffffffffffffffffffffffffffffffffffff1603614a7d57600060016000801b93509350935050614a8c565b8060008060001b935093509350505b9450945094915050565b828054828255906000526020600020906007028101928215614b725760005260206000209160070282015b82811115614b7157828260008201816000019081614adf9190616d02565b506001820154816001015560028201816002019081614afe9190616d02565b5060038201816003019081614b139190616d02565b50600482015481600401556005820160009054906101000a900460ff168160050160006101000a81548160ff02191690831515021790555060068201816006019081614b5f9190616d02565b50505091600701919060070190614ac1565b5b509050614b7f9190614bc3565b5090565b508054614b8f90615cc2565b6000825580601f10614ba15750614bc0565b601f016020900490600052602060002090810190614bbf9190614c3e565b5b50565b5b80821115614c3a5760008082016000614bdd9190614b83565b6001820160009055600282016000614bf59190614b83565b600382016000614c059190614b83565b60048201600090556005820160006101000a81549060ff0219169055600682016000614c319190614b83565b50600701614bc4565b5090565b5b80821115614c57576000816000905550600101614c3f565b5090565b600081519050919050565b600082825260208201905092915050565b6000819050602082019050919050565b600081519050919050565b600082825260208201905092915050565b60005b83811015614cc1578082015181840152602081019050614ca6565b60008484015250505050565b6000601f19601f8301169050919050565b6000614ce982614c87565b614cf38185614c92565b9350614d03818560208601614ca3565b614d0c81614ccd565b840191505092915050565b6000819050919050565b614d2a81614d17565b82525050565b60008115159050919050565b614d4581614d30565b82525050565b600060e0830160008301518482036000860152614d688282614cde565b9150506020830151614d7d6020860182614d21565b5060408301518482036040860152614d958282614cde565b91505060608301518482036060860152614daf8282614cde565b9150506080830151614dc46080860182614d21565b5060a0830151614dd760a0860182614d3c565b5060c083015184820360c0860152614def8282614cde565b9150508091505092915050565b6000614e088383614d4b565b905092915050565b6000602082019050919050565b6000614e2882614c5b565b614e328185614c66565b935083602082028501614e4485614c77565b8060005b85811015614e805784840389528151614e618582614dfc565b9450614e6c83614e10565b925060208a01995050600181019050614e48565b50829750879550505050505092915050565b60006020820190508181036000830152614eac8184614e1d565b905092915050565b600082825260208201905092915050565b6000614ed082614c87565b614eda8185614eb4565b9350614eea818560208601614ca3565b614ef381614ccd565b840191505092915050565b60006020820190508181036000830152614f188184614ec5565b905092915050565b6000604051905090565b600080fd5b600080fd5b600073ffffffffffffffffffffffffffffffffffffffff82169050919050565b6000614f5f82614f34565b9050919050565b614f6f81614f54565b8114614f7a57600080fd5b50565b600081359050614f8c81614f66565b92915050565b614f9b81614d17565b8114614fa657600080fd5b50565b600081359050614fb881614f92565b92915050565b60008060408385031215614fd557614fd4614f2a565b5b6000614fe385828601614f7d565b9250506020614ff485828601614fa9565b9150509250929050565b61500781614d30565b82525050565b60006020820190506150226000830184614ffe565b92915050565b61503181614d17565b82525050565b600060208201905061504c6000830184615028565b92915050565b600081519050919050565b600082825260208201905092915050565b6000819050602082019050919050565b600082825260208201905092915050565b600061509a82614c5b565b6150a4818561507e565b9350836020820285016150b685614c77565b8060005b858110156150f257848403895281516150d38582614dfc565b94506150de83614e10565b925060208a019950506001810190506150ba565b50829750879550505050505092915050565b600060408301600083015184820360008601526151218282614cde565b9150506020830151848203602086015261513b828261508f565b9150508091505092915050565b60006151548383615104565b905092915050565b6000602082019050919050565b600061517482615052565b61517e818561505d565b9350836020820285016151908561506e565b8060005b858110156151cc57848403895281516151ad8582615148565b94506151b88361515c565b925060208a01995050600181019050615194565b50829750879550505050505092915050565b600060208201905081810360008301526151f88184615169565b905092915050565b600080fd5b600080fd5b7f4e487b7100000000000000000000000000000000000000000000000000000000600052604160045260246000fd5b61524282614ccd565b810181811067ffffffffffffffff821117156152615761526061520a565b5b80604052505050565b6000615274614f20565b90506152808282615239565b919050565b600067ffffffffffffffff8211156152a05761529f61520a565b5b6152a982614ccd565b9050602081019050919050565b82818337600083830152505050565b60006152d86152d384615285565b61526a565b9050828152602081018484840111156152f4576152f3615205565b5b6152ff8482856152b6565b509392505050565b600082601f83011261531c5761531b615200565b5b813561532c8482602086016152c5565b91505092915050565b60006020828403121561534b5761534a614f2a565b5b600082013567ffffffffffffffff81111561536957615368614f2f565b5b61537584828501615307565b91505092915050565b600060e0820190508181036000830152615398818a614ec5565b90506153a76020830189615028565b81810360408301526153b98188614ec5565b905081810360608301526153cd8187614ec5565b90506153dc6080830186615028565b6153e960a0830185614ffe565b81810360c08301526153fb8184614ec5565b905098975050505050505050565b60008060006060848603121561542257615421614f2a565b5b600061543086828701614f7d565b935050602061544186828701614f7d565b925050604061545286828701614fa9565b9150509250925092565b600060ff82169050919050565b6154728161545c565b82525050565b600060208201905061548d6000830184615469565b92915050565b6000602082840312156154a9576154a8614f2a565b5b60006154b784828501614fa9565b91505092915050565b600060808201905081810360008301526154da8187614ec5565b90506154e96020830186615028565b81810360408301526154fb8185614ec5565b905061550a6060830184614ffe565b95945050505050565b60008060008060008060c087890312156155305761552f614f2a565b5b600061553e89828a01614f7d565b965050602087013567ffffffffffffffff81111561555f5761555e614f2f565b5b61556b89828a01615307565b955050604087013567ffffffffffffffff81111561558c5761558b614f2f565b5b61559889828a01615307565b945050606087013567ffffffffffffffff8111156155b9576155b8614f2f565b5b6155c589828a01615307565b93505060806155d689828a01614fa9565b92505060a06155e789828a01614fa9565b9150509295509295509295565b6000819050919050565b615607816155f4565b82525050565b600060208201905061562260008301846155fe565b92915050565b60008060006060848603121561564157615640614f2a565b5b600084013567ffffffffffffffff81111561565f5761565e614f2f565b5b61566b86828701615307565b935050602061567c86828701614fa9565b925050604084013567ffffffffffffffff81111561569d5761569c614f2f565b5b6156a986828701615307565b9150509250925092565b6000602082840312156156c9576156c8614f2a565b5b60006156d784828501614f7d565b91505092915050565b600080604083850312156156f7576156f6614f2a565b5b600061570585828601614f7d565b925050602083013567ffffffffffffffff81111561572657615725614f2f565b5b61573285828601615307565b9150509250929050565b61574581614f54565b82525050565b6000602082019050615760600083018461573c565b92915050565b6000806040838503121561577d5761577c614f2a565b5b600083013567ffffffffffffffff81111561579b5761579a614f2f565b5b6157a785828601615307565b92505060206157b885828601614fa9565b9150509250929050565b600067ffffffffffffffff8211156157dd576157dc61520a565b5b602082029050602081019050919050565b600080fd5b6000615806615801846157c2565b61526a565b90508083825260208201905060208402830185811115615829576158286157ee565b5b835b8181101561587057803567ffffffffffffffff81111561584e5761584d615200565b5b80860161585b8982615307565b8552602085019450505060208101905061582b565b5050509392505050565b600082601f83011261588f5761588e615200565b5b813561589f8482602086016157f3565b91505092915050565b6000602082840312156158be576158bd614f2a565b5b600082013567ffffffffffffffff8111156158dc576158db614f2f565b5b6158e88482850161587a565b91505092915050565b600080600080600060a0868803121561590d5761590c614f2a565b5b600086013567ffffffffffffffff81111561592b5761592a614f2f565b5b61593788828901615307565b955050602061594888828901614fa9565b945050604086013567ffffffffffffffff81111561596957615968614f2f565b5b61597588828901615307565b935050606086013567ffffffffffffffff81111561599657615995614f2f565b5b6159a288828901615307565b925050608086013567ffffffffffffffff8111156159c3576159c2614f2f565b5b6159cf88828901615307565b9150509295509295909350565b600081519050919050565b600082825260208201905092915050565b6000819050602082019050919050565b60006080830160008301518482036000860152615a258282614cde565b9150506020830151615a3a6020860182614d21565b5060408301518482036040860152615a528282614cde565b9150506060830151615a676060860182614d3c565b508091505092915050565b6000615a7e8383615a08565b905092915050565b6000602082019050919050565b6000615a9e826159dc565b615aa881856159e7565b935083602082028501615aba856159f8565b8060005b85811015615af65784840389528151615ad78582615a72565b9450615ae283615a86565b925060208a01995050600181019050615abe565b50829750879550505050505092915050565b60006020820190508181036000830152615b228184615a93565b905092915050565b615b33816155f4565b8114615b3e57600080fd5b50565b600081359050615b5081615b2a565b92915050565b600067ffffffffffffffff821115615b7157615b7061520a565b5b615b7a82614ccd565b9050602081019050919050565b6000615b9a615b9584615b56565b61526a565b905082815260208101848484011115615bb657615bb5615205565b5b615bc18482856152b6565b509392505050565b600082601f830112615bde57615bdd615200565b5b8135615bee848260208601615b87565b91505092915050565b60008060408385031215615c0e57615c0d614f2a565b5b6000615c1c85828601615b41565b925050602083013567ffffffffffffffff811115615c3d57615c3c614f2f565b5b615c4985828601615bc9565b9150509250929050565b60008060408385031215615c6a57615c69614f2a565b5b6000615c7885828601614f7d565b9250506020615c8985828601614f7d565b9150509250929050565b7f4e487b7100000000000000000000000000000000000000000000000000000000600052602260045260246000fd5b60006002820490506001821680615cda57607f821691505b602082108103615ced57615cec615c93565b5b50919050565b7f596f7520617265206e6f7420746865206f776e65722100000000000000000000600082015250565b6000615d29601683614eb4565b9150615d3482615cf3565b602082019050919050565b60006020820190508181036000830152615d5881615d1c565b9050919050565b7f526567697374726174696f6e2068617320616c7265616479207374617274656460008201527f2e00000000000000000000000000000000000000000000000000000000000000602082015250565b6000615dbb602183614eb4565b9150615dc682615d5f565b604082019050919050565b60006020820190508181036000830152615dea81615dae565b9050919050565b7f43616e6e6f7420737461727420726567697374726174696f6e2061667465722060008201527f766f74696e672068617320626567756e2e000000000000000000000000000000602082015250565b6000615e4d603183614eb4565b9150615e5882615df1565b604082019050919050565b60006020820190508181036000830152615e7c81615e40565b9050919050565b7f526567697374726174696f6e20706572696f6420686173206e6f74207374617260008201527f7465642e00000000000000000000000000000000000000000000000000000000602082015250565b6000615edf602483614eb4565b9150615eea82615e83565b604082019050919050565b60006020820190508181036000830152615f0e81615ed2565b9050919050565b7f566f74696e672068617320616c726561647920737461727465642e0000000000600082015250565b6000615f4b601b83614eb4565b9150615f5682615f15565b602082019050919050565b60006020820190508181036000830152615f7a81615f3e565b9050919050565b7f4e487b7100000000000000000000000000000000000000000000000000000000600052601160045260246000fd5b6000615fbb82614d17565b9150615fc683614d17565b9250828202615fd481614d17565b91508282048414831517615feb57615fea615f81565b5b5092915050565b6000615ffd82614d17565b915061600883614d17565b92508282019050808211156160205761601f615f81565b5b92915050565b600081905092915050565b600061603c82614c87565b6160468185616026565b9350616056818560208601614ca3565b80840191505092915050565b600061606e8284616031565b915081905092915050565b7f19457468657265756d205369676e6564204d6573736167653a0a000000000000600082015250565b60006160af601a83616026565b91506160ba82616079565b601a82019050919050565b7f446f6d61696e3a20000000000000000000000000000000000000000000000000600082015250565b60006160fb600883616026565b9150616106826160c5565b600882019050919050565b7f0a00000000000000000000000000000000000000000000000000000000000000600082015250565b6000616147600183616026565b915061615282616111565b600182019050919050565b7f416464726573733a200000000000000000000000000000000000000000000000600082015250565b6000616193600983616026565b915061619e8261615d565b600982019050919050565b7f53746174656d656e743a20000000000000000000000000000000000000000000600082015250565b60006161df600b83616026565b91506161ea826161a9565b600b82019050919050565b7f5552493a20000000000000000000000000000000000000000000000000000000600082015250565b600061622b600583616026565b9150616236826161f5565b600582019050919050565b7f56657273696f6e3a20310a000000000000000000000000000000000000000000600082015250565b6000616277600b83616026565b915061628282616241565b600b82019050919050565b7f436861696e2049443a2000000000000000000000000000000000000000000000600082015250565b60006162c3600a83616026565b91506162ce8261628d565b600a82019050919050565b7f4e6f6e63653a2000000000000000000000000000000000000000000000000000600082015250565b600061630f600783616026565b915061631a826162d9565b600782019050919050565b6000616330826160a2565b915061633b826160ee565b91506163478289616031565b91506163528261613a565b915061635d82616186565b91506163698288616031565b91506163748261613a565b915061637f826161d2565b915061638b8287616031565b91506163968261613a565b91506163a18261621e565b91506163ad8286616031565b91506163b88261613a565b91506163c38261626a565b91506163ce826162b6565b91506163da8285616031565b91506163e58261613a565b91506163f082616302565b91506163fc8284616031565b9150819050979650505050505050565b7f43616e6e6f7420726567697374657220647572696e6720766f74696e6720706560008201527f72696f642e000000000000000000000000000000000000000000000000000000602082015250565b6000616468602583614eb4565b91506164738261640c565b604082019050919050565b600060208201905081810360008301526164978161645b565b9050919050565b7f566f74657220616c726561647920657869737473210000000000000000000000600082015250565b60006164d4601583614eb4565b91506164df8261649e565b602082019050919050565b60006020820190508181036000830152616503816164c7565b9050919050565b7f4163636f756e7420616c7265616479207265676973746572656420617320766f60008201527f7465720000000000000000000000000000000000000000000000000000000000602082015250565b6000616566602383614eb4565b91506165718261650a565b604082019050919050565b6000602082019050818103600083015261659581616559565b9050919050565b60008190508160005260206000209050919050565b60006020601f8301049050919050565b600082821b905092915050565b6000600883026165fe7fffffffffffffffffffffffffffffffffffffffffffffffffffffffffffffffff826165c1565b61660886836165c1565b95508019841693508086168417925050509392505050565b6000819050919050565b600061664561664061663b84614d17565b616620565b614d17565b9050919050565b6000819050919050565b61665f8361662a565b61667361666b8261664c565b8484546165ce565b825550505050565b600090565b61668861667b565b616693818484616656565b505050565b5b818110156166b7576166ac600082616680565b600181019050616699565b5050565b601f8211156166fc576166cd8161659c565b6166d6846165b1565b810160208510156166e5578190505b6166f96166f1856165b1565b830182616698565b50505b505050565b600082821c905092915050565b600061671f60001984600802616701565b1980831691505092915050565b6000616738838361670e565b9150826002028217905092915050565b61675182614c87565b67ffffffffffffffff81111561676a5761676961520a565b5b6167748254615cc2565b61677f8282856166bb565b600060209050601f8311600181146167b257600084156167a0578287015190505b6167aa858261672c565b865550616812565b601f1984166167c08661659c565b60005b828110156167e8578489015182556001820191506020850194506020810190506167c3565b868310156168055784890151616801601f89168261670e565b8355505b6001600288020188555050505b505050505050565b7f43616e64696461746520616c7265616479207665726966696564210000000000600082015250565b6000616850601b83614eb4565b915061685b8261681a565b602082019050919050565b6000602082019050818103600083015261687f81616843565b9050919050565b7f4e487b7100000000000000000000000000000000000000000000000000000000600052603260045260246000fd5b600081546168c281615cc2565b6168cc8186616026565b945060018216600081146168e757600181146168fc5761692f565b60ff198316865281151582028601935061692f565b6169058561659c565b60005b8381101561692757815481890152600182019150602081019050616908565b838801955050505b50505092915050565b600061694482846168b5565b915081905092915050565b7f526567697374726174696f6e20706572696f64206973207374696c6c2061637460008201527f6976652e00000000000000000000000000000000000000000000000000000000602082015250565b60006169ab602483614eb4565b91506169b68261694f565b604082019050919050565b600060208201905081810360008301526169da8161699e565b9050919050565b7f566f74696e6720686173206e6f742073746172746564207965742e0000000000600082015250565b6000616a17601b83614eb4565b9150616a22826169e1565b602082019050919050565b60006020820190508181036000830152616a4681616a0a565b9050919050565b7f496e76616c696420706f736974696f6e2e000000000000000000000000000000600082015250565b6000616a83601183614eb4565b9150616a8e82616a4d565b602082019050919050565b60006020820190508181036000830152616ab281616a76565b9050919050565b7f496e76616c69642063616e64696461746520696e6465782e0000000000000000600082015250565b6000616aef601883614eb4565b9150616afa82616ab9565b602082019050919050565b60006020820190508181036000830152616b1e81616ae2565b9050919050565b7f596f75206861766520616c726561647920766f74656420666f7220746869732060008201527f706f736974696f6e2e0000000000000000000000000000000000000000000000602082015250565b6000616b81602983614eb4565b9150616b8c82616b25565b604082019050919050565b60006020820190508181036000830152616bb081616b74565b9050919050565b60008154616bc481615cc2565b616bce8186614eb4565b94506001821660008114616be95760018114616bff57616c32565b60ff198316865281151560200286019350616c32565b616c088561659c565b60005b83811015616c2a57815481890152600182019150602081019050616c0b565b808801955050505b50505092915050565b60006060820190508181036000830152616c558186616bb7565b90508181036020830152616c698185614ec5565b9050616c786040830184615028565b949350505050565b7f506f736974696f6e20616c726561647920657869737473210000000000000000600082015250565b6000616cb6601883614eb4565b9150616cc182616c80565b602082019050919050565b60006020820190508181036000830152616ce581616ca9565b9050919050565b600081549050616cfb81615cc2565b9050919050565b818103616d10575050616de8565b616d1982616cec565b67ffffffffffffffff811115616d3257616d3161520a565b5b616d3c8254615cc2565b616d478282856166bb565b6000601f831160018114616d765760008415616d64578287015490505b616d6e858261672c565b865550616de1565b601f198416616d848761659c565b9650616d8f8661659c565b60005b82811015616db757848901548255600182019150600185019450602081019050616d92565b86831015616dd45784890154616dd0601f89168261670e565b8355505b6001600288020188555050505b5050505050505b565b7f43616e64696461746520646f6573206e6f742065786973742100000000000000600082015250565b6000616e20601983614eb4565b9150616e2b82616dea565b602082019050919050565b60006020820190508181036000830152616e4f81616e13565b9050919050565b6000616e6182614d17565b9150616e6c83614d17565b9250828203905081811115616e8457616e83615f81565b5b92915050565b7f4e487b7100000000000000000000000000000000000000000000000000000000600052603160045260246000fd5b7f43616e64696461746520616c7265616479206578697374732100000000000000600082015250565b6000616eef601983614eb4565b9150616efa82616eb9565b602082019050919050565b60006020820190508181036000830152616f1e81616ee2565b9050919050565b7f596f75206d7573742062652061207265676973746572656420766f7465722100600082015250565b6000616f5b601f83614eb4565b9150616f6682616f25565b602082019050919050565b60006020820190508181036000830152616f8a81616f4e565b9050919050565b7f506f736974696f6e20646f6573206e6f74206578697374210000000000000000600082015250565b6000616fc7601883614eb4565b9150616fd282616f91565b602082019050919050565b60006020820190508181036000830152616ff681616fba565b9050919050565b60006060820190506170126000830186615028565b81810360208301526170248185614ec5565b905081810360408301526170388184614ec5565b9050949350505050565b7f566f74696e6720686173206e6f7420737461727465642e000000000000000000600082015250565b6000617078601783614eb4565b915061708382617042565b602082019050919050565b600060208201905081810360008301526170a78161706b565b9050919050565b7f566f74696e6720706572696f6420686173206e6f7420656e6465642e00000000600082015250565b60006170e4601c83614eb4565b91506170ef826170ae565b602082019050919050565b60006020820190508181036000830152617113816170d7565b9050919050565b7f19457468657265756d205369676e6564204d6573736167653a0a333200000000600082015250565b6000617150601c83616026565b915061715b8261711a565b601c82019050919050565b6000819050919050565b61718161717c826155f4565b617166565b82525050565b600061719282617143565b915061719e8284617170565b60208201915081905092915050565b60006060820190506171c2600083018661573c565b6171cf6020830185615028565b6171dc6040830184615028565b949350505050565b60006171ef82614d17565b91506000820361720257617201615f81565b5b600182039050919050565b60006040820190506172226000830185615028565b61722f6020830184615028565b9392505050565b7f4e487b7100000000000000000000000000000000000000000000000000000000600052601260045260246000fd5b7f546f6b656e206c696d6974206578636565646564210000000000000000000000600082015250565b600061729b601583614eb4565b91506172a682617265565b602082019050919050565b600060208201905081810360008301526172ca8161728e565b9050919050565b60006040820190506172e6600083018561573c565b6172f36020830184615028565b9392505050565b7f4e487b7100000000000000000000000000000000000000000000000000000000600052602160045260246000fd5b600060808201905061733e60008301876155fe565b61734b6020830186615469565b61735860408301856155fe565b61736560608301846155fe565b9594505050505056fea2646970667358221220d1e196d99026cccf009fcb788468b6b6a768329432ad39bce4847eb8225f422064736f6c634300081b0033",
  "linkReferences": {},
  "deployedLinkReferences": {}
}