{
  "_format": "hh-sol-artifact-1",
  "contractName": "Voting",
  "sourceName": "contracts/Voting.sol",
  "abi": [
    {
      "inputs": [],
      "stateMutability": "nonpayable",
      "type": "constructor"
    },
    {
      "inputs": [],
      "name": "ECDSAInvalidSignature",
      "type": "error"
    },
    {
      "inputs": [
        {
          "internalType": "uint256",
          "name": "length",
          "type": "uint256"
        }
      ],
      "name": "ECDSAInvalidSignatureLength",
      "type": "error"
    },
    {
      "inputs": [
        {
          "internalType": "bytes32",
          "name": "s",
          "type": "bytes32"
        }
      ],
      "name": "ECDSAInvalidSignatureS",
      "type": "error"
    },
    {
      "inputs": [
        {
          "internalType": "address",
          "name": "spender",
          "type": "address"
        },
        {
          "internalType": "uint256",
          "name": "allowance",
          "type": "uint256"
        },
        {
          "internalType": "uint256",
          "name": "needed",
          "type": "uint256"
        }
      ],
      "name": "ERC20InsufficientAllowance",
      "type": "error"
    },
    {
      "inputs": [
        {
          "internalType": "address",
          "name": "sender",
          "type": "address"
        },
        {
          "internalType": "uint256",
          "name": "balance",
          "type": "uint256"
        },
        {
          "internalType": "uint256",
          "name": "needed",
          "type": "uint256"
        }
      ],
      "name": "ERC20InsufficientBalance",
      "type": "error"
    },
    {
      "inputs": [
        {
          "internalType": "address",
          "name": "approver",
          "type": "address"
        }
      ],
      "name": "ERC20InvalidApprover",
      "type": "error"
    },
    {
      "inputs": [
        {
          "internalType": "address",
          "name": "receiver",
          "type": "address"
        }
      ],
      "name": "ERC20InvalidReceiver",
      "type": "error"
    },
    {
      "inputs": [
        {
          "internalType": "address",
          "name": "sender",
          "type": "address"
        }
      ],
      "name": "ERC20InvalidSender",
      "type": "error"
    },
    {
      "inputs": [
        {
          "internalType": "address",
          "name": "spender",
          "type": "address"
        }
      ],
      "name": "ERC20InvalidSpender",
      "type": "error"
    },
    {
      "inputs": [
        {
          "internalType": "uint256",
          "name": "value",
          "type": "uint256"
        },
        {
          "internalType": "uint256",
          "name": "length",
          "type": "uint256"
        }
      ],
      "name": "StringsInsufficientHexLength",
      "type": "error"
    },
    {
      "anonymous": false,
      "inputs": [
        {
          "indexed": true,
          "internalType": "address",
          "name": "owner",
          "type": "address"
        },
        {
          "indexed": true,
          "internalType": "address",
          "name": "spender",
          "type": "address"
        },
        {
          "indexed": false,
          "internalType": "uint256",
          "name": "value",
          "type": "uint256"
        }
      ],
      "name": "Approval",
      "type": "event"
    },
    {
      "anonymous": false,
      "inputs": [
        {
          "indexed": true,
          "internalType": "string",
          "name": "_names",
          "type": "string"
        },
        {
          "indexed": false,
          "internalType": "uint256",
          "name": "_age",
          "type": "uint256"
        },
        {
          "indexed": true,
          "internalType": "string",
          "name": "_idNumber",
          "type": "string"
        },
        {
          "indexed": false,
          "internalType": "string",
          "name": "_party",
          "type": "string"
        },
        {
          "indexed": false,
          "internalType": "string",
          "name": "_position",
          "type": "string"
        }
      ],
      "name": "CandidateRegistrationSuccess",
      "type": "event"
    },
    {
      "anonymous": false,
      "inputs": [
        {
          "indexed": false,
          "internalType": "address",
          "name": "_to",
          "type": "address"
        },
        {
          "indexed": false,
          "internalType": "uint256",
          "name": "_amount",
          "type": "uint256"
        }
      ],
      "name": "MintSuccess",
      "type": "event"
    },
    {
      "anonymous": false,
      "inputs": [
        {
          "indexed": false,
          "internalType": "string",
          "name": "positionName",
          "type": "string"
        }
      ],
      "name": "PositionAdded",
      "type": "event"
    },
    {
      "anonymous": false,
      "inputs": [],
      "name": "RegistrationEnded",
      "type": "event"
    },
    {
      "anonymous": false,
      "inputs": [],
      "name": "RegistrationStarted",
      "type": "event"
    },
    {
      "anonymous": false,
      "inputs": [
        {
          "indexed": true,
          "internalType": "address",
          "name": "from",
          "type": "address"
        },
        {
          "indexed": true,
          "internalType": "address",
          "name": "to",
          "type": "address"
        },
        {
          "indexed": false,
          "internalType": "uint256",
          "name": "value",
          "type": "uint256"
        }
      ],
      "name": "Transfer",
      "type": "event"
    },
    {
      "anonymous": false,
      "inputs": [
        {
          "indexed": true,
          "internalType": "string",
          "name": "_names",
          "type": "string"
        },
        {
          "indexed": true,
          "internalType": "string",
          "name": "_idNumber",
          "type": "string"
        }
      ],
      "name": "VerifyCandidateSuccess",
      "type": "event"
    },
    {
      "anonymous": false,
      "inputs": [
        {
          "indexed": true,
          "internalType": "address",
          "name": "voter",
          "type": "address"
        },
        {
          "indexed": false,
          "internalType": "string",
          "name": "_idNumber",
          "type": "string"
        },
        {
          "indexed": false,
          "internalType": "string",
          "name": "position",
          "type": "string"
        },
        {
          "indexed": false,
          "internalType": "uint256",
          "name": "candidateIndex",
          "type": "uint256"
        }
      ],
      "name": "VotedSuccess",
      "type": "event"
    },
    {
      "anonymous": false,
      "inputs": [
        {
          "indexed": true,
          "internalType": "string",
          "name": "_names",
          "type": "string"
        },
        {
          "indexed": false,
          "internalType": "uint256",
          "name": "_age",
          "type": "uint256"
        },
        {
          "indexed": true,
          "internalType": "string",
          "name": "_idNumber",
          "type": "string"
        }
      ],
      "name": "VoterRegistrationSuccess",
      "type": "event"
    },
    {
      "anonymous": false,
      "inputs": [],
      "name": "VotingStarted",
      "type": "event"
    },
    {
      "inputs": [],
      "name": "MAX_SUPPLY",
      "outputs": [
        {
          "internalType": "uint256",
          "name": "",
          "type": "uint256"
        }
      ],
      "stateMutability": "view",
      "type": "function"
    },
    {
      "inputs": [],
      "name": "REGISTER_AS_VOTER",
      "outputs": [
        {
          "internalType": "uint256",
          "name": "",
          "type": "uint256"
        }
      ],
      "stateMutability": "view",
      "type": "function"
    },
    {
      "inputs": [],
      "name": "VERIFY_CANDIDATE",
      "outputs": [
        {
          "internalType": "uint256",
          "name": "",
          "type": "uint256"
        }
      ],
      "stateMutability": "view",
      "type": "function"
    },
    {
      "inputs": [
        {
          "internalType": "string[]",
          "name": "_pNames",
          "type": "string[]"
        }
      ],
      "name": "addPositions",
      "outputs": [],
      "stateMutability": "nonpayable",
      "type": "function"
    },
    {
      "inputs": [
        {
          "internalType": "address",
          "name": "owner",
          "type": "address"
        },
        {
          "internalType": "address",
          "name": "spender",
          "type": "address"
        }
      ],
      "name": "allowance",
      "outputs": [
        {
          "internalType": "uint256",
          "name": "",
          "type": "uint256"
        }
      ],
      "stateMutability": "view",
      "type": "function"
    },
    {
      "inputs": [
        {
          "internalType": "address",
          "name": "spender",
          "type": "address"
        },
        {
          "internalType": "uint256",
          "name": "value",
          "type": "uint256"
        }
      ],
      "name": "approve",
      "outputs": [
        {
          "internalType": "bool",
          "name": "",
          "type": "bool"
        }
      ],
      "stateMutability": "nonpayable",
      "type": "function"
    },
    {
      "inputs": [
        {
          "internalType": "address",
          "name": "account",
          "type": "address"
        }
      ],
      "name": "balanceOf",
      "outputs": [
        {
          "internalType": "uint256",
          "name": "",
          "type": "uint256"
        }
      ],
      "stateMutability": "view",
      "type": "function"
    },
    {
      "inputs": [
        {
          "internalType": "string",
          "name": "",
          "type": "string"
        }
      ],
      "name": "candidateObject",
      "outputs": [
        {
          "internalType": "string",
          "name": "names",
          "type": "string"
        },
        {
          "internalType": "uint256",
          "name": "age",
          "type": "uint256"
        },
        {
          "internalType": "string",
          "name": "idNumber",
          "type": "string"
        },
        {
          "internalType": "string",
          "name": "party",
          "type": "string"
        },
        {
          "internalType": "uint256",
          "name": "votes",
          "type": "uint256"
        },
        {
          "internalType": "bool",
          "name": "verified",
          "type": "bool"
        },
        {
          "internalType": "string",
          "name": "position",
          "type": "string"
        }
      ],
      "stateMutability": "view",
      "type": "function"
    },
    {
      "inputs": [
        {
          "internalType": "address",
          "name": "userAddress",
          "type": "address"
        },
        {
          "internalType": "string",
          "name": "domain",
          "type": "string"
        },
        {
          "internalType": "string",
          "name": "statement",
          "type": "string"
        },
        {
          "internalType": "string",
          "name": "uri",
          "type": "string"
        },
        {
          "internalType": "uint256",
          "name": "chainId",
          "type": "uint256"
        },
        {
          "internalType": "uint256",
          "name": "nonce",
          "type": "uint256"
        }
      ],
      "name": "createMessageHash",
      "outputs": [
        {
          "internalType": "bytes32",
          "name": "",
          "type": "bytes32"
        }
      ],
      "stateMutability": "pure",
      "type": "function"
    },
    {
      "inputs": [],
      "name": "decimals",
      "outputs": [
        {
          "internalType": "uint8",
          "name": "",
          "type": "uint8"
        }
      ],
      "stateMutability": "view",
      "type": "function"
    },
    {
      "inputs": [],
      "name": "endRegistrationAndStartVoting",
      "outputs": [],
      "stateMutability": "nonpayable",
      "type": "function"
    },
    {
      "inputs": [],
      "name": "getAllPositions",
      "outputs": [
        {
          "components": [
            {
              "internalType": "string",
              "name": "pName",
              "type": "string"
            },
            {
              "components": [
                {
                  "internalType": "string",
                  "name": "names",
                  "type": "string"
                },
                {
                  "internalType": "uint256",
                  "name": "age",
                  "type": "uint256"
                },
                {
                  "internalType": "string",
                  "name": "idNumber",
                  "type": "string"
                },
                {
                  "internalType": "string",
                  "name": "party",
                  "type": "string"
                },
                {
                  "internalType": "uint256",
                  "name": "votes",
                  "type": "uint256"
                },
                {
                  "internalType": "bool",
                  "name": "verified",
                  "type": "bool"
                },
                {
                  "internalType": "string",
                  "name": "position",
                  "type": "string"
                }
              ],
              "internalType": "struct Voting.Candidate[]",
              "name": "candidates",
              "type": "tuple[]"
            }
          ],
          "internalType": "struct Voting.Position[]",
          "name": "",
          "type": "tuple[]"
        }
      ],
      "stateMutability": "view",
      "type": "function"
    },
    {
      "inputs": [],
      "name": "getCandidates",
      "outputs": [
        {
          "components": [
            {
              "internalType": "string",
              "name": "names",
              "type": "string"
            },
            {
              "internalType": "uint256",
              "name": "age",
              "type": "uint256"
            },
            {
              "internalType": "string",
              "name": "idNumber",
              "type": "string"
            },
            {
              "internalType": "string",
              "name": "party",
              "type": "string"
            },
            {
              "internalType": "uint256",
              "name": "votes",
              "type": "uint256"
            },
            {
              "internalType": "bool",
              "name": "verified",
              "type": "bool"
            },
            {
              "internalType": "string",
              "name": "position",
              "type": "string"
            }
          ],
          "internalType": "struct Voting.Candidate[]",
          "name": "",
          "type": "tuple[]"
        }
      ],
      "stateMutability": "view",
      "type": "function"
    },
    {
      "inputs": [],
      "name": "getPositionCount",
      "outputs": [
        {
          "internalType": "uint256",
          "name": "",
          "type": "uint256"
        }
      ],
      "stateMutability": "view",
      "type": "function"
    },
    {
      "inputs": [],
      "name": "getVoters",
      "outputs": [
        {
          "components": [
            {
              "internalType": "string",
              "name": "names",
              "type": "string"
            },
            {
              "internalType": "uint256",
              "name": "age",
              "type": "uint256"
            },
            {
              "internalType": "string",
              "name": "idNumber",
              "type": "string"
            },
            {
              "internalType": "bool",
              "name": "voted",
              "type": "bool"
            }
          ],
          "internalType": "struct Voting.Voter[]",
          "name": "",
          "type": "tuple[]"
        }
      ],
      "stateMutability": "view",
      "type": "function"
    },
    {
      "inputs": [
        {
          "internalType": "address",
          "name": "_account",
          "type": "address"
        }
      ],
      "name": "isVoterRegistered",
      "outputs": [
        {
          "internalType": "bool",
          "name": "",
          "type": "bool"
        }
      ],
      "stateMutability": "view",
      "type": "function"
    },
    {
      "inputs": [
        {
          "internalType": "uint256",
          "name": "",
          "type": "uint256"
        }
      ],
      "name": "listOfCandidates",
      "outputs": [
        {
          "internalType": "string",
          "name": "names",
          "type": "string"
        },
        {
          "internalType": "uint256",
          "name": "age",
          "type": "uint256"
        },
        {
          "internalType": "string",
          "name": "idNumber",
          "type": "string"
        },
        {
          "internalType": "string",
          "name": "party",
          "type": "string"
        },
        {
          "internalType": "uint256",
          "name": "votes",
          "type": "uint256"
        },
        {
          "internalType": "bool",
          "name": "verified",
          "type": "bool"
        },
        {
          "internalType": "string",
          "name": "position",
          "type": "string"
        }
      ],
      "stateMutability": "view",
      "type": "function"
    },
    {
      "inputs": [
        {
          "internalType": "uint256",
          "name": "",
          "type": "uint256"
        }
      ],
      "name": "listOfPositions",
      "outputs": [
        {
          "internalType": "string",
          "name": "pName",
          "type": "string"
        }
      ],
      "stateMutability": "view",
      "type": "function"
    },
    {
      "inputs": [
        {
          "internalType": "uint256",
          "name": "",
          "type": "uint256"
        }
      ],
      "name": "listOfVoters",
      "outputs": [
        {
          "internalType": "string",
          "name": "names",
          "type": "string"
        },
        {
          "internalType": "uint256",
          "name": "age",
          "type": "uint256"
        },
        {
          "internalType": "string",
          "name": "idNumber",
          "type": "string"
        },
        {
          "internalType": "bool",
          "name": "voted",
          "type": "bool"
        }
      ],
      "stateMutability": "view",
      "type": "function"
    },
    {
      "inputs": [],
      "name": "name",
      "outputs": [
        {
          "internalType": "string",
          "name": "",
          "type": "string"
        }
      ],
      "stateMutability": "view",
      "type": "function"
    },
    {
      "inputs": [],
      "name": "owner",
      "outputs": [
        {
          "internalType": "address",
          "name": "",
          "type": "address"
        }
      ],
      "stateMutability": "view",
      "type": "function"
    },
    {
      "inputs": [
        {
          "internalType": "string",
          "name": "",
          "type": "string"
        }
      ],
      "name": "positions",
      "outputs": [
        {
          "internalType": "string",
          "name": "pName",
          "type": "string"
        }
      ],
      "stateMutability": "view",
      "type": "function"
    },
    {
      "inputs": [
        {
          "internalType": "string",
          "name": "_names",
          "type": "string"
        },
        {
          "internalType": "uint256",
          "name": "_age",
          "type": "uint256"
        },
        {
          "internalType": "string",
          "name": "_idNumber",
          "type": "string"
        },
        {
          "internalType": "string",
          "name": "_party",
          "type": "string"
        },
        {
          "internalType": "string",
          "name": "_position",
          "type": "string"
        }
      ],
      "name": "registerCandidate",
      "outputs": [],
      "stateMutability": "nonpayable",
      "type": "function"
    },
    {
      "inputs": [
        {
          "internalType": "string",
          "name": "_names",
          "type": "string"
        },
        {
          "internalType": "uint256",
          "name": "_age",
          "type": "uint256"
        },
        {
          "internalType": "string",
          "name": "_idNumber",
          "type": "string"
        }
      ],
      "name": "registerVoter",
      "outputs": [
        {
          "internalType": "bool",
          "name": "",
          "type": "bool"
        }
      ],
      "stateMutability": "nonpayable",
      "type": "function"
    },
    {
      "inputs": [],
      "name": "registrationStarted",
      "outputs": [
        {
          "internalType": "bool",
          "name": "",
          "type": "bool"
        }
      ],
      "stateMutability": "view",
      "type": "function"
    },
    {
      "inputs": [],
      "name": "startRegistration",
      "outputs": [],
      "stateMutability": "nonpayable",
      "type": "function"
    },
    {
      "inputs": [],
      "name": "symbol",
      "outputs": [
        {
          "internalType": "string",
          "name": "",
          "type": "string"
        }
      ],
      "stateMutability": "view",
      "type": "function"
    },
    {
      "inputs": [],
      "name": "totalSupply",
      "outputs": [
        {
          "internalType": "uint256",
          "name": "",
          "type": "uint256"
        }
      ],
      "stateMutability": "view",
      "type": "function"
    },
    {
      "inputs": [
        {
          "internalType": "address",
          "name": "to",
          "type": "address"
        },
        {
          "internalType": "uint256",
          "name": "value",
          "type": "uint256"
        }
      ],
      "name": "transfer",
      "outputs": [
        {
          "internalType": "bool",
          "name": "",
          "type": "bool"
        }
      ],
      "stateMutability": "nonpayable",
      "type": "function"
    },
    {
      "inputs": [
        {
          "internalType": "address",
          "name": "from",
          "type": "address"
        },
        {
          "internalType": "address",
          "name": "to",
          "type": "address"
        },
        {
          "internalType": "uint256",
          "name": "value",
          "type": "uint256"
        }
      ],
      "name": "transferFrom",
      "outputs": [
        {
          "internalType": "bool",
          "name": "",
          "type": "bool"
        }
      ],
      "stateMutability": "nonpayable",
      "type": "function"
    },
    {
      "inputs": [
        {
          "internalType": "string",
          "name": "_idNumber",
          "type": "string"
        }
      ],
      "name": "verifyCandidate",
      "outputs": [],
      "stateMutability": "nonpayable",
      "type": "function"
    },
    {
      "inputs": [
        {
          "internalType": "bytes32",
          "name": "hash",
          "type": "bytes32"
        },
        {
          "internalType": "bytes",
          "name": "signature",
          "type": "bytes"
        }
      ],
      "name": "verifySignature",
      "outputs": [
        {
          "internalType": "bool",
          "name": "",
          "type": "bool"
        }
      ],
      "stateMutability": "view",
      "type": "function"
    },
    {
      "inputs": [
        {
          "internalType": "string",
          "name": "position",
          "type": "string"
        },
        {
          "internalType": "uint256",
          "name": "candidateIndex",
          "type": "uint256"
        }
      ],
      "name": "vote",
      "outputs": [],
      "stateMutability": "nonpayable",
      "type": "function"
    },
    {
      "inputs": [
        {
          "internalType": "string",
          "name": "",
          "type": "string"
        }
      ],
      "name": "voterObject",
      "outputs": [
        {
          "internalType": "string",
          "name": "names",
          "type": "string"
        },
        {
          "internalType": "uint256",
          "name": "age",
          "type": "uint256"
        },
        {
          "internalType": "string",
          "name": "idNumber",
          "type": "string"
        },
        {
          "internalType": "bool",
          "name": "voted",
          "type": "bool"
        }
      ],
      "stateMutability": "view",
      "type": "function"
    },
    {
      "inputs": [
        {
          "internalType": "address",
          "name": "",
          "type": "address"
        }
      ],
      "name": "voters",
      "outputs": [
        {
          "internalType": "string",
          "name": "names",
          "type": "string"
        },
        {
          "internalType": "uint256",
          "name": "age",
          "type": "uint256"
        },
        {
          "internalType": "string",
          "name": "idNumber",
          "type": "string"
        },
        {
          "internalType": "bool",
          "name": "voted",
          "type": "bool"
        }
      ],
      "stateMutability": "view",
      "type": "function"
    },
    {
      "inputs": [],
      "name": "votingStarted",
      "outputs": [
        {
          "internalType": "bool",
          "name": "",
          "type": "bool"
        }
      ],
      "stateMutability": "view",
      "type": "function"
    }
  ],
  "bytecode": "0x60806040526000600e60006101000a81548160ff0219169083151502179055506000600e60016101000a81548160ff02191690831515021790555034801561004657600080fd5b506040518060400160405280600581526020017f566f7465780000000000000000000000000000000000000000000000000000008152506040518060400160405280600481526020017f56544b4e0000000000000000000000000000000000000000000000000000000081525081600390816100c2919061036b565b5080600490816100d2919061036b565b50505033600560006101000a81548173ffffffffffffffffffffffffffffffffffffffff021916908373ffffffffffffffffffffffffffffffffffffffff16021790555061043d565b600081519050919050565b7f4e487b7100000000000000000000000000000000000000000000000000000000600052604160045260246000fd5b7f4e487b7100000000000000000000000000000000000000000000000000000000600052602260045260246000fd5b6000600282049050600182168061019c57607f821691505b6020821081036101af576101ae610155565b5b50919050565b60008190508160005260206000209050919050565b60006020601f8301049050919050565b600082821b905092915050565b6000600883026102177fffffffffffffffffffffffffffffffffffffffffffffffffffffffffffffffff826101da565b61022186836101da565b95508019841693508086168417925050509392505050565b6000819050919050565b6000819050919050565b600061026861026361025e84610239565b610243565b610239565b9050919050565b6000819050919050565b6102828361024d565b61029661028e8261026f565b8484546101e7565b825550505050565b600090565b6102ab61029e565b6102b6818484610279565b505050565b5b818110156102da576102cf6000826102a3565b6001810190506102bc565b5050565b601f82111561031f576102f0816101b5565b6102f9846101ca565b81016020851015610308578190505b61031c610314856101ca565b8301826102bb565b50505b505050565b600082821c905092915050565b600061034260001984600802610324565b1980831691505092915050565b600061035b8383610331565b9150826002028217905092915050565b6103748261011b565b67ffffffffffffffff81111561038d5761038c610126565b5b6103978254610184565b6103a28282856102de565b600060209050601f8311600181146103d557600084156103c3578287015190505b6103cd858261034f565b865550610435565b601f1984166103e3866101b5565b60005b8281101561040b578489015182556001820191506020850194506020810190506103e6565b868310156104285784890151610424601f891682610331565b8355505b6001600288020188555050505b505050505050565b6164bc8061044c6000396000f3fe608060405234801561001057600080fd5b506004361061021c5760003560e01c80638168347611610125578063a9059cbb116100ad578063cdd722531161007c578063cdd7225314610692578063daca6f78146106b0578063dd62ed3e146106e0578063eb2119db14610710578063ffdd7496146107405761021c565b8063a9059cbb1461060c578063abceaad21461063c578063b80a398a14610658578063be94ced7146106745761021c565b806395d89b41116100f457806395d89b41146105505780639a53cbea1461056e5780639dfa9065146105a1578063a3ec138d146105bd578063a6385803146105f05761021c565b806381683476146104c057806383d948b7146104de5780638da5cb5b146104fc57806392d7df4a1461051a5761021c565b8063313ce567116101a85780635fbcc155116101775780635fbcc155146103d05780636636b91e14610400578063676f86b01461043057806370a082311461046057806371a6f465146104905761021c565b8063313ce5671461035757806332cb6b0c146103755780634a66e1ab1461039357806355d5d611146103c65761021c565b806318160ddd116101ef57806318160ddd1461029757806318f56a0a146102b55780631c64a33e146102d357806323b872dd1461030957806327aed42e146103395761021c565b806306a49fce1461022157806306fdde031461023f578063095ea7b31461025d57806310b866951461028d575b600080fd5b61022961075e565b604051610236919061423f565b60405180910390f35b610247610a34565b60405161025491906142ab565b60405180910390f35b6102776004803603810190610272919061436b565b610ac6565b60405161028491906143ba565b60405180910390f35b610295610ae9565b005b61029f610c62565b6040516102ac91906143e4565b60405180910390f35b6102bd610c6c565b6040516102ca919061458b565b60405180910390f35b6102ed60048036038101906102e891906146e2565b611033565b604051610300979695949392919061472b565b60405180910390f35b610323600480360381019061031e91906147b6565b6112b8565b60405161033091906143ba565b60405180910390f35b6103416112e7565b60405161034e91906143ba565b60405180910390f35b61035f6112fa565b60405161036c9190614825565b60405180910390f35b61037d611303565b60405161038a91906143e4565b60405180910390f35b6103ad60048036038101906103a891906146e2565b611311565b6040516103bd9493929190614840565b60405180910390f35b6103ce611474565b005b6103ea60048036038101906103e59190614893565b611633565b6040516103f7919061498d565b60405180910390f35b61041a600480360381019061041591906149a8565b6116a2565b60405161042791906143ba565b60405180910390f35b61044a600480360381019061044591906146e2565b611a77565b60405161045791906142ab565b60405180910390f35b61047a60048036038101906104759190614a33565b611b33565b60405161048791906143e4565b60405180910390f35b6104aa60048036038101906104a59190614a60565b611b7b565b6040516104b791906142ab565b60405180910390f35b6104c8611c31565b6040516104d591906143e4565b60405180910390f35b6104e6611c3e565b6040516104f391906143ba565b60405180910390f35b610504611c51565b6040516105119190614a9c565b60405180910390f35b610534600480360381019061052f9190614a60565b611c77565b604051610547979695949392919061472b565b60405180910390f35b610558611ef6565b60405161056591906142ab565b60405180910390f35b61058860048036038101906105839190614a60565b611f88565b6040516105989493929190614840565b60405180910390f35b6105bb60048036038101906105b691906146e2565b6120e5565b005b6105d760048036038101906105d29190614a33565b6122ac565b6040516105e79493929190614840565b60405180910390f35b61060a60048036038101906106059190614ab7565b6123f9565b005b6106266004803603810190610621919061436b565b6126cd565b60405161063391906143ba565b60405180910390f35b61065660048036038101906106519190614bf9565b6126f0565b005b610672600480360381019061066d9190614c42565b612988565b005b61067c612d19565b60405161068991906143e4565b60405180910390f35b61069a612d25565b6040516106a79190614e59565b60405180910390f35b6106ca60048036038101906106c59190614f48565b612ecd565b6040516106d791906143ba565b60405180910390f35b6106fa60048036038101906106f59190614fa4565b612f40565b60405161070791906143e4565b60405180910390f35b61072a60048036038101906107259190614a33565b612fc7565b60405161073791906143ba565b60405180910390f35b610748613022565b60405161075591906143e4565b60405180910390f35b60606007805480602002602001604051908101604052809291908181526020016000905b82821015610a2b57838290600052602060002090600702016040518060e00160405290816000820180546107b590615013565b80601f01602080910402602001604051908101604052809291908181526020018280546107e190615013565b801561082e5780601f106108035761010080835404028352916020019161082e565b820191906000526020600020905b81548152906001019060200180831161081157829003601f168201915b505050505081526020016001820154815260200160028201805461085190615013565b80601f016020809104026020016040519081016040528092919081815260200182805461087d90615013565b80156108ca5780601f1061089f576101008083540402835291602001916108ca565b820191906000526020600020905b8154815290600101906020018083116108ad57829003601f168201915b505050505081526020016003820180546108e390615013565b80601f016020809104026020016040519081016040528092919081815260200182805461090f90615013565b801561095c5780601f106109315761010080835404028352916020019161095c565b820191906000526020600020905b81548152906001019060200180831161093f57829003601f168201915b50505050508152602001600482015481526020016005820160009054906101000a900460ff1615151515815260200160068201805461099a90615013565b80601f01602080910402602001604051908101604052809291908181526020018280546109c690615013565b8015610a135780601f106109e857610100808354040283529160200191610a13565b820191906000526020600020905b8154815290600101906020018083116109f657829003601f168201915b50505050508152505081526020019060010190610782565b50505050905090565b606060038054610a4390615013565b80601f0160208091040260200160405190810160405280929190818152602001828054610a6f90615013565b8015610abc5780601f10610a9157610100808354040283529160200191610abc565b820191906000526020600020905b815481529060010190602001808311610a9f57829003601f168201915b5050505050905090565b600080610ad161302e565b9050610ade818585613036565b600191505092915050565b600560009054906101000a900473ffffffffffffffffffffffffffffffffffffffff1673ffffffffffffffffffffffffffffffffffffffff163373ffffffffffffffffffffffffffffffffffffffff1614610b79576040517f08c379a0000000000000000000000000000000000000000000000000000000008152600401610b7090615090565b60405180910390fd5b600e60009054906101000a900460ff1615610bc9576040517f08c379a0000000000000000000000000000000000000000000000000000000008152600401610bc090615122565b60405180910390fd5b600e60019054906101000a900460ff1615610c19576040517f08c379a0000000000000000000000000000000000000000000000000000000008152600401610c10906151b4565b60405180910390fd5b6001600e60006101000a81548160ff0219169083151502179055507f82e6c84abd647d1b4fae9bee1859f2642e5443af0ff900d4af83a93c2bf4151260405160405180910390a1565b6000600254905090565b60606008805480602002602001604051908101604052809291908181526020016000905b8282101561102a5783829060005260206000209060020201604051806040016040529081600082018054610cc390615013565b80601f0160208091040260200160405190810160405280929190818152602001828054610cef90615013565b8015610d3c5780601f10610d1157610100808354040283529160200191610d3c565b820191906000526020600020905b815481529060010190602001808311610d1f57829003601f168201915b5050505050815260200160018201805480602002602001604051908101604052809291908181526020016000905b8282101561101357838290600052602060002090600702016040518060e0016040529081600082018054610d9d90615013565b80601f0160208091040260200160405190810160405280929190818152602001828054610dc990615013565b8015610e165780601f10610deb57610100808354040283529160200191610e16565b820191906000526020600020905b815481529060010190602001808311610df957829003601f168201915b5050505050815260200160018201548152602001600282018054610e3990615013565b80601f0160208091040260200160405190810160405280929190818152602001828054610e6590615013565b8015610eb25780601f10610e8757610100808354040283529160200191610eb2565b820191906000526020600020905b815481529060010190602001808311610e9557829003601f168201915b50505050508152602001600382018054610ecb90615013565b80601f0160208091040260200160405190810160405280929190818152602001828054610ef790615013565b8015610f445780601f10610f1957610100808354040283529160200191610f44565b820191906000526020600020905b815481529060010190602001808311610f2757829003601f168201915b50505050508152602001600482015481526020016005820160009054906101000a900460ff16151515158152602001600682018054610f8290615013565b80601f0160208091040260200160405190810160405280929190818152602001828054610fae90615013565b8015610ffb5780601f10610fd057610100808354040283529160200191610ffb565b820191906000526020600020905b815481529060010190602001808311610fde57829003601f168201915b50505050508152505081526020019060010190610d6a565b505050508152505081526020019060010190610c90565b50505050905090565b600a8180516020810182018051848252602083016020850120818352809550505050505060009150905080600001805461106c90615013565b80601f016020809104026020016040519081016040528092919081815260200182805461109890615013565b80156110e55780601f106110ba576101008083540402835291602001916110e5565b820191906000526020600020905b8154815290600101906020018083116110c857829003601f168201915b50505050509080600101549080600201805461110090615013565b80601f016020809104026020016040519081016040528092919081815260200182805461112c90615013565b80156111795780601f1061114e57610100808354040283529160200191611179565b820191906000526020600020905b81548152906001019060200180831161115c57829003601f168201915b50505050509080600301805461118e90615013565b80601f01602080910402602001604051908101604052809291908181526020018280546111ba90615013565b80156112075780601f106111dc57610100808354040283529160200191611207565b820191906000526020600020905b8154815290600101906020018083116111ea57829003601f168201915b5050505050908060040154908060050160009054906101000a900460ff169080600601805461123590615013565b80601f016020809104026020016040519081016040528092919081815260200182805461126190615013565b80156112ae5780601f10611283576101008083540402835291602001916112ae565b820191906000526020600020905b81548152906001019060200180831161129157829003601f168201915b5050505050905087565b6000806112c361302e565b90506112d0858285613048565b6112db8585856130dc565b60019150509392505050565b600e60009054906101000a900460ff1681565b60006012905090565b69d3c21bcecceda100000081565b60098180516020810182018051848252602083016020850120818352809550505050505060009150905080600001805461134a90615013565b80601f016020809104026020016040519081016040528092919081815260200182805461137690615013565b80156113c35780601f10611398576101008083540402835291602001916113c3565b820191906000526020600020905b8154815290600101906020018083116113a657829003601f168201915b5050505050908060010154908060020180546113de90615013565b80601f016020809104026020016040519081016040528092919081815260200182805461140a90615013565b80156114575780601f1061142c57610100808354040283529160200191611457565b820191906000526020600020905b81548152906001019060200180831161143a57829003601f168201915b5050505050908060030160009054906101000a900460ff16905084565b600560009054906101000a900473ffffffffffffffffffffffffffffffffffffffff1673ffffffffffffffffffffffffffffffffffffffff163373ffffffffffffffffffffffffffffffffffffffff1614611504576040517f08c379a00000000000000000000000000000000000000000000000000000000081526004016114fb90615090565b60405180910390fd5b600e60009054906101000a900460ff16611553576040517f08c379a000000000000000000000000000000000000000000000000000000000815260040161154a90615246565b60405180910390fd5b600e60019054906101000a900460ff16156115a3576040517f08c379a000000000000000000000000000000000000000000000000000000000815260040161159a906152b2565b60405180910390fd5b6000600e60006101000a81548160ff0219169083151502179055506001600e60016101000a81548160ff0219169083151502179055507f2ee88f50f05558e39b34a18214ff6a6adc091504772084c6ce7899354bec0aa460405160405180910390a17f877e2548498f42b7975a186b94ef1d32c86d420b7b806dd2be2bea293b89590460405160405180910390a1565b6000856116578873ffffffffffffffffffffffffffffffffffffffff1660146131d0565b868661166287613416565b61166b87613416565b604051602001611680969594939291906155ba565b6040516020818303038152906040528051906020012090509695505050505050565b6000600e60009054906101000a900460ff166116f3576040517f08c379a00000000000000000000000000000000000000000000000000000000081526004016116ea90615246565b60405180910390fd5b600e60019054906101000a900460ff1615611743576040517f08c379a000000000000000000000000000000000000000000000000000000000815260040161173a90615713565b60405180910390fd5b60006009836040516117559190615733565b9081526020016040518091039020600001805461177190615013565b9050146117b3576040517f08c379a00000000000000000000000000000000000000000000000000000000081526004016117aa90615796565b60405180910390fd5b6000600c60003373ffffffffffffffffffffffffffffffffffffffff1673ffffffffffffffffffffffffffffffffffffffff1681526020019081526020016000206001015414611838576040517f08c379a000000000000000000000000000000000000000000000000000000000815260040161182f90615828565b60405180910390fd5b60006040518060800160405280868152602001858152602001848152602001600015158152509050600681908060018154018082558091505060019003906000526020600020906004020160009091909190915060008201518160000190816118a191906159f4565b506020820151816001015560408201518160020190816118c191906159f4565b5060608201518160030160006101000a81548160ff0219169083151502179055505050806009846040516118f59190615733565b9081526020016040518091039020600082015181600001908161191891906159f4565b5060208201518160010155604082015181600201908161193891906159f4565b5060608201518160030160006101000a81548160ff02191690831515021790555090505080600c60003373ffffffffffffffffffffffffffffffffffffffff1673ffffffffffffffffffffffffffffffffffffffff16815260200190815260200160002060008201518160000190816119b191906159f4565b506020820151816001015560408201518160020190816119d191906159f4565b5060608201518160030160006101000a81548160ff021916908315150217905550905050611a0733674563918244f400006134e4565b5082604051611a169190615733565b604051809103902085604051611a2c9190615733565b60405180910390207f754a5f7c9336f3562d73dacebf51de10da957ae9dfcae4fbfb93733ece3dd5aa86604051611a6391906143e4565b60405180910390a360019150509392505050565b600b81805160208101820180518482526020830160208501208183528095505050505050600091509050806000018054611ab090615013565b80601f0160208091040260200160405190810160405280929190818152602001828054611adc90615013565b8015611b295780601f10611afe57610100808354040283529160200191611b29565b820191906000526020600020905b815481529060010190602001808311611b0c57829003601f168201915b5050505050905081565b60008060008373ffffffffffffffffffffffffffffffffffffffff1673ffffffffffffffffffffffffffffffffffffffff168152602001908152602001600020549050919050565b60088181548110611b8b57600080fd5b9060005260206000209060020201600091509050806000018054611bae90615013565b80601f0160208091040260200160405190810160405280929190818152602001828054611bda90615013565b8015611c275780601f10611bfc57610100808354040283529160200191611c27565b820191906000526020600020905b815481529060010190602001808311611c0a57829003601f168201915b5050505050905081565b6000600880549050905090565b600e60019054906101000a900460ff1681565b600560009054906101000a900473ffffffffffffffffffffffffffffffffffffffff1681565b60078181548110611c8757600080fd5b9060005260206000209060070201600091509050806000018054611caa90615013565b80601f0160208091040260200160405190810160405280929190818152602001828054611cd690615013565b8015611d235780601f10611cf857610100808354040283529160200191611d23565b820191906000526020600020905b815481529060010190602001808311611d0657829003601f168201915b505050505090806001015490806002018054611d3e90615013565b80601f0160208091040260200160405190810160405280929190818152602001828054611d6a90615013565b8015611db75780601f10611d8c57610100808354040283529160200191611db7565b820191906000526020600020905b815481529060010190602001808311611d9a57829003601f168201915b505050505090806003018054611dcc90615013565b80601f0160208091040260200160405190810160405280929190818152602001828054611df890615013565b8015611e455780601f10611e1a57610100808354040283529160200191611e45565b820191906000526020600020905b815481529060010190602001808311611e2857829003601f168201915b5050505050908060040154908060050160009054906101000a900460ff1690806006018054611e7390615013565b80601f0160208091040260200160405190810160405280929190818152602001828054611e9f90615013565b8015611eec5780601f10611ec157610100808354040283529160200191611eec565b820191906000526020600020905b815481529060010190602001808311611ecf57829003601f168201915b5050505050905087565b606060048054611f0590615013565b80601f0160208091040260200160405190810160405280929190818152602001828054611f3190615013565b8015611f7e5780601f10611f5357610100808354040283529160200191611f7e565b820191906000526020600020905b815481529060010190602001808311611f6157829003601f168201915b5050505050905090565b60068181548110611f9857600080fd5b9060005260206000209060040201600091509050806000018054611fbb90615013565b80601f0160208091040260200160405190810160405280929190818152602001828054611fe790615013565b80156120345780601f1061200957610100808354040283529160200191612034565b820191906000526020600020905b81548152906001019060200180831161201757829003601f168201915b50505050509080600101549080600201805461204f90615013565b80601f016020809104026020016040519081016040528092919081815260200182805461207b90615013565b80156120c85780601f1061209d576101008083540402835291602001916120c8565b820191906000526020600020905b8154815290600101906020018083116120ab57829003601f168201915b5050505050908060030160009054906101000a900460ff16905084565b600560009054906101000a900473ffffffffffffffffffffffffffffffffffffffff1673ffffffffffffffffffffffffffffffffffffffff163373ffffffffffffffffffffffffffffffffffffffff1614612175576040517f08c379a000000000000000000000000000000000000000000000000000000000815260040161216c90615090565b60405180910390fd5b600a816040516121859190615733565b908152602001604051809103902060050160009054906101000a900460ff16156121e4576040517f08c379a00000000000000000000000000000000000000000000000000000000081526004016121db90615b12565b60405180910390fd5b6001600a826040516121f69190615733565b908152602001604051809103902060050160006101000a81548160ff02191690831515021790555061223033678ac7230489e800006134e4565b508060405161223f9190615733565b6040518091039020600a826040516122579190615733565b90815260200160405180910390206000016040516122759190615bb5565b60405180910390207fb78543f054c768084f86f0e559d1e007998ca69729eeffc4b727baa388934a3260405160405180910390a350565b600c6020528060005260406000206000915090508060000180546122cf90615013565b80601f01602080910402602001604051908101604052809291908181526020018280546122fb90615013565b80156123485780601f1061231d57610100808354040283529160200191612348565b820191906000526020600020905b81548152906001019060200180831161232b57829003601f168201915b50505050509080600101549080600201805461236390615013565b80601f016020809104026020016040519081016040528092919081815260200182805461238f90615013565b80156123dc5780601f106123b1576101008083540402835291602001916123dc565b820191906000526020600020905b8154815290600101906020018083116123bf57829003601f168201915b5050505050908060030160009054906101000a900460ff16905084565b600e60009054906101000a900460ff1615612449576040517f08c379a000000000000000000000000000000000000000000000000000000000815260040161244090615c3e565b60405180910390fd5b600e60019054906101000a900460ff16612498576040517f08c379a000000000000000000000000000000000000000000000000000000000815260040161248f90615caa565b60405180910390fd5b6000600c60003373ffffffffffffffffffffffffffffffffffffffff1673ffffffffffffffffffffffffffffffffffffffff16815260200190815260200160002090508060030160009054906101000a900460ff161561252d576040517f08c379a000000000000000000000000000000000000000000000000000000000815260040161252490615d16565b60405180910390fd5b6000600b8460405161253f9190615733565b90815260200160405180910390206001018054905011612594576040517f08c379a000000000000000000000000000000000000000000000000000000000815260040161258b90615d82565b60405180910390fd5b600b836040516125a49190615733565b90815260200160405180910390206001018054905082106125fa576040517f08c379a00000000000000000000000000000000000000000000000000000000081526004016125f190615dee565b60405180910390fd5b6001600b8460405161260c9190615733565b9081526020016040518091039020600101838154811061262f5761262e615e0e565b5b9060005260206000209060070201600401600082825461264f9190615e6c565b9250508190555060018160030160006101000a81548160ff0219169083151502179055503373ffffffffffffffffffffffffffffffffffffffff167f477d7faf347a03679fabd88feea150c41667473fc8412962f607fb7503f1bd438260020185856040516126c093929190615f24565b60405180910390a2505050565b6000806126d861302e565b90506126e58185856130dc565b600191505092915050565b600560009054906101000a900473ffffffffffffffffffffffffffffffffffffffff1673ffffffffffffffffffffffffffffffffffffffff163373ffffffffffffffffffffffffffffffffffffffff1614612780576040517f08c379a000000000000000000000000000000000000000000000000000000000815260040161277790615090565b60405180910390fd5b60005b815181101561298457600d8282815181106127a1576127a0615e0e565b5b60200260200101516040516127b69190615733565b908152602001604051809103902060009054906101000a900460ff1615612812576040517f08c379a000000000000000000000000000000000000000000000000000000000815260040161280990615fb5565b60405180910390fd5b6000600b83838151811061282957612828615e0e565b5b602002602001015160405161283e9190615733565b9081526020016040518091039020905082828151811061286157612860615e0e565b5b602002602001015181600001908161287991906159f4565b506008819080600181540180825580915050600190039060005260206000209060020201600090919091909150600082018160000190816128ba9190615feb565b5060018201816001019080546128d1929190613e43565b5050506001600d8484815181106128eb576128ea615e0e565b5b60200260200101516040516129009190615733565b908152602001604051809103902060006101000a81548160ff0219169083151502179055507ff635339f4b5986d632e76f25211c57346b4b4ca3aa13c1ba323ac1256373145683838151811061295957612958615e0e565b5b602002602001015160405161296e91906142ab565b60405180910390a1508080600101915050612783565b5050565b600e60009054906101000a900460ff166129d7576040517f08c379a00000000000000000000000000000000000000000000000000000000081526004016129ce90615246565b60405180910390fd5b600e60019054906101000a900460ff1615612a27576040517f08c379a0000000000000000000000000000000000000000000000000000000008152600401612a1e90615713565b60405180910390fd5b6000600a84604051612a399190615733565b90815260200160405180910390206000018054612a5590615013565b905014612a97576040517f08c379a0000000000000000000000000000000000000000000000000000000008152600401612a8e9061611f565b60405180910390fd5b6000600984604051612aa99190615733565b90815260200160405180910390206000018054612ac590615013565b905003612b07576040517f08c379a0000000000000000000000000000000000000000000000000000000008152600401612afe9061618b565b60405180910390fd5b60006040518060e001604052808781526020018681526020018581526020018481526020016000815260200160001515815260200183815250905060078190806001815401808255809150506001900390600052602060002090600702016000909190919091506000820151816000019081612b8391906159f4565b50602082015181600101556040820151816002019081612ba391906159f4565b506060820151816003019081612bb991906159f4565b506080820151816004015560a08201518160050160006101000a81548160ff02191690831515021790555060c0820151816006019081612bf991906159f4565b50505080600a85604051612c0d9190615733565b90815260200160405180910390206000820151816000019081612c3091906159f4565b50602082015181600101556040820151816002019081612c5091906159f4565b506060820151816003019081612c6691906159f4565b506080820151816004015560a08201518160050160006101000a81548160ff02191690831515021790555060c0820151816006019081612ca691906159f4565b5090505083604051612cb89190615733565b604051809103902086604051612cce9190615733565b60405180910390207fd9f17a5389d6109c78413a18e9adfec5a898c288bbd8c9e65de38e95f04b9e07878686604051612d09939291906161ab565b60405180910390a3505050505050565b674563918244f4000081565b60606006805480602002602001604051908101604052809291908181526020016000905b82821015612ec45783829060005260206000209060040201604051806080016040529081600082018054612d7c90615013565b80601f0160208091040260200160405190810160405280929190818152602001828054612da890615013565b8015612df55780601f10612dca57610100808354040283529160200191612df5565b820191906000526020600020905b815481529060010190602001808311612dd857829003601f168201915b5050505050815260200160018201548152602001600282018054612e1890615013565b80601f0160208091040260200160405190810160405280929190818152602001828054612e4490615013565b8015612e915780601f10612e6657610100808354040283529160200191612e91565b820191906000526020600020905b815481529060010190602001808311612e7457829003601f168201915b505050505081526020016003820160009054906101000a900460ff16151515158152505081526020019060010190612d49565b50505050905090565b60008083604051602001612ee1919061625d565b6040516020818303038152906040528051906020012090506000612f058285613592565b90503373ffffffffffffffffffffffffffffffffffffffff168173ffffffffffffffffffffffffffffffffffffffff16149250505092915050565b6000600160008473ffffffffffffffffffffffffffffffffffffffff1673ffffffffffffffffffffffffffffffffffffffff16815260200190815260200160002060008373ffffffffffffffffffffffffffffffffffffffff1673ffffffffffffffffffffffffffffffffffffffff16815260200190815260200160002054905092915050565b600080600c60008473ffffffffffffffffffffffffffffffffffffffff1673ffffffffffffffffffffffffffffffffffffffff168152602001908152602001600020600001805461301790615013565b905014159050919050565b678ac7230489e8000081565b600033905090565b61304383838360016135be565b505050565b60006130548484612f40565b90507fffffffffffffffffffffffffffffffffffffffffffffffffffffffffffffffff81146130d657818110156130c6578281836040517ffb8f41b20000000000000000000000000000000000000000000000000000000081526004016130bd93929190616283565b60405180910390fd5b6130d5848484840360006135be565b5b50505050565b600073ffffffffffffffffffffffffffffffffffffffff168373ffffffffffffffffffffffffffffffffffffffff160361314e5760006040517f96c6fd1e0000000000000000000000000000000000000000000000000000000081526004016131459190614a9c565b60405180910390fd5b600073ffffffffffffffffffffffffffffffffffffffff168273ffffffffffffffffffffffffffffffffffffffff16036131c05760006040517fec442f050000000000000000000000000000000000000000000000000000000081526004016131b79190614a9c565b60405180910390fd5b6131cb838383613795565b505050565b60606000839050600060028460026131e891906162ba565b6131f29190615e6c565b67ffffffffffffffff81111561320b5761320a6145b7565b5b6040519080825280601f01601f19166020018201604052801561323d5781602001600182028036833780820191505090505b5090507f30000000000000000000000000000000000000000000000000000000000000008160008151811061327557613274615e0e565b5b60200101907effffffffffffffffffffffffffffffffffffffffffffffffffffffffffffff1916908160001a9053507f7800000000000000000000000000000000000000000000000000000000000000816001815181106132d9576132d8615e0e565b5b60200101907effffffffffffffffffffffffffffffffffffffffffffffffffffffffffffff1916908160001a9053506000600185600261331991906162ba565b6133239190615e6c565b90505b60018111156133c3577f3031323334353637383961626364656600000000000000000000000000000000600f84166010811061336557613364615e0e565b5b1a60f81b82828151811061337c5761337b615e0e565b5b60200101907effffffffffffffffffffffffffffffffffffffffffffffffffffffffffffff1916908160001a905350600483901c9250806133bc906162fc565b9050613326565b506000821461340b5784846040517fe22e27eb000000000000000000000000000000000000000000000000000000008152600401613402929190616325565b60405180910390fd5b809250505092915050565b606060006001613425846139ba565b01905060008167ffffffffffffffff811115613444576134436145b7565b5b6040519080825280601f01601f1916602001820160405280156134765781602001600182028036833780820191505090505b509050600082602001820190505b6001156134d9578080600190039150507f3031323334353637383961626364656600000000000000000000000000000000600a86061a8153600a85816134cd576134cc61634e565b5b04945060008503613484575b819350505050919050565b600069d3c21bcecceda10000006134f9610c62565b836135049190615e6c565b1115613545576040517f08c379a000000000000000000000000000000000000000000000000000000000815260040161353c906163c9565b60405180910390fd5b61354f8383613b0d565b7fcda531bfd68624f13205c0a23cd4d5a7f09792cbb399603114f2b04aaa1bf5cf83836040516135809291906163e9565b60405180910390a16001905092915050565b6000806000806135a28686613b8f565b9250925092506135b28282613beb565b82935050505092915050565b600073ffffffffffffffffffffffffffffffffffffffff168473ffffffffffffffffffffffffffffffffffffffff16036136305760006040517fe602df050000000000000000000000000000000000000000000000000000000081526004016136279190614a9c565b60405180910390fd5b600073ffffffffffffffffffffffffffffffffffffffff168373ffffffffffffffffffffffffffffffffffffffff16036136a25760006040517f94280d620000000000000000000000000000000000000000000000000000000081526004016136999190614a9c565b60405180910390fd5b81600160008673ffffffffffffffffffffffffffffffffffffffff1673ffffffffffffffffffffffffffffffffffffffff16815260200190815260200160002060008573ffffffffffffffffffffffffffffffffffffffff1673ffffffffffffffffffffffffffffffffffffffff16815260200190815260200160002081905550801561378f578273ffffffffffffffffffffffffffffffffffffffff168473ffffffffffffffffffffffffffffffffffffffff167f8c5be1e5ebec7d5bd14f71427d1e84f3dd0314c0f7b2291e5b200ac8c7c3b9258460405161378691906143e4565b60405180910390a35b50505050565b600073ffffffffffffffffffffffffffffffffffffffff168373ffffffffffffffffffffffffffffffffffffffff16036137e75780600260008282546137db9190615e6c565b925050819055506138ba565b60008060008573ffffffffffffffffffffffffffffffffffffffff1673ffffffffffffffffffffffffffffffffffffffff16815260200190815260200160002054905081811015613873578381836040517fe450d38c00000000000000000000000000000000000000000000000000000000815260040161386a93929190616283565b60405180910390fd5b8181036000808673ffffffffffffffffffffffffffffffffffffffff1673ffffffffffffffffffffffffffffffffffffffff16815260200190815260200160002081905550505b600073ffffffffffffffffffffffffffffffffffffffff168273ffffffffffffffffffffffffffffffffffffffff16036139035780600260008282540392505081905550613950565b806000808473ffffffffffffffffffffffffffffffffffffffff1673ffffffffffffffffffffffffffffffffffffffff168152602001908152602001600020600082825401925050819055505b8173ffffffffffffffffffffffffffffffffffffffff168373ffffffffffffffffffffffffffffffffffffffff167fddf252ad1be2c89b69c2b068fc378daa952ba7f163c4a11628f55a4df523b3ef836040516139ad91906143e4565b60405180910390a3505050565b600080600090507a184f03e93ff9f4daa797ed6e38ed64bf6a1f0100000000000000008310613a18577a184f03e93ff9f4daa797ed6e38ed64bf6a1f0100000000000000008381613a0e57613a0d61634e565b5b0492506040810190505b6d04ee2d6d415b85acef81000000008310613a55576d04ee2d6d415b85acef81000000008381613a4b57613a4a61634e565b5b0492506020810190505b662386f26fc100008310613a8457662386f26fc100008381613a7a57613a7961634e565b5b0492506010810190505b6305f5e1008310613aad576305f5e1008381613aa357613aa261634e565b5b0492506008810190505b6127108310613ad2576127108381613ac857613ac761634e565b5b0492506004810190505b60648310613af55760648381613aeb57613aea61634e565b5b0492506002810190505b600a8310613b04576001810190505b80915050919050565b600073ffffffffffffffffffffffffffffffffffffffff168273ffffffffffffffffffffffffffffffffffffffff1603613b7f5760006040517fec442f05000000000000000000000000000000000000000000000000000000008152600401613b769190614a9c565b60405180910390fd5b613b8b60008383613795565b5050565b60008060006041845103613bd45760008060006020870151925060408701519150606087015160001a9050613bc688828585613d4f565b955095509550505050613be4565b60006002855160001b9250925092505b9250925092565b60006003811115613bff57613bfe616412565b5b826003811115613c1257613c11616412565b5b0315613d4b5760016003811115613c2c57613c2b616412565b5b826003811115613c3f57613c3e616412565b5b03613c76576040517ff645eedf00000000000000000000000000000000000000000000000000000000815260040160405180910390fd5b60026003811115613c8a57613c89616412565b5b826003811115613c9d57613c9c616412565b5b03613ce2578060001c6040517ffce698f7000000000000000000000000000000000000000000000000000000008152600401613cd991906143e4565b60405180910390fd5b600380811115613cf557613cf4616412565b5b826003811115613d0857613d07616412565b5b03613d4a57806040517fd78bce0c000000000000000000000000000000000000000000000000000000008152600401613d41919061498d565b60405180910390fd5b5b5050565b60008060007f7fffffffffffffffffffffffffffffff5d576e7357a4501ddfe92f46681b20a08460001c1115613d8f576000600385925092509250613e39565b600060018888888860405160008152602001604052604051613db49493929190616441565b6020604051602081039080840390855afa158015613dd6573d6000803e3d6000fd5b505050602060405103519050600073ffffffffffffffffffffffffffffffffffffffff168173ffffffffffffffffffffffffffffffffffffffff1603613e2a57600060016000801b93509350935050613e39565b8060008060001b935093509350505b9450945094915050565b828054828255906000526020600020906007028101928215613f1f5760005260206000209160070282015b82811115613f1e57828260008201816000019081613e8c9190615feb565b506001820154816001015560028201816002019081613eab9190615feb565b5060038201816003019081613ec09190615feb565b50600482015481600401556005820160009054906101000a900460ff168160050160006101000a81548160ff02191690831515021790555060068201816006019081613f0c9190615feb565b50505091600701919060070190613e6e565b5b509050613f2c9190613f30565b5090565b5b80821115613fa75760008082016000613f4a9190613fab565b6001820160009055600282016000613f629190613fab565b600382016000613f729190613fab565b60048201600090556005820160006101000a81549060ff0219169055600682016000613f9e9190613fab565b50600701613f31565b5090565b508054613fb790615013565b6000825580601f10613fc95750613fe8565b601f016020900490600052602060002090810190613fe79190613feb565b5b50565b5b80821115614004576000816000905550600101613fec565b5090565b600081519050919050565b600082825260208201905092915050565b6000819050602082019050919050565b600081519050919050565b600082825260208201905092915050565b60005b8381101561406e578082015181840152602081019050614053565b60008484015250505050565b6000601f19601f8301169050919050565b600061409682614034565b6140a0818561403f565b93506140b0818560208601614050565b6140b98161407a565b840191505092915050565b6000819050919050565b6140d7816140c4565b82525050565b60008115159050919050565b6140f2816140dd565b82525050565b600060e0830160008301518482036000860152614115828261408b565b915050602083015161412a60208601826140ce565b5060408301518482036040860152614142828261408b565b9150506060830151848203606086015261415c828261408b565b915050608083015161417160808601826140ce565b5060a083015161418460a08601826140e9565b5060c083015184820360c086015261419c828261408b565b9150508091505092915050565b60006141b583836140f8565b905092915050565b6000602082019050919050565b60006141d582614008565b6141df8185614013565b9350836020820285016141f185614024565b8060005b8581101561422d578484038952815161420e85826141a9565b9450614219836141bd565b925060208a019950506001810190506141f5565b50829750879550505050505092915050565b6000602082019050818103600083015261425981846141ca565b905092915050565b600082825260208201905092915050565b600061427d82614034565b6142878185614261565b9350614297818560208601614050565b6142a08161407a565b840191505092915050565b600060208201905081810360008301526142c58184614272565b905092915050565b6000604051905090565b600080fd5b600080fd5b600073ffffffffffffffffffffffffffffffffffffffff82169050919050565b600061430c826142e1565b9050919050565b61431c81614301565b811461432757600080fd5b50565b60008135905061433981614313565b92915050565b614348816140c4565b811461435357600080fd5b50565b6000813590506143658161433f565b92915050565b60008060408385031215614382576143816142d7565b5b60006143908582860161432a565b92505060206143a185828601614356565b9150509250929050565b6143b4816140dd565b82525050565b60006020820190506143cf60008301846143ab565b92915050565b6143de816140c4565b82525050565b60006020820190506143f960008301846143d5565b92915050565b600081519050919050565b600082825260208201905092915050565b6000819050602082019050919050565b600082825260208201905092915050565b600061444782614008565b614451818561442b565b93508360208202850161446385614024565b8060005b8581101561449f578484038952815161448085826141a9565b945061448b836141bd565b925060208a01995050600181019050614467565b50829750879550505050505092915050565b600060408301600083015184820360008601526144ce828261408b565b915050602083015184820360208601526144e8828261443c565b9150508091505092915050565b600061450183836144b1565b905092915050565b6000602082019050919050565b6000614521826143ff565b61452b818561440a565b93508360208202850161453d8561441b565b8060005b85811015614579578484038952815161455a85826144f5565b945061456583614509565b925060208a01995050600181019050614541565b50829750879550505050505092915050565b600060208201905081810360008301526145a58184614516565b905092915050565b600080fd5b600080fd5b7f4e487b7100000000000000000000000000000000000000000000000000000000600052604160045260246000fd5b6145ef8261407a565b810181811067ffffffffffffffff8211171561460e5761460d6145b7565b5b80604052505050565b60006146216142cd565b905061462d82826145e6565b919050565b600067ffffffffffffffff82111561464d5761464c6145b7565b5b6146568261407a565b9050602081019050919050565b82818337600083830152505050565b600061468561468084614632565b614617565b9050828152602081018484840111156146a1576146a06145b2565b5b6146ac848285614663565b509392505050565b600082601f8301126146c9576146c86145ad565b5b81356146d9848260208601614672565b91505092915050565b6000602082840312156146f8576146f76142d7565b5b600082013567ffffffffffffffff811115614716576147156142dc565b5b614722848285016146b4565b91505092915050565b600060e0820190508181036000830152614745818a614272565b905061475460208301896143d5565b81810360408301526147668188614272565b9050818103606083015261477a8187614272565b905061478960808301866143d5565b61479660a08301856143ab565b81810360c08301526147a88184614272565b905098975050505050505050565b6000806000606084860312156147cf576147ce6142d7565b5b60006147dd8682870161432a565b93505060206147ee8682870161432a565b92505060406147ff86828701614356565b9150509250925092565b600060ff82169050919050565b61481f81614809565b82525050565b600060208201905061483a6000830184614816565b92915050565b6000608082019050818103600083015261485a8187614272565b905061486960208301866143d5565b818103604083015261487b8185614272565b905061488a60608301846143ab565b95945050505050565b60008060008060008060c087890312156148b0576148af6142d7565b5b60006148be89828a0161432a565b965050602087013567ffffffffffffffff8111156148df576148de6142dc565b5b6148eb89828a016146b4565b955050604087013567ffffffffffffffff81111561490c5761490b6142dc565b5b61491889828a016146b4565b945050606087013567ffffffffffffffff811115614939576149386142dc565b5b61494589828a016146b4565b935050608061495689828a01614356565b92505060a061496789828a01614356565b9150509295509295509295565b6000819050919050565b61498781614974565b82525050565b60006020820190506149a2600083018461497e565b92915050565b6000806000606084860312156149c1576149c06142d7565b5b600084013567ffffffffffffffff8111156149df576149de6142dc565b5b6149eb868287016146b4565b93505060206149fc86828701614356565b925050604084013567ffffffffffffffff811115614a1d57614a1c6142dc565b5b614a29868287016146b4565b9150509250925092565b600060208284031215614a4957614a486142d7565b5b6000614a578482850161432a565b91505092915050565b600060208284031215614a7657614a756142d7565b5b6000614a8484828501614356565b91505092915050565b614a9681614301565b82525050565b6000602082019050614ab16000830184614a8d565b92915050565b60008060408385031215614ace57614acd6142d7565b5b600083013567ffffffffffffffff811115614aec57614aeb6142dc565b5b614af8858286016146b4565b9250506020614b0985828601614356565b9150509250929050565b600067ffffffffffffffff821115614b2e57614b2d6145b7565b5b602082029050602081019050919050565b600080fd5b6000614b57614b5284614b13565b614617565b90508083825260208201905060208402830185811115614b7a57614b79614b3f565b5b835b81811015614bc157803567ffffffffffffffff811115614b9f57614b9e6145ad565b5b808601614bac89826146b4565b85526020850194505050602081019050614b7c565b5050509392505050565b600082601f830112614be057614bdf6145ad565b5b8135614bf0848260208601614b44565b91505092915050565b600060208284031215614c0f57614c0e6142d7565b5b600082013567ffffffffffffffff811115614c2d57614c2c6142dc565b5b614c3984828501614bcb565b91505092915050565b600080600080600060a08688031215614c5e57614c5d6142d7565b5b600086013567ffffffffffffffff811115614c7c57614c7b6142dc565b5b614c88888289016146b4565b9550506020614c9988828901614356565b945050604086013567ffffffffffffffff811115614cba57614cb96142dc565b5b614cc6888289016146b4565b935050606086013567ffffffffffffffff811115614ce757614ce66142dc565b5b614cf3888289016146b4565b925050608086013567ffffffffffffffff811115614d1457614d136142dc565b5b614d20888289016146b4565b9150509295509295909350565b600081519050919050565b600082825260208201905092915050565b6000819050602082019050919050565b60006080830160008301518482036000860152614d76828261408b565b9150506020830151614d8b60208601826140ce565b5060408301518482036040860152614da3828261408b565b9150506060830151614db860608601826140e9565b508091505092915050565b6000614dcf8383614d59565b905092915050565b6000602082019050919050565b6000614def82614d2d565b614df98185614d38565b935083602082028501614e0b85614d49565b8060005b85811015614e475784840389528151614e288582614dc3565b9450614e3383614dd7565b925060208a01995050600181019050614e0f565b50829750879550505050505092915050565b60006020820190508181036000830152614e738184614de4565b905092915050565b614e8481614974565b8114614e8f57600080fd5b50565b600081359050614ea181614e7b565b92915050565b600067ffffffffffffffff821115614ec257614ec16145b7565b5b614ecb8261407a565b9050602081019050919050565b6000614eeb614ee684614ea7565b614617565b905082815260208101848484011115614f0757614f066145b2565b5b614f12848285614663565b509392505050565b600082601f830112614f2f57614f2e6145ad565b5b8135614f3f848260208601614ed8565b91505092915050565b60008060408385031215614f5f57614f5e6142d7565b5b6000614f6d85828601614e92565b925050602083013567ffffffffffffffff811115614f8e57614f8d6142dc565b5b614f9a85828601614f1a565b9150509250929050565b60008060408385031215614fbb57614fba6142d7565b5b6000614fc98582860161432a565b9250506020614fda8582860161432a565b9150509250929050565b7f4e487b7100000000000000000000000000000000000000000000000000000000600052602260045260246000fd5b6000600282049050600182168061502b57607f821691505b60208210810361503e5761503d614fe4565b5b50919050565b7f596f7520617265206e6f7420746865206f776e65722100000000000000000000600082015250565b600061507a601683614261565b915061508582615044565b602082019050919050565b600060208201905081810360008301526150a98161506d565b9050919050565b7f526567697374726174696f6e2068617320616c7265616479207374617274656460008201527f2e00000000000000000000000000000000000000000000000000000000000000602082015250565b600061510c602183614261565b9150615117826150b0565b604082019050919050565b6000602082019050818103600083015261513b816150ff565b9050919050565b7f43616e6e6f7420737461727420726567697374726174696f6e2061667465722060008201527f766f74696e672068617320626567756e2e000000000000000000000000000000602082015250565b600061519e603183614261565b91506151a982615142565b604082019050919050565b600060208201905081810360008301526151cd81615191565b9050919050565b7f526567697374726174696f6e20706572696f6420686173206e6f74207374617260008201527f7465642e00000000000000000000000000000000000000000000000000000000602082015250565b6000615230602483614261565b915061523b826151d4565b604082019050919050565b6000602082019050818103600083015261525f81615223565b9050919050565b7f566f74696e672068617320616c726561647920737461727465642e0000000000600082015250565b600061529c601b83614261565b91506152a782615266565b602082019050919050565b600060208201905081810360008301526152cb8161528f565b9050919050565b600081905092915050565b7f19457468657265756d205369676e6564204d6573736167653a0a000000000000600082015250565b6000615313601a836152d2565b915061531e826152dd565b601a82019050919050565b7f446f6d61696e3a20000000000000000000000000000000000000000000000000600082015250565b600061535f6008836152d2565b915061536a82615329565b600882019050919050565b600061538082614034565b61538a81856152d2565b935061539a818560208601614050565b80840191505092915050565b7f0a00000000000000000000000000000000000000000000000000000000000000600082015250565b60006153dc6001836152d2565b91506153e7826153a6565b600182019050919050565b7f416464726573733a200000000000000000000000000000000000000000000000600082015250565b60006154286009836152d2565b9150615433826153f2565b600982019050919050565b7f53746174656d656e743a20000000000000000000000000000000000000000000600082015250565b6000615474600b836152d2565b915061547f8261543e565b600b82019050919050565b7f5552493a20000000000000000000000000000000000000000000000000000000600082015250565b60006154c06005836152d2565b91506154cb8261548a565b600582019050919050565b7f56657273696f6e3a20310a000000000000000000000000000000000000000000600082015250565b600061550c600b836152d2565b9150615517826154d6565b600b82019050919050565b7f436861696e2049443a2000000000000000000000000000000000000000000000600082015250565b6000615558600a836152d2565b915061556382615522565b600a82019050919050565b7f4e6f6e63653a2000000000000000000000000000000000000000000000000000600082015250565b60006155a46007836152d2565b91506155af8261556e565b600782019050919050565b60006155c582615306565b91506155d082615352565b91506155dc8289615375565b91506155e7826153cf565b91506155f28261541b565b91506155fe8288615375565b9150615609826153cf565b915061561482615467565b91506156208287615375565b915061562b826153cf565b9150615636826154b3565b91506156428286615375565b915061564d826153cf565b9150615658826154ff565b91506156638261554b565b915061566f8285615375565b915061567a826153cf565b915061568582615597565b91506156918284615375565b9150819050979650505050505050565b7f43616e6e6f7420726567697374657220647572696e6720766f74696e6720706560008201527f72696f642e000000000000000000000000000000000000000000000000000000602082015250565b60006156fd602583614261565b9150615708826156a1565b604082019050919050565b6000602082019050818103600083015261572c816156f0565b9050919050565b600061573f8284615375565b915081905092915050565b7f566f74657220616c726561647920657869737473210000000000000000000000600082015250565b6000615780601583614261565b915061578b8261574a565b602082019050919050565b600060208201905081810360008301526157af81615773565b9050919050565b7f4163636f756e7420616c7265616479207265676973746572656420617320766f60008201527f7465720000000000000000000000000000000000000000000000000000000000602082015250565b6000615812602383614261565b915061581d826157b6565b604082019050919050565b6000602082019050818103600083015261584181615805565b9050919050565b60008190508160005260206000209050919050565b60006020601f8301049050919050565b600082821b905092915050565b6000600883026158aa7fffffffffffffffffffffffffffffffffffffffffffffffffffffffffffffffff8261586d565b6158b4868361586d565b95508019841693508086168417925050509392505050565b6000819050919050565b60006158f16158ec6158e7846140c4565b6158cc565b6140c4565b9050919050565b6000819050919050565b61590b836158d6565b61591f615917826158f8565b84845461587a565b825550505050565b600090565b615934615927565b61593f818484615902565b505050565b5b818110156159635761595860008261592c565b600181019050615945565b5050565b601f8211156159a85761597981615848565b6159828461585d565b81016020851015615991578190505b6159a561599d8561585d565b830182615944565b50505b505050565b600082821c905092915050565b60006159cb600019846008026159ad565b1980831691505092915050565b60006159e483836159ba565b9150826002028217905092915050565b6159fd82614034565b67ffffffffffffffff811115615a1657615a156145b7565b5b615a208254615013565b615a2b828285615967565b600060209050601f831160018114615a5e5760008415615a4c578287015190505b615a5685826159d8565b865550615abe565b601f198416615a6c86615848565b60005b82811015615a9457848901518255600182019150602085019450602081019050615a6f565b86831015615ab15784890151615aad601f8916826159ba565b8355505b6001600288020188555050505b505050505050565b7f43616e64696461746520616c7265616479207665726966696564210000000000600082015250565b6000615afc601b83614261565b9150615b0782615ac6565b602082019050919050565b60006020820190508181036000830152615b2b81615aef565b9050919050565b60008154615b3f81615013565b615b4981866152d2565b94506001821660008114615b645760018114615b7957615bac565b60ff1983168652811515820286019350615bac565b615b8285615848565b60005b83811015615ba457815481890152600182019150602081019050615b85565b838801955050505b50505092915050565b6000615bc18284615b32565b915081905092915050565b7f526567697374726174696f6e20706572696f64206973207374696c6c2061637460008201527f6976652e00000000000000000000000000000000000000000000000000000000602082015250565b6000615c28602483614261565b9150615c3382615bcc565b604082019050919050565b60006020820190508181036000830152615c5781615c1b565b9050919050565b7f566f74696e6720686173206e6f742073746172746564207965742e0000000000600082015250565b6000615c94601b83614261565b9150615c9f82615c5e565b602082019050919050565b60006020820190508181036000830152615cc381615c87565b9050919050565b7f596f75206861766520616c726561647920766f7465642e000000000000000000600082015250565b6000615d00601783614261565b9150615d0b82615cca565b602082019050919050565b60006020820190508181036000830152615d2f81615cf3565b9050919050565b7f496e76616c696420706f736974696f6e2e000000000000000000000000000000600082015250565b6000615d6c601183614261565b9150615d7782615d36565b602082019050919050565b60006020820190508181036000830152615d9b81615d5f565b9050919050565b7f496e76616c69642063616e64696461746520696e6465782e0000000000000000600082015250565b6000615dd8601883614261565b9150615de382615da2565b602082019050919050565b60006020820190508181036000830152615e0781615dcb565b9050919050565b7f4e487b7100000000000000000000000000000000000000000000000000000000600052603260045260246000fd5b7f4e487b7100000000000000000000000000000000000000000000000000000000600052601160045260246000fd5b6000615e77826140c4565b9150615e82836140c4565b9250828201905080821115615e9a57615e99615e3d565b5b92915050565b60008154615ead81615013565b615eb78186614261565b94506001821660008114615ed25760018114615ee857615f1b565b60ff198316865281151560200286019350615f1b565b615ef185615848565b60005b83811015615f1357815481890152600182019150602081019050615ef4565b808801955050505b50505092915050565b60006060820190508181036000830152615f3e8186615ea0565b90508181036020830152615f528185614272565b9050615f6160408301846143d5565b949350505050565b7f506f736974696f6e20616c726561647920657869737473210000000000000000600082015250565b6000615f9f601883614261565b9150615faa82615f69565b602082019050919050565b60006020820190508181036000830152615fce81615f92565b9050919050565b600081549050615fe481615013565b9050919050565b818103615ff95750506160d1565b61600282615fd5565b67ffffffffffffffff81111561601b5761601a6145b7565b5b6160258254615013565b616030828285615967565b6000601f83116001811461605f576000841561604d578287015490505b61605785826159d8565b8655506160ca565b601f19841661606d87615848565b965061607886615848565b60005b828110156160a05784890154825560018201915060018501945060208101905061607b565b868310156160bd57848901546160b9601f8916826159ba565b8355505b6001600288020188555050505b5050505050505b565b7f43616e64696461746520616c7265616479206578697374732100000000000000600082015250565b6000616109601983614261565b9150616114826160d3565b602082019050919050565b60006020820190508181036000830152616138816160fc565b9050919050565b7f596f75206d7573742062652061207265676973746572656420766f7465722100600082015250565b6000616175601f83614261565b91506161808261613f565b602082019050919050565b600060208201905081810360008301526161a481616168565b9050919050565b60006060820190506161c060008301866143d5565b81810360208301526161d28185614272565b905081810360408301526161e68184614272565b9050949350505050565b7f19457468657265756d205369676e6564204d6573736167653a0a333200000000600082015250565b6000616226601c836152d2565b9150616231826161f0565b601c82019050919050565b6000819050919050565b61625761625282614974565b61623c565b82525050565b600061626882616219565b91506162748284616246565b60208201915081905092915050565b60006060820190506162986000830186614a8d565b6162a560208301856143d5565b6162b260408301846143d5565b949350505050565b60006162c5826140c4565b91506162d0836140c4565b92508282026162de816140c4565b915082820484148315176162f5576162f4615e3d565b5b5092915050565b6000616307826140c4565b91506000820361631a57616319615e3d565b5b600182039050919050565b600060408201905061633a60008301856143d5565b61634760208301846143d5565b9392505050565b7f4e487b7100000000000000000000000000000000000000000000000000000000600052601260045260246000fd5b7f546f6b656e206c696d6974206578636565646564210000000000000000000000600082015250565b60006163b3601583614261565b91506163be8261637d565b602082019050919050565b600060208201905081810360008301526163e2816163a6565b9050919050565b60006040820190506163fe6000830185614a8d565b61640b60208301846143d5565b9392505050565b7f4e487b7100000000000000000000000000000000000000000000000000000000600052602160045260246000fd5b6000608082019050616456600083018761497e565b6164636020830186614816565b616470604083018561497e565b61647d606083018461497e565b9594505050505056fea26469706673582212205a5e8dc916a23cb97ed1efb75556bccf709c5133f7af53d0cfa5a5fde20439aa64736f6c634300081b0033",
  "linkReferences": {},
  "deployedLinkReferences": {}
}