{
  "_format": "hh-sol-artifact-1",
  "contractName": "Voting",
  "sourceName": "contracts/Voting.sol",
  "abi": [
    {
      "inputs": [],
      "stateMutability": "nonpayable",
      "type": "constructor"
    },
    {
      "inputs": [],
      "name": "ECDSAInvalidSignature",
      "type": "error"
    },
    {
      "inputs": [
        {
          "internalType": "uint256",
          "name": "length",
          "type": "uint256"
        }
      ],
      "name": "ECDSAInvalidSignatureLength",
      "type": "error"
    },
    {
      "inputs": [
        {
          "internalType": "bytes32",
          "name": "s",
          "type": "bytes32"
        }
      ],
      "name": "ECDSAInvalidSignatureS",
      "type": "error"
    },
    {
      "inputs": [
        {
          "internalType": "address",
          "name": "spender",
          "type": "address"
        },
        {
          "internalType": "uint256",
          "name": "allowance",
          "type": "uint256"
        },
        {
          "internalType": "uint256",
          "name": "needed",
          "type": "uint256"
        }
      ],
      "name": "ERC20InsufficientAllowance",
      "type": "error"
    },
    {
      "inputs": [
        {
          "internalType": "address",
          "name": "sender",
          "type": "address"
        },
        {
          "internalType": "uint256",
          "name": "balance",
          "type": "uint256"
        },
        {
          "internalType": "uint256",
          "name": "needed",
          "type": "uint256"
        }
      ],
      "name": "ERC20InsufficientBalance",
      "type": "error"
    },
    {
      "inputs": [
        {
          "internalType": "address",
          "name": "approver",
          "type": "address"
        }
      ],
      "name": "ERC20InvalidApprover",
      "type": "error"
    },
    {
      "inputs": [
        {
          "internalType": "address",
          "name": "receiver",
          "type": "address"
        }
      ],
      "name": "ERC20InvalidReceiver",
      "type": "error"
    },
    {
      "inputs": [
        {
          "internalType": "address",
          "name": "sender",
          "type": "address"
        }
      ],
      "name": "ERC20InvalidSender",
      "type": "error"
    },
    {
      "inputs": [
        {
          "internalType": "address",
          "name": "spender",
          "type": "address"
        }
      ],
      "name": "ERC20InvalidSpender",
      "type": "error"
    },
    {
      "inputs": [
        {
          "internalType": "uint256",
          "name": "value",
          "type": "uint256"
        },
        {
          "internalType": "uint256",
          "name": "length",
          "type": "uint256"
        }
      ],
      "name": "StringsInsufficientHexLength",
      "type": "error"
    },
    {
      "anonymous": false,
      "inputs": [
        {
          "indexed": true,
          "internalType": "address",
          "name": "owner",
          "type": "address"
        },
        {
          "indexed": true,
          "internalType": "address",
          "name": "spender",
          "type": "address"
        },
        {
          "indexed": false,
          "internalType": "uint256",
          "name": "value",
          "type": "uint256"
        }
      ],
      "name": "Approval",
      "type": "event"
    },
    {
      "anonymous": false,
      "inputs": [
        {
          "indexed": true,
          "internalType": "string",
          "name": "_names",
          "type": "string"
        },
        {
          "indexed": false,
          "internalType": "uint256",
          "name": "_age",
          "type": "uint256"
        },
        {
          "indexed": true,
          "internalType": "string",
          "name": "_idNumber",
          "type": "string"
        },
        {
          "indexed": false,
          "internalType": "string",
          "name": "_party",
          "type": "string"
        },
        {
          "indexed": false,
          "internalType": "string",
          "name": "_position",
          "type": "string"
        }
      ],
      "name": "CandidateRegistrationSuccess",
      "type": "event"
    },
    {
      "anonymous": false,
      "inputs": [
        {
          "indexed": false,
          "internalType": "string",
          "name": "message",
          "type": "string"
        },
        {
          "indexed": false,
          "internalType": "address",
          "name": "voter",
          "type": "address"
        },
        {
          "indexed": false,
          "internalType": "string",
          "name": "position",
          "type": "string"
        },
        {
          "indexed": false,
          "internalType": "bool",
          "name": "hasVoted",
          "type": "bool"
        }
      ],
      "name": "Debug",
      "type": "event"
    },
    {
      "anonymous": false,
      "inputs": [
        {
          "indexed": false,
          "internalType": "address",
          "name": "_to",
          "type": "address"
        },
        {
          "indexed": false,
          "internalType": "uint256",
          "name": "_amount",
          "type": "uint256"
        }
      ],
      "name": "MintSuccess",
      "type": "event"
    },
    {
      "anonymous": false,
      "inputs": [
        {
          "indexed": false,
          "internalType": "string",
          "name": "positionName",
          "type": "string"
        }
      ],
      "name": "PositionAdded",
      "type": "event"
    },
    {
      "anonymous": false,
      "inputs": [],
      "name": "RegistrationEnded",
      "type": "event"
    },
    {
      "anonymous": false,
      "inputs": [],
      "name": "RegistrationStarted",
      "type": "event"
    },
    {
      "anonymous": false,
      "inputs": [
        {
          "indexed": true,
          "internalType": "string",
          "name": "_idNumber",
          "type": "string"
        }
      ],
      "name": "RejectCandidateSuccess",
      "type": "event"
    },
    {
      "anonymous": false,
      "inputs": [
        {
          "indexed": true,
          "internalType": "address",
          "name": "from",
          "type": "address"
        },
        {
          "indexed": true,
          "internalType": "address",
          "name": "to",
          "type": "address"
        },
        {
          "indexed": false,
          "internalType": "uint256",
          "name": "value",
          "type": "uint256"
        }
      ],
      "name": "Transfer",
      "type": "event"
    },
    {
      "anonymous": false,
      "inputs": [
        {
          "indexed": true,
          "internalType": "string",
          "name": "_names",
          "type": "string"
        },
        {
          "indexed": true,
          "internalType": "string",
          "name": "_idNumber",
          "type": "string"
        }
      ],
      "name": "VerifyCandidateSuccess",
      "type": "event"
    },
    {
      "anonymous": false,
      "inputs": [
        {
          "indexed": true,
          "internalType": "address",
          "name": "voter",
          "type": "address"
        },
        {
          "indexed": false,
          "internalType": "string",
          "name": "_idNumber",
          "type": "string"
        },
        {
          "indexed": false,
          "internalType": "string",
          "name": "position",
          "type": "string"
        },
        {
          "indexed": false,
          "internalType": "uint256",
          "name": "candidateIndex",
          "type": "uint256"
        }
      ],
      "name": "VotedSuccess",
      "type": "event"
    },
    {
      "anonymous": false,
      "inputs": [
        {
          "indexed": true,
          "internalType": "string",
          "name": "_names",
          "type": "string"
        },
        {
          "indexed": false,
          "internalType": "uint256",
          "name": "_age",
          "type": "uint256"
        },
        {
          "indexed": true,
          "internalType": "string",
          "name": "_idNumber",
          "type": "string"
        }
      ],
      "name": "VoterRegistrationSuccess",
      "type": "event"
    },
    {
      "anonymous": false,
      "inputs": [],
      "name": "VotingEnded",
      "type": "event"
    },
    {
      "anonymous": false,
      "inputs": [],
      "name": "VotingStarted",
      "type": "event"
    },
    {
      "inputs": [],
      "name": "MAX_SUPPLY",
      "outputs": [
        {
          "internalType": "uint256",
          "name": "",
          "type": "uint256"
        }
      ],
      "stateMutability": "view",
      "type": "function"
    },
    {
      "inputs": [],
      "name": "REGISTER_AS_VOTER",
      "outputs": [
        {
          "internalType": "uint256",
          "name": "",
          "type": "uint256"
        }
      ],
      "stateMutability": "view",
      "type": "function"
    },
    {
      "inputs": [],
      "name": "VERIFY_CANDIDATE",
      "outputs": [
        {
          "internalType": "uint256",
          "name": "",
          "type": "uint256"
        }
      ],
      "stateMutability": "view",
      "type": "function"
    },
    {
      "inputs": [
        {
          "internalType": "string[]",
          "name": "_pNames",
          "type": "string[]"
        }
      ],
      "name": "addPositions",
      "outputs": [],
      "stateMutability": "nonpayable",
      "type": "function"
    },
    {
      "inputs": [
        {
          "internalType": "address",
          "name": "owner",
          "type": "address"
        },
        {
          "internalType": "address",
          "name": "spender",
          "type": "address"
        }
      ],
      "name": "allowance",
      "outputs": [
        {
          "internalType": "uint256",
          "name": "",
          "type": "uint256"
        }
      ],
      "stateMutability": "view",
      "type": "function"
    },
    {
      "inputs": [
        {
          "internalType": "address",
          "name": "spender",
          "type": "address"
        },
        {
          "internalType": "uint256",
          "name": "value",
          "type": "uint256"
        }
      ],
      "name": "approve",
      "outputs": [
        {
          "internalType": "bool",
          "name": "",
          "type": "bool"
        }
      ],
      "stateMutability": "nonpayable",
      "type": "function"
    },
    {
      "inputs": [
        {
          "internalType": "address",
          "name": "account",
          "type": "address"
        }
      ],
      "name": "balanceOf",
      "outputs": [
        {
          "internalType": "uint256",
          "name": "",
          "type": "uint256"
        }
      ],
      "stateMutability": "view",
      "type": "function"
    },
    {
      "inputs": [
        {
          "internalType": "string",
          "name": "",
          "type": "string"
        }
      ],
      "name": "candidateObject",
      "outputs": [
        {
          "internalType": "string",
          "name": "names",
          "type": "string"
        },
        {
          "internalType": "uint256",
          "name": "age",
          "type": "uint256"
        },
        {
          "internalType": "string",
          "name": "idNumber",
          "type": "string"
        },
        {
          "internalType": "string",
          "name": "party",
          "type": "string"
        },
        {
          "internalType": "uint256",
          "name": "votes",
          "type": "uint256"
        },
        {
          "internalType": "bool",
          "name": "verified",
          "type": "bool"
        },
        {
          "internalType": "string",
          "name": "position",
          "type": "string"
        }
      ],
      "stateMutability": "view",
      "type": "function"
    },
    {
      "inputs": [
        {
          "internalType": "address",
          "name": "userAddress",
          "type": "address"
        },
        {
          "internalType": "string",
          "name": "domain",
          "type": "string"
        },
        {
          "internalType": "string",
          "name": "statement",
          "type": "string"
        },
        {
          "internalType": "string",
          "name": "uri",
          "type": "string"
        },
        {
          "internalType": "uint256",
          "name": "chainId",
          "type": "uint256"
        },
        {
          "internalType": "uint256",
          "name": "nonce",
          "type": "uint256"
        }
      ],
      "name": "createMessageHash",
      "outputs": [
        {
          "internalType": "bytes32",
          "name": "",
          "type": "bytes32"
        }
      ],
      "stateMutability": "pure",
      "type": "function"
    },
    {
      "inputs": [],
      "name": "decimals",
      "outputs": [
        {
          "internalType": "uint8",
          "name": "",
          "type": "uint8"
        }
      ],
      "stateMutability": "view",
      "type": "function"
    },
    {
      "inputs": [
        {
          "internalType": "uint256",
          "name": "votingDays",
          "type": "uint256"
        }
      ],
      "name": "endRegistrationAndStartVoting",
      "outputs": [],
      "stateMutability": "nonpayable",
      "type": "function"
    },
    {
      "inputs": [],
      "name": "endVoting",
      "outputs": [],
      "stateMutability": "nonpayable",
      "type": "function"
    },
    {
      "inputs": [],
      "name": "getAllPositions",
      "outputs": [
        {
          "components": [
            {
              "internalType": "string",
              "name": "pName",
              "type": "string"
            },
            {
              "components": [
                {
                  "internalType": "string",
                  "name": "names",
                  "type": "string"
                },
                {
                  "internalType": "uint256",
                  "name": "age",
                  "type": "uint256"
                },
                {
                  "internalType": "string",
                  "name": "idNumber",
                  "type": "string"
                },
                {
                  "internalType": "string",
                  "name": "party",
                  "type": "string"
                },
                {
                  "internalType": "uint256",
                  "name": "votes",
                  "type": "uint256"
                },
                {
                  "internalType": "bool",
                  "name": "verified",
                  "type": "bool"
                },
                {
                  "internalType": "string",
                  "name": "position",
                  "type": "string"
                }
              ],
              "internalType": "struct Voting.Candidate[]",
              "name": "candidates",
              "type": "tuple[]"
            }
          ],
          "internalType": "struct Voting.Position[]",
          "name": "",
          "type": "tuple[]"
        }
      ],
      "stateMutability": "view",
      "type": "function"
    },
    {
      "inputs": [],
      "name": "getCandidates",
      "outputs": [
        {
          "components": [
            {
              "internalType": "string",
              "name": "names",
              "type": "string"
            },
            {
              "internalType": "uint256",
              "name": "age",
              "type": "uint256"
            },
            {
              "internalType": "string",
              "name": "idNumber",
              "type": "string"
            },
            {
              "internalType": "string",
              "name": "party",
              "type": "string"
            },
            {
              "internalType": "uint256",
              "name": "votes",
              "type": "uint256"
            },
            {
              "internalType": "bool",
              "name": "verified",
              "type": "bool"
            },
            {
              "internalType": "string",
              "name": "position",
              "type": "string"
            }
          ],
          "internalType": "struct Voting.Candidate[]",
          "name": "",
          "type": "tuple[]"
        }
      ],
      "stateMutability": "view",
      "type": "function"
    },
    {
      "inputs": [],
      "name": "getPositionCount",
      "outputs": [
        {
          "internalType": "uint256",
          "name": "",
          "type": "uint256"
        }
      ],
      "stateMutability": "view",
      "type": "function"
    },
    {
      "inputs": [],
      "name": "getVoters",
      "outputs": [
        {
          "components": [
            {
              "internalType": "string",
              "name": "names",
              "type": "string"
            },
            {
              "internalType": "uint256",
              "name": "age",
              "type": "uint256"
            },
            {
              "internalType": "string",
              "name": "idNumber",
              "type": "string"
            },
            {
              "internalType": "bool",
              "name": "voted",
              "type": "bool"
            }
          ],
          "internalType": "struct Voting.Voter[]",
          "name": "",
          "type": "tuple[]"
        }
      ],
      "stateMutability": "view",
      "type": "function"
    },
    {
      "inputs": [],
      "name": "getVotingEndTime",
      "outputs": [
        {
          "internalType": "uint256",
          "name": "",
          "type": "uint256"
        }
      ],
      "stateMutability": "view",
      "type": "function"
    },
    {
      "inputs": [
        {
          "internalType": "address",
          "name": "",
          "type": "address"
        },
        {
          "internalType": "string",
          "name": "",
          "type": "string"
        }
      ],
      "name": "hasVotedForPosition",
      "outputs": [
        {
          "internalType": "bool",
          "name": "",
          "type": "bool"
        }
      ],
      "stateMutability": "view",
      "type": "function"
    },
    {
      "inputs": [],
      "name": "hasVotingEnded",
      "outputs": [
        {
          "internalType": "bool",
          "name": "",
          "type": "bool"
        }
      ],
      "stateMutability": "view",
      "type": "function"
    },
    {
      "inputs": [
        {
          "internalType": "string",
          "name": "_idNumber",
          "type": "string"
        }
      ],
      "name": "isCandidateRegistered",
      "outputs": [
        {
          "internalType": "bool",
          "name": "",
          "type": "bool"
        }
      ],
      "stateMutability": "view",
      "type": "function"
    },
    {
      "inputs": [
        {
          "internalType": "address",
          "name": "_account",
          "type": "address"
        }
      ],
      "name": "isVoterRegistered",
      "outputs": [
        {
          "internalType": "bool",
          "name": "",
          "type": "bool"
        }
      ],
      "stateMutability": "view",
      "type": "function"
    },
    {
      "inputs": [
        {
          "internalType": "uint256",
          "name": "",
          "type": "uint256"
        }
      ],
      "name": "listOfCandidates",
      "outputs": [
        {
          "internalType": "string",
          "name": "names",
          "type": "string"
        },
        {
          "internalType": "uint256",
          "name": "age",
          "type": "uint256"
        },
        {
          "internalType": "string",
          "name": "idNumber",
          "type": "string"
        },
        {
          "internalType": "string",
          "name": "party",
          "type": "string"
        },
        {
          "internalType": "uint256",
          "name": "votes",
          "type": "uint256"
        },
        {
          "internalType": "bool",
          "name": "verified",
          "type": "bool"
        },
        {
          "internalType": "string",
          "name": "position",
          "type": "string"
        }
      ],
      "stateMutability": "view",
      "type": "function"
    },
    {
      "inputs": [
        {
          "internalType": "uint256",
          "name": "",
          "type": "uint256"
        }
      ],
      "name": "listOfPositions",
      "outputs": [
        {
          "internalType": "string",
          "name": "pName",
          "type": "string"
        }
      ],
      "stateMutability": "view",
      "type": "function"
    },
    {
      "inputs": [
        {
          "internalType": "uint256",
          "name": "",
          "type": "uint256"
        }
      ],
      "name": "listOfVoters",
      "outputs": [
        {
          "internalType": "string",
          "name": "names",
          "type": "string"
        },
        {
          "internalType": "uint256",
          "name": "age",
          "type": "uint256"
        },
        {
          "internalType": "string",
          "name": "idNumber",
          "type": "string"
        },
        {
          "internalType": "bool",
          "name": "voted",
          "type": "bool"
        }
      ],
      "stateMutability": "view",
      "type": "function"
    },
    {
      "inputs": [],
      "name": "name",
      "outputs": [
        {
          "internalType": "string",
          "name": "",
          "type": "string"
        }
      ],
      "stateMutability": "view",
      "type": "function"
    },
    {
      "inputs": [],
      "name": "owner",
      "outputs": [
        {
          "internalType": "address",
          "name": "",
          "type": "address"
        }
      ],
      "stateMutability": "view",
      "type": "function"
    },
    {
      "inputs": [
        {
          "internalType": "string",
          "name": "",
          "type": "string"
        }
      ],
      "name": "positions",
      "outputs": [
        {
          "internalType": "string",
          "name": "pName",
          "type": "string"
        }
      ],
      "stateMutability": "view",
      "type": "function"
    },
    {
      "inputs": [
        {
          "internalType": "string",
          "name": "_names",
          "type": "string"
        },
        {
          "internalType": "uint256",
          "name": "_age",
          "type": "uint256"
        },
        {
          "internalType": "string",
          "name": "_idNumber",
          "type": "string"
        },
        {
          "internalType": "string",
          "name": "_party",
          "type": "string"
        },
        {
          "internalType": "string",
          "name": "_position",
          "type": "string"
        }
      ],
      "name": "registerCandidate",
      "outputs": [],
      "stateMutability": "nonpayable",
      "type": "function"
    },
    {
      "inputs": [
        {
          "internalType": "string",
          "name": "_names",
          "type": "string"
        },
        {
          "internalType": "uint256",
          "name": "_age",
          "type": "uint256"
        },
        {
          "internalType": "string",
          "name": "_idNumber",
          "type": "string"
        }
      ],
      "name": "registerVoter",
      "outputs": [
        {
          "internalType": "bool",
          "name": "",
          "type": "bool"
        }
      ],
      "stateMutability": "nonpayable",
      "type": "function"
    },
    {
      "inputs": [],
      "name": "registrationStarted",
      "outputs": [
        {
          "internalType": "bool",
          "name": "",
          "type": "bool"
        }
      ],
      "stateMutability": "view",
      "type": "function"
    },
    {
      "inputs": [
        {
          "internalType": "string",
          "name": "_idNumber",
          "type": "string"
        }
      ],
      "name": "rejectCandidate",
      "outputs": [],
      "stateMutability": "nonpayable",
      "type": "function"
    },
    {
      "inputs": [],
      "name": "startRegistration",
      "outputs": [],
      "stateMutability": "nonpayable",
      "type": "function"
    },
    {
      "inputs": [],
      "name": "symbol",
      "outputs": [
        {
          "internalType": "string",
          "name": "",
          "type": "string"
        }
      ],
      "stateMutability": "view",
      "type": "function"
    },
    {
      "inputs": [],
      "name": "totalSupply",
      "outputs": [
        {
          "internalType": "uint256",
          "name": "",
          "type": "uint256"
        }
      ],
      "stateMutability": "view",
      "type": "function"
    },
    {
      "inputs": [
        {
          "internalType": "address",
          "name": "to",
          "type": "address"
        },
        {
          "internalType": "uint256",
          "name": "value",
          "type": "uint256"
        }
      ],
      "name": "transfer",
      "outputs": [
        {
          "internalType": "bool",
          "name": "",
          "type": "bool"
        }
      ],
      "stateMutability": "nonpayable",
      "type": "function"
    },
    {
      "inputs": [
        {
          "internalType": "address",
          "name": "from",
          "type": "address"
        },
        {
          "internalType": "address",
          "name": "to",
          "type": "address"
        },
        {
          "internalType": "uint256",
          "name": "value",
          "type": "uint256"
        }
      ],
      "name": "transferFrom",
      "outputs": [
        {
          "internalType": "bool",
          "name": "",
          "type": "bool"
        }
      ],
      "stateMutability": "nonpayable",
      "type": "function"
    },
    {
      "inputs": [
        {
          "internalType": "string",
          "name": "_idNumber",
          "type": "string"
        }
      ],
      "name": "verifyCandidate",
      "outputs": [],
      "stateMutability": "nonpayable",
      "type": "function"
    },
    {
      "inputs": [
        {
          "internalType": "bytes32",
          "name": "hash",
          "type": "bytes32"
        },
        {
          "internalType": "bytes",
          "name": "signature",
          "type": "bytes"
        }
      ],
      "name": "verifySignature",
      "outputs": [
        {
          "internalType": "bool",
          "name": "",
          "type": "bool"
        }
      ],
      "stateMutability": "view",
      "type": "function"
    },
    {
      "inputs": [
        {
          "internalType": "string",
          "name": "position",
          "type": "string"
        },
        {
          "internalType": "uint256",
          "name": "candidateIndex",
          "type": "uint256"
        }
      ],
      "name": "vote",
      "outputs": [],
      "stateMutability": "nonpayable",
      "type": "function"
    },
    {
      "inputs": [
        {
          "internalType": "string",
          "name": "",
          "type": "string"
        }
      ],
      "name": "voterObject",
      "outputs": [
        {
          "internalType": "string",
          "name": "names",
          "type": "string"
        },
        {
          "internalType": "uint256",
          "name": "age",
          "type": "uint256"
        },
        {
          "internalType": "string",
          "name": "idNumber",
          "type": "string"
        },
        {
          "internalType": "bool",
          "name": "voted",
          "type": "bool"
        }
      ],
      "stateMutability": "view",
      "type": "function"
    },
    {
      "inputs": [
        {
          "internalType": "address",
          "name": "",
          "type": "address"
        }
      ],
      "name": "voters",
      "outputs": [
        {
          "internalType": "string",
          "name": "names",
          "type": "string"
        },
        {
          "internalType": "uint256",
          "name": "age",
          "type": "uint256"
        },
        {
          "internalType": "string",
          "name": "idNumber",
          "type": "string"
        },
        {
          "internalType": "bool",
          "name": "voted",
          "type": "bool"
        }
      ],
      "stateMutability": "view",
      "type": "function"
    },
    {
      "inputs": [],
      "name": "votingEndTime",
      "outputs": [
        {
          "internalType": "uint256",
          "name": "",
          "type": "uint256"
        }
      ],
      "stateMutability": "view",
      "type": "function"
    },
    {
      "inputs": [],
      "name": "votingStarted",
      "outputs": [
        {
          "internalType": "bool",
          "name": "",
          "type": "bool"
        }
      ],
      "stateMutability": "view",
      "type": "function"
    }
  ],
  "bytecode": "0x60806040526000601060006101000a81548160ff0219169083151502179055506000601060016101000a81548160ff02191690831515021790555034801561004657600080fd5b506040518060400160405280600581526020017f566f7465780000000000000000000000000000000000000000000000000000008152506040518060400160405280600481526020017f56544b4e0000000000000000000000000000000000000000000000000000000081525081600390816100c2919061036b565b5080600490816100d2919061036b565b50505033600560006101000a81548173ffffffffffffffffffffffffffffffffffffffff021916908373ffffffffffffffffffffffffffffffffffffffff16021790555061043d565b600081519050919050565b7f4e487b7100000000000000000000000000000000000000000000000000000000600052604160045260246000fd5b7f4e487b7100000000000000000000000000000000000000000000000000000000600052602260045260246000fd5b6000600282049050600182168061019c57607f821691505b6020821081036101af576101ae610155565b5b50919050565b60008190508160005260206000209050919050565b60006020601f8301049050919050565b600082821b905092915050565b6000600883026102177fffffffffffffffffffffffffffffffffffffffffffffffffffffffffffffffff826101da565b61022186836101da565b95508019841693508086168417925050509392505050565b6000819050919050565b6000819050919050565b600061026861026361025e84610239565b610243565b610239565b9050919050565b6000819050919050565b6102828361024d565b61029661028e8261026f565b8484546101e7565b825550505050565b600090565b6102ab61029e565b6102b6818484610279565b505050565b5b818110156102da576102cf6000826102a3565b6001810190506102bc565b5050565b601f82111561031f576102f0816101b5565b6102f9846101ca565b81016020851015610308578190505b61031c610314856101ca565b8301826102bb565b50505b505050565b600082821c905092915050565b600061034260001984600802610324565b1980831691505092915050565b600061035b8383610331565b9150826002028217905092915050565b6103748261011b565b67ffffffffffffffff81111561038d5761038c610126565b5b6103978254610184565b6103a28282856102de565b600060209050601f8311600181146103d557600084156103c3578287015190505b6103cd858261034f565b865550610435565b601f1984166103e3866101b5565b60005b8281101561040b578489015182556001820191506020850194506020810190506103e6565b868310156104285784890151610424601f891682610331565b8355505b6001600288020188555050505b505050505050565b6177bb8061044c6000396000f3fe608060405234801561001057600080fd5b50600436106102695760003560e01c80638168347611610151578063abceaad2116100c3578063c3403ddf11610087578063c3403ddf146107c7578063cdd72253146107d1578063daca6f78146107ef578063dd62ed3e1461081f578063eb2119db1461084f578063ffdd74961461087f57610269565b8063abceaad214610737578063b034d2b314610753578063b1bf87b01461076f578063b80a398a1461078d578063be94ced7146107a957610269565b806395d89b411161011557806395d89b411461064b5780639a53cbea146106695780639dfa90651461069c578063a3ec138d146106b8578063a6385803146106eb578063a9059cbb1461070757610269565b8063816834761461058b57806383d948b7146105a95780638ad1782b146105c75780638da5cb5b146105f757806392d7df4a1461061557610269565b8063313ce567116101ea578063565e802a116101ae578063565e802a1461046b5780635fbcc1551461049b5780636636b91e146104cb578063676f86b0146104fb57806370a082311461052b57806371a6f4651461055b57610269565b8063313ce567146103c257806332cb6b0c146103e05780633dd079c0146103fe5780634902a1791461041c5780634a66e1ab1461043857610269565b806318f56a0a1161023157806318f56a0a146103025780631c64a33e146103205780631ea736e01461035657806323b872dd1461037457806327aed42e146103a457610269565b806306a49fce1461026e57806306fdde031461028c578063095ea7b3146102aa57806310b86695146102da57806318160ddd146102e4575b600080fd5b61027661089d565b6040516102839190614fe9565b60405180910390f35b610294610b73565b6040516102a19190615055565b60405180910390f35b6102c460048036038101906102bf9190615115565b610c05565b6040516102d19190615164565b60405180910390f35b6102e2610c28565b005b6102ec610da1565b6040516102f9919061518e565b60405180910390f35b61030a610dab565b6040516103179190615335565b60405180910390f35b61033a6004803603810190610335919061548c565b611172565b60405161034d97969594939291906154d5565b60405180910390f35b61035e6113f7565b60405161036b919061518e565b60405180910390f35b61038e60048036038101906103899190615560565b6113fd565b60405161039b9190615164565b60405180910390f35b6103ac61142c565b6040516103b99190615164565b60405180910390f35b6103ca61143f565b6040516103d791906155cf565b60405180910390f35b6103e8611448565b6040516103f5919061518e565b60405180910390f35b610406611456565b6040516104139190615164565b60405180910390f35b610436600480360381019061043191906155ea565b61147b565b005b610452600480360381019061044d919061548c565b61165b565b6040516104629493929190615617565b60405180910390f35b6104856004803603810190610480919061548c565b6117be565b6040516104929190615164565b60405180910390f35b6104b560048036038101906104b0919061566a565b6117f7565b6040516104c29190615764565b60405180910390f35b6104e560048036038101906104e0919061577f565b611866565b6040516104f29190615164565b60405180910390f35b6105156004803603810190610510919061548c565b611c3b565b6040516105229190615055565b60405180910390f35b6105456004803603810190610540919061580a565b611cf7565b604051610552919061518e565b60405180910390f35b610575600480360381019061057091906155ea565b611d3f565b6040516105829190615055565b60405180910390f35b610593611df5565b6040516105a0919061518e565b60405180910390f35b6105b1611e02565b6040516105be9190615164565b60405180910390f35b6105e160048036038101906105dc9190615837565b611e15565b6040516105ee9190615164565b60405180910390f35b6105ff611e5a565b60405161060c91906158a2565b60405180910390f35b61062f600480360381019061062a91906155ea565b611e80565b60405161064297969594939291906154d5565b60405180910390f35b6106536120ff565b6040516106609190615055565b60405180910390f35b610683600480360381019061067e91906155ea565b612191565b6040516106939493929190615617565b60405180910390f35b6106b660048036038101906106b1919061548c565b6122ee565b005b6106d260048036038101906106cd919061580a565b61258d565b6040516106e29493929190615617565b60405180910390f35b610705600480360381019061070091906158bd565b6126da565b005b610721600480360381019061071c9190615115565b612d95565b60405161072e9190615164565b60405180910390f35b610751600480360381019061074c91906159ff565b612db8565b005b61076d6004803603810190610768919061548c565b613050565b005b610777613458565b604051610784919061518e565b60405180910390f35b6107a760048036038101906107a29190615a48565b613462565b005b6107b1613934565b6040516107be919061518e565b60405180910390f35b6107cf613940565b005b6107d9613acf565b6040516107e69190615c5f565b60405180910390f35b61080960048036038101906108049190615d4e565b613c77565b6040516108169190615164565b60405180910390f35b61083960048036038101906108349190615daa565b613cea565b604051610846919061518e565b60405180910390f35b6108696004803603810190610864919061580a565b613d71565b6040516108769190615164565b60405180910390f35b610887613dcc565b604051610894919061518e565b60405180910390f35b60606008805480602002602001604051908101604052809291908181526020016000905b82821015610b6a57838290600052602060002090600702016040518060e00160405290816000820180546108f490615e19565b80601f016020809104026020016040519081016040528092919081815260200182805461092090615e19565b801561096d5780601f106109425761010080835404028352916020019161096d565b820191906000526020600020905b81548152906001019060200180831161095057829003601f168201915b505050505081526020016001820154815260200160028201805461099090615e19565b80601f01602080910402602001604051908101604052809291908181526020018280546109bc90615e19565b8015610a095780601f106109de57610100808354040283529160200191610a09565b820191906000526020600020905b8154815290600101906020018083116109ec57829003601f168201915b50505050508152602001600382018054610a2290615e19565b80601f0160208091040260200160405190810160405280929190818152602001828054610a4e90615e19565b8015610a9b5780601f10610a7057610100808354040283529160200191610a9b565b820191906000526020600020905b815481529060010190602001808311610a7e57829003601f168201915b50505050508152602001600482015481526020016005820160009054906101000a900460ff16151515158152602001600682018054610ad990615e19565b80601f0160208091040260200160405190810160405280929190818152602001828054610b0590615e19565b8015610b525780601f10610b2757610100808354040283529160200191610b52565b820191906000526020600020905b815481529060010190602001808311610b3557829003601f168201915b505050505081525050815260200190600101906108c1565b50505050905090565b606060038054610b8290615e19565b80601f0160208091040260200160405190810160405280929190818152602001828054610bae90615e19565b8015610bfb5780601f10610bd057610100808354040283529160200191610bfb565b820191906000526020600020905b815481529060010190602001808311610bde57829003601f168201915b5050505050905090565b600080610c10613dd8565b9050610c1d818585613de0565b600191505092915050565b600560009054906101000a900473ffffffffffffffffffffffffffffffffffffffff1673ffffffffffffffffffffffffffffffffffffffff163373ffffffffffffffffffffffffffffffffffffffff1614610cb8576040517f08c379a0000000000000000000000000000000000000000000000000000000008152600401610caf90615e96565b60405180910390fd5b601060009054906101000a900460ff1615610d08576040517f08c379a0000000000000000000000000000000000000000000000000000000008152600401610cff90615f28565b60405180910390fd5b601060019054906101000a900460ff1615610d58576040517f08c379a0000000000000000000000000000000000000000000000000000000008152600401610d4f90615fba565b60405180910390fd5b6001601060006101000a81548160ff0219169083151502179055507f82e6c84abd647d1b4fae9bee1859f2642e5443af0ff900d4af83a93c2bf4151260405160405180910390a1565b6000600254905090565b60606009805480602002602001604051908101604052809291908181526020016000905b828210156111695783829060005260206000209060020201604051806040016040529081600082018054610e0290615e19565b80601f0160208091040260200160405190810160405280929190818152602001828054610e2e90615e19565b8015610e7b5780601f10610e5057610100808354040283529160200191610e7b565b820191906000526020600020905b815481529060010190602001808311610e5e57829003601f168201915b5050505050815260200160018201805480602002602001604051908101604052809291908181526020016000905b8282101561115257838290600052602060002090600702016040518060e0016040529081600082018054610edc90615e19565b80601f0160208091040260200160405190810160405280929190818152602001828054610f0890615e19565b8015610f555780601f10610f2a57610100808354040283529160200191610f55565b820191906000526020600020905b815481529060010190602001808311610f3857829003601f168201915b5050505050815260200160018201548152602001600282018054610f7890615e19565b80601f0160208091040260200160405190810160405280929190818152602001828054610fa490615e19565b8015610ff15780601f10610fc657610100808354040283529160200191610ff1565b820191906000526020600020905b815481529060010190602001808311610fd457829003601f168201915b5050505050815260200160038201805461100a90615e19565b80601f016020809104026020016040519081016040528092919081815260200182805461103690615e19565b80156110835780601f1061105857610100808354040283529160200191611083565b820191906000526020600020905b81548152906001019060200180831161106657829003601f168201915b50505050508152602001600482015481526020016005820160009054906101000a900460ff161515151581526020016006820180546110c190615e19565b80601f01602080910402602001604051908101604052809291908181526020018280546110ed90615e19565b801561113a5780601f1061110f5761010080835404028352916020019161113a565b820191906000526020600020905b81548152906001019060200180831161111d57829003601f168201915b50505050508152505081526020019060010190610ea9565b505050508152505081526020019060010190610dcf565b50505050905090565b600b818051602081018201805184825260208301602085012081835280955050505050506000915090508060000180546111ab90615e19565b80601f01602080910402602001604051908101604052809291908181526020018280546111d790615e19565b80156112245780601f106111f957610100808354040283529160200191611224565b820191906000526020600020905b81548152906001019060200180831161120757829003601f168201915b50505050509080600101549080600201805461123f90615e19565b80601f016020809104026020016040519081016040528092919081815260200182805461126b90615e19565b80156112b85780601f1061128d576101008083540402835291602001916112b8565b820191906000526020600020905b81548152906001019060200180831161129b57829003601f168201915b5050505050908060030180546112cd90615e19565b80601f01602080910402602001604051908101604052809291908181526020018280546112f990615e19565b80156113465780601f1061131b57610100808354040283529160200191611346565b820191906000526020600020905b81548152906001019060200180831161132957829003601f168201915b5050505050908060040154908060050160009054906101000a900460ff169080600601805461137490615e19565b80601f01602080910402602001604051908101604052809291908181526020018280546113a090615e19565b80156113ed5780601f106113c2576101008083540402835291602001916113ed565b820191906000526020600020905b8154815290600101906020018083116113d057829003601f168201915b5050505050905087565b60065481565b600080611408613dd8565b9050611415858285613df2565b611420858585613e86565b60019150509392505050565b601060009054906101000a900460ff1681565b60006012905090565b69d3c21bcecceda100000081565b6000601060019054906101000a900460ff16801561147657506006544210155b905090565b600560009054906101000a900473ffffffffffffffffffffffffffffffffffffffff1673ffffffffffffffffffffffffffffffffffffffff163373ffffffffffffffffffffffffffffffffffffffff161461150b576040517f08c379a000000000000000000000000000000000000000000000000000000000815260040161150290615e96565b60405180910390fd5b601060009054906101000a900460ff1661155a576040517f08c379a00000000000000000000000000000000000000000000000000000000081526004016115519061604c565b60405180910390fd5b601060019054906101000a900460ff16156115aa576040517f08c379a00000000000000000000000000000000000000000000000000000000081526004016115a1906160b8565b60405180910390fd5b6000601060006101000a81548160ff0219169083151502179055506001601060016101000a81548160ff02191690831515021790555062015180816115ef9190616107565b426115fa9190616149565b6006819055507f2ee88f50f05558e39b34a18214ff6a6adc091504772084c6ce7899354bec0aa460405160405180910390a17f877e2548498f42b7975a186b94ef1d32c86d420b7b806dd2be2bea293b89590460405160405180910390a150565b600a8180516020810182018051848252602083016020850120818352809550505050505060009150905080600001805461169490615e19565b80601f01602080910402602001604051908101604052809291908181526020018280546116c090615e19565b801561170d5780601f106116e25761010080835404028352916020019161170d565b820191906000526020600020905b8154815290600101906020018083116116f057829003601f168201915b50505050509080600101549080600201805461172890615e19565b80601f016020809104026020016040519081016040528092919081815260200182805461175490615e19565b80156117a15780601f10611776576101008083540402835291602001916117a1565b820191906000526020600020905b81548152906001019060200180831161178457829003601f168201915b5050505050908060030160009054906101000a900460ff16905084565b600080600b836040516117d191906161b9565b908152602001604051809103902060000180546117ed90615e19565b9050119050919050565b60008561181b8873ffffffffffffffffffffffffffffffffffffffff166014613f7a565b8686611826876141c0565b61182f876141c0565b6040516020016118449695949392919061647c565b6040516020818303038152906040528051906020012090509695505050505050565b6000601060009054906101000a900460ff166118b7576040517f08c379a00000000000000000000000000000000000000000000000000000000081526004016118ae9061604c565b60405180910390fd5b601060019054906101000a900460ff1615611907576040517f08c379a00000000000000000000000000000000000000000000000000000000081526004016118fe906165d5565b60405180910390fd5b6000600a8360405161191991906161b9565b9081526020016040518091039020600001805461193590615e19565b905014611977576040517f08c379a000000000000000000000000000000000000000000000000000000000815260040161196e90616641565b60405180910390fd5b6000600d60003373ffffffffffffffffffffffffffffffffffffffff1673ffffffffffffffffffffffffffffffffffffffff16815260200190815260200160002060010154146119fc576040517f08c379a00000000000000000000000000000000000000000000000000000000081526004016119f3906166d3565b60405180910390fd5b6000604051806080016040528086815260200185815260200184815260200160001515815250905060078190806001815401808255809150506001900390600052602060002090600402016000909190919091506000820151816000019081611a65919061689f565b50602082015181600101556040820151816002019081611a85919061689f565b5060608201518160030160006101000a81548160ff021916908315150217905550505080600a84604051611ab991906161b9565b90815260200160405180910390206000820151816000019081611adc919061689f565b50602082015181600101556040820151816002019081611afc919061689f565b5060608201518160030160006101000a81548160ff02191690831515021790555090505080600d60003373ffffffffffffffffffffffffffffffffffffffff1673ffffffffffffffffffffffffffffffffffffffff1681526020019081526020016000206000820151816000019081611b75919061689f565b50602082015181600101556040820151816002019081611b95919061689f565b5060608201518160030160006101000a81548160ff021916908315150217905550905050611bcb33674563918244f4000061428e565b5082604051611bda91906161b9565b604051809103902085604051611bf091906161b9565b60405180910390207f754a5f7c9336f3562d73dacebf51de10da957ae9dfcae4fbfb93733ece3dd5aa86604051611c27919061518e565b60405180910390a360019150509392505050565b600c81805160208101820180518482526020830160208501208183528095505050505050600091509050806000018054611c7490615e19565b80601f0160208091040260200160405190810160405280929190818152602001828054611ca090615e19565b8015611ced5780601f10611cc257610100808354040283529160200191611ced565b820191906000526020600020905b815481529060010190602001808311611cd057829003601f168201915b5050505050905081565b60008060008373ffffffffffffffffffffffffffffffffffffffff1673ffffffffffffffffffffffffffffffffffffffff168152602001908152602001600020549050919050565b60098181548110611d4f57600080fd5b9060005260206000209060020201600091509050806000018054611d7290615e19565b80601f0160208091040260200160405190810160405280929190818152602001828054611d9e90615e19565b8015611deb5780601f10611dc057610100808354040283529160200191611deb565b820191906000526020600020905b815481529060010190602001808311611dce57829003601f168201915b5050505050905081565b6000600980549050905090565b601060019054906101000a900460ff1681565b600f602052816000526040600020818051602081018201805184825260208301602085012081835280955050505050506000915091509054906101000a900460ff1681565b600560009054906101000a900473ffffffffffffffffffffffffffffffffffffffff1681565b60088181548110611e9057600080fd5b9060005260206000209060070201600091509050806000018054611eb390615e19565b80601f0160208091040260200160405190810160405280929190818152602001828054611edf90615e19565b8015611f2c5780601f10611f0157610100808354040283529160200191611f2c565b820191906000526020600020905b815481529060010190602001808311611f0f57829003601f168201915b505050505090806001015490806002018054611f4790615e19565b80601f0160208091040260200160405190810160405280929190818152602001828054611f7390615e19565b8015611fc05780601f10611f9557610100808354040283529160200191611fc0565b820191906000526020600020905b815481529060010190602001808311611fa357829003601f168201915b505050505090806003018054611fd590615e19565b80601f016020809104026020016040519081016040528092919081815260200182805461200190615e19565b801561204e5780601f106120235761010080835404028352916020019161204e565b820191906000526020600020905b81548152906001019060200180831161203157829003601f168201915b5050505050908060040154908060050160009054906101000a900460ff169080600601805461207c90615e19565b80601f01602080910402602001604051908101604052809291908181526020018280546120a890615e19565b80156120f55780601f106120ca576101008083540402835291602001916120f5565b820191906000526020600020905b8154815290600101906020018083116120d857829003601f168201915b5050505050905087565b60606004805461210e90615e19565b80601f016020809104026020016040519081016040528092919081815260200182805461213a90615e19565b80156121875780601f1061215c57610100808354040283529160200191612187565b820191906000526020600020905b81548152906001019060200180831161216a57829003601f168201915b5050505050905090565b600781815481106121a157600080fd5b90600052602060002090600402016000915090508060000180546121c490615e19565b80601f01602080910402602001604051908101604052809291908181526020018280546121f090615e19565b801561223d5780601f106122125761010080835404028352916020019161223d565b820191906000526020600020905b81548152906001019060200180831161222057829003601f168201915b50505050509080600101549080600201805461225890615e19565b80601f016020809104026020016040519081016040528092919081815260200182805461228490615e19565b80156122d15780601f106122a6576101008083540402835291602001916122d1565b820191906000526020600020905b8154815290600101906020018083116122b457829003601f168201915b5050505050908060030160009054906101000a900460ff16905084565b600560009054906101000a900473ffffffffffffffffffffffffffffffffffffffff1673ffffffffffffffffffffffffffffffffffffffff163373ffffffffffffffffffffffffffffffffffffffff161461237e576040517f08c379a000000000000000000000000000000000000000000000000000000000815260040161237590615e96565b60405180910390fd5b600b8160405161238e91906161b9565b908152602001604051809103902060050160009054906101000a900460ff16156123ed576040517f08c379a00000000000000000000000000000000000000000000000000000000081526004016123e4906169bd565b60405180910390fd5b6001600b826040516123ff91906161b9565b908152602001604051809103902060050160006101000a81548160ff02191690831515021790555060005b6008805490508110156124fe578160405160200161244891906161b9565b6040516020818303038152906040528051906020012060088281548110612472576124716169dd565b5b90600052602060002090600702016002016040516020016124939190616a8f565b60405160208183030381529060405280519060200120036124f1576001600882815481106124c4576124c36169dd565b5b906000526020600020906007020160050160006101000a81548160ff0219169083151502179055506124fe565b808060010191505061242a565b5061251133678ac7230489e8000061428e565b508060405161252091906161b9565b6040518091039020600b8260405161253891906161b9565b90815260200160405180910390206000016040516125569190616a8f565b60405180910390207fb78543f054c768084f86f0e559d1e007998ca69729eeffc4b727baa388934a3260405160405180910390a350565b600d6020528060005260406000206000915090508060000180546125b090615e19565b80601f01602080910402602001604051908101604052809291908181526020018280546125dc90615e19565b80156126295780601f106125fe57610100808354040283529160200191612629565b820191906000526020600020905b81548152906001019060200180831161260c57829003601f168201915b50505050509080600101549080600201805461264490615e19565b80601f016020809104026020016040519081016040528092919081815260200182805461267090615e19565b80156126bd5780601f10612692576101008083540402835291602001916126bd565b820191906000526020600020905b8154815290600101906020018083116126a057829003601f168201915b5050505050908060030160009054906101000a900460ff16905084565b601060009054906101000a900460ff161561272a576040517f08c379a000000000000000000000000000000000000000000000000000000000815260040161272190616b18565b60405180910390fd5b601060019054906101000a900460ff16612779576040517f08c379a000000000000000000000000000000000000000000000000000000000815260040161277090616b84565b60405180910390fd5b6000600d60003373ffffffffffffffffffffffffffffffffffffffff1673ffffffffffffffffffffffffffffffffffffffff16815260200190815260200160002090507fa78b5858bb0b1b1a89861b226e2017f861eb09b440e6dccbbc3a4a11fde5bf0a338460006040516127f093929190616bf0565b60405180910390a16000600c8460405161280a91906161b9565b9081526020016040518091039020600101805490501161285f576040517f08c379a000000000000000000000000000000000000000000000000000000000815260040161285690616c8d565b60405180910390fd5b7fa78b5858bb0b1b1a89861b226e2017f861eb09b440e6dccbbc3a4a11fde5bf0a3384600060405161289393929190616d1f565b60405180910390a1600c836040516128ab91906161b9565b9081526020016040518091039020600101805490508210612901576040517f08c379a00000000000000000000000000000000000000000000000000000000081526004016128f890616dbc565b60405180910390fd5b7fa78b5858bb0b1b1a89861b226e2017f861eb09b440e6dccbbc3a4a11fde5bf0a3384600f60003373ffffffffffffffffffffffffffffffffffffffff1673ffffffffffffffffffffffffffffffffffffffff1681526020019081526020016000208660405161297191906161b9565b908152602001604051809103902060009054906101000a900460ff1660405161299c93929190616e4e565b60405180910390a1600f60003373ffffffffffffffffffffffffffffffffffffffff1673ffffffffffffffffffffffffffffffffffffffff168152602001908152602001600020836040516129f191906161b9565b908152602001604051809103902060009054906101000a900460ff1615612a4d576040517f08c379a0000000000000000000000000000000000000000000000000000000008152600401612a4490616f11565b60405180910390fd5b6001600c84604051612a5f91906161b9565b90815260200160405180910390206001018381548110612a8257612a816169dd565b5b90600052602060002090600702016004016000828254612aa29190616149565b925050819055506000600c84604051612abb91906161b9565b90815260200160405180910390206001018381548110612ade57612add6169dd565b5b90600052602060002090600702016002018054612afa90615e19565b80601f0160208091040260200160405190810160405280929190818152602001828054612b2690615e19565b8015612b735780601f10612b4857610100808354040283529160200191612b73565b820191906000526020600020905b815481529060010190602001808311612b5657829003601f168201915b5050505050905060005b600880549050811015612c505781604051602001612b9b91906161b9565b6040516020818303038152906040528051906020012060088281548110612bc557612bc46169dd565b5b9060005260206000209060070201600201604051602001612be69190616a8f565b6040516020818303038152906040528051906020012003612c4357600160088281548110612c1757612c166169dd565b5b90600052602060002090600702016004016000828254612c379190616149565b92505081905550612c50565b8080600101915050612b7d565b506001600b82604051612c6391906161b9565b90815260200160405180910390206004016000828254612c839190616149565b925050819055506001600f60003373ffffffffffffffffffffffffffffffffffffffff1673ffffffffffffffffffffffffffffffffffffffff16815260200190815260200160002085604051612cd991906161b9565b908152602001604051809103902060006101000a81548160ff0219169083151502179055503373ffffffffffffffffffffffffffffffffffffffff167f477d7faf347a03679fabd88feea150c41667473fc8412962f607fb7503f1bd43836002018686604051612d4b93929190616fb5565b60405180910390a27fa78b5858bb0b1b1a89861b226e2017f861eb09b440e6dccbbc3a4a11fde5bf0a33856001604051612d8793929190617046565b60405180910390a150505050565b600080612da0613dd8565b9050612dad818585613e86565b600191505092915050565b600560009054906101000a900473ffffffffffffffffffffffffffffffffffffffff1673ffffffffffffffffffffffffffffffffffffffff163373ffffffffffffffffffffffffffffffffffffffff1614612e48576040517f08c379a0000000000000000000000000000000000000000000000000000000008152600401612e3f90615e96565b60405180910390fd5b60005b815181101561304c57600e828281518110612e6957612e686169dd565b5b6020026020010151604051612e7e91906161b9565b908152602001604051809103902060009054906101000a900460ff1615612eda576040517f08c379a0000000000000000000000000000000000000000000000000000000008152600401612ed1906170e3565b60405180910390fd5b6000600c838381518110612ef157612ef06169dd565b5b6020026020010151604051612f0691906161b9565b90815260200160405180910390209050828281518110612f2957612f286169dd565b5b6020026020010151816000019081612f41919061689f565b50600981908060018154018082558091505060019003906000526020600020906002020160009091909190915060008201816000019081612f829190617119565b506001820181600101908054612f99929190614bed565b5050506001600e848481518110612fb357612fb26169dd565b5b6020026020010151604051612fc891906161b9565b908152602001604051809103902060006101000a81548160ff0219169083151502179055507ff635339f4b5986d632e76f25211c57346b4b4ca3aa13c1ba323ac12563731456838381518110613021576130206169dd565b5b60200260200101516040516130369190615055565b60405180910390a1508080600101915050612e4b565b5050565b600560009054906101000a900473ffffffffffffffffffffffffffffffffffffffff1673ffffffffffffffffffffffffffffffffffffffff163373ffffffffffffffffffffffffffffffffffffffff16146130e0576040517f08c379a00000000000000000000000000000000000000000000000000000000081526004016130d790615e96565b60405180910390fd5b6000600b826040516130f291906161b9565b9081526020016040518091039020600001805461310e90615e19565b905003613150576040517f08c379a00000000000000000000000000000000000000000000000000000000081526004016131479061724d565b60405180910390fd5b60005b600880549050811015613454578160405160200161317191906161b9565b604051602081830303815290604052805190602001206008828154811061319b5761319a6169dd565b5b90600052602060002090600702016002016040516020016131bc9190616a8f565b60405160208183030381529060405280519060200120036134475760008190505b60016008805490506131ef919061726d565b8110156132eb5760086001826132059190616149565b81548110613216576132156169dd565b5b906000526020600020906007020160088281548110613238576132376169dd565b5b90600052602060002090600702016000820181600001908161325a9190617119565b5060018201548160010155600282018160020190816132799190617119565b506003820181600301908161328e9190617119565b50600482015481600401556005820160009054906101000a900460ff168160050160006101000a81548160ff021916908315150217905550600682018160060190816132da9190617119565b5090505080806001019150506131dd565b5060088054806132fe576132fd6172a1565b5b6001900381819060005260206000209060070201600080820160006133239190614cda565b600182016000905560028201600061333b9190614cda565b60038201600061334b9190614cda565b60048201600090556005820160006101000a81549060ff02191690556006820160006133779190614cda565b50509055600b8260405161338b91906161b9565b9081526020016040518091039020600080820160006133aa9190614cda565b60018201600090556002820160006133c29190614cda565b6003820160006133d29190614cda565b60048201600090556005820160006101000a81549060ff02191690556006820160006133fe9190614cda565b50508160405161340e91906161b9565b60405180910390207f8f5f7793556433ecc92e19fec29f06611a3ac9c5a32b806db2149f70d52946fe60405160405180910390a2613454565b8080600101915050613153565b5050565b6000600654905090565b601060009054906101000a900460ff166134b1576040517f08c379a00000000000000000000000000000000000000000000000000000000081526004016134a89061604c565b60405180910390fd5b601060019054906101000a900460ff1615613501576040517f08c379a00000000000000000000000000000000000000000000000000000000081526004016134f8906165d5565b60405180910390fd5b6000600b8460405161351391906161b9565b9081526020016040518091039020600001805461352f90615e19565b905014613571576040517f08c379a00000000000000000000000000000000000000000000000000000000081526004016135689061731c565b60405180910390fd5b6000600a8460405161358391906161b9565b9081526020016040518091039020600001805461359f90615e19565b9050036135e1576040517f08c379a00000000000000000000000000000000000000000000000000000000081526004016135d890617388565b60405180910390fd5b60006040518060e00160405280878152602001868152602001858152602001848152602001600081526020016000151581526020018381525090506008819080600181540180825580915050600190039060005260206000209060070201600090919091909150600082015181600001908161365d919061689f565b5060208201518160010155604082015181600201908161367d919061689f565b506060820151816003019081613693919061689f565b506080820151816004015560a08201518160050160006101000a81548160ff02191690831515021790555060c08201518160060190816136d3919061689f565b50505080600b856040516136e791906161b9565b9081526020016040518091039020600082015181600001908161370a919061689f565b5060208201518160010155604082015181600201908161372a919061689f565b506060820151816003019081613740919061689f565b506080820151816004015560a08201518160050160006101000a81548160ff02191690831515021790555060c0820151816006019081613780919061689f565b509050506000600c8360405161379691906161b9565b90815260200160405180910390206001018054905010156137ec576040517f08c379a00000000000000000000000000000000000000000000000000000000081526004016137e3906173f4565b60405180910390fd5b600c826040516137fc91906161b9565b9081526020016040518091039020600101819080600181540180825580915050600190039060005260206000209060070201600090919091909150600082015181600001908161384c919061689f565b5060208201518160010155604082015181600201908161386c919061689f565b506060820151816003019081613882919061689f565b506080820151816004015560a08201518160050160006101000a81548160ff02191690831515021790555060c08201518160060190816138c2919061689f565b505050836040516138d391906161b9565b6040518091039020866040516138e991906161b9565b60405180910390207fd9f17a5389d6109c78413a18e9adfec5a898c288bbd8c9e65de38e95f04b9e0787868660405161392493929190617414565b60405180910390a3505050505050565b674563918244f4000081565b600560009054906101000a900473ffffffffffffffffffffffffffffffffffffffff1673ffffffffffffffffffffffffffffffffffffffff163373ffffffffffffffffffffffffffffffffffffffff16146139d0576040517f08c379a00000000000000000000000000000000000000000000000000000000081526004016139c790615e96565b60405180910390fd5b601060019054906101000a900460ff16613a1f576040517f08c379a0000000000000000000000000000000000000000000000000000000008152600401613a16906174a5565b60405180910390fd5b6006544210613a63576040517f08c379a0000000000000000000000000000000000000000000000000000000008152600401613a5a90617511565b60405180910390fd5b6000601060016101000a81548160ff02191690831515021790555060006006819055506001601060006101000a81548160ff0219169083151502179055507f7a19ed057db79e3c2fa0b97a54b43bef4fce74b31bb6c01af514b9a18a7f70ab60405160405180910390a1565b60606007805480602002602001604051908101604052809291908181526020016000905b82821015613c6e5783829060005260206000209060040201604051806080016040529081600082018054613b2690615e19565b80601f0160208091040260200160405190810160405280929190818152602001828054613b5290615e19565b8015613b9f5780601f10613b7457610100808354040283529160200191613b9f565b820191906000526020600020905b815481529060010190602001808311613b8257829003601f168201915b5050505050815260200160018201548152602001600282018054613bc290615e19565b80601f0160208091040260200160405190810160405280929190818152602001828054613bee90615e19565b8015613c3b5780601f10613c1057610100808354040283529160200191613c3b565b820191906000526020600020905b815481529060010190602001808311613c1e57829003601f168201915b505050505081526020016003820160009054906101000a900460ff16151515158152505081526020019060010190613af3565b50505050905090565b60008083604051602001613c8b919061759e565b6040516020818303038152906040528051906020012090506000613caf828561433c565b90503373ffffffffffffffffffffffffffffffffffffffff168173ffffffffffffffffffffffffffffffffffffffff16149250505092915050565b6000600160008473ffffffffffffffffffffffffffffffffffffffff1673ffffffffffffffffffffffffffffffffffffffff16815260200190815260200160002060008373ffffffffffffffffffffffffffffffffffffffff1673ffffffffffffffffffffffffffffffffffffffff16815260200190815260200160002054905092915050565b600080600d60008473ffffffffffffffffffffffffffffffffffffffff1673ffffffffffffffffffffffffffffffffffffffff1681526020019081526020016000206000018054613dc190615e19565b905014159050919050565b678ac7230489e8000081565b600033905090565b613ded8383836001614368565b505050565b6000613dfe8484613cea565b90507fffffffffffffffffffffffffffffffffffffffffffffffffffffffffffffffff8114613e805781811015613e70578281836040517ffb8f41b2000000000000000000000000000000000000000000000000000000008152600401613e67939291906175c4565b60405180910390fd5b613e7f84848484036000614368565b5b50505050565b600073ffffffffffffffffffffffffffffffffffffffff168373ffffffffffffffffffffffffffffffffffffffff1603613ef85760006040517f96c6fd1e000000000000000000000000000000000000000000000000000000008152600401613eef91906158a2565b60405180910390fd5b600073ffffffffffffffffffffffffffffffffffffffff168273ffffffffffffffffffffffffffffffffffffffff1603613f6a5760006040517fec442f05000000000000000000000000000000000000000000000000000000008152600401613f6191906158a2565b60405180910390fd5b613f7583838361453f565b505050565b6060600083905060006002846002613f929190616107565b613f9c9190616149565b67ffffffffffffffff811115613fb557613fb4615361565b5b6040519080825280601f01601f191660200182016040528015613fe75781602001600182028036833780820191505090505b5090507f30000000000000000000000000000000000000000000000000000000000000008160008151811061401f5761401e6169dd565b5b60200101907effffffffffffffffffffffffffffffffffffffffffffffffffffffffffffff1916908160001a9053507f780000000000000000000000000000000000000000000000000000000000000081600181518110614083576140826169dd565b5b60200101907effffffffffffffffffffffffffffffffffffffffffffffffffffffffffffff1916908160001a905350600060018560026140c39190616107565b6140cd9190616149565b90505b600181111561416d577f3031323334353637383961626364656600000000000000000000000000000000600f84166010811061410f5761410e6169dd565b5b1a60f81b828281518110614126576141256169dd565b5b60200101907effffffffffffffffffffffffffffffffffffffffffffffffffffffffffffff1916908160001a905350600483901c925080614166906175fb565b90506140d0565b50600082146141b55784846040517fe22e27eb0000000000000000000000000000000000000000000000000000000081526004016141ac929190617624565b60405180910390fd5b809250505092915050565b6060600060016141cf84614764565b01905060008167ffffffffffffffff8111156141ee576141ed615361565b5b6040519080825280601f01601f1916602001820160405280156142205781602001600182028036833780820191505090505b509050600082602001820190505b600115614283578080600190039150507f3031323334353637383961626364656600000000000000000000000000000000600a86061a8153600a85816142775761427661764d565b5b0494506000850361422e575b819350505050919050565b600069d3c21bcecceda10000006142a3610da1565b836142ae9190616149565b11156142ef576040517f08c379a00000000000000000000000000000000000000000000000000000000081526004016142e6906176c8565b60405180910390fd5b6142f983836148b7565b7fcda531bfd68624f13205c0a23cd4d5a7f09792cbb399603114f2b04aaa1bf5cf838360405161432a9291906176e8565b60405180910390a16001905092915050565b60008060008061434c8686614939565b92509250925061435c8282614995565b82935050505092915050565b600073ffffffffffffffffffffffffffffffffffffffff168473ffffffffffffffffffffffffffffffffffffffff16036143da5760006040517fe602df050000000000000000000000000000000000000000000000000000000081526004016143d191906158a2565b60405180910390fd5b600073ffffffffffffffffffffffffffffffffffffffff168373ffffffffffffffffffffffffffffffffffffffff160361444c5760006040517f94280d6200000000000000000000000000000000000000000000000000000000815260040161444391906158a2565b60405180910390fd5b81600160008673ffffffffffffffffffffffffffffffffffffffff1673ffffffffffffffffffffffffffffffffffffffff16815260200190815260200160002060008573ffffffffffffffffffffffffffffffffffffffff1673ffffffffffffffffffffffffffffffffffffffff168152602001908152602001600020819055508015614539578273ffffffffffffffffffffffffffffffffffffffff168473ffffffffffffffffffffffffffffffffffffffff167f8c5be1e5ebec7d5bd14f71427d1e84f3dd0314c0f7b2291e5b200ac8c7c3b92584604051614530919061518e565b60405180910390a35b50505050565b600073ffffffffffffffffffffffffffffffffffffffff168373ffffffffffffffffffffffffffffffffffffffff16036145915780600260008282546145859190616149565b92505081905550614664565b60008060008573ffffffffffffffffffffffffffffffffffffffff1673ffffffffffffffffffffffffffffffffffffffff1681526020019081526020016000205490508181101561461d578381836040517fe450d38c000000000000000000000000000000000000000000000000000000008152600401614614939291906175c4565b60405180910390fd5b8181036000808673ffffffffffffffffffffffffffffffffffffffff1673ffffffffffffffffffffffffffffffffffffffff16815260200190815260200160002081905550505b600073ffffffffffffffffffffffffffffffffffffffff168273ffffffffffffffffffffffffffffffffffffffff16036146ad57806002600082825403925050819055506146fa565b806000808473ffffffffffffffffffffffffffffffffffffffff1673ffffffffffffffffffffffffffffffffffffffff168152602001908152602001600020600082825401925050819055505b8173ffffffffffffffffffffffffffffffffffffffff168373ffffffffffffffffffffffffffffffffffffffff167fddf252ad1be2c89b69c2b068fc378daa952ba7f163c4a11628f55a4df523b3ef83604051614757919061518e565b60405180910390a3505050565b600080600090507a184f03e93ff9f4daa797ed6e38ed64bf6a1f01000000000000000083106147c2577a184f03e93ff9f4daa797ed6e38ed64bf6a1f01000000000000000083816147b8576147b761764d565b5b0492506040810190505b6d04ee2d6d415b85acef810000000083106147ff576d04ee2d6d415b85acef810000000083816147f5576147f461764d565b5b0492506020810190505b662386f26fc10000831061482e57662386f26fc1000083816148245761482361764d565b5b0492506010810190505b6305f5e1008310614857576305f5e100838161484d5761484c61764d565b5b0492506008810190505b612710831061487c5761271083816148725761487161764d565b5b0492506004810190505b6064831061489f57606483816148955761489461764d565b5b0492506002810190505b600a83106148ae576001810190505b80915050919050565b600073ffffffffffffffffffffffffffffffffffffffff168273ffffffffffffffffffffffffffffffffffffffff16036149295760006040517fec442f0500000000000000000000000000000000000000000000000000000000815260040161492091906158a2565b60405180910390fd5b6149356000838361453f565b5050565b6000806000604184510361497e5760008060006020870151925060408701519150606087015160001a905061497088828585614af9565b95509550955050505061498e565b60006002855160001b9250925092505b9250925092565b600060038111156149a9576149a8617711565b5b8260038111156149bc576149bb617711565b5b0315614af557600160038111156149d6576149d5617711565b5b8260038111156149e9576149e8617711565b5b03614a20576040517ff645eedf00000000000000000000000000000000000000000000000000000000815260040160405180910390fd5b60026003811115614a3457614a33617711565b5b826003811115614a4757614a46617711565b5b03614a8c578060001c6040517ffce698f7000000000000000000000000000000000000000000000000000000008152600401614a83919061518e565b60405180910390fd5b600380811115614a9f57614a9e617711565b5b826003811115614ab257614ab1617711565b5b03614af457806040517fd78bce0c000000000000000000000000000000000000000000000000000000008152600401614aeb9190615764565b60405180910390fd5b5b5050565b60008060007f7fffffffffffffffffffffffffffffff5d576e7357a4501ddfe92f46681b20a08460001c1115614b39576000600385925092509250614be3565b600060018888888860405160008152602001604052604051614b5e9493929190617740565b6020604051602081039080840390855afa158015614b80573d6000803e3d6000fd5b505050602060405103519050600073ffffffffffffffffffffffffffffffffffffffff168173ffffffffffffffffffffffffffffffffffffffff1603614bd457600060016000801b93509350935050614be3565b8060008060001b935093509350505b9450945094915050565b828054828255906000526020600020906007028101928215614cc95760005260206000209160070282015b82811115614cc857828260008201816000019081614c369190617119565b506001820154816001015560028201816002019081614c559190617119565b5060038201816003019081614c6a9190617119565b50600482015481600401556005820160009054906101000a900460ff168160050160006101000a81548160ff02191690831515021790555060068201816006019081614cb69190617119565b50505091600701919060070190614c18565b5b509050614cd69190614d1a565b5090565b508054614ce690615e19565b6000825580601f10614cf85750614d17565b601f016020900490600052602060002090810190614d169190614d95565b5b50565b5b80821115614d915760008082016000614d349190614cda565b6001820160009055600282016000614d4c9190614cda565b600382016000614d5c9190614cda565b60048201600090556005820160006101000a81549060ff0219169055600682016000614d889190614cda565b50600701614d1b565b5090565b5b80821115614dae576000816000905550600101614d96565b5090565b600081519050919050565b600082825260208201905092915050565b6000819050602082019050919050565b600081519050919050565b600082825260208201905092915050565b60005b83811015614e18578082015181840152602081019050614dfd565b60008484015250505050565b6000601f19601f8301169050919050565b6000614e4082614dde565b614e4a8185614de9565b9350614e5a818560208601614dfa565b614e6381614e24565b840191505092915050565b6000819050919050565b614e8181614e6e565b82525050565b60008115159050919050565b614e9c81614e87565b82525050565b600060e0830160008301518482036000860152614ebf8282614e35565b9150506020830151614ed46020860182614e78565b5060408301518482036040860152614eec8282614e35565b91505060608301518482036060860152614f068282614e35565b9150506080830151614f1b6080860182614e78565b5060a0830151614f2e60a0860182614e93565b5060c083015184820360c0860152614f468282614e35565b9150508091505092915050565b6000614f5f8383614ea2565b905092915050565b6000602082019050919050565b6000614f7f82614db2565b614f898185614dbd565b935083602082028501614f9b85614dce565b8060005b85811015614fd75784840389528151614fb88582614f53565b9450614fc383614f67565b925060208a01995050600181019050614f9f565b50829750879550505050505092915050565b600060208201905081810360008301526150038184614f74565b905092915050565b600082825260208201905092915050565b600061502782614dde565b615031818561500b565b9350615041818560208601614dfa565b61504a81614e24565b840191505092915050565b6000602082019050818103600083015261506f818461501c565b905092915050565b6000604051905090565b600080fd5b600080fd5b600073ffffffffffffffffffffffffffffffffffffffff82169050919050565b60006150b68261508b565b9050919050565b6150c6816150ab565b81146150d157600080fd5b50565b6000813590506150e3816150bd565b92915050565b6150f281614e6e565b81146150fd57600080fd5b50565b60008135905061510f816150e9565b92915050565b6000806040838503121561512c5761512b615081565b5b600061513a858286016150d4565b925050602061514b85828601615100565b9150509250929050565b61515e81614e87565b82525050565b60006020820190506151796000830184615155565b92915050565b61518881614e6e565b82525050565b60006020820190506151a3600083018461517f565b92915050565b600081519050919050565b600082825260208201905092915050565b6000819050602082019050919050565b600082825260208201905092915050565b60006151f182614db2565b6151fb81856151d5565b93508360208202850161520d85614dce565b8060005b85811015615249578484038952815161522a8582614f53565b945061523583614f67565b925060208a01995050600181019050615211565b50829750879550505050505092915050565b600060408301600083015184820360008601526152788282614e35565b9150506020830151848203602086015261529282826151e6565b9150508091505092915050565b60006152ab838361525b565b905092915050565b6000602082019050919050565b60006152cb826151a9565b6152d581856151b4565b9350836020820285016152e7856151c5565b8060005b858110156153235784840389528151615304858261529f565b945061530f836152b3565b925060208a019950506001810190506152eb565b50829750879550505050505092915050565b6000602082019050818103600083015261534f81846152c0565b905092915050565b600080fd5b600080fd5b7f4e487b7100000000000000000000000000000000000000000000000000000000600052604160045260246000fd5b61539982614e24565b810181811067ffffffffffffffff821117156153b8576153b7615361565b5b80604052505050565b60006153cb615077565b90506153d78282615390565b919050565b600067ffffffffffffffff8211156153f7576153f6615361565b5b61540082614e24565b9050602081019050919050565b82818337600083830152505050565b600061542f61542a846153dc565b6153c1565b90508281526020810184848401111561544b5761544a61535c565b5b61545684828561540d565b509392505050565b600082601f83011261547357615472615357565b5b813561548384826020860161541c565b91505092915050565b6000602082840312156154a2576154a1615081565b5b600082013567ffffffffffffffff8111156154c0576154bf615086565b5b6154cc8482850161545e565b91505092915050565b600060e08201905081810360008301526154ef818a61501c565b90506154fe602083018961517f565b8181036040830152615510818861501c565b90508181036060830152615524818761501c565b9050615533608083018661517f565b61554060a0830185615155565b81810360c0830152615552818461501c565b905098975050505050505050565b60008060006060848603121561557957615578615081565b5b6000615587868287016150d4565b9350506020615598868287016150d4565b92505060406155a986828701615100565b9150509250925092565b600060ff82169050919050565b6155c9816155b3565b82525050565b60006020820190506155e460008301846155c0565b92915050565b600060208284031215615600576155ff615081565b5b600061560e84828501615100565b91505092915050565b60006080820190508181036000830152615631818761501c565b9050615640602083018661517f565b8181036040830152615652818561501c565b90506156616060830184615155565b95945050505050565b60008060008060008060c0878903121561568757615686615081565b5b600061569589828a016150d4565b965050602087013567ffffffffffffffff8111156156b6576156b5615086565b5b6156c289828a0161545e565b955050604087013567ffffffffffffffff8111156156e3576156e2615086565b5b6156ef89828a0161545e565b945050606087013567ffffffffffffffff8111156157105761570f615086565b5b61571c89828a0161545e565b935050608061572d89828a01615100565b92505060a061573e89828a01615100565b9150509295509295509295565b6000819050919050565b61575e8161574b565b82525050565b60006020820190506157796000830184615755565b92915050565b60008060006060848603121561579857615797615081565b5b600084013567ffffffffffffffff8111156157b6576157b5615086565b5b6157c28682870161545e565b93505060206157d386828701615100565b925050604084013567ffffffffffffffff8111156157f4576157f3615086565b5b6158008682870161545e565b9150509250925092565b6000602082840312156158205761581f615081565b5b600061582e848285016150d4565b91505092915050565b6000806040838503121561584e5761584d615081565b5b600061585c858286016150d4565b925050602083013567ffffffffffffffff81111561587d5761587c615086565b5b6158898582860161545e565b9150509250929050565b61589c816150ab565b82525050565b60006020820190506158b76000830184615893565b92915050565b600080604083850312156158d4576158d3615081565b5b600083013567ffffffffffffffff8111156158f2576158f1615086565b5b6158fe8582860161545e565b925050602061590f85828601615100565b9150509250929050565b600067ffffffffffffffff82111561593457615933615361565b5b602082029050602081019050919050565b600080fd5b600061595d61595884615919565b6153c1565b905080838252602082019050602084028301858111156159805761597f615945565b5b835b818110156159c757803567ffffffffffffffff8111156159a5576159a4615357565b5b8086016159b2898261545e565b85526020850194505050602081019050615982565b5050509392505050565b600082601f8301126159e6576159e5615357565b5b81356159f684826020860161594a565b91505092915050565b600060208284031215615a1557615a14615081565b5b600082013567ffffffffffffffff811115615a3357615a32615086565b5b615a3f848285016159d1565b91505092915050565b600080600080600060a08688031215615a6457615a63615081565b5b600086013567ffffffffffffffff811115615a8257615a81615086565b5b615a8e8882890161545e565b9550506020615a9f88828901615100565b945050604086013567ffffffffffffffff811115615ac057615abf615086565b5b615acc8882890161545e565b935050606086013567ffffffffffffffff811115615aed57615aec615086565b5b615af98882890161545e565b925050608086013567ffffffffffffffff811115615b1a57615b19615086565b5b615b268882890161545e565b9150509295509295909350565b600081519050919050565b600082825260208201905092915050565b6000819050602082019050919050565b60006080830160008301518482036000860152615b7c8282614e35565b9150506020830151615b916020860182614e78565b5060408301518482036040860152615ba98282614e35565b9150506060830151615bbe6060860182614e93565b508091505092915050565b6000615bd58383615b5f565b905092915050565b6000602082019050919050565b6000615bf582615b33565b615bff8185615b3e565b935083602082028501615c1185615b4f565b8060005b85811015615c4d5784840389528151615c2e8582615bc9565b9450615c3983615bdd565b925060208a01995050600181019050615c15565b50829750879550505050505092915050565b60006020820190508181036000830152615c798184615bea565b905092915050565b615c8a8161574b565b8114615c9557600080fd5b50565b600081359050615ca781615c81565b92915050565b600067ffffffffffffffff821115615cc857615cc7615361565b5b615cd182614e24565b9050602081019050919050565b6000615cf1615cec84615cad565b6153c1565b905082815260208101848484011115615d0d57615d0c61535c565b5b615d1884828561540d565b509392505050565b600082601f830112615d3557615d34615357565b5b8135615d45848260208601615cde565b91505092915050565b60008060408385031215615d6557615d64615081565b5b6000615d7385828601615c98565b925050602083013567ffffffffffffffff811115615d9457615d93615086565b5b615da085828601615d20565b9150509250929050565b60008060408385031215615dc157615dc0615081565b5b6000615dcf858286016150d4565b9250506020615de0858286016150d4565b9150509250929050565b7f4e487b7100000000000000000000000000000000000000000000000000000000600052602260045260246000fd5b60006002820490506001821680615e3157607f821691505b602082108103615e4457615e43615dea565b5b50919050565b7f596f7520617265206e6f7420746865206f776e65722100000000000000000000600082015250565b6000615e8060168361500b565b9150615e8b82615e4a565b602082019050919050565b60006020820190508181036000830152615eaf81615e73565b9050919050565b7f526567697374726174696f6e2068617320616c7265616479207374617274656460008201527f2e00000000000000000000000000000000000000000000000000000000000000602082015250565b6000615f1260218361500b565b9150615f1d82615eb6565b604082019050919050565b60006020820190508181036000830152615f4181615f05565b9050919050565b7f43616e6e6f7420737461727420726567697374726174696f6e2061667465722060008201527f766f74696e672068617320626567756e2e000000000000000000000000000000602082015250565b6000615fa460318361500b565b9150615faf82615f48565b604082019050919050565b60006020820190508181036000830152615fd381615f97565b9050919050565b7f526567697374726174696f6e20706572696f6420686173206e6f74207374617260008201527f7465642e00000000000000000000000000000000000000000000000000000000602082015250565b600061603660248361500b565b915061604182615fda565b604082019050919050565b6000602082019050818103600083015261606581616029565b9050919050565b7f566f74696e672068617320616c726561647920737461727465642e0000000000600082015250565b60006160a2601b8361500b565b91506160ad8261606c565b602082019050919050565b600060208201905081810360008301526160d181616095565b9050919050565b7f4e487b7100000000000000000000000000000000000000000000000000000000600052601160045260246000fd5b600061611282614e6e565b915061611d83614e6e565b925082820261612b81614e6e565b91508282048414831517616142576161416160d8565b5b5092915050565b600061615482614e6e565b915061615f83614e6e565b9250828201905080821115616177576161766160d8565b5b92915050565b600081905092915050565b600061619382614dde565b61619d818561617d565b93506161ad818560208601614dfa565b80840191505092915050565b60006161c58284616188565b915081905092915050565b7f19457468657265756d205369676e6564204d6573736167653a0a000000000000600082015250565b6000616206601a8361617d565b9150616211826161d0565b601a82019050919050565b7f446f6d61696e3a20000000000000000000000000000000000000000000000000600082015250565b600061625260088361617d565b915061625d8261621c565b600882019050919050565b7f0a00000000000000000000000000000000000000000000000000000000000000600082015250565b600061629e60018361617d565b91506162a982616268565b600182019050919050565b7f416464726573733a200000000000000000000000000000000000000000000000600082015250565b60006162ea60098361617d565b91506162f5826162b4565b600982019050919050565b7f53746174656d656e743a20000000000000000000000000000000000000000000600082015250565b6000616336600b8361617d565b915061634182616300565b600b82019050919050565b7f5552493a20000000000000000000000000000000000000000000000000000000600082015250565b600061638260058361617d565b915061638d8261634c565b600582019050919050565b7f56657273696f6e3a20310a000000000000000000000000000000000000000000600082015250565b60006163ce600b8361617d565b91506163d982616398565b600b82019050919050565b7f436861696e2049443a2000000000000000000000000000000000000000000000600082015250565b600061641a600a8361617d565b9150616425826163e4565b600a82019050919050565b7f4e6f6e63653a2000000000000000000000000000000000000000000000000000600082015250565b600061646660078361617d565b915061647182616430565b600782019050919050565b6000616487826161f9565b915061649282616245565b915061649e8289616188565b91506164a982616291565b91506164b4826162dd565b91506164c08288616188565b91506164cb82616291565b91506164d682616329565b91506164e28287616188565b91506164ed82616291565b91506164f882616375565b91506165048286616188565b915061650f82616291565b915061651a826163c1565b91506165258261640d565b91506165318285616188565b915061653c82616291565b915061654782616459565b91506165538284616188565b9150819050979650505050505050565b7f43616e6e6f7420726567697374657220647572696e6720766f74696e6720706560008201527f72696f642e000000000000000000000000000000000000000000000000000000602082015250565b60006165bf60258361500b565b91506165ca82616563565b604082019050919050565b600060208201905081810360008301526165ee816165b2565b9050919050565b7f566f74657220616c726561647920657869737473210000000000000000000000600082015250565b600061662b60158361500b565b9150616636826165f5565b602082019050919050565b6000602082019050818103600083015261665a8161661e565b9050919050565b7f4163636f756e7420616c7265616479207265676973746572656420617320766f60008201527f7465720000000000000000000000000000000000000000000000000000000000602082015250565b60006166bd60238361500b565b91506166c882616661565b604082019050919050565b600060208201905081810360008301526166ec816166b0565b9050919050565b60008190508160005260206000209050919050565b60006020601f8301049050919050565b600082821b905092915050565b6000600883026167557fffffffffffffffffffffffffffffffffffffffffffffffffffffffffffffffff82616718565b61675f8683616718565b95508019841693508086168417925050509392505050565b6000819050919050565b600061679c61679761679284614e6e565b616777565b614e6e565b9050919050565b6000819050919050565b6167b683616781565b6167ca6167c2826167a3565b848454616725565b825550505050565b600090565b6167df6167d2565b6167ea8184846167ad565b505050565b5b8181101561680e576168036000826167d7565b6001810190506167f0565b5050565b601f82111561685357616824816166f3565b61682d84616708565b8101602085101561683c578190505b61685061684885616708565b8301826167ef565b50505b505050565b600082821c905092915050565b600061687660001984600802616858565b1980831691505092915050565b600061688f8383616865565b9150826002028217905092915050565b6168a882614dde565b67ffffffffffffffff8111156168c1576168c0615361565b5b6168cb8254615e19565b6168d6828285616812565b600060209050601f83116001811461690957600084156168f7578287015190505b6169018582616883565b865550616969565b601f198416616917866166f3565b60005b8281101561693f5784890151825560018201915060208501945060208101905061691a565b8683101561695c5784890151616958601f891682616865565b8355505b6001600288020188555050505b505050505050565b7f43616e64696461746520616c7265616479207665726966696564210000000000600082015250565b60006169a7601b8361500b565b91506169b282616971565b602082019050919050565b600060208201905081810360008301526169d68161699a565b9050919050565b7f4e487b7100000000000000000000000000000000000000000000000000000000600052603260045260246000fd5b60008154616a1981615e19565b616a23818661617d565b94506001821660008114616a3e5760018114616a5357616a86565b60ff1983168652811515820286019350616a86565b616a5c856166f3565b60005b83811015616a7e57815481890152600182019150602081019050616a5f565b838801955050505b50505092915050565b6000616a9b8284616a0c565b915081905092915050565b7f526567697374726174696f6e20706572696f64206973207374696c6c2061637460008201527f6976652e00000000000000000000000000000000000000000000000000000000602082015250565b6000616b0260248361500b565b9150616b0d82616aa6565b604082019050919050565b60006020820190508181036000830152616b3181616af5565b9050919050565b7f566f74696e6720686173206e6f742073746172746564207965742e0000000000600082015250565b6000616b6e601b8361500b565b9150616b7982616b38565b602082019050919050565b60006020820190508181036000830152616b9d81616b61565b9050919050565b7f436865636b696e6720706f736974696f6e2076616c6964697479000000000000600082015250565b6000616bda601a8361500b565b9150616be582616ba4565b602082019050919050565b60006080820190508181036000830152616c0981616bcd565b9050616c186020830186615893565b8181036040830152616c2a818561501c565b9050616c396060830184615155565b949350505050565b7f496e76616c696420706f736974696f6e2e000000000000000000000000000000600082015250565b6000616c7760118361500b565b9150616c8282616c41565b602082019050919050565b60006020820190508181036000830152616ca681616c6a565b9050919050565b7f436865636b696e672063616e64696461746520696e6465782076616c6964697460008201527f7900000000000000000000000000000000000000000000000000000000000000602082015250565b6000616d0960218361500b565b9150616d1482616cad565b604082019050919050565b60006080820190508181036000830152616d3881616cfc565b9050616d476020830186615893565b8181036040830152616d59818561501c565b9050616d686060830184615155565b949350505050565b7f496e76616c69642063616e64696461746520696e6465782e0000000000000000600082015250565b6000616da660188361500b565b9150616db182616d70565b602082019050919050565b60006020820190508181036000830152616dd581616d99565b9050919050565b7f436865636b696e6720696620616c726561647920766f74656420666f7220706f60008201527f736974696f6e0000000000000000000000000000000000000000000000000000602082015250565b6000616e3860268361500b565b9150616e4382616ddc565b604082019050919050565b60006080820190508181036000830152616e6781616e2b565b9050616e766020830186615893565b8181036040830152616e88818561501c565b9050616e976060830184615155565b949350505050565b7f596f75206861766520616c726561647920766f74656420666f7220746869732060008201527f706f736974696f6e2e0000000000000000000000000000000000000000000000602082015250565b6000616efb60298361500b565b9150616f0682616e9f565b604082019050919050565b60006020820190508181036000830152616f2a81616eee565b9050919050565b60008154616f3e81615e19565b616f48818661500b565b94506001821660008114616f635760018114616f7957616fac565b60ff198316865281151560200286019350616fac565b616f82856166f3565b60005b83811015616fa457815481890152600182019150602081019050616f85565b808801955050505b50505092915050565b60006060820190508181036000830152616fcf8186616f31565b90508181036020830152616fe3818561501c565b9050616ff2604083018461517f565b949350505050565b7f566f7465207375636365737366756c0000000000000000000000000000000000600082015250565b6000617030600f8361500b565b915061703b82616ffa565b602082019050919050565b6000608082019050818103600083015261705f81617023565b905061706e6020830186615893565b8181036040830152617080818561501c565b905061708f6060830184615155565b949350505050565b7f506f736974696f6e20616c726561647920657869737473210000000000000000600082015250565b60006170cd60188361500b565b91506170d882617097565b602082019050919050565b600060208201905081810360008301526170fc816170c0565b9050919050565b60008154905061711281615e19565b9050919050565b8181036171275750506171ff565b61713082617103565b67ffffffffffffffff81111561714957617148615361565b5b6171538254615e19565b61715e828285616812565b6000601f83116001811461718d576000841561717b578287015490505b6171858582616883565b8655506171f8565b601f19841661719b876166f3565b96506171a6866166f3565b60005b828110156171ce578489015482556001820191506001850194506020810190506171a9565b868310156171eb57848901546171e7601f891682616865565b8355505b6001600288020188555050505b5050505050505b565b7f43616e64696461746520646f6573206e6f742065786973742100000000000000600082015250565b600061723760198361500b565b915061724282617201565b602082019050919050565b600060208201905081810360008301526172668161722a565b9050919050565b600061727882614e6e565b915061728383614e6e565b925082820390508181111561729b5761729a6160d8565b5b92915050565b7f4e487b7100000000000000000000000000000000000000000000000000000000600052603160045260246000fd5b7f43616e64696461746520616c7265616479206578697374732100000000000000600082015250565b600061730660198361500b565b9150617311826172d0565b602082019050919050565b60006020820190508181036000830152617335816172f9565b9050919050565b7f596f75206d7573742062652061207265676973746572656420766f7465722100600082015250565b6000617372601f8361500b565b915061737d8261733c565b602082019050919050565b600060208201905081810360008301526173a181617365565b9050919050565b7f506f736974696f6e20646f6573206e6f74206578697374210000000000000000600082015250565b60006173de60188361500b565b91506173e9826173a8565b602082019050919050565b6000602082019050818103600083015261740d816173d1565b9050919050565b6000606082019050617429600083018661517f565b818103602083015261743b818561501c565b9050818103604083015261744f818461501c565b9050949350505050565b7f566f74696e6720686173206e6f7420737461727465642e000000000000000000600082015250565b600061748f60178361500b565b915061749a82617459565b602082019050919050565b600060208201905081810360008301526174be81617482565b9050919050565b7f566f74696e6720706572696f6420686173206e6f7420656e6465642e00000000600082015250565b60006174fb601c8361500b565b9150617506826174c5565b602082019050919050565b6000602082019050818103600083015261752a816174ee565b9050919050565b7f19457468657265756d205369676e6564204d6573736167653a0a333200000000600082015250565b6000617567601c8361617d565b915061757282617531565b601c82019050919050565b6000819050919050565b6175986175938261574b565b61757d565b82525050565b60006175a98261755a565b91506175b58284617587565b60208201915081905092915050565b60006060820190506175d96000830186615893565b6175e6602083018561517f565b6175f3604083018461517f565b949350505050565b600061760682614e6e565b915060008203617619576176186160d8565b5b600182039050919050565b6000604082019050617639600083018561517f565b617646602083018461517f565b9392505050565b7f4e487b7100000000000000000000000000000000000000000000000000000000600052601260045260246000fd5b7f546f6b656e206c696d6974206578636565646564210000000000000000000000600082015250565b60006176b260158361500b565b91506176bd8261767c565b602082019050919050565b600060208201905081810360008301526176e1816176a5565b9050919050565b60006040820190506176fd6000830185615893565b61770a602083018461517f565b9392505050565b7f4e487b7100000000000000000000000000000000000000000000000000000000600052602160045260246000fd5b60006080820190506177556000830187615755565b61776260208301866155c0565b61776f6040830185615755565b61777c6060830184615755565b9594505050505056fea2646970667358221220a059adfe43352071b574c0cfa93277a27d8dda519f254aae0623aab25889212164736f6c634300081b0033",
  "linkReferences": {},
  "deployedLinkReferences": {}
}