{
  "_format": "hh-sol-artifact-1",
  "contractName": "Voting",
  "sourceName": "contracts/Voting.sol",
  "abi": [
    {
      "inputs": [],
      "stateMutability": "nonpayable",
      "type": "constructor"
    },
    {
      "inputs": [],
      "name": "ECDSAInvalidSignature",
      "type": "error"
    },
    {
      "inputs": [
        {
          "internalType": "uint256",
          "name": "length",
          "type": "uint256"
        }
      ],
      "name": "ECDSAInvalidSignatureLength",
      "type": "error"
    },
    {
      "inputs": [
        {
          "internalType": "bytes32",
          "name": "s",
          "type": "bytes32"
        }
      ],
      "name": "ECDSAInvalidSignatureS",
      "type": "error"
    },
    {
      "inputs": [
        {
          "internalType": "address",
          "name": "spender",
          "type": "address"
        },
        {
          "internalType": "uint256",
          "name": "allowance",
          "type": "uint256"
        },
        {
          "internalType": "uint256",
          "name": "needed",
          "type": "uint256"
        }
      ],
      "name": "ERC20InsufficientAllowance",
      "type": "error"
    },
    {
      "inputs": [
        {
          "internalType": "address",
          "name": "sender",
          "type": "address"
        },
        {
          "internalType": "uint256",
          "name": "balance",
          "type": "uint256"
        },
        {
          "internalType": "uint256",
          "name": "needed",
          "type": "uint256"
        }
      ],
      "name": "ERC20InsufficientBalance",
      "type": "error"
    },
    {
      "inputs": [
        {
          "internalType": "address",
          "name": "approver",
          "type": "address"
        }
      ],
      "name": "ERC20InvalidApprover",
      "type": "error"
    },
    {
      "inputs": [
        {
          "internalType": "address",
          "name": "receiver",
          "type": "address"
        }
      ],
      "name": "ERC20InvalidReceiver",
      "type": "error"
    },
    {
      "inputs": [
        {
          "internalType": "address",
          "name": "sender",
          "type": "address"
        }
      ],
      "name": "ERC20InvalidSender",
      "type": "error"
    },
    {
      "inputs": [
        {
          "internalType": "address",
          "name": "spender",
          "type": "address"
        }
      ],
      "name": "ERC20InvalidSpender",
      "type": "error"
    },
    {
      "inputs": [
        {
          "internalType": "uint256",
          "name": "value",
          "type": "uint256"
        },
        {
          "internalType": "uint256",
          "name": "length",
          "type": "uint256"
        }
      ],
      "name": "StringsInsufficientHexLength",
      "type": "error"
    },
    {
      "anonymous": false,
      "inputs": [
        {
          "indexed": true,
          "internalType": "address",
          "name": "owner",
          "type": "address"
        },
        {
          "indexed": true,
          "internalType": "address",
          "name": "spender",
          "type": "address"
        },
        {
          "indexed": false,
          "internalType": "uint256",
          "name": "value",
          "type": "uint256"
        }
      ],
      "name": "Approval",
      "type": "event"
    },
    {
      "anonymous": false,
      "inputs": [
        {
          "indexed": true,
          "internalType": "string",
          "name": "_names",
          "type": "string"
        },
        {
          "indexed": false,
          "internalType": "uint256",
          "name": "_age",
          "type": "uint256"
        },
        {
          "indexed": true,
          "internalType": "string",
          "name": "_idNumber",
          "type": "string"
        },
        {
          "indexed": false,
          "internalType": "string",
          "name": "_party",
          "type": "string"
        },
        {
          "indexed": false,
          "internalType": "string",
          "name": "_position",
          "type": "string"
        }
      ],
      "name": "CandidateRegistrationSuccess",
      "type": "event"
    },
    {
      "anonymous": false,
      "inputs": [
        {
          "indexed": false,
          "internalType": "address",
          "name": "_to",
          "type": "address"
        },
        {
          "indexed": false,
          "internalType": "uint256",
          "name": "_amount",
          "type": "uint256"
        }
      ],
      "name": "MintSuccess",
      "type": "event"
    },
    {
      "anonymous": false,
      "inputs": [
        {
          "indexed": false,
          "internalType": "string",
          "name": "positionName",
          "type": "string"
        }
      ],
      "name": "PositionAdded",
      "type": "event"
    },
    {
      "anonymous": false,
      "inputs": [],
      "name": "RegistrationEnded",
      "type": "event"
    },
    {
      "anonymous": false,
      "inputs": [],
      "name": "RegistrationStarted",
      "type": "event"
    },
    {
      "anonymous": false,
      "inputs": [
        {
          "indexed": true,
          "internalType": "string",
          "name": "_idNumber",
          "type": "string"
        }
      ],
      "name": "RejectCandidateSuccess",
      "type": "event"
    },
    {
      "anonymous": false,
      "inputs": [
        {
          "indexed": true,
          "internalType": "address",
          "name": "from",
          "type": "address"
        },
        {
          "indexed": true,
          "internalType": "address",
          "name": "to",
          "type": "address"
        },
        {
          "indexed": false,
          "internalType": "uint256",
          "name": "value",
          "type": "uint256"
        }
      ],
      "name": "Transfer",
      "type": "event"
    },
    {
      "anonymous": false,
      "inputs": [
        {
          "indexed": true,
          "internalType": "string",
          "name": "_names",
          "type": "string"
        },
        {
          "indexed": true,
          "internalType": "string",
          "name": "_idNumber",
          "type": "string"
        }
      ],
      "name": "VerifyCandidateSuccess",
      "type": "event"
    },
    {
      "anonymous": false,
      "inputs": [
        {
          "indexed": true,
          "internalType": "address",
          "name": "voter",
          "type": "address"
        },
        {
          "indexed": false,
          "internalType": "string",
          "name": "_idNumber",
          "type": "string"
        },
        {
          "indexed": false,
          "internalType": "string",
          "name": "position",
          "type": "string"
        },
        {
          "indexed": false,
          "internalType": "uint256",
          "name": "candidateIndex",
          "type": "uint256"
        }
      ],
      "name": "VotedSuccess",
      "type": "event"
    },
    {
      "anonymous": false,
      "inputs": [
        {
          "indexed": true,
          "internalType": "string",
          "name": "_names",
          "type": "string"
        },
        {
          "indexed": false,
          "internalType": "uint256",
          "name": "_age",
          "type": "uint256"
        },
        {
          "indexed": true,
          "internalType": "string",
          "name": "_idNumber",
          "type": "string"
        }
      ],
      "name": "VoterRegistrationSuccess",
      "type": "event"
    },
    {
      "anonymous": false,
      "inputs": [],
      "name": "VotingEnded",
      "type": "event"
    },
    {
      "anonymous": false,
      "inputs": [],
      "name": "VotingStarted",
      "type": "event"
    },
    {
      "inputs": [],
      "name": "MAX_SUPPLY",
      "outputs": [
        {
          "internalType": "uint256",
          "name": "",
          "type": "uint256"
        }
      ],
      "stateMutability": "view",
      "type": "function"
    },
    {
      "inputs": [],
      "name": "REGISTER_AS_VOTER",
      "outputs": [
        {
          "internalType": "uint256",
          "name": "",
          "type": "uint256"
        }
      ],
      "stateMutability": "view",
      "type": "function"
    },
    {
      "inputs": [],
      "name": "VERIFY_CANDIDATE",
      "outputs": [
        {
          "internalType": "uint256",
          "name": "",
          "type": "uint256"
        }
      ],
      "stateMutability": "view",
      "type": "function"
    },
    {
      "inputs": [
        {
          "internalType": "string[]",
          "name": "_pNames",
          "type": "string[]"
        }
      ],
      "name": "addPositions",
      "outputs": [],
      "stateMutability": "nonpayable",
      "type": "function"
    },
    {
      "inputs": [
        {
          "internalType": "address",
          "name": "owner",
          "type": "address"
        },
        {
          "internalType": "address",
          "name": "spender",
          "type": "address"
        }
      ],
      "name": "allowance",
      "outputs": [
        {
          "internalType": "uint256",
          "name": "",
          "type": "uint256"
        }
      ],
      "stateMutability": "view",
      "type": "function"
    },
    {
      "inputs": [
        {
          "internalType": "address",
          "name": "spender",
          "type": "address"
        },
        {
          "internalType": "uint256",
          "name": "value",
          "type": "uint256"
        }
      ],
      "name": "approve",
      "outputs": [
        {
          "internalType": "bool",
          "name": "",
          "type": "bool"
        }
      ],
      "stateMutability": "nonpayable",
      "type": "function"
    },
    {
      "inputs": [
        {
          "internalType": "address",
          "name": "account",
          "type": "address"
        }
      ],
      "name": "balanceOf",
      "outputs": [
        {
          "internalType": "uint256",
          "name": "",
          "type": "uint256"
        }
      ],
      "stateMutability": "view",
      "type": "function"
    },
    {
      "inputs": [
        {
          "internalType": "string",
          "name": "",
          "type": "string"
        }
      ],
      "name": "candidateObject",
      "outputs": [
        {
          "internalType": "string",
          "name": "names",
          "type": "string"
        },
        {
          "internalType": "uint256",
          "name": "age",
          "type": "uint256"
        },
        {
          "internalType": "string",
          "name": "idNumber",
          "type": "string"
        },
        {
          "internalType": "string",
          "name": "party",
          "type": "string"
        },
        {
          "internalType": "uint256",
          "name": "votes",
          "type": "uint256"
        },
        {
          "internalType": "bool",
          "name": "verified",
          "type": "bool"
        },
        {
          "internalType": "string",
          "name": "position",
          "type": "string"
        }
      ],
      "stateMutability": "view",
      "type": "function"
    },
    {
      "inputs": [
        {
          "internalType": "address",
          "name": "userAddress",
          "type": "address"
        },
        {
          "internalType": "string",
          "name": "domain",
          "type": "string"
        },
        {
          "internalType": "string",
          "name": "statement",
          "type": "string"
        },
        {
          "internalType": "string",
          "name": "uri",
          "type": "string"
        },
        {
          "internalType": "uint256",
          "name": "chainId",
          "type": "uint256"
        },
        {
          "internalType": "uint256",
          "name": "nonce",
          "type": "uint256"
        }
      ],
      "name": "createMessageHash",
      "outputs": [
        {
          "internalType": "bytes32",
          "name": "",
          "type": "bytes32"
        }
      ],
      "stateMutability": "pure",
      "type": "function"
    },
    {
      "inputs": [],
      "name": "decimals",
      "outputs": [
        {
          "internalType": "uint8",
          "name": "",
          "type": "uint8"
        }
      ],
      "stateMutability": "view",
      "type": "function"
    },
    {
      "inputs": [
        {
          "internalType": "uint256",
          "name": "votingDays",
          "type": "uint256"
        }
      ],
      "name": "endRegistrationAndStartVoting",
      "outputs": [],
      "stateMutability": "nonpayable",
      "type": "function"
    },
    {
      "inputs": [],
      "name": "endVoting",
      "outputs": [],
      "stateMutability": "nonpayable",
      "type": "function"
    },
    {
      "inputs": [],
      "name": "getAllPositions",
      "outputs": [
        {
          "components": [
            {
              "internalType": "string",
              "name": "pName",
              "type": "string"
            },
            {
              "components": [
                {
                  "internalType": "string",
                  "name": "names",
                  "type": "string"
                },
                {
                  "internalType": "uint256",
                  "name": "age",
                  "type": "uint256"
                },
                {
                  "internalType": "string",
                  "name": "idNumber",
                  "type": "string"
                },
                {
                  "internalType": "string",
                  "name": "party",
                  "type": "string"
                },
                {
                  "internalType": "uint256",
                  "name": "votes",
                  "type": "uint256"
                },
                {
                  "internalType": "bool",
                  "name": "verified",
                  "type": "bool"
                },
                {
                  "internalType": "string",
                  "name": "position",
                  "type": "string"
                }
              ],
              "internalType": "struct Voting.Candidate[]",
              "name": "candidates",
              "type": "tuple[]"
            }
          ],
          "internalType": "struct Voting.Position[]",
          "name": "",
          "type": "tuple[]"
        }
      ],
      "stateMutability": "view",
      "type": "function"
    },
    {
      "inputs": [],
      "name": "getCandidates",
      "outputs": [
        {
          "components": [
            {
              "internalType": "string",
              "name": "names",
              "type": "string"
            },
            {
              "internalType": "uint256",
              "name": "age",
              "type": "uint256"
            },
            {
              "internalType": "string",
              "name": "idNumber",
              "type": "string"
            },
            {
              "internalType": "string",
              "name": "party",
              "type": "string"
            },
            {
              "internalType": "uint256",
              "name": "votes",
              "type": "uint256"
            },
            {
              "internalType": "bool",
              "name": "verified",
              "type": "bool"
            },
            {
              "internalType": "string",
              "name": "position",
              "type": "string"
            }
          ],
          "internalType": "struct Voting.Candidate[]",
          "name": "",
          "type": "tuple[]"
        }
      ],
      "stateMutability": "view",
      "type": "function"
    },
    {
      "inputs": [],
      "name": "getPositionCount",
      "outputs": [
        {
          "internalType": "uint256",
          "name": "",
          "type": "uint256"
        }
      ],
      "stateMutability": "view",
      "type": "function"
    },
    {
      "inputs": [],
      "name": "getVoters",
      "outputs": [
        {
          "components": [
            {
              "internalType": "string",
              "name": "names",
              "type": "string"
            },
            {
              "internalType": "uint256",
              "name": "age",
              "type": "uint256"
            },
            {
              "internalType": "string",
              "name": "idNumber",
              "type": "string"
            },
            {
              "internalType": "bool",
              "name": "voted",
              "type": "bool"
            }
          ],
          "internalType": "struct Voting.Voter[]",
          "name": "",
          "type": "tuple[]"
        }
      ],
      "stateMutability": "view",
      "type": "function"
    },
    {
      "inputs": [],
      "name": "getVotingEndTime",
      "outputs": [
        {
          "internalType": "uint256",
          "name": "",
          "type": "uint256"
        }
      ],
      "stateMutability": "view",
      "type": "function"
    },
    {
      "inputs": [],
      "name": "hasVotingEnded",
      "outputs": [
        {
          "internalType": "bool",
          "name": "",
          "type": "bool"
        }
      ],
      "stateMutability": "view",
      "type": "function"
    },
    {
      "inputs": [
        {
          "internalType": "address",
          "name": "_account",
          "type": "address"
        }
      ],
      "name": "isVoterRegistered",
      "outputs": [
        {
          "internalType": "bool",
          "name": "",
          "type": "bool"
        }
      ],
      "stateMutability": "view",
      "type": "function"
    },
    {
      "inputs": [
        {
          "internalType": "uint256",
          "name": "",
          "type": "uint256"
        }
      ],
      "name": "listOfCandidates",
      "outputs": [
        {
          "internalType": "string",
          "name": "names",
          "type": "string"
        },
        {
          "internalType": "uint256",
          "name": "age",
          "type": "uint256"
        },
        {
          "internalType": "string",
          "name": "idNumber",
          "type": "string"
        },
        {
          "internalType": "string",
          "name": "party",
          "type": "string"
        },
        {
          "internalType": "uint256",
          "name": "votes",
          "type": "uint256"
        },
        {
          "internalType": "bool",
          "name": "verified",
          "type": "bool"
        },
        {
          "internalType": "string",
          "name": "position",
          "type": "string"
        }
      ],
      "stateMutability": "view",
      "type": "function"
    },
    {
      "inputs": [
        {
          "internalType": "uint256",
          "name": "",
          "type": "uint256"
        }
      ],
      "name": "listOfPositions",
      "outputs": [
        {
          "internalType": "string",
          "name": "pName",
          "type": "string"
        }
      ],
      "stateMutability": "view",
      "type": "function"
    },
    {
      "inputs": [
        {
          "internalType": "uint256",
          "name": "",
          "type": "uint256"
        }
      ],
      "name": "listOfVoters",
      "outputs": [
        {
          "internalType": "string",
          "name": "names",
          "type": "string"
        },
        {
          "internalType": "uint256",
          "name": "age",
          "type": "uint256"
        },
        {
          "internalType": "string",
          "name": "idNumber",
          "type": "string"
        },
        {
          "internalType": "bool",
          "name": "voted",
          "type": "bool"
        }
      ],
      "stateMutability": "view",
      "type": "function"
    },
    {
      "inputs": [],
      "name": "name",
      "outputs": [
        {
          "internalType": "string",
          "name": "",
          "type": "string"
        }
      ],
      "stateMutability": "view",
      "type": "function"
    },
    {
      "inputs": [],
      "name": "owner",
      "outputs": [
        {
          "internalType": "address",
          "name": "",
          "type": "address"
        }
      ],
      "stateMutability": "view",
      "type": "function"
    },
    {
      "inputs": [
        {
          "internalType": "string",
          "name": "",
          "type": "string"
        }
      ],
      "name": "positions",
      "outputs": [
        {
          "internalType": "string",
          "name": "pName",
          "type": "string"
        }
      ],
      "stateMutability": "view",
      "type": "function"
    },
    {
      "inputs": [
        {
          "internalType": "string",
          "name": "_names",
          "type": "string"
        },
        {
          "internalType": "uint256",
          "name": "_age",
          "type": "uint256"
        },
        {
          "internalType": "string",
          "name": "_idNumber",
          "type": "string"
        },
        {
          "internalType": "string",
          "name": "_party",
          "type": "string"
        },
        {
          "internalType": "string",
          "name": "_position",
          "type": "string"
        }
      ],
      "name": "registerCandidate",
      "outputs": [],
      "stateMutability": "nonpayable",
      "type": "function"
    },
    {
      "inputs": [
        {
          "internalType": "string",
          "name": "_names",
          "type": "string"
        },
        {
          "internalType": "uint256",
          "name": "_age",
          "type": "uint256"
        },
        {
          "internalType": "string",
          "name": "_idNumber",
          "type": "string"
        }
      ],
      "name": "registerVoter",
      "outputs": [
        {
          "internalType": "bool",
          "name": "",
          "type": "bool"
        }
      ],
      "stateMutability": "nonpayable",
      "type": "function"
    },
    {
      "inputs": [],
      "name": "registrationStarted",
      "outputs": [
        {
          "internalType": "bool",
          "name": "",
          "type": "bool"
        }
      ],
      "stateMutability": "view",
      "type": "function"
    },
    {
      "inputs": [
        {
          "internalType": "string",
          "name": "_idNumber",
          "type": "string"
        }
      ],
      "name": "rejectCandidate",
      "outputs": [],
      "stateMutability": "nonpayable",
      "type": "function"
    },
    {
      "inputs": [],
      "name": "startRegistration",
      "outputs": [],
      "stateMutability": "nonpayable",
      "type": "function"
    },
    {
      "inputs": [],
      "name": "symbol",
      "outputs": [
        {
          "internalType": "string",
          "name": "",
          "type": "string"
        }
      ],
      "stateMutability": "view",
      "type": "function"
    },
    {
      "inputs": [],
      "name": "totalSupply",
      "outputs": [
        {
          "internalType": "uint256",
          "name": "",
          "type": "uint256"
        }
      ],
      "stateMutability": "view",
      "type": "function"
    },
    {
      "inputs": [
        {
          "internalType": "address",
          "name": "to",
          "type": "address"
        },
        {
          "internalType": "uint256",
          "name": "value",
          "type": "uint256"
        }
      ],
      "name": "transfer",
      "outputs": [
        {
          "internalType": "bool",
          "name": "",
          "type": "bool"
        }
      ],
      "stateMutability": "nonpayable",
      "type": "function"
    },
    {
      "inputs": [
        {
          "internalType": "address",
          "name": "from",
          "type": "address"
        },
        {
          "internalType": "address",
          "name": "to",
          "type": "address"
        },
        {
          "internalType": "uint256",
          "name": "value",
          "type": "uint256"
        }
      ],
      "name": "transferFrom",
      "outputs": [
        {
          "internalType": "bool",
          "name": "",
          "type": "bool"
        }
      ],
      "stateMutability": "nonpayable",
      "type": "function"
    },
    {
      "inputs": [
        {
          "internalType": "string",
          "name": "_idNumber",
          "type": "string"
        }
      ],
      "name": "verifyCandidate",
      "outputs": [],
      "stateMutability": "nonpayable",
      "type": "function"
    },
    {
      "inputs": [
        {
          "internalType": "bytes32",
          "name": "hash",
          "type": "bytes32"
        },
        {
          "internalType": "bytes",
          "name": "signature",
          "type": "bytes"
        }
      ],
      "name": "verifySignature",
      "outputs": [
        {
          "internalType": "bool",
          "name": "",
          "type": "bool"
        }
      ],
      "stateMutability": "view",
      "type": "function"
    },
    {
      "inputs": [
        {
          "internalType": "string",
          "name": "position",
          "type": "string"
        },
        {
          "internalType": "uint256",
          "name": "candidateIndex",
          "type": "uint256"
        }
      ],
      "name": "vote",
      "outputs": [],
      "stateMutability": "nonpayable",
      "type": "function"
    },
    {
      "inputs": [
        {
          "internalType": "string",
          "name": "",
          "type": "string"
        }
      ],
      "name": "voterObject",
      "outputs": [
        {
          "internalType": "string",
          "name": "names",
          "type": "string"
        },
        {
          "internalType": "uint256",
          "name": "age",
          "type": "uint256"
        },
        {
          "internalType": "string",
          "name": "idNumber",
          "type": "string"
        },
        {
          "internalType": "bool",
          "name": "voted",
          "type": "bool"
        }
      ],
      "stateMutability": "view",
      "type": "function"
    },
    {
      "inputs": [
        {
          "internalType": "address",
          "name": "",
          "type": "address"
        }
      ],
      "name": "voters",
      "outputs": [
        {
          "internalType": "string",
          "name": "names",
          "type": "string"
        },
        {
          "internalType": "uint256",
          "name": "age",
          "type": "uint256"
        },
        {
          "internalType": "string",
          "name": "idNumber",
          "type": "string"
        },
        {
          "internalType": "bool",
          "name": "voted",
          "type": "bool"
        }
      ],
      "stateMutability": "view",
      "type": "function"
    },
    {
      "inputs": [],
      "name": "votingEndTime",
      "outputs": [
        {
          "internalType": "uint256",
          "name": "",
          "type": "uint256"
        }
      ],
      "stateMutability": "view",
      "type": "function"
    },
    {
      "inputs": [],
      "name": "votingStarted",
      "outputs": [
        {
          "internalType": "bool",
          "name": "",
          "type": "bool"
        }
      ],
      "stateMutability": "view",
      "type": "function"
    }
  ],
  "bytecode": "0x60806040526000600f60006101000a81548160ff0219169083151502179055506000600f60016101000a81548160ff02191690831515021790555034801561004657600080fd5b506040518060400160405280600581526020017f566f7465780000000000000000000000000000000000000000000000000000008152506040518060400160405280600481526020017f56544b4e0000000000000000000000000000000000000000000000000000000081525081600390816100c2919061036b565b5080600490816100d2919061036b565b50505033600560006101000a81548173ffffffffffffffffffffffffffffffffffffffff021916908373ffffffffffffffffffffffffffffffffffffffff16021790555061043d565b600081519050919050565b7f4e487b7100000000000000000000000000000000000000000000000000000000600052604160045260246000fd5b7f4e487b7100000000000000000000000000000000000000000000000000000000600052602260045260246000fd5b6000600282049050600182168061019c57607f821691505b6020821081036101af576101ae610155565b5b50919050565b60008190508160005260206000209050919050565b60006020601f8301049050919050565b600082821b905092915050565b6000600883026102177fffffffffffffffffffffffffffffffffffffffffffffffffffffffffffffffff826101da565b61022186836101da565b95508019841693508086168417925050509392505050565b6000819050919050565b6000819050919050565b600061026861026361025e84610239565b610243565b610239565b9050919050565b6000819050919050565b6102828361024d565b61029661028e8261026f565b8484546101e7565b825550505050565b600090565b6102ab61029e565b6102b6818484610279565b505050565b5b818110156102da576102cf6000826102a3565b6001810190506102bc565b5050565b601f82111561031f576102f0816101b5565b6102f9846101ca565b81016020851015610308578190505b61031c610314856101ca565b8301826102bb565b50505b505050565b600082821c905092915050565b600061034260001984600802610324565b1980831691505092915050565b600061035b8383610331565b9150826002028217905092915050565b6103748261011b565b67ffffffffffffffff81111561038d5761038c610126565b5b6103978254610184565b6103a28282856102de565b600060209050601f8311600181146103d557600084156103c3578287015190505b6103cd858261034f565b865550610435565b601f1984166103e3866101b5565b60005b8281101561040b578489015182556001820191506020850194506020810190506103e6565b868310156104285784890151610424601f891682610331565b8355505b6001600288020188555050505b505050505050565b616f838061044c6000396000f3fe608060405234801561001057600080fd5b50600436106102535760003560e01c80638168347611610146578063abceaad2116100c3578063c3403ddf11610087578063c3403ddf14610751578063cdd722531461075b578063daca6f7814610779578063dd62ed3e146107a9578063eb2119db146107d9578063ffdd74961461080957610253565b8063abceaad2146106c1578063b034d2b3146106dd578063b1bf87b0146106f9578063b80a398a14610717578063be94ced71461073357610253565b80639a53cbea1161010a5780639a53cbea146105f35780639dfa906514610626578063a3ec138d14610642578063a638580314610675578063a9059cbb1461069157610253565b8063816834761461054557806383d948b7146105635780638da5cb5b1461058157806392d7df4a1461059f57806395d89b41146105d557610253565b8063313ce567116101d45780635fbcc155116101985780635fbcc155146104555780636636b91e14610485578063676f86b0146104b557806370a08231146104e557806371a6f4651461051557610253565b8063313ce567146103ac57806332cb6b0c146103ca5780633dd079c0146103e85780634902a179146104065780634a66e1ab1461042257610253565b806318f56a0a1161021b57806318f56a0a146102ec5780631c64a33e1461030a5780631ea736e01461034057806323b872dd1461035e57806327aed42e1461038e57610253565b806306a49fce1461025857806306fdde0314610276578063095ea7b31461029457806310b86695146102c457806318160ddd146102ce575b600080fd5b610260610827565b60405161026d9190614af3565b60405180910390f35b61027e610afd565b60405161028b9190614b5f565b60405180910390f35b6102ae60048036038101906102a99190614c1f565b610b8f565b6040516102bb9190614c6e565b60405180910390f35b6102cc610bb2565b005b6102d6610d2b565b6040516102e39190614c98565b60405180910390f35b6102f4610d35565b6040516103019190614e3f565b60405180910390f35b610324600480360381019061031f9190614f96565b6110fc565b6040516103379796959493929190614fdf565b60405180910390f35b610348611381565b6040516103559190614c98565b60405180910390f35b6103786004803603810190610373919061506a565b611387565b6040516103859190614c6e565b60405180910390f35b6103966113b6565b6040516103a39190614c6e565b60405180910390f35b6103b46113c9565b6040516103c191906150d9565b60405180910390f35b6103d26113d2565b6040516103df9190614c98565b60405180910390f35b6103f06113e0565b6040516103fd9190614c6e565b60405180910390f35b610420600480360381019061041b91906150f4565b611405565b005b61043c60048036038101906104379190614f96565b6115e5565b60405161044c9493929190615121565b60405180910390f35b61046f600480360381019061046a9190615174565b611748565b60405161047c919061526e565b60405180910390f35b61049f600480360381019061049a9190615289565b6117b7565b6040516104ac9190614c6e565b60405180910390f35b6104cf60048036038101906104ca9190614f96565b611b8c565b6040516104dc9190614b5f565b60405180910390f35b6104ff60048036038101906104fa9190615314565b611c48565b60405161050c9190614c98565b60405180910390f35b61052f600480360381019061052a91906150f4565b611c90565b60405161053c9190614b5f565b60405180910390f35b61054d611d46565b60405161055a9190614c98565b60405180910390f35b61056b611d53565b6040516105789190614c6e565b60405180910390f35b610589611d66565b6040516105969190615350565b60405180910390f35b6105b960048036038101906105b491906150f4565b611d8c565b6040516105cc9796959493929190614fdf565b60405180910390f35b6105dd61200b565b6040516105ea9190614b5f565b60405180910390f35b61060d600480360381019061060891906150f4565b61209d565b60405161061d9493929190615121565b60405180910390f35b610640600480360381019061063b9190614f96565b6121fa565b005b61065c60048036038101906106579190615314565b612499565b60405161066c9493929190615121565b60405180910390f35b61068f600480360381019061068a919061536b565b6125e6565b005b6106ab60048036038101906106a69190614c1f565b6128ba565b6040516106b89190614c6e565b60405180910390f35b6106db60048036038101906106d691906154ad565b6128dd565b005b6106f760048036038101906106f29190614f96565b612b75565b005b610701612f7d565b60405161070e9190614c98565b60405180910390f35b610731600480360381019061072c91906154f6565b612f87565b005b61073b613459565b6040516107489190614c98565b60405180910390f35b610759613465565b005b6107636135d9565b604051610770919061570d565b60405180910390f35b610793600480360381019061078e91906157fc565b613781565b6040516107a09190614c6e565b60405180910390f35b6107c360048036038101906107be9190615858565b6137f4565b6040516107d09190614c98565b60405180910390f35b6107f360048036038101906107ee9190615314565b61387b565b6040516108009190614c6e565b60405180910390f35b6108116138d6565b60405161081e9190614c98565b60405180910390f35b60606008805480602002602001604051908101604052809291908181526020016000905b82821015610af457838290600052602060002090600702016040518060e001604052908160008201805461087e906158c7565b80601f01602080910402602001604051908101604052809291908181526020018280546108aa906158c7565b80156108f75780601f106108cc576101008083540402835291602001916108f7565b820191906000526020600020905b8154815290600101906020018083116108da57829003601f168201915b505050505081526020016001820154815260200160028201805461091a906158c7565b80601f0160208091040260200160405190810160405280929190818152602001828054610946906158c7565b80156109935780601f1061096857610100808354040283529160200191610993565b820191906000526020600020905b81548152906001019060200180831161097657829003601f168201915b505050505081526020016003820180546109ac906158c7565b80601f01602080910402602001604051908101604052809291908181526020018280546109d8906158c7565b8015610a255780601f106109fa57610100808354040283529160200191610a25565b820191906000526020600020905b815481529060010190602001808311610a0857829003601f168201915b50505050508152602001600482015481526020016005820160009054906101000a900460ff16151515158152602001600682018054610a63906158c7565b80601f0160208091040260200160405190810160405280929190818152602001828054610a8f906158c7565b8015610adc5780601f10610ab157610100808354040283529160200191610adc565b820191906000526020600020905b815481529060010190602001808311610abf57829003601f168201915b5050505050815250508152602001906001019061084b565b50505050905090565b606060038054610b0c906158c7565b80601f0160208091040260200160405190810160405280929190818152602001828054610b38906158c7565b8015610b855780601f10610b5a57610100808354040283529160200191610b85565b820191906000526020600020905b815481529060010190602001808311610b6857829003601f168201915b5050505050905090565b600080610b9a6138e2565b9050610ba78185856138ea565b600191505092915050565b600560009054906101000a900473ffffffffffffffffffffffffffffffffffffffff1673ffffffffffffffffffffffffffffffffffffffff163373ffffffffffffffffffffffffffffffffffffffff1614610c42576040517f08c379a0000000000000000000000000000000000000000000000000000000008152600401610c3990615944565b60405180910390fd5b600f60009054906101000a900460ff1615610c92576040517f08c379a0000000000000000000000000000000000000000000000000000000008152600401610c89906159d6565b60405180910390fd5b600f60019054906101000a900460ff1615610ce2576040517f08c379a0000000000000000000000000000000000000000000000000000000008152600401610cd990615a68565b60405180910390fd5b6001600f60006101000a81548160ff0219169083151502179055507f82e6c84abd647d1b4fae9bee1859f2642e5443af0ff900d4af83a93c2bf4151260405160405180910390a1565b6000600254905090565b60606009805480602002602001604051908101604052809291908181526020016000905b828210156110f35783829060005260206000209060020201604051806040016040529081600082018054610d8c906158c7565b80601f0160208091040260200160405190810160405280929190818152602001828054610db8906158c7565b8015610e055780601f10610dda57610100808354040283529160200191610e05565b820191906000526020600020905b815481529060010190602001808311610de857829003601f168201915b5050505050815260200160018201805480602002602001604051908101604052809291908181526020016000905b828210156110dc57838290600052602060002090600702016040518060e0016040529081600082018054610e66906158c7565b80601f0160208091040260200160405190810160405280929190818152602001828054610e92906158c7565b8015610edf5780601f10610eb457610100808354040283529160200191610edf565b820191906000526020600020905b815481529060010190602001808311610ec257829003601f168201915b5050505050815260200160018201548152602001600282018054610f02906158c7565b80601f0160208091040260200160405190810160405280929190818152602001828054610f2e906158c7565b8015610f7b5780601f10610f5057610100808354040283529160200191610f7b565b820191906000526020600020905b815481529060010190602001808311610f5e57829003601f168201915b50505050508152602001600382018054610f94906158c7565b80601f0160208091040260200160405190810160405280929190818152602001828054610fc0906158c7565b801561100d5780601f10610fe25761010080835404028352916020019161100d565b820191906000526020600020905b815481529060010190602001808311610ff057829003601f168201915b50505050508152602001600482015481526020016005820160009054906101000a900460ff1615151515815260200160068201805461104b906158c7565b80601f0160208091040260200160405190810160405280929190818152602001828054611077906158c7565b80156110c45780601f10611099576101008083540402835291602001916110c4565b820191906000526020600020905b8154815290600101906020018083116110a757829003601f168201915b50505050508152505081526020019060010190610e33565b505050508152505081526020019060010190610d59565b50505050905090565b600b81805160208101820180518482526020830160208501208183528095505050505050600091509050806000018054611135906158c7565b80601f0160208091040260200160405190810160405280929190818152602001828054611161906158c7565b80156111ae5780601f10611183576101008083540402835291602001916111ae565b820191906000526020600020905b81548152906001019060200180831161119157829003601f168201915b5050505050908060010154908060020180546111c9906158c7565b80601f01602080910402602001604051908101604052809291908181526020018280546111f5906158c7565b80156112425780601f1061121757610100808354040283529160200191611242565b820191906000526020600020905b81548152906001019060200180831161122557829003601f168201915b505050505090806003018054611257906158c7565b80601f0160208091040260200160405190810160405280929190818152602001828054611283906158c7565b80156112d05780601f106112a5576101008083540402835291602001916112d0565b820191906000526020600020905b8154815290600101906020018083116112b357829003601f168201915b5050505050908060040154908060050160009054906101000a900460ff16908060060180546112fe906158c7565b80601f016020809104026020016040519081016040528092919081815260200182805461132a906158c7565b80156113775780601f1061134c57610100808354040283529160200191611377565b820191906000526020600020905b81548152906001019060200180831161135a57829003601f168201915b5050505050905087565b60065481565b6000806113926138e2565b905061139f8582856138fc565b6113aa858585613990565b60019150509392505050565b600f60009054906101000a900460ff1681565b60006012905090565b69d3c21bcecceda100000081565b6000600f60019054906101000a900460ff16801561140057506006544210155b905090565b600560009054906101000a900473ffffffffffffffffffffffffffffffffffffffff1673ffffffffffffffffffffffffffffffffffffffff163373ffffffffffffffffffffffffffffffffffffffff1614611495576040517f08c379a000000000000000000000000000000000000000000000000000000000815260040161148c90615944565b60405180910390fd5b600f60009054906101000a900460ff166114e4576040517f08c379a00000000000000000000000000000000000000000000000000000000081526004016114db90615afa565b60405180910390fd5b600f60019054906101000a900460ff1615611534576040517f08c379a000000000000000000000000000000000000000000000000000000000815260040161152b90615b66565b60405180910390fd5b6000600f60006101000a81548160ff0219169083151502179055506001600f60016101000a81548160ff02191690831515021790555062015180816115799190615bb5565b426115849190615bf7565b6006819055507f2ee88f50f05558e39b34a18214ff6a6adc091504772084c6ce7899354bec0aa460405160405180910390a17f877e2548498f42b7975a186b94ef1d32c86d420b7b806dd2be2bea293b89590460405160405180910390a150565b600a8180516020810182018051848252602083016020850120818352809550505050505060009150905080600001805461161e906158c7565b80601f016020809104026020016040519081016040528092919081815260200182805461164a906158c7565b80156116975780601f1061166c57610100808354040283529160200191611697565b820191906000526020600020905b81548152906001019060200180831161167a57829003601f168201915b5050505050908060010154908060020180546116b2906158c7565b80601f01602080910402602001604051908101604052809291908181526020018280546116de906158c7565b801561172b5780601f106117005761010080835404028352916020019161172b565b820191906000526020600020905b81548152906001019060200180831161170e57829003601f168201915b5050505050908060030160009054906101000a900460ff16905084565b60008561176c8873ffffffffffffffffffffffffffffffffffffffff166014613a84565b868661177787613cca565b61178087613cca565b60405160200161179596959493929190615f13565b6040516020818303038152906040528051906020012090509695505050505050565b6000600f60009054906101000a900460ff16611808576040517f08c379a00000000000000000000000000000000000000000000000000000000081526004016117ff90615afa565b60405180910390fd5b600f60019054906101000a900460ff1615611858576040517f08c379a000000000000000000000000000000000000000000000000000000000815260040161184f9061606c565b60405180910390fd5b6000600a8360405161186a919061608c565b90815260200160405180910390206000018054611886906158c7565b9050146118c8576040517f08c379a00000000000000000000000000000000000000000000000000000000081526004016118bf906160ef565b60405180910390fd5b6000600d60003373ffffffffffffffffffffffffffffffffffffffff1673ffffffffffffffffffffffffffffffffffffffff168152602001908152602001600020600101541461194d576040517f08c379a000000000000000000000000000000000000000000000000000000000815260040161194490616181565b60405180910390fd5b60006040518060800160405280868152602001858152602001848152602001600015158152509050600781908060018154018082558091505060019003906000526020600020906004020160009091909190915060008201518160000190816119b6919061634d565b506020820151816001015560408201518160020190816119d6919061634d565b5060608201518160030160006101000a81548160ff021916908315150217905550505080600a84604051611a0a919061608c565b90815260200160405180910390206000820151816000019081611a2d919061634d565b50602082015181600101556040820151816002019081611a4d919061634d565b5060608201518160030160006101000a81548160ff02191690831515021790555090505080600d60003373ffffffffffffffffffffffffffffffffffffffff1673ffffffffffffffffffffffffffffffffffffffff1681526020019081526020016000206000820151816000019081611ac6919061634d565b50602082015181600101556040820151816002019081611ae6919061634d565b5060608201518160030160006101000a81548160ff021916908315150217905550905050611b1c33674563918244f40000613d98565b5082604051611b2b919061608c565b604051809103902085604051611b41919061608c565b60405180910390207f754a5f7c9336f3562d73dacebf51de10da957ae9dfcae4fbfb93733ece3dd5aa86604051611b789190614c98565b60405180910390a360019150509392505050565b600c81805160208101820180518482526020830160208501208183528095505050505050600091509050806000018054611bc5906158c7565b80601f0160208091040260200160405190810160405280929190818152602001828054611bf1906158c7565b8015611c3e5780601f10611c1357610100808354040283529160200191611c3e565b820191906000526020600020905b815481529060010190602001808311611c2157829003601f168201915b5050505050905081565b60008060008373ffffffffffffffffffffffffffffffffffffffff1673ffffffffffffffffffffffffffffffffffffffff168152602001908152602001600020549050919050565b60098181548110611ca057600080fd5b9060005260206000209060020201600091509050806000018054611cc3906158c7565b80601f0160208091040260200160405190810160405280929190818152602001828054611cef906158c7565b8015611d3c5780601f10611d1157610100808354040283529160200191611d3c565b820191906000526020600020905b815481529060010190602001808311611d1f57829003601f168201915b5050505050905081565b6000600980549050905090565b600f60019054906101000a900460ff1681565b600560009054906101000a900473ffffffffffffffffffffffffffffffffffffffff1681565b60088181548110611d9c57600080fd5b9060005260206000209060070201600091509050806000018054611dbf906158c7565b80601f0160208091040260200160405190810160405280929190818152602001828054611deb906158c7565b8015611e385780601f10611e0d57610100808354040283529160200191611e38565b820191906000526020600020905b815481529060010190602001808311611e1b57829003601f168201915b505050505090806001015490806002018054611e53906158c7565b80601f0160208091040260200160405190810160405280929190818152602001828054611e7f906158c7565b8015611ecc5780601f10611ea157610100808354040283529160200191611ecc565b820191906000526020600020905b815481529060010190602001808311611eaf57829003601f168201915b505050505090806003018054611ee1906158c7565b80601f0160208091040260200160405190810160405280929190818152602001828054611f0d906158c7565b8015611f5a5780601f10611f2f57610100808354040283529160200191611f5a565b820191906000526020600020905b815481529060010190602001808311611f3d57829003601f168201915b5050505050908060040154908060050160009054906101000a900460ff1690806006018054611f88906158c7565b80601f0160208091040260200160405190810160405280929190818152602001828054611fb4906158c7565b80156120015780601f10611fd657610100808354040283529160200191612001565b820191906000526020600020905b815481529060010190602001808311611fe457829003601f168201915b5050505050905087565b60606004805461201a906158c7565b80601f0160208091040260200160405190810160405280929190818152602001828054612046906158c7565b80156120935780601f1061206857610100808354040283529160200191612093565b820191906000526020600020905b81548152906001019060200180831161207657829003601f168201915b5050505050905090565b600781815481106120ad57600080fd5b90600052602060002090600402016000915090508060000180546120d0906158c7565b80601f01602080910402602001604051908101604052809291908181526020018280546120fc906158c7565b80156121495780601f1061211e57610100808354040283529160200191612149565b820191906000526020600020905b81548152906001019060200180831161212c57829003601f168201915b505050505090806001015490806002018054612164906158c7565b80601f0160208091040260200160405190810160405280929190818152602001828054612190906158c7565b80156121dd5780601f106121b2576101008083540402835291602001916121dd565b820191906000526020600020905b8154815290600101906020018083116121c057829003601f168201915b5050505050908060030160009054906101000a900460ff16905084565b600560009054906101000a900473ffffffffffffffffffffffffffffffffffffffff1673ffffffffffffffffffffffffffffffffffffffff163373ffffffffffffffffffffffffffffffffffffffff161461228a576040517f08c379a000000000000000000000000000000000000000000000000000000000815260040161228190615944565b60405180910390fd5b600b8160405161229a919061608c565b908152602001604051809103902060050160009054906101000a900460ff16156122f9576040517f08c379a00000000000000000000000000000000000000000000000000000000081526004016122f09061646b565b60405180910390fd5b6001600b8260405161230b919061608c565b908152602001604051809103902060050160006101000a81548160ff02191690831515021790555060005b60088054905081101561240a5781604051602001612354919061608c565b604051602081830303815290604052805190602001206008828154811061237e5761237d61648b565b5b906000526020600020906007020160020160405160200161239f919061653d565b60405160208183030381529060405280519060200120036123fd576001600882815481106123d0576123cf61648b565b5b906000526020600020906007020160050160006101000a81548160ff02191690831515021790555061240a565b8080600101915050612336565b5061241d33678ac7230489e80000613d98565b508060405161242c919061608c565b6040518091039020600b82604051612444919061608c565b9081526020016040518091039020600001604051612462919061653d565b60405180910390207fb78543f054c768084f86f0e559d1e007998ca69729eeffc4b727baa388934a3260405160405180910390a350565b600d6020528060005260406000206000915090508060000180546124bc906158c7565b80601f01602080910402602001604051908101604052809291908181526020018280546124e8906158c7565b80156125355780601f1061250a57610100808354040283529160200191612535565b820191906000526020600020905b81548152906001019060200180831161251857829003601f168201915b505050505090806001015490806002018054612550906158c7565b80601f016020809104026020016040519081016040528092919081815260200182805461257c906158c7565b80156125c95780601f1061259e576101008083540402835291602001916125c9565b820191906000526020600020905b8154815290600101906020018083116125ac57829003601f168201915b5050505050908060030160009054906101000a900460ff16905084565b600f60009054906101000a900460ff1615612636576040517f08c379a000000000000000000000000000000000000000000000000000000000815260040161262d906165c6565b60405180910390fd5b600f60019054906101000a900460ff16612685576040517f08c379a000000000000000000000000000000000000000000000000000000000815260040161267c90616632565b60405180910390fd5b6000600d60003373ffffffffffffffffffffffffffffffffffffffff1673ffffffffffffffffffffffffffffffffffffffff16815260200190815260200160002090508060030160009054906101000a900460ff161561271a576040517f08c379a00000000000000000000000000000000000000000000000000000000081526004016127119061669e565b60405180910390fd5b6000600c8460405161272c919061608c565b90815260200160405180910390206001018054905011612781576040517f08c379a00000000000000000000000000000000000000000000000000000000081526004016127789061670a565b60405180910390fd5b600c83604051612791919061608c565b90815260200160405180910390206001018054905082106127e7576040517f08c379a00000000000000000000000000000000000000000000000000000000081526004016127de90616776565b60405180910390fd5b6001600c846040516127f9919061608c565b9081526020016040518091039020600101838154811061281c5761281b61648b565b5b9060005260206000209060070201600401600082825461283c9190615bf7565b9250508190555060018160030160006101000a81548160ff0219169083151502179055503373ffffffffffffffffffffffffffffffffffffffff167f477d7faf347a03679fabd88feea150c41667473fc8412962f607fb7503f1bd438260020185856040516128ad9392919061681a565b60405180910390a2505050565b6000806128c56138e2565b90506128d2818585613990565b600191505092915050565b600560009054906101000a900473ffffffffffffffffffffffffffffffffffffffff1673ffffffffffffffffffffffffffffffffffffffff163373ffffffffffffffffffffffffffffffffffffffff161461296d576040517f08c379a000000000000000000000000000000000000000000000000000000000815260040161296490615944565b60405180910390fd5b60005b8151811015612b7157600e82828151811061298e5761298d61648b565b5b60200260200101516040516129a3919061608c565b908152602001604051809103902060009054906101000a900460ff16156129ff576040517f08c379a00000000000000000000000000000000000000000000000000000000081526004016129f6906168ab565b60405180910390fd5b6000600c838381518110612a1657612a1561648b565b5b6020026020010151604051612a2b919061608c565b90815260200160405180910390209050828281518110612a4e57612a4d61648b565b5b6020026020010151816000019081612a66919061634d565b50600981908060018154018082558091505060019003906000526020600020906002020160009091909190915060008201816000019081612aa791906168e1565b506001820181600101908054612abe9291906146f7565b5050506001600e848481518110612ad857612ad761648b565b5b6020026020010151604051612aed919061608c565b908152602001604051809103902060006101000a81548160ff0219169083151502179055507ff635339f4b5986d632e76f25211c57346b4b4ca3aa13c1ba323ac12563731456838381518110612b4657612b4561648b565b5b6020026020010151604051612b5b9190614b5f565b60405180910390a1508080600101915050612970565b5050565b600560009054906101000a900473ffffffffffffffffffffffffffffffffffffffff1673ffffffffffffffffffffffffffffffffffffffff163373ffffffffffffffffffffffffffffffffffffffff1614612c05576040517f08c379a0000000000000000000000000000000000000000000000000000000008152600401612bfc90615944565b60405180910390fd5b6000600b82604051612c17919061608c565b90815260200160405180910390206000018054612c33906158c7565b905003612c75576040517f08c379a0000000000000000000000000000000000000000000000000000000008152600401612c6c90616a15565b60405180910390fd5b60005b600880549050811015612f795781604051602001612c96919061608c565b6040516020818303038152906040528051906020012060088281548110612cc057612cbf61648b565b5b9060005260206000209060070201600201604051602001612ce1919061653d565b6040516020818303038152906040528051906020012003612f6c5760008190505b6001600880549050612d149190616a35565b811015612e10576008600182612d2a9190615bf7565b81548110612d3b57612d3a61648b565b5b906000526020600020906007020160088281548110612d5d57612d5c61648b565b5b906000526020600020906007020160008201816000019081612d7f91906168e1565b506001820154816001015560028201816002019081612d9e91906168e1565b5060038201816003019081612db391906168e1565b50600482015481600401556005820160009054906101000a900460ff168160050160006101000a81548160ff02191690831515021790555060068201816006019081612dff91906168e1565b509050508080600101915050612d02565b506008805480612e2357612e22616a69565b5b600190038181906000526020600020906007020160008082016000612e4891906147e4565b6001820160009055600282016000612e6091906147e4565b600382016000612e7091906147e4565b60048201600090556005820160006101000a81549060ff0219169055600682016000612e9c91906147e4565b50509055600b82604051612eb0919061608c565b908152602001604051809103902060008082016000612ecf91906147e4565b6001820160009055600282016000612ee791906147e4565b600382016000612ef791906147e4565b60048201600090556005820160006101000a81549060ff0219169055600682016000612f2391906147e4565b505081604051612f33919061608c565b60405180910390207f8f5f7793556433ecc92e19fec29f06611a3ac9c5a32b806db2149f70d52946fe60405160405180910390a2612f79565b8080600101915050612c78565b5050565b6000600654905090565b600f60009054906101000a900460ff16612fd6576040517f08c379a0000000000000000000000000000000000000000000000000000000008152600401612fcd90615afa565b60405180910390fd5b600f60019054906101000a900460ff1615613026576040517f08c379a000000000000000000000000000000000000000000000000000000000815260040161301d9061606c565b60405180910390fd5b6000600b84604051613038919061608c565b90815260200160405180910390206000018054613054906158c7565b905014613096576040517f08c379a000000000000000000000000000000000000000000000000000000000815260040161308d90616ae4565b60405180910390fd5b6000600a846040516130a8919061608c565b908152602001604051809103902060000180546130c4906158c7565b905003613106576040517f08c379a00000000000000000000000000000000000000000000000000000000081526004016130fd90616b50565b60405180910390fd5b60006040518060e001604052808781526020018681526020018581526020018481526020016000815260200160001515815260200183815250905060088190806001815401808255809150506001900390600052602060002090600702016000909190919091506000820151816000019081613182919061634d565b506020820151816001015560408201518160020190816131a2919061634d565b5060608201518160030190816131b8919061634d565b506080820151816004015560a08201518160050160006101000a81548160ff02191690831515021790555060c08201518160060190816131f8919061634d565b50505080600b8560405161320c919061608c565b9081526020016040518091039020600082015181600001908161322f919061634d565b5060208201518160010155604082015181600201908161324f919061634d565b506060820151816003019081613265919061634d565b506080820151816004015560a08201518160050160006101000a81548160ff02191690831515021790555060c08201518160060190816132a5919061634d565b509050506000600c836040516132bb919061608c565b9081526020016040518091039020600101805490501015613311576040517f08c379a000000000000000000000000000000000000000000000000000000000815260040161330890616bbc565b60405180910390fd5b600c82604051613321919061608c565b90815260200160405180910390206001018190806001815401808255809150506001900390600052602060002090600702016000909190919091506000820151816000019081613371919061634d565b50602082015181600101556040820151816002019081613391919061634d565b5060608201518160030190816133a7919061634d565b506080820151816004015560a08201518160050160006101000a81548160ff02191690831515021790555060c08201518160060190816133e7919061634d565b505050836040516133f8919061608c565b60405180910390208660405161340e919061608c565b60405180910390207fd9f17a5389d6109c78413a18e9adfec5a898c288bbd8c9e65de38e95f04b9e0787868660405161344993929190616bdc565b60405180910390a3505050505050565b674563918244f4000081565b600560009054906101000a900473ffffffffffffffffffffffffffffffffffffffff1673ffffffffffffffffffffffffffffffffffffffff163373ffffffffffffffffffffffffffffffffffffffff16146134f5576040517f08c379a00000000000000000000000000000000000000000000000000000000081526004016134ec90615944565b60405180910390fd5b600f60019054906101000a900460ff16613544576040517f08c379a000000000000000000000000000000000000000000000000000000000815260040161353b90616c6d565b60405180910390fd5b6006544210613588576040517f08c379a000000000000000000000000000000000000000000000000000000000815260040161357f90616cd9565b60405180910390fd5b6000600f60016101000a81548160ff02191690831515021790555060006006819055507f7a19ed057db79e3c2fa0b97a54b43bef4fce74b31bb6c01af514b9a18a7f70ab60405160405180910390a1565b60606007805480602002602001604051908101604052809291908181526020016000905b828210156137785783829060005260206000209060040201604051806080016040529081600082018054613630906158c7565b80601f016020809104026020016040519081016040528092919081815260200182805461365c906158c7565b80156136a95780601f1061367e576101008083540402835291602001916136a9565b820191906000526020600020905b81548152906001019060200180831161368c57829003601f168201915b50505050508152602001600182015481526020016002820180546136cc906158c7565b80601f01602080910402602001604051908101604052809291908181526020018280546136f8906158c7565b80156137455780601f1061371a57610100808354040283529160200191613745565b820191906000526020600020905b81548152906001019060200180831161372857829003601f168201915b505050505081526020016003820160009054906101000a900460ff161515151581525050815260200190600101906135fd565b50505050905090565b600080836040516020016137959190616d66565b60405160208183030381529060405280519060200120905060006137b98285613e46565b90503373ffffffffffffffffffffffffffffffffffffffff168173ffffffffffffffffffffffffffffffffffffffff16149250505092915050565b6000600160008473ffffffffffffffffffffffffffffffffffffffff1673ffffffffffffffffffffffffffffffffffffffff16815260200190815260200160002060008373ffffffffffffffffffffffffffffffffffffffff1673ffffffffffffffffffffffffffffffffffffffff16815260200190815260200160002054905092915050565b600080600d60008473ffffffffffffffffffffffffffffffffffffffff1673ffffffffffffffffffffffffffffffffffffffff16815260200190815260200160002060000180546138cb906158c7565b905014159050919050565b678ac7230489e8000081565b600033905090565b6138f78383836001613e72565b505050565b600061390884846137f4565b90507fffffffffffffffffffffffffffffffffffffffffffffffffffffffffffffffff811461398a578181101561397a578281836040517ffb8f41b200000000000000000000000000000000000000000000000000000000815260040161397193929190616d8c565b60405180910390fd5b61398984848484036000613e72565b5b50505050565b600073ffffffffffffffffffffffffffffffffffffffff168373ffffffffffffffffffffffffffffffffffffffff1603613a025760006040517f96c6fd1e0000000000000000000000000000000000000000000000000000000081526004016139f99190615350565b60405180910390fd5b600073ffffffffffffffffffffffffffffffffffffffff168273ffffffffffffffffffffffffffffffffffffffff1603613a745760006040517fec442f05000000000000000000000000000000000000000000000000000000008152600401613a6b9190615350565b60405180910390fd5b613a7f838383614049565b505050565b6060600083905060006002846002613a9c9190615bb5565b613aa69190615bf7565b67ffffffffffffffff811115613abf57613abe614e6b565b5b6040519080825280601f01601f191660200182016040528015613af15781602001600182028036833780820191505090505b5090507f300000000000000000000000000000000000000000000000000000000000000081600081518110613b2957613b2861648b565b5b60200101907effffffffffffffffffffffffffffffffffffffffffffffffffffffffffffff1916908160001a9053507f780000000000000000000000000000000000000000000000000000000000000081600181518110613b8d57613b8c61648b565b5b60200101907effffffffffffffffffffffffffffffffffffffffffffffffffffffffffffff1916908160001a90535060006001856002613bcd9190615bb5565b613bd79190615bf7565b90505b6001811115613c77577f3031323334353637383961626364656600000000000000000000000000000000600f841660108110613c1957613c1861648b565b5b1a60f81b828281518110613c3057613c2f61648b565b5b60200101907effffffffffffffffffffffffffffffffffffffffffffffffffffffffffffff1916908160001a905350600483901c925080613c7090616dc3565b9050613bda565b5060008214613cbf5784846040517fe22e27eb000000000000000000000000000000000000000000000000000000008152600401613cb6929190616dec565b60405180910390fd5b809250505092915050565b606060006001613cd98461426e565b01905060008167ffffffffffffffff811115613cf857613cf7614e6b565b5b6040519080825280601f01601f191660200182016040528015613d2a5781602001600182028036833780820191505090505b509050600082602001820190505b600115613d8d578080600190039150507f3031323334353637383961626364656600000000000000000000000000000000600a86061a8153600a8581613d8157613d80616e15565b5b04945060008503613d38575b819350505050919050565b600069d3c21bcecceda1000000613dad610d2b565b83613db89190615bf7565b1115613df9576040517f08c379a0000000000000000000000000000000000000000000000000000000008152600401613df090616e90565b60405180910390fd5b613e0383836143c1565b7fcda531bfd68624f13205c0a23cd4d5a7f09792cbb399603114f2b04aaa1bf5cf8383604051613e34929190616eb0565b60405180910390a16001905092915050565b600080600080613e568686614443565b925092509250613e66828261449f565b82935050505092915050565b600073ffffffffffffffffffffffffffffffffffffffff168473ffffffffffffffffffffffffffffffffffffffff1603613ee45760006040517fe602df05000000000000000000000000000000000000000000000000000000008152600401613edb9190615350565b60405180910390fd5b600073ffffffffffffffffffffffffffffffffffffffff168373ffffffffffffffffffffffffffffffffffffffff1603613f565760006040517f94280d62000000000000000000000000000000000000000000000000000000008152600401613f4d9190615350565b60405180910390fd5b81600160008673ffffffffffffffffffffffffffffffffffffffff1673ffffffffffffffffffffffffffffffffffffffff16815260200190815260200160002060008573ffffffffffffffffffffffffffffffffffffffff1673ffffffffffffffffffffffffffffffffffffffff168152602001908152602001600020819055508015614043578273ffffffffffffffffffffffffffffffffffffffff168473ffffffffffffffffffffffffffffffffffffffff167f8c5be1e5ebec7d5bd14f71427d1e84f3dd0314c0f7b2291e5b200ac8c7c3b9258460405161403a9190614c98565b60405180910390a35b50505050565b600073ffffffffffffffffffffffffffffffffffffffff168373ffffffffffffffffffffffffffffffffffffffff160361409b57806002600082825461408f9190615bf7565b9250508190555061416e565b60008060008573ffffffffffffffffffffffffffffffffffffffff1673ffffffffffffffffffffffffffffffffffffffff16815260200190815260200160002054905081811015614127578381836040517fe450d38c00000000000000000000000000000000000000000000000000000000815260040161411e93929190616d8c565b60405180910390fd5b8181036000808673ffffffffffffffffffffffffffffffffffffffff1673ffffffffffffffffffffffffffffffffffffffff16815260200190815260200160002081905550505b600073ffffffffffffffffffffffffffffffffffffffff168273ffffffffffffffffffffffffffffffffffffffff16036141b75780600260008282540392505081905550614204565b806000808473ffffffffffffffffffffffffffffffffffffffff1673ffffffffffffffffffffffffffffffffffffffff168152602001908152602001600020600082825401925050819055505b8173ffffffffffffffffffffffffffffffffffffffff168373ffffffffffffffffffffffffffffffffffffffff167fddf252ad1be2c89b69c2b068fc378daa952ba7f163c4a11628f55a4df523b3ef836040516142619190614c98565b60405180910390a3505050565b600080600090507a184f03e93ff9f4daa797ed6e38ed64bf6a1f01000000000000000083106142cc577a184f03e93ff9f4daa797ed6e38ed64bf6a1f01000000000000000083816142c2576142c1616e15565b5b0492506040810190505b6d04ee2d6d415b85acef81000000008310614309576d04ee2d6d415b85acef810000000083816142ff576142fe616e15565b5b0492506020810190505b662386f26fc10000831061433857662386f26fc10000838161432e5761432d616e15565b5b0492506010810190505b6305f5e1008310614361576305f5e100838161435757614356616e15565b5b0492506008810190505b612710831061438657612710838161437c5761437b616e15565b5b0492506004810190505b606483106143a9576064838161439f5761439e616e15565b5b0492506002810190505b600a83106143b8576001810190505b80915050919050565b600073ffffffffffffffffffffffffffffffffffffffff168273ffffffffffffffffffffffffffffffffffffffff16036144335760006040517fec442f0500000000000000000000000000000000000000000000000000000000815260040161442a9190615350565b60405180910390fd5b61443f60008383614049565b5050565b600080600060418451036144885760008060006020870151925060408701519150606087015160001a905061447a88828585614603565b955095509550505050614498565b60006002855160001b9250925092505b9250925092565b600060038111156144b3576144b2616ed9565b5b8260038111156144c6576144c5616ed9565b5b03156145ff57600160038111156144e0576144df616ed9565b5b8260038111156144f3576144f2616ed9565b5b0361452a576040517ff645eedf00000000000000000000000000000000000000000000000000000000815260040160405180910390fd5b6002600381111561453e5761453d616ed9565b5b82600381111561455157614550616ed9565b5b03614596578060001c6040517ffce698f700000000000000000000000000000000000000000000000000000000815260040161458d9190614c98565b60405180910390fd5b6003808111156145a9576145a8616ed9565b5b8260038111156145bc576145bb616ed9565b5b036145fe57806040517fd78bce0c0000000000000000000000000000000000000000000000000000000081526004016145f5919061526e565b60405180910390fd5b5b5050565b60008060007f7fffffffffffffffffffffffffffffff5d576e7357a4501ddfe92f46681b20a08460001c11156146435760006003859250925092506146ed565b6000600188888888604051600081526020016040526040516146689493929190616f08565b6020604051602081039080840390855afa15801561468a573d6000803e3d6000fd5b505050602060405103519050600073ffffffffffffffffffffffffffffffffffffffff168173ffffffffffffffffffffffffffffffffffffffff16036146de57600060016000801b935093509350506146ed565b8060008060001b935093509350505b9450945094915050565b8280548282559060005260206000209060070281019282156147d35760005260206000209160070282015b828111156147d25782826000820181600001908161474091906168e1565b50600182015481600101556002820181600201908161475f91906168e1565b506003820181600301908161477491906168e1565b50600482015481600401556005820160009054906101000a900460ff168160050160006101000a81548160ff021916908315150217905550600682018160060190816147c091906168e1565b50505091600701919060070190614722565b5b5090506147e09190614824565b5090565b5080546147f0906158c7565b6000825580601f106148025750614821565b601f016020900490600052602060002090810190614820919061489f565b5b50565b5b8082111561489b576000808201600061483e91906147e4565b600182016000905560028201600061485691906147e4565b60038201600061486691906147e4565b60048201600090556005820160006101000a81549060ff021916905560068201600061489291906147e4565b50600701614825565b5090565b5b808211156148b85760008160009055506001016148a0565b5090565b600081519050919050565b600082825260208201905092915050565b6000819050602082019050919050565b600081519050919050565b600082825260208201905092915050565b60005b83811015614922578082015181840152602081019050614907565b60008484015250505050565b6000601f19601f8301169050919050565b600061494a826148e8565b61495481856148f3565b9350614964818560208601614904565b61496d8161492e565b840191505092915050565b6000819050919050565b61498b81614978565b82525050565b60008115159050919050565b6149a681614991565b82525050565b600060e08301600083015184820360008601526149c9828261493f565b91505060208301516149de6020860182614982565b50604083015184820360408601526149f6828261493f565b91505060608301518482036060860152614a10828261493f565b9150506080830151614a256080860182614982565b5060a0830151614a3860a086018261499d565b5060c083015184820360c0860152614a50828261493f565b9150508091505092915050565b6000614a6983836149ac565b905092915050565b6000602082019050919050565b6000614a89826148bc565b614a9381856148c7565b935083602082028501614aa5856148d8565b8060005b85811015614ae15784840389528151614ac28582614a5d565b9450614acd83614a71565b925060208a01995050600181019050614aa9565b50829750879550505050505092915050565b60006020820190508181036000830152614b0d8184614a7e565b905092915050565b600082825260208201905092915050565b6000614b31826148e8565b614b3b8185614b15565b9350614b4b818560208601614904565b614b548161492e565b840191505092915050565b60006020820190508181036000830152614b798184614b26565b905092915050565b6000604051905090565b600080fd5b600080fd5b600073ffffffffffffffffffffffffffffffffffffffff82169050919050565b6000614bc082614b95565b9050919050565b614bd081614bb5565b8114614bdb57600080fd5b50565b600081359050614bed81614bc7565b92915050565b614bfc81614978565b8114614c0757600080fd5b50565b600081359050614c1981614bf3565b92915050565b60008060408385031215614c3657614c35614b8b565b5b6000614c4485828601614bde565b9250506020614c5585828601614c0a565b9150509250929050565b614c6881614991565b82525050565b6000602082019050614c836000830184614c5f565b92915050565b614c9281614978565b82525050565b6000602082019050614cad6000830184614c89565b92915050565b600081519050919050565b600082825260208201905092915050565b6000819050602082019050919050565b600082825260208201905092915050565b6000614cfb826148bc565b614d058185614cdf565b935083602082028501614d17856148d8565b8060005b85811015614d535784840389528151614d348582614a5d565b9450614d3f83614a71565b925060208a01995050600181019050614d1b565b50829750879550505050505092915050565b60006040830160008301518482036000860152614d82828261493f565b91505060208301518482036020860152614d9c8282614cf0565b9150508091505092915050565b6000614db58383614d65565b905092915050565b6000602082019050919050565b6000614dd582614cb3565b614ddf8185614cbe565b935083602082028501614df185614ccf565b8060005b85811015614e2d5784840389528151614e0e8582614da9565b9450614e1983614dbd565b925060208a01995050600181019050614df5565b50829750879550505050505092915050565b60006020820190508181036000830152614e598184614dca565b905092915050565b600080fd5b600080fd5b7f4e487b7100000000000000000000000000000000000000000000000000000000600052604160045260246000fd5b614ea38261492e565b810181811067ffffffffffffffff82111715614ec257614ec1614e6b565b5b80604052505050565b6000614ed5614b81565b9050614ee18282614e9a565b919050565b600067ffffffffffffffff821115614f0157614f00614e6b565b5b614f0a8261492e565b9050602081019050919050565b82818337600083830152505050565b6000614f39614f3484614ee6565b614ecb565b905082815260208101848484011115614f5557614f54614e66565b5b614f60848285614f17565b509392505050565b600082601f830112614f7d57614f7c614e61565b5b8135614f8d848260208601614f26565b91505092915050565b600060208284031215614fac57614fab614b8b565b5b600082013567ffffffffffffffff811115614fca57614fc9614b90565b5b614fd684828501614f68565b91505092915050565b600060e0820190508181036000830152614ff9818a614b26565b90506150086020830189614c89565b818103604083015261501a8188614b26565b9050818103606083015261502e8187614b26565b905061503d6080830186614c89565b61504a60a0830185614c5f565b81810360c083015261505c8184614b26565b905098975050505050505050565b60008060006060848603121561508357615082614b8b565b5b600061509186828701614bde565b93505060206150a286828701614bde565b92505060406150b386828701614c0a565b9150509250925092565b600060ff82169050919050565b6150d3816150bd565b82525050565b60006020820190506150ee60008301846150ca565b92915050565b60006020828403121561510a57615109614b8b565b5b600061511884828501614c0a565b91505092915050565b6000608082019050818103600083015261513b8187614b26565b905061514a6020830186614c89565b818103604083015261515c8185614b26565b905061516b6060830184614c5f565b95945050505050565b60008060008060008060c0878903121561519157615190614b8b565b5b600061519f89828a01614bde565b965050602087013567ffffffffffffffff8111156151c0576151bf614b90565b5b6151cc89828a01614f68565b955050604087013567ffffffffffffffff8111156151ed576151ec614b90565b5b6151f989828a01614f68565b945050606087013567ffffffffffffffff81111561521a57615219614b90565b5b61522689828a01614f68565b935050608061523789828a01614c0a565b92505060a061524889828a01614c0a565b9150509295509295509295565b6000819050919050565b61526881615255565b82525050565b6000602082019050615283600083018461525f565b92915050565b6000806000606084860312156152a2576152a1614b8b565b5b600084013567ffffffffffffffff8111156152c0576152bf614b90565b5b6152cc86828701614f68565b93505060206152dd86828701614c0a565b925050604084013567ffffffffffffffff8111156152fe576152fd614b90565b5b61530a86828701614f68565b9150509250925092565b60006020828403121561532a57615329614b8b565b5b600061533884828501614bde565b91505092915050565b61534a81614bb5565b82525050565b60006020820190506153656000830184615341565b92915050565b6000806040838503121561538257615381614b8b565b5b600083013567ffffffffffffffff8111156153a05761539f614b90565b5b6153ac85828601614f68565b92505060206153bd85828601614c0a565b9150509250929050565b600067ffffffffffffffff8211156153e2576153e1614e6b565b5b602082029050602081019050919050565b600080fd5b600061540b615406846153c7565b614ecb565b9050808382526020820190506020840283018581111561542e5761542d6153f3565b5b835b8181101561547557803567ffffffffffffffff81111561545357615452614e61565b5b8086016154608982614f68565b85526020850194505050602081019050615430565b5050509392505050565b600082601f83011261549457615493614e61565b5b81356154a48482602086016153f8565b91505092915050565b6000602082840312156154c3576154c2614b8b565b5b600082013567ffffffffffffffff8111156154e1576154e0614b90565b5b6154ed8482850161547f565b91505092915050565b600080600080600060a0868803121561551257615511614b8b565b5b600086013567ffffffffffffffff8111156155305761552f614b90565b5b61553c88828901614f68565b955050602061554d88828901614c0a565b945050604086013567ffffffffffffffff81111561556e5761556d614b90565b5b61557a88828901614f68565b935050606086013567ffffffffffffffff81111561559b5761559a614b90565b5b6155a788828901614f68565b925050608086013567ffffffffffffffff8111156155c8576155c7614b90565b5b6155d488828901614f68565b9150509295509295909350565b600081519050919050565b600082825260208201905092915050565b6000819050602082019050919050565b6000608083016000830151848203600086015261562a828261493f565b915050602083015161563f6020860182614982565b5060408301518482036040860152615657828261493f565b915050606083015161566c606086018261499d565b508091505092915050565b6000615683838361560d565b905092915050565b6000602082019050919050565b60006156a3826155e1565b6156ad81856155ec565b9350836020820285016156bf856155fd565b8060005b858110156156fb57848403895281516156dc8582615677565b94506156e78361568b565b925060208a019950506001810190506156c3565b50829750879550505050505092915050565b600060208201905081810360008301526157278184615698565b905092915050565b61573881615255565b811461574357600080fd5b50565b6000813590506157558161572f565b92915050565b600067ffffffffffffffff82111561577657615775614e6b565b5b61577f8261492e565b9050602081019050919050565b600061579f61579a8461575b565b614ecb565b9050828152602081018484840111156157bb576157ba614e66565b5b6157c6848285614f17565b509392505050565b600082601f8301126157e3576157e2614e61565b5b81356157f384826020860161578c565b91505092915050565b6000806040838503121561581357615812614b8b565b5b600061582185828601615746565b925050602083013567ffffffffffffffff81111561584257615841614b90565b5b61584e858286016157ce565b9150509250929050565b6000806040838503121561586f5761586e614b8b565b5b600061587d85828601614bde565b925050602061588e85828601614bde565b9150509250929050565b7f4e487b7100000000000000000000000000000000000000000000000000000000600052602260045260246000fd5b600060028204905060018216806158df57607f821691505b6020821081036158f2576158f1615898565b5b50919050565b7f596f7520617265206e6f7420746865206f776e65722100000000000000000000600082015250565b600061592e601683614b15565b9150615939826158f8565b602082019050919050565b6000602082019050818103600083015261595d81615921565b9050919050565b7f526567697374726174696f6e2068617320616c7265616479207374617274656460008201527f2e00000000000000000000000000000000000000000000000000000000000000602082015250565b60006159c0602183614b15565b91506159cb82615964565b604082019050919050565b600060208201905081810360008301526159ef816159b3565b9050919050565b7f43616e6e6f7420737461727420726567697374726174696f6e2061667465722060008201527f766f74696e672068617320626567756e2e000000000000000000000000000000602082015250565b6000615a52603183614b15565b9150615a5d826159f6565b604082019050919050565b60006020820190508181036000830152615a8181615a45565b9050919050565b7f526567697374726174696f6e20706572696f6420686173206e6f74207374617260008201527f7465642e00000000000000000000000000000000000000000000000000000000602082015250565b6000615ae4602483614b15565b9150615aef82615a88565b604082019050919050565b60006020820190508181036000830152615b1381615ad7565b9050919050565b7f566f74696e672068617320616c726561647920737461727465642e0000000000600082015250565b6000615b50601b83614b15565b9150615b5b82615b1a565b602082019050919050565b60006020820190508181036000830152615b7f81615b43565b9050919050565b7f4e487b7100000000000000000000000000000000000000000000000000000000600052601160045260246000fd5b6000615bc082614978565b9150615bcb83614978565b9250828202615bd981614978565b91508282048414831517615bf057615bef615b86565b5b5092915050565b6000615c0282614978565b9150615c0d83614978565b9250828201905080821115615c2557615c24615b86565b5b92915050565b600081905092915050565b7f19457468657265756d205369676e6564204d6573736167653a0a000000000000600082015250565b6000615c6c601a83615c2b565b9150615c7782615c36565b601a82019050919050565b7f446f6d61696e3a20000000000000000000000000000000000000000000000000600082015250565b6000615cb8600883615c2b565b9150615cc382615c82565b600882019050919050565b6000615cd9826148e8565b615ce38185615c2b565b9350615cf3818560208601614904565b80840191505092915050565b7f0a00000000000000000000000000000000000000000000000000000000000000600082015250565b6000615d35600183615c2b565b9150615d4082615cff565b600182019050919050565b7f416464726573733a200000000000000000000000000000000000000000000000600082015250565b6000615d81600983615c2b565b9150615d8c82615d4b565b600982019050919050565b7f53746174656d656e743a20000000000000000000000000000000000000000000600082015250565b6000615dcd600b83615c2b565b9150615dd882615d97565b600b82019050919050565b7f5552493a20000000000000000000000000000000000000000000000000000000600082015250565b6000615e19600583615c2b565b9150615e2482615de3565b600582019050919050565b7f56657273696f6e3a20310a000000000000000000000000000000000000000000600082015250565b6000615e65600b83615c2b565b9150615e7082615e2f565b600b82019050919050565b7f436861696e2049443a2000000000000000000000000000000000000000000000600082015250565b6000615eb1600a83615c2b565b9150615ebc82615e7b565b600a82019050919050565b7f4e6f6e63653a2000000000000000000000000000000000000000000000000000600082015250565b6000615efd600783615c2b565b9150615f0882615ec7565b600782019050919050565b6000615f1e82615c5f565b9150615f2982615cab565b9150615f358289615cce565b9150615f4082615d28565b9150615f4b82615d74565b9150615f578288615cce565b9150615f6282615d28565b9150615f6d82615dc0565b9150615f798287615cce565b9150615f8482615d28565b9150615f8f82615e0c565b9150615f9b8286615cce565b9150615fa682615d28565b9150615fb182615e58565b9150615fbc82615ea4565b9150615fc88285615cce565b9150615fd382615d28565b9150615fde82615ef0565b9150615fea8284615cce565b9150819050979650505050505050565b7f43616e6e6f7420726567697374657220647572696e6720766f74696e6720706560008201527f72696f642e000000000000000000000000000000000000000000000000000000602082015250565b6000616056602583614b15565b915061606182615ffa565b604082019050919050565b6000602082019050818103600083015261608581616049565b9050919050565b60006160988284615cce565b915081905092915050565b7f566f74657220616c726561647920657869737473210000000000000000000000600082015250565b60006160d9601583614b15565b91506160e4826160a3565b602082019050919050565b60006020820190508181036000830152616108816160cc565b9050919050565b7f4163636f756e7420616c7265616479207265676973746572656420617320766f60008201527f7465720000000000000000000000000000000000000000000000000000000000602082015250565b600061616b602383614b15565b91506161768261610f565b604082019050919050565b6000602082019050818103600083015261619a8161615e565b9050919050565b60008190508160005260206000209050919050565b60006020601f8301049050919050565b600082821b905092915050565b6000600883026162037fffffffffffffffffffffffffffffffffffffffffffffffffffffffffffffffff826161c6565b61620d86836161c6565b95508019841693508086168417925050509392505050565b6000819050919050565b600061624a61624561624084614978565b616225565b614978565b9050919050565b6000819050919050565b6162648361622f565b61627861627082616251565b8484546161d3565b825550505050565b600090565b61628d616280565b61629881848461625b565b505050565b5b818110156162bc576162b1600082616285565b60018101905061629e565b5050565b601f821115616301576162d2816161a1565b6162db846161b6565b810160208510156162ea578190505b6162fe6162f6856161b6565b83018261629d565b50505b505050565b600082821c905092915050565b600061632460001984600802616306565b1980831691505092915050565b600061633d8383616313565b9150826002028217905092915050565b616356826148e8565b67ffffffffffffffff81111561636f5761636e614e6b565b5b61637982546158c7565b6163848282856162c0565b600060209050601f8311600181146163b757600084156163a5578287015190505b6163af8582616331565b865550616417565b601f1984166163c5866161a1565b60005b828110156163ed578489015182556001820191506020850194506020810190506163c8565b8683101561640a5784890151616406601f891682616313565b8355505b6001600288020188555050505b505050505050565b7f43616e64696461746520616c7265616479207665726966696564210000000000600082015250565b6000616455601b83614b15565b91506164608261641f565b602082019050919050565b6000602082019050818103600083015261648481616448565b9050919050565b7f4e487b7100000000000000000000000000000000000000000000000000000000600052603260045260246000fd5b600081546164c7816158c7565b6164d18186615c2b565b945060018216600081146164ec576001811461650157616534565b60ff1983168652811515820286019350616534565b61650a856161a1565b60005b8381101561652c5781548189015260018201915060208101905061650d565b838801955050505b50505092915050565b600061654982846164ba565b915081905092915050565b7f526567697374726174696f6e20706572696f64206973207374696c6c2061637460008201527f6976652e00000000000000000000000000000000000000000000000000000000602082015250565b60006165b0602483614b15565b91506165bb82616554565b604082019050919050565b600060208201905081810360008301526165df816165a3565b9050919050565b7f566f74696e6720686173206e6f742073746172746564207965742e0000000000600082015250565b600061661c601b83614b15565b9150616627826165e6565b602082019050919050565b6000602082019050818103600083015261664b8161660f565b9050919050565b7f596f75206861766520616c726561647920766f7465642e000000000000000000600082015250565b6000616688601783614b15565b915061669382616652565b602082019050919050565b600060208201905081810360008301526166b78161667b565b9050919050565b7f496e76616c696420706f736974696f6e2e000000000000000000000000000000600082015250565b60006166f4601183614b15565b91506166ff826166be565b602082019050919050565b60006020820190508181036000830152616723816166e7565b9050919050565b7f496e76616c69642063616e64696461746520696e6465782e0000000000000000600082015250565b6000616760601883614b15565b915061676b8261672a565b602082019050919050565b6000602082019050818103600083015261678f81616753565b9050919050565b600081546167a3816158c7565b6167ad8186614b15565b945060018216600081146167c857600181146167de57616811565b60ff198316865281151560200286019350616811565b6167e7856161a1565b60005b83811015616809578154818901526001820191506020810190506167ea565b808801955050505b50505092915050565b600060608201905081810360008301526168348186616796565b905081810360208301526168488185614b26565b90506168576040830184614c89565b949350505050565b7f506f736974696f6e20616c726561647920657869737473210000000000000000600082015250565b6000616895601883614b15565b91506168a08261685f565b602082019050919050565b600060208201905081810360008301526168c481616888565b9050919050565b6000815490506168da816158c7565b9050919050565b8181036168ef5750506169c7565b6168f8826168cb565b67ffffffffffffffff81111561691157616910614e6b565b5b61691b82546158c7565b6169268282856162c0565b6000601f8311600181146169555760008415616943578287015490505b61694d8582616331565b8655506169c0565b601f198416616963876161a1565b965061696e866161a1565b60005b8281101561699657848901548255600182019150600185019450602081019050616971565b868310156169b357848901546169af601f891682616313565b8355505b6001600288020188555050505b5050505050505b565b7f43616e64696461746520646f6573206e6f742065786973742100000000000000600082015250565b60006169ff601983614b15565b9150616a0a826169c9565b602082019050919050565b60006020820190508181036000830152616a2e816169f2565b9050919050565b6000616a4082614978565b9150616a4b83614978565b9250828203905081811115616a6357616a62615b86565b5b92915050565b7f4e487b7100000000000000000000000000000000000000000000000000000000600052603160045260246000fd5b7f43616e64696461746520616c7265616479206578697374732100000000000000600082015250565b6000616ace601983614b15565b9150616ad982616a98565b602082019050919050565b60006020820190508181036000830152616afd81616ac1565b9050919050565b7f596f75206d7573742062652061207265676973746572656420766f7465722100600082015250565b6000616b3a601f83614b15565b9150616b4582616b04565b602082019050919050565b60006020820190508181036000830152616b6981616b2d565b9050919050565b7f506f736974696f6e20646f6573206e6f74206578697374210000000000000000600082015250565b6000616ba6601883614b15565b9150616bb182616b70565b602082019050919050565b60006020820190508181036000830152616bd581616b99565b9050919050565b6000606082019050616bf16000830186614c89565b8181036020830152616c038185614b26565b90508181036040830152616c178184614b26565b9050949350505050565b7f566f74696e6720686173206e6f7420737461727465642e000000000000000000600082015250565b6000616c57601783614b15565b9150616c6282616c21565b602082019050919050565b60006020820190508181036000830152616c8681616c4a565b9050919050565b7f566f74696e6720706572696f6420686173206e6f7420656e6465642e00000000600082015250565b6000616cc3601c83614b15565b9150616cce82616c8d565b602082019050919050565b60006020820190508181036000830152616cf281616cb6565b9050919050565b7f19457468657265756d205369676e6564204d6573736167653a0a333200000000600082015250565b6000616d2f601c83615c2b565b9150616d3a82616cf9565b601c82019050919050565b6000819050919050565b616d60616d5b82615255565b616d45565b82525050565b6000616d7182616d22565b9150616d7d8284616d4f565b60208201915081905092915050565b6000606082019050616da16000830186615341565b616dae6020830185614c89565b616dbb6040830184614c89565b949350505050565b6000616dce82614978565b915060008203616de157616de0615b86565b5b600182039050919050565b6000604082019050616e016000830185614c89565b616e0e6020830184614c89565b9392505050565b7f4e487b7100000000000000000000000000000000000000000000000000000000600052601260045260246000fd5b7f546f6b656e206c696d6974206578636565646564210000000000000000000000600082015250565b6000616e7a601583614b15565b9150616e8582616e44565b602082019050919050565b60006020820190508181036000830152616ea981616e6d565b9050919050565b6000604082019050616ec56000830185615341565b616ed26020830184614c89565b9392505050565b7f4e487b7100000000000000000000000000000000000000000000000000000000600052602160045260246000fd5b6000608082019050616f1d600083018761525f565b616f2a60208301866150ca565b616f37604083018561525f565b616f44606083018461525f565b9594505050505056fea2646970667358221220292a7bfcadb016f5b57e9d01503edda2ad2333ac055a09a9e116af2b46e4121164736f6c634300081b0033",
  "linkReferences": {},
  "deployedLinkReferences": {}
}