{
  "_format": "hh-sol-artifact-1",
  "contractName": "Voting",
  "sourceName": "contracts/Voting.sol",
  "abi": [
    {
      "inputs": [],
      "stateMutability": "nonpayable",
      "type": "constructor"
    },
    {
      "inputs": [
        {
          "internalType": "address",
          "name": "spender",
          "type": "address"
        },
        {
          "internalType": "uint256",
          "name": "allowance",
          "type": "uint256"
        },
        {
          "internalType": "uint256",
          "name": "needed",
          "type": "uint256"
        }
      ],
      "name": "ERC20InsufficientAllowance",
      "type": "error"
    },
    {
      "inputs": [
        {
          "internalType": "address",
          "name": "sender",
          "type": "address"
        },
        {
          "internalType": "uint256",
          "name": "balance",
          "type": "uint256"
        },
        {
          "internalType": "uint256",
          "name": "needed",
          "type": "uint256"
        }
      ],
      "name": "ERC20InsufficientBalance",
      "type": "error"
    },
    {
      "inputs": [
        {
          "internalType": "address",
          "name": "approver",
          "type": "address"
        }
      ],
      "name": "ERC20InvalidApprover",
      "type": "error"
    },
    {
      "inputs": [
        {
          "internalType": "address",
          "name": "receiver",
          "type": "address"
        }
      ],
      "name": "ERC20InvalidReceiver",
      "type": "error"
    },
    {
      "inputs": [
        {
          "internalType": "address",
          "name": "sender",
          "type": "address"
        }
      ],
      "name": "ERC20InvalidSender",
      "type": "error"
    },
    {
      "inputs": [
        {
          "internalType": "address",
          "name": "spender",
          "type": "address"
        }
      ],
      "name": "ERC20InvalidSpender",
      "type": "error"
    },
    {
      "anonymous": false,
      "inputs": [
        {
          "indexed": true,
          "internalType": "address",
          "name": "owner",
          "type": "address"
        },
        {
          "indexed": true,
          "internalType": "address",
          "name": "spender",
          "type": "address"
        },
        {
          "indexed": false,
          "internalType": "uint256",
          "name": "value",
          "type": "uint256"
        }
      ],
      "name": "Approval",
      "type": "event"
    },
    {
      "anonymous": false,
      "inputs": [
        {
          "indexed": true,
          "internalType": "string",
          "name": "_names",
          "type": "string"
        },
        {
          "indexed": false,
          "internalType": "uint256",
          "name": "_age",
          "type": "uint256"
        },
        {
          "indexed": true,
          "internalType": "string",
          "name": "_idNumber",
          "type": "string"
        },
        {
          "indexed": false,
          "internalType": "string",
          "name": "_party",
          "type": "string"
        }
      ],
      "name": "CandidateRegistrationSuccess",
      "type": "event"
    },
    {
      "anonymous": false,
      "inputs": [
        {
          "indexed": false,
          "internalType": "address",
          "name": "_to",
          "type": "address"
        },
        {
          "indexed": false,
          "internalType": "uint256",
          "name": "_amount",
          "type": "uint256"
        }
      ],
      "name": "MintSuccess",
      "type": "event"
    },
    {
      "anonymous": false,
      "inputs": [
        {
          "indexed": false,
          "internalType": "string",
          "name": "positionName",
          "type": "string"
        }
      ],
      "name": "PositionAdded",
      "type": "event"
    },
    {
      "anonymous": false,
      "inputs": [],
      "name": "RegistrationEnded",
      "type": "event"
    },
    {
      "anonymous": false,
      "inputs": [],
      "name": "RegistrationStarted",
      "type": "event"
    },
    {
      "anonymous": false,
      "inputs": [
        {
          "indexed": true,
          "internalType": "address",
          "name": "from",
          "type": "address"
        },
        {
          "indexed": true,
          "internalType": "address",
          "name": "to",
          "type": "address"
        },
        {
          "indexed": false,
          "internalType": "uint256",
          "name": "value",
          "type": "uint256"
        }
      ],
      "name": "Transfer",
      "type": "event"
    },
    {
      "anonymous": false,
      "inputs": [
        {
          "indexed": true,
          "internalType": "string",
          "name": "_names",
          "type": "string"
        },
        {
          "indexed": true,
          "internalType": "string",
          "name": "_idNumber",
          "type": "string"
        }
      ],
      "name": "VerifyCandidateSuccess",
      "type": "event"
    },
    {
      "anonymous": false,
      "inputs": [
        {
          "indexed": true,
          "internalType": "address",
          "name": "voter",
          "type": "address"
        },
        {
          "indexed": false,
          "internalType": "string",
          "name": "_idNumber",
          "type": "string"
        },
        {
          "indexed": false,
          "internalType": "string",
          "name": "position",
          "type": "string"
        },
        {
          "indexed": false,
          "internalType": "uint256",
          "name": "candidateIndex",
          "type": "uint256"
        }
      ],
      "name": "VotedSuccess",
      "type": "event"
    },
    {
      "anonymous": false,
      "inputs": [
        {
          "indexed": true,
          "internalType": "string",
          "name": "_names",
          "type": "string"
        },
        {
          "indexed": false,
          "internalType": "uint256",
          "name": "_age",
          "type": "uint256"
        },
        {
          "indexed": true,
          "internalType": "string",
          "name": "_idNumber",
          "type": "string"
        }
      ],
      "name": "VoterRegistrationSuccess",
      "type": "event"
    },
    {
      "anonymous": false,
      "inputs": [],
      "name": "VotingStarted",
      "type": "event"
    },
    {
      "inputs": [],
      "name": "MAX_SUPPLY",
      "outputs": [
        {
          "internalType": "uint256",
          "name": "",
          "type": "uint256"
        }
      ],
      "stateMutability": "view",
      "type": "function"
    },
    {
      "inputs": [],
      "name": "REGISTER_AS_VOTER",
      "outputs": [
        {
          "internalType": "uint256",
          "name": "",
          "type": "uint256"
        }
      ],
      "stateMutability": "view",
      "type": "function"
    },
    {
      "inputs": [],
      "name": "VERIFY_CANDIDATE",
      "outputs": [
        {
          "internalType": "uint256",
          "name": "",
          "type": "uint256"
        }
      ],
      "stateMutability": "view",
      "type": "function"
    },
    {
      "inputs": [
        {
          "internalType": "string[]",
          "name": "_pNames",
          "type": "string[]"
        }
      ],
      "name": "addPositions",
      "outputs": [],
      "stateMutability": "nonpayable",
      "type": "function"
    },
    {
      "inputs": [
        {
          "internalType": "address",
          "name": "owner",
          "type": "address"
        },
        {
          "internalType": "address",
          "name": "spender",
          "type": "address"
        }
      ],
      "name": "allowance",
      "outputs": [
        {
          "internalType": "uint256",
          "name": "",
          "type": "uint256"
        }
      ],
      "stateMutability": "view",
      "type": "function"
    },
    {
      "inputs": [
        {
          "internalType": "address",
          "name": "spender",
          "type": "address"
        },
        {
          "internalType": "uint256",
          "name": "value",
          "type": "uint256"
        }
      ],
      "name": "approve",
      "outputs": [
        {
          "internalType": "bool",
          "name": "",
          "type": "bool"
        }
      ],
      "stateMutability": "nonpayable",
      "type": "function"
    },
    {
      "inputs": [
        {
          "internalType": "address",
          "name": "account",
          "type": "address"
        }
      ],
      "name": "balanceOf",
      "outputs": [
        {
          "internalType": "uint256",
          "name": "",
          "type": "uint256"
        }
      ],
      "stateMutability": "view",
      "type": "function"
    },
    {
      "inputs": [
        {
          "internalType": "string",
          "name": "",
          "type": "string"
        }
      ],
      "name": "candidateObject",
      "outputs": [
        {
          "internalType": "string",
          "name": "names",
          "type": "string"
        },
        {
          "internalType": "uint256",
          "name": "age",
          "type": "uint256"
        },
        {
          "internalType": "string",
          "name": "idNumber",
          "type": "string"
        },
        {
          "internalType": "string",
          "name": "party",
          "type": "string"
        },
        {
          "internalType": "uint256",
          "name": "votes",
          "type": "uint256"
        },
        {
          "internalType": "bool",
          "name": "verified",
          "type": "bool"
        }
      ],
      "stateMutability": "view",
      "type": "function"
    },
    {
      "inputs": [],
      "name": "decimals",
      "outputs": [
        {
          "internalType": "uint8",
          "name": "",
          "type": "uint8"
        }
      ],
      "stateMutability": "view",
      "type": "function"
    },
    {
      "inputs": [],
      "name": "endRegistrationAndStartVoting",
      "outputs": [],
      "stateMutability": "nonpayable",
      "type": "function"
    },
    {
      "inputs": [],
      "name": "getAllPositions",
      "outputs": [
        {
          "components": [
            {
              "internalType": "string",
              "name": "pName",
              "type": "string"
            },
            {
              "components": [
                {
                  "internalType": "string",
                  "name": "names",
                  "type": "string"
                },
                {
                  "internalType": "uint256",
                  "name": "age",
                  "type": "uint256"
                },
                {
                  "internalType": "string",
                  "name": "idNumber",
                  "type": "string"
                },
                {
                  "internalType": "string",
                  "name": "party",
                  "type": "string"
                },
                {
                  "internalType": "uint256",
                  "name": "votes",
                  "type": "uint256"
                },
                {
                  "internalType": "bool",
                  "name": "verified",
                  "type": "bool"
                }
              ],
              "internalType": "struct Voting.Candidate[]",
              "name": "candidates",
              "type": "tuple[]"
            }
          ],
          "internalType": "struct Voting.Position[]",
          "name": "",
          "type": "tuple[]"
        }
      ],
      "stateMutability": "view",
      "type": "function"
    },
    {
      "inputs": [],
      "name": "getPositionCount",
      "outputs": [
        {
          "internalType": "uint256",
          "name": "",
          "type": "uint256"
        }
      ],
      "stateMutability": "view",
      "type": "function"
    },
    {
      "inputs": [
        {
          "internalType": "uint256",
          "name": "",
          "type": "uint256"
        }
      ],
      "name": "listOfCandidates",
      "outputs": [
        {
          "internalType": "string",
          "name": "names",
          "type": "string"
        },
        {
          "internalType": "uint256",
          "name": "age",
          "type": "uint256"
        },
        {
          "internalType": "string",
          "name": "idNumber",
          "type": "string"
        },
        {
          "internalType": "string",
          "name": "party",
          "type": "string"
        },
        {
          "internalType": "uint256",
          "name": "votes",
          "type": "uint256"
        },
        {
          "internalType": "bool",
          "name": "verified",
          "type": "bool"
        }
      ],
      "stateMutability": "view",
      "type": "function"
    },
    {
      "inputs": [
        {
          "internalType": "uint256",
          "name": "",
          "type": "uint256"
        }
      ],
      "name": "listOfPositions",
      "outputs": [
        {
          "internalType": "string",
          "name": "pName",
          "type": "string"
        }
      ],
      "stateMutability": "view",
      "type": "function"
    },
    {
      "inputs": [
        {
          "internalType": "uint256",
          "name": "",
          "type": "uint256"
        }
      ],
      "name": "listOfVoters",
      "outputs": [
        {
          "internalType": "string",
          "name": "names",
          "type": "string"
        },
        {
          "internalType": "uint256",
          "name": "age",
          "type": "uint256"
        },
        {
          "internalType": "string",
          "name": "idNumber",
          "type": "string"
        },
        {
          "internalType": "bool",
          "name": "voted",
          "type": "bool"
        }
      ],
      "stateMutability": "view",
      "type": "function"
    },
    {
      "inputs": [],
      "name": "name",
      "outputs": [
        {
          "internalType": "string",
          "name": "",
          "type": "string"
        }
      ],
      "stateMutability": "view",
      "type": "function"
    },
    {
      "inputs": [],
      "name": "owner",
      "outputs": [
        {
          "internalType": "address",
          "name": "",
          "type": "address"
        }
      ],
      "stateMutability": "view",
      "type": "function"
    },
    {
      "inputs": [
        {
          "internalType": "string",
          "name": "",
          "type": "string"
        }
      ],
      "name": "positions",
      "outputs": [
        {
          "internalType": "string",
          "name": "pName",
          "type": "string"
        }
      ],
      "stateMutability": "view",
      "type": "function"
    },
    {
      "inputs": [
        {
          "internalType": "string",
          "name": "_names",
          "type": "string"
        },
        {
          "internalType": "uint256",
          "name": "_age",
          "type": "uint256"
        },
        {
          "internalType": "string",
          "name": "_idNumber",
          "type": "string"
        },
        {
          "internalType": "string",
          "name": "_party",
          "type": "string"
        }
      ],
      "name": "registerCandidate",
      "outputs": [],
      "stateMutability": "nonpayable",
      "type": "function"
    },
    {
      "inputs": [
        {
          "internalType": "string",
          "name": "_names",
          "type": "string"
        },
        {
          "internalType": "uint256",
          "name": "_age",
          "type": "uint256"
        },
        {
          "internalType": "string",
          "name": "_idNumber",
          "type": "string"
        }
      ],
      "name": "registerVoter",
      "outputs": [
        {
          "internalType": "bool",
          "name": "",
          "type": "bool"
        }
      ],
      "stateMutability": "nonpayable",
      "type": "function"
    },
    {
      "inputs": [],
      "name": "registrationStarted",
      "outputs": [
        {
          "internalType": "bool",
          "name": "",
          "type": "bool"
        }
      ],
      "stateMutability": "view",
      "type": "function"
    },
    {
      "inputs": [],
      "name": "startRegistration",
      "outputs": [],
      "stateMutability": "nonpayable",
      "type": "function"
    },
    {
      "inputs": [],
      "name": "symbol",
      "outputs": [
        {
          "internalType": "string",
          "name": "",
          "type": "string"
        }
      ],
      "stateMutability": "view",
      "type": "function"
    },
    {
      "inputs": [],
      "name": "totalSupply",
      "outputs": [
        {
          "internalType": "uint256",
          "name": "",
          "type": "uint256"
        }
      ],
      "stateMutability": "view",
      "type": "function"
    },
    {
      "inputs": [
        {
          "internalType": "address",
          "name": "to",
          "type": "address"
        },
        {
          "internalType": "uint256",
          "name": "value",
          "type": "uint256"
        }
      ],
      "name": "transfer",
      "outputs": [
        {
          "internalType": "bool",
          "name": "",
          "type": "bool"
        }
      ],
      "stateMutability": "nonpayable",
      "type": "function"
    },
    {
      "inputs": [
        {
          "internalType": "address",
          "name": "from",
          "type": "address"
        },
        {
          "internalType": "address",
          "name": "to",
          "type": "address"
        },
        {
          "internalType": "uint256",
          "name": "value",
          "type": "uint256"
        }
      ],
      "name": "transferFrom",
      "outputs": [
        {
          "internalType": "bool",
          "name": "",
          "type": "bool"
        }
      ],
      "stateMutability": "nonpayable",
      "type": "function"
    },
    {
      "inputs": [
        {
          "internalType": "string",
          "name": "_idNumber",
          "type": "string"
        }
      ],
      "name": "verifyCandidate",
      "outputs": [],
      "stateMutability": "nonpayable",
      "type": "function"
    },
    {
      "inputs": [
        {
          "internalType": "string",
          "name": "position",
          "type": "string"
        },
        {
          "internalType": "uint256",
          "name": "candidateIndex",
          "type": "uint256"
        }
      ],
      "name": "vote",
      "outputs": [],
      "stateMutability": "nonpayable",
      "type": "function"
    },
    {
      "inputs": [
        {
          "internalType": "string",
          "name": "",
          "type": "string"
        }
      ],
      "name": "voterObject",
      "outputs": [
        {
          "internalType": "string",
          "name": "names",
          "type": "string"
        },
        {
          "internalType": "uint256",
          "name": "age",
          "type": "uint256"
        },
        {
          "internalType": "string",
          "name": "idNumber",
          "type": "string"
        },
        {
          "internalType": "bool",
          "name": "voted",
          "type": "bool"
        }
      ],
      "stateMutability": "view",
      "type": "function"
    },
    {
      "inputs": [
        {
          "internalType": "address",
          "name": "",
          "type": "address"
        }
      ],
      "name": "voters",
      "outputs": [
        {
          "internalType": "string",
          "name": "names",
          "type": "string"
        },
        {
          "internalType": "uint256",
          "name": "age",
          "type": "uint256"
        },
        {
          "internalType": "string",
          "name": "idNumber",
          "type": "string"
        },
        {
          "internalType": "bool",
          "name": "voted",
          "type": "bool"
        }
      ],
      "stateMutability": "view",
      "type": "function"
    },
    {
      "inputs": [],
      "name": "votingStarted",
      "outputs": [
        {
          "internalType": "bool",
          "name": "",
          "type": "bool"
        }
      ],
      "stateMutability": "view",
      "type": "function"
    }
  ],
  "bytecode": "0x60806040526000600e60006101000a81548160ff0219169083151502179055506000600e60016101000a81548160ff02191690831515021790555034801561004657600080fd5b506040518060400160405280600581526020017f566f7465780000000000000000000000000000000000000000000000000000008152506040518060400160405280600481526020017f56544b4e0000000000000000000000000000000000000000000000000000000081525081600390816100c2919061036b565b5080600490816100d2919061036b565b50505033600560006101000a81548173ffffffffffffffffffffffffffffffffffffffff021916908373ffffffffffffffffffffffffffffffffffffffff16021790555061043d565b600081519050919050565b7f4e487b7100000000000000000000000000000000000000000000000000000000600052604160045260246000fd5b7f4e487b7100000000000000000000000000000000000000000000000000000000600052602260045260246000fd5b6000600282049050600182168061019c57607f821691505b6020821081036101af576101ae610155565b5b50919050565b60008190508160005260206000209050919050565b60006020601f8301049050919050565b600082821b905092915050565b6000600883026102177fffffffffffffffffffffffffffffffffffffffffffffffffffffffffffffffff826101da565b61022186836101da565b95508019841693508086168417925050509392505050565b6000819050919050565b6000819050919050565b600061026861026361025e84610239565b610243565b610239565b9050919050565b6000819050919050565b6102828361024d565b61029661028e8261026f565b8484546101e7565b825550505050565b600090565b6102ab61029e565b6102b6818484610279565b505050565b5b818110156102da576102cf6000826102a3565b6001810190506102bc565b5050565b601f82111561031f576102f0816101b5565b6102f9846101ca565b81016020851015610308578190505b61031c610314856101ca565b8301826102bb565b50505b505050565b600082821c905092915050565b600061034260001984600802610324565b1980831691505092915050565b600061035b8383610331565b9150826002028217905092915050565b6103748261011b565b67ffffffffffffffff81111561038d5761038c610126565b5b6103978254610184565b6103a28282856102de565b600060209050601f8311600181146103d557600084156103c3578287015190505b6103cd858261034f565b865550610435565b601f1984166103e3866101b5565b60005b8281101561040b578489015182556001820191506020850194506020810190506103e6565b868310156104285784890151610424601f891682610331565b8355505b6001600288020188555050505b505050505050565b6149918061044c6000396000f3fe608060405234801561001057600080fd5b50600436106101e55760003560e01c806371565d2e1161010f5780639dfa9065116100a2578063abceaad211610071578063abceaad2146105d1578063be94ced7146105ed578063dd62ed3e1461060b578063ffdd74961461063b576101e5565b80639dfa906514610536578063a3ec138d14610552578063a638580314610585578063a9059cbb146105a1576101e5565b80638da5cb5b116100de5780638da5cb5b1461049257806392d7df4a146104b057806395d89b41146104e55780639a53cbea14610503576101e5565b806371565d2e1461040a57806371a6f46514610426578063816834761461045657806383d948b714610474576101e5565b806327aed42e1161018757806355d5d6111161015657806355d5d611146103705780636636b91e1461037a578063676f86b0146103aa57806370a08231146103da576101e5565b806327aed42e146102e3578063313ce5671461030157806332cb6b0c1461031f5780634a66e1ab1461033d576101e5565b806318160ddd116101c357806318160ddd1461024257806318f56a0a146102605780631c64a33e1461027e57806323b872dd146102b3576101e5565b806306fdde03146101ea578063095ea7b31461020857806310b8669514610238575b600080fd5b6101f2610659565b6040516101ff9190613004565b60405180910390f35b610222600480360381019061021d91906130ce565b6106eb565b60405161022f9190613129565b60405180910390f35b61024061070e565b005b61024a610887565b6040516102579190613153565b60405180910390f35b610268610891565b6040516102759190613435565b60405180910390f35b6102986004803603810190610293919061358c565b610bc6565b6040516102aa969594939291906135d5565b60405180910390f35b6102cd60048036038101906102c8919061364b565b610dbd565b6040516102da9190613129565b60405180910390f35b6102eb610dec565b6040516102f89190613129565b60405180910390f35b610309610dff565b60405161031691906136ba565b60405180910390f35b610327610e08565b6040516103349190613153565b60405180910390f35b6103576004803603810190610352919061358c565b610e16565b60405161036794939291906136d5565b60405180910390f35b610378610f79565b005b610394600480360381019061038f9190613728565b611138565b6040516103a19190613129565b60405180910390f35b6103c460048036038101906103bf919061358c565b611488565b6040516103d19190613004565b60405180910390f35b6103f460048036038101906103ef91906137b3565b611544565b6040516104019190613153565b60405180910390f35b610424600480360381019061041f91906137e0565b61158c565b005b610440600480360381019061043b919061389b565b6118e8565b60405161044d9190613004565b60405180910390f35b61045e61199e565b60405161046b9190613153565b60405180910390f35b61047c6119ab565b6040516104899190613129565b60405180910390f35b61049a6119be565b6040516104a791906138d7565b60405180910390f35b6104ca60048036038101906104c5919061389b565b6119e4565b6040516104dc969594939291906135d5565b60405180910390f35b6104ed611bd5565b6040516104fa9190613004565b60405180910390f35b61051d6004803603810190610518919061389b565b611c67565b60405161052d94939291906136d5565b60405180910390f35b610550600480360381019061054b919061358c565b611dc4565b005b61056c600480360381019061056791906137b3565b611f8b565b60405161057c94939291906136d5565b60405180910390f35b61059f600480360381019061059a91906138f2565b6120d8565b005b6105bb60048036038101906105b691906130ce565b6123ac565b6040516105c89190613129565b60405180910390f35b6105eb60048036038101906105e69190613a34565b6123cf565b005b6105f5612667565b6040516106029190613153565b60405180910390f35b61062560048036038101906106209190613a7d565b612673565b6040516106329190613153565b60405180910390f35b6106436126fa565b6040516106509190613153565b60405180910390f35b60606003805461066890613aec565b80601f016020809104026020016040519081016040528092919081815260200182805461069490613aec565b80156106e15780601f106106b6576101008083540402835291602001916106e1565b820191906000526020600020905b8154815290600101906020018083116106c457829003601f168201915b5050505050905090565b6000806106f6612706565b905061070381858561270e565b600191505092915050565b600560009054906101000a900473ffffffffffffffffffffffffffffffffffffffff1673ffffffffffffffffffffffffffffffffffffffff163373ffffffffffffffffffffffffffffffffffffffff161461079e576040517f08c379a000000000000000000000000000000000000000000000000000000000815260040161079590613b69565b60405180910390fd5b600e60009054906101000a900460ff16156107ee576040517f08c379a00000000000000000000000000000000000000000000000000000000081526004016107e590613bfb565b60405180910390fd5b600e60019054906101000a900460ff161561083e576040517f08c379a000000000000000000000000000000000000000000000000000000000815260040161083590613c8d565b60405180910390fd5b6001600e60006101000a81548160ff0219169083151502179055507f82e6c84abd647d1b4fae9bee1859f2642e5443af0ff900d4af83a93c2bf4151260405160405180910390a1565b6000600254905090565b60606008805480602002602001604051908101604052809291908181526020016000905b82821015610bbd57838290600052602060002090600202016040518060400160405290816000820180546108e890613aec565b80601f016020809104026020016040519081016040528092919081815260200182805461091490613aec565b80156109615780601f1061093657610100808354040283529160200191610961565b820191906000526020600020905b81548152906001019060200180831161094457829003601f168201915b5050505050815260200160018201805480602002602001604051908101604052809291908181526020016000905b82821015610ba657838290600052602060002090600602016040518060c00160405290816000820180546109c290613aec565b80601f01602080910402602001604051908101604052809291908181526020018280546109ee90613aec565b8015610a3b5780601f10610a1057610100808354040283529160200191610a3b565b820191906000526020600020905b815481529060010190602001808311610a1e57829003601f168201915b5050505050815260200160018201548152602001600282018054610a5e90613aec565b80601f0160208091040260200160405190810160405280929190818152602001828054610a8a90613aec565b8015610ad75780601f10610aac57610100808354040283529160200191610ad7565b820191906000526020600020905b815481529060010190602001808311610aba57829003601f168201915b50505050508152602001600382018054610af090613aec565b80601f0160208091040260200160405190810160405280929190818152602001828054610b1c90613aec565b8015610b695780601f10610b3e57610100808354040283529160200191610b69565b820191906000526020600020905b815481529060010190602001808311610b4c57829003601f168201915b50505050508152602001600482015481526020016005820160009054906101000a900460ff1615151515815250508152602001906001019061098f565b5050505081525050815260200190600101906108b5565b50505050905090565b600a81805160208101820180518482526020830160208501208183528095505050505050600091509050806000018054610bff90613aec565b80601f0160208091040260200160405190810160405280929190818152602001828054610c2b90613aec565b8015610c785780601f10610c4d57610100808354040283529160200191610c78565b820191906000526020600020905b815481529060010190602001808311610c5b57829003601f168201915b505050505090806001015490806002018054610c9390613aec565b80601f0160208091040260200160405190810160405280929190818152602001828054610cbf90613aec565b8015610d0c5780601f10610ce157610100808354040283529160200191610d0c565b820191906000526020600020905b815481529060010190602001808311610cef57829003601f168201915b505050505090806003018054610d2190613aec565b80601f0160208091040260200160405190810160405280929190818152602001828054610d4d90613aec565b8015610d9a5780601f10610d6f57610100808354040283529160200191610d9a565b820191906000526020600020905b815481529060010190602001808311610d7d57829003601f168201915b5050505050908060040154908060050160009054906101000a900460ff16905086565b600080610dc8612706565b9050610dd5858285612720565b610de08585856127b4565b60019150509392505050565b600e60009054906101000a900460ff1681565b60006012905090565b69d3c21bcecceda100000081565b600981805160208101820180518482526020830160208501208183528095505050505050600091509050806000018054610e4f90613aec565b80601f0160208091040260200160405190810160405280929190818152602001828054610e7b90613aec565b8015610ec85780601f10610e9d57610100808354040283529160200191610ec8565b820191906000526020600020905b815481529060010190602001808311610eab57829003601f168201915b505050505090806001015490806002018054610ee390613aec565b80601f0160208091040260200160405190810160405280929190818152602001828054610f0f90613aec565b8015610f5c5780601f10610f3157610100808354040283529160200191610f5c565b820191906000526020600020905b815481529060010190602001808311610f3f57829003601f168201915b5050505050908060030160009054906101000a900460ff16905084565b600560009054906101000a900473ffffffffffffffffffffffffffffffffffffffff1673ffffffffffffffffffffffffffffffffffffffff163373ffffffffffffffffffffffffffffffffffffffff1614611009576040517f08c379a000000000000000000000000000000000000000000000000000000000815260040161100090613b69565b60405180910390fd5b600e60009054906101000a900460ff16611058576040517f08c379a000000000000000000000000000000000000000000000000000000000815260040161104f90613d1f565b60405180910390fd5b600e60019054906101000a900460ff16156110a8576040517f08c379a000000000000000000000000000000000000000000000000000000000815260040161109f90613d8b565b60405180910390fd5b6000600e60006101000a81548160ff0219169083151502179055506001600e60016101000a81548160ff0219169083151502179055507f2ee88f50f05558e39b34a18214ff6a6adc091504772084c6ce7899354bec0aa460405160405180910390a17f877e2548498f42b7975a186b94ef1d32c86d420b7b806dd2be2bea293b89590460405160405180910390a1565b6000600e60009054906101000a900460ff16611189576040517f08c379a000000000000000000000000000000000000000000000000000000000815260040161118090613d1f565b60405180910390fd5b600e60019054906101000a900460ff16156111d9576040517f08c379a00000000000000000000000000000000000000000000000000000000081526004016111d090613e1d565b60405180910390fd5b60006009836040516111eb9190613e79565b9081526020016040518091039020600001805461120790613aec565b905014611249576040517f08c379a000000000000000000000000000000000000000000000000000000000815260040161124090613edc565b60405180910390fd5b60006040518060800160405280868152602001858152602001848152602001600015158152509050600681908060018154018082558091505060019003906000526020600020906004020160009091909190915060008201518160000190816112b291906140a8565b506020820151816001015560408201518160020190816112d291906140a8565b5060608201518160030160006101000a81548160ff0219169083151502179055505050806009846040516113069190613e79565b9081526020016040518091039020600082015181600001908161132991906140a8565b5060208201518160010155604082015181600201908161134991906140a8565b5060608201518160030160006101000a81548160ff02191690831515021790555090505080600c60003373ffffffffffffffffffffffffffffffffffffffff1673ffffffffffffffffffffffffffffffffffffffff16815260200190815260200160002060008201518160000190816113c291906140a8565b506020820151816001015560408201518160020190816113e291906140a8565b5060608201518160030160006101000a81548160ff02191690831515021790555090505061141833674563918244f400006128a8565b50826040516114279190613e79565b60405180910390208560405161143d9190613e79565b60405180910390207f754a5f7c9336f3562d73dacebf51de10da957ae9dfcae4fbfb93733ece3dd5aa866040516114749190613153565b60405180910390a360019150509392505050565b600b818051602081018201805184825260208301602085012081835280955050505050506000915090508060000180546114c190613aec565b80601f01602080910402602001604051908101604052809291908181526020018280546114ed90613aec565b801561153a5780601f1061150f5761010080835404028352916020019161153a565b820191906000526020600020905b81548152906001019060200180831161151d57829003601f168201915b5050505050905081565b60008060008373ffffffffffffffffffffffffffffffffffffffff1673ffffffffffffffffffffffffffffffffffffffff168152602001908152602001600020549050919050565b600e60009054906101000a900460ff166115db576040517f08c379a00000000000000000000000000000000000000000000000000000000081526004016115d290613d1f565b60405180910390fd5b600e60019054906101000a900460ff161561162b576040517f08c379a000000000000000000000000000000000000000000000000000000000815260040161162290613e1d565b60405180910390fd5b6000600a8360405161163d9190613e79565b9081526020016040518091039020600001805461165990613aec565b90501461169b576040517f08c379a0000000000000000000000000000000000000000000000000000000008152600401611692906141c6565b60405180910390fd5b60006009836040516116ad9190613e79565b908152602001604051809103902060000180546116c990613aec565b90500361170b576040517f08c379a000000000000000000000000000000000000000000000000000000000815260040161170290614232565b60405180910390fd5b60006040518060c00160405280868152602001858152602001848152602001838152602001600081526020016000151581525090506007819080600181540180825580915050600190039060005260206000209060060201600090919091909150600082015181600001908161178191906140a8565b506020820151816001015560408201518160020190816117a191906140a8565b5060608201518160030190816117b791906140a8565b506080820151816004015560a08201518160050160006101000a81548160ff021916908315150217905550505080600a846040516117f59190613e79565b9081526020016040518091039020600082015181600001908161181891906140a8565b5060208201518160010155604082015181600201908161183891906140a8565b50606082015181600301908161184e91906140a8565b506080820151816004015560a08201518160050160006101000a81548160ff0219169083151502179055509050508260405161188a9190613e79565b6040518091039020856040516118a09190613e79565b60405180910390207f8afd5f09f2c1c39b88e6ee97fcf10294be6e0486fd829b85f61d0ab7aa008acd86856040516118d9929190614252565b60405180910390a35050505050565b600881815481106118f857600080fd5b906000526020600020906002020160009150905080600001805461191b90613aec565b80601f016020809104026020016040519081016040528092919081815260200182805461194790613aec565b80156119945780601f1061196957610100808354040283529160200191611994565b820191906000526020600020905b81548152906001019060200180831161197757829003601f168201915b5050505050905081565b6000600880549050905090565b600e60019054906101000a900460ff1681565b600560009054906101000a900473ffffffffffffffffffffffffffffffffffffffff1681565b600781815481106119f457600080fd5b9060005260206000209060060201600091509050806000018054611a1790613aec565b80601f0160208091040260200160405190810160405280929190818152602001828054611a4390613aec565b8015611a905780601f10611a6557610100808354040283529160200191611a90565b820191906000526020600020905b815481529060010190602001808311611a7357829003601f168201915b505050505090806001015490806002018054611aab90613aec565b80601f0160208091040260200160405190810160405280929190818152602001828054611ad790613aec565b8015611b245780601f10611af957610100808354040283529160200191611b24565b820191906000526020600020905b815481529060010190602001808311611b0757829003601f168201915b505050505090806003018054611b3990613aec565b80601f0160208091040260200160405190810160405280929190818152602001828054611b6590613aec565b8015611bb25780601f10611b8757610100808354040283529160200191611bb2565b820191906000526020600020905b815481529060010190602001808311611b9557829003601f168201915b5050505050908060040154908060050160009054906101000a900460ff16905086565b606060048054611be490613aec565b80601f0160208091040260200160405190810160405280929190818152602001828054611c1090613aec565b8015611c5d5780601f10611c3257610100808354040283529160200191611c5d565b820191906000526020600020905b815481529060010190602001808311611c4057829003601f168201915b5050505050905090565b60068181548110611c7757600080fd5b9060005260206000209060040201600091509050806000018054611c9a90613aec565b80601f0160208091040260200160405190810160405280929190818152602001828054611cc690613aec565b8015611d135780601f10611ce857610100808354040283529160200191611d13565b820191906000526020600020905b815481529060010190602001808311611cf657829003601f168201915b505050505090806001015490806002018054611d2e90613aec565b80601f0160208091040260200160405190810160405280929190818152602001828054611d5a90613aec565b8015611da75780601f10611d7c57610100808354040283529160200191611da7565b820191906000526020600020905b815481529060010190602001808311611d8a57829003601f168201915b5050505050908060030160009054906101000a900460ff16905084565b600560009054906101000a900473ffffffffffffffffffffffffffffffffffffffff1673ffffffffffffffffffffffffffffffffffffffff163373ffffffffffffffffffffffffffffffffffffffff1614611e54576040517f08c379a0000000000000000000000000000000000000000000000000000000008152600401611e4b90613b69565b60405180910390fd5b600a81604051611e649190613e79565b908152602001604051809103902060050160009054906101000a900460ff1615611ec3576040517f08c379a0000000000000000000000000000000000000000000000000000000008152600401611eba906142ce565b60405180910390fd5b6001600a82604051611ed59190613e79565b908152602001604051809103902060050160006101000a81548160ff021916908315150217905550611f0f33678ac7230489e800006128a8565b5080604051611f1e9190613e79565b6040518091039020600a82604051611f369190613e79565b9081526020016040518091039020600001604051611f549190614371565b60405180910390207fb78543f054c768084f86f0e559d1e007998ca69729eeffc4b727baa388934a3260405160405180910390a350565b600c602052806000526040600020600091509050806000018054611fae90613aec565b80601f0160208091040260200160405190810160405280929190818152602001828054611fda90613aec565b80156120275780601f10611ffc57610100808354040283529160200191612027565b820191906000526020600020905b81548152906001019060200180831161200a57829003601f168201915b50505050509080600101549080600201805461204290613aec565b80601f016020809104026020016040519081016040528092919081815260200182805461206e90613aec565b80156120bb5780601f10612090576101008083540402835291602001916120bb565b820191906000526020600020905b81548152906001019060200180831161209e57829003601f168201915b5050505050908060030160009054906101000a900460ff16905084565b600e60009054906101000a900460ff1615612128576040517f08c379a000000000000000000000000000000000000000000000000000000000815260040161211f906143fa565b60405180910390fd5b600e60019054906101000a900460ff16612177576040517f08c379a000000000000000000000000000000000000000000000000000000000815260040161216e90614466565b60405180910390fd5b6000600c60003373ffffffffffffffffffffffffffffffffffffffff1673ffffffffffffffffffffffffffffffffffffffff16815260200190815260200160002090508060030160009054906101000a900460ff161561220c576040517f08c379a0000000000000000000000000000000000000000000000000000000008152600401612203906144d2565b60405180910390fd5b6000600b8460405161221e9190613e79565b90815260200160405180910390206001018054905011612273576040517f08c379a000000000000000000000000000000000000000000000000000000000815260040161226a9061453e565b60405180910390fd5b600b836040516122839190613e79565b90815260200160405180910390206001018054905082106122d9576040517f08c379a00000000000000000000000000000000000000000000000000000000081526004016122d0906145aa565b60405180910390fd5b6001600b846040516122eb9190613e79565b9081526020016040518091039020600101838154811061230e5761230d6145ca565b5b9060005260206000209060060201600401600082825461232e9190614628565b9250508190555060018160030160006101000a81548160ff0219169083151502179055503373ffffffffffffffffffffffffffffffffffffffff167f477d7faf347a03679fabd88feea150c41667473fc8412962f607fb7503f1bd4382600201858560405161239f939291906146e0565b60405180910390a2505050565b6000806123b7612706565b90506123c48185856127b4565b600191505092915050565b600560009054906101000a900473ffffffffffffffffffffffffffffffffffffffff1673ffffffffffffffffffffffffffffffffffffffff163373ffffffffffffffffffffffffffffffffffffffff161461245f576040517f08c379a000000000000000000000000000000000000000000000000000000000815260040161245690613b69565b60405180910390fd5b60005b815181101561266357600d8282815181106124805761247f6145ca565b5b60200260200101516040516124959190613e79565b908152602001604051809103902060009054906101000a900460ff16156124f1576040517f08c379a00000000000000000000000000000000000000000000000000000000081526004016124e890614771565b60405180910390fd5b6000600b838381518110612508576125076145ca565b5b602002602001015160405161251d9190613e79565b908152602001604051809103902090508282815181106125405761253f6145ca565b5b602002602001015181600001908161255891906140a8565b5060088190806001815401808255809150506001900390600052602060002090600202016000909190919091506000820181600001908161259991906147a7565b5060018201816001019080546125b0929190612dd4565b5050506001600d8484815181106125ca576125c96145ca565b5b60200260200101516040516125df9190613e79565b908152602001604051809103902060006101000a81548160ff0219169083151502179055507ff635339f4b5986d632e76f25211c57346b4b4ca3aa13c1ba323ac12563731456838381518110612638576126376145ca565b5b602002602001015160405161264d9190613004565b60405180910390a1508080600101915050612462565b5050565b674563918244f4000081565b6000600160008473ffffffffffffffffffffffffffffffffffffffff1673ffffffffffffffffffffffffffffffffffffffff16815260200190815260200160002060008373ffffffffffffffffffffffffffffffffffffffff1673ffffffffffffffffffffffffffffffffffffffff16815260200190815260200160002054905092915050565b678ac7230489e8000081565b600033905090565b61271b8383836001612956565b505050565b600061272c8484612673565b90507fffffffffffffffffffffffffffffffffffffffffffffffffffffffffffffffff81146127ae578181101561279e578281836040517ffb8f41b20000000000000000000000000000000000000000000000000000000081526004016127959392919061488f565b60405180910390fd5b6127ad84848484036000612956565b5b50505050565b600073ffffffffffffffffffffffffffffffffffffffff168373ffffffffffffffffffffffffffffffffffffffff16036128265760006040517f96c6fd1e00000000000000000000000000000000000000000000000000000000815260040161281d91906138d7565b60405180910390fd5b600073ffffffffffffffffffffffffffffffffffffffff168273ffffffffffffffffffffffffffffffffffffffff16036128985760006040517fec442f0500000000000000000000000000000000000000000000000000000000815260040161288f91906138d7565b60405180910390fd5b6128a3838383612b2d565b505050565b600069d3c21bcecceda10000006128bd610887565b836128c89190614628565b1115612909576040517f08c379a000000000000000000000000000000000000000000000000000000000815260040161290090614912565b60405180910390fd5b6129138383612d52565b7fcda531bfd68624f13205c0a23cd4d5a7f09792cbb399603114f2b04aaa1bf5cf8383604051612944929190614932565b60405180910390a16001905092915050565b600073ffffffffffffffffffffffffffffffffffffffff168473ffffffffffffffffffffffffffffffffffffffff16036129c85760006040517fe602df050000000000000000000000000000000000000000000000000000000081526004016129bf91906138d7565b60405180910390fd5b600073ffffffffffffffffffffffffffffffffffffffff168373ffffffffffffffffffffffffffffffffffffffff1603612a3a5760006040517f94280d62000000000000000000000000000000000000000000000000000000008152600401612a3191906138d7565b60405180910390fd5b81600160008673ffffffffffffffffffffffffffffffffffffffff1673ffffffffffffffffffffffffffffffffffffffff16815260200190815260200160002060008573ffffffffffffffffffffffffffffffffffffffff1673ffffffffffffffffffffffffffffffffffffffff168152602001908152602001600020819055508015612b27578273ffffffffffffffffffffffffffffffffffffffff168473ffffffffffffffffffffffffffffffffffffffff167f8c5be1e5ebec7d5bd14f71427d1e84f3dd0314c0f7b2291e5b200ac8c7c3b92584604051612b1e9190613153565b60405180910390a35b50505050565b600073ffffffffffffffffffffffffffffffffffffffff168373ffffffffffffffffffffffffffffffffffffffff1603612b7f578060026000828254612b739190614628565b92505081905550612c52565b60008060008573ffffffffffffffffffffffffffffffffffffffff1673ffffffffffffffffffffffffffffffffffffffff16815260200190815260200160002054905081811015612c0b578381836040517fe450d38c000000000000000000000000000000000000000000000000000000008152600401612c029392919061488f565b60405180910390fd5b8181036000808673ffffffffffffffffffffffffffffffffffffffff1673ffffffffffffffffffffffffffffffffffffffff16815260200190815260200160002081905550505b600073ffffffffffffffffffffffffffffffffffffffff168273ffffffffffffffffffffffffffffffffffffffff1603612c9b5780600260008282540392505081905550612ce8565b806000808473ffffffffffffffffffffffffffffffffffffffff1673ffffffffffffffffffffffffffffffffffffffff168152602001908152602001600020600082825401925050819055505b8173ffffffffffffffffffffffffffffffffffffffff168373ffffffffffffffffffffffffffffffffffffffff167fddf252ad1be2c89b69c2b068fc378daa952ba7f163c4a11628f55a4df523b3ef83604051612d459190613153565b60405180910390a3505050565b600073ffffffffffffffffffffffffffffffffffffffff168273ffffffffffffffffffffffffffffffffffffffff1603612dc45760006040517fec442f05000000000000000000000000000000000000000000000000000000008152600401612dbb91906138d7565b60405180910390fd5b612dd060008383612b2d565b5050565b828054828255906000526020600020906006028101928215612e9b5760005260206000209160060282015b82811115612e9a57828260008201816000019081612e1d91906147a7565b506001820154816001015560028201816002019081612e3c91906147a7565b5060038201816003019081612e5191906147a7565b50600482015481600401556005820160009054906101000a900460ff168160050160006101000a81548160ff021916908315150217905550505091600601919060060190612dff565b5b509050612ea89190612eac565b5090565b5b80821115612f135760008082016000612ec69190612f17565b6001820160009055600282016000612ede9190612f17565b600382016000612eee9190612f17565b60048201600090556005820160006101000a81549060ff021916905550600601612ead565b5090565b508054612f2390613aec565b6000825580601f10612f355750612f54565b601f016020900490600052602060002090810190612f539190612f57565b5b50565b5b80821115612f70576000816000905550600101612f58565b5090565b600081519050919050565b600082825260208201905092915050565b60005b83811015612fae578082015181840152602081019050612f93565b60008484015250505050565b6000601f19601f8301169050919050565b6000612fd682612f74565b612fe08185612f7f565b9350612ff0818560208601612f90565b612ff981612fba565b840191505092915050565b6000602082019050818103600083015261301e8184612fcb565b905092915050565b6000604051905090565b600080fd5b600080fd5b600073ffffffffffffffffffffffffffffffffffffffff82169050919050565b60006130658261303a565b9050919050565b6130758161305a565b811461308057600080fd5b50565b6000813590506130928161306c565b92915050565b6000819050919050565b6130ab81613098565b81146130b657600080fd5b50565b6000813590506130c8816130a2565b92915050565b600080604083850312156130e5576130e4613030565b5b60006130f385828601613083565b9250506020613104858286016130b9565b9150509250929050565b60008115159050919050565b6131238161310e565b82525050565b600060208201905061313e600083018461311a565b92915050565b61314d81613098565b82525050565b60006020820190506131686000830184613144565b92915050565b600081519050919050565b600082825260208201905092915050565b6000819050602082019050919050565b600082825260208201905092915050565b60006131b682612f74565b6131c0818561319a565b93506131d0818560208601612f90565b6131d981612fba565b840191505092915050565b600081519050919050565b600082825260208201905092915050565b6000819050602082019050919050565b61321981613098565b82525050565b6132288161310e565b82525050565b600060c083016000830151848203600086015261324b82826131ab565b91505060208301516132606020860182613210565b506040830151848203604086015261327882826131ab565b9150506060830151848203606086015261329282826131ab565b91505060808301516132a76080860182613210565b5060a08301516132ba60a086018261321f565b508091505092915050565b60006132d1838361322e565b905092915050565b6000602082019050919050565b60006132f1826131e4565b6132fb81856131ef565b93508360208202850161330d85613200565b8060005b85811015613349578484038952815161332a85826132c5565b9450613335836132d9565b925060208a01995050600181019050613311565b50829750879550505050505092915050565b6000604083016000830151848203600086015261337882826131ab565b9150506020830151848203602086015261339282826132e6565b9150508091505092915050565b60006133ab838361335b565b905092915050565b6000602082019050919050565b60006133cb8261316e565b6133d58185613179565b9350836020820285016133e78561318a565b8060005b858110156134235784840389528151613404858261339f565b945061340f836133b3565b925060208a019950506001810190506133eb565b50829750879550505050505092915050565b6000602082019050818103600083015261344f81846133c0565b905092915050565b600080fd5b600080fd5b7f4e487b7100000000000000000000000000000000000000000000000000000000600052604160045260246000fd5b61349982612fba565b810181811067ffffffffffffffff821117156134b8576134b7613461565b5b80604052505050565b60006134cb613026565b90506134d78282613490565b919050565b600067ffffffffffffffff8211156134f7576134f6613461565b5b61350082612fba565b9050602081019050919050565b82818337600083830152505050565b600061352f61352a846134dc565b6134c1565b90508281526020810184848401111561354b5761354a61345c565b5b61355684828561350d565b509392505050565b600082601f83011261357357613572613457565b5b813561358384826020860161351c565b91505092915050565b6000602082840312156135a2576135a1613030565b5b600082013567ffffffffffffffff8111156135c0576135bf613035565b5b6135cc8482850161355e565b91505092915050565b600060c08201905081810360008301526135ef8189612fcb565b90506135fe6020830188613144565b81810360408301526136108187612fcb565b905081810360608301526136248186612fcb565b90506136336080830185613144565b61364060a083018461311a565b979650505050505050565b60008060006060848603121561366457613663613030565b5b600061367286828701613083565b935050602061368386828701613083565b9250506040613694868287016130b9565b9150509250925092565b600060ff82169050919050565b6136b48161369e565b82525050565b60006020820190506136cf60008301846136ab565b92915050565b600060808201905081810360008301526136ef8187612fcb565b90506136fe6020830186613144565b81810360408301526137108185612fcb565b905061371f606083018461311a565b95945050505050565b60008060006060848603121561374157613740613030565b5b600084013567ffffffffffffffff81111561375f5761375e613035565b5b61376b8682870161355e565b935050602061377c868287016130b9565b925050604084013567ffffffffffffffff81111561379d5761379c613035565b5b6137a98682870161355e565b9150509250925092565b6000602082840312156137c9576137c8613030565b5b60006137d784828501613083565b91505092915050565b600080600080608085870312156137fa576137f9613030565b5b600085013567ffffffffffffffff81111561381857613817613035565b5b6138248782880161355e565b9450506020613835878288016130b9565b935050604085013567ffffffffffffffff81111561385657613855613035565b5b6138628782880161355e565b925050606085013567ffffffffffffffff81111561388357613882613035565b5b61388f8782880161355e565b91505092959194509250565b6000602082840312156138b1576138b0613030565b5b60006138bf848285016130b9565b91505092915050565b6138d18161305a565b82525050565b60006020820190506138ec60008301846138c8565b92915050565b6000806040838503121561390957613908613030565b5b600083013567ffffffffffffffff81111561392757613926613035565b5b6139338582860161355e565b9250506020613944858286016130b9565b9150509250929050565b600067ffffffffffffffff82111561396957613968613461565b5b602082029050602081019050919050565b600080fd5b600061399261398d8461394e565b6134c1565b905080838252602082019050602084028301858111156139b5576139b461397a565b5b835b818110156139fc57803567ffffffffffffffff8111156139da576139d9613457565b5b8086016139e7898261355e565b855260208501945050506020810190506139b7565b5050509392505050565b600082601f830112613a1b57613a1a613457565b5b8135613a2b84826020860161397f565b91505092915050565b600060208284031215613a4a57613a49613030565b5b600082013567ffffffffffffffff811115613a6857613a67613035565b5b613a7484828501613a06565b91505092915050565b60008060408385031215613a9457613a93613030565b5b6000613aa285828601613083565b9250506020613ab385828601613083565b9150509250929050565b7f4e487b7100000000000000000000000000000000000000000000000000000000600052602260045260246000fd5b60006002820490506001821680613b0457607f821691505b602082108103613b1757613b16613abd565b5b50919050565b7f596f7520617265206e6f7420746865206f776e65722100000000000000000000600082015250565b6000613b53601683612f7f565b9150613b5e82613b1d565b602082019050919050565b60006020820190508181036000830152613b8281613b46565b9050919050565b7f526567697374726174696f6e2068617320616c7265616479207374617274656460008201527f2e00000000000000000000000000000000000000000000000000000000000000602082015250565b6000613be5602183612f7f565b9150613bf082613b89565b604082019050919050565b60006020820190508181036000830152613c1481613bd8565b9050919050565b7f43616e6e6f7420737461727420726567697374726174696f6e2061667465722060008201527f766f74696e672068617320626567756e2e000000000000000000000000000000602082015250565b6000613c77603183612f7f565b9150613c8282613c1b565b604082019050919050565b60006020820190508181036000830152613ca681613c6a565b9050919050565b7f526567697374726174696f6e20706572696f6420686173206e6f74207374617260008201527f7465642e00000000000000000000000000000000000000000000000000000000602082015250565b6000613d09602483612f7f565b9150613d1482613cad565b604082019050919050565b60006020820190508181036000830152613d3881613cfc565b9050919050565b7f566f74696e672068617320616c726561647920737461727465642e0000000000600082015250565b6000613d75601b83612f7f565b9150613d8082613d3f565b602082019050919050565b60006020820190508181036000830152613da481613d68565b9050919050565b7f43616e6e6f7420726567697374657220647572696e6720766f74696e6720706560008201527f72696f642e000000000000000000000000000000000000000000000000000000602082015250565b6000613e07602583612f7f565b9150613e1282613dab565b604082019050919050565b60006020820190508181036000830152613e3681613dfa565b9050919050565b600081905092915050565b6000613e5382612f74565b613e5d8185613e3d565b9350613e6d818560208601612f90565b80840191505092915050565b6000613e858284613e48565b915081905092915050565b7f566f74657220616c726561647920657869737473210000000000000000000000600082015250565b6000613ec6601583612f7f565b9150613ed182613e90565b602082019050919050565b60006020820190508181036000830152613ef581613eb9565b9050919050565b60008190508160005260206000209050919050565b60006020601f8301049050919050565b600082821b905092915050565b600060088302613f5e7fffffffffffffffffffffffffffffffffffffffffffffffffffffffffffffffff82613f21565b613f688683613f21565b95508019841693508086168417925050509392505050565b6000819050919050565b6000613fa5613fa0613f9b84613098565b613f80565b613098565b9050919050565b6000819050919050565b613fbf83613f8a565b613fd3613fcb82613fac565b848454613f2e565b825550505050565b600090565b613fe8613fdb565b613ff3818484613fb6565b505050565b5b818110156140175761400c600082613fe0565b600181019050613ff9565b5050565b601f82111561405c5761402d81613efc565b61403684613f11565b81016020851015614045578190505b61405961405185613f11565b830182613ff8565b50505b505050565b600082821c905092915050565b600061407f60001984600802614061565b1980831691505092915050565b6000614098838361406e565b9150826002028217905092915050565b6140b182612f74565b67ffffffffffffffff8111156140ca576140c9613461565b5b6140d48254613aec565b6140df82828561401b565b600060209050601f8311600181146141125760008415614100578287015190505b61410a858261408c565b865550614172565b601f19841661412086613efc565b60005b8281101561414857848901518255600182019150602085019450602081019050614123565b868310156141655784890151614161601f89168261406e565b8355505b6001600288020188555050505b505050505050565b7f43616e64696461746520616c7265616479206578697374732100000000000000600082015250565b60006141b0601983612f7f565b91506141bb8261417a565b602082019050919050565b600060208201905081810360008301526141df816141a3565b9050919050565b7f596f75206d7573742062652061207265676973746572656420766f7465722100600082015250565b600061421c601f83612f7f565b9150614227826141e6565b602082019050919050565b6000602082019050818103600083015261424b8161420f565b9050919050565b60006040820190506142676000830185613144565b81810360208301526142798184612fcb565b90509392505050565b7f43616e64696461746520616c7265616479207665726966696564210000000000600082015250565b60006142b8601b83612f7f565b91506142c382614282565b602082019050919050565b600060208201905081810360008301526142e7816142ab565b9050919050565b600081546142fb81613aec565b6143058186613e3d565b94506001821660008114614320576001811461433557614368565b60ff1983168652811515820286019350614368565b61433e85613efc565b60005b8381101561436057815481890152600182019150602081019050614341565b838801955050505b50505092915050565b600061437d82846142ee565b915081905092915050565b7f526567697374726174696f6e20706572696f64206973207374696c6c2061637460008201527f6976652e00000000000000000000000000000000000000000000000000000000602082015250565b60006143e4602483612f7f565b91506143ef82614388565b604082019050919050565b60006020820190508181036000830152614413816143d7565b9050919050565b7f566f74696e6720686173206e6f742073746172746564207965742e0000000000600082015250565b6000614450601b83612f7f565b915061445b8261441a565b602082019050919050565b6000602082019050818103600083015261447f81614443565b9050919050565b7f596f75206861766520616c726561647920766f7465642e000000000000000000600082015250565b60006144bc601783612f7f565b91506144c782614486565b602082019050919050565b600060208201905081810360008301526144eb816144af565b9050919050565b7f496e76616c696420706f736974696f6e2e000000000000000000000000000000600082015250565b6000614528601183612f7f565b9150614533826144f2565b602082019050919050565b600060208201905081810360008301526145578161451b565b9050919050565b7f496e76616c69642063616e64696461746520696e6465782e0000000000000000600082015250565b6000614594601883612f7f565b915061459f8261455e565b602082019050919050565b600060208201905081810360008301526145c381614587565b9050919050565b7f4e487b7100000000000000000000000000000000000000000000000000000000600052603260045260246000fd5b7f4e487b7100000000000000000000000000000000000000000000000000000000600052601160045260246000fd5b600061463382613098565b915061463e83613098565b9250828201905080821115614656576146556145f9565b5b92915050565b6000815461466981613aec565b6146738186612f7f565b9450600182166000811461468e57600181146146a4576146d7565b60ff1983168652811515602002860193506146d7565b6146ad85613efc565b60005b838110156146cf578154818901526001820191506020810190506146b0565b808801955050505b50505092915050565b600060608201905081810360008301526146fa818661465c565b9050818103602083015261470e8185612fcb565b905061471d6040830184613144565b949350505050565b7f506f736974696f6e20616c726561647920657869737473210000000000000000600082015250565b600061475b601883612f7f565b915061476682614725565b602082019050919050565b6000602082019050818103600083015261478a8161474e565b9050919050565b6000815490506147a081613aec565b9050919050565b8181036147b557505061488d565b6147be82614791565b67ffffffffffffffff8111156147d7576147d6613461565b5b6147e18254613aec565b6147ec82828561401b565b6000601f83116001811461481b5760008415614809578287015490505b614813858261408c565b865550614886565b601f19841661482987613efc565b965061483486613efc565b60005b8281101561485c57848901548255600182019150600185019450602081019050614837565b868310156148795784890154614875601f89168261406e565b8355505b6001600288020188555050505b5050505050505b565b60006060820190506148a460008301866138c8565b6148b16020830185613144565b6148be6040830184613144565b949350505050565b7f546f6b656e206c696d6974206578636565646564210000000000000000000000600082015250565b60006148fc601583612f7f565b9150614907826148c6565b602082019050919050565b6000602082019050818103600083015261492b816148ef565b9050919050565b600060408201905061494760008301856138c8565b6149546020830184613144565b939250505056fea264697066735822122012b1bfe89292ead23ecfe52314c5bd59fe70e89bd6344ee64a78e0bf089f93a064736f6c634300081b0033",
  "linkReferences": {},
  "deployedLinkReferences": {}
}