{
  "_format": "hh-sol-artifact-1",
  "contractName": "Voting",
  "sourceName": "contracts/Voting.sol",
  "abi": [
    {
      "inputs": [],
      "stateMutability": "nonpayable",
      "type": "constructor"
    },
    {
      "inputs": [],
      "name": "ECDSAInvalidSignature",
      "type": "error"
    },
    {
      "inputs": [
        {
          "internalType": "uint256",
          "name": "length",
          "type": "uint256"
        }
      ],
      "name": "ECDSAInvalidSignatureLength",
      "type": "error"
    },
    {
      "inputs": [
        {
          "internalType": "bytes32",
          "name": "s",
          "type": "bytes32"
        }
      ],
      "name": "ECDSAInvalidSignatureS",
      "type": "error"
    },
    {
      "inputs": [
        {
          "internalType": "address",
          "name": "spender",
          "type": "address"
        },
        {
          "internalType": "uint256",
          "name": "allowance",
          "type": "uint256"
        },
        {
          "internalType": "uint256",
          "name": "needed",
          "type": "uint256"
        }
      ],
      "name": "ERC20InsufficientAllowance",
      "type": "error"
    },
    {
      "inputs": [
        {
          "internalType": "address",
          "name": "sender",
          "type": "address"
        },
        {
          "internalType": "uint256",
          "name": "balance",
          "type": "uint256"
        },
        {
          "internalType": "uint256",
          "name": "needed",
          "type": "uint256"
        }
      ],
      "name": "ERC20InsufficientBalance",
      "type": "error"
    },
    {
      "inputs": [
        {
          "internalType": "address",
          "name": "approver",
          "type": "address"
        }
      ],
      "name": "ERC20InvalidApprover",
      "type": "error"
    },
    {
      "inputs": [
        {
          "internalType": "address",
          "name": "receiver",
          "type": "address"
        }
      ],
      "name": "ERC20InvalidReceiver",
      "type": "error"
    },
    {
      "inputs": [
        {
          "internalType": "address",
          "name": "sender",
          "type": "address"
        }
      ],
      "name": "ERC20InvalidSender",
      "type": "error"
    },
    {
      "inputs": [
        {
          "internalType": "address",
          "name": "spender",
          "type": "address"
        }
      ],
      "name": "ERC20InvalidSpender",
      "type": "error"
    },
    {
      "inputs": [
        {
          "internalType": "uint256",
          "name": "value",
          "type": "uint256"
        },
        {
          "internalType": "uint256",
          "name": "length",
          "type": "uint256"
        }
      ],
      "name": "StringsInsufficientHexLength",
      "type": "error"
    },
    {
      "anonymous": false,
      "inputs": [
        {
          "indexed": true,
          "internalType": "address",
          "name": "owner",
          "type": "address"
        },
        {
          "indexed": true,
          "internalType": "address",
          "name": "spender",
          "type": "address"
        },
        {
          "indexed": false,
          "internalType": "uint256",
          "name": "value",
          "type": "uint256"
        }
      ],
      "name": "Approval",
      "type": "event"
    },
    {
      "anonymous": false,
      "inputs": [
        {
          "indexed": true,
          "internalType": "string",
          "name": "_names",
          "type": "string"
        },
        {
          "indexed": false,
          "internalType": "uint256",
          "name": "_age",
          "type": "uint256"
        },
        {
          "indexed": true,
          "internalType": "string",
          "name": "_idNumber",
          "type": "string"
        },
        {
          "indexed": false,
          "internalType": "string",
          "name": "_party",
          "type": "string"
        }
      ],
      "name": "CandidateRegistrationSuccess",
      "type": "event"
    },
    {
      "anonymous": false,
      "inputs": [
        {
          "indexed": false,
          "internalType": "address",
          "name": "_to",
          "type": "address"
        },
        {
          "indexed": false,
          "internalType": "uint256",
          "name": "_amount",
          "type": "uint256"
        }
      ],
      "name": "MintSuccess",
      "type": "event"
    },
    {
      "anonymous": false,
      "inputs": [
        {
          "indexed": false,
          "internalType": "string",
          "name": "positionName",
          "type": "string"
        }
      ],
      "name": "PositionAdded",
      "type": "event"
    },
    {
      "anonymous": false,
      "inputs": [],
      "name": "RegistrationEnded",
      "type": "event"
    },
    {
      "anonymous": false,
      "inputs": [],
      "name": "RegistrationStarted",
      "type": "event"
    },
    {
      "anonymous": false,
      "inputs": [
        {
          "indexed": true,
          "internalType": "address",
          "name": "from",
          "type": "address"
        },
        {
          "indexed": true,
          "internalType": "address",
          "name": "to",
          "type": "address"
        },
        {
          "indexed": false,
          "internalType": "uint256",
          "name": "value",
          "type": "uint256"
        }
      ],
      "name": "Transfer",
      "type": "event"
    },
    {
      "anonymous": false,
      "inputs": [
        {
          "indexed": true,
          "internalType": "string",
          "name": "_names",
          "type": "string"
        },
        {
          "indexed": true,
          "internalType": "string",
          "name": "_idNumber",
          "type": "string"
        }
      ],
      "name": "VerifyCandidateSuccess",
      "type": "event"
    },
    {
      "anonymous": false,
      "inputs": [
        {
          "indexed": true,
          "internalType": "address",
          "name": "voter",
          "type": "address"
        },
        {
          "indexed": false,
          "internalType": "string",
          "name": "_idNumber",
          "type": "string"
        },
        {
          "indexed": false,
          "internalType": "string",
          "name": "position",
          "type": "string"
        },
        {
          "indexed": false,
          "internalType": "uint256",
          "name": "candidateIndex",
          "type": "uint256"
        }
      ],
      "name": "VotedSuccess",
      "type": "event"
    },
    {
      "anonymous": false,
      "inputs": [
        {
          "indexed": true,
          "internalType": "string",
          "name": "_names",
          "type": "string"
        },
        {
          "indexed": false,
          "internalType": "uint256",
          "name": "_age",
          "type": "uint256"
        },
        {
          "indexed": true,
          "internalType": "string",
          "name": "_idNumber",
          "type": "string"
        }
      ],
      "name": "VoterRegistrationSuccess",
      "type": "event"
    },
    {
      "anonymous": false,
      "inputs": [],
      "name": "VotingStarted",
      "type": "event"
    },
    {
      "inputs": [],
      "name": "MAX_SUPPLY",
      "outputs": [
        {
          "internalType": "uint256",
          "name": "",
          "type": "uint256"
        }
      ],
      "stateMutability": "view",
      "type": "function"
    },
    {
      "inputs": [],
      "name": "REGISTER_AS_VOTER",
      "outputs": [
        {
          "internalType": "uint256",
          "name": "",
          "type": "uint256"
        }
      ],
      "stateMutability": "view",
      "type": "function"
    },
    {
      "inputs": [],
      "name": "VERIFY_CANDIDATE",
      "outputs": [
        {
          "internalType": "uint256",
          "name": "",
          "type": "uint256"
        }
      ],
      "stateMutability": "view",
      "type": "function"
    },
    {
      "inputs": [
        {
          "internalType": "string[]",
          "name": "_pNames",
          "type": "string[]"
        }
      ],
      "name": "addPositions",
      "outputs": [],
      "stateMutability": "nonpayable",
      "type": "function"
    },
    {
      "inputs": [
        {
          "internalType": "address",
          "name": "owner",
          "type": "address"
        },
        {
          "internalType": "address",
          "name": "spender",
          "type": "address"
        }
      ],
      "name": "allowance",
      "outputs": [
        {
          "internalType": "uint256",
          "name": "",
          "type": "uint256"
        }
      ],
      "stateMutability": "view",
      "type": "function"
    },
    {
      "inputs": [
        {
          "internalType": "address",
          "name": "spender",
          "type": "address"
        },
        {
          "internalType": "uint256",
          "name": "value",
          "type": "uint256"
        }
      ],
      "name": "approve",
      "outputs": [
        {
          "internalType": "bool",
          "name": "",
          "type": "bool"
        }
      ],
      "stateMutability": "nonpayable",
      "type": "function"
    },
    {
      "inputs": [
        {
          "internalType": "address",
          "name": "account",
          "type": "address"
        }
      ],
      "name": "balanceOf",
      "outputs": [
        {
          "internalType": "uint256",
          "name": "",
          "type": "uint256"
        }
      ],
      "stateMutability": "view",
      "type": "function"
    },
    {
      "inputs": [
        {
          "internalType": "string",
          "name": "",
          "type": "string"
        }
      ],
      "name": "candidateObject",
      "outputs": [
        {
          "internalType": "string",
          "name": "names",
          "type": "string"
        },
        {
          "internalType": "uint256",
          "name": "age",
          "type": "uint256"
        },
        {
          "internalType": "string",
          "name": "idNumber",
          "type": "string"
        },
        {
          "internalType": "string",
          "name": "party",
          "type": "string"
        },
        {
          "internalType": "uint256",
          "name": "votes",
          "type": "uint256"
        },
        {
          "internalType": "bool",
          "name": "verified",
          "type": "bool"
        }
      ],
      "stateMutability": "view",
      "type": "function"
    },
    {
      "inputs": [
        {
          "internalType": "address",
          "name": "userAddress",
          "type": "address"
        },
        {
          "internalType": "string",
          "name": "domain",
          "type": "string"
        },
        {
          "internalType": "string",
          "name": "statement",
          "type": "string"
        },
        {
          "internalType": "string",
          "name": "uri",
          "type": "string"
        },
        {
          "internalType": "uint256",
          "name": "chainId",
          "type": "uint256"
        },
        {
          "internalType": "uint256",
          "name": "nonce",
          "type": "uint256"
        }
      ],
      "name": "createMessageHash",
      "outputs": [
        {
          "internalType": "bytes32",
          "name": "",
          "type": "bytes32"
        }
      ],
      "stateMutability": "pure",
      "type": "function"
    },
    {
      "inputs": [],
      "name": "decimals",
      "outputs": [
        {
          "internalType": "uint8",
          "name": "",
          "type": "uint8"
        }
      ],
      "stateMutability": "view",
      "type": "function"
    },
    {
      "inputs": [],
      "name": "endRegistrationAndStartVoting",
      "outputs": [],
      "stateMutability": "nonpayable",
      "type": "function"
    },
    {
      "inputs": [],
      "name": "getAllPositions",
      "outputs": [
        {
          "components": [
            {
              "internalType": "string",
              "name": "pName",
              "type": "string"
            },
            {
              "components": [
                {
                  "internalType": "string",
                  "name": "names",
                  "type": "string"
                },
                {
                  "internalType": "uint256",
                  "name": "age",
                  "type": "uint256"
                },
                {
                  "internalType": "string",
                  "name": "idNumber",
                  "type": "string"
                },
                {
                  "internalType": "string",
                  "name": "party",
                  "type": "string"
                },
                {
                  "internalType": "uint256",
                  "name": "votes",
                  "type": "uint256"
                },
                {
                  "internalType": "bool",
                  "name": "verified",
                  "type": "bool"
                }
              ],
              "internalType": "struct Voting.Candidate[]",
              "name": "candidates",
              "type": "tuple[]"
            }
          ],
          "internalType": "struct Voting.Position[]",
          "name": "",
          "type": "tuple[]"
        }
      ],
      "stateMutability": "view",
      "type": "function"
    },
    {
      "inputs": [],
      "name": "getPositionCount",
      "outputs": [
        {
          "internalType": "uint256",
          "name": "",
          "type": "uint256"
        }
      ],
      "stateMutability": "view",
      "type": "function"
    },
    {
      "inputs": [
        {
          "internalType": "uint256",
          "name": "",
          "type": "uint256"
        }
      ],
      "name": "listOfCandidates",
      "outputs": [
        {
          "internalType": "string",
          "name": "names",
          "type": "string"
        },
        {
          "internalType": "uint256",
          "name": "age",
          "type": "uint256"
        },
        {
          "internalType": "string",
          "name": "idNumber",
          "type": "string"
        },
        {
          "internalType": "string",
          "name": "party",
          "type": "string"
        },
        {
          "internalType": "uint256",
          "name": "votes",
          "type": "uint256"
        },
        {
          "internalType": "bool",
          "name": "verified",
          "type": "bool"
        }
      ],
      "stateMutability": "view",
      "type": "function"
    },
    {
      "inputs": [
        {
          "internalType": "uint256",
          "name": "",
          "type": "uint256"
        }
      ],
      "name": "listOfPositions",
      "outputs": [
        {
          "internalType": "string",
          "name": "pName",
          "type": "string"
        }
      ],
      "stateMutability": "view",
      "type": "function"
    },
    {
      "inputs": [
        {
          "internalType": "uint256",
          "name": "",
          "type": "uint256"
        }
      ],
      "name": "listOfVoters",
      "outputs": [
        {
          "internalType": "string",
          "name": "names",
          "type": "string"
        },
        {
          "internalType": "uint256",
          "name": "age",
          "type": "uint256"
        },
        {
          "internalType": "string",
          "name": "idNumber",
          "type": "string"
        },
        {
          "internalType": "bool",
          "name": "voted",
          "type": "bool"
        }
      ],
      "stateMutability": "view",
      "type": "function"
    },
    {
      "inputs": [],
      "name": "name",
      "outputs": [
        {
          "internalType": "string",
          "name": "",
          "type": "string"
        }
      ],
      "stateMutability": "view",
      "type": "function"
    },
    {
      "inputs": [],
      "name": "owner",
      "outputs": [
        {
          "internalType": "address",
          "name": "",
          "type": "address"
        }
      ],
      "stateMutability": "view",
      "type": "function"
    },
    {
      "inputs": [
        {
          "internalType": "string",
          "name": "",
          "type": "string"
        }
      ],
      "name": "positions",
      "outputs": [
        {
          "internalType": "string",
          "name": "pName",
          "type": "string"
        }
      ],
      "stateMutability": "view",
      "type": "function"
    },
    {
      "inputs": [
        {
          "internalType": "string",
          "name": "_names",
          "type": "string"
        },
        {
          "internalType": "uint256",
          "name": "_age",
          "type": "uint256"
        },
        {
          "internalType": "string",
          "name": "_idNumber",
          "type": "string"
        },
        {
          "internalType": "string",
          "name": "_party",
          "type": "string"
        }
      ],
      "name": "registerCandidate",
      "outputs": [],
      "stateMutability": "nonpayable",
      "type": "function"
    },
    {
      "inputs": [
        {
          "internalType": "string",
          "name": "_names",
          "type": "string"
        },
        {
          "internalType": "uint256",
          "name": "_age",
          "type": "uint256"
        },
        {
          "internalType": "string",
          "name": "_idNumber",
          "type": "string"
        }
      ],
      "name": "registerVoter",
      "outputs": [
        {
          "internalType": "bool",
          "name": "",
          "type": "bool"
        }
      ],
      "stateMutability": "nonpayable",
      "type": "function"
    },
    {
      "inputs": [],
      "name": "registrationStarted",
      "outputs": [
        {
          "internalType": "bool",
          "name": "",
          "type": "bool"
        }
      ],
      "stateMutability": "view",
      "type": "function"
    },
    {
      "inputs": [],
      "name": "startRegistration",
      "outputs": [],
      "stateMutability": "nonpayable",
      "type": "function"
    },
    {
      "inputs": [],
      "name": "symbol",
      "outputs": [
        {
          "internalType": "string",
          "name": "",
          "type": "string"
        }
      ],
      "stateMutability": "view",
      "type": "function"
    },
    {
      "inputs": [],
      "name": "totalSupply",
      "outputs": [
        {
          "internalType": "uint256",
          "name": "",
          "type": "uint256"
        }
      ],
      "stateMutability": "view",
      "type": "function"
    },
    {
      "inputs": [
        {
          "internalType": "address",
          "name": "to",
          "type": "address"
        },
        {
          "internalType": "uint256",
          "name": "value",
          "type": "uint256"
        }
      ],
      "name": "transfer",
      "outputs": [
        {
          "internalType": "bool",
          "name": "",
          "type": "bool"
        }
      ],
      "stateMutability": "nonpayable",
      "type": "function"
    },
    {
      "inputs": [
        {
          "internalType": "address",
          "name": "from",
          "type": "address"
        },
        {
          "internalType": "address",
          "name": "to",
          "type": "address"
        },
        {
          "internalType": "uint256",
          "name": "value",
          "type": "uint256"
        }
      ],
      "name": "transferFrom",
      "outputs": [
        {
          "internalType": "bool",
          "name": "",
          "type": "bool"
        }
      ],
      "stateMutability": "nonpayable",
      "type": "function"
    },
    {
      "inputs": [
        {
          "internalType": "string",
          "name": "_idNumber",
          "type": "string"
        }
      ],
      "name": "verifyCandidate",
      "outputs": [],
      "stateMutability": "nonpayable",
      "type": "function"
    },
    {
      "inputs": [
        {
          "internalType": "bytes32",
          "name": "hash",
          "type": "bytes32"
        },
        {
          "internalType": "bytes",
          "name": "signature",
          "type": "bytes"
        }
      ],
      "name": "verifySignature",
      "outputs": [
        {
          "internalType": "bool",
          "name": "",
          "type": "bool"
        }
      ],
      "stateMutability": "view",
      "type": "function"
    },
    {
      "inputs": [
        {
          "internalType": "string",
          "name": "position",
          "type": "string"
        },
        {
          "internalType": "uint256",
          "name": "candidateIndex",
          "type": "uint256"
        }
      ],
      "name": "vote",
      "outputs": [],
      "stateMutability": "nonpayable",
      "type": "function"
    },
    {
      "inputs": [
        {
          "internalType": "string",
          "name": "",
          "type": "string"
        }
      ],
      "name": "voterObject",
      "outputs": [
        {
          "internalType": "string",
          "name": "names",
          "type": "string"
        },
        {
          "internalType": "uint256",
          "name": "age",
          "type": "uint256"
        },
        {
          "internalType": "string",
          "name": "idNumber",
          "type": "string"
        },
        {
          "internalType": "bool",
          "name": "voted",
          "type": "bool"
        }
      ],
      "stateMutability": "view",
      "type": "function"
    },
    {
      "inputs": [
        {
          "internalType": "address",
          "name": "",
          "type": "address"
        }
      ],
      "name": "voters",
      "outputs": [
        {
          "internalType": "string",
          "name": "names",
          "type": "string"
        },
        {
          "internalType": "uint256",
          "name": "age",
          "type": "uint256"
        },
        {
          "internalType": "string",
          "name": "idNumber",
          "type": "string"
        },
        {
          "internalType": "bool",
          "name": "voted",
          "type": "bool"
        }
      ],
      "stateMutability": "view",
      "type": "function"
    },
    {
      "inputs": [],
      "name": "votingStarted",
      "outputs": [
        {
          "internalType": "bool",
          "name": "",
          "type": "bool"
        }
      ],
      "stateMutability": "view",
      "type": "function"
    }
  ],
  "bytecode": "0x60806040526000600e60006101000a81548160ff0219169083151502179055506000600e60016101000a81548160ff02191690831515021790555034801561004657600080fd5b506040518060400160405280600581526020017f566f7465780000000000000000000000000000000000000000000000000000008152506040518060400160405280600481526020017f56544b4e0000000000000000000000000000000000000000000000000000000081525081600390816100c2919061036b565b5080600490816100d2919061036b565b50505033600560006101000a81548173ffffffffffffffffffffffffffffffffffffffff021916908373ffffffffffffffffffffffffffffffffffffffff16021790555061043d565b600081519050919050565b7f4e487b7100000000000000000000000000000000000000000000000000000000600052604160045260246000fd5b7f4e487b7100000000000000000000000000000000000000000000000000000000600052602260045260246000fd5b6000600282049050600182168061019c57607f821691505b6020821081036101af576101ae610155565b5b50919050565b60008190508160005260206000209050919050565b60006020601f8301049050919050565b600082821b905092915050565b6000600883026102177fffffffffffffffffffffffffffffffffffffffffffffffffffffffffffffffff826101da565b61022186836101da565b95508019841693508086168417925050509392505050565b6000819050919050565b6000819050919050565b600061026861026361025e84610239565b610243565b610239565b9050919050565b6000819050919050565b6102828361024d565b61029661028e8261026f565b8484546101e7565b825550505050565b600090565b6102ab61029e565b6102b6818484610279565b505050565b5b818110156102da576102cf6000826102a3565b6001810190506102bc565b5050565b601f82111561031f576102f0816101b5565b6102f9846101ca565b81016020851015610308578190505b61031c610314856101ca565b8301826102bb565b50505b505050565b600082821c905092915050565b600061034260001984600802610324565b1980831691505092915050565b600061035b8383610331565b9150826002028217905092915050565b6103748261011b565b67ffffffffffffffff81111561038d5761038c610126565b5b6103978254610184565b6103a28282856102de565b600060209050601f8311600181146103d557600084156103c3578287015190505b6103cd858261034f565b865550610435565b601f1984166103e3866101b5565b60005b8281101561040b578489015182556001820191506020850194506020810190506103e6565b868310156104285784890151610424601f891682610331565b8355505b6001600288020188555050505b505050505050565b6159cb8061044c6000396000f3fe608060405234801561001057600080fd5b50600436106101fb5760003560e01c806371565d2e1161011a5780639dfa9065116100ad578063abceaad21161007c578063abceaad214610617578063be94ced714610633578063daca6f7814610651578063dd62ed3e14610681578063ffdd7496146106b1576101fb565b80639dfa90651461057c578063a3ec138d14610598578063a6385803146105cb578063a9059cbb146105e7576101fb565b80638da5cb5b116100e95780638da5cb5b146104d857806392d7df4a146104f657806395d89b411461052b5780639a53cbea14610549576101fb565b806371565d2e1461045057806371a6f4651461046c578063816834761461049c57806383d948b7146104ba576101fb565b8063313ce567116101925780635fbcc155116101615780635fbcc155146103905780636636b91e146103c0578063676f86b0146103f057806370a0823114610420576101fb565b8063313ce5671461031757806332cb6b0c146103355780634a66e1ab1461035357806355d5d61114610386576101fb565b806318f56a0a116101ce57806318f56a0a146102765780631c64a33e1461029457806323b872dd146102c957806327aed42e146102f9576101fb565b806306fdde0314610200578063095ea7b31461021e57806310b866951461024e57806318160ddd14610258575b600080fd5b6102086106cf565b60405161021591906138a3565b60405180910390f35b6102386004803603810190610233919061396d565b610761565b60405161024591906139c8565b60405180910390f35b610256610784565b005b6102606108fd565b60405161026d91906139f2565b60405180910390f35b61027e610907565b60405161028b9190613cd4565b60405180910390f35b6102ae60048036038101906102a99190613e2b565b610c3c565b6040516102c096959493929190613e74565b60405180910390f35b6102e360048036038101906102de9190613eea565b610e33565b6040516102f091906139c8565b60405180910390f35b610301610e62565b60405161030e91906139c8565b60405180910390f35b61031f610e75565b60405161032c9190613f59565b60405180910390f35b61033d610e7e565b60405161034a91906139f2565b60405180910390f35b61036d60048036038101906103689190613e2b565b610e8c565b60405161037d9493929190613f74565b60405180910390f35b61038e610fef565b005b6103aa60048036038101906103a59190613fc7565b6111ae565b6040516103b791906140c1565b60405180910390f35b6103da60048036038101906103d591906140dc565b61121d565b6040516103e791906139c8565b60405180910390f35b61040a60048036038101906104059190613e2b565b61156d565b60405161041791906138a3565b60405180910390f35b61043a60048036038101906104359190614167565b611629565b60405161044791906139f2565b60405180910390f35b61046a60048036038101906104659190614194565b611671565b005b6104866004803603810190610481919061424f565b6119cd565b60405161049391906138a3565b60405180910390f35b6104a4611a83565b6040516104b191906139f2565b60405180910390f35b6104c2611a90565b6040516104cf91906139c8565b60405180910390f35b6104e0611aa3565b6040516104ed919061428b565b60405180910390f35b610510600480360381019061050b919061424f565b611ac9565b60405161052296959493929190613e74565b60405180910390f35b610533611cba565b60405161054091906138a3565b60405180910390f35b610563600480360381019061055e919061424f565b611d4c565b6040516105739493929190613f74565b60405180910390f35b61059660048036038101906105919190613e2b565b611ea9565b005b6105b260048036038101906105ad9190614167565b612070565b6040516105c29493929190613f74565b60405180910390f35b6105e560048036038101906105e091906142a6565b6121bd565b005b61060160048036038101906105fc919061396d565b612491565b60405161060e91906139c8565b60405180910390f35b610631600480360381019061062c91906143e8565b6124b4565b005b61063b61274c565b60405161064891906139f2565b60405180910390f35b61066b600480360381019061066691906144fe565b612758565b60405161067891906139c8565b60405180910390f35b61069b6004803603810190610696919061455a565b6127cb565b6040516106a891906139f2565b60405180910390f35b6106b9612852565b6040516106c691906139f2565b60405180910390f35b6060600380546106de906145c9565b80601f016020809104026020016040519081016040528092919081815260200182805461070a906145c9565b80156107575780601f1061072c57610100808354040283529160200191610757565b820191906000526020600020905b81548152906001019060200180831161073a57829003601f168201915b5050505050905090565b60008061076c61285e565b9050610779818585612866565b600191505092915050565b600560009054906101000a900473ffffffffffffffffffffffffffffffffffffffff1673ffffffffffffffffffffffffffffffffffffffff163373ffffffffffffffffffffffffffffffffffffffff1614610814576040517f08c379a000000000000000000000000000000000000000000000000000000000815260040161080b90614646565b60405180910390fd5b600e60009054906101000a900460ff1615610864576040517f08c379a000000000000000000000000000000000000000000000000000000000815260040161085b906146d8565b60405180910390fd5b600e60019054906101000a900460ff16156108b4576040517f08c379a00000000000000000000000000000000000000000000000000000000081526004016108ab9061476a565b60405180910390fd5b6001600e60006101000a81548160ff0219169083151502179055507f82e6c84abd647d1b4fae9bee1859f2642e5443af0ff900d4af83a93c2bf4151260405160405180910390a1565b6000600254905090565b60606008805480602002602001604051908101604052809291908181526020016000905b82821015610c33578382906000526020600020906002020160405180604001604052908160008201805461095e906145c9565b80601f016020809104026020016040519081016040528092919081815260200182805461098a906145c9565b80156109d75780601f106109ac576101008083540402835291602001916109d7565b820191906000526020600020905b8154815290600101906020018083116109ba57829003601f168201915b5050505050815260200160018201805480602002602001604051908101604052809291908181526020016000905b82821015610c1c57838290600052602060002090600602016040518060c0016040529081600082018054610a38906145c9565b80601f0160208091040260200160405190810160405280929190818152602001828054610a64906145c9565b8015610ab15780601f10610a8657610100808354040283529160200191610ab1565b820191906000526020600020905b815481529060010190602001808311610a9457829003601f168201915b5050505050815260200160018201548152602001600282018054610ad4906145c9565b80601f0160208091040260200160405190810160405280929190818152602001828054610b00906145c9565b8015610b4d5780601f10610b2257610100808354040283529160200191610b4d565b820191906000526020600020905b815481529060010190602001808311610b3057829003601f168201915b50505050508152602001600382018054610b66906145c9565b80601f0160208091040260200160405190810160405280929190818152602001828054610b92906145c9565b8015610bdf5780601f10610bb457610100808354040283529160200191610bdf565b820191906000526020600020905b815481529060010190602001808311610bc257829003601f168201915b50505050508152602001600482015481526020016005820160009054906101000a900460ff16151515158152505081526020019060010190610a05565b50505050815250508152602001906001019061092b565b50505050905090565b600a81805160208101820180518482526020830160208501208183528095505050505050600091509050806000018054610c75906145c9565b80601f0160208091040260200160405190810160405280929190818152602001828054610ca1906145c9565b8015610cee5780601f10610cc357610100808354040283529160200191610cee565b820191906000526020600020905b815481529060010190602001808311610cd157829003601f168201915b505050505090806001015490806002018054610d09906145c9565b80601f0160208091040260200160405190810160405280929190818152602001828054610d35906145c9565b8015610d825780601f10610d5757610100808354040283529160200191610d82565b820191906000526020600020905b815481529060010190602001808311610d6557829003601f168201915b505050505090806003018054610d97906145c9565b80601f0160208091040260200160405190810160405280929190818152602001828054610dc3906145c9565b8015610e105780601f10610de557610100808354040283529160200191610e10565b820191906000526020600020905b815481529060010190602001808311610df357829003601f168201915b5050505050908060040154908060050160009054906101000a900460ff16905086565b600080610e3e61285e565b9050610e4b858285612878565b610e5685858561290c565b60019150509392505050565b600e60009054906101000a900460ff1681565b60006012905090565b69d3c21bcecceda100000081565b600981805160208101820180518482526020830160208501208183528095505050505050600091509050806000018054610ec5906145c9565b80601f0160208091040260200160405190810160405280929190818152602001828054610ef1906145c9565b8015610f3e5780601f10610f1357610100808354040283529160200191610f3e565b820191906000526020600020905b815481529060010190602001808311610f2157829003601f168201915b505050505090806001015490806002018054610f59906145c9565b80601f0160208091040260200160405190810160405280929190818152602001828054610f85906145c9565b8015610fd25780601f10610fa757610100808354040283529160200191610fd2565b820191906000526020600020905b815481529060010190602001808311610fb557829003601f168201915b5050505050908060030160009054906101000a900460ff16905084565b600560009054906101000a900473ffffffffffffffffffffffffffffffffffffffff1673ffffffffffffffffffffffffffffffffffffffff163373ffffffffffffffffffffffffffffffffffffffff161461107f576040517f08c379a000000000000000000000000000000000000000000000000000000000815260040161107690614646565b60405180910390fd5b600e60009054906101000a900460ff166110ce576040517f08c379a00000000000000000000000000000000000000000000000000000000081526004016110c5906147fc565b60405180910390fd5b600e60019054906101000a900460ff161561111e576040517f08c379a000000000000000000000000000000000000000000000000000000000815260040161111590614868565b60405180910390fd5b6000600e60006101000a81548160ff0219169083151502179055506001600e60016101000a81548160ff0219169083151502179055507f2ee88f50f05558e39b34a18214ff6a6adc091504772084c6ce7899354bec0aa460405160405180910390a17f877e2548498f42b7975a186b94ef1d32c86d420b7b806dd2be2bea293b89590460405160405180910390a1565b6000856111d28873ffffffffffffffffffffffffffffffffffffffff166014612a00565b86866111dd87612c46565b6111e687612c46565b6040516020016111fb96959493929190614b70565b6040516020818303038152906040528051906020012090509695505050505050565b6000600e60009054906101000a900460ff1661126e576040517f08c379a0000000000000000000000000000000000000000000000000000000008152600401611265906147fc565b60405180910390fd5b600e60019054906101000a900460ff16156112be576040517f08c379a00000000000000000000000000000000000000000000000000000000081526004016112b590614cc9565b60405180910390fd5b60006009836040516112d09190614ce9565b908152602001604051809103902060000180546112ec906145c9565b90501461132e576040517f08c379a000000000000000000000000000000000000000000000000000000000815260040161132590614d4c565b60405180910390fd5b60006040518060800160405280868152602001858152602001848152602001600015158152509050600681908060018154018082558091505060019003906000526020600020906004020160009091909190915060008201518160000190816113979190614f18565b506020820151816001015560408201518160020190816113b79190614f18565b5060608201518160030160006101000a81548160ff0219169083151502179055505050806009846040516113eb9190614ce9565b9081526020016040518091039020600082015181600001908161140e9190614f18565b5060208201518160010155604082015181600201908161142e9190614f18565b5060608201518160030160006101000a81548160ff02191690831515021790555090505080600c60003373ffffffffffffffffffffffffffffffffffffffff1673ffffffffffffffffffffffffffffffffffffffff16815260200190815260200160002060008201518160000190816114a79190614f18565b506020820151816001015560408201518160020190816114c79190614f18565b5060608201518160030160006101000a81548160ff0219169083151502179055509050506114fd33674563918244f40000612d14565b508260405161150c9190614ce9565b6040518091039020856040516115229190614ce9565b60405180910390207f754a5f7c9336f3562d73dacebf51de10da957ae9dfcae4fbfb93733ece3dd5aa8660405161155991906139f2565b60405180910390a360019150509392505050565b600b818051602081018201805184825260208301602085012081835280955050505050506000915090508060000180546115a6906145c9565b80601f01602080910402602001604051908101604052809291908181526020018280546115d2906145c9565b801561161f5780601f106115f45761010080835404028352916020019161161f565b820191906000526020600020905b81548152906001019060200180831161160257829003601f168201915b5050505050905081565b60008060008373ffffffffffffffffffffffffffffffffffffffff1673ffffffffffffffffffffffffffffffffffffffff168152602001908152602001600020549050919050565b600e60009054906101000a900460ff166116c0576040517f08c379a00000000000000000000000000000000000000000000000000000000081526004016116b7906147fc565b60405180910390fd5b600e60019054906101000a900460ff1615611710576040517f08c379a000000000000000000000000000000000000000000000000000000000815260040161170790614cc9565b60405180910390fd5b6000600a836040516117229190614ce9565b9081526020016040518091039020600001805461173e906145c9565b905014611780576040517f08c379a000000000000000000000000000000000000000000000000000000000815260040161177790615036565b60405180910390fd5b60006009836040516117929190614ce9565b908152602001604051809103902060000180546117ae906145c9565b9050036117f0576040517f08c379a00000000000000000000000000000000000000000000000000000000081526004016117e7906150a2565b60405180910390fd5b60006040518060c0016040528086815260200185815260200184815260200183815260200160008152602001600015158152509050600781908060018154018082558091505060019003906000526020600020906006020160009091909190915060008201518160000190816118669190614f18565b506020820151816001015560408201518160020190816118869190614f18565b50606082015181600301908161189c9190614f18565b506080820151816004015560a08201518160050160006101000a81548160ff021916908315150217905550505080600a846040516118da9190614ce9565b908152602001604051809103902060008201518160000190816118fd9190614f18565b5060208201518160010155604082015181600201908161191d9190614f18565b5060608201518160030190816119339190614f18565b506080820151816004015560a08201518160050160006101000a81548160ff0219169083151502179055509050508260405161196f9190614ce9565b6040518091039020856040516119859190614ce9565b60405180910390207f8afd5f09f2c1c39b88e6ee97fcf10294be6e0486fd829b85f61d0ab7aa008acd86856040516119be9291906150c2565b60405180910390a35050505050565b600881815481106119dd57600080fd5b9060005260206000209060020201600091509050806000018054611a00906145c9565b80601f0160208091040260200160405190810160405280929190818152602001828054611a2c906145c9565b8015611a795780601f10611a4e57610100808354040283529160200191611a79565b820191906000526020600020905b815481529060010190602001808311611a5c57829003601f168201915b5050505050905081565b6000600880549050905090565b600e60019054906101000a900460ff1681565b600560009054906101000a900473ffffffffffffffffffffffffffffffffffffffff1681565b60078181548110611ad957600080fd5b9060005260206000209060060201600091509050806000018054611afc906145c9565b80601f0160208091040260200160405190810160405280929190818152602001828054611b28906145c9565b8015611b755780601f10611b4a57610100808354040283529160200191611b75565b820191906000526020600020905b815481529060010190602001808311611b5857829003601f168201915b505050505090806001015490806002018054611b90906145c9565b80601f0160208091040260200160405190810160405280929190818152602001828054611bbc906145c9565b8015611c095780601f10611bde57610100808354040283529160200191611c09565b820191906000526020600020905b815481529060010190602001808311611bec57829003601f168201915b505050505090806003018054611c1e906145c9565b80601f0160208091040260200160405190810160405280929190818152602001828054611c4a906145c9565b8015611c975780601f10611c6c57610100808354040283529160200191611c97565b820191906000526020600020905b815481529060010190602001808311611c7a57829003601f168201915b5050505050908060040154908060050160009054906101000a900460ff16905086565b606060048054611cc9906145c9565b80601f0160208091040260200160405190810160405280929190818152602001828054611cf5906145c9565b8015611d425780601f10611d1757610100808354040283529160200191611d42565b820191906000526020600020905b815481529060010190602001808311611d2557829003601f168201915b5050505050905090565b60068181548110611d5c57600080fd5b9060005260206000209060040201600091509050806000018054611d7f906145c9565b80601f0160208091040260200160405190810160405280929190818152602001828054611dab906145c9565b8015611df85780601f10611dcd57610100808354040283529160200191611df8565b820191906000526020600020905b815481529060010190602001808311611ddb57829003601f168201915b505050505090806001015490806002018054611e13906145c9565b80601f0160208091040260200160405190810160405280929190818152602001828054611e3f906145c9565b8015611e8c5780601f10611e6157610100808354040283529160200191611e8c565b820191906000526020600020905b815481529060010190602001808311611e6f57829003601f168201915b5050505050908060030160009054906101000a900460ff16905084565b600560009054906101000a900473ffffffffffffffffffffffffffffffffffffffff1673ffffffffffffffffffffffffffffffffffffffff163373ffffffffffffffffffffffffffffffffffffffff1614611f39576040517f08c379a0000000000000000000000000000000000000000000000000000000008152600401611f3090614646565b60405180910390fd5b600a81604051611f499190614ce9565b908152602001604051809103902060050160009054906101000a900460ff1615611fa8576040517f08c379a0000000000000000000000000000000000000000000000000000000008152600401611f9f9061513e565b60405180910390fd5b6001600a82604051611fba9190614ce9565b908152602001604051809103902060050160006101000a81548160ff021916908315150217905550611ff433678ac7230489e80000612d14565b50806040516120039190614ce9565b6040518091039020600a8260405161201b9190614ce9565b908152602001604051809103902060000160405161203991906151e1565b60405180910390207fb78543f054c768084f86f0e559d1e007998ca69729eeffc4b727baa388934a3260405160405180910390a350565b600c602052806000526040600020600091509050806000018054612093906145c9565b80601f01602080910402602001604051908101604052809291908181526020018280546120bf906145c9565b801561210c5780601f106120e15761010080835404028352916020019161210c565b820191906000526020600020905b8154815290600101906020018083116120ef57829003601f168201915b505050505090806001015490806002018054612127906145c9565b80601f0160208091040260200160405190810160405280929190818152602001828054612153906145c9565b80156121a05780601f10612175576101008083540402835291602001916121a0565b820191906000526020600020905b81548152906001019060200180831161218357829003601f168201915b5050505050908060030160009054906101000a900460ff16905084565b600e60009054906101000a900460ff161561220d576040517f08c379a00000000000000000000000000000000000000000000000000000000081526004016122049061526a565b60405180910390fd5b600e60019054906101000a900460ff1661225c576040517f08c379a0000000000000000000000000000000000000000000000000000000008152600401612253906152d6565b60405180910390fd5b6000600c60003373ffffffffffffffffffffffffffffffffffffffff1673ffffffffffffffffffffffffffffffffffffffff16815260200190815260200160002090508060030160009054906101000a900460ff16156122f1576040517f08c379a00000000000000000000000000000000000000000000000000000000081526004016122e890615342565b60405180910390fd5b6000600b846040516123039190614ce9565b90815260200160405180910390206001018054905011612358576040517f08c379a000000000000000000000000000000000000000000000000000000000815260040161234f906153ae565b60405180910390fd5b600b836040516123689190614ce9565b90815260200160405180910390206001018054905082106123be576040517f08c379a00000000000000000000000000000000000000000000000000000000081526004016123b59061541a565b60405180910390fd5b6001600b846040516123d09190614ce9565b908152602001604051809103902060010183815481106123f3576123f261543a565b5b906000526020600020906006020160040160008282546124139190615498565b9250508190555060018160030160006101000a81548160ff0219169083151502179055503373ffffffffffffffffffffffffffffffffffffffff167f477d7faf347a03679fabd88feea150c41667473fc8412962f607fb7503f1bd4382600201858560405161248493929190615550565b60405180910390a2505050565b60008061249c61285e565b90506124a981858561290c565b600191505092915050565b600560009054906101000a900473ffffffffffffffffffffffffffffffffffffffff1673ffffffffffffffffffffffffffffffffffffffff163373ffffffffffffffffffffffffffffffffffffffff1614612544576040517f08c379a000000000000000000000000000000000000000000000000000000000815260040161253b90614646565b60405180910390fd5b60005b815181101561274857600d8282815181106125655761256461543a565b5b602002602001015160405161257a9190614ce9565b908152602001604051809103902060009054906101000a900460ff16156125d6576040517f08c379a00000000000000000000000000000000000000000000000000000000081526004016125cd906155e1565b60405180910390fd5b6000600b8383815181106125ed576125ec61543a565b5b60200260200101516040516126029190614ce9565b908152602001604051809103902090508282815181106126255761262461543a565b5b602002602001015181600001908161263d9190614f18565b5060088190806001815401808255809150506001900390600052602060002090600202016000909190919091506000820181600001908161267e9190615617565b506001820181600101908054612695929190613673565b5050506001600d8484815181106126af576126ae61543a565b5b60200260200101516040516126c49190614ce9565b908152602001604051809103902060006101000a81548160ff0219169083151502179055507ff635339f4b5986d632e76f25211c57346b4b4ca3aa13c1ba323ac1256373145683838151811061271d5761271c61543a565b5b602002602001015160405161273291906138a3565b60405180910390a1508080600101915050612547565b5050565b674563918244f4000081565b6000808360405160200161276c919061576c565b60405160208183030381529060405280519060200120905060006127908285612dc2565b90503373ffffffffffffffffffffffffffffffffffffffff168173ffffffffffffffffffffffffffffffffffffffff16149250505092915050565b6000600160008473ffffffffffffffffffffffffffffffffffffffff1673ffffffffffffffffffffffffffffffffffffffff16815260200190815260200160002060008373ffffffffffffffffffffffffffffffffffffffff1673ffffffffffffffffffffffffffffffffffffffff16815260200190815260200160002054905092915050565b678ac7230489e8000081565b600033905090565b6128738383836001612dee565b505050565b600061288484846127cb565b90507fffffffffffffffffffffffffffffffffffffffffffffffffffffffffffffffff811461290657818110156128f6578281836040517ffb8f41b20000000000000000000000000000000000000000000000000000000081526004016128ed93929190615792565b60405180910390fd5b61290584848484036000612dee565b5b50505050565b600073ffffffffffffffffffffffffffffffffffffffff168373ffffffffffffffffffffffffffffffffffffffff160361297e5760006040517f96c6fd1e000000000000000000000000000000000000000000000000000000008152600401612975919061428b565b60405180910390fd5b600073ffffffffffffffffffffffffffffffffffffffff168273ffffffffffffffffffffffffffffffffffffffff16036129f05760006040517fec442f050000000000000000000000000000000000000000000000000000000081526004016129e7919061428b565b60405180910390fd5b6129fb838383612fc5565b505050565b6060600083905060006002846002612a1891906157c9565b612a229190615498565b67ffffffffffffffff811115612a3b57612a3a613d00565b5b6040519080825280601f01601f191660200182016040528015612a6d5781602001600182028036833780820191505090505b5090507f300000000000000000000000000000000000000000000000000000000000000081600081518110612aa557612aa461543a565b5b60200101907effffffffffffffffffffffffffffffffffffffffffffffffffffffffffffff1916908160001a9053507f780000000000000000000000000000000000000000000000000000000000000081600181518110612b0957612b0861543a565b5b60200101907effffffffffffffffffffffffffffffffffffffffffffffffffffffffffffff1916908160001a90535060006001856002612b4991906157c9565b612b539190615498565b90505b6001811115612bf3577f3031323334353637383961626364656600000000000000000000000000000000600f841660108110612b9557612b9461543a565b5b1a60f81b828281518110612bac57612bab61543a565b5b60200101907effffffffffffffffffffffffffffffffffffffffffffffffffffffffffffff1916908160001a905350600483901c925080612bec9061580b565b9050612b56565b5060008214612c3b5784846040517fe22e27eb000000000000000000000000000000000000000000000000000000008152600401612c32929190615834565b60405180910390fd5b809250505092915050565b606060006001612c55846131ea565b01905060008167ffffffffffffffff811115612c7457612c73613d00565b5b6040519080825280601f01601f191660200182016040528015612ca65781602001600182028036833780820191505090505b509050600082602001820190505b600115612d09578080600190039150507f3031323334353637383961626364656600000000000000000000000000000000600a86061a8153600a8581612cfd57612cfc61585d565b5b04945060008503612cb4575b819350505050919050565b600069d3c21bcecceda1000000612d296108fd565b83612d349190615498565b1115612d75576040517f08c379a0000000000000000000000000000000000000000000000000000000008152600401612d6c906158d8565b60405180910390fd5b612d7f838361333d565b7fcda531bfd68624f13205c0a23cd4d5a7f09792cbb399603114f2b04aaa1bf5cf8383604051612db09291906158f8565b60405180910390a16001905092915050565b600080600080612dd286866133bf565b925092509250612de2828261341b565b82935050505092915050565b600073ffffffffffffffffffffffffffffffffffffffff168473ffffffffffffffffffffffffffffffffffffffff1603612e605760006040517fe602df05000000000000000000000000000000000000000000000000000000008152600401612e57919061428b565b60405180910390fd5b600073ffffffffffffffffffffffffffffffffffffffff168373ffffffffffffffffffffffffffffffffffffffff1603612ed25760006040517f94280d62000000000000000000000000000000000000000000000000000000008152600401612ec9919061428b565b60405180910390fd5b81600160008673ffffffffffffffffffffffffffffffffffffffff1673ffffffffffffffffffffffffffffffffffffffff16815260200190815260200160002060008573ffffffffffffffffffffffffffffffffffffffff1673ffffffffffffffffffffffffffffffffffffffff168152602001908152602001600020819055508015612fbf578273ffffffffffffffffffffffffffffffffffffffff168473ffffffffffffffffffffffffffffffffffffffff167f8c5be1e5ebec7d5bd14f71427d1e84f3dd0314c0f7b2291e5b200ac8c7c3b92584604051612fb691906139f2565b60405180910390a35b50505050565b600073ffffffffffffffffffffffffffffffffffffffff168373ffffffffffffffffffffffffffffffffffffffff160361301757806002600082825461300b9190615498565b925050819055506130ea565b60008060008573ffffffffffffffffffffffffffffffffffffffff1673ffffffffffffffffffffffffffffffffffffffff168152602001908152602001600020549050818110156130a3578381836040517fe450d38c00000000000000000000000000000000000000000000000000000000815260040161309a93929190615792565b60405180910390fd5b8181036000808673ffffffffffffffffffffffffffffffffffffffff1673ffffffffffffffffffffffffffffffffffffffff16815260200190815260200160002081905550505b600073ffffffffffffffffffffffffffffffffffffffff168273ffffffffffffffffffffffffffffffffffffffff16036131335780600260008282540392505081905550613180565b806000808473ffffffffffffffffffffffffffffffffffffffff1673ffffffffffffffffffffffffffffffffffffffff168152602001908152602001600020600082825401925050819055505b8173ffffffffffffffffffffffffffffffffffffffff168373ffffffffffffffffffffffffffffffffffffffff167fddf252ad1be2c89b69c2b068fc378daa952ba7f163c4a11628f55a4df523b3ef836040516131dd91906139f2565b60405180910390a3505050565b600080600090507a184f03e93ff9f4daa797ed6e38ed64bf6a1f0100000000000000008310613248577a184f03e93ff9f4daa797ed6e38ed64bf6a1f010000000000000000838161323e5761323d61585d565b5b0492506040810190505b6d04ee2d6d415b85acef81000000008310613285576d04ee2d6d415b85acef8100000000838161327b5761327a61585d565b5b0492506020810190505b662386f26fc1000083106132b457662386f26fc1000083816132aa576132a961585d565b5b0492506010810190505b6305f5e10083106132dd576305f5e10083816132d3576132d261585d565b5b0492506008810190505b61271083106133025761271083816132f8576132f761585d565b5b0492506004810190505b60648310613325576064838161331b5761331a61585d565b5b0492506002810190505b600a8310613334576001810190505b80915050919050565b600073ffffffffffffffffffffffffffffffffffffffff168273ffffffffffffffffffffffffffffffffffffffff16036133af5760006040517fec442f050000000000000000000000000000000000000000000000000000000081526004016133a6919061428b565b60405180910390fd5b6133bb60008383612fc5565b5050565b600080600060418451036134045760008060006020870151925060408701519150606087015160001a90506133f68882858561357f565b955095509550505050613414565b60006002855160001b9250925092505b9250925092565b6000600381111561342f5761342e615921565b5b82600381111561344257613441615921565b5b031561357b576001600381111561345c5761345b615921565b5b82600381111561346f5761346e615921565b5b036134a6576040517ff645eedf00000000000000000000000000000000000000000000000000000000815260040160405180910390fd5b600260038111156134ba576134b9615921565b5b8260038111156134cd576134cc615921565b5b03613512578060001c6040517ffce698f700000000000000000000000000000000000000000000000000000000815260040161350991906139f2565b60405180910390fd5b60038081111561352557613524615921565b5b82600381111561353857613537615921565b5b0361357a57806040517fd78bce0c00000000000000000000000000000000000000000000000000000000815260040161357191906140c1565b60405180910390fd5b5b5050565b60008060007f7fffffffffffffffffffffffffffffff5d576e7357a4501ddfe92f46681b20a08460001c11156135bf576000600385925092509250613669565b6000600188888888604051600081526020016040526040516135e49493929190615950565b6020604051602081039080840390855afa158015613606573d6000803e3d6000fd5b505050602060405103519050600073ffffffffffffffffffffffffffffffffffffffff168173ffffffffffffffffffffffffffffffffffffffff160361365a57600060016000801b93509350935050613669565b8060008060001b935093509350505b9450945094915050565b82805482825590600052602060002090600602810192821561373a5760005260206000209160060282015b82811115613739578282600082018160000190816136bc9190615617565b5060018201548160010155600282018160020190816136db9190615617565b50600382018160030190816136f09190615617565b50600482015481600401556005820160009054906101000a900460ff168160050160006101000a81548160ff02191690831515021790555050509160060191906006019061369e565b5b509050613747919061374b565b5090565b5b808211156137b2576000808201600061376591906137b6565b600182016000905560028201600061377d91906137b6565b60038201600061378d91906137b6565b60048201600090556005820160006101000a81549060ff02191690555060060161374c565b5090565b5080546137c2906145c9565b6000825580601f106137d457506137f3565b601f0160209004906000526020600020908101906137f291906137f6565b5b50565b5b8082111561380f5760008160009055506001016137f7565b5090565b600081519050919050565b600082825260208201905092915050565b60005b8381101561384d578082015181840152602081019050613832565b60008484015250505050565b6000601f19601f8301169050919050565b600061387582613813565b61387f818561381e565b935061388f81856020860161382f565b61389881613859565b840191505092915050565b600060208201905081810360008301526138bd818461386a565b905092915050565b6000604051905090565b600080fd5b600080fd5b600073ffffffffffffffffffffffffffffffffffffffff82169050919050565b6000613904826138d9565b9050919050565b613914816138f9565b811461391f57600080fd5b50565b6000813590506139318161390b565b92915050565b6000819050919050565b61394a81613937565b811461395557600080fd5b50565b60008135905061396781613941565b92915050565b60008060408385031215613984576139836138cf565b5b600061399285828601613922565b92505060206139a385828601613958565b9150509250929050565b60008115159050919050565b6139c2816139ad565b82525050565b60006020820190506139dd60008301846139b9565b92915050565b6139ec81613937565b82525050565b6000602082019050613a0760008301846139e3565b92915050565b600081519050919050565b600082825260208201905092915050565b6000819050602082019050919050565b600082825260208201905092915050565b6000613a5582613813565b613a5f8185613a39565b9350613a6f81856020860161382f565b613a7881613859565b840191505092915050565b600081519050919050565b600082825260208201905092915050565b6000819050602082019050919050565b613ab881613937565b82525050565b613ac7816139ad565b82525050565b600060c0830160008301518482036000860152613aea8282613a4a565b9150506020830151613aff6020860182613aaf565b5060408301518482036040860152613b178282613a4a565b91505060608301518482036060860152613b318282613a4a565b9150506080830151613b466080860182613aaf565b5060a0830151613b5960a0860182613abe565b508091505092915050565b6000613b708383613acd565b905092915050565b6000602082019050919050565b6000613b9082613a83565b613b9a8185613a8e565b935083602082028501613bac85613a9f565b8060005b85811015613be85784840389528151613bc98582613b64565b9450613bd483613b78565b925060208a01995050600181019050613bb0565b50829750879550505050505092915050565b60006040830160008301518482036000860152613c178282613a4a565b91505060208301518482036020860152613c318282613b85565b9150508091505092915050565b6000613c4a8383613bfa565b905092915050565b6000602082019050919050565b6000613c6a82613a0d565b613c748185613a18565b935083602082028501613c8685613a29565b8060005b85811015613cc25784840389528151613ca38582613c3e565b9450613cae83613c52565b925060208a01995050600181019050613c8a565b50829750879550505050505092915050565b60006020820190508181036000830152613cee8184613c5f565b905092915050565b600080fd5b600080fd5b7f4e487b7100000000000000000000000000000000000000000000000000000000600052604160045260246000fd5b613d3882613859565b810181811067ffffffffffffffff82111715613d5757613d56613d00565b5b80604052505050565b6000613d6a6138c5565b9050613d768282613d2f565b919050565b600067ffffffffffffffff821115613d9657613d95613d00565b5b613d9f82613859565b9050602081019050919050565b82818337600083830152505050565b6000613dce613dc984613d7b565b613d60565b905082815260208101848484011115613dea57613de9613cfb565b5b613df5848285613dac565b509392505050565b600082601f830112613e1257613e11613cf6565b5b8135613e22848260208601613dbb565b91505092915050565b600060208284031215613e4157613e406138cf565b5b600082013567ffffffffffffffff811115613e5f57613e5e6138d4565b5b613e6b84828501613dfd565b91505092915050565b600060c0820190508181036000830152613e8e818961386a565b9050613e9d60208301886139e3565b8181036040830152613eaf818761386a565b90508181036060830152613ec3818661386a565b9050613ed260808301856139e3565b613edf60a08301846139b9565b979650505050505050565b600080600060608486031215613f0357613f026138cf565b5b6000613f1186828701613922565b9350506020613f2286828701613922565b9250506040613f3386828701613958565b9150509250925092565b600060ff82169050919050565b613f5381613f3d565b82525050565b6000602082019050613f6e6000830184613f4a565b92915050565b60006080820190508181036000830152613f8e818761386a565b9050613f9d60208301866139e3565b8181036040830152613faf818561386a565b9050613fbe60608301846139b9565b95945050505050565b60008060008060008060c08789031215613fe457613fe36138cf565b5b6000613ff289828a01613922565b965050602087013567ffffffffffffffff811115614013576140126138d4565b5b61401f89828a01613dfd565b955050604087013567ffffffffffffffff8111156140405761403f6138d4565b5b61404c89828a01613dfd565b945050606087013567ffffffffffffffff81111561406d5761406c6138d4565b5b61407989828a01613dfd565b935050608061408a89828a01613958565b92505060a061409b89828a01613958565b9150509295509295509295565b6000819050919050565b6140bb816140a8565b82525050565b60006020820190506140d660008301846140b2565b92915050565b6000806000606084860312156140f5576140f46138cf565b5b600084013567ffffffffffffffff811115614113576141126138d4565b5b61411f86828701613dfd565b935050602061413086828701613958565b925050604084013567ffffffffffffffff811115614151576141506138d4565b5b61415d86828701613dfd565b9150509250925092565b60006020828403121561417d5761417c6138cf565b5b600061418b84828501613922565b91505092915050565b600080600080608085870312156141ae576141ad6138cf565b5b600085013567ffffffffffffffff8111156141cc576141cb6138d4565b5b6141d887828801613dfd565b94505060206141e987828801613958565b935050604085013567ffffffffffffffff81111561420a576142096138d4565b5b61421687828801613dfd565b925050606085013567ffffffffffffffff811115614237576142366138d4565b5b61424387828801613dfd565b91505092959194509250565b600060208284031215614265576142646138cf565b5b600061427384828501613958565b91505092915050565b614285816138f9565b82525050565b60006020820190506142a0600083018461427c565b92915050565b600080604083850312156142bd576142bc6138cf565b5b600083013567ffffffffffffffff8111156142db576142da6138d4565b5b6142e785828601613dfd565b92505060206142f885828601613958565b9150509250929050565b600067ffffffffffffffff82111561431d5761431c613d00565b5b602082029050602081019050919050565b600080fd5b600061434661434184614302565b613d60565b905080838252602082019050602084028301858111156143695761436861432e565b5b835b818110156143b057803567ffffffffffffffff81111561438e5761438d613cf6565b5b80860161439b8982613dfd565b8552602085019450505060208101905061436b565b5050509392505050565b600082601f8301126143cf576143ce613cf6565b5b81356143df848260208601614333565b91505092915050565b6000602082840312156143fe576143fd6138cf565b5b600082013567ffffffffffffffff81111561441c5761441b6138d4565b5b614428848285016143ba565b91505092915050565b61443a816140a8565b811461444557600080fd5b50565b60008135905061445781614431565b92915050565b600067ffffffffffffffff82111561447857614477613d00565b5b61448182613859565b9050602081019050919050565b60006144a161449c8461445d565b613d60565b9050828152602081018484840111156144bd576144bc613cfb565b5b6144c8848285613dac565b509392505050565b600082601f8301126144e5576144e4613cf6565b5b81356144f584826020860161448e565b91505092915050565b60008060408385031215614515576145146138cf565b5b600061452385828601614448565b925050602083013567ffffffffffffffff811115614544576145436138d4565b5b614550858286016144d0565b9150509250929050565b60008060408385031215614571576145706138cf565b5b600061457f85828601613922565b925050602061459085828601613922565b9150509250929050565b7f4e487b7100000000000000000000000000000000000000000000000000000000600052602260045260246000fd5b600060028204905060018216806145e157607f821691505b6020821081036145f4576145f361459a565b5b50919050565b7f596f7520617265206e6f7420746865206f776e65722100000000000000000000600082015250565b600061463060168361381e565b915061463b826145fa565b602082019050919050565b6000602082019050818103600083015261465f81614623565b9050919050565b7f526567697374726174696f6e2068617320616c7265616479207374617274656460008201527f2e00000000000000000000000000000000000000000000000000000000000000602082015250565b60006146c260218361381e565b91506146cd82614666565b604082019050919050565b600060208201905081810360008301526146f1816146b5565b9050919050565b7f43616e6e6f7420737461727420726567697374726174696f6e2061667465722060008201527f766f74696e672068617320626567756e2e000000000000000000000000000000602082015250565b600061475460318361381e565b915061475f826146f8565b604082019050919050565b6000602082019050818103600083015261478381614747565b9050919050565b7f526567697374726174696f6e20706572696f6420686173206e6f74207374617260008201527f7465642e00000000000000000000000000000000000000000000000000000000602082015250565b60006147e660248361381e565b91506147f18261478a565b604082019050919050565b60006020820190508181036000830152614815816147d9565b9050919050565b7f566f74696e672068617320616c726561647920737461727465642e0000000000600082015250565b6000614852601b8361381e565b915061485d8261481c565b602082019050919050565b6000602082019050818103600083015261488181614845565b9050919050565b600081905092915050565b7f19457468657265756d205369676e6564204d6573736167653a0a000000000000600082015250565b60006148c9601a83614888565b91506148d482614893565b601a82019050919050565b7f446f6d61696e3a20000000000000000000000000000000000000000000000000600082015250565b6000614915600883614888565b9150614920826148df565b600882019050919050565b600061493682613813565b6149408185614888565b935061495081856020860161382f565b80840191505092915050565b7f0a00000000000000000000000000000000000000000000000000000000000000600082015250565b6000614992600183614888565b915061499d8261495c565b600182019050919050565b7f416464726573733a200000000000000000000000000000000000000000000000600082015250565b60006149de600983614888565b91506149e9826149a8565b600982019050919050565b7f53746174656d656e743a20000000000000000000000000000000000000000000600082015250565b6000614a2a600b83614888565b9150614a35826149f4565b600b82019050919050565b7f5552493a20000000000000000000000000000000000000000000000000000000600082015250565b6000614a76600583614888565b9150614a8182614a40565b600582019050919050565b7f56657273696f6e3a20310a000000000000000000000000000000000000000000600082015250565b6000614ac2600b83614888565b9150614acd82614a8c565b600b82019050919050565b7f436861696e2049443a2000000000000000000000000000000000000000000000600082015250565b6000614b0e600a83614888565b9150614b1982614ad8565b600a82019050919050565b7f4e6f6e63653a2000000000000000000000000000000000000000000000000000600082015250565b6000614b5a600783614888565b9150614b6582614b24565b600782019050919050565b6000614b7b826148bc565b9150614b8682614908565b9150614b92828961492b565b9150614b9d82614985565b9150614ba8826149d1565b9150614bb4828861492b565b9150614bbf82614985565b9150614bca82614a1d565b9150614bd6828761492b565b9150614be182614985565b9150614bec82614a69565b9150614bf8828661492b565b9150614c0382614985565b9150614c0e82614ab5565b9150614c1982614b01565b9150614c25828561492b565b9150614c3082614985565b9150614c3b82614b4d565b9150614c47828461492b565b9150819050979650505050505050565b7f43616e6e6f7420726567697374657220647572696e6720766f74696e6720706560008201527f72696f642e000000000000000000000000000000000000000000000000000000602082015250565b6000614cb360258361381e565b9150614cbe82614c57565b604082019050919050565b60006020820190508181036000830152614ce281614ca6565b9050919050565b6000614cf5828461492b565b915081905092915050565b7f566f74657220616c726561647920657869737473210000000000000000000000600082015250565b6000614d3660158361381e565b9150614d4182614d00565b602082019050919050565b60006020820190508181036000830152614d6581614d29565b9050919050565b60008190508160005260206000209050919050565b60006020601f8301049050919050565b600082821b905092915050565b600060088302614dce7fffffffffffffffffffffffffffffffffffffffffffffffffffffffffffffffff82614d91565b614dd88683614d91565b95508019841693508086168417925050509392505050565b6000819050919050565b6000614e15614e10614e0b84613937565b614df0565b613937565b9050919050565b6000819050919050565b614e2f83614dfa565b614e43614e3b82614e1c565b848454614d9e565b825550505050565b600090565b614e58614e4b565b614e63818484614e26565b505050565b5b81811015614e8757614e7c600082614e50565b600181019050614e69565b5050565b601f821115614ecc57614e9d81614d6c565b614ea684614d81565b81016020851015614eb5578190505b614ec9614ec185614d81565b830182614e68565b50505b505050565b600082821c905092915050565b6000614eef60001984600802614ed1565b1980831691505092915050565b6000614f088383614ede565b9150826002028217905092915050565b614f2182613813565b67ffffffffffffffff811115614f3a57614f39613d00565b5b614f4482546145c9565b614f4f828285614e8b565b600060209050601f831160018114614f825760008415614f70578287015190505b614f7a8582614efc565b865550614fe2565b601f198416614f9086614d6c565b60005b82811015614fb857848901518255600182019150602085019450602081019050614f93565b86831015614fd55784890151614fd1601f891682614ede565b8355505b6001600288020188555050505b505050505050565b7f43616e64696461746520616c7265616479206578697374732100000000000000600082015250565b600061502060198361381e565b915061502b82614fea565b602082019050919050565b6000602082019050818103600083015261504f81615013565b9050919050565b7f596f75206d7573742062652061207265676973746572656420766f7465722100600082015250565b600061508c601f8361381e565b915061509782615056565b602082019050919050565b600060208201905081810360008301526150bb8161507f565b9050919050565b60006040820190506150d760008301856139e3565b81810360208301526150e9818461386a565b90509392505050565b7f43616e64696461746520616c7265616479207665726966696564210000000000600082015250565b6000615128601b8361381e565b9150615133826150f2565b602082019050919050565b600060208201905081810360008301526151578161511b565b9050919050565b6000815461516b816145c9565b6151758186614888565b9450600182166000811461519057600181146151a5576151d8565b60ff19831686528115158202860193506151d8565b6151ae85614d6c565b60005b838110156151d0578154818901526001820191506020810190506151b1565b838801955050505b50505092915050565b60006151ed828461515e565b915081905092915050565b7f526567697374726174696f6e20706572696f64206973207374696c6c2061637460008201527f6976652e00000000000000000000000000000000000000000000000000000000602082015250565b600061525460248361381e565b915061525f826151f8565b604082019050919050565b6000602082019050818103600083015261528381615247565b9050919050565b7f566f74696e6720686173206e6f742073746172746564207965742e0000000000600082015250565b60006152c0601b8361381e565b91506152cb8261528a565b602082019050919050565b600060208201905081810360008301526152ef816152b3565b9050919050565b7f596f75206861766520616c726561647920766f7465642e000000000000000000600082015250565b600061532c60178361381e565b9150615337826152f6565b602082019050919050565b6000602082019050818103600083015261535b8161531f565b9050919050565b7f496e76616c696420706f736974696f6e2e000000000000000000000000000000600082015250565b600061539860118361381e565b91506153a382615362565b602082019050919050565b600060208201905081810360008301526153c78161538b565b9050919050565b7f496e76616c69642063616e64696461746520696e6465782e0000000000000000600082015250565b600061540460188361381e565b915061540f826153ce565b602082019050919050565b60006020820190508181036000830152615433816153f7565b9050919050565b7f4e487b7100000000000000000000000000000000000000000000000000000000600052603260045260246000fd5b7f4e487b7100000000000000000000000000000000000000000000000000000000600052601160045260246000fd5b60006154a382613937565b91506154ae83613937565b92508282019050808211156154c6576154c5615469565b5b92915050565b600081546154d9816145c9565b6154e3818661381e565b945060018216600081146154fe576001811461551457615547565b60ff198316865281151560200286019350615547565b61551d85614d6c565b60005b8381101561553f57815481890152600182019150602081019050615520565b808801955050505b50505092915050565b6000606082019050818103600083015261556a81866154cc565b9050818103602083015261557e818561386a565b905061558d60408301846139e3565b949350505050565b7f506f736974696f6e20616c726561647920657869737473210000000000000000600082015250565b60006155cb60188361381e565b91506155d682615595565b602082019050919050565b600060208201905081810360008301526155fa816155be565b9050919050565b600081549050615610816145c9565b9050919050565b8181036156255750506156fd565b61562e82615601565b67ffffffffffffffff81111561564757615646613d00565b5b61565182546145c9565b61565c828285614e8b565b6000601f83116001811461568b5760008415615679578287015490505b6156838582614efc565b8655506156f6565b601f19841661569987614d6c565b96506156a486614d6c565b60005b828110156156cc578489015482556001820191506001850194506020810190506156a7565b868310156156e957848901546156e5601f891682614ede565b8355505b6001600288020188555050505b5050505050505b565b7f19457468657265756d205369676e6564204d6573736167653a0a333200000000600082015250565b6000615735601c83614888565b9150615740826156ff565b601c82019050919050565b6000819050919050565b615766615761826140a8565b61574b565b82525050565b600061577782615728565b91506157838284615755565b60208201915081905092915050565b60006060820190506157a7600083018661427c565b6157b460208301856139e3565b6157c160408301846139e3565b949350505050565b60006157d482613937565b91506157df83613937565b92508282026157ed81613937565b9150828204841483151761580457615803615469565b5b5092915050565b600061581682613937565b91506000820361582957615828615469565b5b600182039050919050565b600060408201905061584960008301856139e3565b61585660208301846139e3565b9392505050565b7f4e487b7100000000000000000000000000000000000000000000000000000000600052601260045260246000fd5b7f546f6b656e206c696d6974206578636565646564210000000000000000000000600082015250565b60006158c260158361381e565b91506158cd8261588c565b602082019050919050565b600060208201905081810360008301526158f1816158b5565b9050919050565b600060408201905061590d600083018561427c565b61591a60208301846139e3565b9392505050565b7f4e487b7100000000000000000000000000000000000000000000000000000000600052602160045260246000fd5b600060808201905061596560008301876140b2565b6159726020830186613f4a565b61597f60408301856140b2565b61598c60608301846140b2565b9594505050505056fea26469706673582212204bc828ea128bfb606521c2707182e47ea4f50530452b7644dcf81402e3216f9d64736f6c634300081b0033",
  "linkReferences": {},
  "deployedLinkReferences": {}
}