{
  "_format": "hh-sol-artifact-1",
  "contractName": "Voting",
  "sourceName": "contracts/Voting.sol",
  "abi": [
    {
      "inputs": [],
      "stateMutability": "nonpayable",
      "type": "constructor"
    },
    {
      "inputs": [],
      "name": "ECDSAInvalidSignature",
      "type": "error"
    },
    {
      "inputs": [
        {
          "internalType": "uint256",
          "name": "length",
          "type": "uint256"
        }
      ],
      "name": "ECDSAInvalidSignatureLength",
      "type": "error"
    },
    {
      "inputs": [
        {
          "internalType": "bytes32",
          "name": "s",
          "type": "bytes32"
        }
      ],
      "name": "ECDSAInvalidSignatureS",
      "type": "error"
    },
    {
      "inputs": [
        {
          "internalType": "address",
          "name": "spender",
          "type": "address"
        },
        {
          "internalType": "uint256",
          "name": "allowance",
          "type": "uint256"
        },
        {
          "internalType": "uint256",
          "name": "needed",
          "type": "uint256"
        }
      ],
      "name": "ERC20InsufficientAllowance",
      "type": "error"
    },
    {
      "inputs": [
        {
          "internalType": "address",
          "name": "sender",
          "type": "address"
        },
        {
          "internalType": "uint256",
          "name": "balance",
          "type": "uint256"
        },
        {
          "internalType": "uint256",
          "name": "needed",
          "type": "uint256"
        }
      ],
      "name": "ERC20InsufficientBalance",
      "type": "error"
    },
    {
      "inputs": [
        {
          "internalType": "address",
          "name": "approver",
          "type": "address"
        }
      ],
      "name": "ERC20InvalidApprover",
      "type": "error"
    },
    {
      "inputs": [
        {
          "internalType": "address",
          "name": "receiver",
          "type": "address"
        }
      ],
      "name": "ERC20InvalidReceiver",
      "type": "error"
    },
    {
      "inputs": [
        {
          "internalType": "address",
          "name": "sender",
          "type": "address"
        }
      ],
      "name": "ERC20InvalidSender",
      "type": "error"
    },
    {
      "inputs": [
        {
          "internalType": "address",
          "name": "spender",
          "type": "address"
        }
      ],
      "name": "ERC20InvalidSpender",
      "type": "error"
    },
    {
      "inputs": [
        {
          "internalType": "uint256",
          "name": "value",
          "type": "uint256"
        },
        {
          "internalType": "uint256",
          "name": "length",
          "type": "uint256"
        }
      ],
      "name": "StringsInsufficientHexLength",
      "type": "error"
    },
    {
      "anonymous": false,
      "inputs": [
        {
          "indexed": true,
          "internalType": "address",
          "name": "owner",
          "type": "address"
        },
        {
          "indexed": true,
          "internalType": "address",
          "name": "spender",
          "type": "address"
        },
        {
          "indexed": false,
          "internalType": "uint256",
          "name": "value",
          "type": "uint256"
        }
      ],
      "name": "Approval",
      "type": "event"
    },
    {
      "anonymous": false,
      "inputs": [
        {
          "indexed": true,
          "internalType": "string",
          "name": "_names",
          "type": "string"
        },
        {
          "indexed": false,
          "internalType": "uint256",
          "name": "_age",
          "type": "uint256"
        },
        {
          "indexed": true,
          "internalType": "string",
          "name": "_idNumber",
          "type": "string"
        },
        {
          "indexed": false,
          "internalType": "string",
          "name": "_party",
          "type": "string"
        },
        {
          "indexed": false,
          "internalType": "string",
          "name": "_position",
          "type": "string"
        }
      ],
      "name": "CandidateRegistrationSuccess",
      "type": "event"
    },
    {
      "anonymous": false,
      "inputs": [
        {
          "indexed": false,
          "internalType": "address",
          "name": "_to",
          "type": "address"
        },
        {
          "indexed": false,
          "internalType": "uint256",
          "name": "_amount",
          "type": "uint256"
        }
      ],
      "name": "MintSuccess",
      "type": "event"
    },
    {
      "anonymous": false,
      "inputs": [
        {
          "indexed": false,
          "internalType": "string",
          "name": "positionName",
          "type": "string"
        }
      ],
      "name": "PositionAdded",
      "type": "event"
    },
    {
      "anonymous": false,
      "inputs": [],
      "name": "RegistrationEnded",
      "type": "event"
    },
    {
      "anonymous": false,
      "inputs": [],
      "name": "RegistrationStarted",
      "type": "event"
    },
    {
      "anonymous": false,
      "inputs": [
        {
          "indexed": true,
          "internalType": "string",
          "name": "_idNumber",
          "type": "string"
        }
      ],
      "name": "RejectCandidateSuccess",
      "type": "event"
    },
    {
      "anonymous": false,
      "inputs": [
        {
          "indexed": true,
          "internalType": "address",
          "name": "from",
          "type": "address"
        },
        {
          "indexed": true,
          "internalType": "address",
          "name": "to",
          "type": "address"
        },
        {
          "indexed": false,
          "internalType": "uint256",
          "name": "value",
          "type": "uint256"
        }
      ],
      "name": "Transfer",
      "type": "event"
    },
    {
      "anonymous": false,
      "inputs": [
        {
          "indexed": true,
          "internalType": "string",
          "name": "_names",
          "type": "string"
        },
        {
          "indexed": true,
          "internalType": "string",
          "name": "_idNumber",
          "type": "string"
        }
      ],
      "name": "VerifyCandidateSuccess",
      "type": "event"
    },
    {
      "anonymous": false,
      "inputs": [
        {
          "indexed": true,
          "internalType": "address",
          "name": "voter",
          "type": "address"
        },
        {
          "indexed": false,
          "internalType": "string",
          "name": "_idNumber",
          "type": "string"
        },
        {
          "indexed": false,
          "internalType": "string",
          "name": "position",
          "type": "string"
        },
        {
          "indexed": false,
          "internalType": "uint256",
          "name": "candidateIndex",
          "type": "uint256"
        }
      ],
      "name": "VotedSuccess",
      "type": "event"
    },
    {
      "anonymous": false,
      "inputs": [
        {
          "indexed": true,
          "internalType": "string",
          "name": "_names",
          "type": "string"
        },
        {
          "indexed": false,
          "internalType": "uint256",
          "name": "_age",
          "type": "uint256"
        },
        {
          "indexed": true,
          "internalType": "string",
          "name": "_idNumber",
          "type": "string"
        }
      ],
      "name": "VoterRegistrationSuccess",
      "type": "event"
    },
    {
      "anonymous": false,
      "inputs": [],
      "name": "VotingEnded",
      "type": "event"
    },
    {
      "anonymous": false,
      "inputs": [],
      "name": "VotingStarted",
      "type": "event"
    },
    {
      "inputs": [],
      "name": "MAX_SUPPLY",
      "outputs": [
        {
          "internalType": "uint256",
          "name": "",
          "type": "uint256"
        }
      ],
      "stateMutability": "view",
      "type": "function"
    },
    {
      "inputs": [],
      "name": "REGISTER_AS_VOTER",
      "outputs": [
        {
          "internalType": "uint256",
          "name": "",
          "type": "uint256"
        }
      ],
      "stateMutability": "view",
      "type": "function"
    },
    {
      "inputs": [],
      "name": "VERIFY_CANDIDATE",
      "outputs": [
        {
          "internalType": "uint256",
          "name": "",
          "type": "uint256"
        }
      ],
      "stateMutability": "view",
      "type": "function"
    },
    {
      "inputs": [
        {
          "internalType": "string[]",
          "name": "_pNames",
          "type": "string[]"
        }
      ],
      "name": "addPositions",
      "outputs": [],
      "stateMutability": "nonpayable",
      "type": "function"
    },
    {
      "inputs": [
        {
          "internalType": "address",
          "name": "owner",
          "type": "address"
        },
        {
          "internalType": "address",
          "name": "spender",
          "type": "address"
        }
      ],
      "name": "allowance",
      "outputs": [
        {
          "internalType": "uint256",
          "name": "",
          "type": "uint256"
        }
      ],
      "stateMutability": "view",
      "type": "function"
    },
    {
      "inputs": [
        {
          "internalType": "address",
          "name": "spender",
          "type": "address"
        },
        {
          "internalType": "uint256",
          "name": "value",
          "type": "uint256"
        }
      ],
      "name": "approve",
      "outputs": [
        {
          "internalType": "bool",
          "name": "",
          "type": "bool"
        }
      ],
      "stateMutability": "nonpayable",
      "type": "function"
    },
    {
      "inputs": [
        {
          "internalType": "address",
          "name": "account",
          "type": "address"
        }
      ],
      "name": "balanceOf",
      "outputs": [
        {
          "internalType": "uint256",
          "name": "",
          "type": "uint256"
        }
      ],
      "stateMutability": "view",
      "type": "function"
    },
    {
      "inputs": [
        {
          "internalType": "string",
          "name": "",
          "type": "string"
        }
      ],
      "name": "candidateObject",
      "outputs": [
        {
          "internalType": "string",
          "name": "names",
          "type": "string"
        },
        {
          "internalType": "uint256",
          "name": "age",
          "type": "uint256"
        },
        {
          "internalType": "string",
          "name": "idNumber",
          "type": "string"
        },
        {
          "internalType": "string",
          "name": "party",
          "type": "string"
        },
        {
          "internalType": "uint256",
          "name": "votes",
          "type": "uint256"
        },
        {
          "internalType": "bool",
          "name": "verified",
          "type": "bool"
        },
        {
          "internalType": "string",
          "name": "position",
          "type": "string"
        }
      ],
      "stateMutability": "view",
      "type": "function"
    },
    {
      "inputs": [
        {
          "internalType": "address",
          "name": "userAddress",
          "type": "address"
        },
        {
          "internalType": "string",
          "name": "domain",
          "type": "string"
        },
        {
          "internalType": "string",
          "name": "statement",
          "type": "string"
        },
        {
          "internalType": "string",
          "name": "uri",
          "type": "string"
        },
        {
          "internalType": "uint256",
          "name": "chainId",
          "type": "uint256"
        },
        {
          "internalType": "uint256",
          "name": "nonce",
          "type": "uint256"
        }
      ],
      "name": "createMessageHash",
      "outputs": [
        {
          "internalType": "bytes32",
          "name": "",
          "type": "bytes32"
        }
      ],
      "stateMutability": "pure",
      "type": "function"
    },
    {
      "inputs": [],
      "name": "decimals",
      "outputs": [
        {
          "internalType": "uint8",
          "name": "",
          "type": "uint8"
        }
      ],
      "stateMutability": "view",
      "type": "function"
    },
    {
      "inputs": [
        {
          "internalType": "uint256",
          "name": "votingDays",
          "type": "uint256"
        }
      ],
      "name": "endRegistrationAndStartVoting",
      "outputs": [],
      "stateMutability": "nonpayable",
      "type": "function"
    },
    {
      "inputs": [],
      "name": "endVoting",
      "outputs": [],
      "stateMutability": "nonpayable",
      "type": "function"
    },
    {
      "inputs": [],
      "name": "getAllPositions",
      "outputs": [
        {
          "components": [
            {
              "internalType": "string",
              "name": "pName",
              "type": "string"
            },
            {
              "components": [
                {
                  "internalType": "string",
                  "name": "names",
                  "type": "string"
                },
                {
                  "internalType": "uint256",
                  "name": "age",
                  "type": "uint256"
                },
                {
                  "internalType": "string",
                  "name": "idNumber",
                  "type": "string"
                },
                {
                  "internalType": "string",
                  "name": "party",
                  "type": "string"
                },
                {
                  "internalType": "uint256",
                  "name": "votes",
                  "type": "uint256"
                },
                {
                  "internalType": "bool",
                  "name": "verified",
                  "type": "bool"
                },
                {
                  "internalType": "string",
                  "name": "position",
                  "type": "string"
                }
              ],
              "internalType": "struct Voting.Candidate[]",
              "name": "candidates",
              "type": "tuple[]"
            }
          ],
          "internalType": "struct Voting.Position[]",
          "name": "",
          "type": "tuple[]"
        }
      ],
      "stateMutability": "view",
      "type": "function"
    },
    {
      "inputs": [],
      "name": "getCandidates",
      "outputs": [
        {
          "components": [
            {
              "internalType": "string",
              "name": "names",
              "type": "string"
            },
            {
              "internalType": "uint256",
              "name": "age",
              "type": "uint256"
            },
            {
              "internalType": "string",
              "name": "idNumber",
              "type": "string"
            },
            {
              "internalType": "string",
              "name": "party",
              "type": "string"
            },
            {
              "internalType": "uint256",
              "name": "votes",
              "type": "uint256"
            },
            {
              "internalType": "bool",
              "name": "verified",
              "type": "bool"
            },
            {
              "internalType": "string",
              "name": "position",
              "type": "string"
            }
          ],
          "internalType": "struct Voting.Candidate[]",
          "name": "",
          "type": "tuple[]"
        }
      ],
      "stateMutability": "view",
      "type": "function"
    },
    {
      "inputs": [],
      "name": "getPositionCount",
      "outputs": [
        {
          "internalType": "uint256",
          "name": "",
          "type": "uint256"
        }
      ],
      "stateMutability": "view",
      "type": "function"
    },
    {
      "inputs": [],
      "name": "getVoters",
      "outputs": [
        {
          "components": [
            {
              "internalType": "string",
              "name": "names",
              "type": "string"
            },
            {
              "internalType": "uint256",
              "name": "age",
              "type": "uint256"
            },
            {
              "internalType": "string",
              "name": "idNumber",
              "type": "string"
            },
            {
              "internalType": "bool",
              "name": "voted",
              "type": "bool"
            }
          ],
          "internalType": "struct Voting.Voter[]",
          "name": "",
          "type": "tuple[]"
        }
      ],
      "stateMutability": "view",
      "type": "function"
    },
    {
      "inputs": [],
      "name": "getVotingEndTime",
      "outputs": [
        {
          "internalType": "uint256",
          "name": "",
          "type": "uint256"
        }
      ],
      "stateMutability": "view",
      "type": "function"
    },
    {
      "inputs": [],
      "name": "hasVotingEnded",
      "outputs": [
        {
          "internalType": "bool",
          "name": "",
          "type": "bool"
        }
      ],
      "stateMutability": "view",
      "type": "function"
    },
    {
      "inputs": [
        {
          "internalType": "address",
          "name": "_account",
          "type": "address"
        }
      ],
      "name": "isVoterRegistered",
      "outputs": [
        {
          "internalType": "bool",
          "name": "",
          "type": "bool"
        }
      ],
      "stateMutability": "view",
      "type": "function"
    },
    {
      "inputs": [
        {
          "internalType": "uint256",
          "name": "",
          "type": "uint256"
        }
      ],
      "name": "listOfCandidates",
      "outputs": [
        {
          "internalType": "string",
          "name": "names",
          "type": "string"
        },
        {
          "internalType": "uint256",
          "name": "age",
          "type": "uint256"
        },
        {
          "internalType": "string",
          "name": "idNumber",
          "type": "string"
        },
        {
          "internalType": "string",
          "name": "party",
          "type": "string"
        },
        {
          "internalType": "uint256",
          "name": "votes",
          "type": "uint256"
        },
        {
          "internalType": "bool",
          "name": "verified",
          "type": "bool"
        },
        {
          "internalType": "string",
          "name": "position",
          "type": "string"
        }
      ],
      "stateMutability": "view",
      "type": "function"
    },
    {
      "inputs": [
        {
          "internalType": "uint256",
          "name": "",
          "type": "uint256"
        }
      ],
      "name": "listOfPositions",
      "outputs": [
        {
          "internalType": "string",
          "name": "pName",
          "type": "string"
        }
      ],
      "stateMutability": "view",
      "type": "function"
    },
    {
      "inputs": [
        {
          "internalType": "uint256",
          "name": "",
          "type": "uint256"
        }
      ],
      "name": "listOfVoters",
      "outputs": [
        {
          "internalType": "string",
          "name": "names",
          "type": "string"
        },
        {
          "internalType": "uint256",
          "name": "age",
          "type": "uint256"
        },
        {
          "internalType": "string",
          "name": "idNumber",
          "type": "string"
        },
        {
          "internalType": "bool",
          "name": "voted",
          "type": "bool"
        }
      ],
      "stateMutability": "view",
      "type": "function"
    },
    {
      "inputs": [],
      "name": "name",
      "outputs": [
        {
          "internalType": "string",
          "name": "",
          "type": "string"
        }
      ],
      "stateMutability": "view",
      "type": "function"
    },
    {
      "inputs": [],
      "name": "owner",
      "outputs": [
        {
          "internalType": "address",
          "name": "",
          "type": "address"
        }
      ],
      "stateMutability": "view",
      "type": "function"
    },
    {
      "inputs": [
        {
          "internalType": "string",
          "name": "",
          "type": "string"
        }
      ],
      "name": "positions",
      "outputs": [
        {
          "internalType": "string",
          "name": "pName",
          "type": "string"
        }
      ],
      "stateMutability": "view",
      "type": "function"
    },
    {
      "inputs": [
        {
          "internalType": "string",
          "name": "_names",
          "type": "string"
        },
        {
          "internalType": "uint256",
          "name": "_age",
          "type": "uint256"
        },
        {
          "internalType": "string",
          "name": "_idNumber",
          "type": "string"
        },
        {
          "internalType": "string",
          "name": "_party",
          "type": "string"
        },
        {
          "internalType": "string",
          "name": "_position",
          "type": "string"
        }
      ],
      "name": "registerCandidate",
      "outputs": [],
      "stateMutability": "nonpayable",
      "type": "function"
    },
    {
      "inputs": [
        {
          "internalType": "string",
          "name": "_names",
          "type": "string"
        },
        {
          "internalType": "uint256",
          "name": "_age",
          "type": "uint256"
        },
        {
          "internalType": "string",
          "name": "_idNumber",
          "type": "string"
        }
      ],
      "name": "registerVoter",
      "outputs": [
        {
          "internalType": "bool",
          "name": "",
          "type": "bool"
        }
      ],
      "stateMutability": "nonpayable",
      "type": "function"
    },
    {
      "inputs": [],
      "name": "registrationStarted",
      "outputs": [
        {
          "internalType": "bool",
          "name": "",
          "type": "bool"
        }
      ],
      "stateMutability": "view",
      "type": "function"
    },
    {
      "inputs": [
        {
          "internalType": "string",
          "name": "_idNumber",
          "type": "string"
        }
      ],
      "name": "rejectCandidate",
      "outputs": [],
      "stateMutability": "nonpayable",
      "type": "function"
    },
    {
      "inputs": [],
      "name": "startRegistration",
      "outputs": [],
      "stateMutability": "nonpayable",
      "type": "function"
    },
    {
      "inputs": [],
      "name": "symbol",
      "outputs": [
        {
          "internalType": "string",
          "name": "",
          "type": "string"
        }
      ],
      "stateMutability": "view",
      "type": "function"
    },
    {
      "inputs": [],
      "name": "totalSupply",
      "outputs": [
        {
          "internalType": "uint256",
          "name": "",
          "type": "uint256"
        }
      ],
      "stateMutability": "view",
      "type": "function"
    },
    {
      "inputs": [
        {
          "internalType": "address",
          "name": "to",
          "type": "address"
        },
        {
          "internalType": "uint256",
          "name": "value",
          "type": "uint256"
        }
      ],
      "name": "transfer",
      "outputs": [
        {
          "internalType": "bool",
          "name": "",
          "type": "bool"
        }
      ],
      "stateMutability": "nonpayable",
      "type": "function"
    },
    {
      "inputs": [
        {
          "internalType": "address",
          "name": "from",
          "type": "address"
        },
        {
          "internalType": "address",
          "name": "to",
          "type": "address"
        },
        {
          "internalType": "uint256",
          "name": "value",
          "type": "uint256"
        }
      ],
      "name": "transferFrom",
      "outputs": [
        {
          "internalType": "bool",
          "name": "",
          "type": "bool"
        }
      ],
      "stateMutability": "nonpayable",
      "type": "function"
    },
    {
      "inputs": [
        {
          "internalType": "string",
          "name": "_idNumber",
          "type": "string"
        }
      ],
      "name": "verifyCandidate",
      "outputs": [],
      "stateMutability": "nonpayable",
      "type": "function"
    },
    {
      "inputs": [
        {
          "internalType": "bytes32",
          "name": "hash",
          "type": "bytes32"
        },
        {
          "internalType": "bytes",
          "name": "signature",
          "type": "bytes"
        }
      ],
      "name": "verifySignature",
      "outputs": [
        {
          "internalType": "bool",
          "name": "",
          "type": "bool"
        }
      ],
      "stateMutability": "view",
      "type": "function"
    },
    {
      "inputs": [
        {
          "internalType": "string",
          "name": "position",
          "type": "string"
        },
        {
          "internalType": "uint256",
          "name": "candidateIndex",
          "type": "uint256"
        }
      ],
      "name": "vote",
      "outputs": [],
      "stateMutability": "nonpayable",
      "type": "function"
    },
    {
      "inputs": [
        {
          "internalType": "string",
          "name": "",
          "type": "string"
        }
      ],
      "name": "voterObject",
      "outputs": [
        {
          "internalType": "string",
          "name": "names",
          "type": "string"
        },
        {
          "internalType": "uint256",
          "name": "age",
          "type": "uint256"
        },
        {
          "internalType": "string",
          "name": "idNumber",
          "type": "string"
        },
        {
          "internalType": "bool",
          "name": "voted",
          "type": "bool"
        }
      ],
      "stateMutability": "view",
      "type": "function"
    },
    {
      "inputs": [
        {
          "internalType": "address",
          "name": "",
          "type": "address"
        }
      ],
      "name": "voters",
      "outputs": [
        {
          "internalType": "string",
          "name": "names",
          "type": "string"
        },
        {
          "internalType": "uint256",
          "name": "age",
          "type": "uint256"
        },
        {
          "internalType": "string",
          "name": "idNumber",
          "type": "string"
        },
        {
          "internalType": "bool",
          "name": "voted",
          "type": "bool"
        }
      ],
      "stateMutability": "view",
      "type": "function"
    },
    {
      "inputs": [],
      "name": "votingEndTime",
      "outputs": [
        {
          "internalType": "uint256",
          "name": "",
          "type": "uint256"
        }
      ],
      "stateMutability": "view",
      "type": "function"
    },
    {
      "inputs": [],
      "name": "votingStarted",
      "outputs": [
        {
          "internalType": "bool",
          "name": "",
          "type": "bool"
        }
      ],
      "stateMutability": "view",
      "type": "function"
    }
  ],
  "bytecode": "0x60806040526000600f60006101000a81548160ff0219169083151502179055506000600f60016101000a81548160ff02191690831515021790555034801561004657600080fd5b506040518060400160405280600581526020017f566f7465780000000000000000000000000000000000000000000000000000008152506040518060400160405280600481526020017f56544b4e0000000000000000000000000000000000000000000000000000000081525081600390816100c2919061036b565b5080600490816100d2919061036b565b50505033600560006101000a81548173ffffffffffffffffffffffffffffffffffffffff021916908373ffffffffffffffffffffffffffffffffffffffff16021790555061043d565b600081519050919050565b7f4e487b7100000000000000000000000000000000000000000000000000000000600052604160045260246000fd5b7f4e487b7100000000000000000000000000000000000000000000000000000000600052602260045260246000fd5b6000600282049050600182168061019c57607f821691505b6020821081036101af576101ae610155565b5b50919050565b60008190508160005260206000209050919050565b60006020601f8301049050919050565b600082821b905092915050565b6000600883026102177fffffffffffffffffffffffffffffffffffffffffffffffffffffffffffffffff826101da565b61022186836101da565b95508019841693508086168417925050509392505050565b6000819050919050565b6000819050919050565b600061026861026361025e84610239565b610243565b610239565b9050919050565b6000819050919050565b6102828361024d565b61029661028e8261026f565b8484546101e7565b825550505050565b600090565b6102ab61029e565b6102b6818484610279565b505050565b5b818110156102da576102cf6000826102a3565b6001810190506102bc565b5050565b601f82111561031f576102f0816101b5565b6102f9846101ca565b81016020851015610308578190505b61031c610314856101ca565b8301826102bb565b50505b505050565b600082821c905092915050565b600061034260001984600802610324565b1980831691505092915050565b600061035b8383610331565b9150826002028217905092915050565b6103748261011b565b67ffffffffffffffff81111561038d5761038c610126565b5b6103978254610184565b6103a28282856102de565b600060209050601f8311600181146103d557600084156103c3578287015190505b6103cd858261034f565b865550610435565b601f1984166103e3866101b5565b60005b8281101561040b578489015182556001820191506020850194506020810190506103e6565b868310156104285784890151610424601f891682610331565b8355505b6001600288020188555050505b505050505050565b616f9e8061044c6000396000f3fe608060405234801561001057600080fd5b50600436106102535760003560e01c80638168347611610146578063abceaad2116100c3578063c3403ddf11610087578063c3403ddf14610751578063cdd722531461075b578063daca6f7814610779578063dd62ed3e146107a9578063eb2119db146107d9578063ffdd74961461080957610253565b8063abceaad2146106c1578063b034d2b3146106dd578063b1bf87b0146106f9578063b80a398a14610717578063be94ced71461073357610253565b80639a53cbea1161010a5780639a53cbea146105f35780639dfa906514610626578063a3ec138d14610642578063a638580314610675578063a9059cbb1461069157610253565b8063816834761461054557806383d948b7146105635780638da5cb5b1461058157806392d7df4a1461059f57806395d89b41146105d557610253565b8063313ce567116101d45780635fbcc155116101985780635fbcc155146104555780636636b91e14610485578063676f86b0146104b557806370a08231146104e557806371a6f4651461051557610253565b8063313ce567146103ac57806332cb6b0c146103ca5780633dd079c0146103e85780634902a179146104065780634a66e1ab1461042257610253565b806318f56a0a1161021b57806318f56a0a146102ec5780631c64a33e1461030a5780631ea736e01461034057806323b872dd1461035e57806327aed42e1461038e57610253565b806306a49fce1461025857806306fdde0314610276578063095ea7b31461029457806310b86695146102c457806318160ddd146102ce575b600080fd5b610260610827565b60405161026d9190614b0e565b60405180910390f35b61027e610afd565b60405161028b9190614b7a565b60405180910390f35b6102ae60048036038101906102a99190614c3a565b610b8f565b6040516102bb9190614c89565b60405180910390f35b6102cc610bb2565b005b6102d6610d2b565b6040516102e39190614cb3565b60405180910390f35b6102f4610d35565b6040516103019190614e5a565b60405180910390f35b610324600480360381019061031f9190614fb1565b6110fc565b6040516103379796959493929190614ffa565b60405180910390f35b610348611381565b6040516103559190614cb3565b60405180910390f35b61037860048036038101906103739190615085565b611387565b6040516103859190614c89565b60405180910390f35b6103966113b6565b6040516103a39190614c89565b60405180910390f35b6103b46113c9565b6040516103c191906150f4565b60405180910390f35b6103d26113d2565b6040516103df9190614cb3565b60405180910390f35b6103f06113e0565b6040516103fd9190614c89565b60405180910390f35b610420600480360381019061041b919061510f565b611405565b005b61043c60048036038101906104379190614fb1565b6115e5565b60405161044c949392919061513c565b60405180910390f35b61046f600480360381019061046a919061518f565b611748565b60405161047c9190615289565b60405180910390f35b61049f600480360381019061049a91906152a4565b6117b7565b6040516104ac9190614c89565b60405180910390f35b6104cf60048036038101906104ca9190614fb1565b611b8c565b6040516104dc9190614b7a565b60405180910390f35b6104ff60048036038101906104fa919061532f565b611c48565b60405161050c9190614cb3565b60405180910390f35b61052f600480360381019061052a919061510f565b611c90565b60405161053c9190614b7a565b60405180910390f35b61054d611d46565b60405161055a9190614cb3565b60405180910390f35b61056b611d53565b6040516105789190614c89565b60405180910390f35b610589611d66565b604051610596919061536b565b60405180910390f35b6105b960048036038101906105b4919061510f565b611d8c565b6040516105cc9796959493929190614ffa565b60405180910390f35b6105dd61200b565b6040516105ea9190614b7a565b60405180910390f35b61060d6004803603810190610608919061510f565b61209d565b60405161061d949392919061513c565b60405180910390f35b610640600480360381019061063b9190614fb1565b6121fa565b005b61065c6004803603810190610657919061532f565b612499565b60405161066c949392919061513c565b60405180910390f35b61068f600480360381019061068a9190615386565b6125e6565b005b6106ab60048036038101906106a69190614c3a565b6128ba565b6040516106b89190614c89565b60405180910390f35b6106db60048036038101906106d691906154c8565b6128dd565b005b6106f760048036038101906106f29190614fb1565b612b75565b005b610701612f7d565b60405161070e9190614cb3565b60405180910390f35b610731600480360381019061072c9190615511565b612f87565b005b61073b613459565b6040516107489190614cb3565b60405180910390f35b610759613465565b005b6107636135f4565b6040516107709190615728565b60405180910390f35b610793600480360381019061078e9190615817565b61379c565b6040516107a09190614c89565b60405180910390f35b6107c360048036038101906107be9190615873565b61380f565b6040516107d09190614cb3565b60405180910390f35b6107f360048036038101906107ee919061532f565b613896565b6040516108009190614c89565b60405180910390f35b6108116138f1565b60405161081e9190614cb3565b60405180910390f35b60606008805480602002602001604051908101604052809291908181526020016000905b82821015610af457838290600052602060002090600702016040518060e001604052908160008201805461087e906158e2565b80601f01602080910402602001604051908101604052809291908181526020018280546108aa906158e2565b80156108f75780601f106108cc576101008083540402835291602001916108f7565b820191906000526020600020905b8154815290600101906020018083116108da57829003601f168201915b505050505081526020016001820154815260200160028201805461091a906158e2565b80601f0160208091040260200160405190810160405280929190818152602001828054610946906158e2565b80156109935780601f1061096857610100808354040283529160200191610993565b820191906000526020600020905b81548152906001019060200180831161097657829003601f168201915b505050505081526020016003820180546109ac906158e2565b80601f01602080910402602001604051908101604052809291908181526020018280546109d8906158e2565b8015610a255780601f106109fa57610100808354040283529160200191610a25565b820191906000526020600020905b815481529060010190602001808311610a0857829003601f168201915b50505050508152602001600482015481526020016005820160009054906101000a900460ff16151515158152602001600682018054610a63906158e2565b80601f0160208091040260200160405190810160405280929190818152602001828054610a8f906158e2565b8015610adc5780601f10610ab157610100808354040283529160200191610adc565b820191906000526020600020905b815481529060010190602001808311610abf57829003601f168201915b5050505050815250508152602001906001019061084b565b50505050905090565b606060038054610b0c906158e2565b80601f0160208091040260200160405190810160405280929190818152602001828054610b38906158e2565b8015610b855780601f10610b5a57610100808354040283529160200191610b85565b820191906000526020600020905b815481529060010190602001808311610b6857829003601f168201915b5050505050905090565b600080610b9a6138fd565b9050610ba7818585613905565b600191505092915050565b600560009054906101000a900473ffffffffffffffffffffffffffffffffffffffff1673ffffffffffffffffffffffffffffffffffffffff163373ffffffffffffffffffffffffffffffffffffffff1614610c42576040517f08c379a0000000000000000000000000000000000000000000000000000000008152600401610c399061595f565b60405180910390fd5b600f60009054906101000a900460ff1615610c92576040517f08c379a0000000000000000000000000000000000000000000000000000000008152600401610c89906159f1565b60405180910390fd5b600f60019054906101000a900460ff1615610ce2576040517f08c379a0000000000000000000000000000000000000000000000000000000008152600401610cd990615a83565b60405180910390fd5b6001600f60006101000a81548160ff0219169083151502179055507f82e6c84abd647d1b4fae9bee1859f2642e5443af0ff900d4af83a93c2bf4151260405160405180910390a1565b6000600254905090565b60606009805480602002602001604051908101604052809291908181526020016000905b828210156110f35783829060005260206000209060020201604051806040016040529081600082018054610d8c906158e2565b80601f0160208091040260200160405190810160405280929190818152602001828054610db8906158e2565b8015610e055780601f10610dda57610100808354040283529160200191610e05565b820191906000526020600020905b815481529060010190602001808311610de857829003601f168201915b5050505050815260200160018201805480602002602001604051908101604052809291908181526020016000905b828210156110dc57838290600052602060002090600702016040518060e0016040529081600082018054610e66906158e2565b80601f0160208091040260200160405190810160405280929190818152602001828054610e92906158e2565b8015610edf5780601f10610eb457610100808354040283529160200191610edf565b820191906000526020600020905b815481529060010190602001808311610ec257829003601f168201915b5050505050815260200160018201548152602001600282018054610f02906158e2565b80601f0160208091040260200160405190810160405280929190818152602001828054610f2e906158e2565b8015610f7b5780601f10610f5057610100808354040283529160200191610f7b565b820191906000526020600020905b815481529060010190602001808311610f5e57829003601f168201915b50505050508152602001600382018054610f94906158e2565b80601f0160208091040260200160405190810160405280929190818152602001828054610fc0906158e2565b801561100d5780601f10610fe25761010080835404028352916020019161100d565b820191906000526020600020905b815481529060010190602001808311610ff057829003601f168201915b50505050508152602001600482015481526020016005820160009054906101000a900460ff1615151515815260200160068201805461104b906158e2565b80601f0160208091040260200160405190810160405280929190818152602001828054611077906158e2565b80156110c45780601f10611099576101008083540402835291602001916110c4565b820191906000526020600020905b8154815290600101906020018083116110a757829003601f168201915b50505050508152505081526020019060010190610e33565b505050508152505081526020019060010190610d59565b50505050905090565b600b81805160208101820180518482526020830160208501208183528095505050505050600091509050806000018054611135906158e2565b80601f0160208091040260200160405190810160405280929190818152602001828054611161906158e2565b80156111ae5780601f10611183576101008083540402835291602001916111ae565b820191906000526020600020905b81548152906001019060200180831161119157829003601f168201915b5050505050908060010154908060020180546111c9906158e2565b80601f01602080910402602001604051908101604052809291908181526020018280546111f5906158e2565b80156112425780601f1061121757610100808354040283529160200191611242565b820191906000526020600020905b81548152906001019060200180831161122557829003601f168201915b505050505090806003018054611257906158e2565b80601f0160208091040260200160405190810160405280929190818152602001828054611283906158e2565b80156112d05780601f106112a5576101008083540402835291602001916112d0565b820191906000526020600020905b8154815290600101906020018083116112b357829003601f168201915b5050505050908060040154908060050160009054906101000a900460ff16908060060180546112fe906158e2565b80601f016020809104026020016040519081016040528092919081815260200182805461132a906158e2565b80156113775780601f1061134c57610100808354040283529160200191611377565b820191906000526020600020905b81548152906001019060200180831161135a57829003601f168201915b5050505050905087565b60065481565b6000806113926138fd565b905061139f858285613917565b6113aa8585856139ab565b60019150509392505050565b600f60009054906101000a900460ff1681565b60006012905090565b69d3c21bcecceda100000081565b6000600f60019054906101000a900460ff16801561140057506006544210155b905090565b600560009054906101000a900473ffffffffffffffffffffffffffffffffffffffff1673ffffffffffffffffffffffffffffffffffffffff163373ffffffffffffffffffffffffffffffffffffffff1614611495576040517f08c379a000000000000000000000000000000000000000000000000000000000815260040161148c9061595f565b60405180910390fd5b600f60009054906101000a900460ff166114e4576040517f08c379a00000000000000000000000000000000000000000000000000000000081526004016114db90615b15565b60405180910390fd5b600f60019054906101000a900460ff1615611534576040517f08c379a000000000000000000000000000000000000000000000000000000000815260040161152b90615b81565b60405180910390fd5b6000600f60006101000a81548160ff0219169083151502179055506001600f60016101000a81548160ff02191690831515021790555062015180816115799190615bd0565b426115849190615c12565b6006819055507f2ee88f50f05558e39b34a18214ff6a6adc091504772084c6ce7899354bec0aa460405160405180910390a17f877e2548498f42b7975a186b94ef1d32c86d420b7b806dd2be2bea293b89590460405160405180910390a150565b600a8180516020810182018051848252602083016020850120818352809550505050505060009150905080600001805461161e906158e2565b80601f016020809104026020016040519081016040528092919081815260200182805461164a906158e2565b80156116975780601f1061166c57610100808354040283529160200191611697565b820191906000526020600020905b81548152906001019060200180831161167a57829003601f168201915b5050505050908060010154908060020180546116b2906158e2565b80601f01602080910402602001604051908101604052809291908181526020018280546116de906158e2565b801561172b5780601f106117005761010080835404028352916020019161172b565b820191906000526020600020905b81548152906001019060200180831161170e57829003601f168201915b5050505050908060030160009054906101000a900460ff16905084565b60008561176c8873ffffffffffffffffffffffffffffffffffffffff166014613a9f565b868661177787613ce5565b61178087613ce5565b60405160200161179596959493929190615f2e565b6040516020818303038152906040528051906020012090509695505050505050565b6000600f60009054906101000a900460ff16611808576040517f08c379a00000000000000000000000000000000000000000000000000000000081526004016117ff90615b15565b60405180910390fd5b600f60019054906101000a900460ff1615611858576040517f08c379a000000000000000000000000000000000000000000000000000000000815260040161184f90616087565b60405180910390fd5b6000600a8360405161186a91906160a7565b90815260200160405180910390206000018054611886906158e2565b9050146118c8576040517f08c379a00000000000000000000000000000000000000000000000000000000081526004016118bf9061610a565b60405180910390fd5b6000600d60003373ffffffffffffffffffffffffffffffffffffffff1673ffffffffffffffffffffffffffffffffffffffff168152602001908152602001600020600101541461194d576040517f08c379a00000000000000000000000000000000000000000000000000000000081526004016119449061619c565b60405180910390fd5b60006040518060800160405280868152602001858152602001848152602001600015158152509050600781908060018154018082558091505060019003906000526020600020906004020160009091909190915060008201518160000190816119b69190616368565b506020820151816001015560408201518160020190816119d69190616368565b5060608201518160030160006101000a81548160ff021916908315150217905550505080600a84604051611a0a91906160a7565b90815260200160405180910390206000820151816000019081611a2d9190616368565b50602082015181600101556040820151816002019081611a4d9190616368565b5060608201518160030160006101000a81548160ff02191690831515021790555090505080600d60003373ffffffffffffffffffffffffffffffffffffffff1673ffffffffffffffffffffffffffffffffffffffff1681526020019081526020016000206000820151816000019081611ac69190616368565b50602082015181600101556040820151816002019081611ae69190616368565b5060608201518160030160006101000a81548160ff021916908315150217905550905050611b1c33674563918244f40000613db3565b5082604051611b2b91906160a7565b604051809103902085604051611b4191906160a7565b60405180910390207f754a5f7c9336f3562d73dacebf51de10da957ae9dfcae4fbfb93733ece3dd5aa86604051611b789190614cb3565b60405180910390a360019150509392505050565b600c81805160208101820180518482526020830160208501208183528095505050505050600091509050806000018054611bc5906158e2565b80601f0160208091040260200160405190810160405280929190818152602001828054611bf1906158e2565b8015611c3e5780601f10611c1357610100808354040283529160200191611c3e565b820191906000526020600020905b815481529060010190602001808311611c2157829003601f168201915b5050505050905081565b60008060008373ffffffffffffffffffffffffffffffffffffffff1673ffffffffffffffffffffffffffffffffffffffff168152602001908152602001600020549050919050565b60098181548110611ca057600080fd5b9060005260206000209060020201600091509050806000018054611cc3906158e2565b80601f0160208091040260200160405190810160405280929190818152602001828054611cef906158e2565b8015611d3c5780601f10611d1157610100808354040283529160200191611d3c565b820191906000526020600020905b815481529060010190602001808311611d1f57829003601f168201915b5050505050905081565b6000600980549050905090565b600f60019054906101000a900460ff1681565b600560009054906101000a900473ffffffffffffffffffffffffffffffffffffffff1681565b60088181548110611d9c57600080fd5b9060005260206000209060070201600091509050806000018054611dbf906158e2565b80601f0160208091040260200160405190810160405280929190818152602001828054611deb906158e2565b8015611e385780601f10611e0d57610100808354040283529160200191611e38565b820191906000526020600020905b815481529060010190602001808311611e1b57829003601f168201915b505050505090806001015490806002018054611e53906158e2565b80601f0160208091040260200160405190810160405280929190818152602001828054611e7f906158e2565b8015611ecc5780601f10611ea157610100808354040283529160200191611ecc565b820191906000526020600020905b815481529060010190602001808311611eaf57829003601f168201915b505050505090806003018054611ee1906158e2565b80601f0160208091040260200160405190810160405280929190818152602001828054611f0d906158e2565b8015611f5a5780601f10611f2f57610100808354040283529160200191611f5a565b820191906000526020600020905b815481529060010190602001808311611f3d57829003601f168201915b5050505050908060040154908060050160009054906101000a900460ff1690806006018054611f88906158e2565b80601f0160208091040260200160405190810160405280929190818152602001828054611fb4906158e2565b80156120015780601f10611fd657610100808354040283529160200191612001565b820191906000526020600020905b815481529060010190602001808311611fe457829003601f168201915b5050505050905087565b60606004805461201a906158e2565b80601f0160208091040260200160405190810160405280929190818152602001828054612046906158e2565b80156120935780601f1061206857610100808354040283529160200191612093565b820191906000526020600020905b81548152906001019060200180831161207657829003601f168201915b5050505050905090565b600781815481106120ad57600080fd5b90600052602060002090600402016000915090508060000180546120d0906158e2565b80601f01602080910402602001604051908101604052809291908181526020018280546120fc906158e2565b80156121495780601f1061211e57610100808354040283529160200191612149565b820191906000526020600020905b81548152906001019060200180831161212c57829003601f168201915b505050505090806001015490806002018054612164906158e2565b80601f0160208091040260200160405190810160405280929190818152602001828054612190906158e2565b80156121dd5780601f106121b2576101008083540402835291602001916121dd565b820191906000526020600020905b8154815290600101906020018083116121c057829003601f168201915b5050505050908060030160009054906101000a900460ff16905084565b600560009054906101000a900473ffffffffffffffffffffffffffffffffffffffff1673ffffffffffffffffffffffffffffffffffffffff163373ffffffffffffffffffffffffffffffffffffffff161461228a576040517f08c379a00000000000000000000000000000000000000000000000000000000081526004016122819061595f565b60405180910390fd5b600b8160405161229a91906160a7565b908152602001604051809103902060050160009054906101000a900460ff16156122f9576040517f08c379a00000000000000000000000000000000000000000000000000000000081526004016122f090616486565b60405180910390fd5b6001600b8260405161230b91906160a7565b908152602001604051809103902060050160006101000a81548160ff02191690831515021790555060005b60088054905081101561240a578160405160200161235491906160a7565b604051602081830303815290604052805190602001206008828154811061237e5761237d6164a6565b5b906000526020600020906007020160020160405160200161239f9190616558565b60405160208183030381529060405280519060200120036123fd576001600882815481106123d0576123cf6164a6565b5b906000526020600020906007020160050160006101000a81548160ff02191690831515021790555061240a565b8080600101915050612336565b5061241d33678ac7230489e80000613db3565b508060405161242c91906160a7565b6040518091039020600b8260405161244491906160a7565b90815260200160405180910390206000016040516124629190616558565b60405180910390207fb78543f054c768084f86f0e559d1e007998ca69729eeffc4b727baa388934a3260405160405180910390a350565b600d6020528060005260406000206000915090508060000180546124bc906158e2565b80601f01602080910402602001604051908101604052809291908181526020018280546124e8906158e2565b80156125355780601f1061250a57610100808354040283529160200191612535565b820191906000526020600020905b81548152906001019060200180831161251857829003601f168201915b505050505090806001015490806002018054612550906158e2565b80601f016020809104026020016040519081016040528092919081815260200182805461257c906158e2565b80156125c95780601f1061259e576101008083540402835291602001916125c9565b820191906000526020600020905b8154815290600101906020018083116125ac57829003601f168201915b5050505050908060030160009054906101000a900460ff16905084565b600f60009054906101000a900460ff1615612636576040517f08c379a000000000000000000000000000000000000000000000000000000000815260040161262d906165e1565b60405180910390fd5b600f60019054906101000a900460ff16612685576040517f08c379a000000000000000000000000000000000000000000000000000000000815260040161267c9061664d565b60405180910390fd5b6000600d60003373ffffffffffffffffffffffffffffffffffffffff1673ffffffffffffffffffffffffffffffffffffffff16815260200190815260200160002090508060030160009054906101000a900460ff161561271a576040517f08c379a0000000000000000000000000000000000000000000000000000000008152600401612711906166b9565b60405180910390fd5b6000600c8460405161272c91906160a7565b90815260200160405180910390206001018054905011612781576040517f08c379a000000000000000000000000000000000000000000000000000000000815260040161277890616725565b60405180910390fd5b600c8360405161279191906160a7565b90815260200160405180910390206001018054905082106127e7576040517f08c379a00000000000000000000000000000000000000000000000000000000081526004016127de90616791565b60405180910390fd5b6001600c846040516127f991906160a7565b9081526020016040518091039020600101838154811061281c5761281b6164a6565b5b9060005260206000209060070201600401600082825461283c9190615c12565b9250508190555060018160030160006101000a81548160ff0219169083151502179055503373ffffffffffffffffffffffffffffffffffffffff167f477d7faf347a03679fabd88feea150c41667473fc8412962f607fb7503f1bd438260020185856040516128ad93929190616835565b60405180910390a2505050565b6000806128c56138fd565b90506128d28185856139ab565b600191505092915050565b600560009054906101000a900473ffffffffffffffffffffffffffffffffffffffff1673ffffffffffffffffffffffffffffffffffffffff163373ffffffffffffffffffffffffffffffffffffffff161461296d576040517f08c379a00000000000000000000000000000000000000000000000000000000081526004016129649061595f565b60405180910390fd5b60005b8151811015612b7157600e82828151811061298e5761298d6164a6565b5b60200260200101516040516129a391906160a7565b908152602001604051809103902060009054906101000a900460ff16156129ff576040517f08c379a00000000000000000000000000000000000000000000000000000000081526004016129f6906168c6565b60405180910390fd5b6000600c838381518110612a1657612a156164a6565b5b6020026020010151604051612a2b91906160a7565b90815260200160405180910390209050828281518110612a4e57612a4d6164a6565b5b6020026020010151816000019081612a669190616368565b50600981908060018154018082558091505060019003906000526020600020906002020160009091909190915060008201816000019081612aa791906168fc565b506001820181600101908054612abe929190614712565b5050506001600e848481518110612ad857612ad76164a6565b5b6020026020010151604051612aed91906160a7565b908152602001604051809103902060006101000a81548160ff0219169083151502179055507ff635339f4b5986d632e76f25211c57346b4b4ca3aa13c1ba323ac12563731456838381518110612b4657612b456164a6565b5b6020026020010151604051612b5b9190614b7a565b60405180910390a1508080600101915050612970565b5050565b600560009054906101000a900473ffffffffffffffffffffffffffffffffffffffff1673ffffffffffffffffffffffffffffffffffffffff163373ffffffffffffffffffffffffffffffffffffffff1614612c05576040517f08c379a0000000000000000000000000000000000000000000000000000000008152600401612bfc9061595f565b60405180910390fd5b6000600b82604051612c1791906160a7565b90815260200160405180910390206000018054612c33906158e2565b905003612c75576040517f08c379a0000000000000000000000000000000000000000000000000000000008152600401612c6c90616a30565b60405180910390fd5b60005b600880549050811015612f795781604051602001612c9691906160a7565b6040516020818303038152906040528051906020012060088281548110612cc057612cbf6164a6565b5b9060005260206000209060070201600201604051602001612ce19190616558565b6040516020818303038152906040528051906020012003612f6c5760008190505b6001600880549050612d149190616a50565b811015612e10576008600182612d2a9190615c12565b81548110612d3b57612d3a6164a6565b5b906000526020600020906007020160088281548110612d5d57612d5c6164a6565b5b906000526020600020906007020160008201816000019081612d7f91906168fc565b506001820154816001015560028201816002019081612d9e91906168fc565b5060038201816003019081612db391906168fc565b50600482015481600401556005820160009054906101000a900460ff168160050160006101000a81548160ff02191690831515021790555060068201816006019081612dff91906168fc565b509050508080600101915050612d02565b506008805480612e2357612e22616a84565b5b600190038181906000526020600020906007020160008082016000612e4891906147ff565b6001820160009055600282016000612e6091906147ff565b600382016000612e7091906147ff565b60048201600090556005820160006101000a81549060ff0219169055600682016000612e9c91906147ff565b50509055600b82604051612eb091906160a7565b908152602001604051809103902060008082016000612ecf91906147ff565b6001820160009055600282016000612ee791906147ff565b600382016000612ef791906147ff565b60048201600090556005820160006101000a81549060ff0219169055600682016000612f2391906147ff565b505081604051612f3391906160a7565b60405180910390207f8f5f7793556433ecc92e19fec29f06611a3ac9c5a32b806db2149f70d52946fe60405160405180910390a2612f79565b8080600101915050612c78565b5050565b6000600654905090565b600f60009054906101000a900460ff16612fd6576040517f08c379a0000000000000000000000000000000000000000000000000000000008152600401612fcd90615b15565b60405180910390fd5b600f60019054906101000a900460ff1615613026576040517f08c379a000000000000000000000000000000000000000000000000000000000815260040161301d90616087565b60405180910390fd5b6000600b8460405161303891906160a7565b90815260200160405180910390206000018054613054906158e2565b905014613096576040517f08c379a000000000000000000000000000000000000000000000000000000000815260040161308d90616aff565b60405180910390fd5b6000600a846040516130a891906160a7565b908152602001604051809103902060000180546130c4906158e2565b905003613106576040517f08c379a00000000000000000000000000000000000000000000000000000000081526004016130fd90616b6b565b60405180910390fd5b60006040518060e0016040528087815260200186815260200185815260200184815260200160008152602001600015158152602001838152509050600881908060018154018082558091505060019003906000526020600020906007020160009091909190915060008201518160000190816131829190616368565b506020820151816001015560408201518160020190816131a29190616368565b5060608201518160030190816131b89190616368565b506080820151816004015560a08201518160050160006101000a81548160ff02191690831515021790555060c08201518160060190816131f89190616368565b50505080600b8560405161320c91906160a7565b9081526020016040518091039020600082015181600001908161322f9190616368565b5060208201518160010155604082015181600201908161324f9190616368565b5060608201518160030190816132659190616368565b506080820151816004015560a08201518160050160006101000a81548160ff02191690831515021790555060c08201518160060190816132a59190616368565b509050506000600c836040516132bb91906160a7565b9081526020016040518091039020600101805490501015613311576040517f08c379a000000000000000000000000000000000000000000000000000000000815260040161330890616bd7565b60405180910390fd5b600c8260405161332191906160a7565b908152602001604051809103902060010181908060018154018082558091505060019003906000526020600020906007020160009091909190915060008201518160000190816133719190616368565b506020820151816001015560408201518160020190816133919190616368565b5060608201518160030190816133a79190616368565b506080820151816004015560a08201518160050160006101000a81548160ff02191690831515021790555060c08201518160060190816133e79190616368565b505050836040516133f891906160a7565b60405180910390208660405161340e91906160a7565b60405180910390207fd9f17a5389d6109c78413a18e9adfec5a898c288bbd8c9e65de38e95f04b9e0787868660405161344993929190616bf7565b60405180910390a3505050505050565b674563918244f4000081565b600560009054906101000a900473ffffffffffffffffffffffffffffffffffffffff1673ffffffffffffffffffffffffffffffffffffffff163373ffffffffffffffffffffffffffffffffffffffff16146134f5576040517f08c379a00000000000000000000000000000000000000000000000000000000081526004016134ec9061595f565b60405180910390fd5b600f60019054906101000a900460ff16613544576040517f08c379a000000000000000000000000000000000000000000000000000000000815260040161353b90616c88565b60405180910390fd5b6006544210613588576040517f08c379a000000000000000000000000000000000000000000000000000000000815260040161357f90616cf4565b60405180910390fd5b6000600f60016101000a81548160ff02191690831515021790555060006006819055506001600f60006101000a81548160ff0219169083151502179055507f7a19ed057db79e3c2fa0b97a54b43bef4fce74b31bb6c01af514b9a18a7f70ab60405160405180910390a1565b60606007805480602002602001604051908101604052809291908181526020016000905b82821015613793578382906000526020600020906004020160405180608001604052908160008201805461364b906158e2565b80601f0160208091040260200160405190810160405280929190818152602001828054613677906158e2565b80156136c45780601f10613699576101008083540402835291602001916136c4565b820191906000526020600020905b8154815290600101906020018083116136a757829003601f168201915b50505050508152602001600182015481526020016002820180546136e7906158e2565b80601f0160208091040260200160405190810160405280929190818152602001828054613713906158e2565b80156137605780601f1061373557610100808354040283529160200191613760565b820191906000526020600020905b81548152906001019060200180831161374357829003601f168201915b505050505081526020016003820160009054906101000a900460ff16151515158152505081526020019060010190613618565b50505050905090565b600080836040516020016137b09190616d81565b60405160208183030381529060405280519060200120905060006137d48285613e61565b90503373ffffffffffffffffffffffffffffffffffffffff168173ffffffffffffffffffffffffffffffffffffffff16149250505092915050565b6000600160008473ffffffffffffffffffffffffffffffffffffffff1673ffffffffffffffffffffffffffffffffffffffff16815260200190815260200160002060008373ffffffffffffffffffffffffffffffffffffffff1673ffffffffffffffffffffffffffffffffffffffff16815260200190815260200160002054905092915050565b600080600d60008473ffffffffffffffffffffffffffffffffffffffff1673ffffffffffffffffffffffffffffffffffffffff16815260200190815260200160002060000180546138e6906158e2565b905014159050919050565b678ac7230489e8000081565b600033905090565b6139128383836001613e8d565b505050565b6000613923848461380f565b90507fffffffffffffffffffffffffffffffffffffffffffffffffffffffffffffffff81146139a55781811015613995578281836040517ffb8f41b200000000000000000000000000000000000000000000000000000000815260040161398c93929190616da7565b60405180910390fd5b6139a484848484036000613e8d565b5b50505050565b600073ffffffffffffffffffffffffffffffffffffffff168373ffffffffffffffffffffffffffffffffffffffff1603613a1d5760006040517f96c6fd1e000000000000000000000000000000000000000000000000000000008152600401613a14919061536b565b60405180910390fd5b600073ffffffffffffffffffffffffffffffffffffffff168273ffffffffffffffffffffffffffffffffffffffff1603613a8f5760006040517fec442f05000000000000000000000000000000000000000000000000000000008152600401613a86919061536b565b60405180910390fd5b613a9a838383614064565b505050565b6060600083905060006002846002613ab79190615bd0565b613ac19190615c12565b67ffffffffffffffff811115613ada57613ad9614e86565b5b6040519080825280601f01601f191660200182016040528015613b0c5781602001600182028036833780820191505090505b5090507f300000000000000000000000000000000000000000000000000000000000000081600081518110613b4457613b436164a6565b5b60200101907effffffffffffffffffffffffffffffffffffffffffffffffffffffffffffff1916908160001a9053507f780000000000000000000000000000000000000000000000000000000000000081600181518110613ba857613ba76164a6565b5b60200101907effffffffffffffffffffffffffffffffffffffffffffffffffffffffffffff1916908160001a90535060006001856002613be89190615bd0565b613bf29190615c12565b90505b6001811115613c92577f3031323334353637383961626364656600000000000000000000000000000000600f841660108110613c3457613c336164a6565b5b1a60f81b828281518110613c4b57613c4a6164a6565b5b60200101907effffffffffffffffffffffffffffffffffffffffffffffffffffffffffffff1916908160001a905350600483901c925080613c8b90616dde565b9050613bf5565b5060008214613cda5784846040517fe22e27eb000000000000000000000000000000000000000000000000000000008152600401613cd1929190616e07565b60405180910390fd5b809250505092915050565b606060006001613cf484614289565b01905060008167ffffffffffffffff811115613d1357613d12614e86565b5b6040519080825280601f01601f191660200182016040528015613d455781602001600182028036833780820191505090505b509050600082602001820190505b600115613da8578080600190039150507f3031323334353637383961626364656600000000000000000000000000000000600a86061a8153600a8581613d9c57613d9b616e30565b5b04945060008503613d53575b819350505050919050565b600069d3c21bcecceda1000000613dc8610d2b565b83613dd39190615c12565b1115613e14576040517f08c379a0000000000000000000000000000000000000000000000000000000008152600401613e0b90616eab565b60405180910390fd5b613e1e83836143dc565b7fcda531bfd68624f13205c0a23cd4d5a7f09792cbb399603114f2b04aaa1bf5cf8383604051613e4f929190616ecb565b60405180910390a16001905092915050565b600080600080613e71868661445e565b925092509250613e8182826144ba565b82935050505092915050565b600073ffffffffffffffffffffffffffffffffffffffff168473ffffffffffffffffffffffffffffffffffffffff1603613eff5760006040517fe602df05000000000000000000000000000000000000000000000000000000008152600401613ef6919061536b565b60405180910390fd5b600073ffffffffffffffffffffffffffffffffffffffff168373ffffffffffffffffffffffffffffffffffffffff1603613f715760006040517f94280d62000000000000000000000000000000000000000000000000000000008152600401613f68919061536b565b60405180910390fd5b81600160008673ffffffffffffffffffffffffffffffffffffffff1673ffffffffffffffffffffffffffffffffffffffff16815260200190815260200160002060008573ffffffffffffffffffffffffffffffffffffffff1673ffffffffffffffffffffffffffffffffffffffff16815260200190815260200160002081905550801561405e578273ffffffffffffffffffffffffffffffffffffffff168473ffffffffffffffffffffffffffffffffffffffff167f8c5be1e5ebec7d5bd14f71427d1e84f3dd0314c0f7b2291e5b200ac8c7c3b925846040516140559190614cb3565b60405180910390a35b50505050565b600073ffffffffffffffffffffffffffffffffffffffff168373ffffffffffffffffffffffffffffffffffffffff16036140b65780600260008282546140aa9190615c12565b92505081905550614189565b60008060008573ffffffffffffffffffffffffffffffffffffffff1673ffffffffffffffffffffffffffffffffffffffff16815260200190815260200160002054905081811015614142578381836040517fe450d38c00000000000000000000000000000000000000000000000000000000815260040161413993929190616da7565b60405180910390fd5b8181036000808673ffffffffffffffffffffffffffffffffffffffff1673ffffffffffffffffffffffffffffffffffffffff16815260200190815260200160002081905550505b600073ffffffffffffffffffffffffffffffffffffffff168273ffffffffffffffffffffffffffffffffffffffff16036141d2578060026000828254039250508190555061421f565b806000808473ffffffffffffffffffffffffffffffffffffffff1673ffffffffffffffffffffffffffffffffffffffff168152602001908152602001600020600082825401925050819055505b8173ffffffffffffffffffffffffffffffffffffffff168373ffffffffffffffffffffffffffffffffffffffff167fddf252ad1be2c89b69c2b068fc378daa952ba7f163c4a11628f55a4df523b3ef8360405161427c9190614cb3565b60405180910390a3505050565b600080600090507a184f03e93ff9f4daa797ed6e38ed64bf6a1f01000000000000000083106142e7577a184f03e93ff9f4daa797ed6e38ed64bf6a1f01000000000000000083816142dd576142dc616e30565b5b0492506040810190505b6d04ee2d6d415b85acef81000000008310614324576d04ee2d6d415b85acef8100000000838161431a57614319616e30565b5b0492506020810190505b662386f26fc10000831061435357662386f26fc10000838161434957614348616e30565b5b0492506010810190505b6305f5e100831061437c576305f5e100838161437257614371616e30565b5b0492506008810190505b61271083106143a157612710838161439757614396616e30565b5b0492506004810190505b606483106143c457606483816143ba576143b9616e30565b5b0492506002810190505b600a83106143d3576001810190505b80915050919050565b600073ffffffffffffffffffffffffffffffffffffffff168273ffffffffffffffffffffffffffffffffffffffff160361444e5760006040517fec442f05000000000000000000000000000000000000000000000000000000008152600401614445919061536b565b60405180910390fd5b61445a60008383614064565b5050565b600080600060418451036144a35760008060006020870151925060408701519150606087015160001a90506144958882858561461e565b9550955095505050506144b3565b60006002855160001b9250925092505b9250925092565b600060038111156144ce576144cd616ef4565b5b8260038111156144e1576144e0616ef4565b5b031561461a57600160038111156144fb576144fa616ef4565b5b82600381111561450e5761450d616ef4565b5b03614545576040517ff645eedf00000000000000000000000000000000000000000000000000000000815260040160405180910390fd5b6002600381111561455957614558616ef4565b5b82600381111561456c5761456b616ef4565b5b036145b1578060001c6040517ffce698f70000000000000000000000000000000000000000000000000000000081526004016145a89190614cb3565b60405180910390fd5b6003808111156145c4576145c3616ef4565b5b8260038111156145d7576145d6616ef4565b5b0361461957806040517fd78bce0c0000000000000000000000000000000000000000000000000000000081526004016146109190615289565b60405180910390fd5b5b5050565b60008060007f7fffffffffffffffffffffffffffffff5d576e7357a4501ddfe92f46681b20a08460001c111561465e576000600385925092509250614708565b6000600188888888604051600081526020016040526040516146839493929190616f23565b6020604051602081039080840390855afa1580156146a5573d6000803e3d6000fd5b505050602060405103519050600073ffffffffffffffffffffffffffffffffffffffff168173ffffffffffffffffffffffffffffffffffffffff16036146f957600060016000801b93509350935050614708565b8060008060001b935093509350505b9450945094915050565b8280548282559060005260206000209060070281019282156147ee5760005260206000209160070282015b828111156147ed5782826000820181600001908161475b91906168fc565b50600182015481600101556002820181600201908161477a91906168fc565b506003820181600301908161478f91906168fc565b50600482015481600401556005820160009054906101000a900460ff168160050160006101000a81548160ff021916908315150217905550600682018160060190816147db91906168fc565b5050509160070191906007019061473d565b5b5090506147fb919061483f565b5090565b50805461480b906158e2565b6000825580601f1061481d575061483c565b601f01602090049060005260206000209081019061483b91906148ba565b5b50565b5b808211156148b6576000808201600061485991906147ff565b600182016000905560028201600061487191906147ff565b60038201600061488191906147ff565b60048201600090556005820160006101000a81549060ff02191690556006820160006148ad91906147ff565b50600701614840565b5090565b5b808211156148d35760008160009055506001016148bb565b5090565b600081519050919050565b600082825260208201905092915050565b6000819050602082019050919050565b600081519050919050565b600082825260208201905092915050565b60005b8381101561493d578082015181840152602081019050614922565b60008484015250505050565b6000601f19601f8301169050919050565b600061496582614903565b61496f818561490e565b935061497f81856020860161491f565b61498881614949565b840191505092915050565b6000819050919050565b6149a681614993565b82525050565b60008115159050919050565b6149c1816149ac565b82525050565b600060e08301600083015184820360008601526149e4828261495a565b91505060208301516149f9602086018261499d565b5060408301518482036040860152614a11828261495a565b91505060608301518482036060860152614a2b828261495a565b9150506080830151614a40608086018261499d565b5060a0830151614a5360a08601826149b8565b5060c083015184820360c0860152614a6b828261495a565b9150508091505092915050565b6000614a8483836149c7565b905092915050565b6000602082019050919050565b6000614aa4826148d7565b614aae81856148e2565b935083602082028501614ac0856148f3565b8060005b85811015614afc5784840389528151614add8582614a78565b9450614ae883614a8c565b925060208a01995050600181019050614ac4565b50829750879550505050505092915050565b60006020820190508181036000830152614b288184614a99565b905092915050565b600082825260208201905092915050565b6000614b4c82614903565b614b568185614b30565b9350614b6681856020860161491f565b614b6f81614949565b840191505092915050565b60006020820190508181036000830152614b948184614b41565b905092915050565b6000604051905090565b600080fd5b600080fd5b600073ffffffffffffffffffffffffffffffffffffffff82169050919050565b6000614bdb82614bb0565b9050919050565b614beb81614bd0565b8114614bf657600080fd5b50565b600081359050614c0881614be2565b92915050565b614c1781614993565b8114614c2257600080fd5b50565b600081359050614c3481614c0e565b92915050565b60008060408385031215614c5157614c50614ba6565b5b6000614c5f85828601614bf9565b9250506020614c7085828601614c25565b9150509250929050565b614c83816149ac565b82525050565b6000602082019050614c9e6000830184614c7a565b92915050565b614cad81614993565b82525050565b6000602082019050614cc86000830184614ca4565b92915050565b600081519050919050565b600082825260208201905092915050565b6000819050602082019050919050565b600082825260208201905092915050565b6000614d16826148d7565b614d208185614cfa565b935083602082028501614d32856148f3565b8060005b85811015614d6e5784840389528151614d4f8582614a78565b9450614d5a83614a8c565b925060208a01995050600181019050614d36565b50829750879550505050505092915050565b60006040830160008301518482036000860152614d9d828261495a565b91505060208301518482036020860152614db78282614d0b565b9150508091505092915050565b6000614dd08383614d80565b905092915050565b6000602082019050919050565b6000614df082614cce565b614dfa8185614cd9565b935083602082028501614e0c85614cea565b8060005b85811015614e485784840389528151614e298582614dc4565b9450614e3483614dd8565b925060208a01995050600181019050614e10565b50829750879550505050505092915050565b60006020820190508181036000830152614e748184614de5565b905092915050565b600080fd5b600080fd5b7f4e487b7100000000000000000000000000000000000000000000000000000000600052604160045260246000fd5b614ebe82614949565b810181811067ffffffffffffffff82111715614edd57614edc614e86565b5b80604052505050565b6000614ef0614b9c565b9050614efc8282614eb5565b919050565b600067ffffffffffffffff821115614f1c57614f1b614e86565b5b614f2582614949565b9050602081019050919050565b82818337600083830152505050565b6000614f54614f4f84614f01565b614ee6565b905082815260208101848484011115614f7057614f6f614e81565b5b614f7b848285614f32565b509392505050565b600082601f830112614f9857614f97614e7c565b5b8135614fa8848260208601614f41565b91505092915050565b600060208284031215614fc757614fc6614ba6565b5b600082013567ffffffffffffffff811115614fe557614fe4614bab565b5b614ff184828501614f83565b91505092915050565b600060e0820190508181036000830152615014818a614b41565b90506150236020830189614ca4565b81810360408301526150358188614b41565b905081810360608301526150498187614b41565b90506150586080830186614ca4565b61506560a0830185614c7a565b81810360c08301526150778184614b41565b905098975050505050505050565b60008060006060848603121561509e5761509d614ba6565b5b60006150ac86828701614bf9565b93505060206150bd86828701614bf9565b92505060406150ce86828701614c25565b9150509250925092565b600060ff82169050919050565b6150ee816150d8565b82525050565b600060208201905061510960008301846150e5565b92915050565b60006020828403121561512557615124614ba6565b5b600061513384828501614c25565b91505092915050565b600060808201905081810360008301526151568187614b41565b90506151656020830186614ca4565b81810360408301526151778185614b41565b90506151866060830184614c7a565b95945050505050565b60008060008060008060c087890312156151ac576151ab614ba6565b5b60006151ba89828a01614bf9565b965050602087013567ffffffffffffffff8111156151db576151da614bab565b5b6151e789828a01614f83565b955050604087013567ffffffffffffffff81111561520857615207614bab565b5b61521489828a01614f83565b945050606087013567ffffffffffffffff81111561523557615234614bab565b5b61524189828a01614f83565b935050608061525289828a01614c25565b92505060a061526389828a01614c25565b9150509295509295509295565b6000819050919050565b61528381615270565b82525050565b600060208201905061529e600083018461527a565b92915050565b6000806000606084860312156152bd576152bc614ba6565b5b600084013567ffffffffffffffff8111156152db576152da614bab565b5b6152e786828701614f83565b93505060206152f886828701614c25565b925050604084013567ffffffffffffffff81111561531957615318614bab565b5b61532586828701614f83565b9150509250925092565b60006020828403121561534557615344614ba6565b5b600061535384828501614bf9565b91505092915050565b61536581614bd0565b82525050565b6000602082019050615380600083018461535c565b92915050565b6000806040838503121561539d5761539c614ba6565b5b600083013567ffffffffffffffff8111156153bb576153ba614bab565b5b6153c785828601614f83565b92505060206153d885828601614c25565b9150509250929050565b600067ffffffffffffffff8211156153fd576153fc614e86565b5b602082029050602081019050919050565b600080fd5b6000615426615421846153e2565b614ee6565b905080838252602082019050602084028301858111156154495761544861540e565b5b835b8181101561549057803567ffffffffffffffff81111561546e5761546d614e7c565b5b80860161547b8982614f83565b8552602085019450505060208101905061544b565b5050509392505050565b600082601f8301126154af576154ae614e7c565b5b81356154bf848260208601615413565b91505092915050565b6000602082840312156154de576154dd614ba6565b5b600082013567ffffffffffffffff8111156154fc576154fb614bab565b5b6155088482850161549a565b91505092915050565b600080600080600060a0868803121561552d5761552c614ba6565b5b600086013567ffffffffffffffff81111561554b5761554a614bab565b5b61555788828901614f83565b955050602061556888828901614c25565b945050604086013567ffffffffffffffff81111561558957615588614bab565b5b61559588828901614f83565b935050606086013567ffffffffffffffff8111156155b6576155b5614bab565b5b6155c288828901614f83565b925050608086013567ffffffffffffffff8111156155e3576155e2614bab565b5b6155ef88828901614f83565b9150509295509295909350565b600081519050919050565b600082825260208201905092915050565b6000819050602082019050919050565b60006080830160008301518482036000860152615645828261495a565b915050602083015161565a602086018261499d565b5060408301518482036040860152615672828261495a565b915050606083015161568760608601826149b8565b508091505092915050565b600061569e8383615628565b905092915050565b6000602082019050919050565b60006156be826155fc565b6156c88185615607565b9350836020820285016156da85615618565b8060005b8581101561571657848403895281516156f78582615692565b9450615702836156a6565b925060208a019950506001810190506156de565b50829750879550505050505092915050565b6000602082019050818103600083015261574281846156b3565b905092915050565b61575381615270565b811461575e57600080fd5b50565b6000813590506157708161574a565b92915050565b600067ffffffffffffffff82111561579157615790614e86565b5b61579a82614949565b9050602081019050919050565b60006157ba6157b584615776565b614ee6565b9050828152602081018484840111156157d6576157d5614e81565b5b6157e1848285614f32565b509392505050565b600082601f8301126157fe576157fd614e7c565b5b813561580e8482602086016157a7565b91505092915050565b6000806040838503121561582e5761582d614ba6565b5b600061583c85828601615761565b925050602083013567ffffffffffffffff81111561585d5761585c614bab565b5b615869858286016157e9565b9150509250929050565b6000806040838503121561588a57615889614ba6565b5b600061589885828601614bf9565b92505060206158a985828601614bf9565b9150509250929050565b7f4e487b7100000000000000000000000000000000000000000000000000000000600052602260045260246000fd5b600060028204905060018216806158fa57607f821691505b60208210810361590d5761590c6158b3565b5b50919050565b7f596f7520617265206e6f7420746865206f776e65722100000000000000000000600082015250565b6000615949601683614b30565b915061595482615913565b602082019050919050565b600060208201905081810360008301526159788161593c565b9050919050565b7f526567697374726174696f6e2068617320616c7265616479207374617274656460008201527f2e00000000000000000000000000000000000000000000000000000000000000602082015250565b60006159db602183614b30565b91506159e68261597f565b604082019050919050565b60006020820190508181036000830152615a0a816159ce565b9050919050565b7f43616e6e6f7420737461727420726567697374726174696f6e2061667465722060008201527f766f74696e672068617320626567756e2e000000000000000000000000000000602082015250565b6000615a6d603183614b30565b9150615a7882615a11565b604082019050919050565b60006020820190508181036000830152615a9c81615a60565b9050919050565b7f526567697374726174696f6e20706572696f6420686173206e6f74207374617260008201527f7465642e00000000000000000000000000000000000000000000000000000000602082015250565b6000615aff602483614b30565b9150615b0a82615aa3565b604082019050919050565b60006020820190508181036000830152615b2e81615af2565b9050919050565b7f566f74696e672068617320616c726561647920737461727465642e0000000000600082015250565b6000615b6b601b83614b30565b9150615b7682615b35565b602082019050919050565b60006020820190508181036000830152615b9a81615b5e565b9050919050565b7f4e487b7100000000000000000000000000000000000000000000000000000000600052601160045260246000fd5b6000615bdb82614993565b9150615be683614993565b9250828202615bf481614993565b91508282048414831517615c0b57615c0a615ba1565b5b5092915050565b6000615c1d82614993565b9150615c2883614993565b9250828201905080821115615c4057615c3f615ba1565b5b92915050565b600081905092915050565b7f19457468657265756d205369676e6564204d6573736167653a0a000000000000600082015250565b6000615c87601a83615c46565b9150615c9282615c51565b601a82019050919050565b7f446f6d61696e3a20000000000000000000000000000000000000000000000000600082015250565b6000615cd3600883615c46565b9150615cde82615c9d565b600882019050919050565b6000615cf482614903565b615cfe8185615c46565b9350615d0e81856020860161491f565b80840191505092915050565b7f0a00000000000000000000000000000000000000000000000000000000000000600082015250565b6000615d50600183615c46565b9150615d5b82615d1a565b600182019050919050565b7f416464726573733a200000000000000000000000000000000000000000000000600082015250565b6000615d9c600983615c46565b9150615da782615d66565b600982019050919050565b7f53746174656d656e743a20000000000000000000000000000000000000000000600082015250565b6000615de8600b83615c46565b9150615df382615db2565b600b82019050919050565b7f5552493a20000000000000000000000000000000000000000000000000000000600082015250565b6000615e34600583615c46565b9150615e3f82615dfe565b600582019050919050565b7f56657273696f6e3a20310a000000000000000000000000000000000000000000600082015250565b6000615e80600b83615c46565b9150615e8b82615e4a565b600b82019050919050565b7f436861696e2049443a2000000000000000000000000000000000000000000000600082015250565b6000615ecc600a83615c46565b9150615ed782615e96565b600a82019050919050565b7f4e6f6e63653a2000000000000000000000000000000000000000000000000000600082015250565b6000615f18600783615c46565b9150615f2382615ee2565b600782019050919050565b6000615f3982615c7a565b9150615f4482615cc6565b9150615f508289615ce9565b9150615f5b82615d43565b9150615f6682615d8f565b9150615f728288615ce9565b9150615f7d82615d43565b9150615f8882615ddb565b9150615f948287615ce9565b9150615f9f82615d43565b9150615faa82615e27565b9150615fb68286615ce9565b9150615fc182615d43565b9150615fcc82615e73565b9150615fd782615ebf565b9150615fe38285615ce9565b9150615fee82615d43565b9150615ff982615f0b565b91506160058284615ce9565b9150819050979650505050505050565b7f43616e6e6f7420726567697374657220647572696e6720766f74696e6720706560008201527f72696f642e000000000000000000000000000000000000000000000000000000602082015250565b6000616071602583614b30565b915061607c82616015565b604082019050919050565b600060208201905081810360008301526160a081616064565b9050919050565b60006160b38284615ce9565b915081905092915050565b7f566f74657220616c726561647920657869737473210000000000000000000000600082015250565b60006160f4601583614b30565b91506160ff826160be565b602082019050919050565b60006020820190508181036000830152616123816160e7565b9050919050565b7f4163636f756e7420616c7265616479207265676973746572656420617320766f60008201527f7465720000000000000000000000000000000000000000000000000000000000602082015250565b6000616186602383614b30565b91506161918261612a565b604082019050919050565b600060208201905081810360008301526161b581616179565b9050919050565b60008190508160005260206000209050919050565b60006020601f8301049050919050565b600082821b905092915050565b60006008830261621e7fffffffffffffffffffffffffffffffffffffffffffffffffffffffffffffffff826161e1565b61622886836161e1565b95508019841693508086168417925050509392505050565b6000819050919050565b600061626561626061625b84614993565b616240565b614993565b9050919050565b6000819050919050565b61627f8361624a565b61629361628b8261626c565b8484546161ee565b825550505050565b600090565b6162a861629b565b6162b3818484616276565b505050565b5b818110156162d7576162cc6000826162a0565b6001810190506162b9565b5050565b601f82111561631c576162ed816161bc565b6162f6846161d1565b81016020851015616305578190505b616319616311856161d1565b8301826162b8565b50505b505050565b600082821c905092915050565b600061633f60001984600802616321565b1980831691505092915050565b6000616358838361632e565b9150826002028217905092915050565b61637182614903565b67ffffffffffffffff81111561638a57616389614e86565b5b61639482546158e2565b61639f8282856162db565b600060209050601f8311600181146163d257600084156163c0578287015190505b6163ca858261634c565b865550616432565b601f1984166163e0866161bc565b60005b82811015616408578489015182556001820191506020850194506020810190506163e3565b868310156164255784890151616421601f89168261632e565b8355505b6001600288020188555050505b505050505050565b7f43616e64696461746520616c7265616479207665726966696564210000000000600082015250565b6000616470601b83614b30565b915061647b8261643a565b602082019050919050565b6000602082019050818103600083015261649f81616463565b9050919050565b7f4e487b7100000000000000000000000000000000000000000000000000000000600052603260045260246000fd5b600081546164e2816158e2565b6164ec8186615c46565b94506001821660008114616507576001811461651c5761654f565b60ff198316865281151582028601935061654f565b616525856161bc565b60005b8381101561654757815481890152600182019150602081019050616528565b838801955050505b50505092915050565b600061656482846164d5565b915081905092915050565b7f526567697374726174696f6e20706572696f64206973207374696c6c2061637460008201527f6976652e00000000000000000000000000000000000000000000000000000000602082015250565b60006165cb602483614b30565b91506165d68261656f565b604082019050919050565b600060208201905081810360008301526165fa816165be565b9050919050565b7f566f74696e6720686173206e6f742073746172746564207965742e0000000000600082015250565b6000616637601b83614b30565b915061664282616601565b602082019050919050565b600060208201905081810360008301526166668161662a565b9050919050565b7f596f75206861766520616c726561647920766f7465642e000000000000000000600082015250565b60006166a3601783614b30565b91506166ae8261666d565b602082019050919050565b600060208201905081810360008301526166d281616696565b9050919050565b7f496e76616c696420706f736974696f6e2e000000000000000000000000000000600082015250565b600061670f601183614b30565b915061671a826166d9565b602082019050919050565b6000602082019050818103600083015261673e81616702565b9050919050565b7f496e76616c69642063616e64696461746520696e6465782e0000000000000000600082015250565b600061677b601883614b30565b915061678682616745565b602082019050919050565b600060208201905081810360008301526167aa8161676e565b9050919050565b600081546167be816158e2565b6167c88186614b30565b945060018216600081146167e357600181146167f95761682c565b60ff19831686528115156020028601935061682c565b616802856161bc565b60005b8381101561682457815481890152600182019150602081019050616805565b808801955050505b50505092915050565b6000606082019050818103600083015261684f81866167b1565b905081810360208301526168638185614b41565b90506168726040830184614ca4565b949350505050565b7f506f736974696f6e20616c726561647920657869737473210000000000000000600082015250565b60006168b0601883614b30565b91506168bb8261687a565b602082019050919050565b600060208201905081810360008301526168df816168a3565b9050919050565b6000815490506168f5816158e2565b9050919050565b81810361690a5750506169e2565b616913826168e6565b67ffffffffffffffff81111561692c5761692b614e86565b5b61693682546158e2565b6169418282856162db565b6000601f831160018114616970576000841561695e578287015490505b616968858261634c565b8655506169db565b601f19841661697e876161bc565b9650616989866161bc565b60005b828110156169b15784890154825560018201915060018501945060208101905061698c565b868310156169ce57848901546169ca601f89168261632e565b8355505b6001600288020188555050505b5050505050505b565b7f43616e64696461746520646f6573206e6f742065786973742100000000000000600082015250565b6000616a1a601983614b30565b9150616a25826169e4565b602082019050919050565b60006020820190508181036000830152616a4981616a0d565b9050919050565b6000616a5b82614993565b9150616a6683614993565b9250828203905081811115616a7e57616a7d615ba1565b5b92915050565b7f4e487b7100000000000000000000000000000000000000000000000000000000600052603160045260246000fd5b7f43616e64696461746520616c7265616479206578697374732100000000000000600082015250565b6000616ae9601983614b30565b9150616af482616ab3565b602082019050919050565b60006020820190508181036000830152616b1881616adc565b9050919050565b7f596f75206d7573742062652061207265676973746572656420766f7465722100600082015250565b6000616b55601f83614b30565b9150616b6082616b1f565b602082019050919050565b60006020820190508181036000830152616b8481616b48565b9050919050565b7f506f736974696f6e20646f6573206e6f74206578697374210000000000000000600082015250565b6000616bc1601883614b30565b9150616bcc82616b8b565b602082019050919050565b60006020820190508181036000830152616bf081616bb4565b9050919050565b6000606082019050616c0c6000830186614ca4565b8181036020830152616c1e8185614b41565b90508181036040830152616c328184614b41565b9050949350505050565b7f566f74696e6720686173206e6f7420737461727465642e000000000000000000600082015250565b6000616c72601783614b30565b9150616c7d82616c3c565b602082019050919050565b60006020820190508181036000830152616ca181616c65565b9050919050565b7f566f74696e6720706572696f6420686173206e6f7420656e6465642e00000000600082015250565b6000616cde601c83614b30565b9150616ce982616ca8565b602082019050919050565b60006020820190508181036000830152616d0d81616cd1565b9050919050565b7f19457468657265756d205369676e6564204d6573736167653a0a333200000000600082015250565b6000616d4a601c83615c46565b9150616d5582616d14565b601c82019050919050565b6000819050919050565b616d7b616d7682615270565b616d60565b82525050565b6000616d8c82616d3d565b9150616d988284616d6a565b60208201915081905092915050565b6000606082019050616dbc600083018661535c565b616dc96020830185614ca4565b616dd66040830184614ca4565b949350505050565b6000616de982614993565b915060008203616dfc57616dfb615ba1565b5b600182039050919050565b6000604082019050616e1c6000830185614ca4565b616e296020830184614ca4565b9392505050565b7f4e487b7100000000000000000000000000000000000000000000000000000000600052601260045260246000fd5b7f546f6b656e206c696d6974206578636565646564210000000000000000000000600082015250565b6000616e95601583614b30565b9150616ea082616e5f565b602082019050919050565b60006020820190508181036000830152616ec481616e88565b9050919050565b6000604082019050616ee0600083018561535c565b616eed6020830184614ca4565b9392505050565b7f4e487b7100000000000000000000000000000000000000000000000000000000600052602160045260246000fd5b6000608082019050616f38600083018761527a565b616f4560208301866150e5565b616f52604083018561527a565b616f5f606083018461527a565b9594505050505056fea264697066735822122027fdd831b0a86ee4dbedc84318f111381ae0ee3f45769d08b687b51cf52910f264736f6c634300081b0033",
  "linkReferences": {},
  "deployedLinkReferences": {}
}