{
  "_format": "hh-sol-artifact-1",
  "contractName": "Voting",
  "sourceName": "contracts/Voting.sol",
  "abi": [
    {
      "inputs": [],
      "stateMutability": "nonpayable",
      "type": "constructor"
    },
    {
      "inputs": [],
      "name": "ECDSAInvalidSignature",
      "type": "error"
    },
    {
      "inputs": [
        {
          "internalType": "uint256",
          "name": "length",
          "type": "uint256"
        }
      ],
      "name": "ECDSAInvalidSignatureLength",
      "type": "error"
    },
    {
      "inputs": [
        {
          "internalType": "bytes32",
          "name": "s",
          "type": "bytes32"
        }
      ],
      "name": "ECDSAInvalidSignatureS",
      "type": "error"
    },
    {
      "inputs": [
        {
          "internalType": "address",
          "name": "spender",
          "type": "address"
        },
        {
          "internalType": "uint256",
          "name": "allowance",
          "type": "uint256"
        },
        {
          "internalType": "uint256",
          "name": "needed",
          "type": "uint256"
        }
      ],
      "name": "ERC20InsufficientAllowance",
      "type": "error"
    },
    {
      "inputs": [
        {
          "internalType": "address",
          "name": "sender",
          "type": "address"
        },
        {
          "internalType": "uint256",
          "name": "balance",
          "type": "uint256"
        },
        {
          "internalType": "uint256",
          "name": "needed",
          "type": "uint256"
        }
      ],
      "name": "ERC20InsufficientBalance",
      "type": "error"
    },
    {
      "inputs": [
        {
          "internalType": "address",
          "name": "approver",
          "type": "address"
        }
      ],
      "name": "ERC20InvalidApprover",
      "type": "error"
    },
    {
      "inputs": [
        {
          "internalType": "address",
          "name": "receiver",
          "type": "address"
        }
      ],
      "name": "ERC20InvalidReceiver",
      "type": "error"
    },
    {
      "inputs": [
        {
          "internalType": "address",
          "name": "sender",
          "type": "address"
        }
      ],
      "name": "ERC20InvalidSender",
      "type": "error"
    },
    {
      "inputs": [
        {
          "internalType": "address",
          "name": "spender",
          "type": "address"
        }
      ],
      "name": "ERC20InvalidSpender",
      "type": "error"
    },
    {
      "inputs": [
        {
          "internalType": "uint256",
          "name": "value",
          "type": "uint256"
        },
        {
          "internalType": "uint256",
          "name": "length",
          "type": "uint256"
        }
      ],
      "name": "StringsInsufficientHexLength",
      "type": "error"
    },
    {
      "anonymous": false,
      "inputs": [
        {
          "indexed": true,
          "internalType": "address",
          "name": "owner",
          "type": "address"
        },
        {
          "indexed": true,
          "internalType": "address",
          "name": "spender",
          "type": "address"
        },
        {
          "indexed": false,
          "internalType": "uint256",
          "name": "value",
          "type": "uint256"
        }
      ],
      "name": "Approval",
      "type": "event"
    },
    {
      "anonymous": false,
      "inputs": [
        {
          "indexed": true,
          "internalType": "string",
          "name": "_names",
          "type": "string"
        },
        {
          "indexed": false,
          "internalType": "uint256",
          "name": "_age",
          "type": "uint256"
        },
        {
          "indexed": true,
          "internalType": "string",
          "name": "_idNumber",
          "type": "string"
        },
        {
          "indexed": false,
          "internalType": "string",
          "name": "_party",
          "type": "string"
        }
      ],
      "name": "CandidateRegistrationSuccess",
      "type": "event"
    },
    {
      "anonymous": false,
      "inputs": [
        {
          "indexed": false,
          "internalType": "address",
          "name": "_to",
          "type": "address"
        },
        {
          "indexed": false,
          "internalType": "uint256",
          "name": "_amount",
          "type": "uint256"
        }
      ],
      "name": "MintSuccess",
      "type": "event"
    },
    {
      "anonymous": false,
      "inputs": [
        {
          "indexed": false,
          "internalType": "string",
          "name": "positionName",
          "type": "string"
        }
      ],
      "name": "PositionAdded",
      "type": "event"
    },
    {
      "anonymous": false,
      "inputs": [],
      "name": "RegistrationEnded",
      "type": "event"
    },
    {
      "anonymous": false,
      "inputs": [],
      "name": "RegistrationStarted",
      "type": "event"
    },
    {
      "anonymous": false,
      "inputs": [
        {
          "indexed": true,
          "internalType": "address",
          "name": "from",
          "type": "address"
        },
        {
          "indexed": true,
          "internalType": "address",
          "name": "to",
          "type": "address"
        },
        {
          "indexed": false,
          "internalType": "uint256",
          "name": "value",
          "type": "uint256"
        }
      ],
      "name": "Transfer",
      "type": "event"
    },
    {
      "anonymous": false,
      "inputs": [
        {
          "indexed": true,
          "internalType": "string",
          "name": "_names",
          "type": "string"
        },
        {
          "indexed": true,
          "internalType": "string",
          "name": "_idNumber",
          "type": "string"
        }
      ],
      "name": "VerifyCandidateSuccess",
      "type": "event"
    },
    {
      "anonymous": false,
      "inputs": [
        {
          "indexed": true,
          "internalType": "address",
          "name": "voter",
          "type": "address"
        },
        {
          "indexed": false,
          "internalType": "string",
          "name": "_idNumber",
          "type": "string"
        },
        {
          "indexed": false,
          "internalType": "string",
          "name": "position",
          "type": "string"
        },
        {
          "indexed": false,
          "internalType": "uint256",
          "name": "candidateIndex",
          "type": "uint256"
        }
      ],
      "name": "VotedSuccess",
      "type": "event"
    },
    {
      "anonymous": false,
      "inputs": [
        {
          "indexed": true,
          "internalType": "string",
          "name": "_names",
          "type": "string"
        },
        {
          "indexed": false,
          "internalType": "uint256",
          "name": "_age",
          "type": "uint256"
        },
        {
          "indexed": true,
          "internalType": "string",
          "name": "_idNumber",
          "type": "string"
        }
      ],
      "name": "VoterRegistrationSuccess",
      "type": "event"
    },
    {
      "anonymous": false,
      "inputs": [],
      "name": "VotingStarted",
      "type": "event"
    },
    {
      "inputs": [],
      "name": "MAX_SUPPLY",
      "outputs": [
        {
          "internalType": "uint256",
          "name": "",
          "type": "uint256"
        }
      ],
      "stateMutability": "view",
      "type": "function"
    },
    {
      "inputs": [],
      "name": "REGISTER_AS_VOTER",
      "outputs": [
        {
          "internalType": "uint256",
          "name": "",
          "type": "uint256"
        }
      ],
      "stateMutability": "view",
      "type": "function"
    },
    {
      "inputs": [],
      "name": "VERIFY_CANDIDATE",
      "outputs": [
        {
          "internalType": "uint256",
          "name": "",
          "type": "uint256"
        }
      ],
      "stateMutability": "view",
      "type": "function"
    },
    {
      "inputs": [
        {
          "internalType": "string[]",
          "name": "_pNames",
          "type": "string[]"
        }
      ],
      "name": "addPositions",
      "outputs": [],
      "stateMutability": "nonpayable",
      "type": "function"
    },
    {
      "inputs": [
        {
          "internalType": "address",
          "name": "owner",
          "type": "address"
        },
        {
          "internalType": "address",
          "name": "spender",
          "type": "address"
        }
      ],
      "name": "allowance",
      "outputs": [
        {
          "internalType": "uint256",
          "name": "",
          "type": "uint256"
        }
      ],
      "stateMutability": "view",
      "type": "function"
    },
    {
      "inputs": [
        {
          "internalType": "address",
          "name": "spender",
          "type": "address"
        },
        {
          "internalType": "uint256",
          "name": "value",
          "type": "uint256"
        }
      ],
      "name": "approve",
      "outputs": [
        {
          "internalType": "bool",
          "name": "",
          "type": "bool"
        }
      ],
      "stateMutability": "nonpayable",
      "type": "function"
    },
    {
      "inputs": [
        {
          "internalType": "address",
          "name": "account",
          "type": "address"
        }
      ],
      "name": "balanceOf",
      "outputs": [
        {
          "internalType": "uint256",
          "name": "",
          "type": "uint256"
        }
      ],
      "stateMutability": "view",
      "type": "function"
    },
    {
      "inputs": [
        {
          "internalType": "string",
          "name": "",
          "type": "string"
        }
      ],
      "name": "candidateObject",
      "outputs": [
        {
          "internalType": "string",
          "name": "names",
          "type": "string"
        },
        {
          "internalType": "uint256",
          "name": "age",
          "type": "uint256"
        },
        {
          "internalType": "string",
          "name": "idNumber",
          "type": "string"
        },
        {
          "internalType": "string",
          "name": "party",
          "type": "string"
        },
        {
          "internalType": "uint256",
          "name": "votes",
          "type": "uint256"
        },
        {
          "internalType": "bool",
          "name": "verified",
          "type": "bool"
        }
      ],
      "stateMutability": "view",
      "type": "function"
    },
    {
      "inputs": [
        {
          "internalType": "address",
          "name": "userAddress",
          "type": "address"
        },
        {
          "internalType": "string",
          "name": "domain",
          "type": "string"
        },
        {
          "internalType": "string",
          "name": "statement",
          "type": "string"
        },
        {
          "internalType": "string",
          "name": "uri",
          "type": "string"
        },
        {
          "internalType": "uint256",
          "name": "chainId",
          "type": "uint256"
        },
        {
          "internalType": "uint256",
          "name": "nonce",
          "type": "uint256"
        }
      ],
      "name": "createMessageHash",
      "outputs": [
        {
          "internalType": "bytes32",
          "name": "",
          "type": "bytes32"
        }
      ],
      "stateMutability": "pure",
      "type": "function"
    },
    {
      "inputs": [],
      "name": "decimals",
      "outputs": [
        {
          "internalType": "uint8",
          "name": "",
          "type": "uint8"
        }
      ],
      "stateMutability": "view",
      "type": "function"
    },
    {
      "inputs": [],
      "name": "endRegistrationAndStartVoting",
      "outputs": [],
      "stateMutability": "nonpayable",
      "type": "function"
    },
    {
      "inputs": [],
      "name": "getAllPositions",
      "outputs": [
        {
          "components": [
            {
              "internalType": "string",
              "name": "pName",
              "type": "string"
            },
            {
              "components": [
                {
                  "internalType": "string",
                  "name": "names",
                  "type": "string"
                },
                {
                  "internalType": "uint256",
                  "name": "age",
                  "type": "uint256"
                },
                {
                  "internalType": "string",
                  "name": "idNumber",
                  "type": "string"
                },
                {
                  "internalType": "string",
                  "name": "party",
                  "type": "string"
                },
                {
                  "internalType": "uint256",
                  "name": "votes",
                  "type": "uint256"
                },
                {
                  "internalType": "bool",
                  "name": "verified",
                  "type": "bool"
                }
              ],
              "internalType": "struct Voting.Candidate[]",
              "name": "candidates",
              "type": "tuple[]"
            }
          ],
          "internalType": "struct Voting.Position[]",
          "name": "",
          "type": "tuple[]"
        }
      ],
      "stateMutability": "view",
      "type": "function"
    },
    {
      "inputs": [],
      "name": "getCandidates",
      "outputs": [
        {
          "components": [
            {
              "internalType": "string",
              "name": "names",
              "type": "string"
            },
            {
              "internalType": "uint256",
              "name": "age",
              "type": "uint256"
            },
            {
              "internalType": "string",
              "name": "idNumber",
              "type": "string"
            },
            {
              "internalType": "string",
              "name": "party",
              "type": "string"
            },
            {
              "internalType": "uint256",
              "name": "votes",
              "type": "uint256"
            },
            {
              "internalType": "bool",
              "name": "verified",
              "type": "bool"
            }
          ],
          "internalType": "struct Voting.Candidate[]",
          "name": "",
          "type": "tuple[]"
        }
      ],
      "stateMutability": "view",
      "type": "function"
    },
    {
      "inputs": [],
      "name": "getPositionCount",
      "outputs": [
        {
          "internalType": "uint256",
          "name": "",
          "type": "uint256"
        }
      ],
      "stateMutability": "view",
      "type": "function"
    },
    {
      "inputs": [],
      "name": "getVoters",
      "outputs": [
        {
          "components": [
            {
              "internalType": "string",
              "name": "names",
              "type": "string"
            },
            {
              "internalType": "uint256",
              "name": "age",
              "type": "uint256"
            },
            {
              "internalType": "string",
              "name": "idNumber",
              "type": "string"
            },
            {
              "internalType": "bool",
              "name": "voted",
              "type": "bool"
            }
          ],
          "internalType": "struct Voting.Voter[]",
          "name": "",
          "type": "tuple[]"
        }
      ],
      "stateMutability": "view",
      "type": "function"
    },
    {
      "inputs": [
        {
          "internalType": "address",
          "name": "_account",
          "type": "address"
        }
      ],
      "name": "isVoterRegistered",
      "outputs": [
        {
          "internalType": "bool",
          "name": "",
          "type": "bool"
        }
      ],
      "stateMutability": "view",
      "type": "function"
    },
    {
      "inputs": [
        {
          "internalType": "uint256",
          "name": "",
          "type": "uint256"
        }
      ],
      "name": "listOfCandidates",
      "outputs": [
        {
          "internalType": "string",
          "name": "names",
          "type": "string"
        },
        {
          "internalType": "uint256",
          "name": "age",
          "type": "uint256"
        },
        {
          "internalType": "string",
          "name": "idNumber",
          "type": "string"
        },
        {
          "internalType": "string",
          "name": "party",
          "type": "string"
        },
        {
          "internalType": "uint256",
          "name": "votes",
          "type": "uint256"
        },
        {
          "internalType": "bool",
          "name": "verified",
          "type": "bool"
        }
      ],
      "stateMutability": "view",
      "type": "function"
    },
    {
      "inputs": [
        {
          "internalType": "uint256",
          "name": "",
          "type": "uint256"
        }
      ],
      "name": "listOfPositions",
      "outputs": [
        {
          "internalType": "string",
          "name": "pName",
          "type": "string"
        }
      ],
      "stateMutability": "view",
      "type": "function"
    },
    {
      "inputs": [
        {
          "internalType": "uint256",
          "name": "",
          "type": "uint256"
        }
      ],
      "name": "listOfVoters",
      "outputs": [
        {
          "internalType": "string",
          "name": "names",
          "type": "string"
        },
        {
          "internalType": "uint256",
          "name": "age",
          "type": "uint256"
        },
        {
          "internalType": "string",
          "name": "idNumber",
          "type": "string"
        },
        {
          "internalType": "bool",
          "name": "voted",
          "type": "bool"
        }
      ],
      "stateMutability": "view",
      "type": "function"
    },
    {
      "inputs": [],
      "name": "name",
      "outputs": [
        {
          "internalType": "string",
          "name": "",
          "type": "string"
        }
      ],
      "stateMutability": "view",
      "type": "function"
    },
    {
      "inputs": [],
      "name": "owner",
      "outputs": [
        {
          "internalType": "address",
          "name": "",
          "type": "address"
        }
      ],
      "stateMutability": "view",
      "type": "function"
    },
    {
      "inputs": [
        {
          "internalType": "string",
          "name": "",
          "type": "string"
        }
      ],
      "name": "positions",
      "outputs": [
        {
          "internalType": "string",
          "name": "pName",
          "type": "string"
        }
      ],
      "stateMutability": "view",
      "type": "function"
    },
    {
      "inputs": [
        {
          "internalType": "string",
          "name": "_names",
          "type": "string"
        },
        {
          "internalType": "uint256",
          "name": "_age",
          "type": "uint256"
        },
        {
          "internalType": "string",
          "name": "_idNumber",
          "type": "string"
        },
        {
          "internalType": "string",
          "name": "_party",
          "type": "string"
        }
      ],
      "name": "registerCandidate",
      "outputs": [],
      "stateMutability": "nonpayable",
      "type": "function"
    },
    {
      "inputs": [
        {
          "internalType": "string",
          "name": "_names",
          "type": "string"
        },
        {
          "internalType": "uint256",
          "name": "_age",
          "type": "uint256"
        },
        {
          "internalType": "string",
          "name": "_idNumber",
          "type": "string"
        }
      ],
      "name": "registerVoter",
      "outputs": [
        {
          "internalType": "bool",
          "name": "",
          "type": "bool"
        }
      ],
      "stateMutability": "nonpayable",
      "type": "function"
    },
    {
      "inputs": [],
      "name": "registrationStarted",
      "outputs": [
        {
          "internalType": "bool",
          "name": "",
          "type": "bool"
        }
      ],
      "stateMutability": "view",
      "type": "function"
    },
    {
      "inputs": [],
      "name": "startRegistration",
      "outputs": [],
      "stateMutability": "nonpayable",
      "type": "function"
    },
    {
      "inputs": [],
      "name": "symbol",
      "outputs": [
        {
          "internalType": "string",
          "name": "",
          "type": "string"
        }
      ],
      "stateMutability": "view",
      "type": "function"
    },
    {
      "inputs": [],
      "name": "totalSupply",
      "outputs": [
        {
          "internalType": "uint256",
          "name": "",
          "type": "uint256"
        }
      ],
      "stateMutability": "view",
      "type": "function"
    },
    {
      "inputs": [
        {
          "internalType": "address",
          "name": "to",
          "type": "address"
        },
        {
          "internalType": "uint256",
          "name": "value",
          "type": "uint256"
        }
      ],
      "name": "transfer",
      "outputs": [
        {
          "internalType": "bool",
          "name": "",
          "type": "bool"
        }
      ],
      "stateMutability": "nonpayable",
      "type": "function"
    },
    {
      "inputs": [
        {
          "internalType": "address",
          "name": "from",
          "type": "address"
        },
        {
          "internalType": "address",
          "name": "to",
          "type": "address"
        },
        {
          "internalType": "uint256",
          "name": "value",
          "type": "uint256"
        }
      ],
      "name": "transferFrom",
      "outputs": [
        {
          "internalType": "bool",
          "name": "",
          "type": "bool"
        }
      ],
      "stateMutability": "nonpayable",
      "type": "function"
    },
    {
      "inputs": [
        {
          "internalType": "string",
          "name": "_idNumber",
          "type": "string"
        }
      ],
      "name": "verifyCandidate",
      "outputs": [],
      "stateMutability": "nonpayable",
      "type": "function"
    },
    {
      "inputs": [
        {
          "internalType": "bytes32",
          "name": "hash",
          "type": "bytes32"
        },
        {
          "internalType": "bytes",
          "name": "signature",
          "type": "bytes"
        }
      ],
      "name": "verifySignature",
      "outputs": [
        {
          "internalType": "bool",
          "name": "",
          "type": "bool"
        }
      ],
      "stateMutability": "view",
      "type": "function"
    },
    {
      "inputs": [
        {
          "internalType": "string",
          "name": "position",
          "type": "string"
        },
        {
          "internalType": "uint256",
          "name": "candidateIndex",
          "type": "uint256"
        }
      ],
      "name": "vote",
      "outputs": [],
      "stateMutability": "nonpayable",
      "type": "function"
    },
    {
      "inputs": [
        {
          "internalType": "string",
          "name": "",
          "type": "string"
        }
      ],
      "name": "voterObject",
      "outputs": [
        {
          "internalType": "string",
          "name": "names",
          "type": "string"
        },
        {
          "internalType": "uint256",
          "name": "age",
          "type": "uint256"
        },
        {
          "internalType": "string",
          "name": "idNumber",
          "type": "string"
        },
        {
          "internalType": "bool",
          "name": "voted",
          "type": "bool"
        }
      ],
      "stateMutability": "view",
      "type": "function"
    },
    {
      "inputs": [
        {
          "internalType": "address",
          "name": "",
          "type": "address"
        }
      ],
      "name": "voters",
      "outputs": [
        {
          "internalType": "string",
          "name": "names",
          "type": "string"
        },
        {
          "internalType": "uint256",
          "name": "age",
          "type": "uint256"
        },
        {
          "internalType": "string",
          "name": "idNumber",
          "type": "string"
        },
        {
          "internalType": "bool",
          "name": "voted",
          "type": "bool"
        }
      ],
      "stateMutability": "view",
      "type": "function"
    },
    {
      "inputs": [],
      "name": "votingStarted",
      "outputs": [
        {
          "internalType": "bool",
          "name": "",
          "type": "bool"
        }
      ],
      "stateMutability": "view",
      "type": "function"
    }
  ],
  "bytecode": "0x60806040526000600e60006101000a81548160ff0219169083151502179055506000600e60016101000a81548160ff02191690831515021790555034801561004657600080fd5b506040518060400160405280600581526020017f566f7465780000000000000000000000000000000000000000000000000000008152506040518060400160405280600481526020017f56544b4e0000000000000000000000000000000000000000000000000000000081525081600390816100c2919061036b565b5080600490816100d2919061036b565b50505033600560006101000a81548173ffffffffffffffffffffffffffffffffffffffff021916908373ffffffffffffffffffffffffffffffffffffffff16021790555061043d565b600081519050919050565b7f4e487b7100000000000000000000000000000000000000000000000000000000600052604160045260246000fd5b7f4e487b7100000000000000000000000000000000000000000000000000000000600052602260045260246000fd5b6000600282049050600182168061019c57607f821691505b6020821081036101af576101ae610155565b5b50919050565b60008190508160005260206000209050919050565b60006020601f8301049050919050565b600082821b905092915050565b6000600883026102177fffffffffffffffffffffffffffffffffffffffffffffffffffffffffffffffff826101da565b61022186836101da565b95508019841693508086168417925050509392505050565b6000819050919050565b6000819050919050565b600061026861026361025e84610239565b610243565b610239565b9050919050565b6000819050919050565b6102828361024d565b61029661028e8261026f565b8484546101e7565b825550505050565b600090565b6102ab61029e565b6102b6818484610279565b505050565b5b818110156102da576102cf6000826102a3565b6001810190506102bc565b5050565b601f82111561031f576102f0816101b5565b6102f9846101ca565b81016020851015610308578190505b61031c610314856101ca565b8301826102bb565b50505b505050565b600082821c905092915050565b600061034260001984600802610324565b1980831691505092915050565b600061035b8383610331565b9150826002028217905092915050565b6103748261011b565b67ffffffffffffffff81111561038d5761038c610126565b5b6103978254610184565b6103a28282856102de565b600060209050601f8311600181146103d557600084156103c3578287015190505b6103cd858261034f565b865550610435565b601f1984166103e3866101b5565b60005b8281101561040b578489015182556001820191506020850194506020810190506103e6565b868310156104285784890151610424601f891682610331565b8355505b6001600288020188555050505b505050505050565b6160958061044c6000396000f3fe608060405234801561001057600080fd5b506004361061021c5760003560e01c806371a6f46511610125578063a6385803116100ad578063cdd722531161007c578063cdd7225314610690578063daca6f78146106ae578063dd62ed3e146106de578063eb2119db1461070e578063ffdd74961461073e5761021c565b8063a63858031461060a578063a9059cbb14610626578063abceaad214610656578063be94ced7146106725761021c565b806392d7df4a116100f457806392d7df4a1461053557806395d89b411461056a5780639a53cbea146105885780639dfa9065146105bb578063a3ec138d146105d75761021c565b806371a6f465146104ab57806381683476146104db57806383d948b7146104f95780638da5cb5b146105175761021c565b8063313ce567116101a85780635fbcc155116101775780635fbcc155146103cf5780636636b91e146103ff578063676f86b01461042f57806370a082311461045f57806371565d2e1461048f5761021c565b8063313ce5671461035657806332cb6b0c146103745780634a66e1ab1461039257806355d5d611146103c55761021c565b806318160ddd116101ef57806318160ddd1461029757806318f56a0a146102b55780631c64a33e146102d357806323b872dd1461030857806327aed42e146103385761021c565b806306a49fce1461022157806306fdde031461023f578063095ea7b31461025d57806310b866951461028d575b600080fd5b61022961075c565b6040516102369190613f04565b60405180910390f35b6102476109a0565b6040516102549190613f70565b60405180910390f35b61027760048036038101906102729190614030565b610a32565b604051610284919061407f565b60405180910390f35b610295610a55565b005b61029f610bce565b6040516102ac91906140a9565b60405180910390f35b6102bd610bd8565b6040516102ca9190614250565b60405180910390f35b6102ed60048036038101906102e891906143a7565b610f0d565b6040516102ff969594939291906143f0565b60405180910390f35b610322600480360381019061031d9190614466565b611104565b60405161032f919061407f565b60405180910390f35b610340611133565b60405161034d919061407f565b60405180910390f35b61035e611146565b60405161036b91906144d5565b60405180910390f35b61037c61114f565b60405161038991906140a9565b60405180910390f35b6103ac60048036038101906103a791906143a7565b61115d565b6040516103bc94939291906144f0565b60405180910390f35b6103cd6112c0565b005b6103e960048036038101906103e49190614543565b61147f565b6040516103f6919061463d565b60405180910390f35b61041960048036038101906104149190614658565b6114ee565b604051610426919061407f565b60405180910390f35b610449600480360381019061044491906143a7565b61183e565b6040516104569190613f70565b60405180910390f35b610479600480360381019061047491906146e3565b6118fa565b60405161048691906140a9565b60405180910390f35b6104a960048036038101906104a49190614710565b611942565b005b6104c560048036038101906104c091906147cb565b611c9e565b6040516104d29190613f70565b60405180910390f35b6104e3611d54565b6040516104f091906140a9565b60405180910390f35b610501611d61565b60405161050e919061407f565b60405180910390f35b61051f611d74565b60405161052c9190614807565b60405180910390f35b61054f600480360381019061054a91906147cb565b611d9a565b604051610561969594939291906143f0565b60405180910390f35b610572611f8b565b60405161057f9190613f70565b60405180910390f35b6105a2600480360381019061059d91906147cb565b61201d565b6040516105b294939291906144f0565b60405180910390f35b6105d560048036038101906105d091906143a7565b61217a565b005b6105f160048036038101906105ec91906146e3565b612341565b60405161060194939291906144f0565b60405180910390f35b610624600480360381019061061f9190614822565b61248e565b005b610640600480360381019061063b9190614030565b612762565b60405161064d919061407f565b60405180910390f35b610670600480360381019061066b9190614964565b612785565b005b61067a612a1d565b60405161068791906140a9565b60405180910390f35b610698612a29565b6040516106a59190614ad9565b60405180910390f35b6106c860048036038101906106c39190614bc8565b612bd1565b6040516106d5919061407f565b60405180910390f35b6106f860048036038101906106f39190614c24565b612c44565b60405161070591906140a9565b60405180910390f35b610728600480360381019061072391906146e3565b612ccb565b604051610735919061407f565b60405180910390f35b610746612d26565b60405161075391906140a9565b60405180910390f35b60606007805480602002602001604051908101604052809291908181526020016000905b8282101561099757838290600052602060002090600602016040518060c00160405290816000820180546107b390614c93565b80601f01602080910402602001604051908101604052809291908181526020018280546107df90614c93565b801561082c5780601f106108015761010080835404028352916020019161082c565b820191906000526020600020905b81548152906001019060200180831161080f57829003601f168201915b505050505081526020016001820154815260200160028201805461084f90614c93565b80601f016020809104026020016040519081016040528092919081815260200182805461087b90614c93565b80156108c85780601f1061089d576101008083540402835291602001916108c8565b820191906000526020600020905b8154815290600101906020018083116108ab57829003601f168201915b505050505081526020016003820180546108e190614c93565b80601f016020809104026020016040519081016040528092919081815260200182805461090d90614c93565b801561095a5780601f1061092f5761010080835404028352916020019161095a565b820191906000526020600020905b81548152906001019060200180831161093d57829003601f168201915b50505050508152602001600482015481526020016005820160009054906101000a900460ff16151515158152505081526020019060010190610780565b50505050905090565b6060600380546109af90614c93565b80601f01602080910402602001604051908101604052809291908181526020018280546109db90614c93565b8015610a285780601f106109fd57610100808354040283529160200191610a28565b820191906000526020600020905b815481529060010190602001808311610a0b57829003601f168201915b5050505050905090565b600080610a3d612d32565b9050610a4a818585612d3a565b600191505092915050565b600560009054906101000a900473ffffffffffffffffffffffffffffffffffffffff1673ffffffffffffffffffffffffffffffffffffffff163373ffffffffffffffffffffffffffffffffffffffff1614610ae5576040517f08c379a0000000000000000000000000000000000000000000000000000000008152600401610adc90614d10565b60405180910390fd5b600e60009054906101000a900460ff1615610b35576040517f08c379a0000000000000000000000000000000000000000000000000000000008152600401610b2c90614da2565b60405180910390fd5b600e60019054906101000a900460ff1615610b85576040517f08c379a0000000000000000000000000000000000000000000000000000000008152600401610b7c90614e34565b60405180910390fd5b6001600e60006101000a81548160ff0219169083151502179055507f82e6c84abd647d1b4fae9bee1859f2642e5443af0ff900d4af83a93c2bf4151260405160405180910390a1565b6000600254905090565b60606008805480602002602001604051908101604052809291908181526020016000905b82821015610f045783829060005260206000209060020201604051806040016040529081600082018054610c2f90614c93565b80601f0160208091040260200160405190810160405280929190818152602001828054610c5b90614c93565b8015610ca85780601f10610c7d57610100808354040283529160200191610ca8565b820191906000526020600020905b815481529060010190602001808311610c8b57829003601f168201915b5050505050815260200160018201805480602002602001604051908101604052809291908181526020016000905b82821015610eed57838290600052602060002090600602016040518060c0016040529081600082018054610d0990614c93565b80601f0160208091040260200160405190810160405280929190818152602001828054610d3590614c93565b8015610d825780601f10610d5757610100808354040283529160200191610d82565b820191906000526020600020905b815481529060010190602001808311610d6557829003601f168201915b5050505050815260200160018201548152602001600282018054610da590614c93565b80601f0160208091040260200160405190810160405280929190818152602001828054610dd190614c93565b8015610e1e5780601f10610df357610100808354040283529160200191610e1e565b820191906000526020600020905b815481529060010190602001808311610e0157829003601f168201915b50505050508152602001600382018054610e3790614c93565b80601f0160208091040260200160405190810160405280929190818152602001828054610e6390614c93565b8015610eb05780601f10610e8557610100808354040283529160200191610eb0565b820191906000526020600020905b815481529060010190602001808311610e9357829003601f168201915b50505050508152602001600482015481526020016005820160009054906101000a900460ff16151515158152505081526020019060010190610cd6565b505050508152505081526020019060010190610bfc565b50505050905090565b600a81805160208101820180518482526020830160208501208183528095505050505050600091509050806000018054610f4690614c93565b80601f0160208091040260200160405190810160405280929190818152602001828054610f7290614c93565b8015610fbf5780601f10610f9457610100808354040283529160200191610fbf565b820191906000526020600020905b815481529060010190602001808311610fa257829003601f168201915b505050505090806001015490806002018054610fda90614c93565b80601f016020809104026020016040519081016040528092919081815260200182805461100690614c93565b80156110535780601f1061102857610100808354040283529160200191611053565b820191906000526020600020905b81548152906001019060200180831161103657829003601f168201915b50505050509080600301805461106890614c93565b80601f016020809104026020016040519081016040528092919081815260200182805461109490614c93565b80156110e15780601f106110b6576101008083540402835291602001916110e1565b820191906000526020600020905b8154815290600101906020018083116110c457829003601f168201915b5050505050908060040154908060050160009054906101000a900460ff16905086565b60008061110f612d32565b905061111c858285612d4c565b611127858585612de0565b60019150509392505050565b600e60009054906101000a900460ff1681565b60006012905090565b69d3c21bcecceda100000081565b60098180516020810182018051848252602083016020850120818352809550505050505060009150905080600001805461119690614c93565b80601f01602080910402602001604051908101604052809291908181526020018280546111c290614c93565b801561120f5780601f106111e45761010080835404028352916020019161120f565b820191906000526020600020905b8154815290600101906020018083116111f257829003601f168201915b50505050509080600101549080600201805461122a90614c93565b80601f016020809104026020016040519081016040528092919081815260200182805461125690614c93565b80156112a35780601f10611278576101008083540402835291602001916112a3565b820191906000526020600020905b81548152906001019060200180831161128657829003601f168201915b5050505050908060030160009054906101000a900460ff16905084565b600560009054906101000a900473ffffffffffffffffffffffffffffffffffffffff1673ffffffffffffffffffffffffffffffffffffffff163373ffffffffffffffffffffffffffffffffffffffff1614611350576040517f08c379a000000000000000000000000000000000000000000000000000000000815260040161134790614d10565b60405180910390fd5b600e60009054906101000a900460ff1661139f576040517f08c379a000000000000000000000000000000000000000000000000000000000815260040161139690614ec6565b60405180910390fd5b600e60019054906101000a900460ff16156113ef576040517f08c379a00000000000000000000000000000000000000000000000000000000081526004016113e690614f32565b60405180910390fd5b6000600e60006101000a81548160ff0219169083151502179055506001600e60016101000a81548160ff0219169083151502179055507f2ee88f50f05558e39b34a18214ff6a6adc091504772084c6ce7899354bec0aa460405160405180910390a17f877e2548498f42b7975a186b94ef1d32c86d420b7b806dd2be2bea293b89590460405160405180910390a1565b6000856114a38873ffffffffffffffffffffffffffffffffffffffff166014612ed4565b86866114ae8761311a565b6114b78761311a565b6040516020016114cc9695949392919061523a565b6040516020818303038152906040528051906020012090509695505050505050565b6000600e60009054906101000a900460ff1661153f576040517f08c379a000000000000000000000000000000000000000000000000000000000815260040161153690614ec6565b60405180910390fd5b600e60019054906101000a900460ff161561158f576040517f08c379a000000000000000000000000000000000000000000000000000000000815260040161158690615393565b60405180910390fd5b60006009836040516115a191906153b3565b908152602001604051809103902060000180546115bd90614c93565b9050146115ff576040517f08c379a00000000000000000000000000000000000000000000000000000000081526004016115f690615416565b60405180910390fd5b600060405180608001604052808681526020018581526020018481526020016000151581525090506006819080600181540180825580915050600190039060005260206000209060040201600090919091909150600082015181600001908161166891906155e2565b5060208201518160010155604082015181600201908161168891906155e2565b5060608201518160030160006101000a81548160ff0219169083151502179055505050806009846040516116bc91906153b3565b908152602001604051809103902060008201518160000190816116df91906155e2565b506020820151816001015560408201518160020190816116ff91906155e2565b5060608201518160030160006101000a81548160ff02191690831515021790555090505080600c60003373ffffffffffffffffffffffffffffffffffffffff1673ffffffffffffffffffffffffffffffffffffffff168152602001908152602001600020600082015181600001908161177891906155e2565b5060208201518160010155604082015181600201908161179891906155e2565b5060608201518160030160006101000a81548160ff0219169083151502179055509050506117ce33674563918244f400006131e8565b50826040516117dd91906153b3565b6040518091039020856040516117f391906153b3565b60405180910390207f754a5f7c9336f3562d73dacebf51de10da957ae9dfcae4fbfb93733ece3dd5aa8660405161182a91906140a9565b60405180910390a360019150509392505050565b600b8180516020810182018051848252602083016020850120818352809550505050505060009150905080600001805461187790614c93565b80601f01602080910402602001604051908101604052809291908181526020018280546118a390614c93565b80156118f05780601f106118c5576101008083540402835291602001916118f0565b820191906000526020600020905b8154815290600101906020018083116118d357829003601f168201915b5050505050905081565b60008060008373ffffffffffffffffffffffffffffffffffffffff1673ffffffffffffffffffffffffffffffffffffffff168152602001908152602001600020549050919050565b600e60009054906101000a900460ff16611991576040517f08c379a000000000000000000000000000000000000000000000000000000000815260040161198890614ec6565b60405180910390fd5b600e60019054906101000a900460ff16156119e1576040517f08c379a00000000000000000000000000000000000000000000000000000000081526004016119d890615393565b60405180910390fd5b6000600a836040516119f391906153b3565b90815260200160405180910390206000018054611a0f90614c93565b905014611a51576040517f08c379a0000000000000000000000000000000000000000000000000000000008152600401611a4890615700565b60405180910390fd5b6000600983604051611a6391906153b3565b90815260200160405180910390206000018054611a7f90614c93565b905003611ac1576040517f08c379a0000000000000000000000000000000000000000000000000000000008152600401611ab89061576c565b60405180910390fd5b60006040518060c001604052808681526020018581526020018481526020018381526020016000815260200160001515815250905060078190806001815401808255809150506001900390600052602060002090600602016000909190919091506000820151816000019081611b3791906155e2565b50602082015181600101556040820151816002019081611b5791906155e2565b506060820151816003019081611b6d91906155e2565b506080820151816004015560a08201518160050160006101000a81548160ff021916908315150217905550505080600a84604051611bab91906153b3565b90815260200160405180910390206000820151816000019081611bce91906155e2565b50602082015181600101556040820151816002019081611bee91906155e2565b506060820151816003019081611c0491906155e2565b506080820151816004015560a08201518160050160006101000a81548160ff02191690831515021790555090505082604051611c4091906153b3565b604051809103902085604051611c5691906153b3565b60405180910390207f8afd5f09f2c1c39b88e6ee97fcf10294be6e0486fd829b85f61d0ab7aa008acd8685604051611c8f92919061578c565b60405180910390a35050505050565b60088181548110611cae57600080fd5b9060005260206000209060020201600091509050806000018054611cd190614c93565b80601f0160208091040260200160405190810160405280929190818152602001828054611cfd90614c93565b8015611d4a5780601f10611d1f57610100808354040283529160200191611d4a565b820191906000526020600020905b815481529060010190602001808311611d2d57829003601f168201915b5050505050905081565b6000600880549050905090565b600e60019054906101000a900460ff1681565b600560009054906101000a900473ffffffffffffffffffffffffffffffffffffffff1681565b60078181548110611daa57600080fd5b9060005260206000209060060201600091509050806000018054611dcd90614c93565b80601f0160208091040260200160405190810160405280929190818152602001828054611df990614c93565b8015611e465780601f10611e1b57610100808354040283529160200191611e46565b820191906000526020600020905b815481529060010190602001808311611e2957829003601f168201915b505050505090806001015490806002018054611e6190614c93565b80601f0160208091040260200160405190810160405280929190818152602001828054611e8d90614c93565b8015611eda5780601f10611eaf57610100808354040283529160200191611eda565b820191906000526020600020905b815481529060010190602001808311611ebd57829003601f168201915b505050505090806003018054611eef90614c93565b80601f0160208091040260200160405190810160405280929190818152602001828054611f1b90614c93565b8015611f685780601f10611f3d57610100808354040283529160200191611f68565b820191906000526020600020905b815481529060010190602001808311611f4b57829003601f168201915b5050505050908060040154908060050160009054906101000a900460ff16905086565b606060048054611f9a90614c93565b80601f0160208091040260200160405190810160405280929190818152602001828054611fc690614c93565b80156120135780601f10611fe857610100808354040283529160200191612013565b820191906000526020600020905b815481529060010190602001808311611ff657829003601f168201915b5050505050905090565b6006818154811061202d57600080fd5b906000526020600020906004020160009150905080600001805461205090614c93565b80601f016020809104026020016040519081016040528092919081815260200182805461207c90614c93565b80156120c95780601f1061209e576101008083540402835291602001916120c9565b820191906000526020600020905b8154815290600101906020018083116120ac57829003601f168201915b5050505050908060010154908060020180546120e490614c93565b80601f016020809104026020016040519081016040528092919081815260200182805461211090614c93565b801561215d5780601f106121325761010080835404028352916020019161215d565b820191906000526020600020905b81548152906001019060200180831161214057829003601f168201915b5050505050908060030160009054906101000a900460ff16905084565b600560009054906101000a900473ffffffffffffffffffffffffffffffffffffffff1673ffffffffffffffffffffffffffffffffffffffff163373ffffffffffffffffffffffffffffffffffffffff161461220a576040517f08c379a000000000000000000000000000000000000000000000000000000000815260040161220190614d10565b60405180910390fd5b600a8160405161221a91906153b3565b908152602001604051809103902060050160009054906101000a900460ff1615612279576040517f08c379a000000000000000000000000000000000000000000000000000000000815260040161227090615808565b60405180910390fd5b6001600a8260405161228b91906153b3565b908152602001604051809103902060050160006101000a81548160ff0219169083151502179055506122c533678ac7230489e800006131e8565b50806040516122d491906153b3565b6040518091039020600a826040516122ec91906153b3565b908152602001604051809103902060000160405161230a91906158ab565b60405180910390207fb78543f054c768084f86f0e559d1e007998ca69729eeffc4b727baa388934a3260405160405180910390a350565b600c60205280600052604060002060009150905080600001805461236490614c93565b80601f016020809104026020016040519081016040528092919081815260200182805461239090614c93565b80156123dd5780601f106123b2576101008083540402835291602001916123dd565b820191906000526020600020905b8154815290600101906020018083116123c057829003601f168201915b5050505050908060010154908060020180546123f890614c93565b80601f016020809104026020016040519081016040528092919081815260200182805461242490614c93565b80156124715780601f1061244657610100808354040283529160200191612471565b820191906000526020600020905b81548152906001019060200180831161245457829003601f168201915b5050505050908060030160009054906101000a900460ff16905084565b600e60009054906101000a900460ff16156124de576040517f08c379a00000000000000000000000000000000000000000000000000000000081526004016124d590615934565b60405180910390fd5b600e60019054906101000a900460ff1661252d576040517f08c379a0000000000000000000000000000000000000000000000000000000008152600401612524906159a0565b60405180910390fd5b6000600c60003373ffffffffffffffffffffffffffffffffffffffff1673ffffffffffffffffffffffffffffffffffffffff16815260200190815260200160002090508060030160009054906101000a900460ff16156125c2576040517f08c379a00000000000000000000000000000000000000000000000000000000081526004016125b990615a0c565b60405180910390fd5b6000600b846040516125d491906153b3565b90815260200160405180910390206001018054905011612629576040517f08c379a000000000000000000000000000000000000000000000000000000000815260040161262090615a78565b60405180910390fd5b600b8360405161263991906153b3565b908152602001604051809103902060010180549050821061268f576040517f08c379a000000000000000000000000000000000000000000000000000000000815260040161268690615ae4565b60405180910390fd5b6001600b846040516126a191906153b3565b908152602001604051809103902060010183815481106126c4576126c3615b04565b5b906000526020600020906006020160040160008282546126e49190615b62565b9250508190555060018160030160006101000a81548160ff0219169083151502179055503373ffffffffffffffffffffffffffffffffffffffff167f477d7faf347a03679fabd88feea150c41667473fc8412962f607fb7503f1bd4382600201858560405161275593929190615c1a565b60405180910390a2505050565b60008061276d612d32565b905061277a818585612de0565b600191505092915050565b600560009054906101000a900473ffffffffffffffffffffffffffffffffffffffff1673ffffffffffffffffffffffffffffffffffffffff163373ffffffffffffffffffffffffffffffffffffffff1614612815576040517f08c379a000000000000000000000000000000000000000000000000000000000815260040161280c90614d10565b60405180910390fd5b60005b8151811015612a1957600d82828151811061283657612835615b04565b5b602002602001015160405161284b91906153b3565b908152602001604051809103902060009054906101000a900460ff16156128a7576040517f08c379a000000000000000000000000000000000000000000000000000000000815260040161289e90615cab565b60405180910390fd5b6000600b8383815181106128be576128bd615b04565b5b60200260200101516040516128d391906153b3565b908152602001604051809103902090508282815181106128f6576128f5615b04565b5b602002602001015181600001908161290e91906155e2565b5060088190806001815401808255809150506001900390600052602060002090600202016000909190919091506000820181600001908161294f9190615ce1565b506001820181600101908054612966929190613b47565b5050506001600d8484815181106129805761297f615b04565b5b602002602001015160405161299591906153b3565b908152602001604051809103902060006101000a81548160ff0219169083151502179055507ff635339f4b5986d632e76f25211c57346b4b4ca3aa13c1ba323ac125637314568383815181106129ee576129ed615b04565b5b6020026020010151604051612a039190613f70565b60405180910390a1508080600101915050612818565b5050565b674563918244f4000081565b60606006805480602002602001604051908101604052809291908181526020016000905b82821015612bc85783829060005260206000209060040201604051806080016040529081600082018054612a8090614c93565b80601f0160208091040260200160405190810160405280929190818152602001828054612aac90614c93565b8015612af95780601f10612ace57610100808354040283529160200191612af9565b820191906000526020600020905b815481529060010190602001808311612adc57829003601f168201915b5050505050815260200160018201548152602001600282018054612b1c90614c93565b80601f0160208091040260200160405190810160405280929190818152602001828054612b4890614c93565b8015612b955780601f10612b6a57610100808354040283529160200191612b95565b820191906000526020600020905b815481529060010190602001808311612b7857829003601f168201915b505050505081526020016003820160009054906101000a900460ff16151515158152505081526020019060010190612a4d565b50505050905090565b60008083604051602001612be59190615e36565b6040516020818303038152906040528051906020012090506000612c098285613296565b90503373ffffffffffffffffffffffffffffffffffffffff168173ffffffffffffffffffffffffffffffffffffffff16149250505092915050565b6000600160008473ffffffffffffffffffffffffffffffffffffffff1673ffffffffffffffffffffffffffffffffffffffff16815260200190815260200160002060008373ffffffffffffffffffffffffffffffffffffffff1673ffffffffffffffffffffffffffffffffffffffff16815260200190815260200160002054905092915050565b600080600c60008473ffffffffffffffffffffffffffffffffffffffff1673ffffffffffffffffffffffffffffffffffffffff1681526020019081526020016000206000018054612d1b90614c93565b905014159050919050565b678ac7230489e8000081565b600033905090565b612d4783838360016132c2565b505050565b6000612d588484612c44565b90507fffffffffffffffffffffffffffffffffffffffffffffffffffffffffffffffff8114612dda5781811015612dca578281836040517ffb8f41b2000000000000000000000000000000000000000000000000000000008152600401612dc193929190615e5c565b60405180910390fd5b612dd9848484840360006132c2565b5b50505050565b600073ffffffffffffffffffffffffffffffffffffffff168373ffffffffffffffffffffffffffffffffffffffff1603612e525760006040517f96c6fd1e000000000000000000000000000000000000000000000000000000008152600401612e499190614807565b60405180910390fd5b600073ffffffffffffffffffffffffffffffffffffffff168273ffffffffffffffffffffffffffffffffffffffff1603612ec45760006040517fec442f05000000000000000000000000000000000000000000000000000000008152600401612ebb9190614807565b60405180910390fd5b612ecf838383613499565b505050565b6060600083905060006002846002612eec9190615e93565b612ef69190615b62565b67ffffffffffffffff811115612f0f57612f0e61427c565b5b6040519080825280601f01601f191660200182016040528015612f415781602001600182028036833780820191505090505b5090507f300000000000000000000000000000000000000000000000000000000000000081600081518110612f7957612f78615b04565b5b60200101907effffffffffffffffffffffffffffffffffffffffffffffffffffffffffffff1916908160001a9053507f780000000000000000000000000000000000000000000000000000000000000081600181518110612fdd57612fdc615b04565b5b60200101907effffffffffffffffffffffffffffffffffffffffffffffffffffffffffffff1916908160001a9053506000600185600261301d9190615e93565b6130279190615b62565b90505b60018111156130c7577f3031323334353637383961626364656600000000000000000000000000000000600f84166010811061306957613068615b04565b5b1a60f81b8282815181106130805761307f615b04565b5b60200101907effffffffffffffffffffffffffffffffffffffffffffffffffffffffffffff1916908160001a905350600483901c9250806130c090615ed5565b905061302a565b506000821461310f5784846040517fe22e27eb000000000000000000000000000000000000000000000000000000008152600401613106929190615efe565b60405180910390fd5b809250505092915050565b606060006001613129846136be565b01905060008167ffffffffffffffff8111156131485761314761427c565b5b6040519080825280601f01601f19166020018201604052801561317a5781602001600182028036833780820191505090505b509050600082602001820190505b6001156131dd578080600190039150507f3031323334353637383961626364656600000000000000000000000000000000600a86061a8153600a85816131d1576131d0615f27565b5b04945060008503613188575b819350505050919050565b600069d3c21bcecceda10000006131fd610bce565b836132089190615b62565b1115613249576040517f08c379a000000000000000000000000000000000000000000000000000000000815260040161324090615fa2565b60405180910390fd5b6132538383613811565b7fcda531bfd68624f13205c0a23cd4d5a7f09792cbb399603114f2b04aaa1bf5cf8383604051613284929190615fc2565b60405180910390a16001905092915050565b6000806000806132a68686613893565b9250925092506132b682826138ef565b82935050505092915050565b600073ffffffffffffffffffffffffffffffffffffffff168473ffffffffffffffffffffffffffffffffffffffff16036133345760006040517fe602df0500000000000000000000000000000000000000000000000000000000815260040161332b9190614807565b60405180910390fd5b600073ffffffffffffffffffffffffffffffffffffffff168373ffffffffffffffffffffffffffffffffffffffff16036133a65760006040517f94280d6200000000000000000000000000000000000000000000000000000000815260040161339d9190614807565b60405180910390fd5b81600160008673ffffffffffffffffffffffffffffffffffffffff1673ffffffffffffffffffffffffffffffffffffffff16815260200190815260200160002060008573ffffffffffffffffffffffffffffffffffffffff1673ffffffffffffffffffffffffffffffffffffffff168152602001908152602001600020819055508015613493578273ffffffffffffffffffffffffffffffffffffffff168473ffffffffffffffffffffffffffffffffffffffff167f8c5be1e5ebec7d5bd14f71427d1e84f3dd0314c0f7b2291e5b200ac8c7c3b9258460405161348a91906140a9565b60405180910390a35b50505050565b600073ffffffffffffffffffffffffffffffffffffffff168373ffffffffffffffffffffffffffffffffffffffff16036134eb5780600260008282546134df9190615b62565b925050819055506135be565b60008060008573ffffffffffffffffffffffffffffffffffffffff1673ffffffffffffffffffffffffffffffffffffffff16815260200190815260200160002054905081811015613577578381836040517fe450d38c00000000000000000000000000000000000000000000000000000000815260040161356e93929190615e5c565b60405180910390fd5b8181036000808673ffffffffffffffffffffffffffffffffffffffff1673ffffffffffffffffffffffffffffffffffffffff16815260200190815260200160002081905550505b600073ffffffffffffffffffffffffffffffffffffffff168273ffffffffffffffffffffffffffffffffffffffff16036136075780600260008282540392505081905550613654565b806000808473ffffffffffffffffffffffffffffffffffffffff1673ffffffffffffffffffffffffffffffffffffffff168152602001908152602001600020600082825401925050819055505b8173ffffffffffffffffffffffffffffffffffffffff168373ffffffffffffffffffffffffffffffffffffffff167fddf252ad1be2c89b69c2b068fc378daa952ba7f163c4a11628f55a4df523b3ef836040516136b191906140a9565b60405180910390a3505050565b600080600090507a184f03e93ff9f4daa797ed6e38ed64bf6a1f010000000000000000831061371c577a184f03e93ff9f4daa797ed6e38ed64bf6a1f010000000000000000838161371257613711615f27565b5b0492506040810190505b6d04ee2d6d415b85acef81000000008310613759576d04ee2d6d415b85acef8100000000838161374f5761374e615f27565b5b0492506020810190505b662386f26fc10000831061378857662386f26fc10000838161377e5761377d615f27565b5b0492506010810190505b6305f5e10083106137b1576305f5e10083816137a7576137a6615f27565b5b0492506008810190505b61271083106137d65761271083816137cc576137cb615f27565b5b0492506004810190505b606483106137f957606483816137ef576137ee615f27565b5b0492506002810190505b600a8310613808576001810190505b80915050919050565b600073ffffffffffffffffffffffffffffffffffffffff168273ffffffffffffffffffffffffffffffffffffffff16036138835760006040517fec442f0500000000000000000000000000000000000000000000000000000000815260040161387a9190614807565b60405180910390fd5b61388f60008383613499565b5050565b600080600060418451036138d85760008060006020870151925060408701519150606087015160001a90506138ca88828585613a53565b9550955095505050506138e8565b60006002855160001b9250925092505b9250925092565b6000600381111561390357613902615feb565b5b82600381111561391657613915615feb565b5b0315613a4f57600160038111156139305761392f615feb565b5b82600381111561394357613942615feb565b5b0361397a576040517ff645eedf00000000000000000000000000000000000000000000000000000000815260040160405180910390fd5b6002600381111561398e5761398d615feb565b5b8260038111156139a1576139a0615feb565b5b036139e6578060001c6040517ffce698f70000000000000000000000000000000000000000000000000000000081526004016139dd91906140a9565b60405180910390fd5b6003808111156139f9576139f8615feb565b5b826003811115613a0c57613a0b615feb565b5b03613a4e57806040517fd78bce0c000000000000000000000000000000000000000000000000000000008152600401613a45919061463d565b60405180910390fd5b5b5050565b60008060007f7fffffffffffffffffffffffffffffff5d576e7357a4501ddfe92f46681b20a08460001c1115613a93576000600385925092509250613b3d565b600060018888888860405160008152602001604052604051613ab8949392919061601a565b6020604051602081039080840390855afa158015613ada573d6000803e3d6000fd5b505050602060405103519050600073ffffffffffffffffffffffffffffffffffffffff168173ffffffffffffffffffffffffffffffffffffffff1603613b2e57600060016000801b93509350935050613b3d565b8060008060001b935093509350505b9450945094915050565b828054828255906000526020600020906006028101928215613c0e5760005260206000209160060282015b82811115613c0d57828260008201816000019081613b909190615ce1565b506001820154816001015560028201816002019081613baf9190615ce1565b5060038201816003019081613bc49190615ce1565b50600482015481600401556005820160009054906101000a900460ff168160050160006101000a81548160ff021916908315150217905550505091600601919060060190613b72565b5b509050613c1b9190613c1f565b5090565b5b80821115613c865760008082016000613c399190613c8a565b6001820160009055600282016000613c519190613c8a565b600382016000613c619190613c8a565b60048201600090556005820160006101000a81549060ff021916905550600601613c20565b5090565b508054613c9690614c93565b6000825580601f10613ca85750613cc7565b601f016020900490600052602060002090810190613cc69190613cca565b5b50565b5b80821115613ce3576000816000905550600101613ccb565b5090565b600081519050919050565b600082825260208201905092915050565b6000819050602082019050919050565b600081519050919050565b600082825260208201905092915050565b60005b83811015613d4d578082015181840152602081019050613d32565b60008484015250505050565b6000601f19601f8301169050919050565b6000613d7582613d13565b613d7f8185613d1e565b9350613d8f818560208601613d2f565b613d9881613d59565b840191505092915050565b6000819050919050565b613db681613da3565b82525050565b60008115159050919050565b613dd181613dbc565b82525050565b600060c0830160008301518482036000860152613df48282613d6a565b9150506020830151613e096020860182613dad565b5060408301518482036040860152613e218282613d6a565b91505060608301518482036060860152613e3b8282613d6a565b9150506080830151613e506080860182613dad565b5060a0830151613e6360a0860182613dc8565b508091505092915050565b6000613e7a8383613dd7565b905092915050565b6000602082019050919050565b6000613e9a82613ce7565b613ea48185613cf2565b935083602082028501613eb685613d03565b8060005b85811015613ef25784840389528151613ed38582613e6e565b9450613ede83613e82565b925060208a01995050600181019050613eba565b50829750879550505050505092915050565b60006020820190508181036000830152613f1e8184613e8f565b905092915050565b600082825260208201905092915050565b6000613f4282613d13565b613f4c8185613f26565b9350613f5c818560208601613d2f565b613f6581613d59565b840191505092915050565b60006020820190508181036000830152613f8a8184613f37565b905092915050565b6000604051905090565b600080fd5b600080fd5b600073ffffffffffffffffffffffffffffffffffffffff82169050919050565b6000613fd182613fa6565b9050919050565b613fe181613fc6565b8114613fec57600080fd5b50565b600081359050613ffe81613fd8565b92915050565b61400d81613da3565b811461401857600080fd5b50565b60008135905061402a81614004565b92915050565b6000806040838503121561404757614046613f9c565b5b600061405585828601613fef565b92505060206140668582860161401b565b9150509250929050565b61407981613dbc565b82525050565b60006020820190506140946000830184614070565b92915050565b6140a381613da3565b82525050565b60006020820190506140be600083018461409a565b92915050565b600081519050919050565b600082825260208201905092915050565b6000819050602082019050919050565b600082825260208201905092915050565b600061410c82613ce7565b61411681856140f0565b93508360208202850161412885613d03565b8060005b8581101561416457848403895281516141458582613e6e565b945061415083613e82565b925060208a0199505060018101905061412c565b50829750879550505050505092915050565b600060408301600083015184820360008601526141938282613d6a565b915050602083015184820360208601526141ad8282614101565b9150508091505092915050565b60006141c68383614176565b905092915050565b6000602082019050919050565b60006141e6826140c4565b6141f081856140cf565b935083602082028501614202856140e0565b8060005b8581101561423e578484038952815161421f85826141ba565b945061422a836141ce565b925060208a01995050600181019050614206565b50829750879550505050505092915050565b6000602082019050818103600083015261426a81846141db565b905092915050565b600080fd5b600080fd5b7f4e487b7100000000000000000000000000000000000000000000000000000000600052604160045260246000fd5b6142b482613d59565b810181811067ffffffffffffffff821117156142d3576142d261427c565b5b80604052505050565b60006142e6613f92565b90506142f282826142ab565b919050565b600067ffffffffffffffff8211156143125761431161427c565b5b61431b82613d59565b9050602081019050919050565b82818337600083830152505050565b600061434a614345846142f7565b6142dc565b90508281526020810184848401111561436657614365614277565b5b614371848285614328565b509392505050565b600082601f83011261438e5761438d614272565b5b813561439e848260208601614337565b91505092915050565b6000602082840312156143bd576143bc613f9c565b5b600082013567ffffffffffffffff8111156143db576143da613fa1565b5b6143e784828501614379565b91505092915050565b600060c082019050818103600083015261440a8189613f37565b9050614419602083018861409a565b818103604083015261442b8187613f37565b9050818103606083015261443f8186613f37565b905061444e608083018561409a565b61445b60a0830184614070565b979650505050505050565b60008060006060848603121561447f5761447e613f9c565b5b600061448d86828701613fef565b935050602061449e86828701613fef565b92505060406144af8682870161401b565b9150509250925092565b600060ff82169050919050565b6144cf816144b9565b82525050565b60006020820190506144ea60008301846144c6565b92915050565b6000608082019050818103600083015261450a8187613f37565b9050614519602083018661409a565b818103604083015261452b8185613f37565b905061453a6060830184614070565b95945050505050565b60008060008060008060c087890312156145605761455f613f9c565b5b600061456e89828a01613fef565b965050602087013567ffffffffffffffff81111561458f5761458e613fa1565b5b61459b89828a01614379565b955050604087013567ffffffffffffffff8111156145bc576145bb613fa1565b5b6145c889828a01614379565b945050606087013567ffffffffffffffff8111156145e9576145e8613fa1565b5b6145f589828a01614379565b935050608061460689828a0161401b565b92505060a061461789828a0161401b565b9150509295509295509295565b6000819050919050565b61463781614624565b82525050565b6000602082019050614652600083018461462e565b92915050565b60008060006060848603121561467157614670613f9c565b5b600084013567ffffffffffffffff81111561468f5761468e613fa1565b5b61469b86828701614379565b93505060206146ac8682870161401b565b925050604084013567ffffffffffffffff8111156146cd576146cc613fa1565b5b6146d986828701614379565b9150509250925092565b6000602082840312156146f9576146f8613f9c565b5b600061470784828501613fef565b91505092915050565b6000806000806080858703121561472a57614729613f9c565b5b600085013567ffffffffffffffff81111561474857614747613fa1565b5b61475487828801614379565b94505060206147658782880161401b565b935050604085013567ffffffffffffffff81111561478657614785613fa1565b5b61479287828801614379565b925050606085013567ffffffffffffffff8111156147b3576147b2613fa1565b5b6147bf87828801614379565b91505092959194509250565b6000602082840312156147e1576147e0613f9c565b5b60006147ef8482850161401b565b91505092915050565b61480181613fc6565b82525050565b600060208201905061481c60008301846147f8565b92915050565b6000806040838503121561483957614838613f9c565b5b600083013567ffffffffffffffff81111561485757614856613fa1565b5b61486385828601614379565b92505060206148748582860161401b565b9150509250929050565b600067ffffffffffffffff8211156148995761489861427c565b5b602082029050602081019050919050565b600080fd5b60006148c26148bd8461487e565b6142dc565b905080838252602082019050602084028301858111156148e5576148e46148aa565b5b835b8181101561492c57803567ffffffffffffffff81111561490a57614909614272565b5b8086016149178982614379565b855260208501945050506020810190506148e7565b5050509392505050565b600082601f83011261494b5761494a614272565b5b813561495b8482602086016148af565b91505092915050565b60006020828403121561497a57614979613f9c565b5b600082013567ffffffffffffffff81111561499857614997613fa1565b5b6149a484828501614936565b91505092915050565b600081519050919050565b600082825260208201905092915050565b6000819050602082019050919050565b600060808301600083015184820360008601526149f68282613d6a565b9150506020830151614a0b6020860182613dad565b5060408301518482036040860152614a238282613d6a565b9150506060830151614a386060860182613dc8565b508091505092915050565b6000614a4f83836149d9565b905092915050565b6000602082019050919050565b6000614a6f826149ad565b614a7981856149b8565b935083602082028501614a8b856149c9565b8060005b85811015614ac75784840389528151614aa88582614a43565b9450614ab383614a57565b925060208a01995050600181019050614a8f565b50829750879550505050505092915050565b60006020820190508181036000830152614af38184614a64565b905092915050565b614b0481614624565b8114614b0f57600080fd5b50565b600081359050614b2181614afb565b92915050565b600067ffffffffffffffff821115614b4257614b4161427c565b5b614b4b82613d59565b9050602081019050919050565b6000614b6b614b6684614b27565b6142dc565b905082815260208101848484011115614b8757614b86614277565b5b614b92848285614328565b509392505050565b600082601f830112614baf57614bae614272565b5b8135614bbf848260208601614b58565b91505092915050565b60008060408385031215614bdf57614bde613f9c565b5b6000614bed85828601614b12565b925050602083013567ffffffffffffffff811115614c0e57614c0d613fa1565b5b614c1a85828601614b9a565b9150509250929050565b60008060408385031215614c3b57614c3a613f9c565b5b6000614c4985828601613fef565b9250506020614c5a85828601613fef565b9150509250929050565b7f4e487b7100000000000000000000000000000000000000000000000000000000600052602260045260246000fd5b60006002820490506001821680614cab57607f821691505b602082108103614cbe57614cbd614c64565b5b50919050565b7f596f7520617265206e6f7420746865206f776e65722100000000000000000000600082015250565b6000614cfa601683613f26565b9150614d0582614cc4565b602082019050919050565b60006020820190508181036000830152614d2981614ced565b9050919050565b7f526567697374726174696f6e2068617320616c7265616479207374617274656460008201527f2e00000000000000000000000000000000000000000000000000000000000000602082015250565b6000614d8c602183613f26565b9150614d9782614d30565b604082019050919050565b60006020820190508181036000830152614dbb81614d7f565b9050919050565b7f43616e6e6f7420737461727420726567697374726174696f6e2061667465722060008201527f766f74696e672068617320626567756e2e000000000000000000000000000000602082015250565b6000614e1e603183613f26565b9150614e2982614dc2565b604082019050919050565b60006020820190508181036000830152614e4d81614e11565b9050919050565b7f526567697374726174696f6e20706572696f6420686173206e6f74207374617260008201527f7465642e00000000000000000000000000000000000000000000000000000000602082015250565b6000614eb0602483613f26565b9150614ebb82614e54565b604082019050919050565b60006020820190508181036000830152614edf81614ea3565b9050919050565b7f566f74696e672068617320616c726561647920737461727465642e0000000000600082015250565b6000614f1c601b83613f26565b9150614f2782614ee6565b602082019050919050565b60006020820190508181036000830152614f4b81614f0f565b9050919050565b600081905092915050565b7f19457468657265756d205369676e6564204d6573736167653a0a000000000000600082015250565b6000614f93601a83614f52565b9150614f9e82614f5d565b601a82019050919050565b7f446f6d61696e3a20000000000000000000000000000000000000000000000000600082015250565b6000614fdf600883614f52565b9150614fea82614fa9565b600882019050919050565b600061500082613d13565b61500a8185614f52565b935061501a818560208601613d2f565b80840191505092915050565b7f0a00000000000000000000000000000000000000000000000000000000000000600082015250565b600061505c600183614f52565b915061506782615026565b600182019050919050565b7f416464726573733a200000000000000000000000000000000000000000000000600082015250565b60006150a8600983614f52565b91506150b382615072565b600982019050919050565b7f53746174656d656e743a20000000000000000000000000000000000000000000600082015250565b60006150f4600b83614f52565b91506150ff826150be565b600b82019050919050565b7f5552493a20000000000000000000000000000000000000000000000000000000600082015250565b6000615140600583614f52565b915061514b8261510a565b600582019050919050565b7f56657273696f6e3a20310a000000000000000000000000000000000000000000600082015250565b600061518c600b83614f52565b915061519782615156565b600b82019050919050565b7f436861696e2049443a2000000000000000000000000000000000000000000000600082015250565b60006151d8600a83614f52565b91506151e3826151a2565b600a82019050919050565b7f4e6f6e63653a2000000000000000000000000000000000000000000000000000600082015250565b6000615224600783614f52565b915061522f826151ee565b600782019050919050565b600061524582614f86565b915061525082614fd2565b915061525c8289614ff5565b91506152678261504f565b91506152728261509b565b915061527e8288614ff5565b91506152898261504f565b9150615294826150e7565b91506152a08287614ff5565b91506152ab8261504f565b91506152b682615133565b91506152c28286614ff5565b91506152cd8261504f565b91506152d88261517f565b91506152e3826151cb565b91506152ef8285614ff5565b91506152fa8261504f565b915061530582615217565b91506153118284614ff5565b9150819050979650505050505050565b7f43616e6e6f7420726567697374657220647572696e6720766f74696e6720706560008201527f72696f642e000000000000000000000000000000000000000000000000000000602082015250565b600061537d602583613f26565b915061538882615321565b604082019050919050565b600060208201905081810360008301526153ac81615370565b9050919050565b60006153bf8284614ff5565b915081905092915050565b7f566f74657220616c726561647920657869737473210000000000000000000000600082015250565b6000615400601583613f26565b915061540b826153ca565b602082019050919050565b6000602082019050818103600083015261542f816153f3565b9050919050565b60008190508160005260206000209050919050565b60006020601f8301049050919050565b600082821b905092915050565b6000600883026154987fffffffffffffffffffffffffffffffffffffffffffffffffffffffffffffffff8261545b565b6154a2868361545b565b95508019841693508086168417925050509392505050565b6000819050919050565b60006154df6154da6154d584613da3565b6154ba565b613da3565b9050919050565b6000819050919050565b6154f9836154c4565b61550d615505826154e6565b848454615468565b825550505050565b600090565b615522615515565b61552d8184846154f0565b505050565b5b818110156155515761554660008261551a565b600181019050615533565b5050565b601f8211156155965761556781615436565b6155708461544b565b8101602085101561557f578190505b61559361558b8561544b565b830182615532565b50505b505050565b600082821c905092915050565b60006155b96000198460080261559b565b1980831691505092915050565b60006155d283836155a8565b9150826002028217905092915050565b6155eb82613d13565b67ffffffffffffffff8111156156045761560361427c565b5b61560e8254614c93565b615619828285615555565b600060209050601f83116001811461564c576000841561563a578287015190505b61564485826155c6565b8655506156ac565b601f19841661565a86615436565b60005b828110156156825784890151825560018201915060208501945060208101905061565d565b8683101561569f578489015161569b601f8916826155a8565b8355505b6001600288020188555050505b505050505050565b7f43616e64696461746520616c7265616479206578697374732100000000000000600082015250565b60006156ea601983613f26565b91506156f5826156b4565b602082019050919050565b60006020820190508181036000830152615719816156dd565b9050919050565b7f596f75206d7573742062652061207265676973746572656420766f7465722100600082015250565b6000615756601f83613f26565b915061576182615720565b602082019050919050565b6000602082019050818103600083015261578581615749565b9050919050565b60006040820190506157a1600083018561409a565b81810360208301526157b38184613f37565b90509392505050565b7f43616e64696461746520616c7265616479207665726966696564210000000000600082015250565b60006157f2601b83613f26565b91506157fd826157bc565b602082019050919050565b60006020820190508181036000830152615821816157e5565b9050919050565b6000815461583581614c93565b61583f8186614f52565b9450600182166000811461585a576001811461586f576158a2565b60ff19831686528115158202860193506158a2565b61587885615436565b60005b8381101561589a5781548189015260018201915060208101905061587b565b838801955050505b50505092915050565b60006158b78284615828565b915081905092915050565b7f526567697374726174696f6e20706572696f64206973207374696c6c2061637460008201527f6976652e00000000000000000000000000000000000000000000000000000000602082015250565b600061591e602483613f26565b9150615929826158c2565b604082019050919050565b6000602082019050818103600083015261594d81615911565b9050919050565b7f566f74696e6720686173206e6f742073746172746564207965742e0000000000600082015250565b600061598a601b83613f26565b915061599582615954565b602082019050919050565b600060208201905081810360008301526159b98161597d565b9050919050565b7f596f75206861766520616c726561647920766f7465642e000000000000000000600082015250565b60006159f6601783613f26565b9150615a01826159c0565b602082019050919050565b60006020820190508181036000830152615a25816159e9565b9050919050565b7f496e76616c696420706f736974696f6e2e000000000000000000000000000000600082015250565b6000615a62601183613f26565b9150615a6d82615a2c565b602082019050919050565b60006020820190508181036000830152615a9181615a55565b9050919050565b7f496e76616c69642063616e64696461746520696e6465782e0000000000000000600082015250565b6000615ace601883613f26565b9150615ad982615a98565b602082019050919050565b60006020820190508181036000830152615afd81615ac1565b9050919050565b7f4e487b7100000000000000000000000000000000000000000000000000000000600052603260045260246000fd5b7f4e487b7100000000000000000000000000000000000000000000000000000000600052601160045260246000fd5b6000615b6d82613da3565b9150615b7883613da3565b9250828201905080821115615b9057615b8f615b33565b5b92915050565b60008154615ba381614c93565b615bad8186613f26565b94506001821660008114615bc85760018114615bde57615c11565b60ff198316865281151560200286019350615c11565b615be785615436565b60005b83811015615c0957815481890152600182019150602081019050615bea565b808801955050505b50505092915050565b60006060820190508181036000830152615c348186615b96565b90508181036020830152615c488185613f37565b9050615c57604083018461409a565b949350505050565b7f506f736974696f6e20616c726561647920657869737473210000000000000000600082015250565b6000615c95601883613f26565b9150615ca082615c5f565b602082019050919050565b60006020820190508181036000830152615cc481615c88565b9050919050565b600081549050615cda81614c93565b9050919050565b818103615cef575050615dc7565b615cf882615ccb565b67ffffffffffffffff811115615d1157615d1061427c565b5b615d1b8254614c93565b615d26828285615555565b6000601f831160018114615d555760008415615d43578287015490505b615d4d85826155c6565b865550615dc0565b601f198416615d6387615436565b9650615d6e86615436565b60005b82811015615d9657848901548255600182019150600185019450602081019050615d71565b86831015615db35784890154615daf601f8916826155a8565b8355505b6001600288020188555050505b5050505050505b565b7f19457468657265756d205369676e6564204d6573736167653a0a333200000000600082015250565b6000615dff601c83614f52565b9150615e0a82615dc9565b601c82019050919050565b6000819050919050565b615e30615e2b82614624565b615e15565b82525050565b6000615e4182615df2565b9150615e4d8284615e1f565b60208201915081905092915050565b6000606082019050615e7160008301866147f8565b615e7e602083018561409a565b615e8b604083018461409a565b949350505050565b6000615e9e82613da3565b9150615ea983613da3565b9250828202615eb781613da3565b91508282048414831517615ece57615ecd615b33565b5b5092915050565b6000615ee082613da3565b915060008203615ef357615ef2615b33565b5b600182039050919050565b6000604082019050615f13600083018561409a565b615f20602083018461409a565b9392505050565b7f4e487b7100000000000000000000000000000000000000000000000000000000600052601260045260246000fd5b7f546f6b656e206c696d6974206578636565646564210000000000000000000000600082015250565b6000615f8c601583613f26565b9150615f9782615f56565b602082019050919050565b60006020820190508181036000830152615fbb81615f7f565b9050919050565b6000604082019050615fd760008301856147f8565b615fe4602083018461409a565b9392505050565b7f4e487b7100000000000000000000000000000000000000000000000000000000600052602160045260246000fd5b600060808201905061602f600083018761462e565b61603c60208301866144c6565b616049604083018561462e565b616056606083018461462e565b9594505050505056fea2646970667358221220e8a8db6bca7ef757dc61d5c48cf2579a0d0d79bb9148c894c2aa73d6dc3a5c2664736f6c634300081b0033",
  "linkReferences": {},
  "deployedLinkReferences": {}
}