{
  "_format": "hh-sol-artifact-1",
  "contractName": "Voting",
  "sourceName": "contracts/Voting.sol",
  "abi": [
    {
      "inputs": [],
      "stateMutability": "nonpayable",
      "type": "constructor"
    },
    {
      "inputs": [],
      "name": "ECDSAInvalidSignature",
      "type": "error"
    },
    {
      "inputs": [
        {
          "internalType": "uint256",
          "name": "length",
          "type": "uint256"
        }
      ],
      "name": "ECDSAInvalidSignatureLength",
      "type": "error"
    },
    {
      "inputs": [
        {
          "internalType": "bytes32",
          "name": "s",
          "type": "bytes32"
        }
      ],
      "name": "ECDSAInvalidSignatureS",
      "type": "error"
    },
    {
      "inputs": [
        {
          "internalType": "address",
          "name": "spender",
          "type": "address"
        },
        {
          "internalType": "uint256",
          "name": "allowance",
          "type": "uint256"
        },
        {
          "internalType": "uint256",
          "name": "needed",
          "type": "uint256"
        }
      ],
      "name": "ERC20InsufficientAllowance",
      "type": "error"
    },
    {
      "inputs": [
        {
          "internalType": "address",
          "name": "sender",
          "type": "address"
        },
        {
          "internalType": "uint256",
          "name": "balance",
          "type": "uint256"
        },
        {
          "internalType": "uint256",
          "name": "needed",
          "type": "uint256"
        }
      ],
      "name": "ERC20InsufficientBalance",
      "type": "error"
    },
    {
      "inputs": [
        {
          "internalType": "address",
          "name": "approver",
          "type": "address"
        }
      ],
      "name": "ERC20InvalidApprover",
      "type": "error"
    },
    {
      "inputs": [
        {
          "internalType": "address",
          "name": "receiver",
          "type": "address"
        }
      ],
      "name": "ERC20InvalidReceiver",
      "type": "error"
    },
    {
      "inputs": [
        {
          "internalType": "address",
          "name": "sender",
          "type": "address"
        }
      ],
      "name": "ERC20InvalidSender",
      "type": "error"
    },
    {
      "inputs": [
        {
          "internalType": "address",
          "name": "spender",
          "type": "address"
        }
      ],
      "name": "ERC20InvalidSpender",
      "type": "error"
    },
    {
      "inputs": [
        {
          "internalType": "uint256",
          "name": "value",
          "type": "uint256"
        },
        {
          "internalType": "uint256",
          "name": "length",
          "type": "uint256"
        }
      ],
      "name": "StringsInsufficientHexLength",
      "type": "error"
    },
    {
      "anonymous": false,
      "inputs": [
        {
          "indexed": true,
          "internalType": "address",
          "name": "owner",
          "type": "address"
        },
        {
          "indexed": true,
          "internalType": "address",
          "name": "spender",
          "type": "address"
        },
        {
          "indexed": false,
          "internalType": "uint256",
          "name": "value",
          "type": "uint256"
        }
      ],
      "name": "Approval",
      "type": "event"
    },
    {
      "anonymous": false,
      "inputs": [
        {
          "indexed": true,
          "internalType": "string",
          "name": "_names",
          "type": "string"
        },
        {
          "indexed": false,
          "internalType": "uint256",
          "name": "_age",
          "type": "uint256"
        },
        {
          "indexed": true,
          "internalType": "string",
          "name": "_idNumber",
          "type": "string"
        },
        {
          "indexed": false,
          "internalType": "string",
          "name": "_party",
          "type": "string"
        },
        {
          "indexed": false,
          "internalType": "string",
          "name": "_position",
          "type": "string"
        }
      ],
      "name": "CandidateRegistrationSuccess",
      "type": "event"
    },
    {
      "anonymous": false,
      "inputs": [
        {
          "indexed": false,
          "internalType": "address",
          "name": "_to",
          "type": "address"
        },
        {
          "indexed": false,
          "internalType": "uint256",
          "name": "_amount",
          "type": "uint256"
        }
      ],
      "name": "MintSuccess",
      "type": "event"
    },
    {
      "anonymous": false,
      "inputs": [
        {
          "indexed": false,
          "internalType": "string",
          "name": "positionName",
          "type": "string"
        }
      ],
      "name": "PositionAdded",
      "type": "event"
    },
    {
      "anonymous": false,
      "inputs": [],
      "name": "RegistrationEnded",
      "type": "event"
    },
    {
      "anonymous": false,
      "inputs": [],
      "name": "RegistrationStarted",
      "type": "event"
    },
    {
      "anonymous": false,
      "inputs": [
        {
          "indexed": true,
          "internalType": "string",
          "name": "_idNumber",
          "type": "string"
        }
      ],
      "name": "RejectCandidateSuccess",
      "type": "event"
    },
    {
      "anonymous": false,
      "inputs": [
        {
          "indexed": true,
          "internalType": "address",
          "name": "from",
          "type": "address"
        },
        {
          "indexed": true,
          "internalType": "address",
          "name": "to",
          "type": "address"
        },
        {
          "indexed": false,
          "internalType": "uint256",
          "name": "value",
          "type": "uint256"
        }
      ],
      "name": "Transfer",
      "type": "event"
    },
    {
      "anonymous": false,
      "inputs": [
        {
          "indexed": true,
          "internalType": "string",
          "name": "_names",
          "type": "string"
        },
        {
          "indexed": true,
          "internalType": "string",
          "name": "_idNumber",
          "type": "string"
        }
      ],
      "name": "VerifyCandidateSuccess",
      "type": "event"
    },
    {
      "anonymous": false,
      "inputs": [
        {
          "indexed": true,
          "internalType": "address",
          "name": "voter",
          "type": "address"
        },
        {
          "indexed": false,
          "internalType": "string",
          "name": "_idNumber",
          "type": "string"
        },
        {
          "indexed": false,
          "internalType": "string",
          "name": "position",
          "type": "string"
        },
        {
          "indexed": false,
          "internalType": "uint256",
          "name": "candidateIndex",
          "type": "uint256"
        }
      ],
      "name": "VotedSuccess",
      "type": "event"
    },
    {
      "anonymous": false,
      "inputs": [
        {
          "indexed": true,
          "internalType": "string",
          "name": "_names",
          "type": "string"
        },
        {
          "indexed": false,
          "internalType": "uint256",
          "name": "_age",
          "type": "uint256"
        },
        {
          "indexed": true,
          "internalType": "string",
          "name": "_idNumber",
          "type": "string"
        }
      ],
      "name": "VoterRegistrationSuccess",
      "type": "event"
    },
    {
      "anonymous": false,
      "inputs": [],
      "name": "VotingStarted",
      "type": "event"
    },
    {
      "inputs": [],
      "name": "MAX_SUPPLY",
      "outputs": [
        {
          "internalType": "uint256",
          "name": "",
          "type": "uint256"
        }
      ],
      "stateMutability": "view",
      "type": "function"
    },
    {
      "inputs": [],
      "name": "REGISTER_AS_VOTER",
      "outputs": [
        {
          "internalType": "uint256",
          "name": "",
          "type": "uint256"
        }
      ],
      "stateMutability": "view",
      "type": "function"
    },
    {
      "inputs": [],
      "name": "VERIFY_CANDIDATE",
      "outputs": [
        {
          "internalType": "uint256",
          "name": "",
          "type": "uint256"
        }
      ],
      "stateMutability": "view",
      "type": "function"
    },
    {
      "inputs": [
        {
          "internalType": "string[]",
          "name": "_pNames",
          "type": "string[]"
        }
      ],
      "name": "addPositions",
      "outputs": [],
      "stateMutability": "nonpayable",
      "type": "function"
    },
    {
      "inputs": [
        {
          "internalType": "address",
          "name": "owner",
          "type": "address"
        },
        {
          "internalType": "address",
          "name": "spender",
          "type": "address"
        }
      ],
      "name": "allowance",
      "outputs": [
        {
          "internalType": "uint256",
          "name": "",
          "type": "uint256"
        }
      ],
      "stateMutability": "view",
      "type": "function"
    },
    {
      "inputs": [
        {
          "internalType": "address",
          "name": "spender",
          "type": "address"
        },
        {
          "internalType": "uint256",
          "name": "value",
          "type": "uint256"
        }
      ],
      "name": "approve",
      "outputs": [
        {
          "internalType": "bool",
          "name": "",
          "type": "bool"
        }
      ],
      "stateMutability": "nonpayable",
      "type": "function"
    },
    {
      "inputs": [
        {
          "internalType": "address",
          "name": "account",
          "type": "address"
        }
      ],
      "name": "balanceOf",
      "outputs": [
        {
          "internalType": "uint256",
          "name": "",
          "type": "uint256"
        }
      ],
      "stateMutability": "view",
      "type": "function"
    },
    {
      "inputs": [
        {
          "internalType": "string",
          "name": "",
          "type": "string"
        }
      ],
      "name": "candidateObject",
      "outputs": [
        {
          "internalType": "string",
          "name": "names",
          "type": "string"
        },
        {
          "internalType": "uint256",
          "name": "age",
          "type": "uint256"
        },
        {
          "internalType": "string",
          "name": "idNumber",
          "type": "string"
        },
        {
          "internalType": "string",
          "name": "party",
          "type": "string"
        },
        {
          "internalType": "uint256",
          "name": "votes",
          "type": "uint256"
        },
        {
          "internalType": "bool",
          "name": "verified",
          "type": "bool"
        },
        {
          "internalType": "string",
          "name": "position",
          "type": "string"
        }
      ],
      "stateMutability": "view",
      "type": "function"
    },
    {
      "inputs": [
        {
          "internalType": "address",
          "name": "userAddress",
          "type": "address"
        },
        {
          "internalType": "string",
          "name": "domain",
          "type": "string"
        },
        {
          "internalType": "string",
          "name": "statement",
          "type": "string"
        },
        {
          "internalType": "string",
          "name": "uri",
          "type": "string"
        },
        {
          "internalType": "uint256",
          "name": "chainId",
          "type": "uint256"
        },
        {
          "internalType": "uint256",
          "name": "nonce",
          "type": "uint256"
        }
      ],
      "name": "createMessageHash",
      "outputs": [
        {
          "internalType": "bytes32",
          "name": "",
          "type": "bytes32"
        }
      ],
      "stateMutability": "pure",
      "type": "function"
    },
    {
      "inputs": [],
      "name": "decimals",
      "outputs": [
        {
          "internalType": "uint8",
          "name": "",
          "type": "uint8"
        }
      ],
      "stateMutability": "view",
      "type": "function"
    },
    {
      "inputs": [],
      "name": "endRegistrationAndStartVoting",
      "outputs": [],
      "stateMutability": "nonpayable",
      "type": "function"
    },
    {
      "inputs": [],
      "name": "getAllPositions",
      "outputs": [
        {
          "components": [
            {
              "internalType": "string",
              "name": "pName",
              "type": "string"
            },
            {
              "components": [
                {
                  "internalType": "string",
                  "name": "names",
                  "type": "string"
                },
                {
                  "internalType": "uint256",
                  "name": "age",
                  "type": "uint256"
                },
                {
                  "internalType": "string",
                  "name": "idNumber",
                  "type": "string"
                },
                {
                  "internalType": "string",
                  "name": "party",
                  "type": "string"
                },
                {
                  "internalType": "uint256",
                  "name": "votes",
                  "type": "uint256"
                },
                {
                  "internalType": "bool",
                  "name": "verified",
                  "type": "bool"
                },
                {
                  "internalType": "string",
                  "name": "position",
                  "type": "string"
                }
              ],
              "internalType": "struct Voting.Candidate[]",
              "name": "candidates",
              "type": "tuple[]"
            }
          ],
          "internalType": "struct Voting.Position[]",
          "name": "",
          "type": "tuple[]"
        }
      ],
      "stateMutability": "view",
      "type": "function"
    },
    {
      "inputs": [],
      "name": "getCandidates",
      "outputs": [
        {
          "components": [
            {
              "internalType": "string",
              "name": "names",
              "type": "string"
            },
            {
              "internalType": "uint256",
              "name": "age",
              "type": "uint256"
            },
            {
              "internalType": "string",
              "name": "idNumber",
              "type": "string"
            },
            {
              "internalType": "string",
              "name": "party",
              "type": "string"
            },
            {
              "internalType": "uint256",
              "name": "votes",
              "type": "uint256"
            },
            {
              "internalType": "bool",
              "name": "verified",
              "type": "bool"
            },
            {
              "internalType": "string",
              "name": "position",
              "type": "string"
            }
          ],
          "internalType": "struct Voting.Candidate[]",
          "name": "",
          "type": "tuple[]"
        }
      ],
      "stateMutability": "view",
      "type": "function"
    },
    {
      "inputs": [],
      "name": "getPositionCount",
      "outputs": [
        {
          "internalType": "uint256",
          "name": "",
          "type": "uint256"
        }
      ],
      "stateMutability": "view",
      "type": "function"
    },
    {
      "inputs": [],
      "name": "getVoters",
      "outputs": [
        {
          "components": [
            {
              "internalType": "string",
              "name": "names",
              "type": "string"
            },
            {
              "internalType": "uint256",
              "name": "age",
              "type": "uint256"
            },
            {
              "internalType": "string",
              "name": "idNumber",
              "type": "string"
            },
            {
              "internalType": "bool",
              "name": "voted",
              "type": "bool"
            }
          ],
          "internalType": "struct Voting.Voter[]",
          "name": "",
          "type": "tuple[]"
        }
      ],
      "stateMutability": "view",
      "type": "function"
    },
    {
      "inputs": [
        {
          "internalType": "address",
          "name": "_account",
          "type": "address"
        }
      ],
      "name": "isVoterRegistered",
      "outputs": [
        {
          "internalType": "bool",
          "name": "",
          "type": "bool"
        }
      ],
      "stateMutability": "view",
      "type": "function"
    },
    {
      "inputs": [
        {
          "internalType": "uint256",
          "name": "",
          "type": "uint256"
        }
      ],
      "name": "listOfCandidates",
      "outputs": [
        {
          "internalType": "string",
          "name": "names",
          "type": "string"
        },
        {
          "internalType": "uint256",
          "name": "age",
          "type": "uint256"
        },
        {
          "internalType": "string",
          "name": "idNumber",
          "type": "string"
        },
        {
          "internalType": "string",
          "name": "party",
          "type": "string"
        },
        {
          "internalType": "uint256",
          "name": "votes",
          "type": "uint256"
        },
        {
          "internalType": "bool",
          "name": "verified",
          "type": "bool"
        },
        {
          "internalType": "string",
          "name": "position",
          "type": "string"
        }
      ],
      "stateMutability": "view",
      "type": "function"
    },
    {
      "inputs": [
        {
          "internalType": "uint256",
          "name": "",
          "type": "uint256"
        }
      ],
      "name": "listOfPositions",
      "outputs": [
        {
          "internalType": "string",
          "name": "pName",
          "type": "string"
        }
      ],
      "stateMutability": "view",
      "type": "function"
    },
    {
      "inputs": [
        {
          "internalType": "uint256",
          "name": "",
          "type": "uint256"
        }
      ],
      "name": "listOfVoters",
      "outputs": [
        {
          "internalType": "string",
          "name": "names",
          "type": "string"
        },
        {
          "internalType": "uint256",
          "name": "age",
          "type": "uint256"
        },
        {
          "internalType": "string",
          "name": "idNumber",
          "type": "string"
        },
        {
          "internalType": "bool",
          "name": "voted",
          "type": "bool"
        }
      ],
      "stateMutability": "view",
      "type": "function"
    },
    {
      "inputs": [],
      "name": "name",
      "outputs": [
        {
          "internalType": "string",
          "name": "",
          "type": "string"
        }
      ],
      "stateMutability": "view",
      "type": "function"
    },
    {
      "inputs": [],
      "name": "owner",
      "outputs": [
        {
          "internalType": "address",
          "name": "",
          "type": "address"
        }
      ],
      "stateMutability": "view",
      "type": "function"
    },
    {
      "inputs": [
        {
          "internalType": "string",
          "name": "",
          "type": "string"
        }
      ],
      "name": "positions",
      "outputs": [
        {
          "internalType": "string",
          "name": "pName",
          "type": "string"
        }
      ],
      "stateMutability": "view",
      "type": "function"
    },
    {
      "inputs": [
        {
          "internalType": "string",
          "name": "_names",
          "type": "string"
        },
        {
          "internalType": "uint256",
          "name": "_age",
          "type": "uint256"
        },
        {
          "internalType": "string",
          "name": "_idNumber",
          "type": "string"
        },
        {
          "internalType": "string",
          "name": "_party",
          "type": "string"
        },
        {
          "internalType": "string",
          "name": "_position",
          "type": "string"
        }
      ],
      "name": "registerCandidate",
      "outputs": [],
      "stateMutability": "nonpayable",
      "type": "function"
    },
    {
      "inputs": [
        {
          "internalType": "string",
          "name": "_names",
          "type": "string"
        },
        {
          "internalType": "uint256",
          "name": "_age",
          "type": "uint256"
        },
        {
          "internalType": "string",
          "name": "_idNumber",
          "type": "string"
        }
      ],
      "name": "registerVoter",
      "outputs": [
        {
          "internalType": "bool",
          "name": "",
          "type": "bool"
        }
      ],
      "stateMutability": "nonpayable",
      "type": "function"
    },
    {
      "inputs": [],
      "name": "registrationStarted",
      "outputs": [
        {
          "internalType": "bool",
          "name": "",
          "type": "bool"
        }
      ],
      "stateMutability": "view",
      "type": "function"
    },
    {
      "inputs": [
        {
          "internalType": "string",
          "name": "_idNumber",
          "type": "string"
        }
      ],
      "name": "rejectCandidate",
      "outputs": [],
      "stateMutability": "nonpayable",
      "type": "function"
    },
    {
      "inputs": [],
      "name": "startRegistration",
      "outputs": [],
      "stateMutability": "nonpayable",
      "type": "function"
    },
    {
      "inputs": [],
      "name": "symbol",
      "outputs": [
        {
          "internalType": "string",
          "name": "",
          "type": "string"
        }
      ],
      "stateMutability": "view",
      "type": "function"
    },
    {
      "inputs": [],
      "name": "totalSupply",
      "outputs": [
        {
          "internalType": "uint256",
          "name": "",
          "type": "uint256"
        }
      ],
      "stateMutability": "view",
      "type": "function"
    },
    {
      "inputs": [
        {
          "internalType": "address",
          "name": "to",
          "type": "address"
        },
        {
          "internalType": "uint256",
          "name": "value",
          "type": "uint256"
        }
      ],
      "name": "transfer",
      "outputs": [
        {
          "internalType": "bool",
          "name": "",
          "type": "bool"
        }
      ],
      "stateMutability": "nonpayable",
      "type": "function"
    },
    {
      "inputs": [
        {
          "internalType": "address",
          "name": "from",
          "type": "address"
        },
        {
          "internalType": "address",
          "name": "to",
          "type": "address"
        },
        {
          "internalType": "uint256",
          "name": "value",
          "type": "uint256"
        }
      ],
      "name": "transferFrom",
      "outputs": [
        {
          "internalType": "bool",
          "name": "",
          "type": "bool"
        }
      ],
      "stateMutability": "nonpayable",
      "type": "function"
    },
    {
      "inputs": [
        {
          "internalType": "string",
          "name": "_idNumber",
          "type": "string"
        }
      ],
      "name": "verifyCandidate",
      "outputs": [],
      "stateMutability": "nonpayable",
      "type": "function"
    },
    {
      "inputs": [
        {
          "internalType": "bytes32",
          "name": "hash",
          "type": "bytes32"
        },
        {
          "internalType": "bytes",
          "name": "signature",
          "type": "bytes"
        }
      ],
      "name": "verifySignature",
      "outputs": [
        {
          "internalType": "bool",
          "name": "",
          "type": "bool"
        }
      ],
      "stateMutability": "view",
      "type": "function"
    },
    {
      "inputs": [
        {
          "internalType": "string",
          "name": "position",
          "type": "string"
        },
        {
          "internalType": "uint256",
          "name": "candidateIndex",
          "type": "uint256"
        }
      ],
      "name": "vote",
      "outputs": [],
      "stateMutability": "nonpayable",
      "type": "function"
    },
    {
      "inputs": [
        {
          "internalType": "string",
          "name": "",
          "type": "string"
        }
      ],
      "name": "voterObject",
      "outputs": [
        {
          "internalType": "string",
          "name": "names",
          "type": "string"
        },
        {
          "internalType": "uint256",
          "name": "age",
          "type": "uint256"
        },
        {
          "internalType": "string",
          "name": "idNumber",
          "type": "string"
        },
        {
          "internalType": "bool",
          "name": "voted",
          "type": "bool"
        }
      ],
      "stateMutability": "view",
      "type": "function"
    },
    {
      "inputs": [
        {
          "internalType": "address",
          "name": "",
          "type": "address"
        }
      ],
      "name": "voters",
      "outputs": [
        {
          "internalType": "string",
          "name": "names",
          "type": "string"
        },
        {
          "internalType": "uint256",
          "name": "age",
          "type": "uint256"
        },
        {
          "internalType": "string",
          "name": "idNumber",
          "type": "string"
        },
        {
          "internalType": "bool",
          "name": "voted",
          "type": "bool"
        }
      ],
      "stateMutability": "view",
      "type": "function"
    },
    {
      "inputs": [],
      "name": "votingStarted",
      "outputs": [
        {
          "internalType": "bool",
          "name": "",
          "type": "bool"
        }
      ],
      "stateMutability": "view",
      "type": "function"
    }
  ],
  "bytecode": "0x60806040526000600e60006101000a81548160ff0219169083151502179055506000600e60016101000a81548160ff02191690831515021790555034801561004657600080fd5b506040518060400160405280600581526020017f566f7465780000000000000000000000000000000000000000000000000000008152506040518060400160405280600481526020017f56544b4e0000000000000000000000000000000000000000000000000000000081525081600390816100c2919061036b565b5080600490816100d2919061036b565b50505033600560006101000a81548173ffffffffffffffffffffffffffffffffffffffff021916908373ffffffffffffffffffffffffffffffffffffffff16021790555061043d565b600081519050919050565b7f4e487b7100000000000000000000000000000000000000000000000000000000600052604160045260246000fd5b7f4e487b7100000000000000000000000000000000000000000000000000000000600052602260045260246000fd5b6000600282049050600182168061019c57607f821691505b6020821081036101af576101ae610155565b5b50919050565b60008190508160005260206000209050919050565b60006020601f8301049050919050565b600082821b905092915050565b6000600883026102177fffffffffffffffffffffffffffffffffffffffffffffffffffffffffffffffff826101da565b61022186836101da565b95508019841693508086168417925050509392505050565b6000819050919050565b6000819050919050565b600061026861026361025e84610239565b610243565b610239565b9050919050565b6000819050919050565b6102828361024d565b61029661028e8261026f565b8484546101e7565b825550505050565b600090565b6102ab61029e565b6102b6818484610279565b505050565b5b818110156102da576102cf6000826102a3565b6001810190506102bc565b5050565b601f82111561031f576102f0816101b5565b6102f9846101ca565b81016020851015610308578190505b61031c610314856101ca565b8301826102bb565b50505b505050565b600082821c905092915050565b600061034260001984600802610324565b1980831691505092915050565b600061035b8383610331565b9150826002028217905092915050565b6103748261011b565b67ffffffffffffffff81111561038d5761038c610126565b5b6103978254610184565b6103a28282856102de565b600060209050601f8311600181146103d557600084156103c3578287015190505b6103cd858261034f565b865550610435565b601f1984166103e3866101b5565b60005b8281101561040b578489015182556001820191506020850194506020810190506103e6565b868310156104285784890151610424601f891682610331565b8355505b6001600288020188555050505b505050505050565b6169ba8061044c6000396000f3fe608060405234801561001057600080fd5b50600436106102275760003560e01c80638168347611610130578063a9059cbb116100b8578063cdd722531161007c578063cdd72253146106b9578063daca6f78146106d7578063dd62ed3e14610707578063eb2119db14610737578063ffdd74961461076757610227565b8063a9059cbb14610617578063abceaad214610647578063b034d2b314610663578063b80a398a1461067f578063be94ced71461069b57610227565b806395d89b41116100ff57806395d89b411461055b5780639a53cbea146105795780639dfa9065146105ac578063a3ec138d146105c8578063a6385803146105fb57610227565b806381683476146104cb57806383d948b7146104e95780638da5cb5b1461050757806392d7df4a1461052557610227565b8063313ce567116101b35780635fbcc155116101825780635fbcc155146103db5780636636b91e1461040b578063676f86b01461043b57806370a082311461046b57806371a6f4651461049b57610227565b8063313ce5671461036257806332cb6b0c146103805780634a66e1ab1461039e57806355d5d611146103d157610227565b806318160ddd116101fa57806318160ddd146102a257806318f56a0a146102c05780631c64a33e146102de57806323b872dd1461031457806327aed42e1461034457610227565b806306a49fce1461022c57806306fdde031461024a578063095ea7b31461026857806310b8669514610298575b600080fd5b610234610785565b604051610241919061466e565b60405180910390f35b610252610a5b565b60405161025f91906146da565b60405180910390f35b610282600480360381019061027d919061479a565b610aed565b60405161028f91906147e9565b60405180910390f35b6102a0610b10565b005b6102aa610c89565b6040516102b79190614813565b60405180910390f35b6102c8610c93565b6040516102d591906149ba565b60405180910390f35b6102f860048036038101906102f39190614b11565b61105a565b60405161030b9796959493929190614b5a565b60405180910390f35b61032e60048036038101906103299190614be5565b6112df565b60405161033b91906147e9565b60405180910390f35b61034c61130e565b60405161035991906147e9565b60405180910390f35b61036a611321565b6040516103779190614c54565b60405180910390f35b61038861132a565b6040516103959190614813565b60405180910390f35b6103b860048036038101906103b39190614b11565b611338565b6040516103c89493929190614c6f565b60405180910390f35b6103d961149b565b005b6103f560048036038101906103f09190614cc2565b61165a565b6040516104029190614dbc565b60405180910390f35b61042560048036038101906104209190614dd7565b6116c9565b60405161043291906147e9565b60405180910390f35b61045560048036038101906104509190614b11565b611a9e565b60405161046291906146da565b60405180910390f35b61048560048036038101906104809190614e62565b611b5a565b6040516104929190614813565b60405180910390f35b6104b560048036038101906104b09190614e8f565b611ba2565b6040516104c291906146da565b60405180910390f35b6104d3611c58565b6040516104e09190614813565b60405180910390f35b6104f1611c65565b6040516104fe91906147e9565b60405180910390f35b61050f611c78565b60405161051c9190614ecb565b60405180910390f35b61053f600480360381019061053a9190614e8f565b611c9e565b6040516105529796959493929190614b5a565b60405180910390f35b610563611f1d565b60405161057091906146da565b60405180910390f35b610593600480360381019061058e9190614e8f565b611faf565b6040516105a39493929190614c6f565b60405180910390f35b6105c660048036038101906105c19190614b11565b61210c565b005b6105e260048036038101906105dd9190614e62565b6122d3565b6040516105f29493929190614c6f565b60405180910390f35b61061560048036038101906106109190614ee6565b612420565b005b610631600480360381019061062c919061479a565b6126f4565b60405161063e91906147e9565b60405180910390f35b610661600480360381019061065c9190615028565b612717565b005b61067d60048036038101906106789190614b11565b6129af565b005b61069960048036038101906106949190615071565b612db7565b005b6106a3613148565b6040516106b09190614813565b60405180910390f35b6106c1613154565b6040516106ce9190615288565b60405180910390f35b6106f160048036038101906106ec9190615377565b6132fc565b6040516106fe91906147e9565b60405180910390f35b610721600480360381019061071c91906153d3565b61336f565b60405161072e9190614813565b60405180910390f35b610751600480360381019061074c9190614e62565b6133f6565b60405161075e91906147e9565b60405180910390f35b61076f613451565b60405161077c9190614813565b60405180910390f35b60606007805480602002602001604051908101604052809291908181526020016000905b82821015610a5257838290600052602060002090600702016040518060e00160405290816000820180546107dc90615442565b80601f016020809104026020016040519081016040528092919081815260200182805461080890615442565b80156108555780601f1061082a57610100808354040283529160200191610855565b820191906000526020600020905b81548152906001019060200180831161083857829003601f168201915b505050505081526020016001820154815260200160028201805461087890615442565b80601f01602080910402602001604051908101604052809291908181526020018280546108a490615442565b80156108f15780601f106108c6576101008083540402835291602001916108f1565b820191906000526020600020905b8154815290600101906020018083116108d457829003601f168201915b5050505050815260200160038201805461090a90615442565b80601f016020809104026020016040519081016040528092919081815260200182805461093690615442565b80156109835780601f1061095857610100808354040283529160200191610983565b820191906000526020600020905b81548152906001019060200180831161096657829003601f168201915b50505050508152602001600482015481526020016005820160009054906101000a900460ff161515151581526020016006820180546109c190615442565b80601f01602080910402602001604051908101604052809291908181526020018280546109ed90615442565b8015610a3a5780601f10610a0f57610100808354040283529160200191610a3a565b820191906000526020600020905b815481529060010190602001808311610a1d57829003601f168201915b505050505081525050815260200190600101906107a9565b50505050905090565b606060038054610a6a90615442565b80601f0160208091040260200160405190810160405280929190818152602001828054610a9690615442565b8015610ae35780601f10610ab857610100808354040283529160200191610ae3565b820191906000526020600020905b815481529060010190602001808311610ac657829003601f168201915b5050505050905090565b600080610af861345d565b9050610b05818585613465565b600191505092915050565b600560009054906101000a900473ffffffffffffffffffffffffffffffffffffffff1673ffffffffffffffffffffffffffffffffffffffff163373ffffffffffffffffffffffffffffffffffffffff1614610ba0576040517f08c379a0000000000000000000000000000000000000000000000000000000008152600401610b97906154bf565b60405180910390fd5b600e60009054906101000a900460ff1615610bf0576040517f08c379a0000000000000000000000000000000000000000000000000000000008152600401610be790615551565b60405180910390fd5b600e60019054906101000a900460ff1615610c40576040517f08c379a0000000000000000000000000000000000000000000000000000000008152600401610c37906155e3565b60405180910390fd5b6001600e60006101000a81548160ff0219169083151502179055507f82e6c84abd647d1b4fae9bee1859f2642e5443af0ff900d4af83a93c2bf4151260405160405180910390a1565b6000600254905090565b60606008805480602002602001604051908101604052809291908181526020016000905b828210156110515783829060005260206000209060020201604051806040016040529081600082018054610cea90615442565b80601f0160208091040260200160405190810160405280929190818152602001828054610d1690615442565b8015610d635780601f10610d3857610100808354040283529160200191610d63565b820191906000526020600020905b815481529060010190602001808311610d4657829003601f168201915b5050505050815260200160018201805480602002602001604051908101604052809291908181526020016000905b8282101561103a57838290600052602060002090600702016040518060e0016040529081600082018054610dc490615442565b80601f0160208091040260200160405190810160405280929190818152602001828054610df090615442565b8015610e3d5780601f10610e1257610100808354040283529160200191610e3d565b820191906000526020600020905b815481529060010190602001808311610e2057829003601f168201915b5050505050815260200160018201548152602001600282018054610e6090615442565b80601f0160208091040260200160405190810160405280929190818152602001828054610e8c90615442565b8015610ed95780601f10610eae57610100808354040283529160200191610ed9565b820191906000526020600020905b815481529060010190602001808311610ebc57829003601f168201915b50505050508152602001600382018054610ef290615442565b80601f0160208091040260200160405190810160405280929190818152602001828054610f1e90615442565b8015610f6b5780601f10610f4057610100808354040283529160200191610f6b565b820191906000526020600020905b815481529060010190602001808311610f4e57829003601f168201915b50505050508152602001600482015481526020016005820160009054906101000a900460ff16151515158152602001600682018054610fa990615442565b80601f0160208091040260200160405190810160405280929190818152602001828054610fd590615442565b80156110225780601f10610ff757610100808354040283529160200191611022565b820191906000526020600020905b81548152906001019060200180831161100557829003601f168201915b50505050508152505081526020019060010190610d91565b505050508152505081526020019060010190610cb7565b50505050905090565b600a8180516020810182018051848252602083016020850120818352809550505050505060009150905080600001805461109390615442565b80601f01602080910402602001604051908101604052809291908181526020018280546110bf90615442565b801561110c5780601f106110e15761010080835404028352916020019161110c565b820191906000526020600020905b8154815290600101906020018083116110ef57829003601f168201915b50505050509080600101549080600201805461112790615442565b80601f016020809104026020016040519081016040528092919081815260200182805461115390615442565b80156111a05780601f10611175576101008083540402835291602001916111a0565b820191906000526020600020905b81548152906001019060200180831161118357829003601f168201915b5050505050908060030180546111b590615442565b80601f01602080910402602001604051908101604052809291908181526020018280546111e190615442565b801561122e5780601f106112035761010080835404028352916020019161122e565b820191906000526020600020905b81548152906001019060200180831161121157829003601f168201915b5050505050908060040154908060050160009054906101000a900460ff169080600601805461125c90615442565b80601f016020809104026020016040519081016040528092919081815260200182805461128890615442565b80156112d55780601f106112aa576101008083540402835291602001916112d5565b820191906000526020600020905b8154815290600101906020018083116112b857829003601f168201915b5050505050905087565b6000806112ea61345d565b90506112f7858285613477565b61130285858561350b565b60019150509392505050565b600e60009054906101000a900460ff1681565b60006012905090565b69d3c21bcecceda100000081565b60098180516020810182018051848252602083016020850120818352809550505050505060009150905080600001805461137190615442565b80601f016020809104026020016040519081016040528092919081815260200182805461139d90615442565b80156113ea5780601f106113bf576101008083540402835291602001916113ea565b820191906000526020600020905b8154815290600101906020018083116113cd57829003601f168201915b50505050509080600101549080600201805461140590615442565b80601f016020809104026020016040519081016040528092919081815260200182805461143190615442565b801561147e5780601f106114535761010080835404028352916020019161147e565b820191906000526020600020905b81548152906001019060200180831161146157829003601f168201915b5050505050908060030160009054906101000a900460ff16905084565b600560009054906101000a900473ffffffffffffffffffffffffffffffffffffffff1673ffffffffffffffffffffffffffffffffffffffff163373ffffffffffffffffffffffffffffffffffffffff161461152b576040517f08c379a0000000000000000000000000000000000000000000000000000000008152600401611522906154bf565b60405180910390fd5b600e60009054906101000a900460ff1661157a576040517f08c379a000000000000000000000000000000000000000000000000000000000815260040161157190615675565b60405180910390fd5b600e60019054906101000a900460ff16156115ca576040517f08c379a00000000000000000000000000000000000000000000000000000000081526004016115c1906156e1565b60405180910390fd5b6000600e60006101000a81548160ff0219169083151502179055506001600e60016101000a81548160ff0219169083151502179055507f2ee88f50f05558e39b34a18214ff6a6adc091504772084c6ce7899354bec0aa460405160405180910390a17f877e2548498f42b7975a186b94ef1d32c86d420b7b806dd2be2bea293b89590460405160405180910390a1565b60008561167e8873ffffffffffffffffffffffffffffffffffffffff1660146135ff565b868661168987613845565b61169287613845565b6040516020016116a7969594939291906159e9565b6040516020818303038152906040528051906020012090509695505050505050565b6000600e60009054906101000a900460ff1661171a576040517f08c379a000000000000000000000000000000000000000000000000000000000815260040161171190615675565b60405180910390fd5b600e60019054906101000a900460ff161561176a576040517f08c379a000000000000000000000000000000000000000000000000000000000815260040161176190615b42565b60405180910390fd5b600060098360405161177c9190615b62565b9081526020016040518091039020600001805461179890615442565b9050146117da576040517f08c379a00000000000000000000000000000000000000000000000000000000081526004016117d190615bc5565b60405180910390fd5b6000600c60003373ffffffffffffffffffffffffffffffffffffffff1673ffffffffffffffffffffffffffffffffffffffff168152602001908152602001600020600101541461185f576040517f08c379a000000000000000000000000000000000000000000000000000000000815260040161185690615c57565b60405180910390fd5b60006040518060800160405280868152602001858152602001848152602001600015158152509050600681908060018154018082558091505060019003906000526020600020906004020160009091909190915060008201518160000190816118c89190615e23565b506020820151816001015560408201518160020190816118e89190615e23565b5060608201518160030160006101000a81548160ff02191690831515021790555050508060098460405161191c9190615b62565b9081526020016040518091039020600082015181600001908161193f9190615e23565b5060208201518160010155604082015181600201908161195f9190615e23565b5060608201518160030160006101000a81548160ff02191690831515021790555090505080600c60003373ffffffffffffffffffffffffffffffffffffffff1673ffffffffffffffffffffffffffffffffffffffff16815260200190815260200160002060008201518160000190816119d89190615e23565b506020820151816001015560408201518160020190816119f89190615e23565b5060608201518160030160006101000a81548160ff021916908315150217905550905050611a2e33674563918244f40000613913565b5082604051611a3d9190615b62565b604051809103902085604051611a539190615b62565b60405180910390207f754a5f7c9336f3562d73dacebf51de10da957ae9dfcae4fbfb93733ece3dd5aa86604051611a8a9190614813565b60405180910390a360019150509392505050565b600b81805160208101820180518482526020830160208501208183528095505050505050600091509050806000018054611ad790615442565b80601f0160208091040260200160405190810160405280929190818152602001828054611b0390615442565b8015611b505780601f10611b2557610100808354040283529160200191611b50565b820191906000526020600020905b815481529060010190602001808311611b3357829003601f168201915b5050505050905081565b60008060008373ffffffffffffffffffffffffffffffffffffffff1673ffffffffffffffffffffffffffffffffffffffff168152602001908152602001600020549050919050565b60088181548110611bb257600080fd5b9060005260206000209060020201600091509050806000018054611bd590615442565b80601f0160208091040260200160405190810160405280929190818152602001828054611c0190615442565b8015611c4e5780601f10611c2357610100808354040283529160200191611c4e565b820191906000526020600020905b815481529060010190602001808311611c3157829003601f168201915b5050505050905081565b6000600880549050905090565b600e60019054906101000a900460ff1681565b600560009054906101000a900473ffffffffffffffffffffffffffffffffffffffff1681565b60078181548110611cae57600080fd5b9060005260206000209060070201600091509050806000018054611cd190615442565b80601f0160208091040260200160405190810160405280929190818152602001828054611cfd90615442565b8015611d4a5780601f10611d1f57610100808354040283529160200191611d4a565b820191906000526020600020905b815481529060010190602001808311611d2d57829003601f168201915b505050505090806001015490806002018054611d6590615442565b80601f0160208091040260200160405190810160405280929190818152602001828054611d9190615442565b8015611dde5780601f10611db357610100808354040283529160200191611dde565b820191906000526020600020905b815481529060010190602001808311611dc157829003601f168201915b505050505090806003018054611df390615442565b80601f0160208091040260200160405190810160405280929190818152602001828054611e1f90615442565b8015611e6c5780601f10611e4157610100808354040283529160200191611e6c565b820191906000526020600020905b815481529060010190602001808311611e4f57829003601f168201915b5050505050908060040154908060050160009054906101000a900460ff1690806006018054611e9a90615442565b80601f0160208091040260200160405190810160405280929190818152602001828054611ec690615442565b8015611f135780601f10611ee857610100808354040283529160200191611f13565b820191906000526020600020905b815481529060010190602001808311611ef657829003601f168201915b5050505050905087565b606060048054611f2c90615442565b80601f0160208091040260200160405190810160405280929190818152602001828054611f5890615442565b8015611fa55780601f10611f7a57610100808354040283529160200191611fa5565b820191906000526020600020905b815481529060010190602001808311611f8857829003601f168201915b5050505050905090565b60068181548110611fbf57600080fd5b9060005260206000209060040201600091509050806000018054611fe290615442565b80601f016020809104026020016040519081016040528092919081815260200182805461200e90615442565b801561205b5780601f106120305761010080835404028352916020019161205b565b820191906000526020600020905b81548152906001019060200180831161203e57829003601f168201915b50505050509080600101549080600201805461207690615442565b80601f01602080910402602001604051908101604052809291908181526020018280546120a290615442565b80156120ef5780601f106120c4576101008083540402835291602001916120ef565b820191906000526020600020905b8154815290600101906020018083116120d257829003601f168201915b5050505050908060030160009054906101000a900460ff16905084565b600560009054906101000a900473ffffffffffffffffffffffffffffffffffffffff1673ffffffffffffffffffffffffffffffffffffffff163373ffffffffffffffffffffffffffffffffffffffff161461219c576040517f08c379a0000000000000000000000000000000000000000000000000000000008152600401612193906154bf565b60405180910390fd5b600a816040516121ac9190615b62565b908152602001604051809103902060050160009054906101000a900460ff161561220b576040517f08c379a000000000000000000000000000000000000000000000000000000000815260040161220290615f41565b60405180910390fd5b6001600a8260405161221d9190615b62565b908152602001604051809103902060050160006101000a81548160ff02191690831515021790555061225733678ac7230489e80000613913565b50806040516122669190615b62565b6040518091039020600a8260405161227e9190615b62565b908152602001604051809103902060000160405161229c9190615fe4565b60405180910390207fb78543f054c768084f86f0e559d1e007998ca69729eeffc4b727baa388934a3260405160405180910390a350565b600c6020528060005260406000206000915090508060000180546122f690615442565b80601f016020809104026020016040519081016040528092919081815260200182805461232290615442565b801561236f5780601f106123445761010080835404028352916020019161236f565b820191906000526020600020905b81548152906001019060200180831161235257829003601f168201915b50505050509080600101549080600201805461238a90615442565b80601f01602080910402602001604051908101604052809291908181526020018280546123b690615442565b80156124035780601f106123d857610100808354040283529160200191612403565b820191906000526020600020905b8154815290600101906020018083116123e657829003601f168201915b5050505050908060030160009054906101000a900460ff16905084565b600e60009054906101000a900460ff1615612470576040517f08c379a00000000000000000000000000000000000000000000000000000000081526004016124679061606d565b60405180910390fd5b600e60019054906101000a900460ff166124bf576040517f08c379a00000000000000000000000000000000000000000000000000000000081526004016124b6906160d9565b60405180910390fd5b6000600c60003373ffffffffffffffffffffffffffffffffffffffff1673ffffffffffffffffffffffffffffffffffffffff16815260200190815260200160002090508060030160009054906101000a900460ff1615612554576040517f08c379a000000000000000000000000000000000000000000000000000000000815260040161254b90616145565b60405180910390fd5b6000600b846040516125669190615b62565b908152602001604051809103902060010180549050116125bb576040517f08c379a00000000000000000000000000000000000000000000000000000000081526004016125b2906161b1565b60405180910390fd5b600b836040516125cb9190615b62565b9081526020016040518091039020600101805490508210612621576040517f08c379a00000000000000000000000000000000000000000000000000000000081526004016126189061621d565b60405180910390fd5b6001600b846040516126339190615b62565b908152602001604051809103902060010183815481106126565761265561623d565b5b90600052602060002090600702016004016000828254612676919061629b565b9250508190555060018160030160006101000a81548160ff0219169083151502179055503373ffffffffffffffffffffffffffffffffffffffff167f477d7faf347a03679fabd88feea150c41667473fc8412962f607fb7503f1bd438260020185856040516126e793929190616353565b60405180910390a2505050565b6000806126ff61345d565b905061270c81858561350b565b600191505092915050565b600560009054906101000a900473ffffffffffffffffffffffffffffffffffffffff1673ffffffffffffffffffffffffffffffffffffffff163373ffffffffffffffffffffffffffffffffffffffff16146127a7576040517f08c379a000000000000000000000000000000000000000000000000000000000815260040161279e906154bf565b60405180910390fd5b60005b81518110156129ab57600d8282815181106127c8576127c761623d565b5b60200260200101516040516127dd9190615b62565b908152602001604051809103902060009054906101000a900460ff1615612839576040517f08c379a0000000000000000000000000000000000000000000000000000000008152600401612830906163e4565b60405180910390fd5b6000600b8383815181106128505761284f61623d565b5b60200260200101516040516128659190615b62565b908152602001604051809103902090508282815181106128885761288761623d565b5b60200260200101518160000190816128a09190615e23565b506008819080600181540180825580915050600190039060005260206000209060020201600090919091909150600082018160000190816128e1919061641a565b5060018201816001019080546128f8929190614272565b5050506001600d8484815181106129125761291161623d565b5b60200260200101516040516129279190615b62565b908152602001604051809103902060006101000a81548160ff0219169083151502179055507ff635339f4b5986d632e76f25211c57346b4b4ca3aa13c1ba323ac125637314568383815181106129805761297f61623d565b5b602002602001015160405161299591906146da565b60405180910390a15080806001019150506127aa565b5050565b600560009054906101000a900473ffffffffffffffffffffffffffffffffffffffff1673ffffffffffffffffffffffffffffffffffffffff163373ffffffffffffffffffffffffffffffffffffffff1614612a3f576040517f08c379a0000000000000000000000000000000000000000000000000000000008152600401612a36906154bf565b60405180910390fd5b6000600a82604051612a519190615b62565b90815260200160405180910390206000018054612a6d90615442565b905003612aaf576040517f08c379a0000000000000000000000000000000000000000000000000000000008152600401612aa69061654e565b60405180910390fd5b60005b600780549050811015612db35781604051602001612ad09190615b62565b6040516020818303038152906040528051906020012060078281548110612afa57612af961623d565b5b9060005260206000209060070201600201604051602001612b1b9190615fe4565b6040516020818303038152906040528051906020012003612da65760008190505b6001600780549050612b4e919061656e565b811015612c4a576007600182612b64919061629b565b81548110612b7557612b7461623d565b5b906000526020600020906007020160078281548110612b9757612b9661623d565b5b906000526020600020906007020160008201816000019081612bb9919061641a565b506001820154816001015560028201816002019081612bd8919061641a565b5060038201816003019081612bed919061641a565b50600482015481600401556005820160009054906101000a900460ff168160050160006101000a81548160ff02191690831515021790555060068201816006019081612c39919061641a565b509050508080600101915050612b3c565b506007805480612c5d57612c5c6165a2565b5b600190038181906000526020600020906007020160008082016000612c82919061435f565b6001820160009055600282016000612c9a919061435f565b600382016000612caa919061435f565b60048201600090556005820160006101000a81549060ff0219169055600682016000612cd6919061435f565b50509055600a82604051612cea9190615b62565b908152602001604051809103902060008082016000612d09919061435f565b6001820160009055600282016000612d21919061435f565b600382016000612d31919061435f565b60048201600090556005820160006101000a81549060ff0219169055600682016000612d5d919061435f565b505081604051612d6d9190615b62565b60405180910390207f8f5f7793556433ecc92e19fec29f06611a3ac9c5a32b806db2149f70d52946fe60405160405180910390a2612db3565b8080600101915050612ab2565b5050565b600e60009054906101000a900460ff16612e06576040517f08c379a0000000000000000000000000000000000000000000000000000000008152600401612dfd90615675565b60405180910390fd5b600e60019054906101000a900460ff1615612e56576040517f08c379a0000000000000000000000000000000000000000000000000000000008152600401612e4d90615b42565b60405180910390fd5b6000600a84604051612e689190615b62565b90815260200160405180910390206000018054612e8490615442565b905014612ec6576040517f08c379a0000000000000000000000000000000000000000000000000000000008152600401612ebd9061661d565b60405180910390fd5b6000600984604051612ed89190615b62565b90815260200160405180910390206000018054612ef490615442565b905003612f36576040517f08c379a0000000000000000000000000000000000000000000000000000000008152600401612f2d90616689565b60405180910390fd5b60006040518060e001604052808781526020018681526020018581526020018481526020016000815260200160001515815260200183815250905060078190806001815401808255809150506001900390600052602060002090600702016000909190919091506000820151816000019081612fb29190615e23565b50602082015181600101556040820151816002019081612fd29190615e23565b506060820151816003019081612fe89190615e23565b506080820151816004015560a08201518160050160006101000a81548160ff02191690831515021790555060c08201518160060190816130289190615e23565b50505080600a8560405161303c9190615b62565b9081526020016040518091039020600082015181600001908161305f9190615e23565b5060208201518160010155604082015181600201908161307f9190615e23565b5060608201518160030190816130959190615e23565b506080820151816004015560a08201518160050160006101000a81548160ff02191690831515021790555060c08201518160060190816130d59190615e23565b50905050836040516130e79190615b62565b6040518091039020866040516130fd9190615b62565b60405180910390207fd9f17a5389d6109c78413a18e9adfec5a898c288bbd8c9e65de38e95f04b9e07878686604051613138939291906166a9565b60405180910390a3505050505050565b674563918244f4000081565b60606006805480602002602001604051908101604052809291908181526020016000905b828210156132f357838290600052602060002090600402016040518060800160405290816000820180546131ab90615442565b80601f01602080910402602001604051908101604052809291908181526020018280546131d790615442565b80156132245780601f106131f957610100808354040283529160200191613224565b820191906000526020600020905b81548152906001019060200180831161320757829003601f168201915b505050505081526020016001820154815260200160028201805461324790615442565b80601f016020809104026020016040519081016040528092919081815260200182805461327390615442565b80156132c05780601f10613295576101008083540402835291602001916132c0565b820191906000526020600020905b8154815290600101906020018083116132a357829003601f168201915b505050505081526020016003820160009054906101000a900460ff16151515158152505081526020019060010190613178565b50505050905090565b60008083604051602001613310919061675b565b604051602081830303815290604052805190602001209050600061333482856139c1565b90503373ffffffffffffffffffffffffffffffffffffffff168173ffffffffffffffffffffffffffffffffffffffff16149250505092915050565b6000600160008473ffffffffffffffffffffffffffffffffffffffff1673ffffffffffffffffffffffffffffffffffffffff16815260200190815260200160002060008373ffffffffffffffffffffffffffffffffffffffff1673ffffffffffffffffffffffffffffffffffffffff16815260200190815260200160002054905092915050565b600080600c60008473ffffffffffffffffffffffffffffffffffffffff1673ffffffffffffffffffffffffffffffffffffffff168152602001908152602001600020600001805461344690615442565b905014159050919050565b678ac7230489e8000081565b600033905090565b61347283838360016139ed565b505050565b6000613483848461336f565b90507fffffffffffffffffffffffffffffffffffffffffffffffffffffffffffffffff811461350557818110156134f5578281836040517ffb8f41b20000000000000000000000000000000000000000000000000000000081526004016134ec93929190616781565b60405180910390fd5b613504848484840360006139ed565b5b50505050565b600073ffffffffffffffffffffffffffffffffffffffff168373ffffffffffffffffffffffffffffffffffffffff160361357d5760006040517f96c6fd1e0000000000000000000000000000000000000000000000000000000081526004016135749190614ecb565b60405180910390fd5b600073ffffffffffffffffffffffffffffffffffffffff168273ffffffffffffffffffffffffffffffffffffffff16036135ef5760006040517fec442f050000000000000000000000000000000000000000000000000000000081526004016135e69190614ecb565b60405180910390fd5b6135fa838383613bc4565b505050565b606060008390506000600284600261361791906167b8565b613621919061629b565b67ffffffffffffffff81111561363a576136396149e6565b5b6040519080825280601f01601f19166020018201604052801561366c5781602001600182028036833780820191505090505b5090507f3000000000000000000000000000000000000000000000000000000000000000816000815181106136a4576136a361623d565b5b60200101907effffffffffffffffffffffffffffffffffffffffffffffffffffffffffffff1916908160001a9053507f7800000000000000000000000000000000000000000000000000000000000000816001815181106137085761370761623d565b5b60200101907effffffffffffffffffffffffffffffffffffffffffffffffffffffffffffff1916908160001a9053506000600185600261374891906167b8565b613752919061629b565b90505b60018111156137f2577f3031323334353637383961626364656600000000000000000000000000000000600f8416601081106137945761379361623d565b5b1a60f81b8282815181106137ab576137aa61623d565b5b60200101907effffffffffffffffffffffffffffffffffffffffffffffffffffffffffffff1916908160001a905350600483901c9250806137eb906167fa565b9050613755565b506000821461383a5784846040517fe22e27eb000000000000000000000000000000000000000000000000000000008152600401613831929190616823565b60405180910390fd5b809250505092915050565b60606000600161385484613de9565b01905060008167ffffffffffffffff811115613873576138726149e6565b5b6040519080825280601f01601f1916602001820160405280156138a55781602001600182028036833780820191505090505b509050600082602001820190505b600115613908578080600190039150507f3031323334353637383961626364656600000000000000000000000000000000600a86061a8153600a85816138fc576138fb61684c565b5b049450600085036138b3575b819350505050919050565b600069d3c21bcecceda1000000613928610c89565b83613933919061629b565b1115613974576040517f08c379a000000000000000000000000000000000000000000000000000000000815260040161396b906168c7565b60405180910390fd5b61397e8383613f3c565b7fcda531bfd68624f13205c0a23cd4d5a7f09792cbb399603114f2b04aaa1bf5cf83836040516139af9291906168e7565b60405180910390a16001905092915050565b6000806000806139d18686613fbe565b9250925092506139e1828261401a565b82935050505092915050565b600073ffffffffffffffffffffffffffffffffffffffff168473ffffffffffffffffffffffffffffffffffffffff1603613a5f5760006040517fe602df05000000000000000000000000000000000000000000000000000000008152600401613a569190614ecb565b60405180910390fd5b600073ffffffffffffffffffffffffffffffffffffffff168373ffffffffffffffffffffffffffffffffffffffff1603613ad15760006040517f94280d62000000000000000000000000000000000000000000000000000000008152600401613ac89190614ecb565b60405180910390fd5b81600160008673ffffffffffffffffffffffffffffffffffffffff1673ffffffffffffffffffffffffffffffffffffffff16815260200190815260200160002060008573ffffffffffffffffffffffffffffffffffffffff1673ffffffffffffffffffffffffffffffffffffffff168152602001908152602001600020819055508015613bbe578273ffffffffffffffffffffffffffffffffffffffff168473ffffffffffffffffffffffffffffffffffffffff167f8c5be1e5ebec7d5bd14f71427d1e84f3dd0314c0f7b2291e5b200ac8c7c3b92584604051613bb59190614813565b60405180910390a35b50505050565b600073ffffffffffffffffffffffffffffffffffffffff168373ffffffffffffffffffffffffffffffffffffffff1603613c16578060026000828254613c0a919061629b565b92505081905550613ce9565b60008060008573ffffffffffffffffffffffffffffffffffffffff1673ffffffffffffffffffffffffffffffffffffffff16815260200190815260200160002054905081811015613ca2578381836040517fe450d38c000000000000000000000000000000000000000000000000000000008152600401613c9993929190616781565b60405180910390fd5b8181036000808673ffffffffffffffffffffffffffffffffffffffff1673ffffffffffffffffffffffffffffffffffffffff16815260200190815260200160002081905550505b600073ffffffffffffffffffffffffffffffffffffffff168273ffffffffffffffffffffffffffffffffffffffff1603613d325780600260008282540392505081905550613d7f565b806000808473ffffffffffffffffffffffffffffffffffffffff1673ffffffffffffffffffffffffffffffffffffffff168152602001908152602001600020600082825401925050819055505b8173ffffffffffffffffffffffffffffffffffffffff168373ffffffffffffffffffffffffffffffffffffffff167fddf252ad1be2c89b69c2b068fc378daa952ba7f163c4a11628f55a4df523b3ef83604051613ddc9190614813565b60405180910390a3505050565b600080600090507a184f03e93ff9f4daa797ed6e38ed64bf6a1f0100000000000000008310613e47577a184f03e93ff9f4daa797ed6e38ed64bf6a1f0100000000000000008381613e3d57613e3c61684c565b5b0492506040810190505b6d04ee2d6d415b85acef81000000008310613e84576d04ee2d6d415b85acef81000000008381613e7a57613e7961684c565b5b0492506020810190505b662386f26fc100008310613eb357662386f26fc100008381613ea957613ea861684c565b5b0492506010810190505b6305f5e1008310613edc576305f5e1008381613ed257613ed161684c565b5b0492506008810190505b6127108310613f01576127108381613ef757613ef661684c565b5b0492506004810190505b60648310613f245760648381613f1a57613f1961684c565b5b0492506002810190505b600a8310613f33576001810190505b80915050919050565b600073ffffffffffffffffffffffffffffffffffffffff168273ffffffffffffffffffffffffffffffffffffffff1603613fae5760006040517fec442f05000000000000000000000000000000000000000000000000000000008152600401613fa59190614ecb565b60405180910390fd5b613fba60008383613bc4565b5050565b600080600060418451036140035760008060006020870151925060408701519150606087015160001a9050613ff58882858561417e565b955095509550505050614013565b60006002855160001b9250925092505b9250925092565b6000600381111561402e5761402d616910565b5b82600381111561404157614040616910565b5b031561417a576001600381111561405b5761405a616910565b5b82600381111561406e5761406d616910565b5b036140a5576040517ff645eedf00000000000000000000000000000000000000000000000000000000815260040160405180910390fd5b600260038111156140b9576140b8616910565b5b8260038111156140cc576140cb616910565b5b03614111578060001c6040517ffce698f70000000000000000000000000000000000000000000000000000000081526004016141089190614813565b60405180910390fd5b60038081111561412457614123616910565b5b82600381111561413757614136616910565b5b0361417957806040517fd78bce0c0000000000000000000000000000000000000000000000000000000081526004016141709190614dbc565b60405180910390fd5b5b5050565b60008060007f7fffffffffffffffffffffffffffffff5d576e7357a4501ddfe92f46681b20a08460001c11156141be576000600385925092509250614268565b6000600188888888604051600081526020016040526040516141e3949392919061693f565b6020604051602081039080840390855afa158015614205573d6000803e3d6000fd5b505050602060405103519050600073ffffffffffffffffffffffffffffffffffffffff168173ffffffffffffffffffffffffffffffffffffffff160361425957600060016000801b93509350935050614268565b8060008060001b935093509350505b9450945094915050565b82805482825590600052602060002090600702810192821561434e5760005260206000209160070282015b8281111561434d578282600082018160000190816142bb919061641a565b5060018201548160010155600282018160020190816142da919061641a565b50600382018160030190816142ef919061641a565b50600482015481600401556005820160009054906101000a900460ff168160050160006101000a81548160ff0219169083151502179055506006820181600601908161433b919061641a565b5050509160070191906007019061429d565b5b50905061435b919061439f565b5090565b50805461436b90615442565b6000825580601f1061437d575061439c565b601f01602090049060005260206000209081019061439b919061441a565b5b50565b5b8082111561441657600080820160006143b9919061435f565b60018201600090556002820160006143d1919061435f565b6003820160006143e1919061435f565b60048201600090556005820160006101000a81549060ff021916905560068201600061440d919061435f565b506007016143a0565b5090565b5b8082111561443357600081600090555060010161441b565b5090565b600081519050919050565b600082825260208201905092915050565b6000819050602082019050919050565b600081519050919050565b600082825260208201905092915050565b60005b8381101561449d578082015181840152602081019050614482565b60008484015250505050565b6000601f19601f8301169050919050565b60006144c582614463565b6144cf818561446e565b93506144df81856020860161447f565b6144e8816144a9565b840191505092915050565b6000819050919050565b614506816144f3565b82525050565b60008115159050919050565b6145218161450c565b82525050565b600060e083016000830151848203600086015261454482826144ba565b915050602083015161455960208601826144fd565b506040830151848203604086015261457182826144ba565b9150506060830151848203606086015261458b82826144ba565b91505060808301516145a060808601826144fd565b5060a08301516145b360a0860182614518565b5060c083015184820360c08601526145cb82826144ba565b9150508091505092915050565b60006145e48383614527565b905092915050565b6000602082019050919050565b600061460482614437565b61460e8185614442565b93508360208202850161462085614453565b8060005b8581101561465c578484038952815161463d85826145d8565b9450614648836145ec565b925060208a01995050600181019050614624565b50829750879550505050505092915050565b6000602082019050818103600083015261468881846145f9565b905092915050565b600082825260208201905092915050565b60006146ac82614463565b6146b68185614690565b93506146c681856020860161447f565b6146cf816144a9565b840191505092915050565b600060208201905081810360008301526146f481846146a1565b905092915050565b6000604051905090565b600080fd5b600080fd5b600073ffffffffffffffffffffffffffffffffffffffff82169050919050565b600061473b82614710565b9050919050565b61474b81614730565b811461475657600080fd5b50565b60008135905061476881614742565b92915050565b614777816144f3565b811461478257600080fd5b50565b6000813590506147948161476e565b92915050565b600080604083850312156147b1576147b0614706565b5b60006147bf85828601614759565b92505060206147d085828601614785565b9150509250929050565b6147e38161450c565b82525050565b60006020820190506147fe60008301846147da565b92915050565b61480d816144f3565b82525050565b60006020820190506148286000830184614804565b92915050565b600081519050919050565b600082825260208201905092915050565b6000819050602082019050919050565b600082825260208201905092915050565b600061487682614437565b614880818561485a565b93508360208202850161489285614453565b8060005b858110156148ce57848403895281516148af85826145d8565b94506148ba836145ec565b925060208a01995050600181019050614896565b50829750879550505050505092915050565b600060408301600083015184820360008601526148fd82826144ba565b91505060208301518482036020860152614917828261486b565b9150508091505092915050565b600061493083836148e0565b905092915050565b6000602082019050919050565b60006149508261482e565b61495a8185614839565b93508360208202850161496c8561484a565b8060005b858110156149a857848403895281516149898582614924565b945061499483614938565b925060208a01995050600181019050614970565b50829750879550505050505092915050565b600060208201905081810360008301526149d48184614945565b905092915050565b600080fd5b600080fd5b7f4e487b7100000000000000000000000000000000000000000000000000000000600052604160045260246000fd5b614a1e826144a9565b810181811067ffffffffffffffff82111715614a3d57614a3c6149e6565b5b80604052505050565b6000614a506146fc565b9050614a5c8282614a15565b919050565b600067ffffffffffffffff821115614a7c57614a7b6149e6565b5b614a85826144a9565b9050602081019050919050565b82818337600083830152505050565b6000614ab4614aaf84614a61565b614a46565b905082815260208101848484011115614ad057614acf6149e1565b5b614adb848285614a92565b509392505050565b600082601f830112614af857614af76149dc565b5b8135614b08848260208601614aa1565b91505092915050565b600060208284031215614b2757614b26614706565b5b600082013567ffffffffffffffff811115614b4557614b4461470b565b5b614b5184828501614ae3565b91505092915050565b600060e0820190508181036000830152614b74818a6146a1565b9050614b836020830189614804565b8181036040830152614b9581886146a1565b90508181036060830152614ba981876146a1565b9050614bb86080830186614804565b614bc560a08301856147da565b81810360c0830152614bd781846146a1565b905098975050505050505050565b600080600060608486031215614bfe57614bfd614706565b5b6000614c0c86828701614759565b9350506020614c1d86828701614759565b9250506040614c2e86828701614785565b9150509250925092565b600060ff82169050919050565b614c4e81614c38565b82525050565b6000602082019050614c696000830184614c45565b92915050565b60006080820190508181036000830152614c8981876146a1565b9050614c986020830186614804565b8181036040830152614caa81856146a1565b9050614cb960608301846147da565b95945050505050565b60008060008060008060c08789031215614cdf57614cde614706565b5b6000614ced89828a01614759565b965050602087013567ffffffffffffffff811115614d0e57614d0d61470b565b5b614d1a89828a01614ae3565b955050604087013567ffffffffffffffff811115614d3b57614d3a61470b565b5b614d4789828a01614ae3565b945050606087013567ffffffffffffffff811115614d6857614d6761470b565b5b614d7489828a01614ae3565b9350506080614d8589828a01614785565b92505060a0614d9689828a01614785565b9150509295509295509295565b6000819050919050565b614db681614da3565b82525050565b6000602082019050614dd16000830184614dad565b92915050565b600080600060608486031215614df057614def614706565b5b600084013567ffffffffffffffff811115614e0e57614e0d61470b565b5b614e1a86828701614ae3565b9350506020614e2b86828701614785565b925050604084013567ffffffffffffffff811115614e4c57614e4b61470b565b5b614e5886828701614ae3565b9150509250925092565b600060208284031215614e7857614e77614706565b5b6000614e8684828501614759565b91505092915050565b600060208284031215614ea557614ea4614706565b5b6000614eb384828501614785565b91505092915050565b614ec581614730565b82525050565b6000602082019050614ee06000830184614ebc565b92915050565b60008060408385031215614efd57614efc614706565b5b600083013567ffffffffffffffff811115614f1b57614f1a61470b565b5b614f2785828601614ae3565b9250506020614f3885828601614785565b9150509250929050565b600067ffffffffffffffff821115614f5d57614f5c6149e6565b5b602082029050602081019050919050565b600080fd5b6000614f86614f8184614f42565b614a46565b90508083825260208201905060208402830185811115614fa957614fa8614f6e565b5b835b81811015614ff057803567ffffffffffffffff811115614fce57614fcd6149dc565b5b808601614fdb8982614ae3565b85526020850194505050602081019050614fab565b5050509392505050565b600082601f83011261500f5761500e6149dc565b5b813561501f848260208601614f73565b91505092915050565b60006020828403121561503e5761503d614706565b5b600082013567ffffffffffffffff81111561505c5761505b61470b565b5b61506884828501614ffa565b91505092915050565b600080600080600060a0868803121561508d5761508c614706565b5b600086013567ffffffffffffffff8111156150ab576150aa61470b565b5b6150b788828901614ae3565b95505060206150c888828901614785565b945050604086013567ffffffffffffffff8111156150e9576150e861470b565b5b6150f588828901614ae3565b935050606086013567ffffffffffffffff8111156151165761511561470b565b5b61512288828901614ae3565b925050608086013567ffffffffffffffff8111156151435761514261470b565b5b61514f88828901614ae3565b9150509295509295909350565b600081519050919050565b600082825260208201905092915050565b6000819050602082019050919050565b600060808301600083015184820360008601526151a582826144ba565b91505060208301516151ba60208601826144fd565b50604083015184820360408601526151d282826144ba565b91505060608301516151e76060860182614518565b508091505092915050565b60006151fe8383615188565b905092915050565b6000602082019050919050565b600061521e8261515c565b6152288185615167565b93508360208202850161523a85615178565b8060005b85811015615276578484038952815161525785826151f2565b945061526283615206565b925060208a0199505060018101905061523e565b50829750879550505050505092915050565b600060208201905081810360008301526152a28184615213565b905092915050565b6152b381614da3565b81146152be57600080fd5b50565b6000813590506152d0816152aa565b92915050565b600067ffffffffffffffff8211156152f1576152f06149e6565b5b6152fa826144a9565b9050602081019050919050565b600061531a615315846152d6565b614a46565b905082815260208101848484011115615336576153356149e1565b5b615341848285614a92565b509392505050565b600082601f83011261535e5761535d6149dc565b5b813561536e848260208601615307565b91505092915050565b6000806040838503121561538e5761538d614706565b5b600061539c858286016152c1565b925050602083013567ffffffffffffffff8111156153bd576153bc61470b565b5b6153c985828601615349565b9150509250929050565b600080604083850312156153ea576153e9614706565b5b60006153f885828601614759565b925050602061540985828601614759565b9150509250929050565b7f4e487b7100000000000000000000000000000000000000000000000000000000600052602260045260246000fd5b6000600282049050600182168061545a57607f821691505b60208210810361546d5761546c615413565b5b50919050565b7f596f7520617265206e6f7420746865206f776e65722100000000000000000000600082015250565b60006154a9601683614690565b91506154b482615473565b602082019050919050565b600060208201905081810360008301526154d88161549c565b9050919050565b7f526567697374726174696f6e2068617320616c7265616479207374617274656460008201527f2e00000000000000000000000000000000000000000000000000000000000000602082015250565b600061553b602183614690565b9150615546826154df565b604082019050919050565b6000602082019050818103600083015261556a8161552e565b9050919050565b7f43616e6e6f7420737461727420726567697374726174696f6e2061667465722060008201527f766f74696e672068617320626567756e2e000000000000000000000000000000602082015250565b60006155cd603183614690565b91506155d882615571565b604082019050919050565b600060208201905081810360008301526155fc816155c0565b9050919050565b7f526567697374726174696f6e20706572696f6420686173206e6f74207374617260008201527f7465642e00000000000000000000000000000000000000000000000000000000602082015250565b600061565f602483614690565b915061566a82615603565b604082019050919050565b6000602082019050818103600083015261568e81615652565b9050919050565b7f566f74696e672068617320616c726561647920737461727465642e0000000000600082015250565b60006156cb601b83614690565b91506156d682615695565b602082019050919050565b600060208201905081810360008301526156fa816156be565b9050919050565b600081905092915050565b7f19457468657265756d205369676e6564204d6573736167653a0a000000000000600082015250565b6000615742601a83615701565b915061574d8261570c565b601a82019050919050565b7f446f6d61696e3a20000000000000000000000000000000000000000000000000600082015250565b600061578e600883615701565b915061579982615758565b600882019050919050565b60006157af82614463565b6157b98185615701565b93506157c981856020860161447f565b80840191505092915050565b7f0a00000000000000000000000000000000000000000000000000000000000000600082015250565b600061580b600183615701565b9150615816826157d5565b600182019050919050565b7f416464726573733a200000000000000000000000000000000000000000000000600082015250565b6000615857600983615701565b915061586282615821565b600982019050919050565b7f53746174656d656e743a20000000000000000000000000000000000000000000600082015250565b60006158a3600b83615701565b91506158ae8261586d565b600b82019050919050565b7f5552493a20000000000000000000000000000000000000000000000000000000600082015250565b60006158ef600583615701565b91506158fa826158b9565b600582019050919050565b7f56657273696f6e3a20310a000000000000000000000000000000000000000000600082015250565b600061593b600b83615701565b915061594682615905565b600b82019050919050565b7f436861696e2049443a2000000000000000000000000000000000000000000000600082015250565b6000615987600a83615701565b915061599282615951565b600a82019050919050565b7f4e6f6e63653a2000000000000000000000000000000000000000000000000000600082015250565b60006159d3600783615701565b91506159de8261599d565b600782019050919050565b60006159f482615735565b91506159ff82615781565b9150615a0b82896157a4565b9150615a16826157fe565b9150615a218261584a565b9150615a2d82886157a4565b9150615a38826157fe565b9150615a4382615896565b9150615a4f82876157a4565b9150615a5a826157fe565b9150615a65826158e2565b9150615a7182866157a4565b9150615a7c826157fe565b9150615a878261592e565b9150615a928261597a565b9150615a9e82856157a4565b9150615aa9826157fe565b9150615ab4826159c6565b9150615ac082846157a4565b9150819050979650505050505050565b7f43616e6e6f7420726567697374657220647572696e6720766f74696e6720706560008201527f72696f642e000000000000000000000000000000000000000000000000000000602082015250565b6000615b2c602583614690565b9150615b3782615ad0565b604082019050919050565b60006020820190508181036000830152615b5b81615b1f565b9050919050565b6000615b6e82846157a4565b915081905092915050565b7f566f74657220616c726561647920657869737473210000000000000000000000600082015250565b6000615baf601583614690565b9150615bba82615b79565b602082019050919050565b60006020820190508181036000830152615bde81615ba2565b9050919050565b7f4163636f756e7420616c7265616479207265676973746572656420617320766f60008201527f7465720000000000000000000000000000000000000000000000000000000000602082015250565b6000615c41602383614690565b9150615c4c82615be5565b604082019050919050565b60006020820190508181036000830152615c7081615c34565b9050919050565b60008190508160005260206000209050919050565b60006020601f8301049050919050565b600082821b905092915050565b600060088302615cd97fffffffffffffffffffffffffffffffffffffffffffffffffffffffffffffffff82615c9c565b615ce38683615c9c565b95508019841693508086168417925050509392505050565b6000819050919050565b6000615d20615d1b615d16846144f3565b615cfb565b6144f3565b9050919050565b6000819050919050565b615d3a83615d05565b615d4e615d4682615d27565b848454615ca9565b825550505050565b600090565b615d63615d56565b615d6e818484615d31565b505050565b5b81811015615d9257615d87600082615d5b565b600181019050615d74565b5050565b601f821115615dd757615da881615c77565b615db184615c8c565b81016020851015615dc0578190505b615dd4615dcc85615c8c565b830182615d73565b50505b505050565b600082821c905092915050565b6000615dfa60001984600802615ddc565b1980831691505092915050565b6000615e138383615de9565b9150826002028217905092915050565b615e2c82614463565b67ffffffffffffffff811115615e4557615e446149e6565b5b615e4f8254615442565b615e5a828285615d96565b600060209050601f831160018114615e8d5760008415615e7b578287015190505b615e858582615e07565b865550615eed565b601f198416615e9b86615c77565b60005b82811015615ec357848901518255600182019150602085019450602081019050615e9e565b86831015615ee05784890151615edc601f891682615de9565b8355505b6001600288020188555050505b505050505050565b7f43616e64696461746520616c7265616479207665726966696564210000000000600082015250565b6000615f2b601b83614690565b9150615f3682615ef5565b602082019050919050565b60006020820190508181036000830152615f5a81615f1e565b9050919050565b60008154615f6e81615442565b615f788186615701565b94506001821660008114615f935760018114615fa857615fdb565b60ff1983168652811515820286019350615fdb565b615fb185615c77565b60005b83811015615fd357815481890152600182019150602081019050615fb4565b838801955050505b50505092915050565b6000615ff08284615f61565b915081905092915050565b7f526567697374726174696f6e20706572696f64206973207374696c6c2061637460008201527f6976652e00000000000000000000000000000000000000000000000000000000602082015250565b6000616057602483614690565b915061606282615ffb565b604082019050919050565b600060208201905081810360008301526160868161604a565b9050919050565b7f566f74696e6720686173206e6f742073746172746564207965742e0000000000600082015250565b60006160c3601b83614690565b91506160ce8261608d565b602082019050919050565b600060208201905081810360008301526160f2816160b6565b9050919050565b7f596f75206861766520616c726561647920766f7465642e000000000000000000600082015250565b600061612f601783614690565b915061613a826160f9565b602082019050919050565b6000602082019050818103600083015261615e81616122565b9050919050565b7f496e76616c696420706f736974696f6e2e000000000000000000000000000000600082015250565b600061619b601183614690565b91506161a682616165565b602082019050919050565b600060208201905081810360008301526161ca8161618e565b9050919050565b7f496e76616c69642063616e64696461746520696e6465782e0000000000000000600082015250565b6000616207601883614690565b9150616212826161d1565b602082019050919050565b60006020820190508181036000830152616236816161fa565b9050919050565b7f4e487b7100000000000000000000000000000000000000000000000000000000600052603260045260246000fd5b7f4e487b7100000000000000000000000000000000000000000000000000000000600052601160045260246000fd5b60006162a6826144f3565b91506162b1836144f3565b92508282019050808211156162c9576162c861626c565b5b92915050565b600081546162dc81615442565b6162e68186614690565b9450600182166000811461630157600181146163175761634a565b60ff19831686528115156020028601935061634a565b61632085615c77565b60005b8381101561634257815481890152600182019150602081019050616323565b808801955050505b50505092915050565b6000606082019050818103600083015261636d81866162cf565b9050818103602083015261638181856146a1565b90506163906040830184614804565b949350505050565b7f506f736974696f6e20616c726561647920657869737473210000000000000000600082015250565b60006163ce601883614690565b91506163d982616398565b602082019050919050565b600060208201905081810360008301526163fd816163c1565b9050919050565b60008154905061641381615442565b9050919050565b818103616428575050616500565b61643182616404565b67ffffffffffffffff81111561644a576164496149e6565b5b6164548254615442565b61645f828285615d96565b6000601f83116001811461648e576000841561647c578287015490505b6164868582615e07565b8655506164f9565b601f19841661649c87615c77565b96506164a786615c77565b60005b828110156164cf578489015482556001820191506001850194506020810190506164aa565b868310156164ec57848901546164e8601f891682615de9565b8355505b6001600288020188555050505b5050505050505b565b7f43616e64696461746520646f6573206e6f742065786973742100000000000000600082015250565b6000616538601983614690565b915061654382616502565b602082019050919050565b600060208201905081810360008301526165678161652b565b9050919050565b6000616579826144f3565b9150616584836144f3565b925082820390508181111561659c5761659b61626c565b5b92915050565b7f4e487b7100000000000000000000000000000000000000000000000000000000600052603160045260246000fd5b7f43616e64696461746520616c7265616479206578697374732100000000000000600082015250565b6000616607601983614690565b9150616612826165d1565b602082019050919050565b60006020820190508181036000830152616636816165fa565b9050919050565b7f596f75206d7573742062652061207265676973746572656420766f7465722100600082015250565b6000616673601f83614690565b915061667e8261663d565b602082019050919050565b600060208201905081810360008301526166a281616666565b9050919050565b60006060820190506166be6000830186614804565b81810360208301526166d081856146a1565b905081810360408301526166e481846146a1565b9050949350505050565b7f19457468657265756d205369676e6564204d6573736167653a0a333200000000600082015250565b6000616724601c83615701565b915061672f826166ee565b601c82019050919050565b6000819050919050565b61675561675082614da3565b61673a565b82525050565b600061676682616717565b91506167728284616744565b60208201915081905092915050565b60006060820190506167966000830186614ebc565b6167a36020830185614804565b6167b06040830184614804565b949350505050565b60006167c3826144f3565b91506167ce836144f3565b92508282026167dc816144f3565b915082820484148315176167f3576167f261626c565b5b5092915050565b6000616805826144f3565b9150600082036168185761681761626c565b5b600182039050919050565b60006040820190506168386000830185614804565b6168456020830184614804565b9392505050565b7f4e487b7100000000000000000000000000000000000000000000000000000000600052601260045260246000fd5b7f546f6b656e206c696d6974206578636565646564210000000000000000000000600082015250565b60006168b1601583614690565b91506168bc8261687b565b602082019050919050565b600060208201905081810360008301526168e0816168a4565b9050919050565b60006040820190506168fc6000830185614ebc565b6169096020830184614804565b9392505050565b7f4e487b7100000000000000000000000000000000000000000000000000000000600052602160045260246000fd5b60006080820190506169546000830187614dad565b6169616020830186614c45565b61696e6040830185614dad565b61697b6060830184614dad565b9594505050505056fea2646970667358221220bc72f129d5f0ce40203bc14d80b07969867937e36d323bb227db190404d3a2ca64736f6c634300081b0033",
  "linkReferences": {},
  "deployedLinkReferences": {}
}